{
	"contracts/BanklessWallet.sol": {
		"BanklessWallet": {
			"abi": [
				{
					"inputs": [
						{
							"internalType": "address",
							"name": "_owner",
							"type": "address"
						},
						{
							"internalType": "address[]",
							"name": "guardianAddr",
							"type": "address[]"
						},
						{
							"internalType": "uint256",
							"name": "_threshold",
							"type": "uint256"
						}
					],
					"stateMutability": "nonpayable",
					"type": "constructor"
				},
				{
					"inputs": [],
					"name": "ReentrancyGuardReentrantCall",
					"type": "error"
				},
				{
					"anonymous": false,
					"inputs": [
						{
							"indexed": true,
							"internalType": "address",
							"name": "by",
							"type": "address"
						}
					],
					"name": "AvailabilityTimePeriodChanged",
					"type": "event"
				},
				{
					"anonymous": false,
					"inputs": [
						{
							"indexed": true,
							"internalType": "address",
							"name": "by",
							"type": "address"
						},
						{
							"indexed": false,
							"internalType": "address",
							"name": "newGuardian",
							"type": "address"
						}
					],
					"name": "GuardianAdded",
					"type": "event"
				},
				{
					"anonymous": false,
					"inputs": [
						{
							"indexed": true,
							"internalType": "address",
							"name": "by",
							"type": "address"
						}
					],
					"name": "GuardianAvailabilityChecked",
					"type": "event"
				},
				{
					"anonymous": false,
					"inputs": [
						{
							"indexed": true,
							"internalType": "address",
							"name": "guardian",
							"type": "address"
						}
					],
					"name": "GuardianAvailable",
					"type": "event"
				},
				{
					"anonymous": false,
					"inputs": [
						{
							"indexed": false,
							"internalType": "address",
							"name": "by",
							"type": "address"
						}
					],
					"name": "GuardianshipTransferCancelled",
					"type": "event"
				},
				{
					"anonymous": false,
					"inputs": [
						{
							"indexed": true,
							"internalType": "address",
							"name": "newGuardian",
							"type": "address"
						},
						{
							"indexed": false,
							"internalType": "address",
							"name": "oldGuardian",
							"type": "address"
						}
					],
					"name": "GuardianshipTransferExecuted",
					"type": "event"
				},
				{
					"anonymous": false,
					"inputs": [
						{
							"indexed": true,
							"internalType": "address",
							"name": "newGuardian",
							"type": "address"
						},
						{
							"indexed": false,
							"internalType": "address",
							"name": "oldGuardian",
							"type": "address"
						}
					],
					"name": "GuardianshipTransferInitiated",
					"type": "event"
				},
				{
					"anonymous": false,
					"inputs": [
						{
							"indexed": false,
							"internalType": "address",
							"name": "by",
							"type": "address"
						},
						{
							"indexed": true,
							"internalType": "uint256",
							"name": "round",
							"type": "uint256"
						}
					],
					"name": "RecoveryCancelled",
					"type": "event"
				},
				{
					"anonymous": false,
					"inputs": [
						{
							"indexed": false,
							"internalType": "address",
							"name": "oldOwner",
							"type": "address"
						},
						{
							"indexed": false,
							"internalType": "address",
							"name": "newOwner",
							"type": "address"
						},
						{
							"indexed": true,
							"internalType": "uint256",
							"name": "round",
							"type": "uint256"
						}
					],
					"name": "RecoveryExecuted",
					"type": "event"
				},
				{
					"anonymous": false,
					"inputs": [
						{
							"indexed": true,
							"internalType": "address",
							"name": "by",
							"type": "address"
						},
						{
							"indexed": false,
							"internalType": "address",
							"name": "newProposedOwner",
							"type": "address"
						},
						{
							"indexed": true,
							"internalType": "uint256",
							"name": "round",
							"type": "uint256"
						}
					],
					"name": "RecoveryInitiated",
					"type": "event"
				},
				{
					"anonymous": false,
					"inputs": [
						{
							"indexed": true,
							"internalType": "address",
							"name": "by",
							"type": "address"
						},
						{
							"indexed": false,
							"internalType": "address",
							"name": "newProposedOwner",
							"type": "address"
						},
						{
							"indexed": true,
							"internalType": "uint256",
							"name": "round",
							"type": "uint256"
						}
					],
					"name": "RecoverySupported",
					"type": "event"
				},
				{
					"anonymous": false,
					"inputs": [
						{
							"indexed": true,
							"internalType": "address",
							"name": "by",
							"type": "address"
						},
						{
							"indexed": true,
							"internalType": "uint256",
							"name": "newThreshold",
							"type": "uint256"
						}
					],
					"name": "ThresholdUpdated",
					"type": "event"
				},
				{
					"anonymous": false,
					"inputs": [
						{
							"indexed": true,
							"internalType": "address",
							"name": "callee",
							"type": "address"
						},
						{
							"indexed": false,
							"internalType": "uint256",
							"name": "value",
							"type": "uint256"
						},
						{
							"indexed": false,
							"internalType": "bytes",
							"name": "data",
							"type": "bytes"
						}
					],
					"name": "TransactionExecuted",
					"type": "event"
				},
				{
					"anonymous": false,
					"inputs": [
						{
							"indexed": true,
							"internalType": "address",
							"name": "destination",
							"type": "address"
						},
						{
							"indexed": false,
							"internalType": "uint256",
							"name": "value",
							"type": "uint256"
						}
					],
					"name": "Transferred",
					"type": "event"
				},
				{
					"inputs": [],
					"name": "AvailabilityCheckTimePeriod",
					"outputs": [
						{
							"internalType": "uint256",
							"name": "",
							"type": "uint256"
						}
					],
					"stateMutability": "view",
					"type": "function"
				},
				{
					"inputs": [
						{
							"internalType": "address",
							"name": "newGuardian",
							"type": "address"
						}
					],
					"name": "addGuardian",
					"outputs": [],
					"stateMutability": "nonpayable",
					"type": "function"
				},
				{
					"inputs": [],
					"name": "cancelGuardianshipTransfer",
					"outputs": [],
					"stateMutability": "nonpayable",
					"type": "function"
				},
				{
					"inputs": [],
					"name": "cancelRecovery",
					"outputs": [],
					"stateMutability": "nonpayable",
					"type": "function"
				},
				{
					"inputs": [
						{
							"internalType": "uint256",
							"name": "_days",
							"type": "uint256"
						}
					],
					"name": "changeAvalabilityTimePeriod",
					"outputs": [],
					"stateMutability": "nonpayable",
					"type": "function"
				},
				{
					"inputs": [],
					"name": "currRecoveryRound",
					"outputs": [
						{
							"internalType": "uint256",
							"name": "",
							"type": "uint256"
						}
					],
					"stateMutability": "view",
					"type": "function"
				},
				{
					"inputs": [
						{
							"internalType": "uint256",
							"name": "_threshold",
							"type": "uint256"
						}
					],
					"name": "editThreshold",
					"outputs": [],
					"stateMutability": "nonpayable",
					"type": "function"
				},
				{
					"inputs": [
						{
							"internalType": "address[]",
							"name": "guardianList",
							"type": "address[]"
						}
					],
					"name": "executeGuardianAvailabilityCheck",
					"outputs": [],
					"stateMutability": "nonpayable",
					"type": "function"
				},
				{
					"inputs": [
						{
							"internalType": "address",
							"name": "appellant",
							"type": "address"
						}
					],
					"name": "executeGuardianshipTransfer",
					"outputs": [],
					"stateMutability": "nonpayable",
					"type": "function"
				},
				{
					"inputs": [
						{
							"internalType": "address",
							"name": "newOwner",
							"type": "address"
						},
						{
							"internalType": "address[]",
							"name": "guardianList",
							"type": "address[]"
						}
					],
					"name": "executeRecovery",
					"outputs": [],
					"stateMutability": "nonpayable",
					"type": "function"
				},
				{
					"inputs": [
						{
							"internalType": "address",
							"name": "callee",
							"type": "address"
						},
						{
							"internalType": "uint256",
							"name": "value",
							"type": "uint256"
						},
						{
							"internalType": "bytes",
							"name": "data",
							"type": "bytes"
						}
					],
					"name": "executeTx",
					"outputs": [
						{
							"internalType": "bytes",
							"name": "",
							"type": "bytes"
						}
					],
					"stateMutability": "nonpayable",
					"type": "function"
				},
				{
					"inputs": [],
					"name": "getBalance",
					"outputs": [
						{
							"internalType": "uint256",
							"name": "",
							"type": "uint256"
						}
					],
					"stateMutability": "view",
					"type": "function"
				},
				{
					"inputs": [
						{
							"internalType": "address",
							"name": "",
							"type": "address"
						}
					],
					"name": "guardianChangeRequest",
					"outputs": [
						{
							"internalType": "address",
							"name": "proposedGuardian",
							"type": "address"
						},
						{
							"internalType": "address",
							"name": "guardianToChange",
							"type": "address"
						},
						{
							"internalType": "bool",
							"name": "isUsed",
							"type": "bool"
						}
					],
					"stateMutability": "view",
					"type": "function"
				},
				{
					"inputs": [
						{
							"internalType": "address",
							"name": "",
							"type": "address"
						}
					],
					"name": "guardianRecoveryRequest",
					"outputs": [
						{
							"internalType": "address",
							"name": "proposedOwner",
							"type": "address"
						},
						{
							"internalType": "uint256",
							"name": "recoveryRound",
							"type": "uint256"
						},
						{
							"internalType": "bool",
							"name": "isUsed",
							"type": "bool"
						}
					],
					"stateMutability": "view",
					"type": "function"
				},
				{
					"inputs": [
						{
							"internalType": "address",
							"name": "",
							"type": "address"
						}
					],
					"name": "guardianToRemoveTimestamp",
					"outputs": [
						{
							"internalType": "uint256",
							"name": "",
							"type": "uint256"
						}
					],
					"stateMutability": "view",
					"type": "function"
				},
				{
					"inputs": [],
					"name": "inGuardianRequest",
					"outputs": [
						{
							"internalType": "bool",
							"name": "",
							"type": "bool"
						}
					],
					"stateMutability": "view",
					"type": "function"
				},
				{
					"inputs": [],
					"name": "inRecovery",
					"outputs": [
						{
							"internalType": "bool",
							"name": "",
							"type": "bool"
						}
					],
					"stateMutability": "view",
					"type": "function"
				},
				{
					"inputs": [
						{
							"internalType": "address",
							"name": "_proposedOwner",
							"type": "address"
						}
					],
					"name": "initiateRecovery",
					"outputs": [],
					"stateMutability": "nonpayable",
					"type": "function"
				},
				{
					"inputs": [
						{
							"internalType": "address",
							"name": "",
							"type": "address"
						}
					],
					"name": "isGuardian",
					"outputs": [
						{
							"internalType": "bool",
							"name": "",
							"type": "bool"
						}
					],
					"stateMutability": "view",
					"type": "function"
				},
				{
					"inputs": [],
					"name": "owner",
					"outputs": [
						{
							"internalType": "address",
							"name": "",
							"type": "address"
						}
					],
					"stateMutability": "view",
					"type": "function"
				},
				{
					"inputs": [],
					"name": "supportAvailability",
					"outputs": [],
					"stateMutability": "nonpayable",
					"type": "function"
				},
				{
					"inputs": [
						{
							"internalType": "address",
							"name": "_proposedOwner",
							"type": "address"
						}
					],
					"name": "supportRecovery",
					"outputs": [],
					"stateMutability": "nonpayable",
					"type": "function"
				},
				{
					"inputs": [],
					"name": "threshold",
					"outputs": [
						{
							"internalType": "uint256",
							"name": "",
							"type": "uint256"
						}
					],
					"stateMutability": "view",
					"type": "function"
				},
				{
					"inputs": [
						{
							"internalType": "address payable",
							"name": "destination",
							"type": "address"
						},
						{
							"internalType": "uint256",
							"name": "amount",
							"type": "uint256"
						}
					],
					"name": "transfer",
					"outputs": [],
					"stateMutability": "nonpayable",
					"type": "function"
				},
				{
					"inputs": [
						{
							"internalType": "address",
							"name": "guardianToChange",
							"type": "address"
						},
						{
							"internalType": "address",
							"name": "newGuardianHash",
							"type": "address"
						}
					],
					"name": "transferGuardianship",
					"outputs": [],
					"stateMutability": "nonpayable",
					"type": "function"
				}
			],
			"devdoc": {
				"errors": {
					"ReentrancyGuardReentrantCall()": [
						{
							"details": "Unauthorized reentrant call."
						}
					]
				},
				"kind": "dev",
				"methods": {},
				"version": 1
			},
			"evm": {
				"assembly": "    /* \"contracts/BanklessWallet.sol\":176:8651  contract BanklessWallet is ReentrancyGuard {... */\n  mstore(0x40, 0x80)\n    /* \"contracts/BanklessWallet.sol\":870:878  182 days */\n  0xeff100\n    /* \"contracts/BanklessWallet.sol\":825:878  uint256 public AvailabilityCheckTimePeriod = 182 days */\n  0x08\n  sstore\n    /* \"contracts/BanklessWallet.sol\":1665:2161  constructor(address _owner, address[] memory guardianAddr, uint256 _threshold){... */\n  callvalue\n  dup1\n  iszero\n  tag_1\n  jumpi\n  0x00\n  dup1\n  revert\ntag_1:\n  pop\n  mload(0x40)\n  sub(codesize, bytecodeSize)\n  dup1\n  bytecodeSize\n  dup4\n  codecopy\n  dup2\n  dup2\n  add\n  0x40\n  mstore\n  dup2\n  add\n  swap1\n  tag_2\n  swap2\n  swap1\n  tag_3\n  jump\t// in\ntag_2:\n    /* \"https://github.com/OpenZeppelin/openzeppelin-contracts/blob/master/contracts/utils/ReentrancyGuard.sol\":1713:1714  1 */\n  0x01\n    /* \"https://github.com/OpenZeppelin/openzeppelin-contracts/blob/master/contracts/utils/ReentrancyGuard.sol\":1917:1924  _status */\n  0x00\n    /* \"https://github.com/OpenZeppelin/openzeppelin-contracts/blob/master/contracts/utils/ReentrancyGuard.sol\":1917:1938  _status = NOT_ENTERED */\n  dup2\n  swap1\n  sstore\n  pop\n    /* \"contracts/BanklessWallet.sol\":1775:1787  guardianAddr */\n  dup2\n    /* \"contracts/BanklessWallet.sol\":1775:1794  guardianAddr.length */\n  mload\n    /* \"contracts/BanklessWallet.sol\":1761:1771  _threshold */\n  dup2\n    /* \"contracts/BanklessWallet.sol\":1761:1794  _threshold <= guardianAddr.length */\n  gt\n  iszero\n    /* \"contracts/BanklessWallet.sol\":1753:1820  require(_threshold <= guardianAddr.length, \"Threshold is too high\") */\n  tag_8\n  jumpi\n  mload(0x40)\n  0x08c379a000000000000000000000000000000000000000000000000000000000\n  dup2\n  mstore\n  0x04\n  add\n  tag_9\n  swap1\n  tag_10\n  jump\t// in\ntag_9:\n  mload(0x40)\n  dup1\n  swap2\n  sub\n  swap1\n  revert\ntag_8:\n    /* \"contracts/BanklessWallet.sol\":1836:1842  uint i */\n  0x00\n    /* \"contracts/BanklessWallet.sol\":1832:2090  for(uint i = 0; i < guardianAddr.length; i++) {... */\ntag_11:\n    /* \"contracts/BanklessWallet.sol\":1852:1864  guardianAddr */\n  dup3\n    /* \"contracts/BanklessWallet.sol\":1852:1871  guardianAddr.length */\n  mload\n    /* \"contracts/BanklessWallet.sol\":1848:1849  i */\n  dup2\n    /* \"contracts/BanklessWallet.sol\":1848:1871  i < guardianAddr.length */\n  lt\n    /* \"contracts/BanklessWallet.sol\":1832:2090  for(uint i = 0; i < guardianAddr.length; i++) {... */\n  iszero\n  tag_12\n  jumpi\n    /* \"contracts/BanklessWallet.sol\":1901:1911  isGuardian */\n  0x03\n    /* \"contracts/BanklessWallet.sol\":1901:1928  isGuardian[guardianAddr[i]] */\n  0x00\n    /* \"contracts/BanklessWallet.sol\":1912:1924  guardianAddr */\n  dup5\n    /* \"contracts/BanklessWallet.sol\":1925:1926  i */\n  dup4\n    /* \"contracts/BanklessWallet.sol\":1912:1927  guardianAddr[i] */\n  dup2\n  mload\n  dup2\n  lt\n  tag_14\n  jumpi\n  tag_15\n  tag_16\n  jump\t// in\ntag_15:\ntag_14:\n  0x20\n  mul\n  0x20\n  add\n  add\n  mload\n    /* \"contracts/BanklessWallet.sol\":1901:1928  isGuardian[guardianAddr[i]] */\n  0xffffffffffffffffffffffffffffffffffffffff\n  and\n  0xffffffffffffffffffffffffffffffffffffffff\n  and\n  dup2\n  mstore\n  0x20\n  add\n  swap1\n  dup2\n  mstore\n  0x20\n  add\n  0x00\n  keccak256\n  0x00\n  swap1\n  sload\n  swap1\n  0x0100\n  exp\n  swap1\n  div\n  0xff\n  and\n    /* \"contracts/BanklessWallet.sol\":1900:1928  !isGuardian[guardianAddr[i]] */\n  iszero\n    /* \"contracts/BanklessWallet.sol\":1892:1957  require(!isGuardian[guardianAddr[i]], \"Duplicate Guardian Found\") */\n  tag_17\n  jumpi\n  mload(0x40)\n  0x08c379a000000000000000000000000000000000000000000000000000000000\n  dup2\n  mstore\n  0x04\n  add\n  tag_18\n  swap1\n  tag_19\n  jump\t// in\ntag_18:\n  mload(0x40)\n  dup1\n  swap2\n  sub\n  swap1\n  revert\ntag_17:\n    /* \"contracts/BanklessWallet.sol\":2001:2005  true */\n  0x01\n    /* \"contracts/BanklessWallet.sol\":1971:1981  isGuardian */\n  0x03\n    /* \"contracts/BanklessWallet.sol\":1971:1998  isGuardian[guardianAddr[i]] */\n  0x00\n    /* \"contracts/BanklessWallet.sol\":1982:1994  guardianAddr */\n  dup6\n    /* \"contracts/BanklessWallet.sol\":1995:1996  i */\n  dup5\n    /* \"contracts/BanklessWallet.sol\":1982:1997  guardianAddr[i] */\n  dup2\n  mload\n  dup2\n  lt\n  tag_20\n  jumpi\n  tag_21\n  tag_16\n  jump\t// in\ntag_21:\ntag_20:\n  0x20\n  mul\n  0x20\n  add\n  add\n  mload\n    /* \"contracts/BanklessWallet.sol\":1971:1998  isGuardian[guardianAddr[i]] */\n  0xffffffffffffffffffffffffffffffffffffffff\n  and\n  0xffffffffffffffffffffffffffffffffffffffff\n  and\n  dup2\n  mstore\n  0x20\n  add\n  swap1\n  dup2\n  mstore\n  0x20\n  add\n  0x00\n  keccak256\n  0x00\n    /* \"contracts/BanklessWallet.sol\":1971:2005  isGuardian[guardianAddr[i]] = true */\n  0x0100\n  exp\n  dup2\n  sload\n  dup2\n  0xff\n  mul\n  not\n  and\n  swap1\n  dup4\n  iszero\n  iszero\n  mul\n  or\n  swap1\n  sstore\n  pop\n    /* \"contracts/BanklessWallet.sol\":2064:2079  block.timestamp */\n  timestamp\n    /* \"contracts/BanklessWallet.sol\":2019:2044  guardianToRemoveTimestamp */\n  0x09\n    /* \"contracts/BanklessWallet.sol\":2019:2061  guardianToRemoveTimestamp[guardianAddr[i]] */\n  0x00\n    /* \"contracts/BanklessWallet.sol\":2045:2057  guardianAddr */\n  dup6\n    /* \"contracts/BanklessWallet.sol\":2058:2059  i */\n  dup5\n    /* \"contracts/BanklessWallet.sol\":2045:2060  guardianAddr[i] */\n  dup2\n  mload\n  dup2\n  lt\n  tag_22\n  jumpi\n  tag_23\n  tag_16\n  jump\t// in\ntag_23:\ntag_22:\n  0x20\n  mul\n  0x20\n  add\n  add\n  mload\n    /* \"contracts/BanklessWallet.sol\":2019:2061  guardianToRemoveTimestamp[guardianAddr[i]] */\n  0xffffffffffffffffffffffffffffffffffffffff\n  and\n  0xffffffffffffffffffffffffffffffffffffffff\n  and\n  dup2\n  mstore\n  0x20\n  add\n  swap1\n  dup2\n  mstore\n  0x20\n  add\n  0x00\n  keccak256\n    /* \"contracts/BanklessWallet.sol\":2019:2079  guardianToRemoveTimestamp[guardianAddr[i]] = block.timestamp */\n  dup2\n  swap1\n  sstore\n  pop\n    /* \"contracts/BanklessWallet.sol\":1873:1876  i++ */\n  dup1\n  dup1\n  tag_24\n  swap1\n  tag_25\n  jump\t// in\ntag_24:\n  swap2\n  pop\n  pop\n    /* \"contracts/BanklessWallet.sol\":1832:2090  for(uint i = 0; i < guardianAddr.length; i++) {... */\n  jump(tag_11)\ntag_12:\n  pop\n    /* \"contracts/BanklessWallet.sol\":2120:2130  _threshold */\n  dup1\n    /* \"contracts/BanklessWallet.sol\":2108:2117  threshold */\n  0x02\n    /* \"contracts/BanklessWallet.sol\":2108:2130  threshold = _threshold */\n  dup2\n  swap1\n  sstore\n  pop\n    /* \"contracts/BanklessWallet.sol\":2148:2154  _owner */\n  dup3\n    /* \"contracts/BanklessWallet.sol\":2140:2145  owner */\n  0x01\n  0x00\n    /* \"contracts/BanklessWallet.sol\":2140:2154  owner = _owner */\n  0x0100\n  exp\n  dup2\n  sload\n  dup2\n  0xffffffffffffffffffffffffffffffffffffffff\n  mul\n  not\n  and\n  swap1\n  dup4\n  0xffffffffffffffffffffffffffffffffffffffff\n  and\n  mul\n  or\n  swap1\n  sstore\n  pop\n    /* \"contracts/BanklessWallet.sol\":1665:2161  constructor(address _owner, address[] memory guardianAddr, uint256 _threshold){... */\n  pop\n  pop\n  pop\n    /* \"contracts/BanklessWallet.sol\":176:8651  contract BanklessWallet is ReentrancyGuard {... */\n  jump(tag_26)\n    /* \"#utility.yul\":7:82   */\ntag_27:\n    /* \"#utility.yul\":40:46   */\n  0x00\n    /* \"#utility.yul\":73:75   */\n  0x40\n    /* \"#utility.yul\":67:76   */\n  mload\n    /* \"#utility.yul\":57:76   */\n  swap1\n  pop\n    /* \"#utility.yul\":7:82   */\n  swap1\n  jump\t// out\n    /* \"#utility.yul\":88:205   */\ntag_28:\n    /* \"#utility.yul\":197:198   */\n  0x00\n    /* \"#utility.yul\":194:195   */\n  dup1\n    /* \"#utility.yul\":187:199   */\n  revert\n    /* \"#utility.yul\":211:328   */\ntag_29:\n    /* \"#utility.yul\":320:321   */\n  0x00\n    /* \"#utility.yul\":317:318   */\n  dup1\n    /* \"#utility.yul\":310:322   */\n  revert\n    /* \"#utility.yul\":334:460   */\ntag_30:\n    /* \"#utility.yul\":371:378   */\n  0x00\n    /* \"#utility.yul\":411:453   */\n  0xffffffffffffffffffffffffffffffffffffffff\n    /* \"#utility.yul\":404:409   */\n  dup3\n    /* \"#utility.yul\":400:454   */\n  and\n    /* \"#utility.yul\":389:454   */\n  swap1\n  pop\n    /* \"#utility.yul\":334:460   */\n  swap2\n  swap1\n  pop\n  jump\t// out\n    /* \"#utility.yul\":466:562   */\ntag_31:\n    /* \"#utility.yul\":503:510   */\n  0x00\n    /* \"#utility.yul\":532:556   */\n  tag_58\n    /* \"#utility.yul\":550:555   */\n  dup3\n    /* \"#utility.yul\":532:556   */\n  tag_30\n  jump\t// in\ntag_58:\n    /* \"#utility.yul\":521:556   */\n  swap1\n  pop\n    /* \"#utility.yul\":466:562   */\n  swap2\n  swap1\n  pop\n  jump\t// out\n    /* \"#utility.yul\":568:690   */\ntag_32:\n    /* \"#utility.yul\":641:665   */\n  tag_60\n    /* \"#utility.yul\":659:664   */\n  dup2\n    /* \"#utility.yul\":641:665   */\n  tag_31\n  jump\t// in\ntag_60:\n    /* \"#utility.yul\":634:639   */\n  dup2\n    /* \"#utility.yul\":631:666   */\n  eq\n    /* \"#utility.yul\":621:684   */\n  tag_61\n  jumpi\n    /* \"#utility.yul\":680:681   */\n  0x00\n    /* \"#utility.yul\":677:678   */\n  dup1\n    /* \"#utility.yul\":670:682   */\n  revert\n    /* \"#utility.yul\":621:684   */\ntag_61:\n    /* \"#utility.yul\":568:690   */\n  pop\n  jump\t// out\n    /* \"#utility.yul\":696:839   */\ntag_33:\n    /* \"#utility.yul\":753:758   */\n  0x00\n    /* \"#utility.yul\":784:790   */\n  dup2\n    /* \"#utility.yul\":778:791   */\n  mload\n    /* \"#utility.yul\":769:791   */\n  swap1\n  pop\n    /* \"#utility.yul\":800:833   */\n  tag_63\n    /* \"#utility.yul\":827:832   */\n  dup2\n    /* \"#utility.yul\":800:833   */\n  tag_32\n  jump\t// in\ntag_63:\n    /* \"#utility.yul\":696:839   */\n  swap3\n  swap2\n  pop\n  pop\n  jump\t// out\n    /* \"#utility.yul\":845:962   */\ntag_34:\n    /* \"#utility.yul\":954:955   */\n  0x00\n    /* \"#utility.yul\":951:952   */\n  dup1\n    /* \"#utility.yul\":944:956   */\n  revert\n    /* \"#utility.yul\":968:1070   */\ntag_35:\n    /* \"#utility.yul\":1009:1015   */\n  0x00\n    /* \"#utility.yul\":1060:1062   */\n  0x1f\n    /* \"#utility.yul\":1056:1063   */\n  not\n    /* \"#utility.yul\":1051:1053   */\n  0x1f\n    /* \"#utility.yul\":1044:1049   */\n  dup4\n    /* \"#utility.yul\":1040:1054   */\n  add\n    /* \"#utility.yul\":1036:1064   */\n  and\n    /* \"#utility.yul\":1026:1064   */\n  swap1\n  pop\n    /* \"#utility.yul\":968:1070   */\n  swap2\n  swap1\n  pop\n  jump\t// out\n    /* \"#utility.yul\":1076:1256   */\ntag_36:\n    /* \"#utility.yul\":1124:1201   */\n  0x4e487b7100000000000000000000000000000000000000000000000000000000\n    /* \"#utility.yul\":1121:1122   */\n  0x00\n    /* \"#utility.yul\":1114:1202   */\n  mstore\n    /* \"#utility.yul\":1221:1225   */\n  0x41\n    /* \"#utility.yul\":1218:1219   */\n  0x04\n    /* \"#utility.yul\":1211:1226   */\n  mstore\n    /* \"#utility.yul\":1245:1249   */\n  0x24\n    /* \"#utility.yul\":1242:1243   */\n  0x00\n    /* \"#utility.yul\":1235:1250   */\n  revert\n    /* \"#utility.yul\":1262:1543   */\ntag_37:\n    /* \"#utility.yul\":1345:1372   */\n  tag_68\n    /* \"#utility.yul\":1367:1371   */\n  dup3\n    /* \"#utility.yul\":1345:1372   */\n  tag_35\n  jump\t// in\ntag_68:\n    /* \"#utility.yul\":1337:1343   */\n  dup2\n    /* \"#utility.yul\":1333:1373   */\n  add\n    /* \"#utility.yul\":1475:1481   */\n  dup2\n    /* \"#utility.yul\":1463:1473   */\n  dup2\n    /* \"#utility.yul\":1460:1482   */\n  lt\n    /* \"#utility.yul\":1439:1457   */\n  0xffffffffffffffff\n    /* \"#utility.yul\":1427:1437   */\n  dup3\n    /* \"#utility.yul\":1424:1458   */\n  gt\n    /* \"#utility.yul\":1421:1483   */\n  or\n    /* \"#utility.yul\":1418:1506   */\n  iszero\n  tag_69\n  jumpi\n    /* \"#utility.yul\":1486:1504   */\n  tag_70\n  tag_36\n  jump\t// in\ntag_70:\n    /* \"#utility.yul\":1418:1506   */\ntag_69:\n    /* \"#utility.yul\":1526:1536   */\n  dup1\n    /* \"#utility.yul\":1522:1524   */\n  0x40\n    /* \"#utility.yul\":1515:1537   */\n  mstore\n    /* \"#utility.yul\":1305:1543   */\n  pop\n    /* \"#utility.yul\":1262:1543   */\n  pop\n  pop\n  jump\t// out\n    /* \"#utility.yul\":1549:1678   */\ntag_38:\n    /* \"#utility.yul\":1583:1589   */\n  0x00\n    /* \"#utility.yul\":1610:1630   */\n  tag_72\n  tag_27\n  jump\t// in\ntag_72:\n    /* \"#utility.yul\":1600:1630   */\n  swap1\n  pop\n    /* \"#utility.yul\":1639:1672   */\n  tag_73\n    /* \"#utility.yul\":1667:1671   */\n  dup3\n    /* \"#utility.yul\":1659:1665   */\n  dup3\n    /* \"#utility.yul\":1639:1672   */\n  tag_37\n  jump\t// in\ntag_73:\n    /* \"#utility.yul\":1549:1678   */\n  swap2\n  swap1\n  pop\n  jump\t// out\n    /* \"#utility.yul\":1684:1995   */\ntag_39:\n    /* \"#utility.yul\":1761:1765   */\n  0x00\n    /* \"#utility.yul\":1851:1869   */\n  0xffffffffffffffff\n    /* \"#utility.yul\":1843:1849   */\n  dup3\n    /* \"#utility.yul\":1840:1870   */\n  gt\n    /* \"#utility.yul\":1837:1893   */\n  iszero\n  tag_75\n  jumpi\n    /* \"#utility.yul\":1873:1891   */\n  tag_76\n  tag_36\n  jump\t// in\ntag_76:\n    /* \"#utility.yul\":1837:1893   */\ntag_75:\n    /* \"#utility.yul\":1923:1927   */\n  0x20\n    /* \"#utility.yul\":1915:1921   */\n  dup3\n    /* \"#utility.yul\":1911:1928   */\n  mul\n    /* \"#utility.yul\":1903:1928   */\n  swap1\n  pop\n    /* \"#utility.yul\":1983:1987   */\n  0x20\n    /* \"#utility.yul\":1977:1981   */\n  dup2\n    /* \"#utility.yul\":1973:1988   */\n  add\n    /* \"#utility.yul\":1965:1988   */\n  swap1\n  pop\n    /* \"#utility.yul\":1684:1995   */\n  swap2\n  swap1\n  pop\n  jump\t// out\n    /* \"#utility.yul\":2001:2118   */\ntag_40:\n    /* \"#utility.yul\":2110:2111   */\n  0x00\n    /* \"#utility.yul\":2107:2108   */\n  dup1\n    /* \"#utility.yul\":2100:2112   */\n  revert\n    /* \"#utility.yul\":2141:2873   */\ntag_41:\n    /* \"#utility.yul\":2248:2253   */\n  0x00\n    /* \"#utility.yul\":2273:2354   */\n  tag_79\n    /* \"#utility.yul\":2289:2353   */\n  tag_80\n    /* \"#utility.yul\":2346:2352   */\n  dup5\n    /* \"#utility.yul\":2289:2353   */\n  tag_39\n  jump\t// in\ntag_80:\n    /* \"#utility.yul\":2273:2354   */\n  tag_38\n  jump\t// in\ntag_79:\n    /* \"#utility.yul\":2264:2354   */\n  swap1\n  pop\n    /* \"#utility.yul\":2374:2379   */\n  dup1\n    /* \"#utility.yul\":2403:2409   */\n  dup4\n    /* \"#utility.yul\":2396:2401   */\n  dup3\n    /* \"#utility.yul\":2389:2410   */\n  mstore\n    /* \"#utility.yul\":2437:2441   */\n  0x20\n    /* \"#utility.yul\":2430:2435   */\n  dup3\n    /* \"#utility.yul\":2426:2442   */\n  add\n    /* \"#utility.yul\":2419:2442   */\n  swap1\n  pop\n    /* \"#utility.yul\":2490:2494   */\n  0x20\n    /* \"#utility.yul\":2482:2488   */\n  dup5\n    /* \"#utility.yul\":2478:2495   */\n  mul\n    /* \"#utility.yul\":2470:2476   */\n  dup4\n    /* \"#utility.yul\":2466:2496   */\n  add\n    /* \"#utility.yul\":2519:2522   */\n  dup6\n    /* \"#utility.yul\":2511:2517   */\n  dup2\n    /* \"#utility.yul\":2508:2523   */\n  gt\n    /* \"#utility.yul\":2505:2627   */\n  iszero\n  tag_81\n  jumpi\n    /* \"#utility.yul\":2538:2617   */\n  tag_82\n  tag_40\n  jump\t// in\ntag_82:\n    /* \"#utility.yul\":2505:2627   */\ntag_81:\n    /* \"#utility.yul\":2653:2659   */\n  dup4\n    /* \"#utility.yul\":2636:2867   */\ntag_83:\n    /* \"#utility.yul\":2670:2676   */\n  dup2\n    /* \"#utility.yul\":2665:2668   */\n  dup2\n    /* \"#utility.yul\":2662:2677   */\n  lt\n    /* \"#utility.yul\":2636:2867   */\n  iszero\n  tag_85\n  jumpi\n    /* \"#utility.yul\":2745:2748   */\n  dup1\n    /* \"#utility.yul\":2774:2822   */\n  tag_86\n    /* \"#utility.yul\":2818:2821   */\n  dup9\n    /* \"#utility.yul\":2806:2816   */\n  dup3\n    /* \"#utility.yul\":2774:2822   */\n  tag_33\n  jump\t// in\ntag_86:\n    /* \"#utility.yul\":2769:2772   */\n  dup5\n    /* \"#utility.yul\":2762:2823   */\n  mstore\n    /* \"#utility.yul\":2852:2856   */\n  0x20\n    /* \"#utility.yul\":2847:2850   */\n  dup5\n    /* \"#utility.yul\":2843:2857   */\n  add\n    /* \"#utility.yul\":2836:2857   */\n  swap4\n  pop\n    /* \"#utility.yul\":2712:2867   */\n  pop\n    /* \"#utility.yul\":2696:2700   */\n  0x20\n    /* \"#utility.yul\":2691:2694   */\n  dup2\n    /* \"#utility.yul\":2687:2701   */\n  add\n    /* \"#utility.yul\":2680:2701   */\n  swap1\n  pop\n    /* \"#utility.yul\":2636:2867   */\n  jump(tag_83)\ntag_85:\n    /* \"#utility.yul\":2640:2661   */\n  pop\n    /* \"#utility.yul\":2254:2873   */\n  pop\n  pop\n    /* \"#utility.yul\":2141:2873   */\n  swap4\n  swap3\n  pop\n  pop\n  pop\n  jump\t// out\n    /* \"#utility.yul\":2896:3281   */\ntag_42:\n    /* \"#utility.yul\":2978:2983   */\n  0x00\n    /* \"#utility.yul\":3027:3030   */\n  dup3\n    /* \"#utility.yul\":3020:3024   */\n  0x1f\n    /* \"#utility.yul\":3012:3018   */\n  dup4\n    /* \"#utility.yul\":3008:3025   */\n  add\n    /* \"#utility.yul\":3004:3031   */\n  slt\n    /* \"#utility.yul\":2994:3116   */\n  tag_88\n  jumpi\n    /* \"#utility.yul\":3035:3114   */\n  tag_89\n  tag_34\n  jump\t// in\ntag_89:\n    /* \"#utility.yul\":2994:3116   */\ntag_88:\n    /* \"#utility.yul\":3145:3151   */\n  dup2\n    /* \"#utility.yul\":3139:3152   */\n  mload\n    /* \"#utility.yul\":3170:3275   */\n  tag_90\n    /* \"#utility.yul\":3271:3274   */\n  dup5\n    /* \"#utility.yul\":3263:3269   */\n  dup3\n    /* \"#utility.yul\":3256:3260   */\n  0x20\n    /* \"#utility.yul\":3248:3254   */\n  dup7\n    /* \"#utility.yul\":3244:3261   */\n  add\n    /* \"#utility.yul\":3170:3275   */\n  tag_41\n  jump\t// in\ntag_90:\n    /* \"#utility.yul\":3161:3275   */\n  swap2\n  pop\n    /* \"#utility.yul\":2984:3281   */\n  pop\n    /* \"#utility.yul\":2896:3281   */\n  swap3\n  swap2\n  pop\n  pop\n  jump\t// out\n    /* \"#utility.yul\":3287:3364   */\ntag_43:\n    /* \"#utility.yul\":3324:3331   */\n  0x00\n    /* \"#utility.yul\":3353:3358   */\n  dup2\n    /* \"#utility.yul\":3342:3358   */\n  swap1\n  pop\n    /* \"#utility.yul\":3287:3364   */\n  swap2\n  swap1\n  pop\n  jump\t// out\n    /* \"#utility.yul\":3370:3492   */\ntag_44:\n    /* \"#utility.yul\":3443:3467   */\n  tag_93\n    /* \"#utility.yul\":3461:3466   */\n  dup2\n    /* \"#utility.yul\":3443:3467   */\n  tag_43\n  jump\t// in\ntag_93:\n    /* \"#utility.yul\":3436:3441   */\n  dup2\n    /* \"#utility.yul\":3433:3468   */\n  eq\n    /* \"#utility.yul\":3423:3486   */\n  tag_94\n  jumpi\n    /* \"#utility.yul\":3482:3483   */\n  0x00\n    /* \"#utility.yul\":3479:3480   */\n  dup1\n    /* \"#utility.yul\":3472:3484   */\n  revert\n    /* \"#utility.yul\":3423:3486   */\ntag_94:\n    /* \"#utility.yul\":3370:3492   */\n  pop\n  jump\t// out\n    /* \"#utility.yul\":3498:3641   */\ntag_45:\n    /* \"#utility.yul\":3555:3560   */\n  0x00\n    /* \"#utility.yul\":3586:3592   */\n  dup2\n    /* \"#utility.yul\":3580:3593   */\n  mload\n    /* \"#utility.yul\":3571:3593   */\n  swap1\n  pop\n    /* \"#utility.yul\":3602:3635   */\n  tag_96\n    /* \"#utility.yul\":3629:3634   */\n  dup2\n    /* \"#utility.yul\":3602:3635   */\n  tag_44\n  jump\t// in\ntag_96:\n    /* \"#utility.yul\":3498:3641   */\n  swap3\n  swap2\n  pop\n  pop\n  jump\t// out\n    /* \"#utility.yul\":3647:4513   */\ntag_3:\n    /* \"#utility.yul\":3760:3766   */\n  0x00\n    /* \"#utility.yul\":3768:3774   */\n  dup1\n    /* \"#utility.yul\":3776:3782   */\n  0x00\n    /* \"#utility.yul\":3825:3827   */\n  0x60\n    /* \"#utility.yul\":3813:3822   */\n  dup5\n    /* \"#utility.yul\":3804:3811   */\n  dup7\n    /* \"#utility.yul\":3800:3823   */\n  sub\n    /* \"#utility.yul\":3796:3828   */\n  slt\n    /* \"#utility.yul\":3793:3912   */\n  iszero\n  tag_98\n  jumpi\n    /* \"#utility.yul\":3831:3910   */\n  tag_99\n  tag_28\n  jump\t// in\ntag_99:\n    /* \"#utility.yul\":3793:3912   */\ntag_98:\n    /* \"#utility.yul\":3951:3952   */\n  0x00\n    /* \"#utility.yul\":3976:4040   */\n  tag_100\n    /* \"#utility.yul\":4032:4039   */\n  dup7\n    /* \"#utility.yul\":4023:4029   */\n  dup3\n    /* \"#utility.yul\":4012:4021   */\n  dup8\n    /* \"#utility.yul\":4008:4030   */\n  add\n    /* \"#utility.yul\":3976:4040   */\n  tag_33\n  jump\t// in\ntag_100:\n    /* \"#utility.yul\":3966:4040   */\n  swap4\n  pop\n    /* \"#utility.yul\":3922:4050   */\n  pop\n    /* \"#utility.yul\":4110:4112   */\n  0x20\n    /* \"#utility.yul\":4099:4108   */\n  dup5\n    /* \"#utility.yul\":4095:4113   */\n  add\n    /* \"#utility.yul\":4089:4114   */\n  mload\n    /* \"#utility.yul\":4141:4159   */\n  0xffffffffffffffff\n    /* \"#utility.yul\":4133:4139   */\n  dup2\n    /* \"#utility.yul\":4130:4160   */\n  gt\n    /* \"#utility.yul\":4127:4244   */\n  iszero\n  tag_101\n  jumpi\n    /* \"#utility.yul\":4163:4242   */\n  tag_102\n  tag_29\n  jump\t// in\ntag_102:\n    /* \"#utility.yul\":4127:4244   */\ntag_101:\n    /* \"#utility.yul\":4268:4357   */\n  tag_103\n    /* \"#utility.yul\":4349:4356   */\n  dup7\n    /* \"#utility.yul\":4340:4346   */\n  dup3\n    /* \"#utility.yul\":4329:4338   */\n  dup8\n    /* \"#utility.yul\":4325:4347   */\n  add\n    /* \"#utility.yul\":4268:4357   */\n  tag_42\n  jump\t// in\ntag_103:\n    /* \"#utility.yul\":4258:4357   */\n  swap3\n  pop\n    /* \"#utility.yul\":4060:4367   */\n  pop\n    /* \"#utility.yul\":4406:4408   */\n  0x40\n    /* \"#utility.yul\":4432:4496   */\n  tag_104\n    /* \"#utility.yul\":4488:4495   */\n  dup7\n    /* \"#utility.yul\":4479:4485   */\n  dup3\n    /* \"#utility.yul\":4468:4477   */\n  dup8\n    /* \"#utility.yul\":4464:4486   */\n  add\n    /* \"#utility.yul\":4432:4496   */\n  tag_45\n  jump\t// in\ntag_104:\n    /* \"#utility.yul\":4422:4496   */\n  swap2\n  pop\n    /* \"#utility.yul\":4377:4506   */\n  pop\n    /* \"#utility.yul\":3647:4513   */\n  swap3\n  pop\n  swap3\n  pop\n  swap3\n  jump\t// out\n    /* \"#utility.yul\":4519:4688   */\ntag_46:\n    /* \"#utility.yul\":4603:4614   */\n  0x00\n    /* \"#utility.yul\":4637:4643   */\n  dup3\n    /* \"#utility.yul\":4632:4635   */\n  dup3\n    /* \"#utility.yul\":4625:4644   */\n  mstore\n    /* \"#utility.yul\":4677:4681   */\n  0x20\n    /* \"#utility.yul\":4672:4675   */\n  dup3\n    /* \"#utility.yul\":4668:4682   */\n  add\n    /* \"#utility.yul\":4653:4682   */\n  swap1\n  pop\n    /* \"#utility.yul\":4519:4688   */\n  swap3\n  swap2\n  pop\n  pop\n  jump\t// out\n    /* \"#utility.yul\":4694:4865   */\ntag_47:\n    /* \"#utility.yul\":4834:4857   */\n  0x5468726573686f6c6420697320746f6f20686967680000000000000000000000\n    /* \"#utility.yul\":4830:4831   */\n  0x00\n    /* \"#utility.yul\":4822:4828   */\n  dup3\n    /* \"#utility.yul\":4818:4832   */\n  add\n    /* \"#utility.yul\":4811:4858   */\n  mstore\n    /* \"#utility.yul\":4694:4865   */\n  pop\n  jump\t// out\n    /* \"#utility.yul\":4871:5237   */\ntag_48:\n    /* \"#utility.yul\":5013:5016   */\n  0x00\n    /* \"#utility.yul\":5034:5101   */\n  tag_108\n    /* \"#utility.yul\":5098:5100   */\n  0x15\n    /* \"#utility.yul\":5093:5096   */\n  dup4\n    /* \"#utility.yul\":5034:5101   */\n  tag_46\n  jump\t// in\ntag_108:\n    /* \"#utility.yul\":5027:5101   */\n  swap2\n  pop\n    /* \"#utility.yul\":5110:5203   */\n  tag_109\n    /* \"#utility.yul\":5199:5202   */\n  dup3\n    /* \"#utility.yul\":5110:5203   */\n  tag_47\n  jump\t// in\ntag_109:\n    /* \"#utility.yul\":5228:5230   */\n  0x20\n    /* \"#utility.yul\":5223:5226   */\n  dup3\n    /* \"#utility.yul\":5219:5231   */\n  add\n    /* \"#utility.yul\":5212:5231   */\n  swap1\n  pop\n    /* \"#utility.yul\":4871:5237   */\n  swap2\n  swap1\n  pop\n  jump\t// out\n    /* \"#utility.yul\":5243:5662   */\ntag_10:\n    /* \"#utility.yul\":5409:5413   */\n  0x00\n    /* \"#utility.yul\":5447:5449   */\n  0x20\n    /* \"#utility.yul\":5436:5445   */\n  dup3\n    /* \"#utility.yul\":5432:5450   */\n  add\n    /* \"#utility.yul\":5424:5450   */\n  swap1\n  pop\n    /* \"#utility.yul\":5496:5505   */\n  dup2\n    /* \"#utility.yul\":5490:5494   */\n  dup2\n    /* \"#utility.yul\":5486:5506   */\n  sub\n    /* \"#utility.yul\":5482:5483   */\n  0x00\n    /* \"#utility.yul\":5471:5480   */\n  dup4\n    /* \"#utility.yul\":5467:5484   */\n  add\n    /* \"#utility.yul\":5460:5507   */\n  mstore\n    /* \"#utility.yul\":5524:5655   */\n  tag_111\n    /* \"#utility.yul\":5650:5654   */\n  dup2\n    /* \"#utility.yul\":5524:5655   */\n  tag_48\n  jump\t// in\ntag_111:\n    /* \"#utility.yul\":5516:5655   */\n  swap1\n  pop\n    /* \"#utility.yul\":5243:5662   */\n  swap2\n  swap1\n  pop\n  jump\t// out\n    /* \"#utility.yul\":5668:5848   */\ntag_16:\n    /* \"#utility.yul\":5716:5793   */\n  0x4e487b7100000000000000000000000000000000000000000000000000000000\n    /* \"#utility.yul\":5713:5714   */\n  0x00\n    /* \"#utility.yul\":5706:5794   */\n  mstore\n    /* \"#utility.yul\":5813:5817   */\n  0x32\n    /* \"#utility.yul\":5810:5811   */\n  0x04\n    /* \"#utility.yul\":5803:5818   */\n  mstore\n    /* \"#utility.yul\":5837:5841   */\n  0x24\n    /* \"#utility.yul\":5834:5835   */\n  0x00\n    /* \"#utility.yul\":5827:5842   */\n  revert\n    /* \"#utility.yul\":5854:6028   */\ntag_49:\n    /* \"#utility.yul\":5994:6020   */\n  0x4475706c696361746520477561726469616e20466f756e640000000000000000\n    /* \"#utility.yul\":5990:5991   */\n  0x00\n    /* \"#utility.yul\":5982:5988   */\n  dup3\n    /* \"#utility.yul\":5978:5992   */\n  add\n    /* \"#utility.yul\":5971:6021   */\n  mstore\n    /* \"#utility.yul\":5854:6028   */\n  pop\n  jump\t// out\n    /* \"#utility.yul\":6034:6400   */\ntag_50:\n    /* \"#utility.yul\":6176:6179   */\n  0x00\n    /* \"#utility.yul\":6197:6264   */\n  tag_115\n    /* \"#utility.yul\":6261:6263   */\n  0x18\n    /* \"#utility.yul\":6256:6259   */\n  dup4\n    /* \"#utility.yul\":6197:6264   */\n  tag_46\n  jump\t// in\ntag_115:\n    /* \"#utility.yul\":6190:6264   */\n  swap2\n  pop\n    /* \"#utility.yul\":6273:6366   */\n  tag_116\n    /* \"#utility.yul\":6362:6365   */\n  dup3\n    /* \"#utility.yul\":6273:6366   */\n  tag_49\n  jump\t// in\ntag_116:\n    /* \"#utility.yul\":6391:6393   */\n  0x20\n    /* \"#utility.yul\":6386:6389   */\n  dup3\n    /* \"#utility.yul\":6382:6394   */\n  add\n    /* \"#utility.yul\":6375:6394   */\n  swap1\n  pop\n    /* \"#utility.yul\":6034:6400   */\n  swap2\n  swap1\n  pop\n  jump\t// out\n    /* \"#utility.yul\":6406:6825   */\ntag_19:\n    /* \"#utility.yul\":6572:6576   */\n  0x00\n    /* \"#utility.yul\":6610:6612   */\n  0x20\n    /* \"#utility.yul\":6599:6608   */\n  dup3\n    /* \"#utility.yul\":6595:6613   */\n  add\n    /* \"#utility.yul\":6587:6613   */\n  swap1\n  pop\n    /* \"#utility.yul\":6659:6668   */\n  dup2\n    /* \"#utility.yul\":6653:6657   */\n  dup2\n    /* \"#utility.yul\":6649:6669   */\n  sub\n    /* \"#utility.yul\":6645:6646   */\n  0x00\n    /* \"#utility.yul\":6634:6643   */\n  dup4\n    /* \"#utility.yul\":6630:6647   */\n  add\n    /* \"#utility.yul\":6623:6670   */\n  mstore\n    /* \"#utility.yul\":6687:6818   */\n  tag_118\n    /* \"#utility.yul\":6813:6817   */\n  dup2\n    /* \"#utility.yul\":6687:6818   */\n  tag_50\n  jump\t// in\ntag_118:\n    /* \"#utility.yul\":6679:6818   */\n  swap1\n  pop\n    /* \"#utility.yul\":6406:6825   */\n  swap2\n  swap1\n  pop\n  jump\t// out\n    /* \"#utility.yul\":6831:7011   */\ntag_51:\n    /* \"#utility.yul\":6879:6956   */\n  0x4e487b7100000000000000000000000000000000000000000000000000000000\n    /* \"#utility.yul\":6876:6877   */\n  0x00\n    /* \"#utility.yul\":6869:6957   */\n  mstore\n    /* \"#utility.yul\":6976:6980   */\n  0x11\n    /* \"#utility.yul\":6973:6974   */\n  0x04\n    /* \"#utility.yul\":6966:6981   */\n  mstore\n    /* \"#utility.yul\":7000:7004   */\n  0x24\n    /* \"#utility.yul\":6997:6998   */\n  0x00\n    /* \"#utility.yul\":6990:7005   */\n  revert\n    /* \"#utility.yul\":7017:7250   */\ntag_25:\n    /* \"#utility.yul\":7056:7059   */\n  0x00\n    /* \"#utility.yul\":7079:7103   */\n  tag_121\n    /* \"#utility.yul\":7097:7102   */\n  dup3\n    /* \"#utility.yul\":7079:7103   */\n  tag_43\n  jump\t// in\ntag_121:\n    /* \"#utility.yul\":7070:7103   */\n  swap2\n  pop\n    /* \"#utility.yul\":7125:7191   */\n  0xffffffffffffffffffffffffffffffffffffffffffffffffffffffffffffffff\n    /* \"#utility.yul\":7118:7123   */\n  dup3\n    /* \"#utility.yul\":7115:7192   */\n  sub\n    /* \"#utility.yul\":7112:7215   */\n  tag_122\n  jumpi\n    /* \"#utility.yul\":7195:7213   */\n  tag_123\n  tag_51\n  jump\t// in\ntag_123:\n    /* \"#utility.yul\":7112:7215   */\ntag_122:\n    /* \"#utility.yul\":7242:7243   */\n  0x01\n    /* \"#utility.yul\":7235:7240   */\n  dup3\n    /* \"#utility.yul\":7231:7244   */\n  add\n    /* \"#utility.yul\":7224:7244   */\n  swap1\n  pop\n    /* \"#utility.yul\":7017:7250   */\n  swap2\n  swap1\n  pop\n  jump\t// out\n    /* \"contracts/BanklessWallet.sol\":176:8651  contract BanklessWallet is ReentrancyGuard {... */\ntag_26:\n  dataSize(sub_0)\n  dup1\n  dataOffset(sub_0)\n  0x00\n  codecopy\n  0x00\n  return\nstop\n\nsub_0: assembly {\n        /* \"contracts/BanklessWallet.sol\":176:8651  contract BanklessWallet is ReentrancyGuard {... */\n      mstore(0x40, 0x80)\n      callvalue\n      dup1\n      iszero\n      tag_1\n      jumpi\n      0x00\n      dup1\n      revert\n    tag_1:\n      pop\n      jumpi(tag_2, lt(calldatasize, 0x04))\n      shr(0xe0, calldataload(0x00))\n      dup1\n      0x8da5cb5b\n      gt\n      tag_28\n      jumpi\n      dup1\n      0xace7c993\n      gt\n      tag_29\n      jumpi\n      dup1\n      0xd5ce9aad\n      gt\n      tag_30\n      jumpi\n      dup1\n      0xd5ce9aad\n      eq\n      tag_24\n      jumpi\n      dup1\n      0xec71511d\n      eq\n      tag_25\n      jumpi\n      dup1\n      0xf05151df\n      eq\n      tag_26\n      jumpi\n      dup1\n      0xfad2286b\n      eq\n      tag_27\n      jumpi\n      jump(tag_2)\n    tag_30:\n      dup1\n      0xace7c993\n      eq\n      tag_21\n      jumpi\n      dup1\n      0xcfbba190\n      eq\n      tag_22\n      jumpi\n      dup1\n      0xd3582164\n      eq\n      tag_23\n      jumpi\n      jump(tag_2)\n    tag_29:\n      dup1\n      0x8da5cb5b\n      eq\n      tag_15\n      jumpi\n      dup1\n      0x912365ea\n      eq\n      tag_16\n      jumpi\n      dup1\n      0xa526d83b\n      eq\n      tag_17\n      jumpi\n      dup1\n      0xa643e812\n      eq\n      tag_18\n      jumpi\n      dup1\n      0xa7b65d10\n      eq\n      tag_19\n      jumpi\n      dup1\n      0xa9059cbb\n      eq\n      tag_20\n      jumpi\n      jump(tag_2)\n    tag_28:\n      dup1\n      0x4a062ba9\n      gt\n      tag_31\n      jumpi\n      dup1\n      0x4a062ba9\n      eq\n      tag_9\n      jumpi\n      dup1\n      0x57e685bc\n      eq\n      tag_10\n      jumpi\n      dup1\n      0x5db0db7c\n      eq\n      tag_11\n      jumpi\n      dup1\n      0x5fc489a7\n      eq\n      tag_12\n      jumpi\n      dup1\n      0x5fc7f48b\n      eq\n      tag_13\n      jumpi\n      dup1\n      0x89302f0e\n      eq\n      tag_14\n      jumpi\n      jump(tag_2)\n    tag_31:\n      dup1\n      0x0ba234d6\n      eq\n      tag_3\n      jumpi\n      dup1\n      0x0c68ba21\n      eq\n      tag_4\n      jumpi\n      dup1\n      0x12065fe0\n      eq\n      tag_5\n      jumpi\n      dup1\n      0x1e969523\n      eq\n      tag_6\n      jumpi\n      dup1\n      0x371bbdc1\n      eq\n      tag_7\n      jumpi\n      dup1\n      0x42cde4e8\n      eq\n      tag_8\n      jumpi\n    tag_2:\n      0x00\n      dup1\n      revert\n        /* \"contracts/BanklessWallet.sol\":4756:4914  function cancelRecovery() onlyOwner onlyInRecovery external {... */\n    tag_3:\n      tag_32\n      tag_33\n      jump\t// in\n    tag_32:\n      stop\n        /* \"contracts/BanklessWallet.sol\":284:326  mapping(address => bool) public isGuardian */\n    tag_4:\n      tag_34\n      0x04\n      dup1\n      calldatasize\n      sub\n      dup2\n      add\n      swap1\n      tag_35\n      swap2\n      swap1\n      tag_36\n      jump\t// in\n    tag_35:\n      tag_37\n      jump\t// in\n    tag_34:\n      mload(0x40)\n      tag_38\n      swap2\n      swap1\n      tag_39\n      jump\t// in\n    tag_38:\n      mload(0x40)\n      dup1\n      swap2\n      sub\n      swap1\n      return\n        /* \"contracts/BanklessWallet.sol\":3766:3863  function getBalance() public view returns (uint256) {... */\n    tag_5:\n      tag_40\n      tag_41\n      jump\t// in\n    tag_40:\n      mload(0x40)\n      tag_42\n      swap2\n      swap1\n      tag_43\n      jump\t// in\n    tag_42:\n      mload(0x40)\n      dup1\n      swap2\n      sub\n      swap1\n      return\n        /* \"contracts/BanklessWallet.sol\":754:818  mapping(address => GuardianRequest) public guardianChangeRequest */\n    tag_6:\n      tag_44\n      0x04\n      dup1\n      calldatasize\n      sub\n      dup2\n      add\n      swap1\n      tag_45\n      swap2\n      swap1\n      tag_36\n      jump\t// in\n    tag_45:\n      tag_46\n      jump\t// in\n    tag_44:\n      mload(0x40)\n      tag_47\n      swap4\n      swap3\n      swap2\n      swap1\n      tag_48\n      jump\t// in\n    tag_47:\n      mload(0x40)\n      dup1\n      swap2\n      sub\n      swap1\n      return\n        /* \"contracts/BanklessWallet.sol\":556:622  mapping(address => RecoveryRequest) public guardianRecoveryRequest */\n    tag_7:\n      tag_49\n      0x04\n      dup1\n      calldatasize\n      sub\n      dup2\n      add\n      swap1\n      tag_50\n      swap2\n      swap1\n      tag_36\n      jump\t// in\n    tag_50:\n      tag_51\n      jump\t// in\n    tag_49:\n      mload(0x40)\n      tag_52\n      swap4\n      swap3\n      swap2\n      swap1\n      tag_53\n      jump\t// in\n    tag_52:\n      mload(0x40)\n      dup1\n      swap2\n      sub\n      swap1\n      return\n        /* \"contracts/BanklessWallet.sol\":253:277  uint256 public threshold */\n    tag_8:\n      tag_54\n      tag_55\n      jump\t// in\n    tag_54:\n      mload(0x40)\n      tag_56\n      swap2\n      swap1\n      tag_43\n      jump\t// in\n    tag_56:\n      mload(0x40)\n      dup1\n      swap2\n      sub\n      swap1\n      return\n        /* \"contracts/BanklessWallet.sol\":7647:7851  function supportAvailability() onlyGuardian notInGuardianRequest notInRecovery external {... */\n    tag_9:\n      tag_57\n      tag_58\n      jump\t// in\n    tag_57:\n      stop\n        /* \"contracts/BanklessWallet.sol\":4341:4750  function supportRecovery(address _proposedOwner) onlyGuardian onlyInRecovery notInGuardianRequest external {... */\n    tag_10:\n      tag_59\n      0x04\n      dup1\n      calldatasize\n      sub\n      dup2\n      add\n      swap1\n      tag_60\n      swap2\n      swap1\n      tag_36\n      jump\t// in\n    tag_60:\n      tag_61\n      jump\t// in\n    tag_59:\n      stop\n        /* \"contracts/BanklessWallet.sol\":6353:6910  function executeGuardianshipTransfer(address appellant) onlyOwner onlyInGuardianRequest notInRecovery external {... */\n    tag_11:\n      tag_62\n      0x04\n      dup1\n      calldatasize\n      sub\n      dup2\n      add\n      swap1\n      tag_63\n      swap2\n      swap1\n      tag_36\n      jump\t// in\n    tag_63:\n      tag_64\n      jump\t// in\n    tag_62:\n      stop\n        /* \"contracts/BanklessWallet.sol\":4920:5869  function executeRecovery(address newOwner, address[] calldata guardianList) onlyGuardian onlyInRecovery notInGuardianRequest external {... */\n    tag_12:\n      tag_65\n      0x04\n      dup1\n      calldatasize\n      sub\n      dup2\n      add\n      swap1\n      tag_66\n      swap2\n      swap1\n      tag_67\n      jump\t// in\n    tag_66:\n      tag_68\n      jump\t// in\n    tag_65:\n      stop\n        /* \"contracts/BanklessWallet.sol\":7857:8351  function executeGuardianAvailabilityCheck(address[] calldata guardianList) onlyOwner notInGuardianRequest notInRecovery external {... */\n    tag_13:\n      tag_69\n      0x04\n      dup1\n      calldatasize\n      sub\n      dup2\n      add\n      swap1\n      tag_70\n      swap2\n      swap1\n      tag_71\n      jump\t// in\n    tag_70:\n      tag_72\n      jump\t// in\n    tag_69:\n      stop\n        /* \"contracts/BanklessWallet.sol\":825:878  uint256 public AvailabilityCheckTimePeriod = 182 days */\n    tag_14:\n      tag_73\n      tag_74\n      jump\t// in\n    tag_73:\n      mload(0x40)\n      tag_75\n      swap2\n      swap1\n      tag_43\n      jump\t// in\n    tag_75:\n      mload(0x40)\n      dup1\n      swap2\n      sub\n      swap1\n      return\n        /* \"contracts/BanklessWallet.sol\":226:246  address public owner */\n    tag_15:\n      tag_76\n      tag_77\n      jump\t// in\n    tag_76:\n      mload(0x40)\n      tag_78\n      swap2\n      swap1\n      tag_79\n      jump\t// in\n    tag_78:\n      mload(0x40)\n      dup1\n      swap2\n      sub\n      swap1\n      return\n        /* \"contracts/BanklessWallet.sol\":3422:3760  function executeTx(address callee, uint256 value, bytes memory data) external onlyOwner nonReentrant returns(bytes memory){... */\n    tag_16:\n      tag_80\n      0x04\n      dup1\n      calldatasize\n      sub\n      dup2\n      add\n      swap1\n      tag_81\n      swap2\n      swap1\n      tag_82\n      jump\t// in\n    tag_81:\n      tag_83\n      jump\t// in\n    tag_80:\n      mload(0x40)\n      tag_84\n      swap2\n      swap1\n      tag_85\n      jump\t// in\n    tag_84:\n      mload(0x40)\n      dup1\n      swap2\n      sub\n      swap1\n      return\n        /* \"contracts/BanklessWallet.sol\":7113:7375  function addGuardian(address newGuardian) onlyOwner notInGuardianRequest notInRecovery external {... */\n    tag_17:\n      tag_86\n      0x04\n      dup1\n      calldatasize\n      sub\n      dup2\n      add\n      swap1\n      tag_87\n      swap2\n      swap1\n      tag_36\n      jump\t// in\n    tag_87:\n      tag_88\n      jump\t// in\n    tag_86:\n      stop\n        /* \"contracts/BanklessWallet.sol\":362:391  bool public inGuardianRequest */\n    tag_18:\n      tag_89\n      tag_90\n      jump\t// in\n    tag_89:\n      mload(0x40)\n      tag_91\n      swap2\n      swap1\n      tag_39\n      jump\t// in\n    tag_91:\n      mload(0x40)\n      dup1\n      swap2\n      sub\n      swap1\n      return\n        /* \"contracts/BanklessWallet.sol\":6916:7107  function cancelGuardianshipTransfer() onlyOwner onlyInGuardianRequest notInRecovery external {... */\n    tag_19:\n      tag_92\n      tag_93\n      jump\t// in\n    tag_92:\n      stop\n        /* \"contracts/BanklessWallet.sol\":3238:3412  function transfer(address payable destination, uint256 amount) external onlyOwner {... */\n    tag_20:\n      tag_94\n      0x04\n      dup1\n      calldatasize\n      sub\n      dup2\n      add\n      swap1\n      tag_95\n      swap2\n      swap1\n      tag_96\n      jump\t// in\n    tag_95:\n      tag_97\n      jump\t// in\n    tag_94:\n      stop\n        /* \"contracts/BanklessWallet.sol\":398:430  uint256 public currRecoveryRound */\n    tag_21:\n      tag_98\n      tag_99\n      jump\t// in\n    tag_98:\n      mload(0x40)\n      tag_100\n      swap2\n      swap1\n      tag_43\n      jump\t// in\n    tag_100:\n      mload(0x40)\n      dup1\n      swap2\n      sub\n      swap1\n      return\n        /* \"contracts/BanklessWallet.sol\":885:946  mapping (address => uint256) public guardianToRemoveTimestamp */\n    tag_22:\n      tag_101\n      0x04\n      dup1\n      calldatasize\n      sub\n      dup2\n      add\n      swap1\n      tag_102\n      swap2\n      swap1\n      tag_36\n      jump\t// in\n    tag_102:\n      tag_103\n      jump\t// in\n    tag_101:\n      mload(0x40)\n      tag_104\n      swap2\n      swap1\n      tag_43\n      jump\t// in\n    tag_104:\n      mload(0x40)\n      dup1\n      swap2\n      sub\n      swap1\n      return\n        /* \"contracts/BanklessWallet.sol\":5875:6347  function transferGuardianship(address guardianToChange, address newGuardianHash) onlyGuardian notInGuardianRequest notInRecovery external {... */\n    tag_23:\n      tag_105\n      0x04\n      dup1\n      calldatasize\n      sub\n      dup2\n      add\n      swap1\n      tag_106\n      swap2\n      swap1\n      tag_107\n      jump\t// in\n    tag_106:\n      tag_108\n      jump\t// in\n    tag_105:\n      stop\n        /* \"contracts/BanklessWallet.sol\":3869:4335  function initiateRecovery(address _proposedOwner) onlyGuardian notInRecovery notInGuardianRequest external {... */\n    tag_24:\n      tag_109\n      0x04\n      dup1\n      calldatasize\n      sub\n      dup2\n      add\n      swap1\n      tag_110\n      swap2\n      swap1\n      tag_36\n      jump\t// in\n    tag_110:\n      tag_111\n      jump\t// in\n    tag_109:\n      stop\n        /* \"contracts/BanklessWallet.sol\":7381:7641  function editThreshold(uint256 _threshold) onlyOwner notInGuardianRequest notInRecovery external {... */\n    tag_25:\n      tag_112\n      0x04\n      dup1\n      calldatasize\n      sub\n      dup2\n      add\n      swap1\n      tag_113\n      swap2\n      swap1\n      tag_114\n      jump\t// in\n    tag_113:\n      tag_115\n      jump\t// in\n    tag_112:\n      stop\n        /* \"contracts/BanklessWallet.sol\":333:355  bool public inRecovery */\n    tag_26:\n      tag_116\n      tag_117\n      jump\t// in\n    tag_116:\n      mload(0x40)\n      tag_118\n      swap2\n      swap1\n      tag_39\n      jump\t// in\n    tag_118:\n      mload(0x40)\n      dup1\n      swap2\n      sub\n      swap1\n      return\n        /* \"contracts/BanklessWallet.sol\":8357:8649  function changeAvalabilityTimePeriod(uint256 _days) onlyOwner notInGuardianRequest notInRecovery external {... */\n    tag_27:\n      tag_119\n      0x04\n      dup1\n      calldatasize\n      sub\n      dup2\n      add\n      swap1\n      tag_120\n      swap2\n      swap1\n      tag_114\n      jump\t// in\n    tag_120:\n      tag_121\n      jump\t// in\n    tag_119:\n      stop\n        /* \"contracts/BanklessWallet.sol\":4756:4914  function cancelRecovery() onlyOwner onlyInRecovery external {... */\n    tag_33:\n        /* \"contracts/BanklessWallet.sol\":1004:1009  owner */\n      0x01\n      0x00\n      swap1\n      sload\n      swap1\n      0x0100\n      exp\n      swap1\n      div\n      0xffffffffffffffffffffffffffffffffffffffff\n      and\n        /* \"contracts/BanklessWallet.sol\":990:1009  msg.sender == owner */\n      0xffffffffffffffffffffffffffffffffffffffff\n      and\n        /* \"contracts/BanklessWallet.sol\":990:1000  msg.sender */\n      caller\n        /* \"contracts/BanklessWallet.sol\":990:1009  msg.sender == owner */\n      0xffffffffffffffffffffffffffffffffffffffff\n      and\n      eq\n        /* \"contracts/BanklessWallet.sol\":982:1028  require(msg.sender == owner, \"Not Authorized\") */\n      tag_123\n      jumpi\n      mload(0x40)\n      0x08c379a000000000000000000000000000000000000000000000000000000000\n      dup2\n      mstore\n      0x04\n      add\n      tag_124\n      swap1\n      tag_125\n      jump\t// in\n    tag_124:\n      mload(0x40)\n      dup1\n      swap2\n      sub\n      swap1\n      revert\n    tag_123:\n        /* \"contracts/BanklessWallet.sol\":1333:1343  inRecovery */\n      0x04\n      0x00\n      swap1\n      sload\n      swap1\n      0x0100\n      exp\n      swap1\n      div\n      0xff\n      and\n        /* \"contracts/BanklessWallet.sol\":1325:1378  require(inRecovery, \"Wallet is not in Recovery mode\") */\n      tag_127\n      jumpi\n      mload(0x40)\n      0x08c379a000000000000000000000000000000000000000000000000000000000\n      dup2\n      mstore\n      0x04\n      add\n      tag_128\n      swap1\n      tag_129\n      jump\t// in\n    tag_128:\n      mload(0x40)\n      dup1\n      swap2\n      sub\n      swap1\n      revert\n    tag_127:\n        /* \"contracts/BanklessWallet.sol\":4839:4844  false */\n      0x00\n        /* \"contracts/BanklessWallet.sol\":4826:4836  inRecovery */\n      0x04\n      0x00\n        /* \"contracts/BanklessWallet.sol\":4826:4844  inRecovery = false */\n      0x0100\n      exp\n      dup2\n      sload\n      dup2\n      0xff\n      mul\n      not\n      and\n      swap1\n      dup4\n      iszero\n      iszero\n      mul\n      or\n      swap1\n      sstore\n      pop\n        /* \"contracts/BanklessWallet.sol\":4889:4906  currRecoveryRound */\n      sload(0x05)\n        /* \"contracts/BanklessWallet.sol\":4859:4907  RecoveryCancelled(msg.sender, currRecoveryRound) */\n      0x500ec1d4b692d3c788bfd78a898de379cfd93ab8177575efc7593f87bd051a07\n        /* \"contracts/BanklessWallet.sol\":4877:4887  msg.sender */\n      caller\n        /* \"contracts/BanklessWallet.sol\":4859:4907  RecoveryCancelled(msg.sender, currRecoveryRound) */\n      mload(0x40)\n      tag_131\n      swap2\n      swap1\n      tag_79\n      jump\t// in\n    tag_131:\n      mload(0x40)\n      dup1\n      swap2\n      sub\n      swap1\n      log2\n        /* \"contracts/BanklessWallet.sol\":4756:4914  function cancelRecovery() onlyOwner onlyInRecovery external {... */\n      jump\t// out\n        /* \"contracts/BanklessWallet.sol\":284:326  mapping(address => bool) public isGuardian */\n    tag_37:\n      mstore(0x20, 0x03)\n      dup1\n      0x00\n      mstore\n      keccak256(0x00, 0x40)\n      0x00\n      swap2\n      pop\n      sload\n      swap1\n      0x0100\n      exp\n      swap1\n      div\n      0xff\n      and\n      dup2\n      jump\t// out\n        /* \"contracts/BanklessWallet.sol\":3766:3863  function getBalance() public view returns (uint256) {... */\n    tag_41:\n        /* \"contracts/BanklessWallet.sol\":3809:3816  uint256 */\n      0x00\n        /* \"contracts/BanklessWallet.sol\":3835:3856  address(this).balance */\n      selfbalance\n        /* \"contracts/BanklessWallet.sol\":3828:3856  return address(this).balance */\n      swap1\n      pop\n        /* \"contracts/BanklessWallet.sol\":3766:3863  function getBalance() public view returns (uint256) {... */\n      swap1\n      jump\t// out\n        /* \"contracts/BanklessWallet.sol\":754:818  mapping(address => GuardianRequest) public guardianChangeRequest */\n    tag_46:\n      mstore(0x20, 0x07)\n      dup1\n      0x00\n      mstore\n      keccak256(0x00, 0x40)\n      0x00\n      swap2\n      pop\n      swap1\n      pop\n      dup1\n      0x00\n      add\n      0x00\n      swap1\n      sload\n      swap1\n      0x0100\n      exp\n      swap1\n      div\n      0xffffffffffffffffffffffffffffffffffffffff\n      and\n      swap1\n      dup1\n      0x01\n      add\n      0x00\n      swap1\n      sload\n      swap1\n      0x0100\n      exp\n      swap1\n      div\n      0xffffffffffffffffffffffffffffffffffffffff\n      and\n      swap1\n      dup1\n      0x01\n      add\n      0x14\n      swap1\n      sload\n      swap1\n      0x0100\n      exp\n      swap1\n      div\n      0xff\n      and\n      swap1\n      pop\n      dup4\n      jump\t// out\n        /* \"contracts/BanklessWallet.sol\":556:622  mapping(address => RecoveryRequest) public guardianRecoveryRequest */\n    tag_51:\n      mstore(0x20, 0x06)\n      dup1\n      0x00\n      mstore\n      keccak256(0x00, 0x40)\n      0x00\n      swap2\n      pop\n      swap1\n      pop\n      dup1\n      0x00\n      add\n      0x00\n      swap1\n      sload\n      swap1\n      0x0100\n      exp\n      swap1\n      div\n      0xffffffffffffffffffffffffffffffffffffffff\n      and\n      swap1\n      dup1\n      0x01\n      add\n      sload\n      swap1\n      dup1\n      0x02\n      add\n      0x00\n      swap1\n      sload\n      swap1\n      0x0100\n      exp\n      swap1\n      div\n      0xff\n      and\n      swap1\n      pop\n      dup4\n      jump\t// out\n        /* \"contracts/BanklessWallet.sol\":253:277  uint256 public threshold */\n    tag_55:\n      sload(0x02)\n      dup2\n      jump\t// out\n        /* \"contracts/BanklessWallet.sol\":7647:7851  function supportAvailability() onlyGuardian notInGuardianRequest notInRecovery external {... */\n    tag_58:\n        /* \"contracts/BanklessWallet.sol\":1093:1103  isGuardian */\n      0x03\n        /* \"contracts/BanklessWallet.sol\":1093:1115  isGuardian[msg.sender] */\n      0x00\n        /* \"contracts/BanklessWallet.sol\":1104:1114  msg.sender */\n      caller\n        /* \"contracts/BanklessWallet.sol\":1093:1115  isGuardian[msg.sender] */\n      0xffffffffffffffffffffffffffffffffffffffff\n      and\n      0xffffffffffffffffffffffffffffffffffffffff\n      and\n      dup2\n      mstore\n      0x20\n      add\n      swap1\n      dup2\n      mstore\n      0x20\n      add\n      0x00\n      keccak256\n      0x00\n      swap1\n      sload\n      swap1\n      0x0100\n      exp\n      swap1\n      div\n      0xff\n      and\n        /* \"contracts/BanklessWallet.sol\":1085:1160  require(isGuardian[msg.sender], \"Only Guardian has access to this request\") */\n      tag_134\n      jumpi\n      mload(0x40)\n      0x08c379a000000000000000000000000000000000000000000000000000000000\n      dup2\n      mstore\n      0x04\n      add\n      tag_135\n      swap1\n      tag_136\n      jump\t// in\n    tag_135:\n      mload(0x40)\n      dup1\n      swap2\n      sub\n      swap1\n      revert\n    tag_134:\n        /* \"contracts/BanklessWallet.sol\":1452:1469  inGuardianRequest */\n      0x04\n      0x01\n      swap1\n      sload\n      swap1\n      0x0100\n      exp\n      swap1\n      div\n      0xff\n      and\n        /* \"contracts/BanklessWallet.sol\":1451:1469  !inGuardianRequest */\n      iszero\n        /* \"contracts/BanklessWallet.sol\":1443:1512  require(!inGuardianRequest, \"Existing Guardian Change Request found\") */\n      tag_138\n      jumpi\n      mload(0x40)\n      0x08c379a000000000000000000000000000000000000000000000000000000000\n      dup2\n      mstore\n      0x04\n      add\n      tag_139\n      swap1\n      tag_140\n      jump\t// in\n    tag_139:\n      mload(0x40)\n      dup1\n      swap2\n      sub\n      swap1\n      revert\n    tag_138:\n        /* \"contracts/BanklessWallet.sol\":1226:1236  inRecovery */\n      0x04\n      0x00\n      swap1\n      sload\n      swap1\n      0x0100\n      exp\n      swap1\n      div\n      0xff\n      and\n        /* \"contracts/BanklessWallet.sol\":1225:1236  !inRecovery */\n      iszero\n        /* \"contracts/BanklessWallet.sol\":1217:1267  require(!inRecovery, \"Wallet is in Recovery mode\") */\n      tag_142\n      jumpi\n      mload(0x40)\n      0x08c379a000000000000000000000000000000000000000000000000000000000\n      dup2\n      mstore\n      0x04\n      add\n      tag_143\n      swap1\n      tag_144\n      jump\t// in\n    tag_143:\n      mload(0x40)\n      dup1\n      swap2\n      sub\n      swap1\n      revert\n    tag_142:\n        /* \"contracts/BanklessWallet.sol\":7785:7800  block.timestamp */\n      timestamp\n        /* \"contracts/BanklessWallet.sol\":7745:7770  guardianToRemoveTimestamp */\n      0x09\n        /* \"contracts/BanklessWallet.sol\":7745:7782  guardianToRemoveTimestamp[msg.sender] */\n      0x00\n        /* \"contracts/BanklessWallet.sol\":7771:7781  msg.sender */\n      caller\n        /* \"contracts/BanklessWallet.sol\":7745:7782  guardianToRemoveTimestamp[msg.sender] */\n      0xffffffffffffffffffffffffffffffffffffffff\n      and\n      0xffffffffffffffffffffffffffffffffffffffff\n      and\n      dup2\n      mstore\n      0x20\n      add\n      swap1\n      dup2\n      mstore\n      0x20\n      add\n      0x00\n      keccak256\n        /* \"contracts/BanklessWallet.sol\":7745:7800  guardianToRemoveTimestamp[msg.sender] = block.timestamp */\n      dup2\n      swap1\n      sstore\n      pop\n        /* \"contracts/BanklessWallet.sol\":7833:7843  msg.sender */\n      caller\n        /* \"contracts/BanklessWallet.sol\":7815:7844  GuardianAvailable(msg.sender) */\n      0xffffffffffffffffffffffffffffffffffffffff\n      and\n      0xc0f8e327cbaf33736bc91ff2966a92a84350e4433a9ba309da8f43e6f4a0852c\n      mload(0x40)\n      mload(0x40)\n      dup1\n      swap2\n      sub\n      swap1\n      log2\n        /* \"contracts/BanklessWallet.sol\":7647:7851  function supportAvailability() onlyGuardian notInGuardianRequest notInRecovery external {... */\n      jump\t// out\n        /* \"contracts/BanklessWallet.sol\":4341:4750  function supportRecovery(address _proposedOwner) onlyGuardian onlyInRecovery notInGuardianRequest external {... */\n    tag_61:\n        /* \"contracts/BanklessWallet.sol\":1093:1103  isGuardian */\n      0x03\n        /* \"contracts/BanklessWallet.sol\":1093:1115  isGuardian[msg.sender] */\n      0x00\n        /* \"contracts/BanklessWallet.sol\":1104:1114  msg.sender */\n      caller\n        /* \"contracts/BanklessWallet.sol\":1093:1115  isGuardian[msg.sender] */\n      0xffffffffffffffffffffffffffffffffffffffff\n      and\n      0xffffffffffffffffffffffffffffffffffffffff\n      and\n      dup2\n      mstore\n      0x20\n      add\n      swap1\n      dup2\n      mstore\n      0x20\n      add\n      0x00\n      keccak256\n      0x00\n      swap1\n      sload\n      swap1\n      0x0100\n      exp\n      swap1\n      div\n      0xff\n      and\n        /* \"contracts/BanklessWallet.sol\":1085:1160  require(isGuardian[msg.sender], \"Only Guardian has access to this request\") */\n      tag_147\n      jumpi\n      mload(0x40)\n      0x08c379a000000000000000000000000000000000000000000000000000000000\n      dup2\n      mstore\n      0x04\n      add\n      tag_148\n      swap1\n      tag_136\n      jump\t// in\n    tag_148:\n      mload(0x40)\n      dup1\n      swap2\n      sub\n      swap1\n      revert\n    tag_147:\n        /* \"contracts/BanklessWallet.sol\":1333:1343  inRecovery */\n      0x04\n      0x00\n      swap1\n      sload\n      swap1\n      0x0100\n      exp\n      swap1\n      div\n      0xff\n      and\n        /* \"contracts/BanklessWallet.sol\":1325:1378  require(inRecovery, \"Wallet is not in Recovery mode\") */\n      tag_150\n      jumpi\n      mload(0x40)\n      0x08c379a000000000000000000000000000000000000000000000000000000000\n      dup2\n      mstore\n      0x04\n      add\n      tag_151\n      swap1\n      tag_129\n      jump\t// in\n    tag_151:\n      mload(0x40)\n      dup1\n      swap2\n      sub\n      swap1\n      revert\n    tag_150:\n        /* \"contracts/BanklessWallet.sol\":1452:1469  inGuardianRequest */\n      0x04\n      0x01\n      swap1\n      sload\n      swap1\n      0x0100\n      exp\n      swap1\n      div\n      0xff\n      and\n        /* \"contracts/BanklessWallet.sol\":1451:1469  !inGuardianRequest */\n      iszero\n        /* \"contracts/BanklessWallet.sol\":1443:1512  require(!inGuardianRequest, \"Existing Guardian Change Request found\") */\n      tag_153\n      jumpi\n      mload(0x40)\n      0x08c379a000000000000000000000000000000000000000000000000000000000\n      dup2\n      mstore\n      0x04\n      add\n      tag_154\n      swap1\n      tag_140\n      jump\t// in\n    tag_154:\n      mload(0x40)\n      dup1\n      swap2\n      sub\n      swap1\n      revert\n    tag_153:\n        /* \"contracts/BanklessWallet.sol\":4496:4599  RecoveryRequest(... */\n      mload(0x40)\n      dup1\n      0x60\n      add\n      0x40\n      mstore\n      dup1\n        /* \"contracts/BanklessWallet.sol\":4525:4539  _proposedOwner */\n      dup3\n        /* \"contracts/BanklessWallet.sol\":4496:4599  RecoveryRequest(... */\n      0xffffffffffffffffffffffffffffffffffffffff\n      and\n      dup2\n      mstore\n      0x20\n      add\n        /* \"contracts/BanklessWallet.sol\":4553:4570  currRecoveryRound */\n      sload(0x05)\n        /* \"contracts/BanklessWallet.sol\":4496:4599  RecoveryRequest(... */\n      dup2\n      mstore\n      0x20\n      add\n        /* \"contracts/BanklessWallet.sol\":4584:4589  false */\n      0x00\n        /* \"contracts/BanklessWallet.sol\":4496:4599  RecoveryRequest(... */\n      iszero\n      iszero\n      dup2\n      mstore\n      pop\n        /* \"contracts/BanklessWallet.sol\":4458:4481  guardianRecoveryRequest */\n      0x06\n        /* \"contracts/BanklessWallet.sol\":4458:4493  guardianRecoveryRequest[msg.sender] */\n      0x00\n        /* \"contracts/BanklessWallet.sol\":4482:4492  msg.sender */\n      caller\n        /* \"contracts/BanklessWallet.sol\":4458:4493  guardianRecoveryRequest[msg.sender] */\n      0xffffffffffffffffffffffffffffffffffffffff\n      and\n      0xffffffffffffffffffffffffffffffffffffffff\n      and\n      dup2\n      mstore\n      0x20\n      add\n      swap1\n      dup2\n      mstore\n      0x20\n      add\n      0x00\n      keccak256\n        /* \"contracts/BanklessWallet.sol\":4458:4599  guardianRecoveryRequest[msg.sender] = RecoveryRequest(... */\n      0x00\n      dup3\n      add\n      mload\n      dup2\n      0x00\n      add\n      exp(0x0100, 0x00)\n      dup2\n      sload\n      dup2\n      0xffffffffffffffffffffffffffffffffffffffff\n      mul\n      not\n      and\n      swap1\n      dup4\n      0xffffffffffffffffffffffffffffffffffffffff\n      and\n      mul\n      or\n      swap1\n      sstore\n      pop\n      0x20\n      dup3\n      add\n      mload\n      dup2\n      0x01\n      add\n      sstore\n      0x40\n      dup3\n      add\n      mload\n      dup2\n      0x02\n      add\n      exp(0x0100, 0x00)\n      dup2\n      sload\n      dup2\n      0xff\n      mul\n      not\n      and\n      swap1\n      dup4\n      iszero\n      iszero\n      mul\n      or\n      swap1\n      sstore\n      pop\n      swap1\n      pop\n      pop\n        /* \"contracts/BanklessWallet.sol\":4649:4664  block.timestamp */\n      timestamp\n        /* \"contracts/BanklessWallet.sol\":4609:4634  guardianToRemoveTimestamp */\n      0x09\n        /* \"contracts/BanklessWallet.sol\":4609:4646  guardianToRemoveTimestamp[msg.sender] */\n      0x00\n        /* \"contracts/BanklessWallet.sol\":4635:4645  msg.sender */\n      caller\n        /* \"contracts/BanklessWallet.sol\":4609:4646  guardianToRemoveTimestamp[msg.sender] */\n      0xffffffffffffffffffffffffffffffffffffffff\n      and\n      0xffffffffffffffffffffffffffffffffffffffff\n      and\n      dup2\n      mstore\n      0x20\n      add\n      swap1\n      dup2\n      mstore\n      0x20\n      add\n      0x00\n      keccak256\n        /* \"contracts/BanklessWallet.sol\":4609:4664  guardianToRemoveTimestamp[msg.sender] = block.timestamp */\n      dup2\n      swap1\n      sstore\n      pop\n        /* \"contracts/BanklessWallet.sol\":4725:4742  currRecoveryRound */\n      sload(0x05)\n        /* \"contracts/BanklessWallet.sol\":4697:4707  msg.sender */\n      caller\n        /* \"contracts/BanklessWallet.sol\":4679:4743  RecoverySupported(msg.sender, _proposedOwner, currRecoveryRound) */\n      0xffffffffffffffffffffffffffffffffffffffff\n      and\n      0x7a0b940199ff58e943823fe8c0e916df112be357049d8105a7e83cf9a4000e4a\n        /* \"contracts/BanklessWallet.sol\":4709:4723  _proposedOwner */\n      dup4\n        /* \"contracts/BanklessWallet.sol\":4679:4743  RecoverySupported(msg.sender, _proposedOwner, currRecoveryRound) */\n      mload(0x40)\n      tag_156\n      swap2\n      swap1\n      tag_79\n      jump\t// in\n    tag_156:\n      mload(0x40)\n      dup1\n      swap2\n      sub\n      swap1\n      log3\n        /* \"contracts/BanklessWallet.sol\":4341:4750  function supportRecovery(address _proposedOwner) onlyGuardian onlyInRecovery notInGuardianRequest external {... */\n      pop\n      jump\t// out\n        /* \"contracts/BanklessWallet.sol\":6353:6910  function executeGuardianshipTransfer(address appellant) onlyOwner onlyInGuardianRequest notInRecovery external {... */\n    tag_64:\n        /* \"contracts/BanklessWallet.sol\":1004:1009  owner */\n      0x01\n      0x00\n      swap1\n      sload\n      swap1\n      0x0100\n      exp\n      swap1\n      div\n      0xffffffffffffffffffffffffffffffffffffffff\n      and\n        /* \"contracts/BanklessWallet.sol\":990:1009  msg.sender == owner */\n      0xffffffffffffffffffffffffffffffffffffffff\n      and\n        /* \"contracts/BanklessWallet.sol\":990:1000  msg.sender */\n      caller\n        /* \"contracts/BanklessWallet.sol\":990:1009  msg.sender == owner */\n      0xffffffffffffffffffffffffffffffffffffffff\n      and\n      eq\n        /* \"contracts/BanklessWallet.sol\":982:1028  require(msg.sender == owner, \"Not Authorized\") */\n      tag_158\n      jumpi\n      mload(0x40)\n      0x08c379a000000000000000000000000000000000000000000000000000000000\n      dup2\n      mstore\n      0x04\n      add\n      tag_159\n      swap1\n      tag_125\n      jump\t// in\n    tag_159:\n      mload(0x40)\n      dup1\n      swap2\n      sub\n      swap1\n      revert\n    tag_158:\n        /* \"contracts/BanklessWallet.sol\":1586:1603  inGuardianRequest */\n      0x04\n      0x01\n      swap1\n      sload\n      swap1\n      0x0100\n      exp\n      swap1\n      div\n      0xff\n      and\n        /* \"contracts/BanklessWallet.sol\":1578:1641  require(inGuardianRequest, \"No Current Guardian Request found\") */\n      tag_161\n      jumpi\n      mload(0x40)\n      0x08c379a000000000000000000000000000000000000000000000000000000000\n      dup2\n      mstore\n      0x04\n      add\n      tag_162\n      swap1\n      tag_163\n      jump\t// in\n    tag_162:\n      mload(0x40)\n      dup1\n      swap2\n      sub\n      swap1\n      revert\n    tag_161:\n        /* \"contracts/BanklessWallet.sol\":1226:1236  inRecovery */\n      0x04\n      0x00\n      swap1\n      sload\n      swap1\n      0x0100\n      exp\n      swap1\n      div\n      0xff\n      and\n        /* \"contracts/BanklessWallet.sol\":1225:1236  !inRecovery */\n      iszero\n        /* \"contracts/BanklessWallet.sol\":1217:1267  require(!inRecovery, \"Wallet is in Recovery mode\") */\n      tag_165\n      jumpi\n      mload(0x40)\n      0x08c379a000000000000000000000000000000000000000000000000000000000\n      dup2\n      mstore\n      0x04\n      add\n      tag_166\n      swap1\n      tag_144\n      jump\t// in\n    tag_166:\n      mload(0x40)\n      dup1\n      swap2\n      sub\n      swap1\n      revert\n    tag_165:\n        /* \"contracts/BanklessWallet.sol\":6474:6504  GuardianRequest memory request */\n      0x00\n        /* \"contracts/BanklessWallet.sol\":6507:6528  guardianChangeRequest */\n      0x07\n        /* \"contracts/BanklessWallet.sol\":6507:6539  guardianChangeRequest[appellant] */\n      0x00\n        /* \"contracts/BanklessWallet.sol\":6529:6538  appellant */\n      dup4\n        /* \"contracts/BanklessWallet.sol\":6507:6539  guardianChangeRequest[appellant] */\n      0xffffffffffffffffffffffffffffffffffffffff\n      and\n      0xffffffffffffffffffffffffffffffffffffffff\n      and\n      dup2\n      mstore\n      0x20\n      add\n      swap1\n      dup2\n      mstore\n      0x20\n      add\n      0x00\n      keccak256\n        /* \"contracts/BanklessWallet.sol\":6474:6539  GuardianRequest memory request = guardianChangeRequest[appellant] */\n      mload(0x40)\n      dup1\n      0x60\n      add\n      0x40\n      mstore\n      swap1\n      dup2\n      0x00\n      dup3\n      add\n      0x00\n      swap1\n      sload\n      swap1\n      0x0100\n      exp\n      swap1\n      div\n      0xffffffffffffffffffffffffffffffffffffffff\n      and\n      0xffffffffffffffffffffffffffffffffffffffff\n      and\n      0xffffffffffffffffffffffffffffffffffffffff\n      and\n      dup2\n      mstore\n      0x20\n      add\n      0x01\n      dup3\n      add\n      0x00\n      swap1\n      sload\n      swap1\n      0x0100\n      exp\n      swap1\n      div\n      0xffffffffffffffffffffffffffffffffffffffff\n      and\n      0xffffffffffffffffffffffffffffffffffffffff\n      and\n      0xffffffffffffffffffffffffffffffffffffffff\n      and\n      dup2\n      mstore\n      0x20\n      add\n      0x01\n      dup3\n      add\n      0x14\n      swap1\n      sload\n      swap1\n      0x0100\n      exp\n      swap1\n      div\n      0xff\n      and\n      iszero\n      iszero\n      iszero\n      iszero\n      dup2\n      mstore\n      pop\n      pop\n      swap1\n      pop\n        /* \"contracts/BanklessWallet.sol\":6558:6565  request */\n      dup1\n        /* \"contracts/BanklessWallet.sol\":6558:6572  request.isUsed */\n      0x40\n      add\n      mload\n        /* \"contracts/BanklessWallet.sol\":6557:6572  !request.isUsed */\n      iszero\n        /* \"contracts/BanklessWallet.sol\":6549:6609  require(!request.isUsed, \"Guardian Request is already Used\") */\n      tag_168\n      jumpi\n      mload(0x40)\n      0x08c379a000000000000000000000000000000000000000000000000000000000\n      dup2\n      mstore\n      0x04\n      add\n      tag_169\n      swap1\n      tag_170\n      jump\t// in\n    tag_169:\n      mload(0x40)\n      dup1\n      swap2\n      sub\n      swap1\n      revert\n    tag_168:\n        /* \"contracts/BanklessWallet.sol\":6659:6663  true */\n      0x01\n        /* \"contracts/BanklessWallet.sol\":6620:6630  isGuardian */\n      0x03\n        /* \"contracts/BanklessWallet.sol\":6620:6656  isGuardian[request.proposedGuardian] */\n      0x00\n        /* \"contracts/BanklessWallet.sol\":6631:6638  request */\n      dup4\n        /* \"contracts/BanklessWallet.sol\":6631:6655  request.proposedGuardian */\n      0x00\n      add\n      mload\n        /* \"contracts/BanklessWallet.sol\":6620:6656  isGuardian[request.proposedGuardian] */\n      0xffffffffffffffffffffffffffffffffffffffff\n      and\n      0xffffffffffffffffffffffffffffffffffffffff\n      and\n      dup2\n      mstore\n      0x20\n      add\n      swap1\n      dup2\n      mstore\n      0x20\n      add\n      0x00\n      keccak256\n      0x00\n        /* \"contracts/BanklessWallet.sol\":6620:6663  isGuardian[request.proposedGuardian] = true */\n      0x0100\n      exp\n      dup2\n      sload\n      dup2\n      0xff\n      mul\n      not\n      and\n      swap1\n      dup4\n      iszero\n      iszero\n      mul\n      or\n      swap1\n      sstore\n      pop\n        /* \"contracts/BanklessWallet.sol\":6712:6717  false */\n      0x00\n        /* \"contracts/BanklessWallet.sol\":6673:6683  isGuardian */\n      0x03\n        /* \"contracts/BanklessWallet.sol\":6673:6709  isGuardian[request.guardianToChange] */\n      0x00\n        /* \"contracts/BanklessWallet.sol\":6684:6691  request */\n      dup4\n        /* \"contracts/BanklessWallet.sol\":6684:6708  request.guardianToChange */\n      0x20\n      add\n      mload\n        /* \"contracts/BanklessWallet.sol\":6673:6709  isGuardian[request.guardianToChange] */\n      0xffffffffffffffffffffffffffffffffffffffff\n      and\n      0xffffffffffffffffffffffffffffffffffffffff\n      and\n      dup2\n      mstore\n      0x20\n      add\n      swap1\n      dup2\n      mstore\n      0x20\n      add\n      0x00\n      keccak256\n      0x00\n        /* \"contracts/BanklessWallet.sol\":6673:6717  isGuardian[request.guardianToChange] = false */\n      0x0100\n      exp\n      dup2\n      sload\n      dup2\n      0xff\n      mul\n      not\n      and\n      swap1\n      dup4\n      iszero\n      iszero\n      mul\n      or\n      swap1\n      sstore\n      pop\n        /* \"contracts/BanklessWallet.sol\":6769:6773  true */\n      0x01\n        /* \"contracts/BanklessWallet.sol\":6727:6748  guardianChangeRequest */\n      0x07\n        /* \"contracts/BanklessWallet.sol\":6727:6759  guardianChangeRequest[appellant] */\n      0x00\n        /* \"contracts/BanklessWallet.sol\":6749:6758  appellant */\n      dup5\n        /* \"contracts/BanklessWallet.sol\":6727:6759  guardianChangeRequest[appellant] */\n      0xffffffffffffffffffffffffffffffffffffffff\n      and\n      0xffffffffffffffffffffffffffffffffffffffff\n      and\n      dup2\n      mstore\n      0x20\n      add\n      swap1\n      dup2\n      mstore\n      0x20\n      add\n      0x00\n      keccak256\n        /* \"contracts/BanklessWallet.sol\":6727:6766  guardianChangeRequest[appellant].isUsed */\n      0x01\n      add\n      0x14\n        /* \"contracts/BanklessWallet.sol\":6727:6773  guardianChangeRequest[appellant].isUsed = true */\n      0x0100\n      exp\n      dup2\n      sload\n      dup2\n      0xff\n      mul\n      not\n      and\n      swap1\n      dup4\n      iszero\n      iszero\n      mul\n      or\n      swap1\n      sstore\n      pop\n        /* \"contracts/BanklessWallet.sol\":6803:6808  false */\n      0x00\n        /* \"contracts/BanklessWallet.sol\":6783:6800  inGuardianRequest */\n      0x04\n      0x01\n        /* \"contracts/BanklessWallet.sol\":6783:6808  inGuardianRequest = false */\n      0x0100\n      exp\n      dup2\n      sload\n      dup2\n      0xff\n      mul\n      not\n      and\n      swap1\n      dup4\n      iszero\n      iszero\n      mul\n      or\n      swap1\n      sstore\n      pop\n        /* \"contracts/BanklessWallet.sol\":6852:6859  request */\n      dup1\n        /* \"contracts/BanklessWallet.sol\":6852:6876  request.proposedGuardian */\n      0x00\n      add\n      mload\n        /* \"contracts/BanklessWallet.sol\":6823:6903  GuardianshipTransferExecuted(request.proposedGuardian, request.guardianToChange) */\n      0xffffffffffffffffffffffffffffffffffffffff\n      and\n      0x0ebe47b4a5aef1696896716abe65c590c720b0cd9572a7e2dcb0a9bfe2b2ca7f\n        /* \"contracts/BanklessWallet.sol\":6878:6885  request */\n      dup3\n        /* \"contracts/BanklessWallet.sol\":6878:6902  request.guardianToChange */\n      0x20\n      add\n      mload\n        /* \"contracts/BanklessWallet.sol\":6823:6903  GuardianshipTransferExecuted(request.proposedGuardian, request.guardianToChange) */\n      mload(0x40)\n      tag_171\n      swap2\n      swap1\n      tag_79\n      jump\t// in\n    tag_171:\n      mload(0x40)\n      dup1\n      swap2\n      sub\n      swap1\n      log2\n        /* \"contracts/BanklessWallet.sol\":6464:6910  {... */\n      pop\n        /* \"contracts/BanklessWallet.sol\":6353:6910  function executeGuardianshipTransfer(address appellant) onlyOwner onlyInGuardianRequest notInRecovery external {... */\n      pop\n      jump\t// out\n        /* \"contracts/BanklessWallet.sol\":4920:5869  function executeRecovery(address newOwner, address[] calldata guardianList) onlyGuardian onlyInRecovery notInGuardianRequest external {... */\n    tag_68:\n        /* \"contracts/BanklessWallet.sol\":1093:1103  isGuardian */\n      0x03\n        /* \"contracts/BanklessWallet.sol\":1093:1115  isGuardian[msg.sender] */\n      0x00\n        /* \"contracts/BanklessWallet.sol\":1104:1114  msg.sender */\n      caller\n        /* \"contracts/BanklessWallet.sol\":1093:1115  isGuardian[msg.sender] */\n      0xffffffffffffffffffffffffffffffffffffffff\n      and\n      0xffffffffffffffffffffffffffffffffffffffff\n      and\n      dup2\n      mstore\n      0x20\n      add\n      swap1\n      dup2\n      mstore\n      0x20\n      add\n      0x00\n      keccak256\n      0x00\n      swap1\n      sload\n      swap1\n      0x0100\n      exp\n      swap1\n      div\n      0xff\n      and\n        /* \"contracts/BanklessWallet.sol\":1085:1160  require(isGuardian[msg.sender], \"Only Guardian has access to this request\") */\n      tag_173\n      jumpi\n      mload(0x40)\n      0x08c379a000000000000000000000000000000000000000000000000000000000\n      dup2\n      mstore\n      0x04\n      add\n      tag_174\n      swap1\n      tag_136\n      jump\t// in\n    tag_174:\n      mload(0x40)\n      dup1\n      swap2\n      sub\n      swap1\n      revert\n    tag_173:\n        /* \"contracts/BanklessWallet.sol\":1333:1343  inRecovery */\n      0x04\n      0x00\n      swap1\n      sload\n      swap1\n      0x0100\n      exp\n      swap1\n      div\n      0xff\n      and\n        /* \"contracts/BanklessWallet.sol\":1325:1378  require(inRecovery, \"Wallet is not in Recovery mode\") */\n      tag_176\n      jumpi\n      mload(0x40)\n      0x08c379a000000000000000000000000000000000000000000000000000000000\n      dup2\n      mstore\n      0x04\n      add\n      tag_177\n      swap1\n      tag_129\n      jump\t// in\n    tag_177:\n      mload(0x40)\n      dup1\n      swap2\n      sub\n      swap1\n      revert\n    tag_176:\n        /* \"contracts/BanklessWallet.sol\":1452:1469  inGuardianRequest */\n      0x04\n      0x01\n      swap1\n      sload\n      swap1\n      0x0100\n      exp\n      swap1\n      div\n      0xff\n      and\n        /* \"contracts/BanklessWallet.sol\":1451:1469  !inGuardianRequest */\n      iszero\n        /* \"contracts/BanklessWallet.sol\":1443:1512  require(!inGuardianRequest, \"Existing Guardian Change Request found\") */\n      tag_179\n      jumpi\n      mload(0x40)\n      0x08c379a000000000000000000000000000000000000000000000000000000000\n      dup2\n      mstore\n      0x04\n      add\n      tag_180\n      swap1\n      tag_140\n      jump\t// in\n    tag_180:\n      mload(0x40)\n      dup1\n      swap2\n      sub\n      swap1\n      revert\n    tag_179:\n        /* \"contracts/BanklessWallet.sol\":5095:5104  threshold */\n      sload(0x02)\n        /* \"contracts/BanklessWallet.sol\":5072:5084  guardianList */\n      dup3\n      dup3\n        /* \"contracts/BanklessWallet.sol\":5072:5091  guardianList.length */\n      swap1\n      pop\n        /* \"contracts/BanklessWallet.sol\":5072:5104  guardianList.length >= threshold */\n      lt\n      iszero\n        /* \"contracts/BanklessWallet.sol\":5064:5154  require(guardianList.length >= threshold, \"more guardians required to transfer ownership\") */\n      tag_182\n      jumpi\n      mload(0x40)\n      0x08c379a000000000000000000000000000000000000000000000000000000000\n      dup2\n      mstore\n      0x04\n      add\n      tag_183\n      swap1\n      tag_184\n      jump\t// in\n    tag_183:\n      mload(0x40)\n      dup1\n      swap2\n      sub\n      swap1\n      revert\n    tag_182:\n        /* \"contracts/BanklessWallet.sol\":5169:5175  uint i */\n      0x00\n        /* \"contracts/BanklessWallet.sol\":5164:5637  for (uint i = 0; i < guardianList.length; i++) {... */\n    tag_185:\n        /* \"contracts/BanklessWallet.sol\":5185:5197  guardianList */\n      dup3\n      dup3\n        /* \"contracts/BanklessWallet.sol\":5185:5204  guardianList.length */\n      swap1\n      pop\n        /* \"contracts/BanklessWallet.sol\":5181:5182  i */\n      dup2\n        /* \"contracts/BanklessWallet.sol\":5181:5204  i < guardianList.length */\n      lt\n        /* \"contracts/BanklessWallet.sol\":5164:5637  for (uint i = 0; i < guardianList.length; i++) {... */\n      iszero\n      tag_186\n      jumpi\n        /* \"contracts/BanklessWallet.sol\":5238:5268  RecoveryRequest memory request */\n      0x00\n        /* \"contracts/BanklessWallet.sol\":5271:5294  guardianRecoveryRequest */\n      0x06\n        /* \"contracts/BanklessWallet.sol\":5271:5311  guardianRecoveryRequest[guardianList[i]] */\n      0x00\n        /* \"contracts/BanklessWallet.sol\":5295:5307  guardianList */\n      dup6\n      dup6\n        /* \"contracts/BanklessWallet.sol\":5308:5309  i */\n      dup6\n        /* \"contracts/BanklessWallet.sol\":5295:5310  guardianList[i] */\n      dup2\n      dup2\n      lt\n      tag_188\n      jumpi\n      tag_189\n      tag_190\n      jump\t// in\n    tag_189:\n    tag_188:\n      swap1\n      pop\n      0x20\n      mul\n      add\n      0x20\n      dup2\n      add\n      swap1\n      tag_191\n      swap2\n      swap1\n      tag_36\n      jump\t// in\n    tag_191:\n        /* \"contracts/BanklessWallet.sol\":5271:5311  guardianRecoveryRequest[guardianList[i]] */\n      0xffffffffffffffffffffffffffffffffffffffff\n      and\n      0xffffffffffffffffffffffffffffffffffffffff\n      and\n      dup2\n      mstore\n      0x20\n      add\n      swap1\n      dup2\n      mstore\n      0x20\n      add\n      0x00\n      keccak256\n        /* \"contracts/BanklessWallet.sol\":5238:5311  RecoveryRequest memory request = guardianRecoveryRequest[guardianList[i]] */\n      mload(0x40)\n      dup1\n      0x60\n      add\n      0x40\n      mstore\n      swap1\n      dup2\n      0x00\n      dup3\n      add\n      0x00\n      swap1\n      sload\n      swap1\n      0x0100\n      exp\n      swap1\n      div\n      0xffffffffffffffffffffffffffffffffffffffff\n      and\n      0xffffffffffffffffffffffffffffffffffffffff\n      and\n      0xffffffffffffffffffffffffffffffffffffffff\n      and\n      dup2\n      mstore\n      0x20\n      add\n      0x01\n      dup3\n      add\n      sload\n      dup2\n      mstore\n      0x20\n      add\n      0x02\n      dup3\n      add\n      0x00\n      swap1\n      sload\n      swap1\n      0x0100\n      exp\n      swap1\n      div\n      0xff\n      and\n      iszero\n      iszero\n      iszero\n      iszero\n      dup2\n      mstore\n      pop\n      pop\n      swap1\n      pop\n        /* \"contracts/BanklessWallet.sol\":5359:5376  currRecoveryRound */\n      sload(0x05)\n        /* \"contracts/BanklessWallet.sol\":5334:5341  request */\n      dup2\n        /* \"contracts/BanklessWallet.sol\":5334:5355  request.recoveryRound */\n      0x20\n      add\n      mload\n        /* \"contracts/BanklessWallet.sol\":5334:5376  request.recoveryRound == currRecoveryRound */\n      eq\n        /* \"contracts/BanklessWallet.sol\":5326:5395  require(request.recoveryRound == currRecoveryRound, \"round mismatch\") */\n      tag_192\n      jumpi\n      mload(0x40)\n      0x08c379a000000000000000000000000000000000000000000000000000000000\n      dup2\n      mstore\n      0x04\n      add\n      tag_193\n      swap1\n      tag_194\n      jump\t// in\n    tag_193:\n      mload(0x40)\n      dup1\n      swap2\n      sub\n      swap1\n      revert\n    tag_192:\n        /* \"contracts/BanklessWallet.sol\":5442:5450  newOwner */\n      dup5\n        /* \"contracts/BanklessWallet.sol\":5417:5450  request.proposedOwner == newOwner */\n      0xffffffffffffffffffffffffffffffffffffffff\n      and\n        /* \"contracts/BanklessWallet.sol\":5417:5424  request */\n      dup2\n        /* \"contracts/BanklessWallet.sol\":5417:5438  request.proposedOwner */\n      0x00\n      add\n      mload\n        /* \"contracts/BanklessWallet.sol\":5417:5450  request.proposedOwner == newOwner */\n      0xffffffffffffffffffffffffffffffffffffffff\n      and\n      eq\n        /* \"contracts/BanklessWallet.sol\":5409:5480  require(request.proposedOwner == newOwner, \"disagreement on new owner\") */\n      tag_195\n      jumpi\n      mload(0x40)\n      0x08c379a000000000000000000000000000000000000000000000000000000000\n      dup2\n      mstore\n      0x04\n      add\n      tag_196\n      swap1\n      tag_197\n      jump\t// in\n    tag_196:\n      mload(0x40)\n      dup1\n      swap2\n      sub\n      swap1\n      revert\n    tag_195:\n        /* \"contracts/BanklessWallet.sol\":5503:5510  request */\n      dup1\n        /* \"contracts/BanklessWallet.sol\":5503:5517  request.isUsed */\n      0x40\n      add\n      mload\n        /* \"contracts/BanklessWallet.sol\":5502:5517  !request.isUsed */\n      iszero\n        /* \"contracts/BanklessWallet.sol\":5494:5557  require(!request.isUsed, \"duplicate guardian used in recovery\") */\n      tag_198\n      jumpi\n      mload(0x40)\n      0x08c379a000000000000000000000000000000000000000000000000000000000\n      dup2\n      mstore\n      0x04\n      add\n      tag_199\n      swap1\n      tag_200\n      jump\t// in\n    tag_199:\n      mload(0x40)\n      dup1\n      swap2\n      sub\n      swap1\n      revert\n    tag_198:\n        /* \"contracts/BanklessWallet.sol\":5622:5626  true */\n      0x01\n        /* \"contracts/BanklessWallet.sol\":5572:5595  guardianRecoveryRequest */\n      0x06\n        /* \"contracts/BanklessWallet.sol\":5572:5612  guardianRecoveryRequest[guardianList[i]] */\n      0x00\n        /* \"contracts/BanklessWallet.sol\":5596:5608  guardianList */\n      dup7\n      dup7\n        /* \"contracts/BanklessWallet.sol\":5609:5610  i */\n      dup7\n        /* \"contracts/BanklessWallet.sol\":5596:5611  guardianList[i] */\n      dup2\n      dup2\n      lt\n      tag_201\n      jumpi\n      tag_202\n      tag_190\n      jump\t// in\n    tag_202:\n    tag_201:\n      swap1\n      pop\n      0x20\n      mul\n      add\n      0x20\n      dup2\n      add\n      swap1\n      tag_203\n      swap2\n      swap1\n      tag_36\n      jump\t// in\n    tag_203:\n        /* \"contracts/BanklessWallet.sol\":5572:5612  guardianRecoveryRequest[guardianList[i]] */\n      0xffffffffffffffffffffffffffffffffffffffff\n      and\n      0xffffffffffffffffffffffffffffffffffffffff\n      and\n      dup2\n      mstore\n      0x20\n      add\n      swap1\n      dup2\n      mstore\n      0x20\n      add\n      0x00\n      keccak256\n        /* \"contracts/BanklessWallet.sol\":5572:5619  guardianRecoveryRequest[guardianList[i]].isUsed */\n      0x02\n      add\n      0x00\n        /* \"contracts/BanklessWallet.sol\":5572:5626  guardianRecoveryRequest[guardianList[i]].isUsed = true */\n      0x0100\n      exp\n      dup2\n      sload\n      dup2\n      0xff\n      mul\n      not\n      and\n      swap1\n      dup4\n      iszero\n      iszero\n      mul\n      or\n      swap1\n      sstore\n      pop\n        /* \"contracts/BanklessWallet.sol\":5211:5637  {... */\n      pop\n        /* \"contracts/BanklessWallet.sol\":5206:5209  i++ */\n      dup1\n      dup1\n      tag_204\n      swap1\n      tag_205\n      jump\t// in\n    tag_204:\n      swap2\n      pop\n      pop\n        /* \"contracts/BanklessWallet.sol\":5164:5637  for (uint i = 0; i < guardianList.length; i++) {... */\n      jump(tag_185)\n    tag_186:\n      pop\n        /* \"contracts/BanklessWallet.sol\":5660:5665  false */\n      0x00\n        /* \"contracts/BanklessWallet.sol\":5647:5657  inRecovery */\n      0x04\n      0x00\n        /* \"contracts/BanklessWallet.sol\":5647:5665  inRecovery = false */\n      0x0100\n      exp\n      dup2\n      sload\n      dup2\n      0xff\n      mul\n      not\n      and\n      swap1\n      dup4\n      iszero\n      iszero\n      mul\n      or\n      swap1\n      sstore\n      pop\n        /* \"contracts/BanklessWallet.sol\":5675:5692  address _oldOwner */\n      0x00\n        /* \"contracts/BanklessWallet.sol\":5695:5700  owner */\n      0x01\n      0x00\n      swap1\n      sload\n      swap1\n      0x0100\n      exp\n      swap1\n      div\n      0xffffffffffffffffffffffffffffffffffffffff\n      and\n        /* \"contracts/BanklessWallet.sol\":5675:5700  address _oldOwner = owner */\n      swap1\n      pop\n        /* \"contracts/BanklessWallet.sol\":5718:5726  newOwner */\n      dup4\n        /* \"contracts/BanklessWallet.sol\":5710:5715  owner */\n      0x01\n      0x00\n        /* \"contracts/BanklessWallet.sol\":5710:5726  owner = newOwner */\n      0x0100\n      exp\n      dup2\n      sload\n      dup2\n      0xffffffffffffffffffffffffffffffffffffffff\n      mul\n      not\n      and\n      swap1\n      dup4\n      0xffffffffffffffffffffffffffffffffffffffff\n      and\n      mul\n      or\n      swap1\n      sstore\n      pop\n        /* \"contracts/BanklessWallet.sol\":5776:5791  block.timestamp */\n      timestamp\n        /* \"contracts/BanklessWallet.sol\":5736:5761  guardianToRemoveTimestamp */\n      0x09\n        /* \"contracts/BanklessWallet.sol\":5736:5773  guardianToRemoveTimestamp[msg.sender] */\n      0x00\n        /* \"contracts/BanklessWallet.sol\":5762:5772  msg.sender */\n      caller\n        /* \"contracts/BanklessWallet.sol\":5736:5773  guardianToRemoveTimestamp[msg.sender] */\n      0xffffffffffffffffffffffffffffffffffffffff\n      and\n      0xffffffffffffffffffffffffffffffffffffffff\n      and\n      dup2\n      mstore\n      0x20\n      add\n      swap1\n      dup2\n      mstore\n      0x20\n      add\n      0x00\n      keccak256\n        /* \"contracts/BanklessWallet.sol\":5736:5791  guardianToRemoveTimestamp[msg.sender] = block.timestamp */\n      dup2\n      swap1\n      sstore\n      pop\n        /* \"contracts/BanklessWallet.sol\":5844:5861  currRecoveryRound */\n      sload(0x05)\n        /* \"contracts/BanklessWallet.sol\":5806:5862  RecoveryExecuted(_oldOwner, newOwner, currRecoveryRound) */\n      0xcbaa7c7c351e2d5655fc08d9c383adcf4736af160c800b53df1f1dd221f826c8\n        /* \"contracts/BanklessWallet.sol\":5823:5832  _oldOwner */\n      dup3\n        /* \"contracts/BanklessWallet.sol\":5834:5842  newOwner */\n      dup7\n        /* \"contracts/BanklessWallet.sol\":5806:5862  RecoveryExecuted(_oldOwner, newOwner, currRecoveryRound) */\n      mload(0x40)\n      tag_206\n      swap3\n      swap2\n      swap1\n      tag_207\n      jump\t// in\n    tag_206:\n      mload(0x40)\n      dup1\n      swap2\n      sub\n      swap1\n      log2\n        /* \"contracts/BanklessWallet.sol\":5054:5869  {... */\n      pop\n        /* \"contracts/BanklessWallet.sol\":4920:5869  function executeRecovery(address newOwner, address[] calldata guardianList) onlyGuardian onlyInRecovery notInGuardianRequest external {... */\n      pop\n      pop\n      pop\n      jump\t// out\n        /* \"contracts/BanklessWallet.sol\":7857:8351  function executeGuardianAvailabilityCheck(address[] calldata guardianList) onlyOwner notInGuardianRequest notInRecovery external {... */\n    tag_72:\n        /* \"contracts/BanklessWallet.sol\":1004:1009  owner */\n      0x01\n      0x00\n      swap1\n      sload\n      swap1\n      0x0100\n      exp\n      swap1\n      div\n      0xffffffffffffffffffffffffffffffffffffffff\n      and\n        /* \"contracts/BanklessWallet.sol\":990:1009  msg.sender == owner */\n      0xffffffffffffffffffffffffffffffffffffffff\n      and\n        /* \"contracts/BanklessWallet.sol\":990:1000  msg.sender */\n      caller\n        /* \"contracts/BanklessWallet.sol\":990:1009  msg.sender == owner */\n      0xffffffffffffffffffffffffffffffffffffffff\n      and\n      eq\n        /* \"contracts/BanklessWallet.sol\":982:1028  require(msg.sender == owner, \"Not Authorized\") */\n      tag_209\n      jumpi\n      mload(0x40)\n      0x08c379a000000000000000000000000000000000000000000000000000000000\n      dup2\n      mstore\n      0x04\n      add\n      tag_210\n      swap1\n      tag_125\n      jump\t// in\n    tag_210:\n      mload(0x40)\n      dup1\n      swap2\n      sub\n      swap1\n      revert\n    tag_209:\n        /* \"contracts/BanklessWallet.sol\":1452:1469  inGuardianRequest */\n      0x04\n      0x01\n      swap1\n      sload\n      swap1\n      0x0100\n      exp\n      swap1\n      div\n      0xff\n      and\n        /* \"contracts/BanklessWallet.sol\":1451:1469  !inGuardianRequest */\n      iszero\n        /* \"contracts/BanklessWallet.sol\":1443:1512  require(!inGuardianRequest, \"Existing Guardian Change Request found\") */\n      tag_212\n      jumpi\n      mload(0x40)\n      0x08c379a000000000000000000000000000000000000000000000000000000000\n      dup2\n      mstore\n      0x04\n      add\n      tag_213\n      swap1\n      tag_140\n      jump\t// in\n    tag_213:\n      mload(0x40)\n      dup1\n      swap2\n      sub\n      swap1\n      revert\n    tag_212:\n        /* \"contracts/BanklessWallet.sol\":1226:1236  inRecovery */\n      0x04\n      0x00\n      swap1\n      sload\n      swap1\n      0x0100\n      exp\n      swap1\n      div\n      0xff\n      and\n        /* \"contracts/BanklessWallet.sol\":1225:1236  !inRecovery */\n      iszero\n        /* \"contracts/BanklessWallet.sol\":1217:1267  require(!inRecovery, \"Wallet is in Recovery mode\") */\n      tag_215\n      jumpi\n      mload(0x40)\n      0x08c379a000000000000000000000000000000000000000000000000000000000\n      dup2\n      mstore\n      0x04\n      add\n      tag_216\n      swap1\n      tag_144\n      jump\t// in\n    tag_216:\n      mload(0x40)\n      dup1\n      swap2\n      sub\n      swap1\n      revert\n    tag_215:\n        /* \"contracts/BanklessWallet.sol\":8000:8006  uint i */\n      0x00\n        /* \"contracts/BanklessWallet.sol\":7996:8290  for(uint i = 0 ; i < guardianList.length ; i++) {... */\n    tag_218:\n        /* \"contracts/BanklessWallet.sol\":8017:8029  guardianList */\n      dup3\n      dup3\n        /* \"contracts/BanklessWallet.sol\":8017:8036  guardianList.length */\n      swap1\n      pop\n        /* \"contracts/BanklessWallet.sol\":8013:8014  i */\n      dup2\n        /* \"contracts/BanklessWallet.sol\":8013:8036  i < guardianList.length */\n      lt\n        /* \"contracts/BanklessWallet.sol\":7996:8290  for(uint i = 0 ; i < guardianList.length ; i++) {... */\n      iszero\n      tag_219\n      jumpi\n        /* \"contracts/BanklessWallet.sol\":8058:8083  uint256 lastGuardianCheck */\n      0x00\n        /* \"contracts/BanklessWallet.sol\":8086:8111  guardianToRemoveTimestamp */\n      0x09\n        /* \"contracts/BanklessWallet.sol\":8086:8128  guardianToRemoveTimestamp[guardianList[i]] */\n      0x00\n        /* \"contracts/BanklessWallet.sol\":8112:8124  guardianList */\n      dup6\n      dup6\n        /* \"contracts/BanklessWallet.sol\":8125:8126  i */\n      dup6\n        /* \"contracts/BanklessWallet.sol\":8112:8127  guardianList[i] */\n      dup2\n      dup2\n      lt\n      tag_221\n      jumpi\n      tag_222\n      tag_190\n      jump\t// in\n    tag_222:\n    tag_221:\n      swap1\n      pop\n      0x20\n      mul\n      add\n      0x20\n      dup2\n      add\n      swap1\n      tag_223\n      swap2\n      swap1\n      tag_36\n      jump\t// in\n    tag_223:\n        /* \"contracts/BanklessWallet.sol\":8086:8128  guardianToRemoveTimestamp[guardianList[i]] */\n      0xffffffffffffffffffffffffffffffffffffffff\n      and\n      0xffffffffffffffffffffffffffffffffffffffff\n      and\n      dup2\n      mstore\n      0x20\n      add\n      swap1\n      dup2\n      mstore\n      0x20\n      add\n      0x00\n      keccak256\n      sload\n        /* \"contracts/BanklessWallet.sol\":8058:8128  uint256 lastGuardianCheck = guardianToRemoveTimestamp[guardianList[i]] */\n      swap1\n      pop\n        /* \"contracts/BanklessWallet.sol\":8196:8211  block.timestamp */\n      timestamp\n        /* \"contracts/BanklessWallet.sol\":8166:8193  AvailabilityCheckTimePeriod */\n      sload(0x08)\n        /* \"contracts/BanklessWallet.sol\":8146:8163  lastGuardianCheck */\n      dup3\n        /* \"contracts/BanklessWallet.sol\":8146:8193  lastGuardianCheck + AvailabilityCheckTimePeriod */\n      tag_224\n      swap2\n      swap1\n      tag_225\n      jump\t// in\n    tag_224:\n        /* \"contracts/BanklessWallet.sol\":8146:8211  lastGuardianCheck + AvailabilityCheckTimePeriod < block.timestamp */\n      lt\n        /* \"contracts/BanklessWallet.sol\":8142:8280  if (lastGuardianCheck + AvailabilityCheckTimePeriod < block.timestamp){... */\n      iszero\n      tag_226\n      jumpi\n        /* \"contracts/BanklessWallet.sol\":8260:8265  false */\n      0x00\n        /* \"contracts/BanklessWallet.sol\":8230:8240  isGuardian */\n      0x03\n        /* \"contracts/BanklessWallet.sol\":8230:8257  isGuardian[guardianList[i]] */\n      0x00\n        /* \"contracts/BanklessWallet.sol\":8241:8253  guardianList */\n      dup7\n      dup7\n        /* \"contracts/BanklessWallet.sol\":8254:8255  i */\n      dup7\n        /* \"contracts/BanklessWallet.sol\":8241:8256  guardianList[i] */\n      dup2\n      dup2\n      lt\n      tag_227\n      jumpi\n      tag_228\n      tag_190\n      jump\t// in\n    tag_228:\n    tag_227:\n      swap1\n      pop\n      0x20\n      mul\n      add\n      0x20\n      dup2\n      add\n      swap1\n      tag_229\n      swap2\n      swap1\n      tag_36\n      jump\t// in\n    tag_229:\n        /* \"contracts/BanklessWallet.sol\":8230:8257  isGuardian[guardianList[i]] */\n      0xffffffffffffffffffffffffffffffffffffffff\n      and\n      0xffffffffffffffffffffffffffffffffffffffff\n      and\n      dup2\n      mstore\n      0x20\n      add\n      swap1\n      dup2\n      mstore\n      0x20\n      add\n      0x00\n      keccak256\n      0x00\n        /* \"contracts/BanklessWallet.sol\":8230:8265  isGuardian[guardianList[i]] = false */\n      0x0100\n      exp\n      dup2\n      sload\n      dup2\n      0xff\n      mul\n      not\n      and\n      swap1\n      dup4\n      iszero\n      iszero\n      mul\n      or\n      swap1\n      sstore\n      pop\n        /* \"contracts/BanklessWallet.sol\":8142:8280  if (lastGuardianCheck + AvailabilityCheckTimePeriod < block.timestamp){... */\n    tag_226:\n        /* \"contracts/BanklessWallet.sol\":8044:8290  {... */\n      pop\n        /* \"contracts/BanklessWallet.sol\":8039:8042  i++ */\n      dup1\n      dup1\n      tag_230\n      swap1\n      tag_205\n      jump\t// in\n    tag_230:\n      swap2\n      pop\n      pop\n        /* \"contracts/BanklessWallet.sol\":7996:8290  for(uint i = 0 ; i < guardianList.length ; i++) {... */\n      jump(tag_218)\n    tag_219:\n      pop\n        /* \"contracts/BanklessWallet.sol\":8333:8343  msg.sender */\n      caller\n        /* \"contracts/BanklessWallet.sol\":8305:8344  GuardianAvailabilityChecked(msg.sender) */\n      0xffffffffffffffffffffffffffffffffffffffff\n      and\n      0x4c3633ad0e1a50f8c16e1ad83c223c9e97efa102e90b03c3a0b10a7726f58656\n      mload(0x40)\n      mload(0x40)\n      dup1\n      swap2\n      sub\n      swap1\n      log2\n        /* \"contracts/BanklessWallet.sol\":7857:8351  function executeGuardianAvailabilityCheck(address[] calldata guardianList) onlyOwner notInGuardianRequest notInRecovery external {... */\n      pop\n      pop\n      jump\t// out\n        /* \"contracts/BanklessWallet.sol\":825:878  uint256 public AvailabilityCheckTimePeriod = 182 days */\n    tag_74:\n      sload(0x08)\n      dup2\n      jump\t// out\n        /* \"contracts/BanklessWallet.sol\":226:246  address public owner */\n    tag_77:\n      0x01\n      0x00\n      swap1\n      sload\n      swap1\n      0x0100\n      exp\n      swap1\n      div\n      0xffffffffffffffffffffffffffffffffffffffff\n      and\n      dup2\n      jump\t// out\n        /* \"contracts/BanklessWallet.sol\":3422:3760  function executeTx(address callee, uint256 value, bytes memory data) external onlyOwner nonReentrant returns(bytes memory){... */\n    tag_83:\n        /* \"contracts/BanklessWallet.sol\":3531:3543  bytes memory */\n      0x60\n        /* \"contracts/BanklessWallet.sol\":1004:1009  owner */\n      0x01\n      0x00\n      swap1\n      sload\n      swap1\n      0x0100\n      exp\n      swap1\n      div\n      0xffffffffffffffffffffffffffffffffffffffff\n      and\n        /* \"contracts/BanklessWallet.sol\":990:1009  msg.sender == owner */\n      0xffffffffffffffffffffffffffffffffffffffff\n      and\n        /* \"contracts/BanklessWallet.sol\":990:1000  msg.sender */\n      caller\n        /* \"contracts/BanklessWallet.sol\":990:1009  msg.sender == owner */\n      0xffffffffffffffffffffffffffffffffffffffff\n      and\n      eq\n        /* \"contracts/BanklessWallet.sol\":982:1028  require(msg.sender == owner, \"Not Authorized\") */\n      tag_232\n      jumpi\n      mload(0x40)\n      0x08c379a000000000000000000000000000000000000000000000000000000000\n      dup2\n      mstore\n      0x04\n      add\n      tag_233\n      swap1\n      tag_125\n      jump\t// in\n    tag_233:\n      mload(0x40)\n      dup1\n      swap2\n      sub\n      swap1\n      revert\n    tag_232:\n        /* \"https://github.com/OpenZeppelin/openzeppelin-contracts/blob/master/contracts/utils/ReentrancyGuard.sol\":2356:2377  _nonReentrantBefore() */\n      tag_235\n        /* \"https://github.com/OpenZeppelin/openzeppelin-contracts/blob/master/contracts/utils/ReentrancyGuard.sol\":2356:2375  _nonReentrantBefore */\n      tag_236\n        /* \"https://github.com/OpenZeppelin/openzeppelin-contracts/blob/master/contracts/utils/ReentrancyGuard.sol\":2356:2377  _nonReentrantBefore() */\n      jump\t// in\n    tag_235:\n        /* \"contracts/BanklessWallet.sol\":3555:3567  bool success */\n      0x00\n        /* \"contracts/BanklessWallet.sol\":3569:3588  bytes memory result */\n      dup1\n        /* \"contracts/BanklessWallet.sol\":3592:3598  callee */\n      dup6\n        /* \"contracts/BanklessWallet.sol\":3592:3603  callee.call */\n      0xffffffffffffffffffffffffffffffffffffffff\n      and\n        /* \"contracts/BanklessWallet.sol\":3611:3616  value */\n      dup6\n        /* \"contracts/BanklessWallet.sol\":3618:3622  data */\n      dup6\n        /* \"contracts/BanklessWallet.sol\":3592:3623  callee.call{value: value}(data) */\n      mload(0x40)\n      tag_238\n      swap2\n      swap1\n      tag_239\n      jump\t// in\n    tag_238:\n      0x00\n      mload(0x40)\n      dup1\n      dup4\n      sub\n      dup2\n      dup6\n      dup8\n      gas\n      call\n      swap3\n      pop\n      pop\n      pop\n      returndatasize\n      dup1\n      0x00\n      dup2\n      eq\n      tag_242\n      jumpi\n      mload(0x40)\n      swap2\n      pop\n      and(add(returndatasize, 0x3f), not(0x1f))\n      dup3\n      add\n      0x40\n      mstore\n      returndatasize\n      dup3\n      mstore\n      returndatasize\n      0x00\n      0x20\n      dup5\n      add\n      returndatacopy\n      jump(tag_241)\n    tag_242:\n      0x60\n      swap2\n      pop\n    tag_241:\n      pop\n        /* \"contracts/BanklessWallet.sol\":3554:3623  (bool success, bytes memory result) = callee.call{value: value}(data) */\n      swap2\n      pop\n      swap2\n      pop\n        /* \"contracts/BanklessWallet.sol\":3641:3648  success */\n      dup2\n        /* \"contracts/BanklessWallet.sol\":3633:3675  require(success, \"Contract Call Reverted\") */\n      tag_243\n      jumpi\n      mload(0x40)\n      0x08c379a000000000000000000000000000000000000000000000000000000000\n      dup2\n      mstore\n      0x04\n      add\n      tag_244\n      swap1\n      tag_245\n      jump\t// in\n    tag_244:\n      mload(0x40)\n      dup1\n      swap2\n      sub\n      swap1\n      revert\n    tag_243:\n        /* \"contracts/BanklessWallet.sol\":3710:3716  callee */\n      dup6\n        /* \"contracts/BanklessWallet.sol\":3690:3730  TransactionExecuted(callee, value, data) */\n      0xffffffffffffffffffffffffffffffffffffffff\n      and\n      0x47d99ad340f52da66535aff7e10da1ceb85a32bcbd9fa1c42314d194545e14d2\n        /* \"contracts/BanklessWallet.sol\":3718:3723  value */\n      dup7\n        /* \"contracts/BanklessWallet.sol\":3725:3729  data */\n      dup7\n        /* \"contracts/BanklessWallet.sol\":3690:3730  TransactionExecuted(callee, value, data) */\n      mload(0x40)\n      tag_246\n      swap3\n      swap2\n      swap1\n      tag_247\n      jump\t// in\n    tag_246:\n      mload(0x40)\n      dup1\n      swap2\n      sub\n      swap1\n      log2\n        /* \"contracts/BanklessWallet.sol\":3747:3753  result */\n      dup1\n        /* \"contracts/BanklessWallet.sol\":3740:3753  return result */\n      swap3\n      pop\n      pop\n      pop\n        /* \"https://github.com/OpenZeppelin/openzeppelin-contracts/blob/master/contracts/utils/ReentrancyGuard.sol\":2398:2418  _nonReentrantAfter() */\n      tag_248\n        /* \"https://github.com/OpenZeppelin/openzeppelin-contracts/blob/master/contracts/utils/ReentrancyGuard.sol\":2398:2416  _nonReentrantAfter */\n      tag_249\n        /* \"https://github.com/OpenZeppelin/openzeppelin-contracts/blob/master/contracts/utils/ReentrancyGuard.sol\":2398:2418  _nonReentrantAfter() */\n      jump\t// in\n    tag_248:\n        /* \"contracts/BanklessWallet.sol\":3422:3760  function executeTx(address callee, uint256 value, bytes memory data) external onlyOwner nonReentrant returns(bytes memory){... */\n      swap4\n      swap3\n      pop\n      pop\n      pop\n      jump\t// out\n        /* \"contracts/BanklessWallet.sol\":7113:7375  function addGuardian(address newGuardian) onlyOwner notInGuardianRequest notInRecovery external {... */\n    tag_88:\n        /* \"contracts/BanklessWallet.sol\":1004:1009  owner */\n      0x01\n      0x00\n      swap1\n      sload\n      swap1\n      0x0100\n      exp\n      swap1\n      div\n      0xffffffffffffffffffffffffffffffffffffffff\n      and\n        /* \"contracts/BanklessWallet.sol\":990:1009  msg.sender == owner */\n      0xffffffffffffffffffffffffffffffffffffffff\n      and\n        /* \"contracts/BanklessWallet.sol\":990:1000  msg.sender */\n      caller\n        /* \"contracts/BanklessWallet.sol\":990:1009  msg.sender == owner */\n      0xffffffffffffffffffffffffffffffffffffffff\n      and\n      eq\n        /* \"contracts/BanklessWallet.sol\":982:1028  require(msg.sender == owner, \"Not Authorized\") */\n      tag_251\n      jumpi\n      mload(0x40)\n      0x08c379a000000000000000000000000000000000000000000000000000000000\n      dup2\n      mstore\n      0x04\n      add\n      tag_252\n      swap1\n      tag_125\n      jump\t// in\n    tag_252:\n      mload(0x40)\n      dup1\n      swap2\n      sub\n      swap1\n      revert\n    tag_251:\n        /* \"contracts/BanklessWallet.sol\":1452:1469  inGuardianRequest */\n      0x04\n      0x01\n      swap1\n      sload\n      swap1\n      0x0100\n      exp\n      swap1\n      div\n      0xff\n      and\n        /* \"contracts/BanklessWallet.sol\":1451:1469  !inGuardianRequest */\n      iszero\n        /* \"contracts/BanklessWallet.sol\":1443:1512  require(!inGuardianRequest, \"Existing Guardian Change Request found\") */\n      tag_254\n      jumpi\n      mload(0x40)\n      0x08c379a000000000000000000000000000000000000000000000000000000000\n      dup2\n      mstore\n      0x04\n      add\n      tag_255\n      swap1\n      tag_140\n      jump\t// in\n    tag_255:\n      mload(0x40)\n      dup1\n      swap2\n      sub\n      swap1\n      revert\n    tag_254:\n        /* \"contracts/BanklessWallet.sol\":1226:1236  inRecovery */\n      0x04\n      0x00\n      swap1\n      sload\n      swap1\n      0x0100\n      exp\n      swap1\n      div\n      0xff\n      and\n        /* \"contracts/BanklessWallet.sol\":1225:1236  !inRecovery */\n      iszero\n        /* \"contracts/BanklessWallet.sol\":1217:1267  require(!inRecovery, \"Wallet is in Recovery mode\") */\n      tag_257\n      jumpi\n      mload(0x40)\n      0x08c379a000000000000000000000000000000000000000000000000000000000\n      dup2\n      mstore\n      0x04\n      add\n      tag_258\n      swap1\n      tag_144\n      jump\t// in\n    tag_258:\n      mload(0x40)\n      dup1\n      swap2\n      sub\n      swap1\n      revert\n    tag_257:\n        /* \"contracts/BanklessWallet.sol\":7245:7249  true */\n      0x01\n        /* \"contracts/BanklessWallet.sol\":7219:7229  isGuardian */\n      0x03\n        /* \"contracts/BanklessWallet.sol\":7219:7242  isGuardian[newGuardian] */\n      0x00\n        /* \"contracts/BanklessWallet.sol\":7230:7241  newGuardian */\n      dup4\n        /* \"contracts/BanklessWallet.sol\":7219:7242  isGuardian[newGuardian] */\n      0xffffffffffffffffffffffffffffffffffffffff\n      and\n      0xffffffffffffffffffffffffffffffffffffffff\n      and\n      dup2\n      mstore\n      0x20\n      add\n      swap1\n      dup2\n      mstore\n      0x20\n      add\n      0x00\n      keccak256\n      0x00\n        /* \"contracts/BanklessWallet.sol\":7219:7249  isGuardian[newGuardian] = true */\n      0x0100\n      exp\n      dup2\n      sload\n      dup2\n      0xff\n      mul\n      not\n      and\n      swap1\n      dup4\n      iszero\n      iszero\n      mul\n      or\n      swap1\n      sstore\n      pop\n        /* \"contracts/BanklessWallet.sol\":7300:7315  block.timestamp */\n      timestamp\n        /* \"contracts/BanklessWallet.sol\":7259:7284  guardianToRemoveTimestamp */\n      0x09\n        /* \"contracts/BanklessWallet.sol\":7259:7297  guardianToRemoveTimestamp[newGuardian] */\n      0x00\n        /* \"contracts/BanklessWallet.sol\":7285:7296  newGuardian */\n      dup4\n        /* \"contracts/BanklessWallet.sol\":7259:7297  guardianToRemoveTimestamp[newGuardian] */\n      0xffffffffffffffffffffffffffffffffffffffff\n      and\n      0xffffffffffffffffffffffffffffffffffffffff\n      and\n      dup2\n      mstore\n      0x20\n      add\n      swap1\n      dup2\n      mstore\n      0x20\n      add\n      0x00\n      keccak256\n        /* \"contracts/BanklessWallet.sol\":7259:7315  guardianToRemoveTimestamp[newGuardian] = block.timestamp */\n      dup2\n      swap1\n      sstore\n      pop\n        /* \"contracts/BanklessWallet.sol\":7344:7354  msg.sender */\n      caller\n        /* \"contracts/BanklessWallet.sol\":7330:7368  GuardianAdded(msg.sender, newGuardian) */\n      0xffffffffffffffffffffffffffffffffffffffff\n      and\n      0xbc3292102fa77e083913064b282926717cdfaede4d35f553d66366c0a3da755a\n        /* \"contracts/BanklessWallet.sol\":7356:7367  newGuardian */\n      dup3\n        /* \"contracts/BanklessWallet.sol\":7330:7368  GuardianAdded(msg.sender, newGuardian) */\n      mload(0x40)\n      tag_260\n      swap2\n      swap1\n      tag_79\n      jump\t// in\n    tag_260:\n      mload(0x40)\n      dup1\n      swap2\n      sub\n      swap1\n      log2\n        /* \"contracts/BanklessWallet.sol\":7113:7375  function addGuardian(address newGuardian) onlyOwner notInGuardianRequest notInRecovery external {... */\n      pop\n      jump\t// out\n        /* \"contracts/BanklessWallet.sol\":362:391  bool public inGuardianRequest */\n    tag_90:\n      0x04\n      0x01\n      swap1\n      sload\n      swap1\n      0x0100\n      exp\n      swap1\n      div\n      0xff\n      and\n      dup2\n      jump\t// out\n        /* \"contracts/BanklessWallet.sol\":6916:7107  function cancelGuardianshipTransfer() onlyOwner onlyInGuardianRequest notInRecovery external {... */\n    tag_93:\n        /* \"contracts/BanklessWallet.sol\":1004:1009  owner */\n      0x01\n      0x00\n      swap1\n      sload\n      swap1\n      0x0100\n      exp\n      swap1\n      div\n      0xffffffffffffffffffffffffffffffffffffffff\n      and\n        /* \"contracts/BanklessWallet.sol\":990:1009  msg.sender == owner */\n      0xffffffffffffffffffffffffffffffffffffffff\n      and\n        /* \"contracts/BanklessWallet.sol\":990:1000  msg.sender */\n      caller\n        /* \"contracts/BanklessWallet.sol\":990:1009  msg.sender == owner */\n      0xffffffffffffffffffffffffffffffffffffffff\n      and\n      eq\n        /* \"contracts/BanklessWallet.sol\":982:1028  require(msg.sender == owner, \"Not Authorized\") */\n      tag_262\n      jumpi\n      mload(0x40)\n      0x08c379a000000000000000000000000000000000000000000000000000000000\n      dup2\n      mstore\n      0x04\n      add\n      tag_263\n      swap1\n      tag_125\n      jump\t// in\n    tag_263:\n      mload(0x40)\n      dup1\n      swap2\n      sub\n      swap1\n      revert\n    tag_262:\n        /* \"contracts/BanklessWallet.sol\":1586:1603  inGuardianRequest */\n      0x04\n      0x01\n      swap1\n      sload\n      swap1\n      0x0100\n      exp\n      swap1\n      div\n      0xff\n      and\n        /* \"contracts/BanklessWallet.sol\":1578:1641  require(inGuardianRequest, \"No Current Guardian Request found\") */\n      tag_265\n      jumpi\n      mload(0x40)\n      0x08c379a000000000000000000000000000000000000000000000000000000000\n      dup2\n      mstore\n      0x04\n      add\n      tag_266\n      swap1\n      tag_163\n      jump\t// in\n    tag_266:\n      mload(0x40)\n      dup1\n      swap2\n      sub\n      swap1\n      revert\n    tag_265:\n        /* \"contracts/BanklessWallet.sol\":1226:1236  inRecovery */\n      0x04\n      0x00\n      swap1\n      sload\n      swap1\n      0x0100\n      exp\n      swap1\n      div\n      0xff\n      and\n        /* \"contracts/BanklessWallet.sol\":1225:1236  !inRecovery */\n      iszero\n        /* \"contracts/BanklessWallet.sol\":1217:1267  require(!inRecovery, \"Wallet is in Recovery mode\") */\n      tag_268\n      jumpi\n      mload(0x40)\n      0x08c379a000000000000000000000000000000000000000000000000000000000\n      dup2\n      mstore\n      0x04\n      add\n      tag_269\n      swap1\n      tag_144\n      jump\t// in\n    tag_269:\n      mload(0x40)\n      dup1\n      swap2\n      sub\n      swap1\n      revert\n    tag_268:\n        /* \"contracts/BanklessWallet.sol\":7039:7044  false */\n      0x00\n        /* \"contracts/BanklessWallet.sol\":7019:7036  inGuardianRequest */\n      0x04\n      0x01\n        /* \"contracts/BanklessWallet.sol\":7019:7044  inGuardianRequest = false */\n      0x0100\n      exp\n      dup2\n      sload\n      dup2\n      0xff\n      mul\n      not\n      and\n      swap1\n      dup4\n      iszero\n      iszero\n      mul\n      or\n      swap1\n      sstore\n      pop\n        /* \"contracts/BanklessWallet.sol\":7059:7100  GuardianshipTransferCancelled(msg.sender) */\n      0xd57d294d41d7cb0f642228c3aa8884365982694afcfa206c635fd368dfa4479c\n        /* \"contracts/BanklessWallet.sol\":7089:7099  msg.sender */\n      caller\n        /* \"contracts/BanklessWallet.sol\":7059:7100  GuardianshipTransferCancelled(msg.sender) */\n      mload(0x40)\n      tag_271\n      swap2\n      swap1\n      tag_79\n      jump\t// in\n    tag_271:\n      mload(0x40)\n      dup1\n      swap2\n      sub\n      swap1\n      log1\n        /* \"contracts/BanklessWallet.sol\":6916:7107  function cancelGuardianshipTransfer() onlyOwner onlyInGuardianRequest notInRecovery external {... */\n      jump\t// out\n        /* \"contracts/BanklessWallet.sol\":3238:3412  function transfer(address payable destination, uint256 amount) external onlyOwner {... */\n    tag_97:\n        /* \"contracts/BanklessWallet.sol\":1004:1009  owner */\n      0x01\n      0x00\n      swap1\n      sload\n      swap1\n      0x0100\n      exp\n      swap1\n      div\n      0xffffffffffffffffffffffffffffffffffffffff\n      and\n        /* \"contracts/BanklessWallet.sol\":990:1009  msg.sender == owner */\n      0xffffffffffffffffffffffffffffffffffffffff\n      and\n        /* \"contracts/BanklessWallet.sol\":990:1000  msg.sender */\n      caller\n        /* \"contracts/BanklessWallet.sol\":990:1009  msg.sender == owner */\n      0xffffffffffffffffffffffffffffffffffffffff\n      and\n      eq\n        /* \"contracts/BanklessWallet.sol\":982:1028  require(msg.sender == owner, \"Not Authorized\") */\n      tag_273\n      jumpi\n      mload(0x40)\n      0x08c379a000000000000000000000000000000000000000000000000000000000\n      dup2\n      mstore\n      0x04\n      add\n      tag_274\n      swap1\n      tag_125\n      jump\t// in\n    tag_274:\n      mload(0x40)\n      dup1\n      swap2\n      sub\n      swap1\n      revert\n    tag_273:\n        /* \"contracts/BanklessWallet.sol\":3330:3341  destination */\n      dup2\n        /* \"contracts/BanklessWallet.sol\":3330:3350  destination.transfer */\n      0xffffffffffffffffffffffffffffffffffffffff\n      and\n        /* \"contracts/BanklessWallet.sol\":3330:3358  destination.transfer(amount) */\n      0x08fc\n        /* \"contracts/BanklessWallet.sol\":3351:3357  amount */\n      dup3\n        /* \"contracts/BanklessWallet.sol\":3330:3358  destination.transfer(amount) */\n      swap1\n      dup2\n      iszero\n      mul\n      swap1\n      mload(0x40)\n      0x00\n      mload(0x40)\n      dup1\n      dup4\n      sub\n      dup2\n      dup6\n      dup9\n      dup9\n      call\n      swap4\n      pop\n      pop\n      pop\n      pop\n      iszero\n      dup1\n      iszero\n      tag_277\n      jumpi\n      returndatasize\n      0x00\n      dup1\n      returndatacopy\n      revert(0x00, returndatasize)\n    tag_277:\n      pop\n        /* \"contracts/BanklessWallet.sol\":3385:3396  destination */\n      dup2\n        /* \"contracts/BanklessWallet.sol\":3373:3405  Transferred(destination, amount) */\n      0xffffffffffffffffffffffffffffffffffffffff\n      and\n      0xe6d858f14d755446648a6e0c8ab8b5a0f58ccc7920d4c910b0454e4dcd869af0\n        /* \"contracts/BanklessWallet.sol\":3398:3404  amount */\n      dup3\n        /* \"contracts/BanklessWallet.sol\":3373:3405  Transferred(destination, amount) */\n      mload(0x40)\n      tag_278\n      swap2\n      swap1\n      tag_43\n      jump\t// in\n    tag_278:\n      mload(0x40)\n      dup1\n      swap2\n      sub\n      swap1\n      log2\n        /* \"contracts/BanklessWallet.sol\":3238:3412  function transfer(address payable destination, uint256 amount) external onlyOwner {... */\n      pop\n      pop\n      jump\t// out\n        /* \"contracts/BanklessWallet.sol\":398:430  uint256 public currRecoveryRound */\n    tag_99:\n      sload(0x05)\n      dup2\n      jump\t// out\n        /* \"contracts/BanklessWallet.sol\":885:946  mapping (address => uint256) public guardianToRemoveTimestamp */\n    tag_103:\n      mstore(0x20, 0x09)\n      dup1\n      0x00\n      mstore\n      keccak256(0x00, 0x40)\n      0x00\n      swap2\n      pop\n      swap1\n      pop\n      sload\n      dup2\n      jump\t// out\n        /* \"contracts/BanklessWallet.sol\":5875:6347  function transferGuardianship(address guardianToChange, address newGuardianHash) onlyGuardian notInGuardianRequest notInRecovery external {... */\n    tag_108:\n        /* \"contracts/BanklessWallet.sol\":1093:1103  isGuardian */\n      0x03\n        /* \"contracts/BanklessWallet.sol\":1093:1115  isGuardian[msg.sender] */\n      0x00\n        /* \"contracts/BanklessWallet.sol\":1104:1114  msg.sender */\n      caller\n        /* \"contracts/BanklessWallet.sol\":1093:1115  isGuardian[msg.sender] */\n      0xffffffffffffffffffffffffffffffffffffffff\n      and\n      0xffffffffffffffffffffffffffffffffffffffff\n      and\n      dup2\n      mstore\n      0x20\n      add\n      swap1\n      dup2\n      mstore\n      0x20\n      add\n      0x00\n      keccak256\n      0x00\n      swap1\n      sload\n      swap1\n      0x0100\n      exp\n      swap1\n      div\n      0xff\n      and\n        /* \"contracts/BanklessWallet.sol\":1085:1160  require(isGuardian[msg.sender], \"Only Guardian has access to this request\") */\n      tag_280\n      jumpi\n      mload(0x40)\n      0x08c379a000000000000000000000000000000000000000000000000000000000\n      dup2\n      mstore\n      0x04\n      add\n      tag_281\n      swap1\n      tag_136\n      jump\t// in\n    tag_281:\n      mload(0x40)\n      dup1\n      swap2\n      sub\n      swap1\n      revert\n    tag_280:\n        /* \"contracts/BanklessWallet.sol\":1452:1469  inGuardianRequest */\n      0x04\n      0x01\n      swap1\n      sload\n      swap1\n      0x0100\n      exp\n      swap1\n      div\n      0xff\n      and\n        /* \"contracts/BanklessWallet.sol\":1451:1469  !inGuardianRequest */\n      iszero\n        /* \"contracts/BanklessWallet.sol\":1443:1512  require(!inGuardianRequest, \"Existing Guardian Change Request found\") */\n      tag_283\n      jumpi\n      mload(0x40)\n      0x08c379a000000000000000000000000000000000000000000000000000000000\n      dup2\n      mstore\n      0x04\n      add\n      tag_284\n      swap1\n      tag_140\n      jump\t// in\n    tag_284:\n      mload(0x40)\n      dup1\n      swap2\n      sub\n      swap1\n      revert\n    tag_283:\n        /* \"contracts/BanklessWallet.sol\":1226:1236  inRecovery */\n      0x04\n      0x00\n      swap1\n      sload\n      swap1\n      0x0100\n      exp\n      swap1\n      div\n      0xff\n      and\n        /* \"contracts/BanklessWallet.sol\":1225:1236  !inRecovery */\n      iszero\n        /* \"contracts/BanklessWallet.sol\":1217:1267  require(!inRecovery, \"Wallet is in Recovery mode\") */\n      tag_286\n      jumpi\n      mload(0x40)\n      0x08c379a000000000000000000000000000000000000000000000000000000000\n      dup2\n      mstore\n      0x04\n      add\n      tag_287\n      swap1\n      tag_144\n      jump\t// in\n    tag_287:\n      mload(0x40)\n      dup1\n      swap2\n      sub\n      swap1\n      revert\n    tag_286:\n        /* \"contracts/BanklessWallet.sol\":6059:6162  GuardianRequest(... */\n      mload(0x40)\n      dup1\n      0x60\n      add\n      0x40\n      mstore\n      dup1\n        /* \"contracts/BanklessWallet.sol\":6088:6103  newGuardianHash */\n      dup3\n        /* \"contracts/BanklessWallet.sol\":6059:6162  GuardianRequest(... */\n      0xffffffffffffffffffffffffffffffffffffffff\n      and\n      dup2\n      mstore\n      0x20\n      add\n        /* \"contracts/BanklessWallet.sol\":6117:6133  guardianToChange */\n      dup4\n        /* \"contracts/BanklessWallet.sol\":6059:6162  GuardianRequest(... */\n      0xffffffffffffffffffffffffffffffffffffffff\n      and\n      dup2\n      mstore\n      0x20\n      add\n        /* \"contracts/BanklessWallet.sol\":6147:6152  false */\n      0x00\n        /* \"contracts/BanklessWallet.sol\":6059:6162  GuardianRequest(... */\n      iszero\n      iszero\n      dup2\n      mstore\n      pop\n        /* \"contracts/BanklessWallet.sol\":6023:6044  guardianChangeRequest */\n      0x07\n        /* \"contracts/BanklessWallet.sol\":6023:6056  guardianChangeRequest[msg.sender] */\n      0x00\n        /* \"contracts/BanklessWallet.sol\":6045:6055  msg.sender */\n      caller\n        /* \"contracts/BanklessWallet.sol\":6023:6056  guardianChangeRequest[msg.sender] */\n      0xffffffffffffffffffffffffffffffffffffffff\n      and\n      0xffffffffffffffffffffffffffffffffffffffff\n      and\n      dup2\n      mstore\n      0x20\n      add\n      swap1\n      dup2\n      mstore\n      0x20\n      add\n      0x00\n      keccak256\n        /* \"contracts/BanklessWallet.sol\":6023:6162  guardianChangeRequest[msg.sender] = GuardianRequest(... */\n      0x00\n      dup3\n      add\n      mload\n      dup2\n      0x00\n      add\n      exp(0x0100, 0x00)\n      dup2\n      sload\n      dup2\n      0xffffffffffffffffffffffffffffffffffffffff\n      mul\n      not\n      and\n      swap1\n      dup4\n      0xffffffffffffffffffffffffffffffffffffffff\n      and\n      mul\n      or\n      swap1\n      sstore\n      pop\n      0x20\n      dup3\n      add\n      mload\n      dup2\n      0x01\n      add\n      exp(0x0100, 0x00)\n      dup2\n      sload\n      dup2\n      0xffffffffffffffffffffffffffffffffffffffff\n      mul\n      not\n      and\n      swap1\n      dup4\n      0xffffffffffffffffffffffffffffffffffffffff\n      and\n      mul\n      or\n      swap1\n      sstore\n      pop\n      0x40\n      dup3\n      add\n      mload\n      dup2\n      0x01\n      add\n      exp(0x0100, 0x14)\n      dup2\n      sload\n      dup2\n      0xff\n      mul\n      not\n      and\n      swap1\n      dup4\n      iszero\n      iszero\n      mul\n      or\n      swap1\n      sstore\n      pop\n      swap1\n      pop\n      pop\n        /* \"contracts/BanklessWallet.sol\":6192:6196  true */\n      0x01\n        /* \"contracts/BanklessWallet.sol\":6172:6189  inGuardianRequest */\n      0x04\n      0x01\n        /* \"contracts/BanklessWallet.sol\":6172:6196  inGuardianRequest = true */\n      0x0100\n      exp\n      dup2\n      sload\n      dup2\n      0xff\n      mul\n      not\n      and\n      swap1\n      dup4\n      iszero\n      iszero\n      mul\n      or\n      swap1\n      sstore\n      pop\n        /* \"contracts/BanklessWallet.sol\":6246:6261  block.timestamp */\n      timestamp\n        /* \"contracts/BanklessWallet.sol\":6206:6231  guardianToRemoveTimestamp */\n      0x09\n        /* \"contracts/BanklessWallet.sol\":6206:6243  guardianToRemoveTimestamp[msg.sender] */\n      0x00\n        /* \"contracts/BanklessWallet.sol\":6232:6242  msg.sender */\n      caller\n        /* \"contracts/BanklessWallet.sol\":6206:6243  guardianToRemoveTimestamp[msg.sender] */\n      0xffffffffffffffffffffffffffffffffffffffff\n      and\n      0xffffffffffffffffffffffffffffffffffffffff\n      and\n      dup2\n      mstore\n      0x20\n      add\n      swap1\n      dup2\n      mstore\n      0x20\n      add\n      0x00\n      keccak256\n        /* \"contracts/BanklessWallet.sol\":6206:6261  guardianToRemoveTimestamp[msg.sender] = block.timestamp */\n      dup2\n      swap1\n      sstore\n      pop\n        /* \"contracts/BanklessWallet.sol\":6306:6321  newGuardianHash */\n      dup1\n        /* \"contracts/BanklessWallet.sol\":6276:6340  GuardianshipTransferInitiated(newGuardianHash, guardianToChange) */\n      0xffffffffffffffffffffffffffffffffffffffff\n      and\n      0xd940885aa266e9a19341bba634f831bde68d4d3009e14f239e32bed8dd9e4b54\n        /* \"contracts/BanklessWallet.sol\":6323:6339  guardianToChange */\n      dup4\n        /* \"contracts/BanklessWallet.sol\":6276:6340  GuardianshipTransferInitiated(newGuardianHash, guardianToChange) */\n      mload(0x40)\n      tag_289\n      swap2\n      swap1\n      tag_79\n      jump\t// in\n    tag_289:\n      mload(0x40)\n      dup1\n      swap2\n      sub\n      swap1\n      log2\n        /* \"contracts/BanklessWallet.sol\":5875:6347  function transferGuardianship(address guardianToChange, address newGuardianHash) onlyGuardian notInGuardianRequest notInRecovery external {... */\n      pop\n      pop\n      jump\t// out\n        /* \"contracts/BanklessWallet.sol\":3869:4335  function initiateRecovery(address _proposedOwner) onlyGuardian notInRecovery notInGuardianRequest external {... */\n    tag_111:\n        /* \"contracts/BanklessWallet.sol\":1093:1103  isGuardian */\n      0x03\n        /* \"contracts/BanklessWallet.sol\":1093:1115  isGuardian[msg.sender] */\n      0x00\n        /* \"contracts/BanklessWallet.sol\":1104:1114  msg.sender */\n      caller\n        /* \"contracts/BanklessWallet.sol\":1093:1115  isGuardian[msg.sender] */\n      0xffffffffffffffffffffffffffffffffffffffff\n      and\n      0xffffffffffffffffffffffffffffffffffffffff\n      and\n      dup2\n      mstore\n      0x20\n      add\n      swap1\n      dup2\n      mstore\n      0x20\n      add\n      0x00\n      keccak256\n      0x00\n      swap1\n      sload\n      swap1\n      0x0100\n      exp\n      swap1\n      div\n      0xff\n      and\n        /* \"contracts/BanklessWallet.sol\":1085:1160  require(isGuardian[msg.sender], \"Only Guardian has access to this request\") */\n      tag_291\n      jumpi\n      mload(0x40)\n      0x08c379a000000000000000000000000000000000000000000000000000000000\n      dup2\n      mstore\n      0x04\n      add\n      tag_292\n      swap1\n      tag_136\n      jump\t// in\n    tag_292:\n      mload(0x40)\n      dup1\n      swap2\n      sub\n      swap1\n      revert\n    tag_291:\n        /* \"contracts/BanklessWallet.sol\":1226:1236  inRecovery */\n      0x04\n      0x00\n      swap1\n      sload\n      swap1\n      0x0100\n      exp\n      swap1\n      div\n      0xff\n      and\n        /* \"contracts/BanklessWallet.sol\":1225:1236  !inRecovery */\n      iszero\n        /* \"contracts/BanklessWallet.sol\":1217:1267  require(!inRecovery, \"Wallet is in Recovery mode\") */\n      tag_294\n      jumpi\n      mload(0x40)\n      0x08c379a000000000000000000000000000000000000000000000000000000000\n      dup2\n      mstore\n      0x04\n      add\n      tag_295\n      swap1\n      tag_144\n      jump\t// in\n    tag_295:\n      mload(0x40)\n      dup1\n      swap2\n      sub\n      swap1\n      revert\n    tag_294:\n        /* \"contracts/BanklessWallet.sol\":1452:1469  inGuardianRequest */\n      0x04\n      0x01\n      swap1\n      sload\n      swap1\n      0x0100\n      exp\n      swap1\n      div\n      0xff\n      and\n        /* \"contracts/BanklessWallet.sol\":1451:1469  !inGuardianRequest */\n      iszero\n        /* \"contracts/BanklessWallet.sol\":1443:1512  require(!inGuardianRequest, \"Existing Guardian Change Request found\") */\n      tag_297\n      jumpi\n      mload(0x40)\n      0x08c379a000000000000000000000000000000000000000000000000000000000\n      dup2\n      mstore\n      0x04\n      add\n      tag_298\n      swap1\n      tag_140\n      jump\t// in\n    tag_298:\n      mload(0x40)\n      dup1\n      swap2\n      sub\n      swap1\n      revert\n    tag_297:\n        /* \"contracts/BanklessWallet.sol\":3986:4003  currRecoveryRound */\n      0x05\n      0x00\n        /* \"contracts/BanklessWallet.sol\":3986:4006  currRecoveryRound ++ */\n      dup2\n      sload\n      dup1\n      swap3\n      swap2\n      swap1\n      tag_300\n      swap1\n      tag_205\n      jump\t// in\n    tag_300:\n      swap2\n      swap1\n      pop\n      sstore\n      pop\n        /* \"contracts/BanklessWallet.sol\":4054:4157  RecoveryRequest(... */\n      mload(0x40)\n      dup1\n      0x60\n      add\n      0x40\n      mstore\n      dup1\n        /* \"contracts/BanklessWallet.sol\":4083:4097  _proposedOwner */\n      dup3\n        /* \"contracts/BanklessWallet.sol\":4054:4157  RecoveryRequest(... */\n      0xffffffffffffffffffffffffffffffffffffffff\n      and\n      dup2\n      mstore\n      0x20\n      add\n        /* \"contracts/BanklessWallet.sol\":4111:4128  currRecoveryRound */\n      sload(0x05)\n        /* \"contracts/BanklessWallet.sol\":4054:4157  RecoveryRequest(... */\n      dup2\n      mstore\n      0x20\n      add\n        /* \"contracts/BanklessWallet.sol\":4142:4147  false */\n      0x00\n        /* \"contracts/BanklessWallet.sol\":4054:4157  RecoveryRequest(... */\n      iszero\n      iszero\n      dup2\n      mstore\n      pop\n        /* \"contracts/BanklessWallet.sol\":4016:4039  guardianRecoveryRequest */\n      0x06\n        /* \"contracts/BanklessWallet.sol\":4016:4051  guardianRecoveryRequest[msg.sender] */\n      0x00\n        /* \"contracts/BanklessWallet.sol\":4040:4050  msg.sender */\n      caller\n        /* \"contracts/BanklessWallet.sol\":4016:4051  guardianRecoveryRequest[msg.sender] */\n      0xffffffffffffffffffffffffffffffffffffffff\n      and\n      0xffffffffffffffffffffffffffffffffffffffff\n      and\n      dup2\n      mstore\n      0x20\n      add\n      swap1\n      dup2\n      mstore\n      0x20\n      add\n      0x00\n      keccak256\n        /* \"contracts/BanklessWallet.sol\":4016:4157  guardianRecoveryRequest[msg.sender] = RecoveryRequest(... */\n      0x00\n      dup3\n      add\n      mload\n      dup2\n      0x00\n      add\n      exp(0x0100, 0x00)\n      dup2\n      sload\n      dup2\n      0xffffffffffffffffffffffffffffffffffffffff\n      mul\n      not\n      and\n      swap1\n      dup4\n      0xffffffffffffffffffffffffffffffffffffffff\n      and\n      mul\n      or\n      swap1\n      sstore\n      pop\n      0x20\n      dup3\n      add\n      mload\n      dup2\n      0x01\n      add\n      sstore\n      0x40\n      dup3\n      add\n      mload\n      dup2\n      0x02\n      add\n      exp(0x0100, 0x00)\n      dup2\n      sload\n      dup2\n      0xff\n      mul\n      not\n      and\n      swap1\n      dup4\n      iszero\n      iszero\n      mul\n      or\n      swap1\n      sstore\n      pop\n      swap1\n      pop\n      pop\n        /* \"contracts/BanklessWallet.sol\":4180:4184  true */\n      0x01\n        /* \"contracts/BanklessWallet.sol\":4167:4177  inRecovery */\n      0x04\n      0x00\n        /* \"contracts/BanklessWallet.sol\":4167:4184  inRecovery = true */\n      0x0100\n      exp\n      dup2\n      sload\n      dup2\n      0xff\n      mul\n      not\n      and\n      swap1\n      dup4\n      iszero\n      iszero\n      mul\n      or\n      swap1\n      sstore\n      pop\n        /* \"contracts/BanklessWallet.sol\":4234:4249  block.timestamp */\n      timestamp\n        /* \"contracts/BanklessWallet.sol\":4194:4219  guardianToRemoveTimestamp */\n      0x09\n        /* \"contracts/BanklessWallet.sol\":4194:4231  guardianToRemoveTimestamp[msg.sender] */\n      0x00\n        /* \"contracts/BanklessWallet.sol\":4220:4230  msg.sender */\n      caller\n        /* \"contracts/BanklessWallet.sol\":4194:4231  guardianToRemoveTimestamp[msg.sender] */\n      0xffffffffffffffffffffffffffffffffffffffff\n      and\n      0xffffffffffffffffffffffffffffffffffffffff\n      and\n      dup2\n      mstore\n      0x20\n      add\n      swap1\n      dup2\n      mstore\n      0x20\n      add\n      0x00\n      keccak256\n        /* \"contracts/BanklessWallet.sol\":4194:4249  guardianToRemoveTimestamp[msg.sender] = block.timestamp */\n      dup2\n      swap1\n      sstore\n      pop\n        /* \"contracts/BanklessWallet.sol\":4310:4327  currRecoveryRound */\n      sload(0x05)\n        /* \"contracts/BanklessWallet.sol\":4282:4292  msg.sender */\n      caller\n        /* \"contracts/BanklessWallet.sol\":4264:4328  RecoveryInitiated(msg.sender, _proposedOwner, currRecoveryRound) */\n      0xffffffffffffffffffffffffffffffffffffffff\n      and\n      0xe290ea2cc3cfeb5114f992dc8be9e503de30042c13b9298644a2679b09e17a04\n        /* \"contracts/BanklessWallet.sol\":4294:4308  _proposedOwner */\n      dup4\n        /* \"contracts/BanklessWallet.sol\":4264:4328  RecoveryInitiated(msg.sender, _proposedOwner, currRecoveryRound) */\n      mload(0x40)\n      tag_301\n      swap2\n      swap1\n      tag_79\n      jump\t// in\n    tag_301:\n      mload(0x40)\n      dup1\n      swap2\n      sub\n      swap1\n      log3\n        /* \"contracts/BanklessWallet.sol\":3869:4335  function initiateRecovery(address _proposedOwner) onlyGuardian notInRecovery notInGuardianRequest external {... */\n      pop\n      jump\t// out\n        /* \"contracts/BanklessWallet.sol\":7381:7641  function editThreshold(uint256 _threshold) onlyOwner notInGuardianRequest notInRecovery external {... */\n    tag_115:\n        /* \"contracts/BanklessWallet.sol\":1004:1009  owner */\n      0x01\n      0x00\n      swap1\n      sload\n      swap1\n      0x0100\n      exp\n      swap1\n      div\n      0xffffffffffffffffffffffffffffffffffffffff\n      and\n        /* \"contracts/BanklessWallet.sol\":990:1009  msg.sender == owner */\n      0xffffffffffffffffffffffffffffffffffffffff\n      and\n        /* \"contracts/BanklessWallet.sol\":990:1000  msg.sender */\n      caller\n        /* \"contracts/BanklessWallet.sol\":990:1009  msg.sender == owner */\n      0xffffffffffffffffffffffffffffffffffffffff\n      and\n      eq\n        /* \"contracts/BanklessWallet.sol\":982:1028  require(msg.sender == owner, \"Not Authorized\") */\n      tag_303\n      jumpi\n      mload(0x40)\n      0x08c379a000000000000000000000000000000000000000000000000000000000\n      dup2\n      mstore\n      0x04\n      add\n      tag_304\n      swap1\n      tag_125\n      jump\t// in\n    tag_304:\n      mload(0x40)\n      dup1\n      swap2\n      sub\n      swap1\n      revert\n    tag_303:\n        /* \"contracts/BanklessWallet.sol\":1452:1469  inGuardianRequest */\n      0x04\n      0x01\n      swap1\n      sload\n      swap1\n      0x0100\n      exp\n      swap1\n      div\n      0xff\n      and\n        /* \"contracts/BanklessWallet.sol\":1451:1469  !inGuardianRequest */\n      iszero\n        /* \"contracts/BanklessWallet.sol\":1443:1512  require(!inGuardianRequest, \"Existing Guardian Change Request found\") */\n      tag_306\n      jumpi\n      mload(0x40)\n      0x08c379a000000000000000000000000000000000000000000000000000000000\n      dup2\n      mstore\n      0x04\n      add\n      tag_307\n      swap1\n      tag_140\n      jump\t// in\n    tag_307:\n      mload(0x40)\n      dup1\n      swap2\n      sub\n      swap1\n      revert\n    tag_306:\n        /* \"contracts/BanklessWallet.sol\":1226:1236  inRecovery */\n      0x04\n      0x00\n      swap1\n      sload\n      swap1\n      0x0100\n      exp\n      swap1\n      div\n      0xff\n      and\n        /* \"contracts/BanklessWallet.sol\":1225:1236  !inRecovery */\n      iszero\n        /* \"contracts/BanklessWallet.sol\":1217:1267  require(!inRecovery, \"Wallet is in Recovery mode\") */\n      tag_309\n      jumpi\n      mload(0x40)\n      0x08c379a000000000000000000000000000000000000000000000000000000000\n      dup2\n      mstore\n      0x04\n      add\n      tag_310\n      swap1\n      tag_144\n      jump\t// in\n    tag_310:\n      mload(0x40)\n      dup1\n      swap2\n      sub\n      swap1\n      revert\n    tag_309:\n        /* \"contracts/BanklessWallet.sol\":7509:7510  1 */\n      0x01\n        /* \"contracts/BanklessWallet.sol\":7496:7505  threshold */\n      sload(0x02)\n        /* \"contracts/BanklessWallet.sol\":7496:7510  threshold >= 1 */\n      lt\n      iszero\n        /* \"contracts/BanklessWallet.sol\":7488:7547  require(threshold >= 1, \"Threshold must be greater than 1\") */\n      tag_312\n      jumpi\n      mload(0x40)\n      0x08c379a000000000000000000000000000000000000000000000000000000000\n      dup2\n      mstore\n      0x04\n      add\n      tag_313\n      swap1\n      tag_314\n      jump\t// in\n    tag_313:\n      mload(0x40)\n      dup1\n      swap2\n      sub\n      swap1\n      revert\n    tag_312:\n        /* \"contracts/BanklessWallet.sol\":7569:7579  _threshold */\n      dup1\n        /* \"contracts/BanklessWallet.sol\":7557:7566  threshold */\n      0x02\n        /* \"contracts/BanklessWallet.sol\":7557:7579  threshold = _threshold */\n      dup2\n      swap1\n      sstore\n      pop\n        /* \"contracts/BanklessWallet.sol\":7623:7633  _threshold */\n      dup1\n        /* \"contracts/BanklessWallet.sol\":7611:7621  msg.sender */\n      caller\n        /* \"contracts/BanklessWallet.sol\":7594:7634  ThresholdUpdated(msg.sender, _threshold) */\n      0xffffffffffffffffffffffffffffffffffffffff\n      and\n      0xbb0549e0aedb1fcc6a27d802df340bb4bd5dc53b1f97f3736a879345232e6def\n      mload(0x40)\n      mload(0x40)\n      dup1\n      swap2\n      sub\n      swap1\n      log3\n        /* \"contracts/BanklessWallet.sol\":7381:7641  function editThreshold(uint256 _threshold) onlyOwner notInGuardianRequest notInRecovery external {... */\n      pop\n      jump\t// out\n        /* \"contracts/BanklessWallet.sol\":333:355  bool public inRecovery */\n    tag_117:\n      0x04\n      0x00\n      swap1\n      sload\n      swap1\n      0x0100\n      exp\n      swap1\n      div\n      0xff\n      and\n      dup2\n      jump\t// out\n        /* \"contracts/BanklessWallet.sol\":8357:8649  function changeAvalabilityTimePeriod(uint256 _days) onlyOwner notInGuardianRequest notInRecovery external {... */\n    tag_121:\n        /* \"contracts/BanklessWallet.sol\":1004:1009  owner */\n      0x01\n      0x00\n      swap1\n      sload\n      swap1\n      0x0100\n      exp\n      swap1\n      div\n      0xffffffffffffffffffffffffffffffffffffffff\n      and\n        /* \"contracts/BanklessWallet.sol\":990:1009  msg.sender == owner */\n      0xffffffffffffffffffffffffffffffffffffffff\n      and\n        /* \"contracts/BanklessWallet.sol\":990:1000  msg.sender */\n      caller\n        /* \"contracts/BanklessWallet.sol\":990:1009  msg.sender == owner */\n      0xffffffffffffffffffffffffffffffffffffffff\n      and\n      eq\n        /* \"contracts/BanklessWallet.sol\":982:1028  require(msg.sender == owner, \"Not Authorized\") */\n      tag_316\n      jumpi\n      mload(0x40)\n      0x08c379a000000000000000000000000000000000000000000000000000000000\n      dup2\n      mstore\n      0x04\n      add\n      tag_317\n      swap1\n      tag_125\n      jump\t// in\n    tag_317:\n      mload(0x40)\n      dup1\n      swap2\n      sub\n      swap1\n      revert\n    tag_316:\n        /* \"contracts/BanklessWallet.sol\":1452:1469  inGuardianRequest */\n      0x04\n      0x01\n      swap1\n      sload\n      swap1\n      0x0100\n      exp\n      swap1\n      div\n      0xff\n      and\n        /* \"contracts/BanklessWallet.sol\":1451:1469  !inGuardianRequest */\n      iszero\n        /* \"contracts/BanklessWallet.sol\":1443:1512  require(!inGuardianRequest, \"Existing Guardian Change Request found\") */\n      tag_319\n      jumpi\n      mload(0x40)\n      0x08c379a000000000000000000000000000000000000000000000000000000000\n      dup2\n      mstore\n      0x04\n      add\n      tag_320\n      swap1\n      tag_140\n      jump\t// in\n    tag_320:\n      mload(0x40)\n      dup1\n      swap2\n      sub\n      swap1\n      revert\n    tag_319:\n        /* \"contracts/BanklessWallet.sol\":1226:1236  inRecovery */\n      0x04\n      0x00\n      swap1\n      sload\n      swap1\n      0x0100\n      exp\n      swap1\n      div\n      0xff\n      and\n        /* \"contracts/BanklessWallet.sol\":1225:1236  !inRecovery */\n      iszero\n        /* \"contracts/BanklessWallet.sol\":1217:1267  require(!inRecovery, \"Wallet is in Recovery mode\") */\n      tag_322\n      jumpi\n      mload(0x40)\n      0x08c379a000000000000000000000000000000000000000000000000000000000\n      dup2\n      mstore\n      0x04\n      add\n      tag_323\n      swap1\n      tag_144\n      jump\t// in\n    tag_323:\n      mload(0x40)\n      dup1\n      swap2\n      sub\n      swap1\n      revert\n    tag_322:\n        /* \"contracts/BanklessWallet.sol\":8490:8491  7 */\n      0x07\n        /* \"contracts/BanklessWallet.sol\":8481:8486  _days */\n      dup2\n        /* \"contracts/BanklessWallet.sol\":8481:8491  _days >= 7 */\n      lt\n      iszero\n        /* \"contracts/BanklessWallet.sol\":8473:8531  require(_days >= 7 , \"Minimum days to execute check is 7\") */\n      tag_325\n      jumpi\n      mload(0x40)\n      0x08c379a000000000000000000000000000000000000000000000000000000000\n      dup2\n      mstore\n      0x04\n      add\n      tag_326\n      swap1\n      tag_327\n      jump\t// in\n    tag_326:\n      mload(0x40)\n      dup1\n      swap2\n      sub\n      swap1\n      revert\n    tag_325:\n        /* \"contracts/BanklessWallet.sol\":8579:8585  1 days */\n      0x015180\n        /* \"contracts/BanklessWallet.sol\":8571:8576  _days */\n      dup2\n        /* \"contracts/BanklessWallet.sol\":8571:8585  _days * 1 days */\n      tag_328\n      swap2\n      swap1\n      tag_329\n      jump\t// in\n    tag_328:\n        /* \"contracts/BanklessWallet.sol\":8541:8568  AvailabilityCheckTimePeriod */\n      0x08\n        /* \"contracts/BanklessWallet.sol\":8541:8585  AvailabilityCheckTimePeriod = _days * 1 days */\n      dup2\n      swap1\n      sstore\n      pop\n        /* \"contracts/BanklessWallet.sol\":8631:8641  msg.sender */\n      caller\n        /* \"contracts/BanklessWallet.sol\":8601:8642  AvailabilityTimePeriodChanged(msg.sender) */\n      0xffffffffffffffffffffffffffffffffffffffff\n      and\n      0x53568dbe9b6f3ab514ab5e002f95d314943e692740912338ce95f2b2458fe4a6\n      mload(0x40)\n      mload(0x40)\n      dup1\n      swap2\n      sub\n      swap1\n      log2\n        /* \"contracts/BanklessWallet.sol\":8357:8649  function changeAvalabilityTimePeriod(uint256 _days) onlyOwner notInGuardianRequest notInRecovery external {... */\n      pop\n      jump\t// out\n        /* \"https://github.com/OpenZeppelin/openzeppelin-contracts/blob/master/contracts/utils/ReentrancyGuard.sol\":2431:2738  function _nonReentrantBefore() private {... */\n    tag_236:\n        /* \"https://github.com/OpenZeppelin/openzeppelin-contracts/blob/master/contracts/utils/ReentrancyGuard.sol\":1755:1756  2 */\n      0x02\n        /* \"https://github.com/OpenZeppelin/openzeppelin-contracts/blob/master/contracts/utils/ReentrancyGuard.sol\":2558:2565  _status */\n      sload(0x00)\n        /* \"https://github.com/OpenZeppelin/openzeppelin-contracts/blob/master/contracts/utils/ReentrancyGuard.sol\":2558:2576  _status == ENTERED */\n      sub\n        /* \"https://github.com/OpenZeppelin/openzeppelin-contracts/blob/master/contracts/utils/ReentrancyGuard.sol\":2554:2640  if (_status == ENTERED) {... */\n      tag_331\n      jumpi\n        /* \"https://github.com/OpenZeppelin/openzeppelin-contracts/blob/master/contracts/utils/ReentrancyGuard.sol\":2599:2629  ReentrancyGuardReentrantCall() */\n      mload(0x40)\n      0x3ee5aeb500000000000000000000000000000000000000000000000000000000\n      dup2\n      mstore\n      0x04\n      add\n      mload(0x40)\n      dup1\n      swap2\n      sub\n      swap1\n      revert\n        /* \"https://github.com/OpenZeppelin/openzeppelin-contracts/blob/master/contracts/utils/ReentrancyGuard.sol\":2554:2640  if (_status == ENTERED) {... */\n    tag_331:\n        /* \"https://github.com/OpenZeppelin/openzeppelin-contracts/blob/master/contracts/utils/ReentrancyGuard.sol\":1755:1756  2 */\n      0x02\n        /* \"https://github.com/OpenZeppelin/openzeppelin-contracts/blob/master/contracts/utils/ReentrancyGuard.sol\":2714:2721  _status */\n      0x00\n        /* \"https://github.com/OpenZeppelin/openzeppelin-contracts/blob/master/contracts/utils/ReentrancyGuard.sol\":2714:2731  _status = ENTERED */\n      dup2\n      swap1\n      sstore\n      pop\n        /* \"https://github.com/OpenZeppelin/openzeppelin-contracts/blob/master/contracts/utils/ReentrancyGuard.sol\":2431:2738  function _nonReentrantBefore() private {... */\n      jump\t// out\n        /* \"https://github.com/OpenZeppelin/openzeppelin-contracts/blob/master/contracts/utils/ReentrancyGuard.sol\":2744:2952  function _nonReentrantAfter() private {... */\n    tag_249:\n        /* \"https://github.com/OpenZeppelin/openzeppelin-contracts/blob/master/contracts/utils/ReentrancyGuard.sol\":1713:1714  1 */\n      0x01\n        /* \"https://github.com/OpenZeppelin/openzeppelin-contracts/blob/master/contracts/utils/ReentrancyGuard.sol\":2924:2931  _status */\n      0x00\n        /* \"https://github.com/OpenZeppelin/openzeppelin-contracts/blob/master/contracts/utils/ReentrancyGuard.sol\":2924:2945  _status = NOT_ENTERED */\n      dup2\n      swap1\n      sstore\n      pop\n        /* \"https://github.com/OpenZeppelin/openzeppelin-contracts/blob/master/contracts/utils/ReentrancyGuard.sol\":2744:2952  function _nonReentrantAfter() private {... */\n      jump\t// out\n        /* \"#utility.yul\":7:82   */\n    tag_333:\n        /* \"#utility.yul\":40:46   */\n      0x00\n        /* \"#utility.yul\":73:75   */\n      0x40\n        /* \"#utility.yul\":67:76   */\n      mload\n        /* \"#utility.yul\":57:76   */\n      swap1\n      pop\n        /* \"#utility.yul\":7:82   */\n      swap1\n      jump\t// out\n        /* \"#utility.yul\":88:205   */\n    tag_334:\n        /* \"#utility.yul\":197:198   */\n      0x00\n        /* \"#utility.yul\":194:195   */\n      dup1\n        /* \"#utility.yul\":187:199   */\n      revert\n        /* \"#utility.yul\":211:328   */\n    tag_335:\n        /* \"#utility.yul\":320:321   */\n      0x00\n        /* \"#utility.yul\":317:318   */\n      dup1\n        /* \"#utility.yul\":310:322   */\n      revert\n        /* \"#utility.yul\":334:460   */\n    tag_336:\n        /* \"#utility.yul\":371:378   */\n      0x00\n        /* \"#utility.yul\":411:453   */\n      0xffffffffffffffffffffffffffffffffffffffff\n        /* \"#utility.yul\":404:409   */\n      dup3\n        /* \"#utility.yul\":400:454   */\n      and\n        /* \"#utility.yul\":389:454   */\n      swap1\n      pop\n        /* \"#utility.yul\":334:460   */\n      swap2\n      swap1\n      pop\n      jump\t// out\n        /* \"#utility.yul\":466:562   */\n    tag_337:\n        /* \"#utility.yul\":503:510   */\n      0x00\n        /* \"#utility.yul\":532:556   */\n      tag_405\n        /* \"#utility.yul\":550:555   */\n      dup3\n        /* \"#utility.yul\":532:556   */\n      tag_336\n      jump\t// in\n    tag_405:\n        /* \"#utility.yul\":521:556   */\n      swap1\n      pop\n        /* \"#utility.yul\":466:562   */\n      swap2\n      swap1\n      pop\n      jump\t// out\n        /* \"#utility.yul\":568:690   */\n    tag_338:\n        /* \"#utility.yul\":641:665   */\n      tag_407\n        /* \"#utility.yul\":659:664   */\n      dup2\n        /* \"#utility.yul\":641:665   */\n      tag_337\n      jump\t// in\n    tag_407:\n        /* \"#utility.yul\":634:639   */\n      dup2\n        /* \"#utility.yul\":631:666   */\n      eq\n        /* \"#utility.yul\":621:684   */\n      tag_408\n      jumpi\n        /* \"#utility.yul\":680:681   */\n      0x00\n        /* \"#utility.yul\":677:678   */\n      dup1\n        /* \"#utility.yul\":670:682   */\n      revert\n        /* \"#utility.yul\":621:684   */\n    tag_408:\n        /* \"#utility.yul\":568:690   */\n      pop\n      jump\t// out\n        /* \"#utility.yul\":696:835   */\n    tag_339:\n        /* \"#utility.yul\":742:747   */\n      0x00\n        /* \"#utility.yul\":780:786   */\n      dup2\n        /* \"#utility.yul\":767:787   */\n      calldataload\n        /* \"#utility.yul\":758:787   */\n      swap1\n      pop\n        /* \"#utility.yul\":796:829   */\n      tag_410\n        /* \"#utility.yul\":823:828   */\n      dup2\n        /* \"#utility.yul\":796:829   */\n      tag_338\n      jump\t// in\n    tag_410:\n        /* \"#utility.yul\":696:835   */\n      swap3\n      swap2\n      pop\n      pop\n      jump\t// out\n        /* \"#utility.yul\":841:1170   */\n    tag_36:\n        /* \"#utility.yul\":900:906   */\n      0x00\n        /* \"#utility.yul\":949:951   */\n      0x20\n        /* \"#utility.yul\":937:946   */\n      dup3\n        /* \"#utility.yul\":928:935   */\n      dup5\n        /* \"#utility.yul\":924:947   */\n      sub\n        /* \"#utility.yul\":920:952   */\n      slt\n        /* \"#utility.yul\":917:1036   */\n      iszero\n      tag_412\n      jumpi\n        /* \"#utility.yul\":955:1034   */\n      tag_413\n      tag_334\n      jump\t// in\n    tag_413:\n        /* \"#utility.yul\":917:1036   */\n    tag_412:\n        /* \"#utility.yul\":1075:1076   */\n      0x00\n        /* \"#utility.yul\":1100:1153   */\n      tag_414\n        /* \"#utility.yul\":1145:1152   */\n      dup5\n        /* \"#utility.yul\":1136:1142   */\n      dup3\n        /* \"#utility.yul\":1125:1134   */\n      dup6\n        /* \"#utility.yul\":1121:1143   */\n      add\n        /* \"#utility.yul\":1100:1153   */\n      tag_339\n      jump\t// in\n    tag_414:\n        /* \"#utility.yul\":1090:1153   */\n      swap2\n      pop\n        /* \"#utility.yul\":1046:1163   */\n      pop\n        /* \"#utility.yul\":841:1170   */\n      swap3\n      swap2\n      pop\n      pop\n      jump\t// out\n        /* \"#utility.yul\":1176:1266   */\n    tag_340:\n        /* \"#utility.yul\":1210:1217   */\n      0x00\n        /* \"#utility.yul\":1253:1258   */\n      dup2\n        /* \"#utility.yul\":1246:1259   */\n      iszero\n        /* \"#utility.yul\":1239:1260   */\n      iszero\n        /* \"#utility.yul\":1228:1260   */\n      swap1\n      pop\n        /* \"#utility.yul\":1176:1266   */\n      swap2\n      swap1\n      pop\n      jump\t// out\n        /* \"#utility.yul\":1272:1381   */\n    tag_341:\n        /* \"#utility.yul\":1353:1374   */\n      tag_417\n        /* \"#utility.yul\":1368:1373   */\n      dup2\n        /* \"#utility.yul\":1353:1374   */\n      tag_340\n      jump\t// in\n    tag_417:\n        /* \"#utility.yul\":1348:1351   */\n      dup3\n        /* \"#utility.yul\":1341:1375   */\n      mstore\n        /* \"#utility.yul\":1272:1381   */\n      pop\n      pop\n      jump\t// out\n        /* \"#utility.yul\":1387:1597   */\n    tag_39:\n        /* \"#utility.yul\":1474:1478   */\n      0x00\n        /* \"#utility.yul\":1512:1514   */\n      0x20\n        /* \"#utility.yul\":1501:1510   */\n      dup3\n        /* \"#utility.yul\":1497:1515   */\n      add\n        /* \"#utility.yul\":1489:1515   */\n      swap1\n      pop\n        /* \"#utility.yul\":1525:1590   */\n      tag_419\n        /* \"#utility.yul\":1587:1588   */\n      0x00\n        /* \"#utility.yul\":1576:1585   */\n      dup4\n        /* \"#utility.yul\":1572:1589   */\n      add\n        /* \"#utility.yul\":1563:1569   */\n      dup5\n        /* \"#utility.yul\":1525:1590   */\n      tag_341\n      jump\t// in\n    tag_419:\n        /* \"#utility.yul\":1387:1597   */\n      swap3\n      swap2\n      pop\n      pop\n      jump\t// out\n        /* \"#utility.yul\":1603:1680   */\n    tag_342:\n        /* \"#utility.yul\":1640:1647   */\n      0x00\n        /* \"#utility.yul\":1669:1674   */\n      dup2\n        /* \"#utility.yul\":1658:1674   */\n      swap1\n      pop\n        /* \"#utility.yul\":1603:1680   */\n      swap2\n      swap1\n      pop\n      jump\t// out\n        /* \"#utility.yul\":1686:1804   */\n    tag_343:\n        /* \"#utility.yul\":1773:1797   */\n      tag_422\n        /* \"#utility.yul\":1791:1796   */\n      dup2\n        /* \"#utility.yul\":1773:1797   */\n      tag_342\n      jump\t// in\n    tag_422:\n        /* \"#utility.yul\":1768:1771   */\n      dup3\n        /* \"#utility.yul\":1761:1798   */\n      mstore\n        /* \"#utility.yul\":1686:1804   */\n      pop\n      pop\n      jump\t// out\n        /* \"#utility.yul\":1810:2032   */\n    tag_43:\n        /* \"#utility.yul\":1903:1907   */\n      0x00\n        /* \"#utility.yul\":1941:1943   */\n      0x20\n        /* \"#utility.yul\":1930:1939   */\n      dup3\n        /* \"#utility.yul\":1926:1944   */\n      add\n        /* \"#utility.yul\":1918:1944   */\n      swap1\n      pop\n        /* \"#utility.yul\":1954:2025   */\n      tag_424\n        /* \"#utility.yul\":2022:2023   */\n      0x00\n        /* \"#utility.yul\":2011:2020   */\n      dup4\n        /* \"#utility.yul\":2007:2024   */\n      add\n        /* \"#utility.yul\":1998:2004   */\n      dup5\n        /* \"#utility.yul\":1954:2025   */\n      tag_343\n      jump\t// in\n    tag_424:\n        /* \"#utility.yul\":1810:2032   */\n      swap3\n      swap2\n      pop\n      pop\n      jump\t// out\n        /* \"#utility.yul\":2038:2156   */\n    tag_344:\n        /* \"#utility.yul\":2125:2149   */\n      tag_426\n        /* \"#utility.yul\":2143:2148   */\n      dup2\n        /* \"#utility.yul\":2125:2149   */\n      tag_337\n      jump\t// in\n    tag_426:\n        /* \"#utility.yul\":2120:2123   */\n      dup3\n        /* \"#utility.yul\":2113:2150   */\n      mstore\n        /* \"#utility.yul\":2038:2156   */\n      pop\n      pop\n      jump\t// out\n        /* \"#utility.yul\":2162:2592   */\n    tag_48:\n        /* \"#utility.yul\":2305:2309   */\n      0x00\n        /* \"#utility.yul\":2343:2345   */\n      0x60\n        /* \"#utility.yul\":2332:2341   */\n      dup3\n        /* \"#utility.yul\":2328:2346   */\n      add\n        /* \"#utility.yul\":2320:2346   */\n      swap1\n      pop\n        /* \"#utility.yul\":2356:2427   */\n      tag_428\n        /* \"#utility.yul\":2424:2425   */\n      0x00\n        /* \"#utility.yul\":2413:2422   */\n      dup4\n        /* \"#utility.yul\":2409:2426   */\n      add\n        /* \"#utility.yul\":2400:2406   */\n      dup7\n        /* \"#utility.yul\":2356:2427   */\n      tag_344\n      jump\t// in\n    tag_428:\n        /* \"#utility.yul\":2437:2509   */\n      tag_429\n        /* \"#utility.yul\":2505:2507   */\n      0x20\n        /* \"#utility.yul\":2494:2503   */\n      dup4\n        /* \"#utility.yul\":2490:2508   */\n      add\n        /* \"#utility.yul\":2481:2487   */\n      dup6\n        /* \"#utility.yul\":2437:2509   */\n      tag_344\n      jump\t// in\n    tag_429:\n        /* \"#utility.yul\":2519:2585   */\n      tag_430\n        /* \"#utility.yul\":2581:2583   */\n      0x40\n        /* \"#utility.yul\":2570:2579   */\n      dup4\n        /* \"#utility.yul\":2566:2584   */\n      add\n        /* \"#utility.yul\":2557:2563   */\n      dup5\n        /* \"#utility.yul\":2519:2585   */\n      tag_341\n      jump\t// in\n    tag_430:\n        /* \"#utility.yul\":2162:2592   */\n      swap5\n      swap4\n      pop\n      pop\n      pop\n      pop\n      jump\t// out\n        /* \"#utility.yul\":2598:3028   */\n    tag_53:\n        /* \"#utility.yul\":2741:2745   */\n      0x00\n        /* \"#utility.yul\":2779:2781   */\n      0x60\n        /* \"#utility.yul\":2768:2777   */\n      dup3\n        /* \"#utility.yul\":2764:2782   */\n      add\n        /* \"#utility.yul\":2756:2782   */\n      swap1\n      pop\n        /* \"#utility.yul\":2792:2863   */\n      tag_432\n        /* \"#utility.yul\":2860:2861   */\n      0x00\n        /* \"#utility.yul\":2849:2858   */\n      dup4\n        /* \"#utility.yul\":2845:2862   */\n      add\n        /* \"#utility.yul\":2836:2842   */\n      dup7\n        /* \"#utility.yul\":2792:2863   */\n      tag_344\n      jump\t// in\n    tag_432:\n        /* \"#utility.yul\":2873:2945   */\n      tag_433\n        /* \"#utility.yul\":2941:2943   */\n      0x20\n        /* \"#utility.yul\":2930:2939   */\n      dup4\n        /* \"#utility.yul\":2926:2944   */\n      add\n        /* \"#utility.yul\":2917:2923   */\n      dup6\n        /* \"#utility.yul\":2873:2945   */\n      tag_343\n      jump\t// in\n    tag_433:\n        /* \"#utility.yul\":2955:3021   */\n      tag_434\n        /* \"#utility.yul\":3017:3019   */\n      0x40\n        /* \"#utility.yul\":3006:3015   */\n      dup4\n        /* \"#utility.yul\":3002:3020   */\n      add\n        /* \"#utility.yul\":2993:2999   */\n      dup5\n        /* \"#utility.yul\":2955:3021   */\n      tag_341\n      jump\t// in\n    tag_434:\n        /* \"#utility.yul\":2598:3028   */\n      swap5\n      swap4\n      pop\n      pop\n      pop\n      pop\n      jump\t// out\n        /* \"#utility.yul\":3034:3151   */\n    tag_345:\n        /* \"#utility.yul\":3143:3144   */\n      0x00\n        /* \"#utility.yul\":3140:3141   */\n      dup1\n        /* \"#utility.yul\":3133:3145   */\n      revert\n        /* \"#utility.yul\":3157:3274   */\n    tag_346:\n        /* \"#utility.yul\":3266:3267   */\n      0x00\n        /* \"#utility.yul\":3263:3264   */\n      dup1\n        /* \"#utility.yul\":3256:3268   */\n      revert\n        /* \"#utility.yul\":3280:3397   */\n    tag_347:\n        /* \"#utility.yul\":3389:3390   */\n      0x00\n        /* \"#utility.yul\":3386:3387   */\n      dup1\n        /* \"#utility.yul\":3379:3391   */\n      revert\n        /* \"#utility.yul\":3420:3988   */\n    tag_348:\n        /* \"#utility.yul\":3493:3501   */\n      0x00\n        /* \"#utility.yul\":3503:3509   */\n      dup1\n        /* \"#utility.yul\":3553:3556   */\n      dup4\n        /* \"#utility.yul\":3546:3550   */\n      0x1f\n        /* \"#utility.yul\":3538:3544   */\n      dup5\n        /* \"#utility.yul\":3534:3551   */\n      add\n        /* \"#utility.yul\":3530:3557   */\n      slt\n        /* \"#utility.yul\":3520:3642   */\n      tag_439\n      jumpi\n        /* \"#utility.yul\":3561:3640   */\n      tag_440\n      tag_345\n      jump\t// in\n    tag_440:\n        /* \"#utility.yul\":3520:3642   */\n    tag_439:\n        /* \"#utility.yul\":3674:3680   */\n      dup3\n        /* \"#utility.yul\":3661:3681   */\n      calldataload\n        /* \"#utility.yul\":3651:3681   */\n      swap1\n      pop\n        /* \"#utility.yul\":3704:3722   */\n      0xffffffffffffffff\n        /* \"#utility.yul\":3696:3702   */\n      dup2\n        /* \"#utility.yul\":3693:3723   */\n      gt\n        /* \"#utility.yul\":3690:3807   */\n      iszero\n      tag_441\n      jumpi\n        /* \"#utility.yul\":3726:3805   */\n      tag_442\n      tag_346\n      jump\t// in\n    tag_442:\n        /* \"#utility.yul\":3690:3807   */\n    tag_441:\n        /* \"#utility.yul\":3840:3844   */\n      0x20\n        /* \"#utility.yul\":3832:3838   */\n      dup4\n        /* \"#utility.yul\":3828:3845   */\n      add\n        /* \"#utility.yul\":3816:3845   */\n      swap2\n      pop\n        /* \"#utility.yul\":3894:3897   */\n      dup4\n        /* \"#utility.yul\":3886:3890   */\n      0x20\n        /* \"#utility.yul\":3878:3884   */\n      dup3\n        /* \"#utility.yul\":3874:3891   */\n      mul\n        /* \"#utility.yul\":3864:3872   */\n      dup4\n        /* \"#utility.yul\":3860:3892   */\n      add\n        /* \"#utility.yul\":3857:3898   */\n      gt\n        /* \"#utility.yul\":3854:3982   */\n      iszero\n      tag_443\n      jumpi\n        /* \"#utility.yul\":3901:3980   */\n      tag_444\n      tag_347\n      jump\t// in\n    tag_444:\n        /* \"#utility.yul\":3854:3982   */\n    tag_443:\n        /* \"#utility.yul\":3420:3988   */\n      swap3\n      pop\n      swap3\n      swap1\n      pop\n      jump\t// out\n        /* \"#utility.yul\":3994:4698   */\n    tag_67:\n        /* \"#utility.yul\":4089:4095   */\n      0x00\n        /* \"#utility.yul\":4097:4103   */\n      dup1\n        /* \"#utility.yul\":4105:4111   */\n      0x00\n        /* \"#utility.yul\":4154:4156   */\n      0x40\n        /* \"#utility.yul\":4142:4151   */\n      dup5\n        /* \"#utility.yul\":4133:4140   */\n      dup7\n        /* \"#utility.yul\":4129:4152   */\n      sub\n        /* \"#utility.yul\":4125:4157   */\n      slt\n        /* \"#utility.yul\":4122:4241   */\n      iszero\n      tag_446\n      jumpi\n        /* \"#utility.yul\":4160:4239   */\n      tag_447\n      tag_334\n      jump\t// in\n    tag_447:\n        /* \"#utility.yul\":4122:4241   */\n    tag_446:\n        /* \"#utility.yul\":4280:4281   */\n      0x00\n        /* \"#utility.yul\":4305:4358   */\n      tag_448\n        /* \"#utility.yul\":4350:4357   */\n      dup7\n        /* \"#utility.yul\":4341:4347   */\n      dup3\n        /* \"#utility.yul\":4330:4339   */\n      dup8\n        /* \"#utility.yul\":4326:4348   */\n      add\n        /* \"#utility.yul\":4305:4358   */\n      tag_339\n      jump\t// in\n    tag_448:\n        /* \"#utility.yul\":4295:4358   */\n      swap4\n      pop\n        /* \"#utility.yul\":4251:4368   */\n      pop\n        /* \"#utility.yul\":4435:4437   */\n      0x20\n        /* \"#utility.yul\":4424:4433   */\n      dup5\n        /* \"#utility.yul\":4420:4438   */\n      add\n        /* \"#utility.yul\":4407:4439   */\n      calldataload\n        /* \"#utility.yul\":4466:4484   */\n      0xffffffffffffffff\n        /* \"#utility.yul\":4458:4464   */\n      dup2\n        /* \"#utility.yul\":4455:4485   */\n      gt\n        /* \"#utility.yul\":4452:4569   */\n      iszero\n      tag_449\n      jumpi\n        /* \"#utility.yul\":4488:4567   */\n      tag_450\n      tag_335\n      jump\t// in\n    tag_450:\n        /* \"#utility.yul\":4452:4569   */\n    tag_449:\n        /* \"#utility.yul\":4601:4681   */\n      tag_451\n        /* \"#utility.yul\":4673:4680   */\n      dup7\n        /* \"#utility.yul\":4664:4670   */\n      dup3\n        /* \"#utility.yul\":4653:4662   */\n      dup8\n        /* \"#utility.yul\":4649:4671   */\n      add\n        /* \"#utility.yul\":4601:4681   */\n      tag_348\n      jump\t// in\n    tag_451:\n        /* \"#utility.yul\":4583:4681   */\n      swap3\n      pop\n      swap3\n      pop\n        /* \"#utility.yul\":4378:4691   */\n      pop\n        /* \"#utility.yul\":3994:4698   */\n      swap3\n      pop\n      swap3\n      pop\n      swap3\n      jump\t// out\n        /* \"#utility.yul\":4704:5263   */\n    tag_71:\n        /* \"#utility.yul\":4790:4796   */\n      0x00\n        /* \"#utility.yul\":4798:4804   */\n      dup1\n        /* \"#utility.yul\":4847:4849   */\n      0x20\n        /* \"#utility.yul\":4835:4844   */\n      dup4\n        /* \"#utility.yul\":4826:4833   */\n      dup6\n        /* \"#utility.yul\":4822:4845   */\n      sub\n        /* \"#utility.yul\":4818:4850   */\n      slt\n        /* \"#utility.yul\":4815:4934   */\n      iszero\n      tag_453\n      jumpi\n        /* \"#utility.yul\":4853:4932   */\n      tag_454\n      tag_334\n      jump\t// in\n    tag_454:\n        /* \"#utility.yul\":4815:4934   */\n    tag_453:\n        /* \"#utility.yul\":5001:5002   */\n      0x00\n        /* \"#utility.yul\":4990:4999   */\n      dup4\n        /* \"#utility.yul\":4986:5003   */\n      add\n        /* \"#utility.yul\":4973:5004   */\n      calldataload\n        /* \"#utility.yul\":5031:5049   */\n      0xffffffffffffffff\n        /* \"#utility.yul\":5023:5029   */\n      dup2\n        /* \"#utility.yul\":5020:5050   */\n      gt\n        /* \"#utility.yul\":5017:5134   */\n      iszero\n      tag_455\n      jumpi\n        /* \"#utility.yul\":5053:5132   */\n      tag_456\n      tag_335\n      jump\t// in\n    tag_456:\n        /* \"#utility.yul\":5017:5134   */\n    tag_455:\n        /* \"#utility.yul\":5166:5246   */\n      tag_457\n        /* \"#utility.yul\":5238:5245   */\n      dup6\n        /* \"#utility.yul\":5229:5235   */\n      dup3\n        /* \"#utility.yul\":5218:5227   */\n      dup7\n        /* \"#utility.yul\":5214:5236   */\n      add\n        /* \"#utility.yul\":5166:5246   */\n      tag_348\n      jump\t// in\n    tag_457:\n        /* \"#utility.yul\":5148:5246   */\n      swap3\n      pop\n      swap3\n      pop\n        /* \"#utility.yul\":4944:5256   */\n      pop\n        /* \"#utility.yul\":4704:5263   */\n      swap3\n      pop\n      swap3\n      swap1\n      pop\n      jump\t// out\n        /* \"#utility.yul\":5269:5491   */\n    tag_79:\n        /* \"#utility.yul\":5362:5366   */\n      0x00\n        /* \"#utility.yul\":5400:5402   */\n      0x20\n        /* \"#utility.yul\":5389:5398   */\n      dup3\n        /* \"#utility.yul\":5385:5403   */\n      add\n        /* \"#utility.yul\":5377:5403   */\n      swap1\n      pop\n        /* \"#utility.yul\":5413:5484   */\n      tag_459\n        /* \"#utility.yul\":5481:5482   */\n      0x00\n        /* \"#utility.yul\":5470:5479   */\n      dup4\n        /* \"#utility.yul\":5466:5483   */\n      add\n        /* \"#utility.yul\":5457:5463   */\n      dup5\n        /* \"#utility.yul\":5413:5484   */\n      tag_344\n      jump\t// in\n    tag_459:\n        /* \"#utility.yul\":5269:5491   */\n      swap3\n      swap2\n      pop\n      pop\n      jump\t// out\n        /* \"#utility.yul\":5497:5619   */\n    tag_349:\n        /* \"#utility.yul\":5570:5594   */\n      tag_461\n        /* \"#utility.yul\":5588:5593   */\n      dup2\n        /* \"#utility.yul\":5570:5594   */\n      tag_342\n      jump\t// in\n    tag_461:\n        /* \"#utility.yul\":5563:5568   */\n      dup2\n        /* \"#utility.yul\":5560:5595   */\n      eq\n        /* \"#utility.yul\":5550:5613   */\n      tag_462\n      jumpi\n        /* \"#utility.yul\":5609:5610   */\n      0x00\n        /* \"#utility.yul\":5606:5607   */\n      dup1\n        /* \"#utility.yul\":5599:5611   */\n      revert\n        /* \"#utility.yul\":5550:5613   */\n    tag_462:\n        /* \"#utility.yul\":5497:5619   */\n      pop\n      jump\t// out\n        /* \"#utility.yul\":5625:5764   */\n    tag_350:\n        /* \"#utility.yul\":5671:5676   */\n      0x00\n        /* \"#utility.yul\":5709:5715   */\n      dup2\n        /* \"#utility.yul\":5696:5716   */\n      calldataload\n        /* \"#utility.yul\":5687:5716   */\n      swap1\n      pop\n        /* \"#utility.yul\":5725:5758   */\n      tag_464\n        /* \"#utility.yul\":5752:5757   */\n      dup2\n        /* \"#utility.yul\":5725:5758   */\n      tag_349\n      jump\t// in\n    tag_464:\n        /* \"#utility.yul\":5625:5764   */\n      swap3\n      swap2\n      pop\n      pop\n      jump\t// out\n        /* \"#utility.yul\":5770:5887   */\n    tag_351:\n        /* \"#utility.yul\":5879:5880   */\n      0x00\n        /* \"#utility.yul\":5876:5877   */\n      dup1\n        /* \"#utility.yul\":5869:5881   */\n      revert\n        /* \"#utility.yul\":5893:5995   */\n    tag_352:\n        /* \"#utility.yul\":5934:5940   */\n      0x00\n        /* \"#utility.yul\":5985:5987   */\n      0x1f\n        /* \"#utility.yul\":5981:5988   */\n      not\n        /* \"#utility.yul\":5976:5978   */\n      0x1f\n        /* \"#utility.yul\":5969:5974   */\n      dup4\n        /* \"#utility.yul\":5965:5979   */\n      add\n        /* \"#utility.yul\":5961:5989   */\n      and\n        /* \"#utility.yul\":5951:5989   */\n      swap1\n      pop\n        /* \"#utility.yul\":5893:5995   */\n      swap2\n      swap1\n      pop\n      jump\t// out\n        /* \"#utility.yul\":6001:6181   */\n    tag_353:\n        /* \"#utility.yul\":6049:6126   */\n      0x4e487b7100000000000000000000000000000000000000000000000000000000\n        /* \"#utility.yul\":6046:6047   */\n      0x00\n        /* \"#utility.yul\":6039:6127   */\n      mstore\n        /* \"#utility.yul\":6146:6150   */\n      0x41\n        /* \"#utility.yul\":6143:6144   */\n      0x04\n        /* \"#utility.yul\":6136:6151   */\n      mstore\n        /* \"#utility.yul\":6170:6174   */\n      0x24\n        /* \"#utility.yul\":6167:6168   */\n      0x00\n        /* \"#utility.yul\":6160:6175   */\n      revert\n        /* \"#utility.yul\":6187:6468   */\n    tag_354:\n        /* \"#utility.yul\":6270:6297   */\n      tag_469\n        /* \"#utility.yul\":6292:6296   */\n      dup3\n        /* \"#utility.yul\":6270:6297   */\n      tag_352\n      jump\t// in\n    tag_469:\n        /* \"#utility.yul\":6262:6268   */\n      dup2\n        /* \"#utility.yul\":6258:6298   */\n      add\n        /* \"#utility.yul\":6400:6406   */\n      dup2\n        /* \"#utility.yul\":6388:6398   */\n      dup2\n        /* \"#utility.yul\":6385:6407   */\n      lt\n        /* \"#utility.yul\":6364:6382   */\n      0xffffffffffffffff\n        /* \"#utility.yul\":6352:6362   */\n      dup3\n        /* \"#utility.yul\":6349:6383   */\n      gt\n        /* \"#utility.yul\":6346:6408   */\n      or\n        /* \"#utility.yul\":6343:6431   */\n      iszero\n      tag_470\n      jumpi\n        /* \"#utility.yul\":6411:6429   */\n      tag_471\n      tag_353\n      jump\t// in\n    tag_471:\n        /* \"#utility.yul\":6343:6431   */\n    tag_470:\n        /* \"#utility.yul\":6451:6461   */\n      dup1\n        /* \"#utility.yul\":6447:6449   */\n      0x40\n        /* \"#utility.yul\":6440:6462   */\n      mstore\n        /* \"#utility.yul\":6230:6468   */\n      pop\n        /* \"#utility.yul\":6187:6468   */\n      pop\n      pop\n      jump\t// out\n        /* \"#utility.yul\":6474:6603   */\n    tag_355:\n        /* \"#utility.yul\":6508:6514   */\n      0x00\n        /* \"#utility.yul\":6535:6555   */\n      tag_473\n      tag_333\n      jump\t// in\n    tag_473:\n        /* \"#utility.yul\":6525:6555   */\n      swap1\n      pop\n        /* \"#utility.yul\":6564:6597   */\n      tag_474\n        /* \"#utility.yul\":6592:6596   */\n      dup3\n        /* \"#utility.yul\":6584:6590   */\n      dup3\n        /* \"#utility.yul\":6564:6597   */\n      tag_354\n      jump\t// in\n    tag_474:\n        /* \"#utility.yul\":6474:6603   */\n      swap2\n      swap1\n      pop\n      jump\t// out\n        /* \"#utility.yul\":6609:6916   */\n    tag_356:\n        /* \"#utility.yul\":6670:6674   */\n      0x00\n        /* \"#utility.yul\":6760:6778   */\n      0xffffffffffffffff\n        /* \"#utility.yul\":6752:6758   */\n      dup3\n        /* \"#utility.yul\":6749:6779   */\n      gt\n        /* \"#utility.yul\":6746:6802   */\n      iszero\n      tag_476\n      jumpi\n        /* \"#utility.yul\":6782:6800   */\n      tag_477\n      tag_353\n      jump\t// in\n    tag_477:\n        /* \"#utility.yul\":6746:6802   */\n    tag_476:\n        /* \"#utility.yul\":6820:6849   */\n      tag_478\n        /* \"#utility.yul\":6842:6848   */\n      dup3\n        /* \"#utility.yul\":6820:6849   */\n      tag_352\n      jump\t// in\n    tag_478:\n        /* \"#utility.yul\":6812:6849   */\n      swap1\n      pop\n        /* \"#utility.yul\":6904:6908   */\n      0x20\n        /* \"#utility.yul\":6898:6902   */\n      dup2\n        /* \"#utility.yul\":6894:6909   */\n      add\n        /* \"#utility.yul\":6886:6909   */\n      swap1\n      pop\n        /* \"#utility.yul\":6609:6916   */\n      swap2\n      swap1\n      pop\n      jump\t// out\n        /* \"#utility.yul\":6922:7068   */\n    tag_357:\n        /* \"#utility.yul\":7019:7025   */\n      dup3\n        /* \"#utility.yul\":7014:7017   */\n      dup2\n        /* \"#utility.yul\":7009:7012   */\n      dup4\n        /* \"#utility.yul\":6996:7026   */\n      calldatacopy\n        /* \"#utility.yul\":7060:7061   */\n      0x00\n        /* \"#utility.yul\":7051:7057   */\n      dup4\n        /* \"#utility.yul\":7046:7049   */\n      dup4\n        /* \"#utility.yul\":7042:7058   */\n      add\n        /* \"#utility.yul\":7035:7062   */\n      mstore\n        /* \"#utility.yul\":6922:7068   */\n      pop\n      pop\n      pop\n      jump\t// out\n        /* \"#utility.yul\":7074:7497   */\n    tag_358:\n        /* \"#utility.yul\":7151:7156   */\n      0x00\n        /* \"#utility.yul\":7176:7241   */\n      tag_481\n        /* \"#utility.yul\":7192:7240   */\n      tag_482\n        /* \"#utility.yul\":7233:7239   */\n      dup5\n        /* \"#utility.yul\":7192:7240   */\n      tag_356\n      jump\t// in\n    tag_482:\n        /* \"#utility.yul\":7176:7241   */\n      tag_355\n      jump\t// in\n    tag_481:\n        /* \"#utility.yul\":7167:7241   */\n      swap1\n      pop\n        /* \"#utility.yul\":7264:7270   */\n      dup3\n        /* \"#utility.yul\":7257:7262   */\n      dup2\n        /* \"#utility.yul\":7250:7271   */\n      mstore\n        /* \"#utility.yul\":7302:7306   */\n      0x20\n        /* \"#utility.yul\":7295:7300   */\n      dup2\n        /* \"#utility.yul\":7291:7307   */\n      add\n        /* \"#utility.yul\":7340:7343   */\n      dup5\n        /* \"#utility.yul\":7331:7337   */\n      dup5\n        /* \"#utility.yul\":7326:7329   */\n      dup5\n        /* \"#utility.yul\":7322:7338   */\n      add\n        /* \"#utility.yul\":7319:7344   */\n      gt\n        /* \"#utility.yul\":7316:7428   */\n      iszero\n      tag_483\n      jumpi\n        /* \"#utility.yul\":7347:7426   */\n      tag_484\n      tag_351\n      jump\t// in\n    tag_484:\n        /* \"#utility.yul\":7316:7428   */\n    tag_483:\n        /* \"#utility.yul\":7437:7491   */\n      tag_485\n        /* \"#utility.yul\":7484:7490   */\n      dup5\n        /* \"#utility.yul\":7479:7482   */\n      dup3\n        /* \"#utility.yul\":7474:7477   */\n      dup6\n        /* \"#utility.yul\":7437:7491   */\n      tag_357\n      jump\t// in\n    tag_485:\n        /* \"#utility.yul\":7157:7497   */\n      pop\n        /* \"#utility.yul\":7074:7497   */\n      swap4\n      swap3\n      pop\n      pop\n      pop\n      jump\t// out\n        /* \"#utility.yul\":7516:7854   */\n    tag_359:\n        /* \"#utility.yul\":7571:7576   */\n      0x00\n        /* \"#utility.yul\":7620:7623   */\n      dup3\n        /* \"#utility.yul\":7613:7617   */\n      0x1f\n        /* \"#utility.yul\":7605:7611   */\n      dup4\n        /* \"#utility.yul\":7601:7618   */\n      add\n        /* \"#utility.yul\":7597:7624   */\n      slt\n        /* \"#utility.yul\":7587:7709   */\n      tag_487\n      jumpi\n        /* \"#utility.yul\":7628:7707   */\n      tag_488\n      tag_345\n      jump\t// in\n    tag_488:\n        /* \"#utility.yul\":7587:7709   */\n    tag_487:\n        /* \"#utility.yul\":7745:7751   */\n      dup2\n        /* \"#utility.yul\":7732:7752   */\n      calldataload\n        /* \"#utility.yul\":7770:7848   */\n      tag_489\n        /* \"#utility.yul\":7844:7847   */\n      dup5\n        /* \"#utility.yul\":7836:7842   */\n      dup3\n        /* \"#utility.yul\":7829:7833   */\n      0x20\n        /* \"#utility.yul\":7821:7827   */\n      dup7\n        /* \"#utility.yul\":7817:7834   */\n      add\n        /* \"#utility.yul\":7770:7848   */\n      tag_358\n      jump\t// in\n    tag_489:\n        /* \"#utility.yul\":7761:7848   */\n      swap2\n      pop\n        /* \"#utility.yul\":7577:7854   */\n      pop\n        /* \"#utility.yul\":7516:7854   */\n      swap3\n      swap2\n      pop\n      pop\n      jump\t// out\n        /* \"#utility.yul\":7860:8657   */\n    tag_82:\n        /* \"#utility.yul\":7946:7952   */\n      0x00\n        /* \"#utility.yul\":7954:7960   */\n      dup1\n        /* \"#utility.yul\":7962:7968   */\n      0x00\n        /* \"#utility.yul\":8011:8013   */\n      0x60\n        /* \"#utility.yul\":7999:8008   */\n      dup5\n        /* \"#utility.yul\":7990:7997   */\n      dup7\n        /* \"#utility.yul\":7986:8009   */\n      sub\n        /* \"#utility.yul\":7982:8014   */\n      slt\n        /* \"#utility.yul\":7979:8098   */\n      iszero\n      tag_491\n      jumpi\n        /* \"#utility.yul\":8017:8096   */\n      tag_492\n      tag_334\n      jump\t// in\n    tag_492:\n        /* \"#utility.yul\":7979:8098   */\n    tag_491:\n        /* \"#utility.yul\":8137:8138   */\n      0x00\n        /* \"#utility.yul\":8162:8215   */\n      tag_493\n        /* \"#utility.yul\":8207:8214   */\n      dup7\n        /* \"#utility.yul\":8198:8204   */\n      dup3\n        /* \"#utility.yul\":8187:8196   */\n      dup8\n        /* \"#utility.yul\":8183:8205   */\n      add\n        /* \"#utility.yul\":8162:8215   */\n      tag_339\n      jump\t// in\n    tag_493:\n        /* \"#utility.yul\":8152:8215   */\n      swap4\n      pop\n        /* \"#utility.yul\":8108:8225   */\n      pop\n        /* \"#utility.yul\":8264:8266   */\n      0x20\n        /* \"#utility.yul\":8290:8343   */\n      tag_494\n        /* \"#utility.yul\":8335:8342   */\n      dup7\n        /* \"#utility.yul\":8326:8332   */\n      dup3\n        /* \"#utility.yul\":8315:8324   */\n      dup8\n        /* \"#utility.yul\":8311:8333   */\n      add\n        /* \"#utility.yul\":8290:8343   */\n      tag_350\n      jump\t// in\n    tag_494:\n        /* \"#utility.yul\":8280:8343   */\n      swap3\n      pop\n        /* \"#utility.yul\":8235:8353   */\n      pop\n        /* \"#utility.yul\":8420:8422   */\n      0x40\n        /* \"#utility.yul\":8409:8418   */\n      dup5\n        /* \"#utility.yul\":8405:8423   */\n      add\n        /* \"#utility.yul\":8392:8424   */\n      calldataload\n        /* \"#utility.yul\":8451:8469   */\n      0xffffffffffffffff\n        /* \"#utility.yul\":8443:8449   */\n      dup2\n        /* \"#utility.yul\":8440:8470   */\n      gt\n        /* \"#utility.yul\":8437:8554   */\n      iszero\n      tag_495\n      jumpi\n        /* \"#utility.yul\":8473:8552   */\n      tag_496\n      tag_335\n      jump\t// in\n    tag_496:\n        /* \"#utility.yul\":8437:8554   */\n    tag_495:\n        /* \"#utility.yul\":8578:8640   */\n      tag_497\n        /* \"#utility.yul\":8632:8639   */\n      dup7\n        /* \"#utility.yul\":8623:8629   */\n      dup3\n        /* \"#utility.yul\":8612:8621   */\n      dup8\n        /* \"#utility.yul\":8608:8630   */\n      add\n        /* \"#utility.yul\":8578:8640   */\n      tag_359\n      jump\t// in\n    tag_497:\n        /* \"#utility.yul\":8568:8640   */\n      swap2\n      pop\n        /* \"#utility.yul\":8363:8650   */\n      pop\n        /* \"#utility.yul\":7860:8657   */\n      swap3\n      pop\n      swap3\n      pop\n      swap3\n      jump\t// out\n        /* \"#utility.yul\":8663:8761   */\n    tag_360:\n        /* \"#utility.yul\":8714:8720   */\n      0x00\n        /* \"#utility.yul\":8748:8753   */\n      dup2\n        /* \"#utility.yul\":8742:8754   */\n      mload\n        /* \"#utility.yul\":8732:8754   */\n      swap1\n      pop\n        /* \"#utility.yul\":8663:8761   */\n      swap2\n      swap1\n      pop\n      jump\t// out\n        /* \"#utility.yul\":8767:8935   */\n    tag_361:\n        /* \"#utility.yul\":8850:8861   */\n      0x00\n        /* \"#utility.yul\":8884:8890   */\n      dup3\n        /* \"#utility.yul\":8879:8882   */\n      dup3\n        /* \"#utility.yul\":8872:8891   */\n      mstore\n        /* \"#utility.yul\":8924:8928   */\n      0x20\n        /* \"#utility.yul\":8919:8922   */\n      dup3\n        /* \"#utility.yul\":8915:8929   */\n      add\n        /* \"#utility.yul\":8900:8929   */\n      swap1\n      pop\n        /* \"#utility.yul\":8767:8935   */\n      swap3\n      swap2\n      pop\n      pop\n      jump\t// out\n        /* \"#utility.yul\":8941:9187   */\n    tag_362:\n        /* \"#utility.yul\":9022:9023   */\n      0x00\n        /* \"#utility.yul\":9032:9145   */\n    tag_501:\n        /* \"#utility.yul\":9046:9052   */\n      dup4\n        /* \"#utility.yul\":9043:9044   */\n      dup2\n        /* \"#utility.yul\":9040:9053   */\n      lt\n        /* \"#utility.yul\":9032:9145   */\n      iszero\n      tag_503\n      jumpi\n        /* \"#utility.yul\":9131:9132   */\n      dup1\n        /* \"#utility.yul\":9126:9129   */\n      dup3\n        /* \"#utility.yul\":9122:9133   */\n      add\n        /* \"#utility.yul\":9116:9134   */\n      mload\n        /* \"#utility.yul\":9112:9113   */\n      dup2\n        /* \"#utility.yul\":9107:9110   */\n      dup5\n        /* \"#utility.yul\":9103:9114   */\n      add\n        /* \"#utility.yul\":9096:9135   */\n      mstore\n        /* \"#utility.yul\":9068:9070   */\n      0x20\n        /* \"#utility.yul\":9065:9066   */\n      dup2\n        /* \"#utility.yul\":9061:9071   */\n      add\n        /* \"#utility.yul\":9056:9071   */\n      swap1\n      pop\n        /* \"#utility.yul\":9032:9145   */\n      jump(tag_501)\n    tag_503:\n        /* \"#utility.yul\":9179:9180   */\n      0x00\n        /* \"#utility.yul\":9170:9176   */\n      dup5\n        /* \"#utility.yul\":9165:9168   */\n      dup5\n        /* \"#utility.yul\":9161:9177   */\n      add\n        /* \"#utility.yul\":9154:9181   */\n      mstore\n        /* \"#utility.yul\":9003:9187   */\n      pop\n        /* \"#utility.yul\":8941:9187   */\n      pop\n      pop\n      pop\n      jump\t// out\n        /* \"#utility.yul\":9193:9566   */\n    tag_363:\n        /* \"#utility.yul\":9279:9282   */\n      0x00\n        /* \"#utility.yul\":9307:9345   */\n      tag_505\n        /* \"#utility.yul\":9339:9344   */\n      dup3\n        /* \"#utility.yul\":9307:9345   */\n      tag_360\n      jump\t// in\n    tag_505:\n        /* \"#utility.yul\":9361:9431   */\n      tag_506\n        /* \"#utility.yul\":9424:9430   */\n      dup2\n        /* \"#utility.yul\":9419:9422   */\n      dup6\n        /* \"#utility.yul\":9361:9431   */\n      tag_361\n      jump\t// in\n    tag_506:\n        /* \"#utility.yul\":9354:9431   */\n      swap4\n      pop\n        /* \"#utility.yul\":9440:9505   */\n      tag_507\n        /* \"#utility.yul\":9498:9504   */\n      dup2\n        /* \"#utility.yul\":9493:9496   */\n      dup6\n        /* \"#utility.yul\":9486:9490   */\n      0x20\n        /* \"#utility.yul\":9479:9484   */\n      dup7\n        /* \"#utility.yul\":9475:9491   */\n      add\n        /* \"#utility.yul\":9440:9505   */\n      tag_362\n      jump\t// in\n    tag_507:\n        /* \"#utility.yul\":9530:9559   */\n      tag_508\n        /* \"#utility.yul\":9552:9558   */\n      dup2\n        /* \"#utility.yul\":9530:9559   */\n      tag_352\n      jump\t// in\n    tag_508:\n        /* \"#utility.yul\":9525:9528   */\n      dup5\n        /* \"#utility.yul\":9521:9560   */\n      add\n        /* \"#utility.yul\":9514:9560   */\n      swap2\n      pop\n        /* \"#utility.yul\":9283:9566   */\n      pop\n        /* \"#utility.yul\":9193:9566   */\n      swap3\n      swap2\n      pop\n      pop\n      jump\t// out\n        /* \"#utility.yul\":9572:9881   */\n    tag_85:\n        /* \"#utility.yul\":9683:9687   */\n      0x00\n        /* \"#utility.yul\":9721:9723   */\n      0x20\n        /* \"#utility.yul\":9710:9719   */\n      dup3\n        /* \"#utility.yul\":9706:9724   */\n      add\n        /* \"#utility.yul\":9698:9724   */\n      swap1\n      pop\n        /* \"#utility.yul\":9770:9779   */\n      dup2\n        /* \"#utility.yul\":9764:9768   */\n      dup2\n        /* \"#utility.yul\":9760:9780   */\n      sub\n        /* \"#utility.yul\":9756:9757   */\n      0x00\n        /* \"#utility.yul\":9745:9754   */\n      dup4\n        /* \"#utility.yul\":9741:9758   */\n      add\n        /* \"#utility.yul\":9734:9781   */\n      mstore\n        /* \"#utility.yul\":9798:9874   */\n      tag_510\n        /* \"#utility.yul\":9869:9873   */\n      dup2\n        /* \"#utility.yul\":9860:9866   */\n      dup5\n        /* \"#utility.yul\":9798:9874   */\n      tag_363\n      jump\t// in\n    tag_510:\n        /* \"#utility.yul\":9790:9874   */\n      swap1\n      pop\n        /* \"#utility.yul\":9572:9881   */\n      swap3\n      swap2\n      pop\n      pop\n      jump\t// out\n        /* \"#utility.yul\":9887:9991   */\n    tag_364:\n        /* \"#utility.yul\":9932:9939   */\n      0x00\n        /* \"#utility.yul\":9961:9985   */\n      tag_512\n        /* \"#utility.yul\":9979:9984   */\n      dup3\n        /* \"#utility.yul\":9961:9985   */\n      tag_336\n      jump\t// in\n    tag_512:\n        /* \"#utility.yul\":9950:9985   */\n      swap1\n      pop\n        /* \"#utility.yul\":9887:9991   */\n      swap2\n      swap1\n      pop\n      jump\t// out\n        /* \"#utility.yul\":9997:10135   */\n    tag_365:\n        /* \"#utility.yul\":10078:10110   */\n      tag_514\n        /* \"#utility.yul\":10104:10109   */\n      dup2\n        /* \"#utility.yul\":10078:10110   */\n      tag_364\n      jump\t// in\n    tag_514:\n        /* \"#utility.yul\":10071:10076   */\n      dup2\n        /* \"#utility.yul\":10068:10111   */\n      eq\n        /* \"#utility.yul\":10058:10129   */\n      tag_515\n      jumpi\n        /* \"#utility.yul\":10125:10126   */\n      0x00\n        /* \"#utility.yul\":10122:10123   */\n      dup1\n        /* \"#utility.yul\":10115:10127   */\n      revert\n        /* \"#utility.yul\":10058:10129   */\n    tag_515:\n        /* \"#utility.yul\":9997:10135   */\n      pop\n      jump\t// out\n        /* \"#utility.yul\":10141:10296   */\n    tag_366:\n        /* \"#utility.yul\":10195:10200   */\n      0x00\n        /* \"#utility.yul\":10233:10239   */\n      dup2\n        /* \"#utility.yul\":10220:10240   */\n      calldataload\n        /* \"#utility.yul\":10211:10240   */\n      swap1\n      pop\n        /* \"#utility.yul\":10249:10290   */\n      tag_517\n        /* \"#utility.yul\":10284:10289   */\n      dup2\n        /* \"#utility.yul\":10249:10290   */\n      tag_365\n      jump\t// in\n    tag_517:\n        /* \"#utility.yul\":10141:10296   */\n      swap3\n      swap2\n      pop\n      pop\n      jump\t// out\n        /* \"#utility.yul\":10302:10792   */\n    tag_96:\n        /* \"#utility.yul\":10378:10384   */\n      0x00\n        /* \"#utility.yul\":10386:10392   */\n      dup1\n        /* \"#utility.yul\":10435:10437   */\n      0x40\n        /* \"#utility.yul\":10423:10432   */\n      dup4\n        /* \"#utility.yul\":10414:10421   */\n      dup6\n        /* \"#utility.yul\":10410:10433   */\n      sub\n        /* \"#utility.yul\":10406:10438   */\n      slt\n        /* \"#utility.yul\":10403:10522   */\n      iszero\n      tag_519\n      jumpi\n        /* \"#utility.yul\":10441:10520   */\n      tag_520\n      tag_334\n      jump\t// in\n    tag_520:\n        /* \"#utility.yul\":10403:10522   */\n    tag_519:\n        /* \"#utility.yul\":10561:10562   */\n      0x00\n        /* \"#utility.yul\":10586:10647   */\n      tag_521\n        /* \"#utility.yul\":10639:10646   */\n      dup6\n        /* \"#utility.yul\":10630:10636   */\n      dup3\n        /* \"#utility.yul\":10619:10628   */\n      dup7\n        /* \"#utility.yul\":10615:10637   */\n      add\n        /* \"#utility.yul\":10586:10647   */\n      tag_366\n      jump\t// in\n    tag_521:\n        /* \"#utility.yul\":10576:10647   */\n      swap3\n      pop\n        /* \"#utility.yul\":10532:10657   */\n      pop\n        /* \"#utility.yul\":10696:10698   */\n      0x20\n        /* \"#utility.yul\":10722:10775   */\n      tag_522\n        /* \"#utility.yul\":10767:10774   */\n      dup6\n        /* \"#utility.yul\":10758:10764   */\n      dup3\n        /* \"#utility.yul\":10747:10756   */\n      dup7\n        /* \"#utility.yul\":10743:10765   */\n      add\n        /* \"#utility.yul\":10722:10775   */\n      tag_350\n      jump\t// in\n    tag_522:\n        /* \"#utility.yul\":10712:10775   */\n      swap2\n      pop\n        /* \"#utility.yul\":10667:10785   */\n      pop\n        /* \"#utility.yul\":10302:10792   */\n      swap3\n      pop\n      swap3\n      swap1\n      pop\n      jump\t// out\n        /* \"#utility.yul\":10798:11272   */\n    tag_107:\n        /* \"#utility.yul\":10866:10872   */\n      0x00\n        /* \"#utility.yul\":10874:10880   */\n      dup1\n        /* \"#utility.yul\":10923:10925   */\n      0x40\n        /* \"#utility.yul\":10911:10920   */\n      dup4\n        /* \"#utility.yul\":10902:10909   */\n      dup6\n        /* \"#utility.yul\":10898:10921   */\n      sub\n        /* \"#utility.yul\":10894:10926   */\n      slt\n        /* \"#utility.yul\":10891:11010   */\n      iszero\n      tag_524\n      jumpi\n        /* \"#utility.yul\":10929:11008   */\n      tag_525\n      tag_334\n      jump\t// in\n    tag_525:\n        /* \"#utility.yul\":10891:11010   */\n    tag_524:\n        /* \"#utility.yul\":11049:11050   */\n      0x00\n        /* \"#utility.yul\":11074:11127   */\n      tag_526\n        /* \"#utility.yul\":11119:11126   */\n      dup6\n        /* \"#utility.yul\":11110:11116   */\n      dup3\n        /* \"#utility.yul\":11099:11108   */\n      dup7\n        /* \"#utility.yul\":11095:11117   */\n      add\n        /* \"#utility.yul\":11074:11127   */\n      tag_339\n      jump\t// in\n    tag_526:\n        /* \"#utility.yul\":11064:11127   */\n      swap3\n      pop\n        /* \"#utility.yul\":11020:11137   */\n      pop\n        /* \"#utility.yul\":11176:11178   */\n      0x20\n        /* \"#utility.yul\":11202:11255   */\n      tag_527\n        /* \"#utility.yul\":11247:11254   */\n      dup6\n        /* \"#utility.yul\":11238:11244   */\n      dup3\n        /* \"#utility.yul\":11227:11236   */\n      dup7\n        /* \"#utility.yul\":11223:11245   */\n      add\n        /* \"#utility.yul\":11202:11255   */\n      tag_339\n      jump\t// in\n    tag_527:\n        /* \"#utility.yul\":11192:11255   */\n      swap2\n      pop\n        /* \"#utility.yul\":11147:11265   */\n      pop\n        /* \"#utility.yul\":10798:11272   */\n      swap3\n      pop\n      swap3\n      swap1\n      pop\n      jump\t// out\n        /* \"#utility.yul\":11278:11607   */\n    tag_114:\n        /* \"#utility.yul\":11337:11343   */\n      0x00\n        /* \"#utility.yul\":11386:11388   */\n      0x20\n        /* \"#utility.yul\":11374:11383   */\n      dup3\n        /* \"#utility.yul\":11365:11372   */\n      dup5\n        /* \"#utility.yul\":11361:11384   */\n      sub\n        /* \"#utility.yul\":11357:11389   */\n      slt\n        /* \"#utility.yul\":11354:11473   */\n      iszero\n      tag_529\n      jumpi\n        /* \"#utility.yul\":11392:11471   */\n      tag_530\n      tag_334\n      jump\t// in\n    tag_530:\n        /* \"#utility.yul\":11354:11473   */\n    tag_529:\n        /* \"#utility.yul\":11512:11513   */\n      0x00\n        /* \"#utility.yul\":11537:11590   */\n      tag_531\n        /* \"#utility.yul\":11582:11589   */\n      dup5\n        /* \"#utility.yul\":11573:11579   */\n      dup3\n        /* \"#utility.yul\":11562:11571   */\n      dup6\n        /* \"#utility.yul\":11558:11580   */\n      add\n        /* \"#utility.yul\":11537:11590   */\n      tag_350\n      jump\t// in\n    tag_531:\n        /* \"#utility.yul\":11527:11590   */\n      swap2\n      pop\n        /* \"#utility.yul\":11483:11600   */\n      pop\n        /* \"#utility.yul\":11278:11607   */\n      swap3\n      swap2\n      pop\n      pop\n      jump\t// out\n        /* \"#utility.yul\":11613:11782   */\n    tag_367:\n        /* \"#utility.yul\":11697:11708   */\n      0x00\n        /* \"#utility.yul\":11731:11737   */\n      dup3\n        /* \"#utility.yul\":11726:11729   */\n      dup3\n        /* \"#utility.yul\":11719:11738   */\n      mstore\n        /* \"#utility.yul\":11771:11775   */\n      0x20\n        /* \"#utility.yul\":11766:11769   */\n      dup3\n        /* \"#utility.yul\":11762:11776   */\n      add\n        /* \"#utility.yul\":11747:11776   */\n      swap1\n      pop\n        /* \"#utility.yul\":11613:11782   */\n      swap3\n      swap2\n      pop\n      pop\n      jump\t// out\n        /* \"#utility.yul\":11788:11952   */\n    tag_368:\n        /* \"#utility.yul\":11928:11944   */\n      0x4e6f7420417574686f72697a6564000000000000000000000000000000000000\n        /* \"#utility.yul\":11924:11925   */\n      0x00\n        /* \"#utility.yul\":11916:11922   */\n      dup3\n        /* \"#utility.yul\":11912:11926   */\n      add\n        /* \"#utility.yul\":11905:11945   */\n      mstore\n        /* \"#utility.yul\":11788:11952   */\n      pop\n      jump\t// out\n        /* \"#utility.yul\":11958:12324   */\n    tag_369:\n        /* \"#utility.yul\":12100:12103   */\n      0x00\n        /* \"#utility.yul\":12121:12188   */\n      tag_535\n        /* \"#utility.yul\":12185:12187   */\n      0x0e\n        /* \"#utility.yul\":12180:12183   */\n      dup4\n        /* \"#utility.yul\":12121:12188   */\n      tag_367\n      jump\t// in\n    tag_535:\n        /* \"#utility.yul\":12114:12188   */\n      swap2\n      pop\n        /* \"#utility.yul\":12197:12290   */\n      tag_536\n        /* \"#utility.yul\":12286:12289   */\n      dup3\n        /* \"#utility.yul\":12197:12290   */\n      tag_368\n      jump\t// in\n    tag_536:\n        /* \"#utility.yul\":12315:12317   */\n      0x20\n        /* \"#utility.yul\":12310:12313   */\n      dup3\n        /* \"#utility.yul\":12306:12318   */\n      add\n        /* \"#utility.yul\":12299:12318   */\n      swap1\n      pop\n        /* \"#utility.yul\":11958:12324   */\n      swap2\n      swap1\n      pop\n      jump\t// out\n        /* \"#utility.yul\":12330:12749   */\n    tag_125:\n        /* \"#utility.yul\":12496:12500   */\n      0x00\n        /* \"#utility.yul\":12534:12536   */\n      0x20\n        /* \"#utility.yul\":12523:12532   */\n      dup3\n        /* \"#utility.yul\":12519:12537   */\n      add\n        /* \"#utility.yul\":12511:12537   */\n      swap1\n      pop\n        /* \"#utility.yul\":12583:12592   */\n      dup2\n        /* \"#utility.yul\":12577:12581   */\n      dup2\n        /* \"#utility.yul\":12573:12593   */\n      sub\n        /* \"#utility.yul\":12569:12570   */\n      0x00\n        /* \"#utility.yul\":12558:12567   */\n      dup4\n        /* \"#utility.yul\":12554:12571   */\n      add\n        /* \"#utility.yul\":12547:12594   */\n      mstore\n        /* \"#utility.yul\":12611:12742   */\n      tag_538\n        /* \"#utility.yul\":12737:12741   */\n      dup2\n        /* \"#utility.yul\":12611:12742   */\n      tag_369\n      jump\t// in\n    tag_538:\n        /* \"#utility.yul\":12603:12742   */\n      swap1\n      pop\n        /* \"#utility.yul\":12330:12749   */\n      swap2\n      swap1\n      pop\n      jump\t// out\n        /* \"#utility.yul\":12755:12935   */\n    tag_370:\n        /* \"#utility.yul\":12895:12927   */\n      0x57616c6c6574206973206e6f7420696e205265636f76657279206d6f64650000\n        /* \"#utility.yul\":12891:12892   */\n      0x00\n        /* \"#utility.yul\":12883:12889   */\n      dup3\n        /* \"#utility.yul\":12879:12893   */\n      add\n        /* \"#utility.yul\":12872:12928   */\n      mstore\n        /* \"#utility.yul\":12755:12935   */\n      pop\n      jump\t// out\n        /* \"#utility.yul\":12941:13307   */\n    tag_371:\n        /* \"#utility.yul\":13083:13086   */\n      0x00\n        /* \"#utility.yul\":13104:13171   */\n      tag_541\n        /* \"#utility.yul\":13168:13170   */\n      0x1e\n        /* \"#utility.yul\":13163:13166   */\n      dup4\n        /* \"#utility.yul\":13104:13171   */\n      tag_367\n      jump\t// in\n    tag_541:\n        /* \"#utility.yul\":13097:13171   */\n      swap2\n      pop\n        /* \"#utility.yul\":13180:13273   */\n      tag_542\n        /* \"#utility.yul\":13269:13272   */\n      dup3\n        /* \"#utility.yul\":13180:13273   */\n      tag_370\n      jump\t// in\n    tag_542:\n        /* \"#utility.yul\":13298:13300   */\n      0x20\n        /* \"#utility.yul\":13293:13296   */\n      dup3\n        /* \"#utility.yul\":13289:13301   */\n      add\n        /* \"#utility.yul\":13282:13301   */\n      swap1\n      pop\n        /* \"#utility.yul\":12941:13307   */\n      swap2\n      swap1\n      pop\n      jump\t// out\n        /* \"#utility.yul\":13313:13732   */\n    tag_129:\n        /* \"#utility.yul\":13479:13483   */\n      0x00\n        /* \"#utility.yul\":13517:13519   */\n      0x20\n        /* \"#utility.yul\":13506:13515   */\n      dup3\n        /* \"#utility.yul\":13502:13520   */\n      add\n        /* \"#utility.yul\":13494:13520   */\n      swap1\n      pop\n        /* \"#utility.yul\":13566:13575   */\n      dup2\n        /* \"#utility.yul\":13560:13564   */\n      dup2\n        /* \"#utility.yul\":13556:13576   */\n      sub\n        /* \"#utility.yul\":13552:13553   */\n      0x00\n        /* \"#utility.yul\":13541:13550   */\n      dup4\n        /* \"#utility.yul\":13537:13554   */\n      add\n        /* \"#utility.yul\":13530:13577   */\n      mstore\n        /* \"#utility.yul\":13594:13725   */\n      tag_544\n        /* \"#utility.yul\":13720:13724   */\n      dup2\n        /* \"#utility.yul\":13594:13725   */\n      tag_371\n      jump\t// in\n    tag_544:\n        /* \"#utility.yul\":13586:13725   */\n      swap1\n      pop\n        /* \"#utility.yul\":13313:13732   */\n      swap2\n      swap1\n      pop\n      jump\t// out\n        /* \"#utility.yul\":13738:13965   */\n    tag_372:\n        /* \"#utility.yul\":13878:13912   */\n      0x4f6e6c7920477561726469616e206861732061636365737320746f2074686973\n        /* \"#utility.yul\":13874:13875   */\n      0x00\n        /* \"#utility.yul\":13866:13872   */\n      dup3\n        /* \"#utility.yul\":13862:13876   */\n      add\n        /* \"#utility.yul\":13855:13913   */\n      mstore\n        /* \"#utility.yul\":13947:13957   */\n      0x2072657175657374000000000000000000000000000000000000000000000000\n        /* \"#utility.yul\":13942:13944   */\n      0x20\n        /* \"#utility.yul\":13934:13940   */\n      dup3\n        /* \"#utility.yul\":13930:13945   */\n      add\n        /* \"#utility.yul\":13923:13958   */\n      mstore\n        /* \"#utility.yul\":13738:13965   */\n      pop\n      jump\t// out\n        /* \"#utility.yul\":13971:14337   */\n    tag_373:\n        /* \"#utility.yul\":14113:14116   */\n      0x00\n        /* \"#utility.yul\":14134:14201   */\n      tag_547\n        /* \"#utility.yul\":14198:14200   */\n      0x28\n        /* \"#utility.yul\":14193:14196   */\n      dup4\n        /* \"#utility.yul\":14134:14201   */\n      tag_367\n      jump\t// in\n    tag_547:\n        /* \"#utility.yul\":14127:14201   */\n      swap2\n      pop\n        /* \"#utility.yul\":14210:14303   */\n      tag_548\n        /* \"#utility.yul\":14299:14302   */\n      dup3\n        /* \"#utility.yul\":14210:14303   */\n      tag_372\n      jump\t// in\n    tag_548:\n        /* \"#utility.yul\":14328:14330   */\n      0x40\n        /* \"#utility.yul\":14323:14326   */\n      dup3\n        /* \"#utility.yul\":14319:14331   */\n      add\n        /* \"#utility.yul\":14312:14331   */\n      swap1\n      pop\n        /* \"#utility.yul\":13971:14337   */\n      swap2\n      swap1\n      pop\n      jump\t// out\n        /* \"#utility.yul\":14343:14762   */\n    tag_136:\n        /* \"#utility.yul\":14509:14513   */\n      0x00\n        /* \"#utility.yul\":14547:14549   */\n      0x20\n        /* \"#utility.yul\":14536:14545   */\n      dup3\n        /* \"#utility.yul\":14532:14550   */\n      add\n        /* \"#utility.yul\":14524:14550   */\n      swap1\n      pop\n        /* \"#utility.yul\":14596:14605   */\n      dup2\n        /* \"#utility.yul\":14590:14594   */\n      dup2\n        /* \"#utility.yul\":14586:14606   */\n      sub\n        /* \"#utility.yul\":14582:14583   */\n      0x00\n        /* \"#utility.yul\":14571:14580   */\n      dup4\n        /* \"#utility.yul\":14567:14584   */\n      add\n        /* \"#utility.yul\":14560:14607   */\n      mstore\n        /* \"#utility.yul\":14624:14755   */\n      tag_550\n        /* \"#utility.yul\":14750:14754   */\n      dup2\n        /* \"#utility.yul\":14624:14755   */\n      tag_373\n      jump\t// in\n    tag_550:\n        /* \"#utility.yul\":14616:14755   */\n      swap1\n      pop\n        /* \"#utility.yul\":14343:14762   */\n      swap2\n      swap1\n      pop\n      jump\t// out\n        /* \"#utility.yul\":14768:14993   */\n    tag_374:\n        /* \"#utility.yul\":14908:14942   */\n      0x4578697374696e6720477561726469616e204368616e67652052657175657374\n        /* \"#utility.yul\":14904:14905   */\n      0x00\n        /* \"#utility.yul\":14896:14902   */\n      dup3\n        /* \"#utility.yul\":14892:14906   */\n      add\n        /* \"#utility.yul\":14885:14943   */\n      mstore\n        /* \"#utility.yul\":14977:14985   */\n      0x20666f756e640000000000000000000000000000000000000000000000000000\n        /* \"#utility.yul\":14972:14974   */\n      0x20\n        /* \"#utility.yul\":14964:14970   */\n      dup3\n        /* \"#utility.yul\":14960:14975   */\n      add\n        /* \"#utility.yul\":14953:14986   */\n      mstore\n        /* \"#utility.yul\":14768:14993   */\n      pop\n      jump\t// out\n        /* \"#utility.yul\":14999:15365   */\n    tag_375:\n        /* \"#utility.yul\":15141:15144   */\n      0x00\n        /* \"#utility.yul\":15162:15229   */\n      tag_553\n        /* \"#utility.yul\":15226:15228   */\n      0x26\n        /* \"#utility.yul\":15221:15224   */\n      dup4\n        /* \"#utility.yul\":15162:15229   */\n      tag_367\n      jump\t// in\n    tag_553:\n        /* \"#utility.yul\":15155:15229   */\n      swap2\n      pop\n        /* \"#utility.yul\":15238:15331   */\n      tag_554\n        /* \"#utility.yul\":15327:15330   */\n      dup3\n        /* \"#utility.yul\":15238:15331   */\n      tag_374\n      jump\t// in\n    tag_554:\n        /* \"#utility.yul\":15356:15358   */\n      0x40\n        /* \"#utility.yul\":15351:15354   */\n      dup3\n        /* \"#utility.yul\":15347:15359   */\n      add\n        /* \"#utility.yul\":15340:15359   */\n      swap1\n      pop\n        /* \"#utility.yul\":14999:15365   */\n      swap2\n      swap1\n      pop\n      jump\t// out\n        /* \"#utility.yul\":15371:15790   */\n    tag_140:\n        /* \"#utility.yul\":15537:15541   */\n      0x00\n        /* \"#utility.yul\":15575:15577   */\n      0x20\n        /* \"#utility.yul\":15564:15573   */\n      dup3\n        /* \"#utility.yul\":15560:15578   */\n      add\n        /* \"#utility.yul\":15552:15578   */\n      swap1\n      pop\n        /* \"#utility.yul\":15624:15633   */\n      dup2\n        /* \"#utility.yul\":15618:15622   */\n      dup2\n        /* \"#utility.yul\":15614:15634   */\n      sub\n        /* \"#utility.yul\":15610:15611   */\n      0x00\n        /* \"#utility.yul\":15599:15608   */\n      dup4\n        /* \"#utility.yul\":15595:15612   */\n      add\n        /* \"#utility.yul\":15588:15635   */\n      mstore\n        /* \"#utility.yul\":15652:15783   */\n      tag_556\n        /* \"#utility.yul\":15778:15782   */\n      dup2\n        /* \"#utility.yul\":15652:15783   */\n      tag_375\n      jump\t// in\n    tag_556:\n        /* \"#utility.yul\":15644:15783   */\n      swap1\n      pop\n        /* \"#utility.yul\":15371:15790   */\n      swap2\n      swap1\n      pop\n      jump\t// out\n        /* \"#utility.yul\":15796:15972   */\n    tag_376:\n        /* \"#utility.yul\":15936:15964   */\n      0x57616c6c657420697320696e205265636f76657279206d6f6465000000000000\n        /* \"#utility.yul\":15932:15933   */\n      0x00\n        /* \"#utility.yul\":15924:15930   */\n      dup3\n        /* \"#utility.yul\":15920:15934   */\n      add\n        /* \"#utility.yul\":15913:15965   */\n      mstore\n        /* \"#utility.yul\":15796:15972   */\n      pop\n      jump\t// out\n        /* \"#utility.yul\":15978:16344   */\n    tag_377:\n        /* \"#utility.yul\":16120:16123   */\n      0x00\n        /* \"#utility.yul\":16141:16208   */\n      tag_559\n        /* \"#utility.yul\":16205:16207   */\n      0x1a\n        /* \"#utility.yul\":16200:16203   */\n      dup4\n        /* \"#utility.yul\":16141:16208   */\n      tag_367\n      jump\t// in\n    tag_559:\n        /* \"#utility.yul\":16134:16208   */\n      swap2\n      pop\n        /* \"#utility.yul\":16217:16310   */\n      tag_560\n        /* \"#utility.yul\":16306:16309   */\n      dup3\n        /* \"#utility.yul\":16217:16310   */\n      tag_376\n      jump\t// in\n    tag_560:\n        /* \"#utility.yul\":16335:16337   */\n      0x20\n        /* \"#utility.yul\":16330:16333   */\n      dup3\n        /* \"#utility.yul\":16326:16338   */\n      add\n        /* \"#utility.yul\":16319:16338   */\n      swap1\n      pop\n        /* \"#utility.yul\":15978:16344   */\n      swap2\n      swap1\n      pop\n      jump\t// out\n        /* \"#utility.yul\":16350:16769   */\n    tag_144:\n        /* \"#utility.yul\":16516:16520   */\n      0x00\n        /* \"#utility.yul\":16554:16556   */\n      0x20\n        /* \"#utility.yul\":16543:16552   */\n      dup3\n        /* \"#utility.yul\":16539:16557   */\n      add\n        /* \"#utility.yul\":16531:16557   */\n      swap1\n      pop\n        /* \"#utility.yul\":16603:16612   */\n      dup2\n        /* \"#utility.yul\":16597:16601   */\n      dup2\n        /* \"#utility.yul\":16593:16613   */\n      sub\n        /* \"#utility.yul\":16589:16590   */\n      0x00\n        /* \"#utility.yul\":16578:16587   */\n      dup4\n        /* \"#utility.yul\":16574:16591   */\n      add\n        /* \"#utility.yul\":16567:16614   */\n      mstore\n        /* \"#utility.yul\":16631:16762   */\n      tag_562\n        /* \"#utility.yul\":16757:16761   */\n      dup2\n        /* \"#utility.yul\":16631:16762   */\n      tag_377\n      jump\t// in\n    tag_562:\n        /* \"#utility.yul\":16623:16762   */\n      swap1\n      pop\n        /* \"#utility.yul\":16350:16769   */\n      swap2\n      swap1\n      pop\n      jump\t// out\n        /* \"#utility.yul\":16775:16995   */\n    tag_378:\n        /* \"#utility.yul\":16915:16949   */\n      0x4e6f2043757272656e7420477561726469616e205265717565737420666f756e\n        /* \"#utility.yul\":16911:16912   */\n      0x00\n        /* \"#utility.yul\":16903:16909   */\n      dup3\n        /* \"#utility.yul\":16899:16913   */\n      add\n        /* \"#utility.yul\":16892:16950   */\n      mstore\n        /* \"#utility.yul\":16984:16987   */\n      0x6400000000000000000000000000000000000000000000000000000000000000\n        /* \"#utility.yul\":16979:16981   */\n      0x20\n        /* \"#utility.yul\":16971:16977   */\n      dup3\n        /* \"#utility.yul\":16967:16982   */\n      add\n        /* \"#utility.yul\":16960:16988   */\n      mstore\n        /* \"#utility.yul\":16775:16995   */\n      pop\n      jump\t// out\n        /* \"#utility.yul\":17001:17367   */\n    tag_379:\n        /* \"#utility.yul\":17143:17146   */\n      0x00\n        /* \"#utility.yul\":17164:17231   */\n      tag_565\n        /* \"#utility.yul\":17228:17230   */\n      0x21\n        /* \"#utility.yul\":17223:17226   */\n      dup4\n        /* \"#utility.yul\":17164:17231   */\n      tag_367\n      jump\t// in\n    tag_565:\n        /* \"#utility.yul\":17157:17231   */\n      swap2\n      pop\n        /* \"#utility.yul\":17240:17333   */\n      tag_566\n        /* \"#utility.yul\":17329:17332   */\n      dup3\n        /* \"#utility.yul\":17240:17333   */\n      tag_378\n      jump\t// in\n    tag_566:\n        /* \"#utility.yul\":17358:17360   */\n      0x40\n        /* \"#utility.yul\":17353:17356   */\n      dup3\n        /* \"#utility.yul\":17349:17361   */\n      add\n        /* \"#utility.yul\":17342:17361   */\n      swap1\n      pop\n        /* \"#utility.yul\":17001:17367   */\n      swap2\n      swap1\n      pop\n      jump\t// out\n        /* \"#utility.yul\":17373:17792   */\n    tag_163:\n        /* \"#utility.yul\":17539:17543   */\n      0x00\n        /* \"#utility.yul\":17577:17579   */\n      0x20\n        /* \"#utility.yul\":17566:17575   */\n      dup3\n        /* \"#utility.yul\":17562:17580   */\n      add\n        /* \"#utility.yul\":17554:17580   */\n      swap1\n      pop\n        /* \"#utility.yul\":17626:17635   */\n      dup2\n        /* \"#utility.yul\":17620:17624   */\n      dup2\n        /* \"#utility.yul\":17616:17636   */\n      sub\n        /* \"#utility.yul\":17612:17613   */\n      0x00\n        /* \"#utility.yul\":17601:17610   */\n      dup4\n        /* \"#utility.yul\":17597:17614   */\n      add\n        /* \"#utility.yul\":17590:17637   */\n      mstore\n        /* \"#utility.yul\":17654:17785   */\n      tag_568\n        /* \"#utility.yul\":17780:17784   */\n      dup2\n        /* \"#utility.yul\":17654:17785   */\n      tag_379\n      jump\t// in\n    tag_568:\n        /* \"#utility.yul\":17646:17785   */\n      swap1\n      pop\n        /* \"#utility.yul\":17373:17792   */\n      swap2\n      swap1\n      pop\n      jump\t// out\n        /* \"#utility.yul\":17798:17980   */\n    tag_380:\n        /* \"#utility.yul\":17938:17972   */\n      0x477561726469616e205265717565737420697320616c72656164792055736564\n        /* \"#utility.yul\":17934:17935   */\n      0x00\n        /* \"#utility.yul\":17926:17932   */\n      dup3\n        /* \"#utility.yul\":17922:17936   */\n      add\n        /* \"#utility.yul\":17915:17973   */\n      mstore\n        /* \"#utility.yul\":17798:17980   */\n      pop\n      jump\t// out\n        /* \"#utility.yul\":17986:18352   */\n    tag_381:\n        /* \"#utility.yul\":18128:18131   */\n      0x00\n        /* \"#utility.yul\":18149:18216   */\n      tag_571\n        /* \"#utility.yul\":18213:18215   */\n      0x20\n        /* \"#utility.yul\":18208:18211   */\n      dup4\n        /* \"#utility.yul\":18149:18216   */\n      tag_367\n      jump\t// in\n    tag_571:\n        /* \"#utility.yul\":18142:18216   */\n      swap2\n      pop\n        /* \"#utility.yul\":18225:18318   */\n      tag_572\n        /* \"#utility.yul\":18314:18317   */\n      dup3\n        /* \"#utility.yul\":18225:18318   */\n      tag_380\n      jump\t// in\n    tag_572:\n        /* \"#utility.yul\":18343:18345   */\n      0x20\n        /* \"#utility.yul\":18338:18341   */\n      dup3\n        /* \"#utility.yul\":18334:18346   */\n      add\n        /* \"#utility.yul\":18327:18346   */\n      swap1\n      pop\n        /* \"#utility.yul\":17986:18352   */\n      swap2\n      swap1\n      pop\n      jump\t// out\n        /* \"#utility.yul\":18358:18777   */\n    tag_170:\n        /* \"#utility.yul\":18524:18528   */\n      0x00\n        /* \"#utility.yul\":18562:18564   */\n      0x20\n        /* \"#utility.yul\":18551:18560   */\n      dup3\n        /* \"#utility.yul\":18547:18565   */\n      add\n        /* \"#utility.yul\":18539:18565   */\n      swap1\n      pop\n        /* \"#utility.yul\":18611:18620   */\n      dup2\n        /* \"#utility.yul\":18605:18609   */\n      dup2\n        /* \"#utility.yul\":18601:18621   */\n      sub\n        /* \"#utility.yul\":18597:18598   */\n      0x00\n        /* \"#utility.yul\":18586:18595   */\n      dup4\n        /* \"#utility.yul\":18582:18599   */\n      add\n        /* \"#utility.yul\":18575:18622   */\n      mstore\n        /* \"#utility.yul\":18639:18770   */\n      tag_574\n        /* \"#utility.yul\":18765:18769   */\n      dup2\n        /* \"#utility.yul\":18639:18770   */\n      tag_381\n      jump\t// in\n    tag_574:\n        /* \"#utility.yul\":18631:18770   */\n      swap1\n      pop\n        /* \"#utility.yul\":18358:18777   */\n      swap2\n      swap1\n      pop\n      jump\t// out\n        /* \"#utility.yul\":18783:19015   */\n    tag_382:\n        /* \"#utility.yul\":18923:18957   */\n      0x6d6f726520677561726469616e7320726571756972656420746f207472616e73\n        /* \"#utility.yul\":18919:18920   */\n      0x00\n        /* \"#utility.yul\":18911:18917   */\n      dup3\n        /* \"#utility.yul\":18907:18921   */\n      add\n        /* \"#utility.yul\":18900:18958   */\n      mstore\n        /* \"#utility.yul\":18992:19007   */\n      0x666572206f776e65727368697000000000000000000000000000000000000000\n        /* \"#utility.yul\":18987:18989   */\n      0x20\n        /* \"#utility.yul\":18979:18985   */\n      dup3\n        /* \"#utility.yul\":18975:18990   */\n      add\n        /* \"#utility.yul\":18968:19008   */\n      mstore\n        /* \"#utility.yul\":18783:19015   */\n      pop\n      jump\t// out\n        /* \"#utility.yul\":19021:19387   */\n    tag_383:\n        /* \"#utility.yul\":19163:19166   */\n      0x00\n        /* \"#utility.yul\":19184:19251   */\n      tag_577\n        /* \"#utility.yul\":19248:19250   */\n      0x2d\n        /* \"#utility.yul\":19243:19246   */\n      dup4\n        /* \"#utility.yul\":19184:19251   */\n      tag_367\n      jump\t// in\n    tag_577:\n        /* \"#utility.yul\":19177:19251   */\n      swap2\n      pop\n        /* \"#utility.yul\":19260:19353   */\n      tag_578\n        /* \"#utility.yul\":19349:19352   */\n      dup3\n        /* \"#utility.yul\":19260:19353   */\n      tag_382\n      jump\t// in\n    tag_578:\n        /* \"#utility.yul\":19378:19380   */\n      0x40\n        /* \"#utility.yul\":19373:19376   */\n      dup3\n        /* \"#utility.yul\":19369:19381   */\n      add\n        /* \"#utility.yul\":19362:19381   */\n      swap1\n      pop\n        /* \"#utility.yul\":19021:19387   */\n      swap2\n      swap1\n      pop\n      jump\t// out\n        /* \"#utility.yul\":19393:19812   */\n    tag_184:\n        /* \"#utility.yul\":19559:19563   */\n      0x00\n        /* \"#utility.yul\":19597:19599   */\n      0x20\n        /* \"#utility.yul\":19586:19595   */\n      dup3\n        /* \"#utility.yul\":19582:19600   */\n      add\n        /* \"#utility.yul\":19574:19600   */\n      swap1\n      pop\n        /* \"#utility.yul\":19646:19655   */\n      dup2\n        /* \"#utility.yul\":19640:19644   */\n      dup2\n        /* \"#utility.yul\":19636:19656   */\n      sub\n        /* \"#utility.yul\":19632:19633   */\n      0x00\n        /* \"#utility.yul\":19621:19630   */\n      dup4\n        /* \"#utility.yul\":19617:19634   */\n      add\n        /* \"#utility.yul\":19610:19657   */\n      mstore\n        /* \"#utility.yul\":19674:19805   */\n      tag_580\n        /* \"#utility.yul\":19800:19804   */\n      dup2\n        /* \"#utility.yul\":19674:19805   */\n      tag_383\n      jump\t// in\n    tag_580:\n        /* \"#utility.yul\":19666:19805   */\n      swap1\n      pop\n        /* \"#utility.yul\":19393:19812   */\n      swap2\n      swap1\n      pop\n      jump\t// out\n        /* \"#utility.yul\":19818:19998   */\n    tag_190:\n        /* \"#utility.yul\":19866:19943   */\n      0x4e487b7100000000000000000000000000000000000000000000000000000000\n        /* \"#utility.yul\":19863:19864   */\n      0x00\n        /* \"#utility.yul\":19856:19944   */\n      mstore\n        /* \"#utility.yul\":19963:19967   */\n      0x32\n        /* \"#utility.yul\":19960:19961   */\n      0x04\n        /* \"#utility.yul\":19953:19968   */\n      mstore\n        /* \"#utility.yul\":19987:19991   */\n      0x24\n        /* \"#utility.yul\":19984:19985   */\n      0x00\n        /* \"#utility.yul\":19977:19992   */\n      revert\n        /* \"#utility.yul\":20004:20168   */\n    tag_384:\n        /* \"#utility.yul\":20144:20160   */\n      0x726f756e64206d69736d61746368000000000000000000000000000000000000\n        /* \"#utility.yul\":20140:20141   */\n      0x00\n        /* \"#utility.yul\":20132:20138   */\n      dup3\n        /* \"#utility.yul\":20128:20142   */\n      add\n        /* \"#utility.yul\":20121:20161   */\n      mstore\n        /* \"#utility.yul\":20004:20168   */\n      pop\n      jump\t// out\n        /* \"#utility.yul\":20174:20540   */\n    tag_385:\n        /* \"#utility.yul\":20316:20319   */\n      0x00\n        /* \"#utility.yul\":20337:20404   */\n      tag_584\n        /* \"#utility.yul\":20401:20403   */\n      0x0e\n        /* \"#utility.yul\":20396:20399   */\n      dup4\n        /* \"#utility.yul\":20337:20404   */\n      tag_367\n      jump\t// in\n    tag_584:\n        /* \"#utility.yul\":20330:20404   */\n      swap2\n      pop\n        /* \"#utility.yul\":20413:20506   */\n      tag_585\n        /* \"#utility.yul\":20502:20505   */\n      dup3\n        /* \"#utility.yul\":20413:20506   */\n      tag_384\n      jump\t// in\n    tag_585:\n        /* \"#utility.yul\":20531:20533   */\n      0x20\n        /* \"#utility.yul\":20526:20529   */\n      dup3\n        /* \"#utility.yul\":20522:20534   */\n      add\n        /* \"#utility.yul\":20515:20534   */\n      swap1\n      pop\n        /* \"#utility.yul\":20174:20540   */\n      swap2\n      swap1\n      pop\n      jump\t// out\n        /* \"#utility.yul\":20546:20965   */\n    tag_194:\n        /* \"#utility.yul\":20712:20716   */\n      0x00\n        /* \"#utility.yul\":20750:20752   */\n      0x20\n        /* \"#utility.yul\":20739:20748   */\n      dup3\n        /* \"#utility.yul\":20735:20753   */\n      add\n        /* \"#utility.yul\":20727:20753   */\n      swap1\n      pop\n        /* \"#utility.yul\":20799:20808   */\n      dup2\n        /* \"#utility.yul\":20793:20797   */\n      dup2\n        /* \"#utility.yul\":20789:20809   */\n      sub\n        /* \"#utility.yul\":20785:20786   */\n      0x00\n        /* \"#utility.yul\":20774:20783   */\n      dup4\n        /* \"#utility.yul\":20770:20787   */\n      add\n        /* \"#utility.yul\":20763:20810   */\n      mstore\n        /* \"#utility.yul\":20827:20958   */\n      tag_587\n        /* \"#utility.yul\":20953:20957   */\n      dup2\n        /* \"#utility.yul\":20827:20958   */\n      tag_385\n      jump\t// in\n    tag_587:\n        /* \"#utility.yul\":20819:20958   */\n      swap1\n      pop\n        /* \"#utility.yul\":20546:20965   */\n      swap2\n      swap1\n      pop\n      jump\t// out\n        /* \"#utility.yul\":20971:21146   */\n    tag_386:\n        /* \"#utility.yul\":21111:21138   */\n      0x64697361677265656d656e74206f6e206e6577206f776e657200000000000000\n        /* \"#utility.yul\":21107:21108   */\n      0x00\n        /* \"#utility.yul\":21099:21105   */\n      dup3\n        /* \"#utility.yul\":21095:21109   */\n      add\n        /* \"#utility.yul\":21088:21139   */\n      mstore\n        /* \"#utility.yul\":20971:21146   */\n      pop\n      jump\t// out\n        /* \"#utility.yul\":21152:21518   */\n    tag_387:\n        /* \"#utility.yul\":21294:21297   */\n      0x00\n        /* \"#utility.yul\":21315:21382   */\n      tag_590\n        /* \"#utility.yul\":21379:21381   */\n      0x19\n        /* \"#utility.yul\":21374:21377   */\n      dup4\n        /* \"#utility.yul\":21315:21382   */\n      tag_367\n      jump\t// in\n    tag_590:\n        /* \"#utility.yul\":21308:21382   */\n      swap2\n      pop\n        /* \"#utility.yul\":21391:21484   */\n      tag_591\n        /* \"#utility.yul\":21480:21483   */\n      dup3\n        /* \"#utility.yul\":21391:21484   */\n      tag_386\n      jump\t// in\n    tag_591:\n        /* \"#utility.yul\":21509:21511   */\n      0x20\n        /* \"#utility.yul\":21504:21507   */\n      dup3\n        /* \"#utility.yul\":21500:21512   */\n      add\n        /* \"#utility.yul\":21493:21512   */\n      swap1\n      pop\n        /* \"#utility.yul\":21152:21518   */\n      swap2\n      swap1\n      pop\n      jump\t// out\n        /* \"#utility.yul\":21524:21943   */\n    tag_197:\n        /* \"#utility.yul\":21690:21694   */\n      0x00\n        /* \"#utility.yul\":21728:21730   */\n      0x20\n        /* \"#utility.yul\":21717:21726   */\n      dup3\n        /* \"#utility.yul\":21713:21731   */\n      add\n        /* \"#utility.yul\":21705:21731   */\n      swap1\n      pop\n        /* \"#utility.yul\":21777:21786   */\n      dup2\n        /* \"#utility.yul\":21771:21775   */\n      dup2\n        /* \"#utility.yul\":21767:21787   */\n      sub\n        /* \"#utility.yul\":21763:21764   */\n      0x00\n        /* \"#utility.yul\":21752:21761   */\n      dup4\n        /* \"#utility.yul\":21748:21765   */\n      add\n        /* \"#utility.yul\":21741:21788   */\n      mstore\n        /* \"#utility.yul\":21805:21936   */\n      tag_593\n        /* \"#utility.yul\":21931:21935   */\n      dup2\n        /* \"#utility.yul\":21805:21936   */\n      tag_387\n      jump\t// in\n    tag_593:\n        /* \"#utility.yul\":21797:21936   */\n      swap1\n      pop\n        /* \"#utility.yul\":21524:21943   */\n      swap2\n      swap1\n      pop\n      jump\t// out\n        /* \"#utility.yul\":21949:22171   */\n    tag_388:\n        /* \"#utility.yul\":22089:22123   */\n      0x6475706c696361746520677561726469616e207573656420696e207265636f76\n        /* \"#utility.yul\":22085:22086   */\n      0x00\n        /* \"#utility.yul\":22077:22083   */\n      dup3\n        /* \"#utility.yul\":22073:22087   */\n      add\n        /* \"#utility.yul\":22066:22124   */\n      mstore\n        /* \"#utility.yul\":22158:22163   */\n      0x6572790000000000000000000000000000000000000000000000000000000000\n        /* \"#utility.yul\":22153:22155   */\n      0x20\n        /* \"#utility.yul\":22145:22151   */\n      dup3\n        /* \"#utility.yul\":22141:22156   */\n      add\n        /* \"#utility.yul\":22134:22164   */\n      mstore\n        /* \"#utility.yul\":21949:22171   */\n      pop\n      jump\t// out\n        /* \"#utility.yul\":22177:22543   */\n    tag_389:\n        /* \"#utility.yul\":22319:22322   */\n      0x00\n        /* \"#utility.yul\":22340:22407   */\n      tag_596\n        /* \"#utility.yul\":22404:22406   */\n      0x23\n        /* \"#utility.yul\":22399:22402   */\n      dup4\n        /* \"#utility.yul\":22340:22407   */\n      tag_367\n      jump\t// in\n    tag_596:\n        /* \"#utility.yul\":22333:22407   */\n      swap2\n      pop\n        /* \"#utility.yul\":22416:22509   */\n      tag_597\n        /* \"#utility.yul\":22505:22508   */\n      dup3\n        /* \"#utility.yul\":22416:22509   */\n      tag_388\n      jump\t// in\n    tag_597:\n        /* \"#utility.yul\":22534:22536   */\n      0x40\n        /* \"#utility.yul\":22529:22532   */\n      dup3\n        /* \"#utility.yul\":22525:22537   */\n      add\n        /* \"#utility.yul\":22518:22537   */\n      swap1\n      pop\n        /* \"#utility.yul\":22177:22543   */\n      swap2\n      swap1\n      pop\n      jump\t// out\n        /* \"#utility.yul\":22549:22968   */\n    tag_200:\n        /* \"#utility.yul\":22715:22719   */\n      0x00\n        /* \"#utility.yul\":22753:22755   */\n      0x20\n        /* \"#utility.yul\":22742:22751   */\n      dup3\n        /* \"#utility.yul\":22738:22756   */\n      add\n        /* \"#utility.yul\":22730:22756   */\n      swap1\n      pop\n        /* \"#utility.yul\":22802:22811   */\n      dup2\n        /* \"#utility.yul\":22796:22800   */\n      dup2\n        /* \"#utility.yul\":22792:22812   */\n      sub\n        /* \"#utility.yul\":22788:22789   */\n      0x00\n        /* \"#utility.yul\":22777:22786   */\n      dup4\n        /* \"#utility.yul\":22773:22790   */\n      add\n        /* \"#utility.yul\":22766:22813   */\n      mstore\n        /* \"#utility.yul\":22830:22961   */\n      tag_599\n        /* \"#utility.yul\":22956:22960   */\n      dup2\n        /* \"#utility.yul\":22830:22961   */\n      tag_389\n      jump\t// in\n    tag_599:\n        /* \"#utility.yul\":22822:22961   */\n      swap1\n      pop\n        /* \"#utility.yul\":22549:22968   */\n      swap2\n      swap1\n      pop\n      jump\t// out\n        /* \"#utility.yul\":22974:23154   */\n    tag_390:\n        /* \"#utility.yul\":23022:23099   */\n      0x4e487b7100000000000000000000000000000000000000000000000000000000\n        /* \"#utility.yul\":23019:23020   */\n      0x00\n        /* \"#utility.yul\":23012:23100   */\n      mstore\n        /* \"#utility.yul\":23119:23123   */\n      0x11\n        /* \"#utility.yul\":23116:23117   */\n      0x04\n        /* \"#utility.yul\":23109:23124   */\n      mstore\n        /* \"#utility.yul\":23143:23147   */\n      0x24\n        /* \"#utility.yul\":23140:23141   */\n      0x00\n        /* \"#utility.yul\":23133:23148   */\n      revert\n        /* \"#utility.yul\":23160:23393   */\n    tag_205:\n        /* \"#utility.yul\":23199:23202   */\n      0x00\n        /* \"#utility.yul\":23222:23246   */\n      tag_602\n        /* \"#utility.yul\":23240:23245   */\n      dup3\n        /* \"#utility.yul\":23222:23246   */\n      tag_342\n      jump\t// in\n    tag_602:\n        /* \"#utility.yul\":23213:23246   */\n      swap2\n      pop\n        /* \"#utility.yul\":23268:23334   */\n      0xffffffffffffffffffffffffffffffffffffffffffffffffffffffffffffffff\n        /* \"#utility.yul\":23261:23266   */\n      dup3\n        /* \"#utility.yul\":23258:23335   */\n      sub\n        /* \"#utility.yul\":23255:23358   */\n      tag_603\n      jumpi\n        /* \"#utility.yul\":23338:23356   */\n      tag_604\n      tag_390\n      jump\t// in\n    tag_604:\n        /* \"#utility.yul\":23255:23358   */\n    tag_603:\n        /* \"#utility.yul\":23385:23386   */\n      0x01\n        /* \"#utility.yul\":23378:23383   */\n      dup3\n        /* \"#utility.yul\":23374:23387   */\n      add\n        /* \"#utility.yul\":23367:23387   */\n      swap1\n      pop\n        /* \"#utility.yul\":23160:23393   */\n      swap2\n      swap1\n      pop\n      jump\t// out\n        /* \"#utility.yul\":23399:23731   */\n    tag_207:\n        /* \"#utility.yul\":23520:23524   */\n      0x00\n        /* \"#utility.yul\":23558:23560   */\n      0x40\n        /* \"#utility.yul\":23547:23556   */\n      dup3\n        /* \"#utility.yul\":23543:23561   */\n      add\n        /* \"#utility.yul\":23535:23561   */\n      swap1\n      pop\n        /* \"#utility.yul\":23571:23642   */\n      tag_606\n        /* \"#utility.yul\":23639:23640   */\n      0x00\n        /* \"#utility.yul\":23628:23637   */\n      dup4\n        /* \"#utility.yul\":23624:23641   */\n      add\n        /* \"#utility.yul\":23615:23621   */\n      dup6\n        /* \"#utility.yul\":23571:23642   */\n      tag_344\n      jump\t// in\n    tag_606:\n        /* \"#utility.yul\":23652:23724   */\n      tag_607\n        /* \"#utility.yul\":23720:23722   */\n      0x20\n        /* \"#utility.yul\":23709:23718   */\n      dup4\n        /* \"#utility.yul\":23705:23723   */\n      add\n        /* \"#utility.yul\":23696:23702   */\n      dup5\n        /* \"#utility.yul\":23652:23724   */\n      tag_344\n      jump\t// in\n    tag_607:\n        /* \"#utility.yul\":23399:23731   */\n      swap4\n      swap3\n      pop\n      pop\n      pop\n      jump\t// out\n        /* \"#utility.yul\":23737:23928   */\n    tag_225:\n        /* \"#utility.yul\":23777:23780   */\n      0x00\n        /* \"#utility.yul\":23796:23816   */\n      tag_609\n        /* \"#utility.yul\":23814:23815   */\n      dup3\n        /* \"#utility.yul\":23796:23816   */\n      tag_342\n      jump\t// in\n    tag_609:\n        /* \"#utility.yul\":23791:23816   */\n      swap2\n      pop\n        /* \"#utility.yul\":23830:23850   */\n      tag_610\n        /* \"#utility.yul\":23848:23849   */\n      dup4\n        /* \"#utility.yul\":23830:23850   */\n      tag_342\n      jump\t// in\n    tag_610:\n        /* \"#utility.yul\":23825:23850   */\n      swap3\n      pop\n        /* \"#utility.yul\":23873:23874   */\n      dup3\n        /* \"#utility.yul\":23870:23871   */\n      dup3\n        /* \"#utility.yul\":23866:23875   */\n      add\n        /* \"#utility.yul\":23859:23875   */\n      swap1\n      pop\n        /* \"#utility.yul\":23894:23897   */\n      dup1\n        /* \"#utility.yul\":23891:23892   */\n      dup3\n        /* \"#utility.yul\":23888:23898   */\n      gt\n        /* \"#utility.yul\":23885:23921   */\n      iszero\n      tag_611\n      jumpi\n        /* \"#utility.yul\":23901:23919   */\n      tag_612\n      tag_390\n      jump\t// in\n    tag_612:\n        /* \"#utility.yul\":23885:23921   */\n    tag_611:\n        /* \"#utility.yul\":23737:23928   */\n      swap3\n      swap2\n      pop\n      pop\n      jump\t// out\n        /* \"#utility.yul\":23934:24081   */\n    tag_391:\n        /* \"#utility.yul\":24035:24046   */\n      0x00\n        /* \"#utility.yul\":24072:24075   */\n      dup2\n        /* \"#utility.yul\":24057:24075   */\n      swap1\n      pop\n        /* \"#utility.yul\":23934:24081   */\n      swap3\n      swap2\n      pop\n      pop\n      jump\t// out\n        /* \"#utility.yul\":24087:24473   */\n    tag_392:\n        /* \"#utility.yul\":24191:24194   */\n      0x00\n        /* \"#utility.yul\":24219:24257   */\n      tag_615\n        /* \"#utility.yul\":24251:24256   */\n      dup3\n        /* \"#utility.yul\":24219:24257   */\n      tag_360\n      jump\t// in\n    tag_615:\n        /* \"#utility.yul\":24273:24361   */\n      tag_616\n        /* \"#utility.yul\":24354:24360   */\n      dup2\n        /* \"#utility.yul\":24349:24352   */\n      dup6\n        /* \"#utility.yul\":24273:24361   */\n      tag_391\n      jump\t// in\n    tag_616:\n        /* \"#utility.yul\":24266:24361   */\n      swap4\n      pop\n        /* \"#utility.yul\":24370:24435   */\n      tag_617\n        /* \"#utility.yul\":24428:24434   */\n      dup2\n        /* \"#utility.yul\":24423:24426   */\n      dup6\n        /* \"#utility.yul\":24416:24420   */\n      0x20\n        /* \"#utility.yul\":24409:24414   */\n      dup7\n        /* \"#utility.yul\":24405:24421   */\n      add\n        /* \"#utility.yul\":24370:24435   */\n      tag_362\n      jump\t// in\n    tag_617:\n        /* \"#utility.yul\":24460:24466   */\n      dup1\n        /* \"#utility.yul\":24455:24458   */\n      dup5\n        /* \"#utility.yul\":24451:24467   */\n      add\n        /* \"#utility.yul\":24444:24467   */\n      swap2\n      pop\n        /* \"#utility.yul\":24195:24473   */\n      pop\n        /* \"#utility.yul\":24087:24473   */\n      swap3\n      swap2\n      pop\n      pop\n      jump\t// out\n        /* \"#utility.yul\":24479:24750   */\n    tag_239:\n        /* \"#utility.yul\":24609:24612   */\n      0x00\n        /* \"#utility.yul\":24631:24724   */\n      tag_619\n        /* \"#utility.yul\":24720:24723   */\n      dup3\n        /* \"#utility.yul\":24711:24717   */\n      dup5\n        /* \"#utility.yul\":24631:24724   */\n      tag_392\n      jump\t// in\n    tag_619:\n        /* \"#utility.yul\":24624:24724   */\n      swap2\n      pop\n        /* \"#utility.yul\":24741:24744   */\n      dup2\n        /* \"#utility.yul\":24734:24744   */\n      swap1\n      pop\n        /* \"#utility.yul\":24479:24750   */\n      swap3\n      swap2\n      pop\n      pop\n      jump\t// out\n        /* \"#utility.yul\":24756:24928   */\n    tag_393:\n        /* \"#utility.yul\":24896:24920   */\n      0x436f6e74726163742043616c6c20526576657274656400000000000000000000\n        /* \"#utility.yul\":24892:24893   */\n      0x00\n        /* \"#utility.yul\":24884:24890   */\n      dup3\n        /* \"#utility.yul\":24880:24894   */\n      add\n        /* \"#utility.yul\":24873:24921   */\n      mstore\n        /* \"#utility.yul\":24756:24928   */\n      pop\n      jump\t// out\n        /* \"#utility.yul\":24934:25300   */\n    tag_394:\n        /* \"#utility.yul\":25076:25079   */\n      0x00\n        /* \"#utility.yul\":25097:25164   */\n      tag_622\n        /* \"#utility.yul\":25161:25163   */\n      0x16\n        /* \"#utility.yul\":25156:25159   */\n      dup4\n        /* \"#utility.yul\":25097:25164   */\n      tag_367\n      jump\t// in\n    tag_622:\n        /* \"#utility.yul\":25090:25164   */\n      swap2\n      pop\n        /* \"#utility.yul\":25173:25266   */\n      tag_623\n        /* \"#utility.yul\":25262:25265   */\n      dup3\n        /* \"#utility.yul\":25173:25266   */\n      tag_393\n      jump\t// in\n    tag_623:\n        /* \"#utility.yul\":25291:25293   */\n      0x20\n        /* \"#utility.yul\":25286:25289   */\n      dup3\n        /* \"#utility.yul\":25282:25294   */\n      add\n        /* \"#utility.yul\":25275:25294   */\n      swap1\n      pop\n        /* \"#utility.yul\":24934:25300   */\n      swap2\n      swap1\n      pop\n      jump\t// out\n        /* \"#utility.yul\":25306:25725   */\n    tag_245:\n        /* \"#utility.yul\":25472:25476   */\n      0x00\n        /* \"#utility.yul\":25510:25512   */\n      0x20\n        /* \"#utility.yul\":25499:25508   */\n      dup3\n        /* \"#utility.yul\":25495:25513   */\n      add\n        /* \"#utility.yul\":25487:25513   */\n      swap1\n      pop\n        /* \"#utility.yul\":25559:25568   */\n      dup2\n        /* \"#utility.yul\":25553:25557   */\n      dup2\n        /* \"#utility.yul\":25549:25569   */\n      sub\n        /* \"#utility.yul\":25545:25546   */\n      0x00\n        /* \"#utility.yul\":25534:25543   */\n      dup4\n        /* \"#utility.yul\":25530:25547   */\n      add\n        /* \"#utility.yul\":25523:25570   */\n      mstore\n        /* \"#utility.yul\":25587:25718   */\n      tag_625\n        /* \"#utility.yul\":25713:25717   */\n      dup2\n        /* \"#utility.yul\":25587:25718   */\n      tag_394\n      jump\t// in\n    tag_625:\n        /* \"#utility.yul\":25579:25718   */\n      swap1\n      pop\n        /* \"#utility.yul\":25306:25725   */\n      swap2\n      swap1\n      pop\n      jump\t// out\n        /* \"#utility.yul\":25731:26150   */\n    tag_247:\n        /* \"#utility.yul\":25870:25874   */\n      0x00\n        /* \"#utility.yul\":25908:25910   */\n      0x40\n        /* \"#utility.yul\":25897:25906   */\n      dup3\n        /* \"#utility.yul\":25893:25911   */\n      add\n        /* \"#utility.yul\":25885:25911   */\n      swap1\n      pop\n        /* \"#utility.yul\":25921:25992   */\n      tag_627\n        /* \"#utility.yul\":25989:25990   */\n      0x00\n        /* \"#utility.yul\":25978:25987   */\n      dup4\n        /* \"#utility.yul\":25974:25991   */\n      add\n        /* \"#utility.yul\":25965:25971   */\n      dup6\n        /* \"#utility.yul\":25921:25992   */\n      tag_343\n      jump\t// in\n    tag_627:\n        /* \"#utility.yul\":26039:26048   */\n      dup2\n        /* \"#utility.yul\":26033:26037   */\n      dup2\n        /* \"#utility.yul\":26029:26049   */\n      sub\n        /* \"#utility.yul\":26024:26026   */\n      0x20\n        /* \"#utility.yul\":26013:26022   */\n      dup4\n        /* \"#utility.yul\":26009:26027   */\n      add\n        /* \"#utility.yul\":26002:26050   */\n      mstore\n        /* \"#utility.yul\":26067:26143   */\n      tag_628\n        /* \"#utility.yul\":26138:26142   */\n      dup2\n        /* \"#utility.yul\":26129:26135   */\n      dup5\n        /* \"#utility.yul\":26067:26143   */\n      tag_363\n      jump\t// in\n    tag_628:\n        /* \"#utility.yul\":26059:26143   */\n      swap1\n      pop\n        /* \"#utility.yul\":25731:26150   */\n      swap4\n      swap3\n      pop\n      pop\n      pop\n      jump\t// out\n        /* \"#utility.yul\":26156:26338   */\n    tag_395:\n        /* \"#utility.yul\":26296:26330   */\n      0x5468726573686f6c64206d7573742062652067726561746572207468616e2031\n        /* \"#utility.yul\":26292:26293   */\n      0x00\n        /* \"#utility.yul\":26284:26290   */\n      dup3\n        /* \"#utility.yul\":26280:26294   */\n      add\n        /* \"#utility.yul\":26273:26331   */\n      mstore\n        /* \"#utility.yul\":26156:26338   */\n      pop\n      jump\t// out\n        /* \"#utility.yul\":26344:26710   */\n    tag_396:\n        /* \"#utility.yul\":26486:26489   */\n      0x00\n        /* \"#utility.yul\":26507:26574   */\n      tag_631\n        /* \"#utility.yul\":26571:26573   */\n      0x20\n        /* \"#utility.yul\":26566:26569   */\n      dup4\n        /* \"#utility.yul\":26507:26574   */\n      tag_367\n      jump\t// in\n    tag_631:\n        /* \"#utility.yul\":26500:26574   */\n      swap2\n      pop\n        /* \"#utility.yul\":26583:26676   */\n      tag_632\n        /* \"#utility.yul\":26672:26675   */\n      dup3\n        /* \"#utility.yul\":26583:26676   */\n      tag_395\n      jump\t// in\n    tag_632:\n        /* \"#utility.yul\":26701:26703   */\n      0x20\n        /* \"#utility.yul\":26696:26699   */\n      dup3\n        /* \"#utility.yul\":26692:26704   */\n      add\n        /* \"#utility.yul\":26685:26704   */\n      swap1\n      pop\n        /* \"#utility.yul\":26344:26710   */\n      swap2\n      swap1\n      pop\n      jump\t// out\n        /* \"#utility.yul\":26716:27135   */\n    tag_314:\n        /* \"#utility.yul\":26882:26886   */\n      0x00\n        /* \"#utility.yul\":26920:26922   */\n      0x20\n        /* \"#utility.yul\":26909:26918   */\n      dup3\n        /* \"#utility.yul\":26905:26923   */\n      add\n        /* \"#utility.yul\":26897:26923   */\n      swap1\n      pop\n        /* \"#utility.yul\":26969:26978   */\n      dup2\n        /* \"#utility.yul\":26963:26967   */\n      dup2\n        /* \"#utility.yul\":26959:26979   */\n      sub\n        /* \"#utility.yul\":26955:26956   */\n      0x00\n        /* \"#utility.yul\":26944:26953   */\n      dup4\n        /* \"#utility.yul\":26940:26957   */\n      add\n        /* \"#utility.yul\":26933:26980   */\n      mstore\n        /* \"#utility.yul\":26997:27128   */\n      tag_634\n        /* \"#utility.yul\":27123:27127   */\n      dup2\n        /* \"#utility.yul\":26997:27128   */\n      tag_396\n      jump\t// in\n    tag_634:\n        /* \"#utility.yul\":26989:27128   */\n      swap1\n      pop\n        /* \"#utility.yul\":26716:27135   */\n      swap2\n      swap1\n      pop\n      jump\t// out\n        /* \"#utility.yul\":27141:27362   */\n    tag_397:\n        /* \"#utility.yul\":27281:27315   */\n      0x4d696e696d756d206461797320746f206578656375746520636865636b206973\n        /* \"#utility.yul\":27277:27278   */\n      0x00\n        /* \"#utility.yul\":27269:27275   */\n      dup3\n        /* \"#utility.yul\":27265:27279   */\n      add\n        /* \"#utility.yul\":27258:27316   */\n      mstore\n        /* \"#utility.yul\":27350:27354   */\n      0x2037000000000000000000000000000000000000000000000000000000000000\n        /* \"#utility.yul\":27345:27347   */\n      0x20\n        /* \"#utility.yul\":27337:27343   */\n      dup3\n        /* \"#utility.yul\":27333:27348   */\n      add\n        /* \"#utility.yul\":27326:27355   */\n      mstore\n        /* \"#utility.yul\":27141:27362   */\n      pop\n      jump\t// out\n        /* \"#utility.yul\":27368:27734   */\n    tag_398:\n        /* \"#utility.yul\":27510:27513   */\n      0x00\n        /* \"#utility.yul\":27531:27598   */\n      tag_637\n        /* \"#utility.yul\":27595:27597   */\n      0x22\n        /* \"#utility.yul\":27590:27593   */\n      dup4\n        /* \"#utility.yul\":27531:27598   */\n      tag_367\n      jump\t// in\n    tag_637:\n        /* \"#utility.yul\":27524:27598   */\n      swap2\n      pop\n        /* \"#utility.yul\":27607:27700   */\n      tag_638\n        /* \"#utility.yul\":27696:27699   */\n      dup3\n        /* \"#utility.yul\":27607:27700   */\n      tag_397\n      jump\t// in\n    tag_638:\n        /* \"#utility.yul\":27725:27727   */\n      0x40\n        /* \"#utility.yul\":27720:27723   */\n      dup3\n        /* \"#utility.yul\":27716:27728   */\n      add\n        /* \"#utility.yul\":27709:27728   */\n      swap1\n      pop\n        /* \"#utility.yul\":27368:27734   */\n      swap2\n      swap1\n      pop\n      jump\t// out\n        /* \"#utility.yul\":27740:28159   */\n    tag_327:\n        /* \"#utility.yul\":27906:27910   */\n      0x00\n        /* \"#utility.yul\":27944:27946   */\n      0x20\n        /* \"#utility.yul\":27933:27942   */\n      dup3\n        /* \"#utility.yul\":27929:27947   */\n      add\n        /* \"#utility.yul\":27921:27947   */\n      swap1\n      pop\n        /* \"#utility.yul\":27993:28002   */\n      dup2\n        /* \"#utility.yul\":27987:27991   */\n      dup2\n        /* \"#utility.yul\":27983:28003   */\n      sub\n        /* \"#utility.yul\":27979:27980   */\n      0x00\n        /* \"#utility.yul\":27968:27977   */\n      dup4\n        /* \"#utility.yul\":27964:27981   */\n      add\n        /* \"#utility.yul\":27957:28004   */\n      mstore\n        /* \"#utility.yul\":28021:28152   */\n      tag_640\n        /* \"#utility.yul\":28147:28151   */\n      dup2\n        /* \"#utility.yul\":28021:28152   */\n      tag_398\n      jump\t// in\n    tag_640:\n        /* \"#utility.yul\":28013:28152   */\n      swap1\n      pop\n        /* \"#utility.yul\":27740:28159   */\n      swap2\n      swap1\n      pop\n      jump\t// out\n        /* \"#utility.yul\":28165:28575   */\n    tag_329:\n        /* \"#utility.yul\":28205:28212   */\n      0x00\n        /* \"#utility.yul\":28228:28248   */\n      tag_642\n        /* \"#utility.yul\":28246:28247   */\n      dup3\n        /* \"#utility.yul\":28228:28248   */\n      tag_342\n      jump\t// in\n    tag_642:\n        /* \"#utility.yul\":28223:28248   */\n      swap2\n      pop\n        /* \"#utility.yul\":28262:28282   */\n      tag_643\n        /* \"#utility.yul\":28280:28281   */\n      dup4\n        /* \"#utility.yul\":28262:28282   */\n      tag_342\n      jump\t// in\n    tag_643:\n        /* \"#utility.yul\":28257:28282   */\n      swap3\n      pop\n        /* \"#utility.yul\":28317:28318   */\n      dup3\n        /* \"#utility.yul\":28314:28315   */\n      dup3\n        /* \"#utility.yul\":28310:28319   */\n      mul\n        /* \"#utility.yul\":28339:28369   */\n      tag_644\n        /* \"#utility.yul\":28357:28368   */\n      dup2\n        /* \"#utility.yul\":28339:28369   */\n      tag_342\n      jump\t// in\n    tag_644:\n        /* \"#utility.yul\":28328:28369   */\n      swap2\n      pop\n        /* \"#utility.yul\":28518:28519   */\n      dup3\n        /* \"#utility.yul\":28509:28516   */\n      dup3\n        /* \"#utility.yul\":28505:28520   */\n      div\n        /* \"#utility.yul\":28502:28503   */\n      dup5\n        /* \"#utility.yul\":28499:28521   */\n      eq\n        /* \"#utility.yul\":28479:28480   */\n      dup4\n        /* \"#utility.yul\":28472:28481   */\n      iszero\n        /* \"#utility.yul\":28452:28535   */\n      or\n        /* \"#utility.yul\":28429:28568   */\n      tag_645\n      jumpi\n        /* \"#utility.yul\":28548:28566   */\n      tag_646\n      tag_390\n      jump\t// in\n    tag_646:\n        /* \"#utility.yul\":28429:28568   */\n    tag_645:\n        /* \"#utility.yul\":28213:28575   */\n      pop\n        /* \"#utility.yul\":28165:28575   */\n      swap3\n      swap2\n      pop\n      pop\n      jump\t// out\n\n    auxdata: 0xa26469706673582212207be7da1e117580d5df5d642468d06fde5ef3257e12492d79d8e08ad989c5a03064736f6c63430008140033\n}\n",
				"bytecode": {
					"linkReferences": {},
					"object": "608060405262eff10060085534801562000017575f80fd5b5060405162003c0438038062003c0483398181016040528101906200003d91906200048f565b60015f8190555081518111156200008b576040517f08c379a0000000000000000000000000000000000000000000000000000000008152600401620000829062000565565b60405180910390fd5b5f5b8251811015620002285760035f848381518110620000b057620000af62000585565b5b602002602001015173ffffffffffffffffffffffffffffffffffffffff1673ffffffffffffffffffffffffffffffffffffffff1681526020019081526020015f205f9054906101000a900460ff161562000141576040517f08c379a0000000000000000000000000000000000000000000000000000000008152600401620001389062000600565b60405180910390fd5b600160035f8584815181106200015c576200015b62000585565b5b602002602001015173ffffffffffffffffffffffffffffffffffffffff1673ffffffffffffffffffffffffffffffffffffffff1681526020019081526020015f205f6101000a81548160ff0219169083151502179055504260095f858481518110620001cd57620001cc62000585565b5b602002602001015173ffffffffffffffffffffffffffffffffffffffff1673ffffffffffffffffffffffffffffffffffffffff1681526020019081526020015f208190555080806200021f906200064d565b9150506200008d565b50806002819055508260015f6101000a81548173ffffffffffffffffffffffffffffffffffffffff021916908373ffffffffffffffffffffffffffffffffffffffff16021790555050505062000699565b5f604051905090565b5f80fd5b5f80fd5b5f73ffffffffffffffffffffffffffffffffffffffff82169050919050565b5f620002b5826200028a565b9050919050565b620002c781620002a9565b8114620002d2575f80fd5b50565b5f81519050620002e581620002bc565b92915050565b5f80fd5b5f601f19601f8301169050919050565b7f4e487b71000000000000000000000000000000000000000000000000000000005f52604160045260245ffd5b6200033782620002ef565b810181811067ffffffffffffffff82111715620003595762000358620002ff565b5b80604052505050565b5f6200036d62000279565b90506200037b82826200032c565b919050565b5f67ffffffffffffffff8211156200039d576200039c620002ff565b5b602082029050602081019050919050565b5f80fd5b5f620003c8620003c28462000380565b62000362565b90508083825260208201905060208402830185811115620003ee57620003ed620003ae565b5b835b818110156200041b5780620004068882620002d5565b845260208401935050602081019050620003f0565b5050509392505050565b5f82601f8301126200043c576200043b620002eb565b5b81516200044e848260208601620003b2565b91505092915050565b5f819050919050565b6200046b8162000457565b811462000476575f80fd5b50565b5f81519050620004898162000460565b92915050565b5f805f60608486031215620004a957620004a862000282565b5b5f620004b886828701620002d5565b935050602084015167ffffffffffffffff811115620004dc57620004db62000286565b5b620004ea8682870162000425565b9250506040620004fd8682870162000479565b9150509250925092565b5f82825260208201905092915050565b7f5468726573686f6c6420697320746f6f206869676800000000000000000000005f82015250565b5f6200054d60158362000507565b91506200055a8262000517565b602082019050919050565b5f6020820190508181035f8301526200057e816200053f565b9050919050565b7f4e487b71000000000000000000000000000000000000000000000000000000005f52603260045260245ffd5b7f4475706c696361746520477561726469616e20466f756e6400000000000000005f82015250565b5f620005e860188362000507565b9150620005f582620005b2565b602082019050919050565b5f6020820190508181035f8301526200061981620005da565b9050919050565b7f4e487b71000000000000000000000000000000000000000000000000000000005f52601160045260245ffd5b5f620006598262000457565b91507fffffffffffffffffffffffffffffffffffffffffffffffffffffffffffffffff82036200068e576200068d62000620565b5b600182019050919050565b61355d80620006a75f395ff3fe608060405234801561000f575f80fd5b5060043610610171575f3560e01c80638da5cb5b116100dc578063ace7c99311610095578063d5ce9aad1161006f578063d5ce9aad146103ff578063ec71511d1461041b578063f05151df14610437578063fad2286b1461045557610171565b8063ace7c99314610395578063cfbba190146103b3578063d3582164146103e357610171565b80638da5cb5b146102e7578063912365ea14610305578063a526d83b14610335578063a643e81214610351578063a7b65d101461036f578063a9059cbb1461037957610171565b80634a062ba91161012e5780634a062ba91461024f57806357e685bc146102595780635db0db7c146102755780635fc489a7146102915780635fc7f48b146102ad57806389302f0e146102c957610171565b80630ba234d6146101755780630c68ba211461017f57806312065fe0146101af5780631e969523146101cd578063371bbdc1146101ff57806342cde4e814610231575b5f80fd5b61017d610471565b005b61019960048036038101906101949190612755565b6105a3565b6040516101a6919061279a565b60405180910390f35b6101b76105c0565b6040516101c491906127cb565b60405180910390f35b6101e760048036038101906101e29190612755565b6105c7565b6040516101f6939291906127f3565b60405180910390f35b61021960048036038101906102149190612755565b610638565b60405161022893929190612828565b60405180910390f35b610239610689565b60405161024691906127cb565b60405180910390f35b61025761068f565b005b610273600480360381019061026e9190612755565b61083e565b005b61028f600480360381019061028a9190612755565b610add565b005b6102ab60048036038101906102a691906128be565b610eda565b005b6102c760048036038101906102c2919061291b565b6113d4565b005b6102d1611664565b6040516102de91906127cb565b60405180910390f35b6102ef61166a565b6040516102fc9190612966565b60405180910390f35b61031f600480360381019061031a9190612ae1565b61168f565b60405161032c9190612bc7565b60405180910390f35b61034f600480360381019061034a9190612755565b611838565b005b610359611a4e565b604051610366919061279a565b60405180910390f35b610377611a61565b005b610393600480360381019061038e9190612c22565b611be1565b005b61039d611d06565b6040516103aa91906127cb565b60405180910390f35b6103cd60048036038101906103c89190612755565b611d0c565b6040516103da91906127cb565b60405180910390f35b6103fd60048036038101906103f89190612c60565b611d21565b005b61041960048036038101906104149190612755565b61202b565b005b61043560048036038101906104309190612c9e565b6122fc565b005b61043f6124be565b60405161044c919061279a565b60405180910390f35b61046f600480360381019061046a9190612c9e565b6124d0565b005b60015f9054906101000a900473ffffffffffffffffffffffffffffffffffffffff1673ffffffffffffffffffffffffffffffffffffffff163373ffffffffffffffffffffffffffffffffffffffff1614610500576040517f08c379a00000000000000000000000000000000000000000000000000000000081526004016104f790612d23565b60405180910390fd5b60045f9054906101000a900460ff1661054e576040517f08c379a000000000000000000000000000000000000000000000000000000000815260040161054590612d8b565b60405180910390fd5b5f60045f6101000a81548160ff0219169083151502179055506005547f500ec1d4b692d3c788bfd78a898de379cfd93ab8177575efc7593f87bd051a07336040516105999190612966565b60405180910390a2565b6003602052805f5260405f205f915054906101000a900460ff1681565b5f47905090565b6007602052805f5260405f205f91509050805f015f9054906101000a900473ffffffffffffffffffffffffffffffffffffffff1690806001015f9054906101000a900473ffffffffffffffffffffffffffffffffffffffff16908060010160149054906101000a900460ff16905083565b6006602052805f5260405f205f91509050805f015f9054906101000a900473ffffffffffffffffffffffffffffffffffffffff1690806001015490806002015f9054906101000a900460ff16905083565b60025481565b60035f3373ffffffffffffffffffffffffffffffffffffffff1673ffffffffffffffffffffffffffffffffffffffff1681526020019081526020015f205f9054906101000a900460ff16610718576040517f08c379a000000000000000000000000000000000000000000000000000000000815260040161070f90612e19565b60405180910390fd5b600460019054906101000a900460ff1615610768576040517f08c379a000000000000000000000000000000000000000000000000000000000815260040161075f90612ea7565b60405180910390fd5b60045f9054906101000a900460ff16156107b7576040517f08c379a00000000000000000000000000000000000000000000000000000000081526004016107ae90612f0f565b60405180910390fd5b4260095f3373ffffffffffffffffffffffffffffffffffffffff1673ffffffffffffffffffffffffffffffffffffffff1681526020019081526020015f20819055503373ffffffffffffffffffffffffffffffffffffffff167fc0f8e327cbaf33736bc91ff2966a92a84350e4433a9ba309da8f43e6f4a0852c60405160405180910390a2565b60035f3373ffffffffffffffffffffffffffffffffffffffff1673ffffffffffffffffffffffffffffffffffffffff1681526020019081526020015f205f9054906101000a900460ff166108c7576040517f08c379a00000000000000000000000000000000000000000000000000000000081526004016108be90612e19565b60405180910390fd5b60045f9054906101000a900460ff16610915576040517f08c379a000000000000000000000000000000000000000000000000000000000815260040161090c90612d8b565b60405180910390fd5b600460019054906101000a900460ff1615610965576040517f08c379a000000000000000000000000000000000000000000000000000000000815260040161095c90612ea7565b60405180910390fd5b60405180606001604052808273ffffffffffffffffffffffffffffffffffffffff16815260200160055481526020015f151581525060065f3373ffffffffffffffffffffffffffffffffffffffff1673ffffffffffffffffffffffffffffffffffffffff1681526020019081526020015f205f820151815f015f6101000a81548173ffffffffffffffffffffffffffffffffffffffff021916908373ffffffffffffffffffffffffffffffffffffffff160217905550602082015181600101556040820151816002015f6101000a81548160ff0219169083151502179055509050504260095f3373ffffffffffffffffffffffffffffffffffffffff1673ffffffffffffffffffffffffffffffffffffffff1681526020019081526020015f20819055506005543373ffffffffffffffffffffffffffffffffffffffff167f7a0b940199ff58e943823fe8c0e916df112be357049d8105a7e83cf9a4000e4a83604051610ad29190612966565b60405180910390a350565b60015f9054906101000a900473ffffffffffffffffffffffffffffffffffffffff1673ffffffffffffffffffffffffffffffffffffffff163373ffffffffffffffffffffffffffffffffffffffff1614610b6c576040517f08c379a0000000000000000000000000000000000000000000000000000000008152600401610b6390612d23565b60405180910390fd5b600460019054906101000a900460ff16610bbb576040517f08c379a0000000000000000000000000000000000000000000000000000000008152600401610bb290612f9d565b60405180910390fd5b60045f9054906101000a900460ff1615610c0a576040517f08c379a0000000000000000000000000000000000000000000000000000000008152600401610c0190612f0f565b60405180910390fd5b5f60075f8373ffffffffffffffffffffffffffffffffffffffff1673ffffffffffffffffffffffffffffffffffffffff1681526020019081526020015f206040518060600160405290815f82015f9054906101000a900473ffffffffffffffffffffffffffffffffffffffff1673ffffffffffffffffffffffffffffffffffffffff1673ffffffffffffffffffffffffffffffffffffffff168152602001600182015f9054906101000a900473ffffffffffffffffffffffffffffffffffffffff1673ffffffffffffffffffffffffffffffffffffffff1673ffffffffffffffffffffffffffffffffffffffff1681526020016001820160149054906101000a900460ff1615151515815250509050806040015115610d5e576040517f08c379a0000000000000000000000000000000000000000000000000000000008152600401610d5590613005565b60405180910390fd5b600160035f835f015173ffffffffffffffffffffffffffffffffffffffff1673ffffffffffffffffffffffffffffffffffffffff1681526020019081526020015f205f6101000a81548160ff0219169083151502179055505f60035f836020015173ffffffffffffffffffffffffffffffffffffffff1673ffffffffffffffffffffffffffffffffffffffff1681526020019081526020015f205f6101000a81548160ff021916908315150217905550600160075f8473ffffffffffffffffffffffffffffffffffffffff1673ffffffffffffffffffffffffffffffffffffffff1681526020019081526020015f2060010160146101000a81548160ff0219169083151502179055505f600460016101000a81548160ff021916908315150217905550805f015173ffffffffffffffffffffffffffffffffffffffff167f0ebe47b4a5aef1696896716abe65c590c720b0cd9572a7e2dcb0a9bfe2b2ca7f8260200151604051610ece9190612966565b60405180910390a25050565b60035f3373ffffffffffffffffffffffffffffffffffffffff1673ffffffffffffffffffffffffffffffffffffffff1681526020019081526020015f205f9054906101000a900460ff16610f63576040517f08c379a0000000000000000000000000000000000000000000000000000000008152600401610f5a90612e19565b60405180910390fd5b60045f9054906101000a900460ff16610fb1576040517f08c379a0000000000000000000000000000000000000000000000000000000008152600401610fa890612d8b565b60405180910390fd5b600460019054906101000a900460ff1615611001576040517f08c379a0000000000000000000000000000000000000000000000000000000008152600401610ff890612ea7565b60405180910390fd5b600254828290501015611049576040517f08c379a000000000000000000000000000000000000000000000000000000000815260040161104090613093565b60405180910390fd5b5f5b828290508110156112d1575f60065f85858581811061106d5761106c6130b1565b5b90506020020160208101906110829190612755565b73ffffffffffffffffffffffffffffffffffffffff1673ffffffffffffffffffffffffffffffffffffffff1681526020019081526020015f206040518060600160405290815f82015f9054906101000a900473ffffffffffffffffffffffffffffffffffffffff1673ffffffffffffffffffffffffffffffffffffffff1673ffffffffffffffffffffffffffffffffffffffff16815260200160018201548152602001600282015f9054906101000a900460ff1615151515815250509050600554816020015114611188576040517f08c379a000000000000000000000000000000000000000000000000000000000815260040161117f90613128565b60405180910390fd5b8473ffffffffffffffffffffffffffffffffffffffff16815f015173ffffffffffffffffffffffffffffffffffffffff16146111f9576040517f08c379a00000000000000000000000000000000000000000000000000000000081526004016111f090613190565b60405180910390fd5b80604001511561123e576040517f08c379a00000000000000000000000000000000000000000000000000000000081526004016112359061321e565b60405180910390fd5b600160065f868686818110611256576112556130b1565b5b905060200201602081019061126b9190612755565b73ffffffffffffffffffffffffffffffffffffffff1673ffffffffffffffffffffffffffffffffffffffff1681526020019081526020015f206002015f6101000a81548160ff0219169083151502179055505080806112c990613269565b91505061104b565b505f60045f6101000a81548160ff0219169083151502179055505f60015f9054906101000a900473ffffffffffffffffffffffffffffffffffffffff1690508360015f6101000a81548173ffffffffffffffffffffffffffffffffffffffff021916908373ffffffffffffffffffffffffffffffffffffffff1602179055504260095f3373ffffffffffffffffffffffffffffffffffffffff1673ffffffffffffffffffffffffffffffffffffffff1681526020019081526020015f20819055506005547fcbaa7c7c351e2d5655fc08d9c383adcf4736af160c800b53df1f1dd221f826c882866040516113c69291906132b0565b60405180910390a250505050565b60015f9054906101000a900473ffffffffffffffffffffffffffffffffffffffff1673ffffffffffffffffffffffffffffffffffffffff163373ffffffffffffffffffffffffffffffffffffffff1614611463576040517f08c379a000000000000000000000000000000000000000000000000000000000815260040161145a90612d23565b60405180910390fd5b600460019054906101000a900460ff16156114b3576040517f08c379a00000000000000000000000000000000000000000000000000000000081526004016114aa90612ea7565b60405180910390fd5b60045f9054906101000a900460ff1615611502576040517f08c379a00000000000000000000000000000000000000000000000000000000081526004016114f990612f0f565b60405180910390fd5b5f5b8282905081101561161c575f60095f858585818110611526576115256130b1565b5b905060200201602081019061153b9190612755565b73ffffffffffffffffffffffffffffffffffffffff1673ffffffffffffffffffffffffffffffffffffffff1681526020019081526020015f20549050426008548261158691906132d7565b1015611608575f60035f8686868181106115a3576115a26130b1565b5b90506020020160208101906115b89190612755565b73ffffffffffffffffffffffffffffffffffffffff1673ffffffffffffffffffffffffffffffffffffffff1681526020019081526020015f205f6101000a81548160ff0219169083151502179055505b50808061161490613269565b915050611504565b503373ffffffffffffffffffffffffffffffffffffffff167f4c3633ad0e1a50f8c16e1ad83c223c9e97efa102e90b03c3a0b10a7726f5865660405160405180910390a25050565b60085481565b60015f9054906101000a900473ffffffffffffffffffffffffffffffffffffffff1681565b606060015f9054906101000a900473ffffffffffffffffffffffffffffffffffffffff1673ffffffffffffffffffffffffffffffffffffffff163373ffffffffffffffffffffffffffffffffffffffff1614611720576040517f08c379a000000000000000000000000000000000000000000000000000000000815260040161171790612d23565b60405180910390fd5b61172861269d565b5f808573ffffffffffffffffffffffffffffffffffffffff1685856040516117509190613344565b5f6040518083038185875af1925050503d805f811461178a576040519150601f19603f3d011682016040523d82523d5f602084013e61178f565b606091505b5091509150816117d4576040517f08c379a00000000000000000000000000000000000000000000000000000000081526004016117cb906133a4565b60405180910390fd5b8573ffffffffffffffffffffffffffffffffffffffff167f47d99ad340f52da66535aff7e10da1ceb85a32bcbd9fa1c42314d194545e14d2868660405161181c9291906133c2565b60405180910390a280925050506118316126e1565b9392505050565b60015f9054906101000a900473ffffffffffffffffffffffffffffffffffffffff1673ffffffffffffffffffffffffffffffffffffffff163373ffffffffffffffffffffffffffffffffffffffff16146118c7576040517f08c379a00000000000000000000000000000000000000000000000000000000081526004016118be90612d23565b60405180910390fd5b600460019054906101000a900460ff1615611917576040517f08c379a000000000000000000000000000000000000000000000000000000000815260040161190e90612ea7565b60405180910390fd5b60045f9054906101000a900460ff1615611966576040517f08c379a000000000000000000000000000000000000000000000000000000000815260040161195d90612f0f565b60405180910390fd5b600160035f8373ffffffffffffffffffffffffffffffffffffffff1673ffffffffffffffffffffffffffffffffffffffff1681526020019081526020015f205f6101000a81548160ff0219169083151502179055504260095f8373ffffffffffffffffffffffffffffffffffffffff1673ffffffffffffffffffffffffffffffffffffffff1681526020019081526020015f20819055503373ffffffffffffffffffffffffffffffffffffffff167fbc3292102fa77e083913064b282926717cdfaede4d35f553d66366c0a3da755a82604051611a439190612966565b60405180910390a250565b600460019054906101000a900460ff1681565b60015f9054906101000a900473ffffffffffffffffffffffffffffffffffffffff1673ffffffffffffffffffffffffffffffffffffffff163373ffffffffffffffffffffffffffffffffffffffff1614611af0576040517f08c379a0000000000000000000000000000000000000000000000000000000008152600401611ae790612d23565b60405180910390fd5b600460019054906101000a900460ff16611b3f576040517f08c379a0000000000000000000000000000000000000000000000000000000008152600401611b3690612f9d565b60405180910390fd5b60045f9054906101000a900460ff1615611b8e576040517f08c379a0000000000000000000000000000000000000000000000000000000008152600401611b8590612f0f565b60405180910390fd5b5f600460016101000a81548160ff0219169083151502179055507fd57d294d41d7cb0f642228c3aa8884365982694afcfa206c635fd368dfa4479c33604051611bd79190612966565b60405180910390a1565b60015f9054906101000a900473ffffffffffffffffffffffffffffffffffffffff1673ffffffffffffffffffffffffffffffffffffffff163373ffffffffffffffffffffffffffffffffffffffff1614611c70576040517f08c379a0000000000000000000000000000000000000000000000000000000008152600401611c6790612d23565b60405180910390fd5b8173ffffffffffffffffffffffffffffffffffffffff166108fc8290811502906040515f60405180830381858888f19350505050158015611cb3573d5f803e3d5ffd5b508173ffffffffffffffffffffffffffffffffffffffff167fe6d858f14d755446648a6e0c8ab8b5a0f58ccc7920d4c910b0454e4dcd869af082604051611cfa91906127cb565b60405180910390a25050565b60055481565b6009602052805f5260405f205f915090505481565b60035f3373ffffffffffffffffffffffffffffffffffffffff1673ffffffffffffffffffffffffffffffffffffffff1681526020019081526020015f205f9054906101000a900460ff16611daa576040517f08c379a0000000000000000000000000000000000000000000000000000000008152600401611da190612e19565b60405180910390fd5b600460019054906101000a900460ff1615611dfa576040517f08c379a0000000000000000000000000000000000000000000000000000000008152600401611df190612ea7565b60405180910390fd5b60045f9054906101000a900460ff1615611e49576040517f08c379a0000000000000000000000000000000000000000000000000000000008152600401611e4090612f0f565b60405180910390fd5b60405180606001604052808273ffffffffffffffffffffffffffffffffffffffff1681526020018373ffffffffffffffffffffffffffffffffffffffff1681526020015f151581525060075f3373ffffffffffffffffffffffffffffffffffffffff1673ffffffffffffffffffffffffffffffffffffffff1681526020019081526020015f205f820151815f015f6101000a81548173ffffffffffffffffffffffffffffffffffffffff021916908373ffffffffffffffffffffffffffffffffffffffff1602179055506020820151816001015f6101000a81548173ffffffffffffffffffffffffffffffffffffffff021916908373ffffffffffffffffffffffffffffffffffffffff16021790555060408201518160010160146101000a81548160ff0219169083151502179055509050506001600460016101000a81548160ff0219169083151502179055504260095f3373ffffffffffffffffffffffffffffffffffffffff1673ffffffffffffffffffffffffffffffffffffffff1681526020019081526020015f20819055508073ffffffffffffffffffffffffffffffffffffffff167fd940885aa266e9a19341bba634f831bde68d4d3009e14f239e32bed8dd9e4b548360405161201f9190612966565b60405180910390a25050565b60035f3373ffffffffffffffffffffffffffffffffffffffff1673ffffffffffffffffffffffffffffffffffffffff1681526020019081526020015f205f9054906101000a900460ff166120b4576040517f08c379a00000000000000000000000000000000000000000000000000000000081526004016120ab90612e19565b60405180910390fd5b60045f9054906101000a900460ff1615612103576040517f08c379a00000000000000000000000000000000000000000000000000000000081526004016120fa90612f0f565b60405180910390fd5b600460019054906101000a900460ff1615612153576040517f08c379a000000000000000000000000000000000000000000000000000000000815260040161214a90612ea7565b60405180910390fd5b60055f81548092919061216590613269565b919050555060405180606001604052808273ffffffffffffffffffffffffffffffffffffffff16815260200160055481526020015f151581525060065f3373ffffffffffffffffffffffffffffffffffffffff1673ffffffffffffffffffffffffffffffffffffffff1681526020019081526020015f205f820151815f015f6101000a81548173ffffffffffffffffffffffffffffffffffffffff021916908373ffffffffffffffffffffffffffffffffffffffff160217905550602082015181600101556040820151816002015f6101000a81548160ff021916908315150217905550905050600160045f6101000a81548160ff0219169083151502179055504260095f3373ffffffffffffffffffffffffffffffffffffffff1673ffffffffffffffffffffffffffffffffffffffff1681526020019081526020015f20819055506005543373ffffffffffffffffffffffffffffffffffffffff167fe290ea2cc3cfeb5114f992dc8be9e503de30042c13b9298644a2679b09e17a04836040516122f19190612966565b60405180910390a350565b60015f9054906101000a900473ffffffffffffffffffffffffffffffffffffffff1673ffffffffffffffffffffffffffffffffffffffff163373ffffffffffffffffffffffffffffffffffffffff161461238b576040517f08c379a000000000000000000000000000000000000000000000000000000000815260040161238290612d23565b60405180910390fd5b600460019054906101000a900460ff16156123db576040517f08c379a00000000000000000000000000000000000000000000000000000000081526004016123d290612ea7565b60405180910390fd5b60045f9054906101000a900460ff161561242a576040517f08c379a000000000000000000000000000000000000000000000000000000000815260040161242190612f0f565b60405180910390fd5b60016002541015612470576040517f08c379a00000000000000000000000000000000000000000000000000000000081526004016124679061343a565b60405180910390fd5b80600281905550803373ffffffffffffffffffffffffffffffffffffffff167fbb0549e0aedb1fcc6a27d802df340bb4bd5dc53b1f97f3736a879345232e6def60405160405180910390a350565b60045f9054906101000a900460ff1681565b60015f9054906101000a900473ffffffffffffffffffffffffffffffffffffffff1673ffffffffffffffffffffffffffffffffffffffff163373ffffffffffffffffffffffffffffffffffffffff161461255f576040517f08c379a000000000000000000000000000000000000000000000000000000000815260040161255690612d23565b60405180910390fd5b600460019054906101000a900460ff16156125af576040517f08c379a00000000000000000000000000000000000000000000000000000000081526004016125a690612ea7565b60405180910390fd5b60045f9054906101000a900460ff16156125fe576040517f08c379a00000000000000000000000000000000000000000000000000000000081526004016125f590612f0f565b60405180910390fd5b6007811015612642576040517f08c379a0000000000000000000000000000000000000000000000000000000008152600401612639906134c8565b60405180910390fd5b620151808161265191906134e6565b6008819055503373ffffffffffffffffffffffffffffffffffffffff167f53568dbe9b6f3ab514ab5e002f95d314943e692740912338ce95f2b2458fe4a660405160405180910390a250565b60025f54036126d8576040517f3ee5aeb500000000000000000000000000000000000000000000000000000000815260040160405180910390fd5b60025f81905550565b60015f81905550565b5f604051905090565b5f80fd5b5f80fd5b5f73ffffffffffffffffffffffffffffffffffffffff82169050919050565b5f612724826126fb565b9050919050565b6127348161271a565b811461273e575f80fd5b50565b5f8135905061274f8161272b565b92915050565b5f6020828403121561276a576127696126f3565b5b5f61277784828501612741565b91505092915050565b5f8115159050919050565b61279481612780565b82525050565b5f6020820190506127ad5f83018461278b565b92915050565b5f819050919050565b6127c5816127b3565b82525050565b5f6020820190506127de5f8301846127bc565b92915050565b6127ed8161271a565b82525050565b5f6060820190506128065f8301866127e4565b61281360208301856127e4565b612820604083018461278b565b949350505050565b5f60608201905061283b5f8301866127e4565b61284860208301856127bc565b612855604083018461278b565b949350505050565b5f80fd5b5f80fd5b5f80fd5b5f8083601f84011261287e5761287d61285d565b5b8235905067ffffffffffffffff81111561289b5761289a612861565b5b6020830191508360208202830111156128b7576128b6612865565b5b9250929050565b5f805f604084860312156128d5576128d46126f3565b5b5f6128e286828701612741565b935050602084013567ffffffffffffffff811115612903576129026126f7565b5b61290f86828701612869565b92509250509250925092565b5f8060208385031215612931576129306126f3565b5b5f83013567ffffffffffffffff81111561294e5761294d6126f7565b5b61295a85828601612869565b92509250509250929050565b5f6020820190506129795f8301846127e4565b92915050565b612988816127b3565b8114612992575f80fd5b50565b5f813590506129a38161297f565b92915050565b5f80fd5b5f601f19601f8301169050919050565b7f4e487b71000000000000000000000000000000000000000000000000000000005f52604160045260245ffd5b6129f3826129ad565b810181811067ffffffffffffffff82111715612a1257612a116129bd565b5b80604052505050565b5f612a246126ea565b9050612a3082826129ea565b919050565b5f67ffffffffffffffff821115612a4f57612a4e6129bd565b5b612a58826129ad565b9050602081019050919050565b828183375f83830152505050565b5f612a85612a8084612a35565b612a1b565b905082815260208101848484011115612aa157612aa06129a9565b5b612aac848285612a65565b509392505050565b5f82601f830112612ac857612ac761285d565b5b8135612ad8848260208601612a73565b91505092915050565b5f805f60608486031215612af857612af76126f3565b5b5f612b0586828701612741565b9350506020612b1686828701612995565b925050604084013567ffffffffffffffff811115612b3757612b366126f7565b5b612b4386828701612ab4565b9150509250925092565b5f81519050919050565b5f82825260208201905092915050565b5f5b83811015612b84578082015181840152602081019050612b69565b5f8484015250505050565b5f612b9982612b4d565b612ba38185612b57565b9350612bb3818560208601612b67565b612bbc816129ad565b840191505092915050565b5f6020820190508181035f830152612bdf8184612b8f565b905092915050565b5f612bf1826126fb565b9050919050565b612c0181612be7565b8114612c0b575f80fd5b50565b5f81359050612c1c81612bf8565b92915050565b5f8060408385031215612c3857612c376126f3565b5b5f612c4585828601612c0e565b9250506020612c5685828601612995565b9150509250929050565b5f8060408385031215612c7657612c756126f3565b5b5f612c8385828601612741565b9250506020612c9485828601612741565b9150509250929050565b5f60208284031215612cb357612cb26126f3565b5b5f612cc084828501612995565b91505092915050565b5f82825260208201905092915050565b7f4e6f7420417574686f72697a65640000000000000000000000000000000000005f82015250565b5f612d0d600e83612cc9565b9150612d1882612cd9565b602082019050919050565b5f6020820190508181035f830152612d3a81612d01565b9050919050565b7f57616c6c6574206973206e6f7420696e205265636f76657279206d6f646500005f82015250565b5f612d75601e83612cc9565b9150612d8082612d41565b602082019050919050565b5f6020820190508181035f830152612da281612d69565b9050919050565b7f4f6e6c7920477561726469616e206861732061636365737320746f20746869735f8201527f2072657175657374000000000000000000000000000000000000000000000000602082015250565b5f612e03602883612cc9565b9150612e0e82612da9565b604082019050919050565b5f6020820190508181035f830152612e3081612df7565b9050919050565b7f4578697374696e6720477561726469616e204368616e676520526571756573745f8201527f20666f756e640000000000000000000000000000000000000000000000000000602082015250565b5f612e91602683612cc9565b9150612e9c82612e37565b604082019050919050565b5f6020820190508181035f830152612ebe81612e85565b9050919050565b7f57616c6c657420697320696e205265636f76657279206d6f64650000000000005f82015250565b5f612ef9601a83612cc9565b9150612f0482612ec5565b602082019050919050565b5f6020820190508181035f830152612f2681612eed565b9050919050565b7f4e6f2043757272656e7420477561726469616e205265717565737420666f756e5f8201527f6400000000000000000000000000000000000000000000000000000000000000602082015250565b5f612f87602183612cc9565b9150612f9282612f2d565b604082019050919050565b5f6020820190508181035f830152612fb481612f7b565b9050919050565b7f477561726469616e205265717565737420697320616c726561647920557365645f82015250565b5f612fef602083612cc9565b9150612ffa82612fbb565b602082019050919050565b5f6020820190508181035f83015261301c81612fe3565b9050919050565b7f6d6f726520677561726469616e7320726571756972656420746f207472616e735f8201527f666572206f776e65727368697000000000000000000000000000000000000000602082015250565b5f61307d602d83612cc9565b915061308882613023565b604082019050919050565b5f6020820190508181035f8301526130aa81613071565b9050919050565b7f4e487b71000000000000000000000000000000000000000000000000000000005f52603260045260245ffd5b7f726f756e64206d69736d617463680000000000000000000000000000000000005f82015250565b5f613112600e83612cc9565b915061311d826130de565b602082019050919050565b5f6020820190508181035f83015261313f81613106565b9050919050565b7f64697361677265656d656e74206f6e206e6577206f776e6572000000000000005f82015250565b5f61317a601983612cc9565b915061318582613146565b602082019050919050565b5f6020820190508181035f8301526131a78161316e565b9050919050565b7f6475706c696361746520677561726469616e207573656420696e207265636f765f8201527f6572790000000000000000000000000000000000000000000000000000000000602082015250565b5f613208602383612cc9565b9150613213826131ae565b604082019050919050565b5f6020820190508181035f830152613235816131fc565b9050919050565b7f4e487b71000000000000000000000000000000000000000000000000000000005f52601160045260245ffd5b5f613273826127b3565b91507fffffffffffffffffffffffffffffffffffffffffffffffffffffffffffffffff82036132a5576132a461323c565b5b600182019050919050565b5f6040820190506132c35f8301856127e4565b6132d060208301846127e4565b9392505050565b5f6132e1826127b3565b91506132ec836127b3565b92508282019050808211156133045761330361323c565b5b92915050565b5f81905092915050565b5f61331e82612b4d565b613328818561330a565b9350613338818560208601612b67565b80840191505092915050565b5f61334f8284613314565b915081905092915050565b7f436f6e74726163742043616c6c205265766572746564000000000000000000005f82015250565b5f61338e601683612cc9565b91506133998261335a565b602082019050919050565b5f6020820190508181035f8301526133bb81613382565b9050919050565b5f6040820190506133d55f8301856127bc565b81810360208301526133e78184612b8f565b90509392505050565b7f5468726573686f6c64206d7573742062652067726561746572207468616e20315f82015250565b5f613424602083612cc9565b915061342f826133f0565b602082019050919050565b5f6020820190508181035f83015261345181613418565b9050919050565b7f4d696e696d756d206461797320746f206578656375746520636865636b2069735f8201527f2037000000000000000000000000000000000000000000000000000000000000602082015250565b5f6134b2602283612cc9565b91506134bd82613458565b604082019050919050565b5f6020820190508181035f8301526134df816134a6565b9050919050565b5f6134f0826127b3565b91506134fb836127b3565b9250828202613509816127b3565b915082820484148315176135205761351f61323c565b5b509291505056fea26469706673582212207be7da1e117580d5df5d642468d06fde5ef3257e12492d79d8e08ad989c5a03064736f6c63430008140033",
					"opcodes": "PUSH1 0x80 PUSH1 0x40 MSTORE PUSH3 0xEFF100 PUSH1 0x8 SSTORE CALLVALUE DUP1 ISZERO PUSH3 0x17 JUMPI PUSH0 DUP1 REVERT JUMPDEST POP PUSH1 0x40 MLOAD PUSH3 0x3C04 CODESIZE SUB DUP1 PUSH3 0x3C04 DUP4 CODECOPY DUP2 DUP2 ADD PUSH1 0x40 MSTORE DUP2 ADD SWAP1 PUSH3 0x3D SWAP2 SWAP1 PUSH3 0x48F JUMP JUMPDEST PUSH1 0x1 PUSH0 DUP2 SWAP1 SSTORE POP DUP2 MLOAD DUP2 GT ISZERO PUSH3 0x8B JUMPI PUSH1 0x40 MLOAD PUSH32 0x8C379A000000000000000000000000000000000000000000000000000000000 DUP2 MSTORE PUSH1 0x4 ADD PUSH3 0x82 SWAP1 PUSH3 0x565 JUMP JUMPDEST PUSH1 0x40 MLOAD DUP1 SWAP2 SUB SWAP1 REVERT JUMPDEST PUSH0 JUMPDEST DUP3 MLOAD DUP2 LT ISZERO PUSH3 0x228 JUMPI PUSH1 0x3 PUSH0 DUP5 DUP4 DUP2 MLOAD DUP2 LT PUSH3 0xB0 JUMPI PUSH3 0xAF PUSH3 0x585 JUMP JUMPDEST JUMPDEST PUSH1 0x20 MUL PUSH1 0x20 ADD ADD MLOAD PUSH20 0xFFFFFFFFFFFFFFFFFFFFFFFFFFFFFFFFFFFFFFFF AND PUSH20 0xFFFFFFFFFFFFFFFFFFFFFFFFFFFFFFFFFFFFFFFF AND DUP2 MSTORE PUSH1 0x20 ADD SWAP1 DUP2 MSTORE PUSH1 0x20 ADD PUSH0 KECCAK256 PUSH0 SWAP1 SLOAD SWAP1 PUSH2 0x100 EXP SWAP1 DIV PUSH1 0xFF AND ISZERO PUSH3 0x141 JUMPI PUSH1 0x40 MLOAD PUSH32 0x8C379A000000000000000000000000000000000000000000000000000000000 DUP2 MSTORE PUSH1 0x4 ADD PUSH3 0x138 SWAP1 PUSH3 0x600 JUMP JUMPDEST PUSH1 0x40 MLOAD DUP1 SWAP2 SUB SWAP1 REVERT JUMPDEST PUSH1 0x1 PUSH1 0x3 PUSH0 DUP6 DUP5 DUP2 MLOAD DUP2 LT PUSH3 0x15C JUMPI PUSH3 0x15B PUSH3 0x585 JUMP JUMPDEST JUMPDEST PUSH1 0x20 MUL PUSH1 0x20 ADD ADD MLOAD PUSH20 0xFFFFFFFFFFFFFFFFFFFFFFFFFFFFFFFFFFFFFFFF AND PUSH20 0xFFFFFFFFFFFFFFFFFFFFFFFFFFFFFFFFFFFFFFFF AND DUP2 MSTORE PUSH1 0x20 ADD SWAP1 DUP2 MSTORE PUSH1 0x20 ADD PUSH0 KECCAK256 PUSH0 PUSH2 0x100 EXP DUP2 SLOAD DUP2 PUSH1 0xFF MUL NOT AND SWAP1 DUP4 ISZERO ISZERO MUL OR SWAP1 SSTORE POP TIMESTAMP PUSH1 0x9 PUSH0 DUP6 DUP5 DUP2 MLOAD DUP2 LT PUSH3 0x1CD JUMPI PUSH3 0x1CC PUSH3 0x585 JUMP JUMPDEST JUMPDEST PUSH1 0x20 MUL PUSH1 0x20 ADD ADD MLOAD PUSH20 0xFFFFFFFFFFFFFFFFFFFFFFFFFFFFFFFFFFFFFFFF AND PUSH20 0xFFFFFFFFFFFFFFFFFFFFFFFFFFFFFFFFFFFFFFFF AND DUP2 MSTORE PUSH1 0x20 ADD SWAP1 DUP2 MSTORE PUSH1 0x20 ADD PUSH0 KECCAK256 DUP2 SWAP1 SSTORE POP DUP1 DUP1 PUSH3 0x21F SWAP1 PUSH3 0x64D JUMP JUMPDEST SWAP2 POP POP PUSH3 0x8D JUMP JUMPDEST POP DUP1 PUSH1 0x2 DUP2 SWAP1 SSTORE POP DUP3 PUSH1 0x1 PUSH0 PUSH2 0x100 EXP DUP2 SLOAD DUP2 PUSH20 0xFFFFFFFFFFFFFFFFFFFFFFFFFFFFFFFFFFFFFFFF MUL NOT AND SWAP1 DUP4 PUSH20 0xFFFFFFFFFFFFFFFFFFFFFFFFFFFFFFFFFFFFFFFF AND MUL OR SWAP1 SSTORE POP POP POP POP PUSH3 0x699 JUMP JUMPDEST PUSH0 PUSH1 0x40 MLOAD SWAP1 POP SWAP1 JUMP JUMPDEST PUSH0 DUP1 REVERT JUMPDEST PUSH0 DUP1 REVERT JUMPDEST PUSH0 PUSH20 0xFFFFFFFFFFFFFFFFFFFFFFFFFFFFFFFFFFFFFFFF DUP3 AND SWAP1 POP SWAP2 SWAP1 POP JUMP JUMPDEST PUSH0 PUSH3 0x2B5 DUP3 PUSH3 0x28A JUMP JUMPDEST SWAP1 POP SWAP2 SWAP1 POP JUMP JUMPDEST PUSH3 0x2C7 DUP2 PUSH3 0x2A9 JUMP JUMPDEST DUP2 EQ PUSH3 0x2D2 JUMPI PUSH0 DUP1 REVERT JUMPDEST POP JUMP JUMPDEST PUSH0 DUP2 MLOAD SWAP1 POP PUSH3 0x2E5 DUP2 PUSH3 0x2BC JUMP JUMPDEST SWAP3 SWAP2 POP POP JUMP JUMPDEST PUSH0 DUP1 REVERT JUMPDEST PUSH0 PUSH1 0x1F NOT PUSH1 0x1F DUP4 ADD AND SWAP1 POP SWAP2 SWAP1 POP JUMP JUMPDEST PUSH32 0x4E487B7100000000000000000000000000000000000000000000000000000000 PUSH0 MSTORE PUSH1 0x41 PUSH1 0x4 MSTORE PUSH1 0x24 PUSH0 REVERT JUMPDEST PUSH3 0x337 DUP3 PUSH3 0x2EF JUMP JUMPDEST DUP2 ADD DUP2 DUP2 LT PUSH8 0xFFFFFFFFFFFFFFFF DUP3 GT OR ISZERO PUSH3 0x359 JUMPI PUSH3 0x358 PUSH3 0x2FF JUMP JUMPDEST JUMPDEST DUP1 PUSH1 0x40 MSTORE POP POP POP JUMP JUMPDEST PUSH0 PUSH3 0x36D PUSH3 0x279 JUMP JUMPDEST SWAP1 POP PUSH3 0x37B DUP3 DUP3 PUSH3 0x32C JUMP JUMPDEST SWAP2 SWAP1 POP JUMP JUMPDEST PUSH0 PUSH8 0xFFFFFFFFFFFFFFFF DUP3 GT ISZERO PUSH3 0x39D JUMPI PUSH3 0x39C PUSH3 0x2FF JUMP JUMPDEST JUMPDEST PUSH1 0x20 DUP3 MUL SWAP1 POP PUSH1 0x20 DUP2 ADD SWAP1 POP SWAP2 SWAP1 POP JUMP JUMPDEST PUSH0 DUP1 REVERT JUMPDEST PUSH0 PUSH3 0x3C8 PUSH3 0x3C2 DUP5 PUSH3 0x380 JUMP JUMPDEST PUSH3 0x362 JUMP JUMPDEST SWAP1 POP DUP1 DUP4 DUP3 MSTORE PUSH1 0x20 DUP3 ADD SWAP1 POP PUSH1 0x20 DUP5 MUL DUP4 ADD DUP6 DUP2 GT ISZERO PUSH3 0x3EE JUMPI PUSH3 0x3ED PUSH3 0x3AE JUMP JUMPDEST JUMPDEST DUP4 JUMPDEST DUP2 DUP2 LT ISZERO PUSH3 0x41B JUMPI DUP1 PUSH3 0x406 DUP9 DUP3 PUSH3 0x2D5 JUMP JUMPDEST DUP5 MSTORE PUSH1 0x20 DUP5 ADD SWAP4 POP POP PUSH1 0x20 DUP2 ADD SWAP1 POP PUSH3 0x3F0 JUMP JUMPDEST POP POP POP SWAP4 SWAP3 POP POP POP JUMP JUMPDEST PUSH0 DUP3 PUSH1 0x1F DUP4 ADD SLT PUSH3 0x43C JUMPI PUSH3 0x43B PUSH3 0x2EB JUMP JUMPDEST JUMPDEST DUP2 MLOAD PUSH3 0x44E DUP5 DUP3 PUSH1 0x20 DUP7 ADD PUSH3 0x3B2 JUMP JUMPDEST SWAP2 POP POP SWAP3 SWAP2 POP POP JUMP JUMPDEST PUSH0 DUP2 SWAP1 POP SWAP2 SWAP1 POP JUMP JUMPDEST PUSH3 0x46B DUP2 PUSH3 0x457 JUMP JUMPDEST DUP2 EQ PUSH3 0x476 JUMPI PUSH0 DUP1 REVERT JUMPDEST POP JUMP JUMPDEST PUSH0 DUP2 MLOAD SWAP1 POP PUSH3 0x489 DUP2 PUSH3 0x460 JUMP JUMPDEST SWAP3 SWAP2 POP POP JUMP JUMPDEST PUSH0 DUP1 PUSH0 PUSH1 0x60 DUP5 DUP7 SUB SLT ISZERO PUSH3 0x4A9 JUMPI PUSH3 0x4A8 PUSH3 0x282 JUMP JUMPDEST JUMPDEST PUSH0 PUSH3 0x4B8 DUP7 DUP3 DUP8 ADD PUSH3 0x2D5 JUMP JUMPDEST SWAP4 POP POP PUSH1 0x20 DUP5 ADD MLOAD PUSH8 0xFFFFFFFFFFFFFFFF DUP2 GT ISZERO PUSH3 0x4DC JUMPI PUSH3 0x4DB PUSH3 0x286 JUMP JUMPDEST JUMPDEST PUSH3 0x4EA DUP7 DUP3 DUP8 ADD PUSH3 0x425 JUMP JUMPDEST SWAP3 POP POP PUSH1 0x40 PUSH3 0x4FD DUP7 DUP3 DUP8 ADD PUSH3 0x479 JUMP JUMPDEST SWAP2 POP POP SWAP3 POP SWAP3 POP SWAP3 JUMP JUMPDEST PUSH0 DUP3 DUP3 MSTORE PUSH1 0x20 DUP3 ADD SWAP1 POP SWAP3 SWAP2 POP POP JUMP JUMPDEST PUSH32 0x5468726573686F6C6420697320746F6F20686967680000000000000000000000 PUSH0 DUP3 ADD MSTORE POP JUMP JUMPDEST PUSH0 PUSH3 0x54D PUSH1 0x15 DUP4 PUSH3 0x507 JUMP JUMPDEST SWAP2 POP PUSH3 0x55A DUP3 PUSH3 0x517 JUMP JUMPDEST PUSH1 0x20 DUP3 ADD SWAP1 POP SWAP2 SWAP1 POP JUMP JUMPDEST PUSH0 PUSH1 0x20 DUP3 ADD SWAP1 POP DUP2 DUP2 SUB PUSH0 DUP4 ADD MSTORE PUSH3 0x57E DUP2 PUSH3 0x53F JUMP JUMPDEST SWAP1 POP SWAP2 SWAP1 POP JUMP JUMPDEST PUSH32 0x4E487B7100000000000000000000000000000000000000000000000000000000 PUSH0 MSTORE PUSH1 0x32 PUSH1 0x4 MSTORE PUSH1 0x24 PUSH0 REVERT JUMPDEST PUSH32 0x4475706C696361746520477561726469616E20466F756E640000000000000000 PUSH0 DUP3 ADD MSTORE POP JUMP JUMPDEST PUSH0 PUSH3 0x5E8 PUSH1 0x18 DUP4 PUSH3 0x507 JUMP JUMPDEST SWAP2 POP PUSH3 0x5F5 DUP3 PUSH3 0x5B2 JUMP JUMPDEST PUSH1 0x20 DUP3 ADD SWAP1 POP SWAP2 SWAP1 POP JUMP JUMPDEST PUSH0 PUSH1 0x20 DUP3 ADD SWAP1 POP DUP2 DUP2 SUB PUSH0 DUP4 ADD MSTORE PUSH3 0x619 DUP2 PUSH3 0x5DA JUMP JUMPDEST SWAP1 POP SWAP2 SWAP1 POP JUMP JUMPDEST PUSH32 0x4E487B7100000000000000000000000000000000000000000000000000000000 PUSH0 MSTORE PUSH1 0x11 PUSH1 0x4 MSTORE PUSH1 0x24 PUSH0 REVERT JUMPDEST PUSH0 PUSH3 0x659 DUP3 PUSH3 0x457 JUMP JUMPDEST SWAP2 POP PUSH32 0xFFFFFFFFFFFFFFFFFFFFFFFFFFFFFFFFFFFFFFFFFFFFFFFFFFFFFFFFFFFFFFFF DUP3 SUB PUSH3 0x68E JUMPI PUSH3 0x68D PUSH3 0x620 JUMP JUMPDEST JUMPDEST PUSH1 0x1 DUP3 ADD SWAP1 POP SWAP2 SWAP1 POP JUMP JUMPDEST PUSH2 0x355D DUP1 PUSH3 0x6A7 PUSH0 CODECOPY PUSH0 RETURN INVALID PUSH1 0x80 PUSH1 0x40 MSTORE CALLVALUE DUP1 ISZERO PUSH2 0xF JUMPI PUSH0 DUP1 REVERT JUMPDEST POP PUSH1 0x4 CALLDATASIZE LT PUSH2 0x171 JUMPI PUSH0 CALLDATALOAD PUSH1 0xE0 SHR DUP1 PUSH4 0x8DA5CB5B GT PUSH2 0xDC JUMPI DUP1 PUSH4 0xACE7C993 GT PUSH2 0x95 JUMPI DUP1 PUSH4 0xD5CE9AAD GT PUSH2 0x6F JUMPI DUP1 PUSH4 0xD5CE9AAD EQ PUSH2 0x3FF JUMPI DUP1 PUSH4 0xEC71511D EQ PUSH2 0x41B JUMPI DUP1 PUSH4 0xF05151DF EQ PUSH2 0x437 JUMPI DUP1 PUSH4 0xFAD2286B EQ PUSH2 0x455 JUMPI PUSH2 0x171 JUMP JUMPDEST DUP1 PUSH4 0xACE7C993 EQ PUSH2 0x395 JUMPI DUP1 PUSH4 0xCFBBA190 EQ PUSH2 0x3B3 JUMPI DUP1 PUSH4 0xD3582164 EQ PUSH2 0x3E3 JUMPI PUSH2 0x171 JUMP JUMPDEST DUP1 PUSH4 0x8DA5CB5B EQ PUSH2 0x2E7 JUMPI DUP1 PUSH4 0x912365EA EQ PUSH2 0x305 JUMPI DUP1 PUSH4 0xA526D83B EQ PUSH2 0x335 JUMPI DUP1 PUSH4 0xA643E812 EQ PUSH2 0x351 JUMPI DUP1 PUSH4 0xA7B65D10 EQ PUSH2 0x36F JUMPI DUP1 PUSH4 0xA9059CBB EQ PUSH2 0x379 JUMPI PUSH2 0x171 JUMP JUMPDEST DUP1 PUSH4 0x4A062BA9 GT PUSH2 0x12E JUMPI DUP1 PUSH4 0x4A062BA9 EQ PUSH2 0x24F JUMPI DUP1 PUSH4 0x57E685BC EQ PUSH2 0x259 JUMPI DUP1 PUSH4 0x5DB0DB7C EQ PUSH2 0x275 JUMPI DUP1 PUSH4 0x5FC489A7 EQ PUSH2 0x291 JUMPI DUP1 PUSH4 0x5FC7F48B EQ PUSH2 0x2AD JUMPI DUP1 PUSH4 0x89302F0E EQ PUSH2 0x2C9 JUMPI PUSH2 0x171 JUMP JUMPDEST DUP1 PUSH4 0xBA234D6 EQ PUSH2 0x175 JUMPI DUP1 PUSH4 0xC68BA21 EQ PUSH2 0x17F JUMPI DUP1 PUSH4 0x12065FE0 EQ PUSH2 0x1AF JUMPI DUP1 PUSH4 0x1E969523 EQ PUSH2 0x1CD JUMPI DUP1 PUSH4 0x371BBDC1 EQ PUSH2 0x1FF JUMPI DUP1 PUSH4 0x42CDE4E8 EQ PUSH2 0x231 JUMPI JUMPDEST PUSH0 DUP1 REVERT JUMPDEST PUSH2 0x17D PUSH2 0x471 JUMP JUMPDEST STOP JUMPDEST PUSH2 0x199 PUSH1 0x4 DUP1 CALLDATASIZE SUB DUP2 ADD SWAP1 PUSH2 0x194 SWAP2 SWAP1 PUSH2 0x2755 JUMP JUMPDEST PUSH2 0x5A3 JUMP JUMPDEST PUSH1 0x40 MLOAD PUSH2 0x1A6 SWAP2 SWAP1 PUSH2 0x279A JUMP JUMPDEST PUSH1 0x40 MLOAD DUP1 SWAP2 SUB SWAP1 RETURN JUMPDEST PUSH2 0x1B7 PUSH2 0x5C0 JUMP JUMPDEST PUSH1 0x40 MLOAD PUSH2 0x1C4 SWAP2 SWAP1 PUSH2 0x27CB JUMP JUMPDEST PUSH1 0x40 MLOAD DUP1 SWAP2 SUB SWAP1 RETURN JUMPDEST PUSH2 0x1E7 PUSH1 0x4 DUP1 CALLDATASIZE SUB DUP2 ADD SWAP1 PUSH2 0x1E2 SWAP2 SWAP1 PUSH2 0x2755 JUMP JUMPDEST PUSH2 0x5C7 JUMP JUMPDEST PUSH1 0x40 MLOAD PUSH2 0x1F6 SWAP4 SWAP3 SWAP2 SWAP1 PUSH2 0x27F3 JUMP JUMPDEST PUSH1 0x40 MLOAD DUP1 SWAP2 SUB SWAP1 RETURN JUMPDEST PUSH2 0x219 PUSH1 0x4 DUP1 CALLDATASIZE SUB DUP2 ADD SWAP1 PUSH2 0x214 SWAP2 SWAP1 PUSH2 0x2755 JUMP JUMPDEST PUSH2 0x638 JUMP JUMPDEST PUSH1 0x40 MLOAD PUSH2 0x228 SWAP4 SWAP3 SWAP2 SWAP1 PUSH2 0x2828 JUMP JUMPDEST PUSH1 0x40 MLOAD DUP1 SWAP2 SUB SWAP1 RETURN JUMPDEST PUSH2 0x239 PUSH2 0x689 JUMP JUMPDEST PUSH1 0x40 MLOAD PUSH2 0x246 SWAP2 SWAP1 PUSH2 0x27CB JUMP JUMPDEST PUSH1 0x40 MLOAD DUP1 SWAP2 SUB SWAP1 RETURN JUMPDEST PUSH2 0x257 PUSH2 0x68F JUMP JUMPDEST STOP JUMPDEST PUSH2 0x273 PUSH1 0x4 DUP1 CALLDATASIZE SUB DUP2 ADD SWAP1 PUSH2 0x26E SWAP2 SWAP1 PUSH2 0x2755 JUMP JUMPDEST PUSH2 0x83E JUMP JUMPDEST STOP JUMPDEST PUSH2 0x28F PUSH1 0x4 DUP1 CALLDATASIZE SUB DUP2 ADD SWAP1 PUSH2 0x28A SWAP2 SWAP1 PUSH2 0x2755 JUMP JUMPDEST PUSH2 0xADD JUMP JUMPDEST STOP JUMPDEST PUSH2 0x2AB PUSH1 0x4 DUP1 CALLDATASIZE SUB DUP2 ADD SWAP1 PUSH2 0x2A6 SWAP2 SWAP1 PUSH2 0x28BE JUMP JUMPDEST PUSH2 0xEDA JUMP JUMPDEST STOP JUMPDEST PUSH2 0x2C7 PUSH1 0x4 DUP1 CALLDATASIZE SUB DUP2 ADD SWAP1 PUSH2 0x2C2 SWAP2 SWAP1 PUSH2 0x291B JUMP JUMPDEST PUSH2 0x13D4 JUMP JUMPDEST STOP JUMPDEST PUSH2 0x2D1 PUSH2 0x1664 JUMP JUMPDEST PUSH1 0x40 MLOAD PUSH2 0x2DE SWAP2 SWAP1 PUSH2 0x27CB JUMP JUMPDEST PUSH1 0x40 MLOAD DUP1 SWAP2 SUB SWAP1 RETURN JUMPDEST PUSH2 0x2EF PUSH2 0x166A JUMP JUMPDEST PUSH1 0x40 MLOAD PUSH2 0x2FC SWAP2 SWAP1 PUSH2 0x2966 JUMP JUMPDEST PUSH1 0x40 MLOAD DUP1 SWAP2 SUB SWAP1 RETURN JUMPDEST PUSH2 0x31F PUSH1 0x4 DUP1 CALLDATASIZE SUB DUP2 ADD SWAP1 PUSH2 0x31A SWAP2 SWAP1 PUSH2 0x2AE1 JUMP JUMPDEST PUSH2 0x168F JUMP JUMPDEST PUSH1 0x40 MLOAD PUSH2 0x32C SWAP2 SWAP1 PUSH2 0x2BC7 JUMP JUMPDEST PUSH1 0x40 MLOAD DUP1 SWAP2 SUB SWAP1 RETURN JUMPDEST PUSH2 0x34F PUSH1 0x4 DUP1 CALLDATASIZE SUB DUP2 ADD SWAP1 PUSH2 0x34A SWAP2 SWAP1 PUSH2 0x2755 JUMP JUMPDEST PUSH2 0x1838 JUMP JUMPDEST STOP JUMPDEST PUSH2 0x359 PUSH2 0x1A4E JUMP JUMPDEST PUSH1 0x40 MLOAD PUSH2 0x366 SWAP2 SWAP1 PUSH2 0x279A JUMP JUMPDEST PUSH1 0x40 MLOAD DUP1 SWAP2 SUB SWAP1 RETURN JUMPDEST PUSH2 0x377 PUSH2 0x1A61 JUMP JUMPDEST STOP JUMPDEST PUSH2 0x393 PUSH1 0x4 DUP1 CALLDATASIZE SUB DUP2 ADD SWAP1 PUSH2 0x38E SWAP2 SWAP1 PUSH2 0x2C22 JUMP JUMPDEST PUSH2 0x1BE1 JUMP JUMPDEST STOP JUMPDEST PUSH2 0x39D PUSH2 0x1D06 JUMP JUMPDEST PUSH1 0x40 MLOAD PUSH2 0x3AA SWAP2 SWAP1 PUSH2 0x27CB JUMP JUMPDEST PUSH1 0x40 MLOAD DUP1 SWAP2 SUB SWAP1 RETURN JUMPDEST PUSH2 0x3CD PUSH1 0x4 DUP1 CALLDATASIZE SUB DUP2 ADD SWAP1 PUSH2 0x3C8 SWAP2 SWAP1 PUSH2 0x2755 JUMP JUMPDEST PUSH2 0x1D0C JUMP JUMPDEST PUSH1 0x40 MLOAD PUSH2 0x3DA SWAP2 SWAP1 PUSH2 0x27CB JUMP JUMPDEST PUSH1 0x40 MLOAD DUP1 SWAP2 SUB SWAP1 RETURN JUMPDEST PUSH2 0x3FD PUSH1 0x4 DUP1 CALLDATASIZE SUB DUP2 ADD SWAP1 PUSH2 0x3F8 SWAP2 SWAP1 PUSH2 0x2C60 JUMP JUMPDEST PUSH2 0x1D21 JUMP JUMPDEST STOP JUMPDEST PUSH2 0x419 PUSH1 0x4 DUP1 CALLDATASIZE SUB DUP2 ADD SWAP1 PUSH2 0x414 SWAP2 SWAP1 PUSH2 0x2755 JUMP JUMPDEST PUSH2 0x202B JUMP JUMPDEST STOP JUMPDEST PUSH2 0x435 PUSH1 0x4 DUP1 CALLDATASIZE SUB DUP2 ADD SWAP1 PUSH2 0x430 SWAP2 SWAP1 PUSH2 0x2C9E JUMP JUMPDEST PUSH2 0x22FC JUMP JUMPDEST STOP JUMPDEST PUSH2 0x43F PUSH2 0x24BE JUMP JUMPDEST PUSH1 0x40 MLOAD PUSH2 0x44C SWAP2 SWAP1 PUSH2 0x279A JUMP JUMPDEST PUSH1 0x40 MLOAD DUP1 SWAP2 SUB SWAP1 RETURN JUMPDEST PUSH2 0x46F PUSH1 0x4 DUP1 CALLDATASIZE SUB DUP2 ADD SWAP1 PUSH2 0x46A SWAP2 SWAP1 PUSH2 0x2C9E JUMP JUMPDEST PUSH2 0x24D0 JUMP JUMPDEST STOP JUMPDEST PUSH1 0x1 PUSH0 SWAP1 SLOAD SWAP1 PUSH2 0x100 EXP SWAP1 DIV PUSH20 0xFFFFFFFFFFFFFFFFFFFFFFFFFFFFFFFFFFFFFFFF AND PUSH20 0xFFFFFFFFFFFFFFFFFFFFFFFFFFFFFFFFFFFFFFFF AND CALLER PUSH20 0xFFFFFFFFFFFFFFFFFFFFFFFFFFFFFFFFFFFFFFFF AND EQ PUSH2 0x500 JUMPI PUSH1 0x40 MLOAD PUSH32 0x8C379A000000000000000000000000000000000000000000000000000000000 DUP2 MSTORE PUSH1 0x4 ADD PUSH2 0x4F7 SWAP1 PUSH2 0x2D23 JUMP JUMPDEST PUSH1 0x40 MLOAD DUP1 SWAP2 SUB SWAP1 REVERT JUMPDEST PUSH1 0x4 PUSH0 SWAP1 SLOAD SWAP1 PUSH2 0x100 EXP SWAP1 DIV PUSH1 0xFF AND PUSH2 0x54E JUMPI PUSH1 0x40 MLOAD PUSH32 0x8C379A000000000000000000000000000000000000000000000000000000000 DUP2 MSTORE PUSH1 0x4 ADD PUSH2 0x545 SWAP1 PUSH2 0x2D8B JUMP JUMPDEST PUSH1 0x40 MLOAD DUP1 SWAP2 SUB SWAP1 REVERT JUMPDEST PUSH0 PUSH1 0x4 PUSH0 PUSH2 0x100 EXP DUP2 SLOAD DUP2 PUSH1 0xFF MUL NOT AND SWAP1 DUP4 ISZERO ISZERO MUL OR SWAP1 SSTORE POP PUSH1 0x5 SLOAD PUSH32 0x500EC1D4B692D3C788BFD78A898DE379CFD93AB8177575EFC7593F87BD051A07 CALLER PUSH1 0x40 MLOAD PUSH2 0x599 SWAP2 SWAP1 PUSH2 0x2966 JUMP JUMPDEST PUSH1 0x40 MLOAD DUP1 SWAP2 SUB SWAP1 LOG2 JUMP JUMPDEST PUSH1 0x3 PUSH1 0x20 MSTORE DUP1 PUSH0 MSTORE PUSH1 0x40 PUSH0 KECCAK256 PUSH0 SWAP2 POP SLOAD SWAP1 PUSH2 0x100 EXP SWAP1 DIV PUSH1 0xFF AND DUP2 JUMP JUMPDEST PUSH0 SELFBALANCE SWAP1 POP SWAP1 JUMP JUMPDEST PUSH1 0x7 PUSH1 0x20 MSTORE DUP1 PUSH0 MSTORE PUSH1 0x40 PUSH0 KECCAK256 PUSH0 SWAP2 POP SWAP1 POP DUP1 PUSH0 ADD PUSH0 SWAP1 SLOAD SWAP1 PUSH2 0x100 EXP SWAP1 DIV PUSH20 0xFFFFFFFFFFFFFFFFFFFFFFFFFFFFFFFFFFFFFFFF AND SWAP1 DUP1 PUSH1 0x1 ADD PUSH0 SWAP1 SLOAD SWAP1 PUSH2 0x100 EXP SWAP1 DIV PUSH20 0xFFFFFFFFFFFFFFFFFFFFFFFFFFFFFFFFFFFFFFFF AND SWAP1 DUP1 PUSH1 0x1 ADD PUSH1 0x14 SWAP1 SLOAD SWAP1 PUSH2 0x100 EXP SWAP1 DIV PUSH1 0xFF AND SWAP1 POP DUP4 JUMP JUMPDEST PUSH1 0x6 PUSH1 0x20 MSTORE DUP1 PUSH0 MSTORE PUSH1 0x40 PUSH0 KECCAK256 PUSH0 SWAP2 POP SWAP1 POP DUP1 PUSH0 ADD PUSH0 SWAP1 SLOAD SWAP1 PUSH2 0x100 EXP SWAP1 DIV PUSH20 0xFFFFFFFFFFFFFFFFFFFFFFFFFFFFFFFFFFFFFFFF AND SWAP1 DUP1 PUSH1 0x1 ADD SLOAD SWAP1 DUP1 PUSH1 0x2 ADD PUSH0 SWAP1 SLOAD SWAP1 PUSH2 0x100 EXP SWAP1 DIV PUSH1 0xFF AND SWAP1 POP DUP4 JUMP JUMPDEST PUSH1 0x2 SLOAD DUP2 JUMP JUMPDEST PUSH1 0x3 PUSH0 CALLER PUSH20 0xFFFFFFFFFFFFFFFFFFFFFFFFFFFFFFFFFFFFFFFF AND PUSH20 0xFFFFFFFFFFFFFFFFFFFFFFFFFFFFFFFFFFFFFFFF AND DUP2 MSTORE PUSH1 0x20 ADD SWAP1 DUP2 MSTORE PUSH1 0x20 ADD PUSH0 KECCAK256 PUSH0 SWAP1 SLOAD SWAP1 PUSH2 0x100 EXP SWAP1 DIV PUSH1 0xFF AND PUSH2 0x718 JUMPI PUSH1 0x40 MLOAD PUSH32 0x8C379A000000000000000000000000000000000000000000000000000000000 DUP2 MSTORE PUSH1 0x4 ADD PUSH2 0x70F SWAP1 PUSH2 0x2E19 JUMP JUMPDEST PUSH1 0x40 MLOAD DUP1 SWAP2 SUB SWAP1 REVERT JUMPDEST PUSH1 0x4 PUSH1 0x1 SWAP1 SLOAD SWAP1 PUSH2 0x100 EXP SWAP1 DIV PUSH1 0xFF AND ISZERO PUSH2 0x768 JUMPI PUSH1 0x40 MLOAD PUSH32 0x8C379A000000000000000000000000000000000000000000000000000000000 DUP2 MSTORE PUSH1 0x4 ADD PUSH2 0x75F SWAP1 PUSH2 0x2EA7 JUMP JUMPDEST PUSH1 0x40 MLOAD DUP1 SWAP2 SUB SWAP1 REVERT JUMPDEST PUSH1 0x4 PUSH0 SWAP1 SLOAD SWAP1 PUSH2 0x100 EXP SWAP1 DIV PUSH1 0xFF AND ISZERO PUSH2 0x7B7 JUMPI PUSH1 0x40 MLOAD PUSH32 0x8C379A000000000000000000000000000000000000000000000000000000000 DUP2 MSTORE PUSH1 0x4 ADD PUSH2 0x7AE SWAP1 PUSH2 0x2F0F JUMP JUMPDEST PUSH1 0x40 MLOAD DUP1 SWAP2 SUB SWAP1 REVERT JUMPDEST TIMESTAMP PUSH1 0x9 PUSH0 CALLER PUSH20 0xFFFFFFFFFFFFFFFFFFFFFFFFFFFFFFFFFFFFFFFF AND PUSH20 0xFFFFFFFFFFFFFFFFFFFFFFFFFFFFFFFFFFFFFFFF AND DUP2 MSTORE PUSH1 0x20 ADD SWAP1 DUP2 MSTORE PUSH1 0x20 ADD PUSH0 KECCAK256 DUP2 SWAP1 SSTORE POP CALLER PUSH20 0xFFFFFFFFFFFFFFFFFFFFFFFFFFFFFFFFFFFFFFFF AND PUSH32 0xC0F8E327CBAF33736BC91FF2966A92A84350E4433A9BA309DA8F43E6F4A0852C PUSH1 0x40 MLOAD PUSH1 0x40 MLOAD DUP1 SWAP2 SUB SWAP1 LOG2 JUMP JUMPDEST PUSH1 0x3 PUSH0 CALLER PUSH20 0xFFFFFFFFFFFFFFFFFFFFFFFFFFFFFFFFFFFFFFFF AND PUSH20 0xFFFFFFFFFFFFFFFFFFFFFFFFFFFFFFFFFFFFFFFF AND DUP2 MSTORE PUSH1 0x20 ADD SWAP1 DUP2 MSTORE PUSH1 0x20 ADD PUSH0 KECCAK256 PUSH0 SWAP1 SLOAD SWAP1 PUSH2 0x100 EXP SWAP1 DIV PUSH1 0xFF AND PUSH2 0x8C7 JUMPI PUSH1 0x40 MLOAD PUSH32 0x8C379A000000000000000000000000000000000000000000000000000000000 DUP2 MSTORE PUSH1 0x4 ADD PUSH2 0x8BE SWAP1 PUSH2 0x2E19 JUMP JUMPDEST PUSH1 0x40 MLOAD DUP1 SWAP2 SUB SWAP1 REVERT JUMPDEST PUSH1 0x4 PUSH0 SWAP1 SLOAD SWAP1 PUSH2 0x100 EXP SWAP1 DIV PUSH1 0xFF AND PUSH2 0x915 JUMPI PUSH1 0x40 MLOAD PUSH32 0x8C379A000000000000000000000000000000000000000000000000000000000 DUP2 MSTORE PUSH1 0x4 ADD PUSH2 0x90C SWAP1 PUSH2 0x2D8B JUMP JUMPDEST PUSH1 0x40 MLOAD DUP1 SWAP2 SUB SWAP1 REVERT JUMPDEST PUSH1 0x4 PUSH1 0x1 SWAP1 SLOAD SWAP1 PUSH2 0x100 EXP SWAP1 DIV PUSH1 0xFF AND ISZERO PUSH2 0x965 JUMPI PUSH1 0x40 MLOAD PUSH32 0x8C379A000000000000000000000000000000000000000000000000000000000 DUP2 MSTORE PUSH1 0x4 ADD PUSH2 0x95C SWAP1 PUSH2 0x2EA7 JUMP JUMPDEST PUSH1 0x40 MLOAD DUP1 SWAP2 SUB SWAP1 REVERT JUMPDEST PUSH1 0x40 MLOAD DUP1 PUSH1 0x60 ADD PUSH1 0x40 MSTORE DUP1 DUP3 PUSH20 0xFFFFFFFFFFFFFFFFFFFFFFFFFFFFFFFFFFFFFFFF AND DUP2 MSTORE PUSH1 0x20 ADD PUSH1 0x5 SLOAD DUP2 MSTORE PUSH1 0x20 ADD PUSH0 ISZERO ISZERO DUP2 MSTORE POP PUSH1 0x6 PUSH0 CALLER PUSH20 0xFFFFFFFFFFFFFFFFFFFFFFFFFFFFFFFFFFFFFFFF AND PUSH20 0xFFFFFFFFFFFFFFFFFFFFFFFFFFFFFFFFFFFFFFFF AND DUP2 MSTORE PUSH1 0x20 ADD SWAP1 DUP2 MSTORE PUSH1 0x20 ADD PUSH0 KECCAK256 PUSH0 DUP3 ADD MLOAD DUP2 PUSH0 ADD PUSH0 PUSH2 0x100 EXP DUP2 SLOAD DUP2 PUSH20 0xFFFFFFFFFFFFFFFFFFFFFFFFFFFFFFFFFFFFFFFF MUL NOT AND SWAP1 DUP4 PUSH20 0xFFFFFFFFFFFFFFFFFFFFFFFFFFFFFFFFFFFFFFFF AND MUL OR SWAP1 SSTORE POP PUSH1 0x20 DUP3 ADD MLOAD DUP2 PUSH1 0x1 ADD SSTORE PUSH1 0x40 DUP3 ADD MLOAD DUP2 PUSH1 0x2 ADD PUSH0 PUSH2 0x100 EXP DUP2 SLOAD DUP2 PUSH1 0xFF MUL NOT AND SWAP1 DUP4 ISZERO ISZERO MUL OR SWAP1 SSTORE POP SWAP1 POP POP TIMESTAMP PUSH1 0x9 PUSH0 CALLER PUSH20 0xFFFFFFFFFFFFFFFFFFFFFFFFFFFFFFFFFFFFFFFF AND PUSH20 0xFFFFFFFFFFFFFFFFFFFFFFFFFFFFFFFFFFFFFFFF AND DUP2 MSTORE PUSH1 0x20 ADD SWAP1 DUP2 MSTORE PUSH1 0x20 ADD PUSH0 KECCAK256 DUP2 SWAP1 SSTORE POP PUSH1 0x5 SLOAD CALLER PUSH20 0xFFFFFFFFFFFFFFFFFFFFFFFFFFFFFFFFFFFFFFFF AND PUSH32 0x7A0B940199FF58E943823FE8C0E916DF112BE357049D8105A7E83CF9A4000E4A DUP4 PUSH1 0x40 MLOAD PUSH2 0xAD2 SWAP2 SWAP1 PUSH2 0x2966 JUMP JUMPDEST PUSH1 0x40 MLOAD DUP1 SWAP2 SUB SWAP1 LOG3 POP JUMP JUMPDEST PUSH1 0x1 PUSH0 SWAP1 SLOAD SWAP1 PUSH2 0x100 EXP SWAP1 DIV PUSH20 0xFFFFFFFFFFFFFFFFFFFFFFFFFFFFFFFFFFFFFFFF AND PUSH20 0xFFFFFFFFFFFFFFFFFFFFFFFFFFFFFFFFFFFFFFFF AND CALLER PUSH20 0xFFFFFFFFFFFFFFFFFFFFFFFFFFFFFFFFFFFFFFFF AND EQ PUSH2 0xB6C JUMPI PUSH1 0x40 MLOAD PUSH32 0x8C379A000000000000000000000000000000000000000000000000000000000 DUP2 MSTORE PUSH1 0x4 ADD PUSH2 0xB63 SWAP1 PUSH2 0x2D23 JUMP JUMPDEST PUSH1 0x40 MLOAD DUP1 SWAP2 SUB SWAP1 REVERT JUMPDEST PUSH1 0x4 PUSH1 0x1 SWAP1 SLOAD SWAP1 PUSH2 0x100 EXP SWAP1 DIV PUSH1 0xFF AND PUSH2 0xBBB JUMPI PUSH1 0x40 MLOAD PUSH32 0x8C379A000000000000000000000000000000000000000000000000000000000 DUP2 MSTORE PUSH1 0x4 ADD PUSH2 0xBB2 SWAP1 PUSH2 0x2F9D JUMP JUMPDEST PUSH1 0x40 MLOAD DUP1 SWAP2 SUB SWAP1 REVERT JUMPDEST PUSH1 0x4 PUSH0 SWAP1 SLOAD SWAP1 PUSH2 0x100 EXP SWAP1 DIV PUSH1 0xFF AND ISZERO PUSH2 0xC0A JUMPI PUSH1 0x40 MLOAD PUSH32 0x8C379A000000000000000000000000000000000000000000000000000000000 DUP2 MSTORE PUSH1 0x4 ADD PUSH2 0xC01 SWAP1 PUSH2 0x2F0F JUMP JUMPDEST PUSH1 0x40 MLOAD DUP1 SWAP2 SUB SWAP1 REVERT JUMPDEST PUSH0 PUSH1 0x7 PUSH0 DUP4 PUSH20 0xFFFFFFFFFFFFFFFFFFFFFFFFFFFFFFFFFFFFFFFF AND PUSH20 0xFFFFFFFFFFFFFFFFFFFFFFFFFFFFFFFFFFFFFFFF AND DUP2 MSTORE PUSH1 0x20 ADD SWAP1 DUP2 MSTORE PUSH1 0x20 ADD PUSH0 KECCAK256 PUSH1 0x40 MLOAD DUP1 PUSH1 0x60 ADD PUSH1 0x40 MSTORE SWAP1 DUP2 PUSH0 DUP3 ADD PUSH0 SWAP1 SLOAD SWAP1 PUSH2 0x100 EXP SWAP1 DIV PUSH20 0xFFFFFFFFFFFFFFFFFFFFFFFFFFFFFFFFFFFFFFFF AND PUSH20 0xFFFFFFFFFFFFFFFFFFFFFFFFFFFFFFFFFFFFFFFF AND PUSH20 0xFFFFFFFFFFFFFFFFFFFFFFFFFFFFFFFFFFFFFFFF AND DUP2 MSTORE PUSH1 0x20 ADD PUSH1 0x1 DUP3 ADD PUSH0 SWAP1 SLOAD SWAP1 PUSH2 0x100 EXP SWAP1 DIV PUSH20 0xFFFFFFFFFFFFFFFFFFFFFFFFFFFFFFFFFFFFFFFF AND PUSH20 0xFFFFFFFFFFFFFFFFFFFFFFFFFFFFFFFFFFFFFFFF AND PUSH20 0xFFFFFFFFFFFFFFFFFFFFFFFFFFFFFFFFFFFFFFFF AND DUP2 MSTORE PUSH1 0x20 ADD PUSH1 0x1 DUP3 ADD PUSH1 0x14 SWAP1 SLOAD SWAP1 PUSH2 0x100 EXP SWAP1 DIV PUSH1 0xFF AND ISZERO ISZERO ISZERO ISZERO DUP2 MSTORE POP POP SWAP1 POP DUP1 PUSH1 0x40 ADD MLOAD ISZERO PUSH2 0xD5E JUMPI PUSH1 0x40 MLOAD PUSH32 0x8C379A000000000000000000000000000000000000000000000000000000000 DUP2 MSTORE PUSH1 0x4 ADD PUSH2 0xD55 SWAP1 PUSH2 0x3005 JUMP JUMPDEST PUSH1 0x40 MLOAD DUP1 SWAP2 SUB SWAP1 REVERT JUMPDEST PUSH1 0x1 PUSH1 0x3 PUSH0 DUP4 PUSH0 ADD MLOAD PUSH20 0xFFFFFFFFFFFFFFFFFFFFFFFFFFFFFFFFFFFFFFFF AND PUSH20 0xFFFFFFFFFFFFFFFFFFFFFFFFFFFFFFFFFFFFFFFF AND DUP2 MSTORE PUSH1 0x20 ADD SWAP1 DUP2 MSTORE PUSH1 0x20 ADD PUSH0 KECCAK256 PUSH0 PUSH2 0x100 EXP DUP2 SLOAD DUP2 PUSH1 0xFF MUL NOT AND SWAP1 DUP4 ISZERO ISZERO MUL OR SWAP1 SSTORE POP PUSH0 PUSH1 0x3 PUSH0 DUP4 PUSH1 0x20 ADD MLOAD PUSH20 0xFFFFFFFFFFFFFFFFFFFFFFFFFFFFFFFFFFFFFFFF AND PUSH20 0xFFFFFFFFFFFFFFFFFFFFFFFFFFFFFFFFFFFFFFFF AND DUP2 MSTORE PUSH1 0x20 ADD SWAP1 DUP2 MSTORE PUSH1 0x20 ADD PUSH0 KECCAK256 PUSH0 PUSH2 0x100 EXP DUP2 SLOAD DUP2 PUSH1 0xFF MUL NOT AND SWAP1 DUP4 ISZERO ISZERO MUL OR SWAP1 SSTORE POP PUSH1 0x1 PUSH1 0x7 PUSH0 DUP5 PUSH20 0xFFFFFFFFFFFFFFFFFFFFFFFFFFFFFFFFFFFFFFFF AND PUSH20 0xFFFFFFFFFFFFFFFFFFFFFFFFFFFFFFFFFFFFFFFF AND DUP2 MSTORE PUSH1 0x20 ADD SWAP1 DUP2 MSTORE PUSH1 0x20 ADD PUSH0 KECCAK256 PUSH1 0x1 ADD PUSH1 0x14 PUSH2 0x100 EXP DUP2 SLOAD DUP2 PUSH1 0xFF MUL NOT AND SWAP1 DUP4 ISZERO ISZERO MUL OR SWAP1 SSTORE POP PUSH0 PUSH1 0x4 PUSH1 0x1 PUSH2 0x100 EXP DUP2 SLOAD DUP2 PUSH1 0xFF MUL NOT AND SWAP1 DUP4 ISZERO ISZERO MUL OR SWAP1 SSTORE POP DUP1 PUSH0 ADD MLOAD PUSH20 0xFFFFFFFFFFFFFFFFFFFFFFFFFFFFFFFFFFFFFFFF AND PUSH32 0xEBE47B4A5AEF1696896716ABE65C590C720B0CD9572A7E2DCB0A9BFE2B2CA7F DUP3 PUSH1 0x20 ADD MLOAD PUSH1 0x40 MLOAD PUSH2 0xECE SWAP2 SWAP1 PUSH2 0x2966 JUMP JUMPDEST PUSH1 0x40 MLOAD DUP1 SWAP2 SUB SWAP1 LOG2 POP POP JUMP JUMPDEST PUSH1 0x3 PUSH0 CALLER PUSH20 0xFFFFFFFFFFFFFFFFFFFFFFFFFFFFFFFFFFFFFFFF AND PUSH20 0xFFFFFFFFFFFFFFFFFFFFFFFFFFFFFFFFFFFFFFFF AND DUP2 MSTORE PUSH1 0x20 ADD SWAP1 DUP2 MSTORE PUSH1 0x20 ADD PUSH0 KECCAK256 PUSH0 SWAP1 SLOAD SWAP1 PUSH2 0x100 EXP SWAP1 DIV PUSH1 0xFF AND PUSH2 0xF63 JUMPI PUSH1 0x40 MLOAD PUSH32 0x8C379A000000000000000000000000000000000000000000000000000000000 DUP2 MSTORE PUSH1 0x4 ADD PUSH2 0xF5A SWAP1 PUSH2 0x2E19 JUMP JUMPDEST PUSH1 0x40 MLOAD DUP1 SWAP2 SUB SWAP1 REVERT JUMPDEST PUSH1 0x4 PUSH0 SWAP1 SLOAD SWAP1 PUSH2 0x100 EXP SWAP1 DIV PUSH1 0xFF AND PUSH2 0xFB1 JUMPI PUSH1 0x40 MLOAD PUSH32 0x8C379A000000000000000000000000000000000000000000000000000000000 DUP2 MSTORE PUSH1 0x4 ADD PUSH2 0xFA8 SWAP1 PUSH2 0x2D8B JUMP JUMPDEST PUSH1 0x40 MLOAD DUP1 SWAP2 SUB SWAP1 REVERT JUMPDEST PUSH1 0x4 PUSH1 0x1 SWAP1 SLOAD SWAP1 PUSH2 0x100 EXP SWAP1 DIV PUSH1 0xFF AND ISZERO PUSH2 0x1001 JUMPI PUSH1 0x40 MLOAD PUSH32 0x8C379A000000000000000000000000000000000000000000000000000000000 DUP2 MSTORE PUSH1 0x4 ADD PUSH2 0xFF8 SWAP1 PUSH2 0x2EA7 JUMP JUMPDEST PUSH1 0x40 MLOAD DUP1 SWAP2 SUB SWAP1 REVERT JUMPDEST PUSH1 0x2 SLOAD DUP3 DUP3 SWAP1 POP LT ISZERO PUSH2 0x1049 JUMPI PUSH1 0x40 MLOAD PUSH32 0x8C379A000000000000000000000000000000000000000000000000000000000 DUP2 MSTORE PUSH1 0x4 ADD PUSH2 0x1040 SWAP1 PUSH2 0x3093 JUMP JUMPDEST PUSH1 0x40 MLOAD DUP1 SWAP2 SUB SWAP1 REVERT JUMPDEST PUSH0 JUMPDEST DUP3 DUP3 SWAP1 POP DUP2 LT ISZERO PUSH2 0x12D1 JUMPI PUSH0 PUSH1 0x6 PUSH0 DUP6 DUP6 DUP6 DUP2 DUP2 LT PUSH2 0x106D JUMPI PUSH2 0x106C PUSH2 0x30B1 JUMP JUMPDEST JUMPDEST SWAP1 POP PUSH1 0x20 MUL ADD PUSH1 0x20 DUP2 ADD SWAP1 PUSH2 0x1082 SWAP2 SWAP1 PUSH2 0x2755 JUMP JUMPDEST PUSH20 0xFFFFFFFFFFFFFFFFFFFFFFFFFFFFFFFFFFFFFFFF AND PUSH20 0xFFFFFFFFFFFFFFFFFFFFFFFFFFFFFFFFFFFFFFFF AND DUP2 MSTORE PUSH1 0x20 ADD SWAP1 DUP2 MSTORE PUSH1 0x20 ADD PUSH0 KECCAK256 PUSH1 0x40 MLOAD DUP1 PUSH1 0x60 ADD PUSH1 0x40 MSTORE SWAP1 DUP2 PUSH0 DUP3 ADD PUSH0 SWAP1 SLOAD SWAP1 PUSH2 0x100 EXP SWAP1 DIV PUSH20 0xFFFFFFFFFFFFFFFFFFFFFFFFFFFFFFFFFFFFFFFF AND PUSH20 0xFFFFFFFFFFFFFFFFFFFFFFFFFFFFFFFFFFFFFFFF AND PUSH20 0xFFFFFFFFFFFFFFFFFFFFFFFFFFFFFFFFFFFFFFFF AND DUP2 MSTORE PUSH1 0x20 ADD PUSH1 0x1 DUP3 ADD SLOAD DUP2 MSTORE PUSH1 0x20 ADD PUSH1 0x2 DUP3 ADD PUSH0 SWAP1 SLOAD SWAP1 PUSH2 0x100 EXP SWAP1 DIV PUSH1 0xFF AND ISZERO ISZERO ISZERO ISZERO DUP2 MSTORE POP POP SWAP1 POP PUSH1 0x5 SLOAD DUP2 PUSH1 0x20 ADD MLOAD EQ PUSH2 0x1188 JUMPI PUSH1 0x40 MLOAD PUSH32 0x8C379A000000000000000000000000000000000000000000000000000000000 DUP2 MSTORE PUSH1 0x4 ADD PUSH2 0x117F SWAP1 PUSH2 0x3128 JUMP JUMPDEST PUSH1 0x40 MLOAD DUP1 SWAP2 SUB SWAP1 REVERT JUMPDEST DUP5 PUSH20 0xFFFFFFFFFFFFFFFFFFFFFFFFFFFFFFFFFFFFFFFF AND DUP2 PUSH0 ADD MLOAD PUSH20 0xFFFFFFFFFFFFFFFFFFFFFFFFFFFFFFFFFFFFFFFF AND EQ PUSH2 0x11F9 JUMPI PUSH1 0x40 MLOAD PUSH32 0x8C379A000000000000000000000000000000000000000000000000000000000 DUP2 MSTORE PUSH1 0x4 ADD PUSH2 0x11F0 SWAP1 PUSH2 0x3190 JUMP JUMPDEST PUSH1 0x40 MLOAD DUP1 SWAP2 SUB SWAP1 REVERT JUMPDEST DUP1 PUSH1 0x40 ADD MLOAD ISZERO PUSH2 0x123E JUMPI PUSH1 0x40 MLOAD PUSH32 0x8C379A000000000000000000000000000000000000000000000000000000000 DUP2 MSTORE PUSH1 0x4 ADD PUSH2 0x1235 SWAP1 PUSH2 0x321E JUMP JUMPDEST PUSH1 0x40 MLOAD DUP1 SWAP2 SUB SWAP1 REVERT JUMPDEST PUSH1 0x1 PUSH1 0x6 PUSH0 DUP7 DUP7 DUP7 DUP2 DUP2 LT PUSH2 0x1256 JUMPI PUSH2 0x1255 PUSH2 0x30B1 JUMP JUMPDEST JUMPDEST SWAP1 POP PUSH1 0x20 MUL ADD PUSH1 0x20 DUP2 ADD SWAP1 PUSH2 0x126B SWAP2 SWAP1 PUSH2 0x2755 JUMP JUMPDEST PUSH20 0xFFFFFFFFFFFFFFFFFFFFFFFFFFFFFFFFFFFFFFFF AND PUSH20 0xFFFFFFFFFFFFFFFFFFFFFFFFFFFFFFFFFFFFFFFF AND DUP2 MSTORE PUSH1 0x20 ADD SWAP1 DUP2 MSTORE PUSH1 0x20 ADD PUSH0 KECCAK256 PUSH1 0x2 ADD PUSH0 PUSH2 0x100 EXP DUP2 SLOAD DUP2 PUSH1 0xFF MUL NOT AND SWAP1 DUP4 ISZERO ISZERO MUL OR SWAP1 SSTORE POP POP DUP1 DUP1 PUSH2 0x12C9 SWAP1 PUSH2 0x3269 JUMP JUMPDEST SWAP2 POP POP PUSH2 0x104B JUMP JUMPDEST POP PUSH0 PUSH1 0x4 PUSH0 PUSH2 0x100 EXP DUP2 SLOAD DUP2 PUSH1 0xFF MUL NOT AND SWAP1 DUP4 ISZERO ISZERO MUL OR SWAP1 SSTORE POP PUSH0 PUSH1 0x1 PUSH0 SWAP1 SLOAD SWAP1 PUSH2 0x100 EXP SWAP1 DIV PUSH20 0xFFFFFFFFFFFFFFFFFFFFFFFFFFFFFFFFFFFFFFFF AND SWAP1 POP DUP4 PUSH1 0x1 PUSH0 PUSH2 0x100 EXP DUP2 SLOAD DUP2 PUSH20 0xFFFFFFFFFFFFFFFFFFFFFFFFFFFFFFFFFFFFFFFF MUL NOT AND SWAP1 DUP4 PUSH20 0xFFFFFFFFFFFFFFFFFFFFFFFFFFFFFFFFFFFFFFFF AND MUL OR SWAP1 SSTORE POP TIMESTAMP PUSH1 0x9 PUSH0 CALLER PUSH20 0xFFFFFFFFFFFFFFFFFFFFFFFFFFFFFFFFFFFFFFFF AND PUSH20 0xFFFFFFFFFFFFFFFFFFFFFFFFFFFFFFFFFFFFFFFF AND DUP2 MSTORE PUSH1 0x20 ADD SWAP1 DUP2 MSTORE PUSH1 0x20 ADD PUSH0 KECCAK256 DUP2 SWAP1 SSTORE POP PUSH1 0x5 SLOAD PUSH32 0xCBAA7C7C351E2D5655FC08D9C383ADCF4736AF160C800B53DF1F1DD221F826C8 DUP3 DUP7 PUSH1 0x40 MLOAD PUSH2 0x13C6 SWAP3 SWAP2 SWAP1 PUSH2 0x32B0 JUMP JUMPDEST PUSH1 0x40 MLOAD DUP1 SWAP2 SUB SWAP1 LOG2 POP POP POP POP JUMP JUMPDEST PUSH1 0x1 PUSH0 SWAP1 SLOAD SWAP1 PUSH2 0x100 EXP SWAP1 DIV PUSH20 0xFFFFFFFFFFFFFFFFFFFFFFFFFFFFFFFFFFFFFFFF AND PUSH20 0xFFFFFFFFFFFFFFFFFFFFFFFFFFFFFFFFFFFFFFFF AND CALLER PUSH20 0xFFFFFFFFFFFFFFFFFFFFFFFFFFFFFFFFFFFFFFFF AND EQ PUSH2 0x1463 JUMPI PUSH1 0x40 MLOAD PUSH32 0x8C379A000000000000000000000000000000000000000000000000000000000 DUP2 MSTORE PUSH1 0x4 ADD PUSH2 0x145A SWAP1 PUSH2 0x2D23 JUMP JUMPDEST PUSH1 0x40 MLOAD DUP1 SWAP2 SUB SWAP1 REVERT JUMPDEST PUSH1 0x4 PUSH1 0x1 SWAP1 SLOAD SWAP1 PUSH2 0x100 EXP SWAP1 DIV PUSH1 0xFF AND ISZERO PUSH2 0x14B3 JUMPI PUSH1 0x40 MLOAD PUSH32 0x8C379A000000000000000000000000000000000000000000000000000000000 DUP2 MSTORE PUSH1 0x4 ADD PUSH2 0x14AA SWAP1 PUSH2 0x2EA7 JUMP JUMPDEST PUSH1 0x40 MLOAD DUP1 SWAP2 SUB SWAP1 REVERT JUMPDEST PUSH1 0x4 PUSH0 SWAP1 SLOAD SWAP1 PUSH2 0x100 EXP SWAP1 DIV PUSH1 0xFF AND ISZERO PUSH2 0x1502 JUMPI PUSH1 0x40 MLOAD PUSH32 0x8C379A000000000000000000000000000000000000000000000000000000000 DUP2 MSTORE PUSH1 0x4 ADD PUSH2 0x14F9 SWAP1 PUSH2 0x2F0F JUMP JUMPDEST PUSH1 0x40 MLOAD DUP1 SWAP2 SUB SWAP1 REVERT JUMPDEST PUSH0 JUMPDEST DUP3 DUP3 SWAP1 POP DUP2 LT ISZERO PUSH2 0x161C JUMPI PUSH0 PUSH1 0x9 PUSH0 DUP6 DUP6 DUP6 DUP2 DUP2 LT PUSH2 0x1526 JUMPI PUSH2 0x1525 PUSH2 0x30B1 JUMP JUMPDEST JUMPDEST SWAP1 POP PUSH1 0x20 MUL ADD PUSH1 0x20 DUP2 ADD SWAP1 PUSH2 0x153B SWAP2 SWAP1 PUSH2 0x2755 JUMP JUMPDEST PUSH20 0xFFFFFFFFFFFFFFFFFFFFFFFFFFFFFFFFFFFFFFFF AND PUSH20 0xFFFFFFFFFFFFFFFFFFFFFFFFFFFFFFFFFFFFFFFF AND DUP2 MSTORE PUSH1 0x20 ADD SWAP1 DUP2 MSTORE PUSH1 0x20 ADD PUSH0 KECCAK256 SLOAD SWAP1 POP TIMESTAMP PUSH1 0x8 SLOAD DUP3 PUSH2 0x1586 SWAP2 SWAP1 PUSH2 0x32D7 JUMP JUMPDEST LT ISZERO PUSH2 0x1608 JUMPI PUSH0 PUSH1 0x3 PUSH0 DUP7 DUP7 DUP7 DUP2 DUP2 LT PUSH2 0x15A3 JUMPI PUSH2 0x15A2 PUSH2 0x30B1 JUMP JUMPDEST JUMPDEST SWAP1 POP PUSH1 0x20 MUL ADD PUSH1 0x20 DUP2 ADD SWAP1 PUSH2 0x15B8 SWAP2 SWAP1 PUSH2 0x2755 JUMP JUMPDEST PUSH20 0xFFFFFFFFFFFFFFFFFFFFFFFFFFFFFFFFFFFFFFFF AND PUSH20 0xFFFFFFFFFFFFFFFFFFFFFFFFFFFFFFFFFFFFFFFF AND DUP2 MSTORE PUSH1 0x20 ADD SWAP1 DUP2 MSTORE PUSH1 0x20 ADD PUSH0 KECCAK256 PUSH0 PUSH2 0x100 EXP DUP2 SLOAD DUP2 PUSH1 0xFF MUL NOT AND SWAP1 DUP4 ISZERO ISZERO MUL OR SWAP1 SSTORE POP JUMPDEST POP DUP1 DUP1 PUSH2 0x1614 SWAP1 PUSH2 0x3269 JUMP JUMPDEST SWAP2 POP POP PUSH2 0x1504 JUMP JUMPDEST POP CALLER PUSH20 0xFFFFFFFFFFFFFFFFFFFFFFFFFFFFFFFFFFFFFFFF AND PUSH32 0x4C3633AD0E1A50F8C16E1AD83C223C9E97EFA102E90B03C3A0B10A7726F58656 PUSH1 0x40 MLOAD PUSH1 0x40 MLOAD DUP1 SWAP2 SUB SWAP1 LOG2 POP POP JUMP JUMPDEST PUSH1 0x8 SLOAD DUP2 JUMP JUMPDEST PUSH1 0x1 PUSH0 SWAP1 SLOAD SWAP1 PUSH2 0x100 EXP SWAP1 DIV PUSH20 0xFFFFFFFFFFFFFFFFFFFFFFFFFFFFFFFFFFFFFFFF AND DUP2 JUMP JUMPDEST PUSH1 0x60 PUSH1 0x1 PUSH0 SWAP1 SLOAD SWAP1 PUSH2 0x100 EXP SWAP1 DIV PUSH20 0xFFFFFFFFFFFFFFFFFFFFFFFFFFFFFFFFFFFFFFFF AND PUSH20 0xFFFFFFFFFFFFFFFFFFFFFFFFFFFFFFFFFFFFFFFF AND CALLER PUSH20 0xFFFFFFFFFFFFFFFFFFFFFFFFFFFFFFFFFFFFFFFF AND EQ PUSH2 0x1720 JUMPI PUSH1 0x40 MLOAD PUSH32 0x8C379A000000000000000000000000000000000000000000000000000000000 DUP2 MSTORE PUSH1 0x4 ADD PUSH2 0x1717 SWAP1 PUSH2 0x2D23 JUMP JUMPDEST PUSH1 0x40 MLOAD DUP1 SWAP2 SUB SWAP1 REVERT JUMPDEST PUSH2 0x1728 PUSH2 0x269D JUMP JUMPDEST PUSH0 DUP1 DUP6 PUSH20 0xFFFFFFFFFFFFFFFFFFFFFFFFFFFFFFFFFFFFFFFF AND DUP6 DUP6 PUSH1 0x40 MLOAD PUSH2 0x1750 SWAP2 SWAP1 PUSH2 0x3344 JUMP JUMPDEST PUSH0 PUSH1 0x40 MLOAD DUP1 DUP4 SUB DUP2 DUP6 DUP8 GAS CALL SWAP3 POP POP POP RETURNDATASIZE DUP1 PUSH0 DUP2 EQ PUSH2 0x178A JUMPI PUSH1 0x40 MLOAD SWAP2 POP PUSH1 0x1F NOT PUSH1 0x3F RETURNDATASIZE ADD AND DUP3 ADD PUSH1 0x40 MSTORE RETURNDATASIZE DUP3 MSTORE RETURNDATASIZE PUSH0 PUSH1 0x20 DUP5 ADD RETURNDATACOPY PUSH2 0x178F JUMP JUMPDEST PUSH1 0x60 SWAP2 POP JUMPDEST POP SWAP2 POP SWAP2 POP DUP2 PUSH2 0x17D4 JUMPI PUSH1 0x40 MLOAD PUSH32 0x8C379A000000000000000000000000000000000000000000000000000000000 DUP2 MSTORE PUSH1 0x4 ADD PUSH2 0x17CB SWAP1 PUSH2 0x33A4 JUMP JUMPDEST PUSH1 0x40 MLOAD DUP1 SWAP2 SUB SWAP1 REVERT JUMPDEST DUP6 PUSH20 0xFFFFFFFFFFFFFFFFFFFFFFFFFFFFFFFFFFFFFFFF AND PUSH32 0x47D99AD340F52DA66535AFF7E10DA1CEB85A32BCBD9FA1C42314D194545E14D2 DUP7 DUP7 PUSH1 0x40 MLOAD PUSH2 0x181C SWAP3 SWAP2 SWAP1 PUSH2 0x33C2 JUMP JUMPDEST PUSH1 0x40 MLOAD DUP1 SWAP2 SUB SWAP1 LOG2 DUP1 SWAP3 POP POP POP PUSH2 0x1831 PUSH2 0x26E1 JUMP JUMPDEST SWAP4 SWAP3 POP POP POP JUMP JUMPDEST PUSH1 0x1 PUSH0 SWAP1 SLOAD SWAP1 PUSH2 0x100 EXP SWAP1 DIV PUSH20 0xFFFFFFFFFFFFFFFFFFFFFFFFFFFFFFFFFFFFFFFF AND PUSH20 0xFFFFFFFFFFFFFFFFFFFFFFFFFFFFFFFFFFFFFFFF AND CALLER PUSH20 0xFFFFFFFFFFFFFFFFFFFFFFFFFFFFFFFFFFFFFFFF AND EQ PUSH2 0x18C7 JUMPI PUSH1 0x40 MLOAD PUSH32 0x8C379A000000000000000000000000000000000000000000000000000000000 DUP2 MSTORE PUSH1 0x4 ADD PUSH2 0x18BE SWAP1 PUSH2 0x2D23 JUMP JUMPDEST PUSH1 0x40 MLOAD DUP1 SWAP2 SUB SWAP1 REVERT JUMPDEST PUSH1 0x4 PUSH1 0x1 SWAP1 SLOAD SWAP1 PUSH2 0x100 EXP SWAP1 DIV PUSH1 0xFF AND ISZERO PUSH2 0x1917 JUMPI PUSH1 0x40 MLOAD PUSH32 0x8C379A000000000000000000000000000000000000000000000000000000000 DUP2 MSTORE PUSH1 0x4 ADD PUSH2 0x190E SWAP1 PUSH2 0x2EA7 JUMP JUMPDEST PUSH1 0x40 MLOAD DUP1 SWAP2 SUB SWAP1 REVERT JUMPDEST PUSH1 0x4 PUSH0 SWAP1 SLOAD SWAP1 PUSH2 0x100 EXP SWAP1 DIV PUSH1 0xFF AND ISZERO PUSH2 0x1966 JUMPI PUSH1 0x40 MLOAD PUSH32 0x8C379A000000000000000000000000000000000000000000000000000000000 DUP2 MSTORE PUSH1 0x4 ADD PUSH2 0x195D SWAP1 PUSH2 0x2F0F JUMP JUMPDEST PUSH1 0x40 MLOAD DUP1 SWAP2 SUB SWAP1 REVERT JUMPDEST PUSH1 0x1 PUSH1 0x3 PUSH0 DUP4 PUSH20 0xFFFFFFFFFFFFFFFFFFFFFFFFFFFFFFFFFFFFFFFF AND PUSH20 0xFFFFFFFFFFFFFFFFFFFFFFFFFFFFFFFFFFFFFFFF AND DUP2 MSTORE PUSH1 0x20 ADD SWAP1 DUP2 MSTORE PUSH1 0x20 ADD PUSH0 KECCAK256 PUSH0 PUSH2 0x100 EXP DUP2 SLOAD DUP2 PUSH1 0xFF MUL NOT AND SWAP1 DUP4 ISZERO ISZERO MUL OR SWAP1 SSTORE POP TIMESTAMP PUSH1 0x9 PUSH0 DUP4 PUSH20 0xFFFFFFFFFFFFFFFFFFFFFFFFFFFFFFFFFFFFFFFF AND PUSH20 0xFFFFFFFFFFFFFFFFFFFFFFFFFFFFFFFFFFFFFFFF AND DUP2 MSTORE PUSH1 0x20 ADD SWAP1 DUP2 MSTORE PUSH1 0x20 ADD PUSH0 KECCAK256 DUP2 SWAP1 SSTORE POP CALLER PUSH20 0xFFFFFFFFFFFFFFFFFFFFFFFFFFFFFFFFFFFFFFFF AND PUSH32 0xBC3292102FA77E083913064B282926717CDFAEDE4D35F553D66366C0A3DA755A DUP3 PUSH1 0x40 MLOAD PUSH2 0x1A43 SWAP2 SWAP1 PUSH2 0x2966 JUMP JUMPDEST PUSH1 0x40 MLOAD DUP1 SWAP2 SUB SWAP1 LOG2 POP JUMP JUMPDEST PUSH1 0x4 PUSH1 0x1 SWAP1 SLOAD SWAP1 PUSH2 0x100 EXP SWAP1 DIV PUSH1 0xFF AND DUP2 JUMP JUMPDEST PUSH1 0x1 PUSH0 SWAP1 SLOAD SWAP1 PUSH2 0x100 EXP SWAP1 DIV PUSH20 0xFFFFFFFFFFFFFFFFFFFFFFFFFFFFFFFFFFFFFFFF AND PUSH20 0xFFFFFFFFFFFFFFFFFFFFFFFFFFFFFFFFFFFFFFFF AND CALLER PUSH20 0xFFFFFFFFFFFFFFFFFFFFFFFFFFFFFFFFFFFFFFFF AND EQ PUSH2 0x1AF0 JUMPI PUSH1 0x40 MLOAD PUSH32 0x8C379A000000000000000000000000000000000000000000000000000000000 DUP2 MSTORE PUSH1 0x4 ADD PUSH2 0x1AE7 SWAP1 PUSH2 0x2D23 JUMP JUMPDEST PUSH1 0x40 MLOAD DUP1 SWAP2 SUB SWAP1 REVERT JUMPDEST PUSH1 0x4 PUSH1 0x1 SWAP1 SLOAD SWAP1 PUSH2 0x100 EXP SWAP1 DIV PUSH1 0xFF AND PUSH2 0x1B3F JUMPI PUSH1 0x40 MLOAD PUSH32 0x8C379A000000000000000000000000000000000000000000000000000000000 DUP2 MSTORE PUSH1 0x4 ADD PUSH2 0x1B36 SWAP1 PUSH2 0x2F9D JUMP JUMPDEST PUSH1 0x40 MLOAD DUP1 SWAP2 SUB SWAP1 REVERT JUMPDEST PUSH1 0x4 PUSH0 SWAP1 SLOAD SWAP1 PUSH2 0x100 EXP SWAP1 DIV PUSH1 0xFF AND ISZERO PUSH2 0x1B8E JUMPI PUSH1 0x40 MLOAD PUSH32 0x8C379A000000000000000000000000000000000000000000000000000000000 DUP2 MSTORE PUSH1 0x4 ADD PUSH2 0x1B85 SWAP1 PUSH2 0x2F0F JUMP JUMPDEST PUSH1 0x40 MLOAD DUP1 SWAP2 SUB SWAP1 REVERT JUMPDEST PUSH0 PUSH1 0x4 PUSH1 0x1 PUSH2 0x100 EXP DUP2 SLOAD DUP2 PUSH1 0xFF MUL NOT AND SWAP1 DUP4 ISZERO ISZERO MUL OR SWAP1 SSTORE POP PUSH32 0xD57D294D41D7CB0F642228C3AA8884365982694AFCFA206C635FD368DFA4479C CALLER PUSH1 0x40 MLOAD PUSH2 0x1BD7 SWAP2 SWAP1 PUSH2 0x2966 JUMP JUMPDEST PUSH1 0x40 MLOAD DUP1 SWAP2 SUB SWAP1 LOG1 JUMP JUMPDEST PUSH1 0x1 PUSH0 SWAP1 SLOAD SWAP1 PUSH2 0x100 EXP SWAP1 DIV PUSH20 0xFFFFFFFFFFFFFFFFFFFFFFFFFFFFFFFFFFFFFFFF AND PUSH20 0xFFFFFFFFFFFFFFFFFFFFFFFFFFFFFFFFFFFFFFFF AND CALLER PUSH20 0xFFFFFFFFFFFFFFFFFFFFFFFFFFFFFFFFFFFFFFFF AND EQ PUSH2 0x1C70 JUMPI PUSH1 0x40 MLOAD PUSH32 0x8C379A000000000000000000000000000000000000000000000000000000000 DUP2 MSTORE PUSH1 0x4 ADD PUSH2 0x1C67 SWAP1 PUSH2 0x2D23 JUMP JUMPDEST PUSH1 0x40 MLOAD DUP1 SWAP2 SUB SWAP1 REVERT JUMPDEST DUP2 PUSH20 0xFFFFFFFFFFFFFFFFFFFFFFFFFFFFFFFFFFFFFFFF AND PUSH2 0x8FC DUP3 SWAP1 DUP2 ISZERO MUL SWAP1 PUSH1 0x40 MLOAD PUSH0 PUSH1 0x40 MLOAD DUP1 DUP4 SUB DUP2 DUP6 DUP9 DUP9 CALL SWAP4 POP POP POP POP ISZERO DUP1 ISZERO PUSH2 0x1CB3 JUMPI RETURNDATASIZE PUSH0 DUP1 RETURNDATACOPY RETURNDATASIZE PUSH0 REVERT JUMPDEST POP DUP2 PUSH20 0xFFFFFFFFFFFFFFFFFFFFFFFFFFFFFFFFFFFFFFFF AND PUSH32 0xE6D858F14D755446648A6E0C8AB8B5A0F58CCC7920D4C910B0454E4DCD869AF0 DUP3 PUSH1 0x40 MLOAD PUSH2 0x1CFA SWAP2 SWAP1 PUSH2 0x27CB JUMP JUMPDEST PUSH1 0x40 MLOAD DUP1 SWAP2 SUB SWAP1 LOG2 POP POP JUMP JUMPDEST PUSH1 0x5 SLOAD DUP2 JUMP JUMPDEST PUSH1 0x9 PUSH1 0x20 MSTORE DUP1 PUSH0 MSTORE PUSH1 0x40 PUSH0 KECCAK256 PUSH0 SWAP2 POP SWAP1 POP SLOAD DUP2 JUMP JUMPDEST PUSH1 0x3 PUSH0 CALLER PUSH20 0xFFFFFFFFFFFFFFFFFFFFFFFFFFFFFFFFFFFFFFFF AND PUSH20 0xFFFFFFFFFFFFFFFFFFFFFFFFFFFFFFFFFFFFFFFF AND DUP2 MSTORE PUSH1 0x20 ADD SWAP1 DUP2 MSTORE PUSH1 0x20 ADD PUSH0 KECCAK256 PUSH0 SWAP1 SLOAD SWAP1 PUSH2 0x100 EXP SWAP1 DIV PUSH1 0xFF AND PUSH2 0x1DAA JUMPI PUSH1 0x40 MLOAD PUSH32 0x8C379A000000000000000000000000000000000000000000000000000000000 DUP2 MSTORE PUSH1 0x4 ADD PUSH2 0x1DA1 SWAP1 PUSH2 0x2E19 JUMP JUMPDEST PUSH1 0x40 MLOAD DUP1 SWAP2 SUB SWAP1 REVERT JUMPDEST PUSH1 0x4 PUSH1 0x1 SWAP1 SLOAD SWAP1 PUSH2 0x100 EXP SWAP1 DIV PUSH1 0xFF AND ISZERO PUSH2 0x1DFA JUMPI PUSH1 0x40 MLOAD PUSH32 0x8C379A000000000000000000000000000000000000000000000000000000000 DUP2 MSTORE PUSH1 0x4 ADD PUSH2 0x1DF1 SWAP1 PUSH2 0x2EA7 JUMP JUMPDEST PUSH1 0x40 MLOAD DUP1 SWAP2 SUB SWAP1 REVERT JUMPDEST PUSH1 0x4 PUSH0 SWAP1 SLOAD SWAP1 PUSH2 0x100 EXP SWAP1 DIV PUSH1 0xFF AND ISZERO PUSH2 0x1E49 JUMPI PUSH1 0x40 MLOAD PUSH32 0x8C379A000000000000000000000000000000000000000000000000000000000 DUP2 MSTORE PUSH1 0x4 ADD PUSH2 0x1E40 SWAP1 PUSH2 0x2F0F JUMP JUMPDEST PUSH1 0x40 MLOAD DUP1 SWAP2 SUB SWAP1 REVERT JUMPDEST PUSH1 0x40 MLOAD DUP1 PUSH1 0x60 ADD PUSH1 0x40 MSTORE DUP1 DUP3 PUSH20 0xFFFFFFFFFFFFFFFFFFFFFFFFFFFFFFFFFFFFFFFF AND DUP2 MSTORE PUSH1 0x20 ADD DUP4 PUSH20 0xFFFFFFFFFFFFFFFFFFFFFFFFFFFFFFFFFFFFFFFF AND DUP2 MSTORE PUSH1 0x20 ADD PUSH0 ISZERO ISZERO DUP2 MSTORE POP PUSH1 0x7 PUSH0 CALLER PUSH20 0xFFFFFFFFFFFFFFFFFFFFFFFFFFFFFFFFFFFFFFFF AND PUSH20 0xFFFFFFFFFFFFFFFFFFFFFFFFFFFFFFFFFFFFFFFF AND DUP2 MSTORE PUSH1 0x20 ADD SWAP1 DUP2 MSTORE PUSH1 0x20 ADD PUSH0 KECCAK256 PUSH0 DUP3 ADD MLOAD DUP2 PUSH0 ADD PUSH0 PUSH2 0x100 EXP DUP2 SLOAD DUP2 PUSH20 0xFFFFFFFFFFFFFFFFFFFFFFFFFFFFFFFFFFFFFFFF MUL NOT AND SWAP1 DUP4 PUSH20 0xFFFFFFFFFFFFFFFFFFFFFFFFFFFFFFFFFFFFFFFF AND MUL OR SWAP1 SSTORE POP PUSH1 0x20 DUP3 ADD MLOAD DUP2 PUSH1 0x1 ADD PUSH0 PUSH2 0x100 EXP DUP2 SLOAD DUP2 PUSH20 0xFFFFFFFFFFFFFFFFFFFFFFFFFFFFFFFFFFFFFFFF MUL NOT AND SWAP1 DUP4 PUSH20 0xFFFFFFFFFFFFFFFFFFFFFFFFFFFFFFFFFFFFFFFF AND MUL OR SWAP1 SSTORE POP PUSH1 0x40 DUP3 ADD MLOAD DUP2 PUSH1 0x1 ADD PUSH1 0x14 PUSH2 0x100 EXP DUP2 SLOAD DUP2 PUSH1 0xFF MUL NOT AND SWAP1 DUP4 ISZERO ISZERO MUL OR SWAP1 SSTORE POP SWAP1 POP POP PUSH1 0x1 PUSH1 0x4 PUSH1 0x1 PUSH2 0x100 EXP DUP2 SLOAD DUP2 PUSH1 0xFF MUL NOT AND SWAP1 DUP4 ISZERO ISZERO MUL OR SWAP1 SSTORE POP TIMESTAMP PUSH1 0x9 PUSH0 CALLER PUSH20 0xFFFFFFFFFFFFFFFFFFFFFFFFFFFFFFFFFFFFFFFF AND PUSH20 0xFFFFFFFFFFFFFFFFFFFFFFFFFFFFFFFFFFFFFFFF AND DUP2 MSTORE PUSH1 0x20 ADD SWAP1 DUP2 MSTORE PUSH1 0x20 ADD PUSH0 KECCAK256 DUP2 SWAP1 SSTORE POP DUP1 PUSH20 0xFFFFFFFFFFFFFFFFFFFFFFFFFFFFFFFFFFFFFFFF AND PUSH32 0xD940885AA266E9A19341BBA634F831BDE68D4D3009E14F239E32BED8DD9E4B54 DUP4 PUSH1 0x40 MLOAD PUSH2 0x201F SWAP2 SWAP1 PUSH2 0x2966 JUMP JUMPDEST PUSH1 0x40 MLOAD DUP1 SWAP2 SUB SWAP1 LOG2 POP POP JUMP JUMPDEST PUSH1 0x3 PUSH0 CALLER PUSH20 0xFFFFFFFFFFFFFFFFFFFFFFFFFFFFFFFFFFFFFFFF AND PUSH20 0xFFFFFFFFFFFFFFFFFFFFFFFFFFFFFFFFFFFFFFFF AND DUP2 MSTORE PUSH1 0x20 ADD SWAP1 DUP2 MSTORE PUSH1 0x20 ADD PUSH0 KECCAK256 PUSH0 SWAP1 SLOAD SWAP1 PUSH2 0x100 EXP SWAP1 DIV PUSH1 0xFF AND PUSH2 0x20B4 JUMPI PUSH1 0x40 MLOAD PUSH32 0x8C379A000000000000000000000000000000000000000000000000000000000 DUP2 MSTORE PUSH1 0x4 ADD PUSH2 0x20AB SWAP1 PUSH2 0x2E19 JUMP JUMPDEST PUSH1 0x40 MLOAD DUP1 SWAP2 SUB SWAP1 REVERT JUMPDEST PUSH1 0x4 PUSH0 SWAP1 SLOAD SWAP1 PUSH2 0x100 EXP SWAP1 DIV PUSH1 0xFF AND ISZERO PUSH2 0x2103 JUMPI PUSH1 0x40 MLOAD PUSH32 0x8C379A000000000000000000000000000000000000000000000000000000000 DUP2 MSTORE PUSH1 0x4 ADD PUSH2 0x20FA SWAP1 PUSH2 0x2F0F JUMP JUMPDEST PUSH1 0x40 MLOAD DUP1 SWAP2 SUB SWAP1 REVERT JUMPDEST PUSH1 0x4 PUSH1 0x1 SWAP1 SLOAD SWAP1 PUSH2 0x100 EXP SWAP1 DIV PUSH1 0xFF AND ISZERO PUSH2 0x2153 JUMPI PUSH1 0x40 MLOAD PUSH32 0x8C379A000000000000000000000000000000000000000000000000000000000 DUP2 MSTORE PUSH1 0x4 ADD PUSH2 0x214A SWAP1 PUSH2 0x2EA7 JUMP JUMPDEST PUSH1 0x40 MLOAD DUP1 SWAP2 SUB SWAP1 REVERT JUMPDEST PUSH1 0x5 PUSH0 DUP2 SLOAD DUP1 SWAP3 SWAP2 SWAP1 PUSH2 0x2165 SWAP1 PUSH2 0x3269 JUMP JUMPDEST SWAP2 SWAP1 POP SSTORE POP PUSH1 0x40 MLOAD DUP1 PUSH1 0x60 ADD PUSH1 0x40 MSTORE DUP1 DUP3 PUSH20 0xFFFFFFFFFFFFFFFFFFFFFFFFFFFFFFFFFFFFFFFF AND DUP2 MSTORE PUSH1 0x20 ADD PUSH1 0x5 SLOAD DUP2 MSTORE PUSH1 0x20 ADD PUSH0 ISZERO ISZERO DUP2 MSTORE POP PUSH1 0x6 PUSH0 CALLER PUSH20 0xFFFFFFFFFFFFFFFFFFFFFFFFFFFFFFFFFFFFFFFF AND PUSH20 0xFFFFFFFFFFFFFFFFFFFFFFFFFFFFFFFFFFFFFFFF AND DUP2 MSTORE PUSH1 0x20 ADD SWAP1 DUP2 MSTORE PUSH1 0x20 ADD PUSH0 KECCAK256 PUSH0 DUP3 ADD MLOAD DUP2 PUSH0 ADD PUSH0 PUSH2 0x100 EXP DUP2 SLOAD DUP2 PUSH20 0xFFFFFFFFFFFFFFFFFFFFFFFFFFFFFFFFFFFFFFFF MUL NOT AND SWAP1 DUP4 PUSH20 0xFFFFFFFFFFFFFFFFFFFFFFFFFFFFFFFFFFFFFFFF AND MUL OR SWAP1 SSTORE POP PUSH1 0x20 DUP3 ADD MLOAD DUP2 PUSH1 0x1 ADD SSTORE PUSH1 0x40 DUP3 ADD MLOAD DUP2 PUSH1 0x2 ADD PUSH0 PUSH2 0x100 EXP DUP2 SLOAD DUP2 PUSH1 0xFF MUL NOT AND SWAP1 DUP4 ISZERO ISZERO MUL OR SWAP1 SSTORE POP SWAP1 POP POP PUSH1 0x1 PUSH1 0x4 PUSH0 PUSH2 0x100 EXP DUP2 SLOAD DUP2 PUSH1 0xFF MUL NOT AND SWAP1 DUP4 ISZERO ISZERO MUL OR SWAP1 SSTORE POP TIMESTAMP PUSH1 0x9 PUSH0 CALLER PUSH20 0xFFFFFFFFFFFFFFFFFFFFFFFFFFFFFFFFFFFFFFFF AND PUSH20 0xFFFFFFFFFFFFFFFFFFFFFFFFFFFFFFFFFFFFFFFF AND DUP2 MSTORE PUSH1 0x20 ADD SWAP1 DUP2 MSTORE PUSH1 0x20 ADD PUSH0 KECCAK256 DUP2 SWAP1 SSTORE POP PUSH1 0x5 SLOAD CALLER PUSH20 0xFFFFFFFFFFFFFFFFFFFFFFFFFFFFFFFFFFFFFFFF AND PUSH32 0xE290EA2CC3CFEB5114F992DC8BE9E503DE30042C13B9298644A2679B09E17A04 DUP4 PUSH1 0x40 MLOAD PUSH2 0x22F1 SWAP2 SWAP1 PUSH2 0x2966 JUMP JUMPDEST PUSH1 0x40 MLOAD DUP1 SWAP2 SUB SWAP1 LOG3 POP JUMP JUMPDEST PUSH1 0x1 PUSH0 SWAP1 SLOAD SWAP1 PUSH2 0x100 EXP SWAP1 DIV PUSH20 0xFFFFFFFFFFFFFFFFFFFFFFFFFFFFFFFFFFFFFFFF AND PUSH20 0xFFFFFFFFFFFFFFFFFFFFFFFFFFFFFFFFFFFFFFFF AND CALLER PUSH20 0xFFFFFFFFFFFFFFFFFFFFFFFFFFFFFFFFFFFFFFFF AND EQ PUSH2 0x238B JUMPI PUSH1 0x40 MLOAD PUSH32 0x8C379A000000000000000000000000000000000000000000000000000000000 DUP2 MSTORE PUSH1 0x4 ADD PUSH2 0x2382 SWAP1 PUSH2 0x2D23 JUMP JUMPDEST PUSH1 0x40 MLOAD DUP1 SWAP2 SUB SWAP1 REVERT JUMPDEST PUSH1 0x4 PUSH1 0x1 SWAP1 SLOAD SWAP1 PUSH2 0x100 EXP SWAP1 DIV PUSH1 0xFF AND ISZERO PUSH2 0x23DB JUMPI PUSH1 0x40 MLOAD PUSH32 0x8C379A000000000000000000000000000000000000000000000000000000000 DUP2 MSTORE PUSH1 0x4 ADD PUSH2 0x23D2 SWAP1 PUSH2 0x2EA7 JUMP JUMPDEST PUSH1 0x40 MLOAD DUP1 SWAP2 SUB SWAP1 REVERT JUMPDEST PUSH1 0x4 PUSH0 SWAP1 SLOAD SWAP1 PUSH2 0x100 EXP SWAP1 DIV PUSH1 0xFF AND ISZERO PUSH2 0x242A JUMPI PUSH1 0x40 MLOAD PUSH32 0x8C379A000000000000000000000000000000000000000000000000000000000 DUP2 MSTORE PUSH1 0x4 ADD PUSH2 0x2421 SWAP1 PUSH2 0x2F0F JUMP JUMPDEST PUSH1 0x40 MLOAD DUP1 SWAP2 SUB SWAP1 REVERT JUMPDEST PUSH1 0x1 PUSH1 0x2 SLOAD LT ISZERO PUSH2 0x2470 JUMPI PUSH1 0x40 MLOAD PUSH32 0x8C379A000000000000000000000000000000000000000000000000000000000 DUP2 MSTORE PUSH1 0x4 ADD PUSH2 0x2467 SWAP1 PUSH2 0x343A JUMP JUMPDEST PUSH1 0x40 MLOAD DUP1 SWAP2 SUB SWAP1 REVERT JUMPDEST DUP1 PUSH1 0x2 DUP2 SWAP1 SSTORE POP DUP1 CALLER PUSH20 0xFFFFFFFFFFFFFFFFFFFFFFFFFFFFFFFFFFFFFFFF AND PUSH32 0xBB0549E0AEDB1FCC6A27D802DF340BB4BD5DC53B1F97F3736A879345232E6DEF PUSH1 0x40 MLOAD PUSH1 0x40 MLOAD DUP1 SWAP2 SUB SWAP1 LOG3 POP JUMP JUMPDEST PUSH1 0x4 PUSH0 SWAP1 SLOAD SWAP1 PUSH2 0x100 EXP SWAP1 DIV PUSH1 0xFF AND DUP2 JUMP JUMPDEST PUSH1 0x1 PUSH0 SWAP1 SLOAD SWAP1 PUSH2 0x100 EXP SWAP1 DIV PUSH20 0xFFFFFFFFFFFFFFFFFFFFFFFFFFFFFFFFFFFFFFFF AND PUSH20 0xFFFFFFFFFFFFFFFFFFFFFFFFFFFFFFFFFFFFFFFF AND CALLER PUSH20 0xFFFFFFFFFFFFFFFFFFFFFFFFFFFFFFFFFFFFFFFF AND EQ PUSH2 0x255F JUMPI PUSH1 0x40 MLOAD PUSH32 0x8C379A000000000000000000000000000000000000000000000000000000000 DUP2 MSTORE PUSH1 0x4 ADD PUSH2 0x2556 SWAP1 PUSH2 0x2D23 JUMP JUMPDEST PUSH1 0x40 MLOAD DUP1 SWAP2 SUB SWAP1 REVERT JUMPDEST PUSH1 0x4 PUSH1 0x1 SWAP1 SLOAD SWAP1 PUSH2 0x100 EXP SWAP1 DIV PUSH1 0xFF AND ISZERO PUSH2 0x25AF JUMPI PUSH1 0x40 MLOAD PUSH32 0x8C379A000000000000000000000000000000000000000000000000000000000 DUP2 MSTORE PUSH1 0x4 ADD PUSH2 0x25A6 SWAP1 PUSH2 0x2EA7 JUMP JUMPDEST PUSH1 0x40 MLOAD DUP1 SWAP2 SUB SWAP1 REVERT JUMPDEST PUSH1 0x4 PUSH0 SWAP1 SLOAD SWAP1 PUSH2 0x100 EXP SWAP1 DIV PUSH1 0xFF AND ISZERO PUSH2 0x25FE JUMPI PUSH1 0x40 MLOAD PUSH32 0x8C379A000000000000000000000000000000000000000000000000000000000 DUP2 MSTORE PUSH1 0x4 ADD PUSH2 0x25F5 SWAP1 PUSH2 0x2F0F JUMP JUMPDEST PUSH1 0x40 MLOAD DUP1 SWAP2 SUB SWAP1 REVERT JUMPDEST PUSH1 0x7 DUP2 LT ISZERO PUSH2 0x2642 JUMPI PUSH1 0x40 MLOAD PUSH32 0x8C379A000000000000000000000000000000000000000000000000000000000 DUP2 MSTORE PUSH1 0x4 ADD PUSH2 0x2639 SWAP1 PUSH2 0x34C8 JUMP JUMPDEST PUSH1 0x40 MLOAD DUP1 SWAP2 SUB SWAP1 REVERT JUMPDEST PUSH3 0x15180 DUP2 PUSH2 0x2651 SWAP2 SWAP1 PUSH2 0x34E6 JUMP JUMPDEST PUSH1 0x8 DUP2 SWAP1 SSTORE POP CALLER PUSH20 0xFFFFFFFFFFFFFFFFFFFFFFFFFFFFFFFFFFFFFFFF AND PUSH32 0x53568DBE9B6F3AB514AB5E002F95D314943E692740912338CE95F2B2458FE4A6 PUSH1 0x40 MLOAD PUSH1 0x40 MLOAD DUP1 SWAP2 SUB SWAP1 LOG2 POP JUMP JUMPDEST PUSH1 0x2 PUSH0 SLOAD SUB PUSH2 0x26D8 JUMPI PUSH1 0x40 MLOAD PUSH32 0x3EE5AEB500000000000000000000000000000000000000000000000000000000 DUP2 MSTORE PUSH1 0x4 ADD PUSH1 0x40 MLOAD DUP1 SWAP2 SUB SWAP1 REVERT JUMPDEST PUSH1 0x2 PUSH0 DUP2 SWAP1 SSTORE POP JUMP JUMPDEST PUSH1 0x1 PUSH0 DUP2 SWAP1 SSTORE POP JUMP JUMPDEST PUSH0 PUSH1 0x40 MLOAD SWAP1 POP SWAP1 JUMP JUMPDEST PUSH0 DUP1 REVERT JUMPDEST PUSH0 DUP1 REVERT JUMPDEST PUSH0 PUSH20 0xFFFFFFFFFFFFFFFFFFFFFFFFFFFFFFFFFFFFFFFF DUP3 AND SWAP1 POP SWAP2 SWAP1 POP JUMP JUMPDEST PUSH0 PUSH2 0x2724 DUP3 PUSH2 0x26FB JUMP JUMPDEST SWAP1 POP SWAP2 SWAP1 POP JUMP JUMPDEST PUSH2 0x2734 DUP2 PUSH2 0x271A JUMP JUMPDEST DUP2 EQ PUSH2 0x273E JUMPI PUSH0 DUP1 REVERT JUMPDEST POP JUMP JUMPDEST PUSH0 DUP2 CALLDATALOAD SWAP1 POP PUSH2 0x274F DUP2 PUSH2 0x272B JUMP JUMPDEST SWAP3 SWAP2 POP POP JUMP JUMPDEST PUSH0 PUSH1 0x20 DUP3 DUP5 SUB SLT ISZERO PUSH2 0x276A JUMPI PUSH2 0x2769 PUSH2 0x26F3 JUMP JUMPDEST JUMPDEST PUSH0 PUSH2 0x2777 DUP5 DUP3 DUP6 ADD PUSH2 0x2741 JUMP JUMPDEST SWAP2 POP POP SWAP3 SWAP2 POP POP JUMP JUMPDEST PUSH0 DUP2 ISZERO ISZERO SWAP1 POP SWAP2 SWAP1 POP JUMP JUMPDEST PUSH2 0x2794 DUP2 PUSH2 0x2780 JUMP JUMPDEST DUP3 MSTORE POP POP JUMP JUMPDEST PUSH0 PUSH1 0x20 DUP3 ADD SWAP1 POP PUSH2 0x27AD PUSH0 DUP4 ADD DUP5 PUSH2 0x278B JUMP JUMPDEST SWAP3 SWAP2 POP POP JUMP JUMPDEST PUSH0 DUP2 SWAP1 POP SWAP2 SWAP1 POP JUMP JUMPDEST PUSH2 0x27C5 DUP2 PUSH2 0x27B3 JUMP JUMPDEST DUP3 MSTORE POP POP JUMP JUMPDEST PUSH0 PUSH1 0x20 DUP3 ADD SWAP1 POP PUSH2 0x27DE PUSH0 DUP4 ADD DUP5 PUSH2 0x27BC JUMP JUMPDEST SWAP3 SWAP2 POP POP JUMP JUMPDEST PUSH2 0x27ED DUP2 PUSH2 0x271A JUMP JUMPDEST DUP3 MSTORE POP POP JUMP JUMPDEST PUSH0 PUSH1 0x60 DUP3 ADD SWAP1 POP PUSH2 0x2806 PUSH0 DUP4 ADD DUP7 PUSH2 0x27E4 JUMP JUMPDEST PUSH2 0x2813 PUSH1 0x20 DUP4 ADD DUP6 PUSH2 0x27E4 JUMP JUMPDEST PUSH2 0x2820 PUSH1 0x40 DUP4 ADD DUP5 PUSH2 0x278B JUMP JUMPDEST SWAP5 SWAP4 POP POP POP POP JUMP JUMPDEST PUSH0 PUSH1 0x60 DUP3 ADD SWAP1 POP PUSH2 0x283B PUSH0 DUP4 ADD DUP7 PUSH2 0x27E4 JUMP JUMPDEST PUSH2 0x2848 PUSH1 0x20 DUP4 ADD DUP6 PUSH2 0x27BC JUMP JUMPDEST PUSH2 0x2855 PUSH1 0x40 DUP4 ADD DUP5 PUSH2 0x278B JUMP JUMPDEST SWAP5 SWAP4 POP POP POP POP JUMP JUMPDEST PUSH0 DUP1 REVERT JUMPDEST PUSH0 DUP1 REVERT JUMPDEST PUSH0 DUP1 REVERT JUMPDEST PUSH0 DUP1 DUP4 PUSH1 0x1F DUP5 ADD SLT PUSH2 0x287E JUMPI PUSH2 0x287D PUSH2 0x285D JUMP JUMPDEST JUMPDEST DUP3 CALLDATALOAD SWAP1 POP PUSH8 0xFFFFFFFFFFFFFFFF DUP2 GT ISZERO PUSH2 0x289B JUMPI PUSH2 0x289A PUSH2 0x2861 JUMP JUMPDEST JUMPDEST PUSH1 0x20 DUP4 ADD SWAP2 POP DUP4 PUSH1 0x20 DUP3 MUL DUP4 ADD GT ISZERO PUSH2 0x28B7 JUMPI PUSH2 0x28B6 PUSH2 0x2865 JUMP JUMPDEST JUMPDEST SWAP3 POP SWAP3 SWAP1 POP JUMP JUMPDEST PUSH0 DUP1 PUSH0 PUSH1 0x40 DUP5 DUP7 SUB SLT ISZERO PUSH2 0x28D5 JUMPI PUSH2 0x28D4 PUSH2 0x26F3 JUMP JUMPDEST JUMPDEST PUSH0 PUSH2 0x28E2 DUP7 DUP3 DUP8 ADD PUSH2 0x2741 JUMP JUMPDEST SWAP4 POP POP PUSH1 0x20 DUP5 ADD CALLDATALOAD PUSH8 0xFFFFFFFFFFFFFFFF DUP2 GT ISZERO PUSH2 0x2903 JUMPI PUSH2 0x2902 PUSH2 0x26F7 JUMP JUMPDEST JUMPDEST PUSH2 0x290F DUP7 DUP3 DUP8 ADD PUSH2 0x2869 JUMP JUMPDEST SWAP3 POP SWAP3 POP POP SWAP3 POP SWAP3 POP SWAP3 JUMP JUMPDEST PUSH0 DUP1 PUSH1 0x20 DUP4 DUP6 SUB SLT ISZERO PUSH2 0x2931 JUMPI PUSH2 0x2930 PUSH2 0x26F3 JUMP JUMPDEST JUMPDEST PUSH0 DUP4 ADD CALLDATALOAD PUSH8 0xFFFFFFFFFFFFFFFF DUP2 GT ISZERO PUSH2 0x294E JUMPI PUSH2 0x294D PUSH2 0x26F7 JUMP JUMPDEST JUMPDEST PUSH2 0x295A DUP6 DUP3 DUP7 ADD PUSH2 0x2869 JUMP JUMPDEST SWAP3 POP SWAP3 POP POP SWAP3 POP SWAP3 SWAP1 POP JUMP JUMPDEST PUSH0 PUSH1 0x20 DUP3 ADD SWAP1 POP PUSH2 0x2979 PUSH0 DUP4 ADD DUP5 PUSH2 0x27E4 JUMP JUMPDEST SWAP3 SWAP2 POP POP JUMP JUMPDEST PUSH2 0x2988 DUP2 PUSH2 0x27B3 JUMP JUMPDEST DUP2 EQ PUSH2 0x2992 JUMPI PUSH0 DUP1 REVERT JUMPDEST POP JUMP JUMPDEST PUSH0 DUP2 CALLDATALOAD SWAP1 POP PUSH2 0x29A3 DUP2 PUSH2 0x297F JUMP JUMPDEST SWAP3 SWAP2 POP POP JUMP JUMPDEST PUSH0 DUP1 REVERT JUMPDEST PUSH0 PUSH1 0x1F NOT PUSH1 0x1F DUP4 ADD AND SWAP1 POP SWAP2 SWAP1 POP JUMP JUMPDEST PUSH32 0x4E487B7100000000000000000000000000000000000000000000000000000000 PUSH0 MSTORE PUSH1 0x41 PUSH1 0x4 MSTORE PUSH1 0x24 PUSH0 REVERT JUMPDEST PUSH2 0x29F3 DUP3 PUSH2 0x29AD JUMP JUMPDEST DUP2 ADD DUP2 DUP2 LT PUSH8 0xFFFFFFFFFFFFFFFF DUP3 GT OR ISZERO PUSH2 0x2A12 JUMPI PUSH2 0x2A11 PUSH2 0x29BD JUMP JUMPDEST JUMPDEST DUP1 PUSH1 0x40 MSTORE POP POP POP JUMP JUMPDEST PUSH0 PUSH2 0x2A24 PUSH2 0x26EA JUMP JUMPDEST SWAP1 POP PUSH2 0x2A30 DUP3 DUP3 PUSH2 0x29EA JUMP JUMPDEST SWAP2 SWAP1 POP JUMP JUMPDEST PUSH0 PUSH8 0xFFFFFFFFFFFFFFFF DUP3 GT ISZERO PUSH2 0x2A4F JUMPI PUSH2 0x2A4E PUSH2 0x29BD JUMP JUMPDEST JUMPDEST PUSH2 0x2A58 DUP3 PUSH2 0x29AD JUMP JUMPDEST SWAP1 POP PUSH1 0x20 DUP2 ADD SWAP1 POP SWAP2 SWAP1 POP JUMP JUMPDEST DUP3 DUP2 DUP4 CALLDATACOPY PUSH0 DUP4 DUP4 ADD MSTORE POP POP POP JUMP JUMPDEST PUSH0 PUSH2 0x2A85 PUSH2 0x2A80 DUP5 PUSH2 0x2A35 JUMP JUMPDEST PUSH2 0x2A1B JUMP JUMPDEST SWAP1 POP DUP3 DUP2 MSTORE PUSH1 0x20 DUP2 ADD DUP5 DUP5 DUP5 ADD GT ISZERO PUSH2 0x2AA1 JUMPI PUSH2 0x2AA0 PUSH2 0x29A9 JUMP JUMPDEST JUMPDEST PUSH2 0x2AAC DUP5 DUP3 DUP6 PUSH2 0x2A65 JUMP JUMPDEST POP SWAP4 SWAP3 POP POP POP JUMP JUMPDEST PUSH0 DUP3 PUSH1 0x1F DUP4 ADD SLT PUSH2 0x2AC8 JUMPI PUSH2 0x2AC7 PUSH2 0x285D JUMP JUMPDEST JUMPDEST DUP2 CALLDATALOAD PUSH2 0x2AD8 DUP5 DUP3 PUSH1 0x20 DUP7 ADD PUSH2 0x2A73 JUMP JUMPDEST SWAP2 POP POP SWAP3 SWAP2 POP POP JUMP JUMPDEST PUSH0 DUP1 PUSH0 PUSH1 0x60 DUP5 DUP7 SUB SLT ISZERO PUSH2 0x2AF8 JUMPI PUSH2 0x2AF7 PUSH2 0x26F3 JUMP JUMPDEST JUMPDEST PUSH0 PUSH2 0x2B05 DUP7 DUP3 DUP8 ADD PUSH2 0x2741 JUMP JUMPDEST SWAP4 POP POP PUSH1 0x20 PUSH2 0x2B16 DUP7 DUP3 DUP8 ADD PUSH2 0x2995 JUMP JUMPDEST SWAP3 POP POP PUSH1 0x40 DUP5 ADD CALLDATALOAD PUSH8 0xFFFFFFFFFFFFFFFF DUP2 GT ISZERO PUSH2 0x2B37 JUMPI PUSH2 0x2B36 PUSH2 0x26F7 JUMP JUMPDEST JUMPDEST PUSH2 0x2B43 DUP7 DUP3 DUP8 ADD PUSH2 0x2AB4 JUMP JUMPDEST SWAP2 POP POP SWAP3 POP SWAP3 POP SWAP3 JUMP JUMPDEST PUSH0 DUP2 MLOAD SWAP1 POP SWAP2 SWAP1 POP JUMP JUMPDEST PUSH0 DUP3 DUP3 MSTORE PUSH1 0x20 DUP3 ADD SWAP1 POP SWAP3 SWAP2 POP POP JUMP JUMPDEST PUSH0 JUMPDEST DUP4 DUP2 LT ISZERO PUSH2 0x2B84 JUMPI DUP1 DUP3 ADD MLOAD DUP2 DUP5 ADD MSTORE PUSH1 0x20 DUP2 ADD SWAP1 POP PUSH2 0x2B69 JUMP JUMPDEST PUSH0 DUP5 DUP5 ADD MSTORE POP POP POP POP JUMP JUMPDEST PUSH0 PUSH2 0x2B99 DUP3 PUSH2 0x2B4D JUMP JUMPDEST PUSH2 0x2BA3 DUP2 DUP6 PUSH2 0x2B57 JUMP JUMPDEST SWAP4 POP PUSH2 0x2BB3 DUP2 DUP6 PUSH1 0x20 DUP7 ADD PUSH2 0x2B67 JUMP JUMPDEST PUSH2 0x2BBC DUP2 PUSH2 0x29AD JUMP JUMPDEST DUP5 ADD SWAP2 POP POP SWAP3 SWAP2 POP POP JUMP JUMPDEST PUSH0 PUSH1 0x20 DUP3 ADD SWAP1 POP DUP2 DUP2 SUB PUSH0 DUP4 ADD MSTORE PUSH2 0x2BDF DUP2 DUP5 PUSH2 0x2B8F JUMP JUMPDEST SWAP1 POP SWAP3 SWAP2 POP POP JUMP JUMPDEST PUSH0 PUSH2 0x2BF1 DUP3 PUSH2 0x26FB JUMP JUMPDEST SWAP1 POP SWAP2 SWAP1 POP JUMP JUMPDEST PUSH2 0x2C01 DUP2 PUSH2 0x2BE7 JUMP JUMPDEST DUP2 EQ PUSH2 0x2C0B JUMPI PUSH0 DUP1 REVERT JUMPDEST POP JUMP JUMPDEST PUSH0 DUP2 CALLDATALOAD SWAP1 POP PUSH2 0x2C1C DUP2 PUSH2 0x2BF8 JUMP JUMPDEST SWAP3 SWAP2 POP POP JUMP JUMPDEST PUSH0 DUP1 PUSH1 0x40 DUP4 DUP6 SUB SLT ISZERO PUSH2 0x2C38 JUMPI PUSH2 0x2C37 PUSH2 0x26F3 JUMP JUMPDEST JUMPDEST PUSH0 PUSH2 0x2C45 DUP6 DUP3 DUP7 ADD PUSH2 0x2C0E JUMP JUMPDEST SWAP3 POP POP PUSH1 0x20 PUSH2 0x2C56 DUP6 DUP3 DUP7 ADD PUSH2 0x2995 JUMP JUMPDEST SWAP2 POP POP SWAP3 POP SWAP3 SWAP1 POP JUMP JUMPDEST PUSH0 DUP1 PUSH1 0x40 DUP4 DUP6 SUB SLT ISZERO PUSH2 0x2C76 JUMPI PUSH2 0x2C75 PUSH2 0x26F3 JUMP JUMPDEST JUMPDEST PUSH0 PUSH2 0x2C83 DUP6 DUP3 DUP7 ADD PUSH2 0x2741 JUMP JUMPDEST SWAP3 POP POP PUSH1 0x20 PUSH2 0x2C94 DUP6 DUP3 DUP7 ADD PUSH2 0x2741 JUMP JUMPDEST SWAP2 POP POP SWAP3 POP SWAP3 SWAP1 POP JUMP JUMPDEST PUSH0 PUSH1 0x20 DUP3 DUP5 SUB SLT ISZERO PUSH2 0x2CB3 JUMPI PUSH2 0x2CB2 PUSH2 0x26F3 JUMP JUMPDEST JUMPDEST PUSH0 PUSH2 0x2CC0 DUP5 DUP3 DUP6 ADD PUSH2 0x2995 JUMP JUMPDEST SWAP2 POP POP SWAP3 SWAP2 POP POP JUMP JUMPDEST PUSH0 DUP3 DUP3 MSTORE PUSH1 0x20 DUP3 ADD SWAP1 POP SWAP3 SWAP2 POP POP JUMP JUMPDEST PUSH32 0x4E6F7420417574686F72697A6564000000000000000000000000000000000000 PUSH0 DUP3 ADD MSTORE POP JUMP JUMPDEST PUSH0 PUSH2 0x2D0D PUSH1 0xE DUP4 PUSH2 0x2CC9 JUMP JUMPDEST SWAP2 POP PUSH2 0x2D18 DUP3 PUSH2 0x2CD9 JUMP JUMPDEST PUSH1 0x20 DUP3 ADD SWAP1 POP SWAP2 SWAP1 POP JUMP JUMPDEST PUSH0 PUSH1 0x20 DUP3 ADD SWAP1 POP DUP2 DUP2 SUB PUSH0 DUP4 ADD MSTORE PUSH2 0x2D3A DUP2 PUSH2 0x2D01 JUMP JUMPDEST SWAP1 POP SWAP2 SWAP1 POP JUMP JUMPDEST PUSH32 0x57616C6C6574206973206E6F7420696E205265636F76657279206D6F64650000 PUSH0 DUP3 ADD MSTORE POP JUMP JUMPDEST PUSH0 PUSH2 0x2D75 PUSH1 0x1E DUP4 PUSH2 0x2CC9 JUMP JUMPDEST SWAP2 POP PUSH2 0x2D80 DUP3 PUSH2 0x2D41 JUMP JUMPDEST PUSH1 0x20 DUP3 ADD SWAP1 POP SWAP2 SWAP1 POP JUMP JUMPDEST PUSH0 PUSH1 0x20 DUP3 ADD SWAP1 POP DUP2 DUP2 SUB PUSH0 DUP4 ADD MSTORE PUSH2 0x2DA2 DUP2 PUSH2 0x2D69 JUMP JUMPDEST SWAP1 POP SWAP2 SWAP1 POP JUMP JUMPDEST PUSH32 0x4F6E6C7920477561726469616E206861732061636365737320746F2074686973 PUSH0 DUP3 ADD MSTORE PUSH32 0x2072657175657374000000000000000000000000000000000000000000000000 PUSH1 0x20 DUP3 ADD MSTORE POP JUMP JUMPDEST PUSH0 PUSH2 0x2E03 PUSH1 0x28 DUP4 PUSH2 0x2CC9 JUMP JUMPDEST SWAP2 POP PUSH2 0x2E0E DUP3 PUSH2 0x2DA9 JUMP JUMPDEST PUSH1 0x40 DUP3 ADD SWAP1 POP SWAP2 SWAP1 POP JUMP JUMPDEST PUSH0 PUSH1 0x20 DUP3 ADD SWAP1 POP DUP2 DUP2 SUB PUSH0 DUP4 ADD MSTORE PUSH2 0x2E30 DUP2 PUSH2 0x2DF7 JUMP JUMPDEST SWAP1 POP SWAP2 SWAP1 POP JUMP JUMPDEST PUSH32 0x4578697374696E6720477561726469616E204368616E67652052657175657374 PUSH0 DUP3 ADD MSTORE PUSH32 0x20666F756E640000000000000000000000000000000000000000000000000000 PUSH1 0x20 DUP3 ADD MSTORE POP JUMP JUMPDEST PUSH0 PUSH2 0x2E91 PUSH1 0x26 DUP4 PUSH2 0x2CC9 JUMP JUMPDEST SWAP2 POP PUSH2 0x2E9C DUP3 PUSH2 0x2E37 JUMP JUMPDEST PUSH1 0x40 DUP3 ADD SWAP1 POP SWAP2 SWAP1 POP JUMP JUMPDEST PUSH0 PUSH1 0x20 DUP3 ADD SWAP1 POP DUP2 DUP2 SUB PUSH0 DUP4 ADD MSTORE PUSH2 0x2EBE DUP2 PUSH2 0x2E85 JUMP JUMPDEST SWAP1 POP SWAP2 SWAP1 POP JUMP JUMPDEST PUSH32 0x57616C6C657420697320696E205265636F76657279206D6F6465000000000000 PUSH0 DUP3 ADD MSTORE POP JUMP JUMPDEST PUSH0 PUSH2 0x2EF9 PUSH1 0x1A DUP4 PUSH2 0x2CC9 JUMP JUMPDEST SWAP2 POP PUSH2 0x2F04 DUP3 PUSH2 0x2EC5 JUMP JUMPDEST PUSH1 0x20 DUP3 ADD SWAP1 POP SWAP2 SWAP1 POP JUMP JUMPDEST PUSH0 PUSH1 0x20 DUP3 ADD SWAP1 POP DUP2 DUP2 SUB PUSH0 DUP4 ADD MSTORE PUSH2 0x2F26 DUP2 PUSH2 0x2EED JUMP JUMPDEST SWAP1 POP SWAP2 SWAP1 POP JUMP JUMPDEST PUSH32 0x4E6F2043757272656E7420477561726469616E205265717565737420666F756E PUSH0 DUP3 ADD MSTORE PUSH32 0x6400000000000000000000000000000000000000000000000000000000000000 PUSH1 0x20 DUP3 ADD MSTORE POP JUMP JUMPDEST PUSH0 PUSH2 0x2F87 PUSH1 0x21 DUP4 PUSH2 0x2CC9 JUMP JUMPDEST SWAP2 POP PUSH2 0x2F92 DUP3 PUSH2 0x2F2D JUMP JUMPDEST PUSH1 0x40 DUP3 ADD SWAP1 POP SWAP2 SWAP1 POP JUMP JUMPDEST PUSH0 PUSH1 0x20 DUP3 ADD SWAP1 POP DUP2 DUP2 SUB PUSH0 DUP4 ADD MSTORE PUSH2 0x2FB4 DUP2 PUSH2 0x2F7B JUMP JUMPDEST SWAP1 POP SWAP2 SWAP1 POP JUMP JUMPDEST PUSH32 0x477561726469616E205265717565737420697320616C72656164792055736564 PUSH0 DUP3 ADD MSTORE POP JUMP JUMPDEST PUSH0 PUSH2 0x2FEF PUSH1 0x20 DUP4 PUSH2 0x2CC9 JUMP JUMPDEST SWAP2 POP PUSH2 0x2FFA DUP3 PUSH2 0x2FBB JUMP JUMPDEST PUSH1 0x20 DUP3 ADD SWAP1 POP SWAP2 SWAP1 POP JUMP JUMPDEST PUSH0 PUSH1 0x20 DUP3 ADD SWAP1 POP DUP2 DUP2 SUB PUSH0 DUP4 ADD MSTORE PUSH2 0x301C DUP2 PUSH2 0x2FE3 JUMP JUMPDEST SWAP1 POP SWAP2 SWAP1 POP JUMP JUMPDEST PUSH32 0x6D6F726520677561726469616E7320726571756972656420746F207472616E73 PUSH0 DUP3 ADD MSTORE PUSH32 0x666572206F776E65727368697000000000000000000000000000000000000000 PUSH1 0x20 DUP3 ADD MSTORE POP JUMP JUMPDEST PUSH0 PUSH2 0x307D PUSH1 0x2D DUP4 PUSH2 0x2CC9 JUMP JUMPDEST SWAP2 POP PUSH2 0x3088 DUP3 PUSH2 0x3023 JUMP JUMPDEST PUSH1 0x40 DUP3 ADD SWAP1 POP SWAP2 SWAP1 POP JUMP JUMPDEST PUSH0 PUSH1 0x20 DUP3 ADD SWAP1 POP DUP2 DUP2 SUB PUSH0 DUP4 ADD MSTORE PUSH2 0x30AA DUP2 PUSH2 0x3071 JUMP JUMPDEST SWAP1 POP SWAP2 SWAP1 POP JUMP JUMPDEST PUSH32 0x4E487B7100000000000000000000000000000000000000000000000000000000 PUSH0 MSTORE PUSH1 0x32 PUSH1 0x4 MSTORE PUSH1 0x24 PUSH0 REVERT JUMPDEST PUSH32 0x726F756E64206D69736D61746368000000000000000000000000000000000000 PUSH0 DUP3 ADD MSTORE POP JUMP JUMPDEST PUSH0 PUSH2 0x3112 PUSH1 0xE DUP4 PUSH2 0x2CC9 JUMP JUMPDEST SWAP2 POP PUSH2 0x311D DUP3 PUSH2 0x30DE JUMP JUMPDEST PUSH1 0x20 DUP3 ADD SWAP1 POP SWAP2 SWAP1 POP JUMP JUMPDEST PUSH0 PUSH1 0x20 DUP3 ADD SWAP1 POP DUP2 DUP2 SUB PUSH0 DUP4 ADD MSTORE PUSH2 0x313F DUP2 PUSH2 0x3106 JUMP JUMPDEST SWAP1 POP SWAP2 SWAP1 POP JUMP JUMPDEST PUSH32 0x64697361677265656D656E74206F6E206E6577206F776E657200000000000000 PUSH0 DUP3 ADD MSTORE POP JUMP JUMPDEST PUSH0 PUSH2 0x317A PUSH1 0x19 DUP4 PUSH2 0x2CC9 JUMP JUMPDEST SWAP2 POP PUSH2 0x3185 DUP3 PUSH2 0x3146 JUMP JUMPDEST PUSH1 0x20 DUP3 ADD SWAP1 POP SWAP2 SWAP1 POP JUMP JUMPDEST PUSH0 PUSH1 0x20 DUP3 ADD SWAP1 POP DUP2 DUP2 SUB PUSH0 DUP4 ADD MSTORE PUSH2 0x31A7 DUP2 PUSH2 0x316E JUMP JUMPDEST SWAP1 POP SWAP2 SWAP1 POP JUMP JUMPDEST PUSH32 0x6475706C696361746520677561726469616E207573656420696E207265636F76 PUSH0 DUP3 ADD MSTORE PUSH32 0x6572790000000000000000000000000000000000000000000000000000000000 PUSH1 0x20 DUP3 ADD MSTORE POP JUMP JUMPDEST PUSH0 PUSH2 0x3208 PUSH1 0x23 DUP4 PUSH2 0x2CC9 JUMP JUMPDEST SWAP2 POP PUSH2 0x3213 DUP3 PUSH2 0x31AE JUMP JUMPDEST PUSH1 0x40 DUP3 ADD SWAP1 POP SWAP2 SWAP1 POP JUMP JUMPDEST PUSH0 PUSH1 0x20 DUP3 ADD SWAP1 POP DUP2 DUP2 SUB PUSH0 DUP4 ADD MSTORE PUSH2 0x3235 DUP2 PUSH2 0x31FC JUMP JUMPDEST SWAP1 POP SWAP2 SWAP1 POP JUMP JUMPDEST PUSH32 0x4E487B7100000000000000000000000000000000000000000000000000000000 PUSH0 MSTORE PUSH1 0x11 PUSH1 0x4 MSTORE PUSH1 0x24 PUSH0 REVERT JUMPDEST PUSH0 PUSH2 0x3273 DUP3 PUSH2 0x27B3 JUMP JUMPDEST SWAP2 POP PUSH32 0xFFFFFFFFFFFFFFFFFFFFFFFFFFFFFFFFFFFFFFFFFFFFFFFFFFFFFFFFFFFFFFFF DUP3 SUB PUSH2 0x32A5 JUMPI PUSH2 0x32A4 PUSH2 0x323C JUMP JUMPDEST JUMPDEST PUSH1 0x1 DUP3 ADD SWAP1 POP SWAP2 SWAP1 POP JUMP JUMPDEST PUSH0 PUSH1 0x40 DUP3 ADD SWAP1 POP PUSH2 0x32C3 PUSH0 DUP4 ADD DUP6 PUSH2 0x27E4 JUMP JUMPDEST PUSH2 0x32D0 PUSH1 0x20 DUP4 ADD DUP5 PUSH2 0x27E4 JUMP JUMPDEST SWAP4 SWAP3 POP POP POP JUMP JUMPDEST PUSH0 PUSH2 0x32E1 DUP3 PUSH2 0x27B3 JUMP JUMPDEST SWAP2 POP PUSH2 0x32EC DUP4 PUSH2 0x27B3 JUMP JUMPDEST SWAP3 POP DUP3 DUP3 ADD SWAP1 POP DUP1 DUP3 GT ISZERO PUSH2 0x3304 JUMPI PUSH2 0x3303 PUSH2 0x323C JUMP JUMPDEST JUMPDEST SWAP3 SWAP2 POP POP JUMP JUMPDEST PUSH0 DUP2 SWAP1 POP SWAP3 SWAP2 POP POP JUMP JUMPDEST PUSH0 PUSH2 0x331E DUP3 PUSH2 0x2B4D JUMP JUMPDEST PUSH2 0x3328 DUP2 DUP6 PUSH2 0x330A JUMP JUMPDEST SWAP4 POP PUSH2 0x3338 DUP2 DUP6 PUSH1 0x20 DUP7 ADD PUSH2 0x2B67 JUMP JUMPDEST DUP1 DUP5 ADD SWAP2 POP POP SWAP3 SWAP2 POP POP JUMP JUMPDEST PUSH0 PUSH2 0x334F DUP3 DUP5 PUSH2 0x3314 JUMP JUMPDEST SWAP2 POP DUP2 SWAP1 POP SWAP3 SWAP2 POP POP JUMP JUMPDEST PUSH32 0x436F6E74726163742043616C6C20526576657274656400000000000000000000 PUSH0 DUP3 ADD MSTORE POP JUMP JUMPDEST PUSH0 PUSH2 0x338E PUSH1 0x16 DUP4 PUSH2 0x2CC9 JUMP JUMPDEST SWAP2 POP PUSH2 0x3399 DUP3 PUSH2 0x335A JUMP JUMPDEST PUSH1 0x20 DUP3 ADD SWAP1 POP SWAP2 SWAP1 POP JUMP JUMPDEST PUSH0 PUSH1 0x20 DUP3 ADD SWAP1 POP DUP2 DUP2 SUB PUSH0 DUP4 ADD MSTORE PUSH2 0x33BB DUP2 PUSH2 0x3382 JUMP JUMPDEST SWAP1 POP SWAP2 SWAP1 POP JUMP JUMPDEST PUSH0 PUSH1 0x40 DUP3 ADD SWAP1 POP PUSH2 0x33D5 PUSH0 DUP4 ADD DUP6 PUSH2 0x27BC JUMP JUMPDEST DUP2 DUP2 SUB PUSH1 0x20 DUP4 ADD MSTORE PUSH2 0x33E7 DUP2 DUP5 PUSH2 0x2B8F JUMP JUMPDEST SWAP1 POP SWAP4 SWAP3 POP POP POP JUMP JUMPDEST PUSH32 0x5468726573686F6C64206D7573742062652067726561746572207468616E2031 PUSH0 DUP3 ADD MSTORE POP JUMP JUMPDEST PUSH0 PUSH2 0x3424 PUSH1 0x20 DUP4 PUSH2 0x2CC9 JUMP JUMPDEST SWAP2 POP PUSH2 0x342F DUP3 PUSH2 0x33F0 JUMP JUMPDEST PUSH1 0x20 DUP3 ADD SWAP1 POP SWAP2 SWAP1 POP JUMP JUMPDEST PUSH0 PUSH1 0x20 DUP3 ADD SWAP1 POP DUP2 DUP2 SUB PUSH0 DUP4 ADD MSTORE PUSH2 0x3451 DUP2 PUSH2 0x3418 JUMP JUMPDEST SWAP1 POP SWAP2 SWAP1 POP JUMP JUMPDEST PUSH32 0x4D696E696D756D206461797320746F206578656375746520636865636B206973 PUSH0 DUP3 ADD MSTORE PUSH32 0x2037000000000000000000000000000000000000000000000000000000000000 PUSH1 0x20 DUP3 ADD MSTORE POP JUMP JUMPDEST PUSH0 PUSH2 0x34B2 PUSH1 0x22 DUP4 PUSH2 0x2CC9 JUMP JUMPDEST SWAP2 POP PUSH2 0x34BD DUP3 PUSH2 0x3458 JUMP JUMPDEST PUSH1 0x40 DUP3 ADD SWAP1 POP SWAP2 SWAP1 POP JUMP JUMPDEST PUSH0 PUSH1 0x20 DUP3 ADD SWAP1 POP DUP2 DUP2 SUB PUSH0 DUP4 ADD MSTORE PUSH2 0x34DF DUP2 PUSH2 0x34A6 JUMP JUMPDEST SWAP1 POP SWAP2 SWAP1 POP JUMP JUMPDEST PUSH0 PUSH2 0x34F0 DUP3 PUSH2 0x27B3 JUMP JUMPDEST SWAP2 POP PUSH2 0x34FB DUP4 PUSH2 0x27B3 JUMP JUMPDEST SWAP3 POP DUP3 DUP3 MUL PUSH2 0x3509 DUP2 PUSH2 0x27B3 JUMP JUMPDEST SWAP2 POP DUP3 DUP3 DIV DUP5 EQ DUP4 ISZERO OR PUSH2 0x3520 JUMPI PUSH2 0x351F PUSH2 0x323C JUMP JUMPDEST JUMPDEST POP SWAP3 SWAP2 POP POP JUMP INVALID LOG2 PUSH5 0x6970667358 0x22 SLT KECCAK256 PUSH28 0xE7DA1E117580D5DF5D642468D06FDE5EF3257E12492D79D8E08AD989 0xC5 LOG0 ADDRESS PUSH5 0x736F6C6343 STOP ADDMOD EQ STOP CALLER "
				},
				"gasEstimates": {
					"creation": {
						"codeDepositCost": "2732200",
						"executionCost": "infinite",
						"totalCost": "infinite"
					},
					"external": {
						"AvailabilityCheckTimePeriod()": "2558",
						"addGuardian(address)": "infinite",
						"cancelGuardianshipTransfer()": "32332",
						"cancelRecovery()": "32466",
						"changeAvalabilityTimePeriod(uint256)": "infinite",
						"currRecoveryRound()": "2470",
						"editThreshold(uint256)": "32775",
						"executeGuardianAvailabilityCheck(address[])": "infinite",
						"executeGuardianshipTransfer(address)": "infinite",
						"executeRecovery(address,address[])": "infinite",
						"executeTx(address,uint256,bytes)": "infinite",
						"getBalance()": "402",
						"guardianChangeRequest(address)": "infinite",
						"guardianRecoveryRequest(address)": "infinite",
						"guardianToRemoveTimestamp(address)": "2869",
						"inGuardianRequest()": "2606",
						"inRecovery()": "2554",
						"initiateRecovery(address)": "infinite",
						"isGuardian(address)": "2879",
						"owner()": "2531",
						"supportAvailability()": "30126",
						"supportRecovery(address)": "infinite",
						"threshold()": "2559",
						"transfer(address,uint256)": "infinite",
						"transferGuardianship(address,address)": "infinite"
					}
				},
				"methodIdentifiers": {
					"AvailabilityCheckTimePeriod()": "89302f0e",
					"addGuardian(address)": "a526d83b",
					"cancelGuardianshipTransfer()": "a7b65d10",
					"cancelRecovery()": "0ba234d6",
					"changeAvalabilityTimePeriod(uint256)": "fad2286b",
					"currRecoveryRound()": "ace7c993",
					"editThreshold(uint256)": "ec71511d",
					"executeGuardianAvailabilityCheck(address[])": "5fc7f48b",
					"executeGuardianshipTransfer(address)": "5db0db7c",
					"executeRecovery(address,address[])": "5fc489a7",
					"executeTx(address,uint256,bytes)": "912365ea",
					"getBalance()": "12065fe0",
					"guardianChangeRequest(address)": "1e969523",
					"guardianRecoveryRequest(address)": "371bbdc1",
					"guardianToRemoveTimestamp(address)": "cfbba190",
					"inGuardianRequest()": "a643e812",
					"inRecovery()": "f05151df",
					"initiateRecovery(address)": "d5ce9aad",
					"isGuardian(address)": "0c68ba21",
					"owner()": "8da5cb5b",
					"supportAvailability()": "4a062ba9",
					"supportRecovery(address)": "57e685bc",
					"threshold()": "42cde4e8",
					"transfer(address,uint256)": "a9059cbb",
					"transferGuardianship(address,address)": "d3582164"
				}
			},
			"storageLayout": {
				"storage": [
					{
						"astId": 838,
						"contract": "contracts/BanklessWallet.sol:BanklessWallet",
						"label": "_status",
						"offset": 0,
						"slot": "0",
						"type": "t_uint256"
					},
					{
						"astId": 6,
						"contract": "contracts/BanklessWallet.sol:BanklessWallet",
						"label": "owner",
						"offset": 0,
						"slot": "1",
						"type": "t_address"
					},
					{
						"astId": 8,
						"contract": "contracts/BanklessWallet.sol:BanklessWallet",
						"label": "threshold",
						"offset": 0,
						"slot": "2",
						"type": "t_uint256"
					},
					{
						"astId": 12,
						"contract": "contracts/BanklessWallet.sol:BanklessWallet",
						"label": "isGuardian",
						"offset": 0,
						"slot": "3",
						"type": "t_mapping(t_address,t_bool)"
					},
					{
						"astId": 14,
						"contract": "contracts/BanklessWallet.sol:BanklessWallet",
						"label": "inRecovery",
						"offset": 0,
						"slot": "4",
						"type": "t_bool"
					},
					{
						"astId": 16,
						"contract": "contracts/BanklessWallet.sol:BanklessWallet",
						"label": "inGuardianRequest",
						"offset": 1,
						"slot": "4",
						"type": "t_bool"
					},
					{
						"astId": 18,
						"contract": "contracts/BanklessWallet.sol:BanklessWallet",
						"label": "currRecoveryRound",
						"offset": 0,
						"slot": "5",
						"type": "t_uint256"
					},
					{
						"astId": 30,
						"contract": "contracts/BanklessWallet.sol:BanklessWallet",
						"label": "guardianRecoveryRequest",
						"offset": 0,
						"slot": "6",
						"type": "t_mapping(t_address,t_struct(RecoveryRequest)25_storage)"
					},
					{
						"astId": 42,
						"contract": "contracts/BanklessWallet.sol:BanklessWallet",
						"label": "guardianChangeRequest",
						"offset": 0,
						"slot": "7",
						"type": "t_mapping(t_address,t_struct(GuardianRequest)37_storage)"
					},
					{
						"astId": 45,
						"contract": "contracts/BanklessWallet.sol:BanklessWallet",
						"label": "AvailabilityCheckTimePeriod",
						"offset": 0,
						"slot": "8",
						"type": "t_uint256"
					},
					{
						"astId": 49,
						"contract": "contracts/BanklessWallet.sol:BanklessWallet",
						"label": "guardianToRemoveTimestamp",
						"offset": 0,
						"slot": "9",
						"type": "t_mapping(t_address,t_uint256)"
					}
				],
				"types": {
					"t_address": {
						"encoding": "inplace",
						"label": "address",
						"numberOfBytes": "20"
					},
					"t_bool": {
						"encoding": "inplace",
						"label": "bool",
						"numberOfBytes": "1"
					},
					"t_mapping(t_address,t_bool)": {
						"encoding": "mapping",
						"key": "t_address",
						"label": "mapping(address => bool)",
						"numberOfBytes": "32",
						"value": "t_bool"
					},
					"t_mapping(t_address,t_struct(GuardianRequest)37_storage)": {
						"encoding": "mapping",
						"key": "t_address",
						"label": "mapping(address => struct BanklessWallet.GuardianRequest)",
						"numberOfBytes": "32",
						"value": "t_struct(GuardianRequest)37_storage"
					},
					"t_mapping(t_address,t_struct(RecoveryRequest)25_storage)": {
						"encoding": "mapping",
						"key": "t_address",
						"label": "mapping(address => struct BanklessWallet.RecoveryRequest)",
						"numberOfBytes": "32",
						"value": "t_struct(RecoveryRequest)25_storage"
					},
					"t_mapping(t_address,t_uint256)": {
						"encoding": "mapping",
						"key": "t_address",
						"label": "mapping(address => uint256)",
						"numberOfBytes": "32",
						"value": "t_uint256"
					},
					"t_struct(GuardianRequest)37_storage": {
						"encoding": "inplace",
						"label": "struct BanklessWallet.GuardianRequest",
						"members": [
							{
								"astId": 32,
								"contract": "contracts/BanklessWallet.sol:BanklessWallet",
								"label": "proposedGuardian",
								"offset": 0,
								"slot": "0",
								"type": "t_address"
							},
							{
								"astId": 34,
								"contract": "contracts/BanklessWallet.sol:BanklessWallet",
								"label": "guardianToChange",
								"offset": 0,
								"slot": "1",
								"type": "t_address"
							},
							{
								"astId": 36,
								"contract": "contracts/BanklessWallet.sol:BanklessWallet",
								"label": "isUsed",
								"offset": 20,
								"slot": "1",
								"type": "t_bool"
							}
						],
						"numberOfBytes": "64"
					},
					"t_struct(RecoveryRequest)25_storage": {
						"encoding": "inplace",
						"label": "struct BanklessWallet.RecoveryRequest",
						"members": [
							{
								"astId": 20,
								"contract": "contracts/BanklessWallet.sol:BanklessWallet",
								"label": "proposedOwner",
								"offset": 0,
								"slot": "0",
								"type": "t_address"
							},
							{
								"astId": 22,
								"contract": "contracts/BanklessWallet.sol:BanklessWallet",
								"label": "recoveryRound",
								"offset": 0,
								"slot": "1",
								"type": "t_uint256"
							},
							{
								"astId": 24,
								"contract": "contracts/BanklessWallet.sol:BanklessWallet",
								"label": "isUsed",
								"offset": 0,
								"slot": "2",
								"type": "t_bool"
							}
						],
						"numberOfBytes": "96"
					},
					"t_uint256": {
						"encoding": "inplace",
						"label": "uint256",
						"numberOfBytes": "32"
					}
				}
			},
			"userdoc": {
				"kind": "user",
				"methods": {},
				"version": 1
			}
		}
	}
}