{
	"contracts/BanklessWallet.sol": {
		"BanklessWallet": {
			"abi": [
				{
					"inputs": [
						{
							"internalType": "address",
							"name": "_owner",
							"type": "address"
						},
						{
							"internalType": "address[]",
							"name": "guardianAddr",
							"type": "address[]"
						},
						{
							"internalType": "uint256",
							"name": "_threshold",
							"type": "uint256"
						}
					],
					"stateMutability": "nonpayable",
					"type": "constructor"
				},
				{
					"inputs": [],
					"name": "ReentrancyGuardReentrantCall",
					"type": "error"
				},
				{
					"anonymous": false,
					"inputs": [
						{
							"indexed": false,
							"internalType": "address",
							"name": "by",
							"type": "address"
						}
					],
					"name": "GuardianshipRemovalExecuted",
					"type": "event"
				},
				{
					"anonymous": false,
					"inputs": [
						{
							"indexed": false,
							"internalType": "address",
							"name": "by",
							"type": "address"
						}
					],
					"name": "GuardianshipTransferCancelled",
					"type": "event"
				},
				{
					"anonymous": false,
					"inputs": [
						{
							"indexed": true,
							"internalType": "address",
							"name": "newGuardian",
							"type": "address"
						},
						{
							"indexed": false,
							"internalType": "address",
							"name": "oldGuardian",
							"type": "address"
						}
					],
					"name": "GuardianshipTransferExecuted",
					"type": "event"
				},
				{
					"anonymous": false,
					"inputs": [
						{
							"indexed": true,
							"internalType": "address",
							"name": "newGuardian",
							"type": "address"
						},
						{
							"indexed": false,
							"internalType": "address",
							"name": "oldGuardian",
							"type": "address"
						}
					],
					"name": "GuardianshipTransferInitiated",
					"type": "event"
				},
				{
					"anonymous": false,
					"inputs": [
						{
							"indexed": false,
							"internalType": "address",
							"name": "by",
							"type": "address"
						},
						{
							"indexed": true,
							"internalType": "uint256",
							"name": "round",
							"type": "uint256"
						}
					],
					"name": "RecoveryCancelled",
					"type": "event"
				},
				{
					"anonymous": false,
					"inputs": [
						{
							"indexed": false,
							"internalType": "address",
							"name": "oldOwner",
							"type": "address"
						},
						{
							"indexed": false,
							"internalType": "address",
							"name": "newOwner",
							"type": "address"
						},
						{
							"indexed": true,
							"internalType": "uint256",
							"name": "round",
							"type": "uint256"
						}
					],
					"name": "RecoveryExecuted",
					"type": "event"
				},
				{
					"anonymous": false,
					"inputs": [
						{
							"indexed": true,
							"internalType": "address",
							"name": "by",
							"type": "address"
						},
						{
							"indexed": false,
							"internalType": "address",
							"name": "newProposedOwner",
							"type": "address"
						},
						{
							"indexed": true,
							"internalType": "uint256",
							"name": "round",
							"type": "uint256"
						}
					],
					"name": "RecoveryInitiated",
					"type": "event"
				},
				{
					"anonymous": false,
					"inputs": [
						{
							"indexed": true,
							"internalType": "address",
							"name": "by",
							"type": "address"
						},
						{
							"indexed": false,
							"internalType": "address",
							"name": "newProposedOwner",
							"type": "address"
						},
						{
							"indexed": true,
							"internalType": "uint256",
							"name": "round",
							"type": "uint256"
						}
					],
					"name": "RecoverySupported",
					"type": "event"
				},
				{
					"anonymous": false,
					"inputs": [
						{
							"indexed": true,
							"internalType": "address",
							"name": "callee",
							"type": "address"
						},
						{
							"indexed": false,
							"internalType": "uint256",
							"name": "value",
							"type": "uint256"
						},
						{
							"indexed": false,
							"internalType": "bytes",
							"name": "data",
							"type": "bytes"
						}
					],
					"name": "TransactionExecuted",
					"type": "event"
				},
				{
					"anonymous": false,
					"inputs": [
						{
							"indexed": true,
							"internalType": "address",
							"name": "destination",
							"type": "address"
						},
						{
							"indexed": false,
							"internalType": "uint256",
							"name": "value",
							"type": "uint256"
						}
					],
					"name": "Transferred",
					"type": "event"
				},
				{
					"inputs": [],
					"name": "cancelGuardianshipTransfer",
					"outputs": [],
					"stateMutability": "nonpayable",
					"type": "function"
				},
				{
					"inputs": [],
					"name": "cancelRecovery",
					"outputs": [],
					"stateMutability": "nonpayable",
					"type": "function"
				},
				{
					"inputs": [],
					"name": "currRecoveryRound",
					"outputs": [
						{
							"internalType": "uint256",
							"name": "",
							"type": "uint256"
						}
					],
					"stateMutability": "view",
					"type": "function"
				},
				{
					"inputs": [
						{
							"internalType": "address",
							"name": "guardianHash",
							"type": "address"
						},
						{
							"internalType": "uint256",
							"name": "_threshold",
							"type": "uint256"
						}
					],
					"name": "executeGuardianRemoval",
					"outputs": [],
					"stateMutability": "nonpayable",
					"type": "function"
				},
				{
					"inputs": [
						{
							"internalType": "address",
							"name": "appellant",
							"type": "address"
						}
					],
					"name": "executeGuardianshipTransfer",
					"outputs": [],
					"stateMutability": "nonpayable",
					"type": "function"
				},
				{
					"inputs": [
						{
							"internalType": "address",
							"name": "newOwner",
							"type": "address"
						},
						{
							"internalType": "address[]",
							"name": "guardianList",
							"type": "address[]"
						}
					],
					"name": "executeRecovery",
					"outputs": [],
					"stateMutability": "nonpayable",
					"type": "function"
				},
				{
					"inputs": [
						{
							"internalType": "address",
							"name": "callee",
							"type": "address"
						},
						{
							"internalType": "uint256",
							"name": "value",
							"type": "uint256"
						},
						{
							"internalType": "bytes",
							"name": "data",
							"type": "bytes"
						}
					],
					"name": "executeTx",
					"outputs": [
						{
							"internalType": "bytes",
							"name": "",
							"type": "bytes"
						}
					],
					"stateMutability": "nonpayable",
					"type": "function"
				},
				{
					"inputs": [],
					"name": "getBalance",
					"outputs": [
						{
							"internalType": "uint256",
							"name": "",
							"type": "uint256"
						}
					],
					"stateMutability": "view",
					"type": "function"
				},
				{
					"inputs": [
						{
							"internalType": "address",
							"name": "",
							"type": "address"
						}
					],
					"name": "guardianChangeRequest",
					"outputs": [
						{
							"internalType": "address",
							"name": "proposedGuardian",
							"type": "address"
						},
						{
							"internalType": "address",
							"name": "guardianToChange",
							"type": "address"
						},
						{
							"internalType": "bool",
							"name": "isUsed",
							"type": "bool"
						}
					],
					"stateMutability": "view",
					"type": "function"
				},
				{
					"inputs": [
						{
							"internalType": "address",
							"name": "",
							"type": "address"
						}
					],
					"name": "guardianRecoveryRequest",
					"outputs": [
						{
							"internalType": "address",
							"name": "proposedOwner",
							"type": "address"
						},
						{
							"internalType": "uint256",
							"name": "recoveryRound",
							"type": "uint256"
						},
						{
							"internalType": "bool",
							"name": "isUsed",
							"type": "bool"
						}
					],
					"stateMutability": "view",
					"type": "function"
				},
				{
					"inputs": [],
					"name": "inGuardianRequest",
					"outputs": [
						{
							"internalType": "bool",
							"name": "",
							"type": "bool"
						}
					],
					"stateMutability": "view",
					"type": "function"
				},
				{
					"inputs": [],
					"name": "inRecovery",
					"outputs": [
						{
							"internalType": "bool",
							"name": "",
							"type": "bool"
						}
					],
					"stateMutability": "view",
					"type": "function"
				},
				{
					"inputs": [
						{
							"internalType": "address",
							"name": "_proposedOwner",
							"type": "address"
						}
					],
					"name": "initiateRecovery",
					"outputs": [],
					"stateMutability": "nonpayable",
					"type": "function"
				},
				{
					"inputs": [
						{
							"internalType": "address",
							"name": "",
							"type": "address"
						}
					],
					"name": "isGuardian",
					"outputs": [
						{
							"internalType": "bool",
							"name": "",
							"type": "bool"
						}
					],
					"stateMutability": "view",
					"type": "function"
				},
				{
					"inputs": [],
					"name": "owner",
					"outputs": [
						{
							"internalType": "address",
							"name": "",
							"type": "address"
						}
					],
					"stateMutability": "view",
					"type": "function"
				},
				{
					"inputs": [
						{
							"internalType": "address",
							"name": "_proposedOwner",
							"type": "address"
						}
					],
					"name": "supportRecovery",
					"outputs": [],
					"stateMutability": "nonpayable",
					"type": "function"
				},
				{
					"inputs": [],
					"name": "threshold",
					"outputs": [
						{
							"internalType": "uint256",
							"name": "",
							"type": "uint256"
						}
					],
					"stateMutability": "view",
					"type": "function"
				},
				{
					"inputs": [
						{
							"internalType": "address payable",
							"name": "destination",
							"type": "address"
						},
						{
							"internalType": "uint256",
							"name": "amount",
							"type": "uint256"
						}
					],
					"name": "transfer",
					"outputs": [],
					"stateMutability": "nonpayable",
					"type": "function"
				},
				{
					"inputs": [
						{
							"internalType": "address",
							"name": "guardianToChange",
							"type": "address"
						},
						{
							"internalType": "address",
							"name": "newGuardianHash",
							"type": "address"
						}
					],
					"name": "transferGuardianship",
					"outputs": [],
					"stateMutability": "nonpayable",
					"type": "function"
				}
			],
			"devdoc": {
				"errors": {
					"ReentrancyGuardReentrantCall()": [
						{
							"details": "Unauthorized reentrant call."
						}
					]
				},
				"kind": "dev",
				"methods": {},
				"version": 1
			},
			"evm": {
				"assembly": "    /* \"contracts/BanklessWallet.sol\":176:6612  contract BanklessWallet is ReentrancyGuard {... */\n  mstore(0x40, 0x80)\n    /* \"contracts/BanklessWallet.sol\":1537:1959  constructor(address _owner, address[] memory guardianAddr, uint256 _threshold){... */\n  callvalue\n  dup1\n  iszero\n  tag_1\n  jumpi\n  0x00\n  dup1\n  revert\ntag_1:\n  pop\n  mload(0x40)\n  sub(codesize, bytecodeSize)\n  dup1\n  bytecodeSize\n  dup4\n  codecopy\n  dup2\n  dup2\n  add\n  0x40\n  mstore\n  dup2\n  add\n  swap1\n  tag_2\n  swap2\n  swap1\n  tag_3\n  jump\t// in\ntag_2:\n    /* \"https://github.com/OpenZeppelin/openzeppelin-contracts/blob/master/contracts/utils/ReentrancyGuard.sol\":1713:1714  1 */\n  0x01\n    /* \"https://github.com/OpenZeppelin/openzeppelin-contracts/blob/master/contracts/utils/ReentrancyGuard.sol\":1917:1924  _status */\n  0x00\n    /* \"https://github.com/OpenZeppelin/openzeppelin-contracts/blob/master/contracts/utils/ReentrancyGuard.sol\":1917:1938  _status = NOT_ENTERED */\n  dup2\n  swap1\n  sstore\n  pop\n    /* \"contracts/BanklessWallet.sol\":1647:1659  guardianAddr */\n  dup2\n    /* \"contracts/BanklessWallet.sol\":1647:1666  guardianAddr.length */\n  mload\n    /* \"contracts/BanklessWallet.sol\":1633:1643  _threshold */\n  dup2\n    /* \"contracts/BanklessWallet.sol\":1633:1666  _threshold <= guardianAddr.length */\n  gt\n  iszero\n    /* \"contracts/BanklessWallet.sol\":1625:1692  require(_threshold <= guardianAddr.length, \"Threshold is too high\") */\n  tag_8\n  jumpi\n  mload(0x40)\n  0x08c379a000000000000000000000000000000000000000000000000000000000\n  dup2\n  mstore\n  0x04\n  add\n  tag_9\n  swap1\n  tag_10\n  jump\t// in\ntag_9:\n  mload(0x40)\n  dup1\n  swap2\n  sub\n  swap1\n  revert\ntag_8:\n    /* \"contracts/BanklessWallet.sol\":1708:1714  uint i */\n  0x00\n    /* \"contracts/BanklessWallet.sol\":1704:1888  for(uint i = 0; i < guardianAddr.length; i++) {... */\ntag_11:\n    /* \"contracts/BanklessWallet.sol\":1724:1736  guardianAddr */\n  dup3\n    /* \"contracts/BanklessWallet.sol\":1724:1743  guardianAddr.length */\n  mload\n    /* \"contracts/BanklessWallet.sol\":1720:1721  i */\n  dup2\n    /* \"contracts/BanklessWallet.sol\":1720:1743  i < guardianAddr.length */\n  lt\n    /* \"contracts/BanklessWallet.sol\":1704:1888  for(uint i = 0; i < guardianAddr.length; i++) {... */\n  iszero\n  tag_12\n  jumpi\n    /* \"contracts/BanklessWallet.sol\":1773:1783  isGuardian */\n  0x03\n    /* \"contracts/BanklessWallet.sol\":1773:1800  isGuardian[guardianAddr[i]] */\n  0x00\n    /* \"contracts/BanklessWallet.sol\":1784:1796  guardianAddr */\n  dup5\n    /* \"contracts/BanklessWallet.sol\":1797:1798  i */\n  dup4\n    /* \"contracts/BanklessWallet.sol\":1784:1799  guardianAddr[i] */\n  dup2\n  mload\n  dup2\n  lt\n  tag_14\n  jumpi\n  tag_15\n  tag_16\n  jump\t// in\ntag_15:\ntag_14:\n  0x20\n  mul\n  0x20\n  add\n  add\n  mload\n    /* \"contracts/BanklessWallet.sol\":1773:1800  isGuardian[guardianAddr[i]] */\n  0xffffffffffffffffffffffffffffffffffffffff\n  and\n  0xffffffffffffffffffffffffffffffffffffffff\n  and\n  dup2\n  mstore\n  0x20\n  add\n  swap1\n  dup2\n  mstore\n  0x20\n  add\n  0x00\n  keccak256\n  0x00\n  swap1\n  sload\n  swap1\n  0x0100\n  exp\n  swap1\n  div\n  0xff\n  and\n    /* \"contracts/BanklessWallet.sol\":1772:1800  !isGuardian[guardianAddr[i]] */\n  iszero\n    /* \"contracts/BanklessWallet.sol\":1764:1829  require(!isGuardian[guardianAddr[i]], \"Duplicate Guardian Found\") */\n  tag_17\n  jumpi\n  mload(0x40)\n  0x08c379a000000000000000000000000000000000000000000000000000000000\n  dup2\n  mstore\n  0x04\n  add\n  tag_18\n  swap1\n  tag_19\n  jump\t// in\ntag_18:\n  mload(0x40)\n  dup1\n  swap2\n  sub\n  swap1\n  revert\ntag_17:\n    /* \"contracts/BanklessWallet.sol\":1873:1877  true */\n  0x01\n    /* \"contracts/BanklessWallet.sol\":1843:1853  isGuardian */\n  0x03\n    /* \"contracts/BanklessWallet.sol\":1843:1870  isGuardian[guardianAddr[i]] */\n  0x00\n    /* \"contracts/BanklessWallet.sol\":1854:1866  guardianAddr */\n  dup6\n    /* \"contracts/BanklessWallet.sol\":1867:1868  i */\n  dup5\n    /* \"contracts/BanklessWallet.sol\":1854:1869  guardianAddr[i] */\n  dup2\n  mload\n  dup2\n  lt\n  tag_20\n  jumpi\n  tag_21\n  tag_16\n  jump\t// in\ntag_21:\ntag_20:\n  0x20\n  mul\n  0x20\n  add\n  add\n  mload\n    /* \"contracts/BanklessWallet.sol\":1843:1870  isGuardian[guardianAddr[i]] */\n  0xffffffffffffffffffffffffffffffffffffffff\n  and\n  0xffffffffffffffffffffffffffffffffffffffff\n  and\n  dup2\n  mstore\n  0x20\n  add\n  swap1\n  dup2\n  mstore\n  0x20\n  add\n  0x00\n  keccak256\n  0x00\n    /* \"contracts/BanklessWallet.sol\":1843:1877  isGuardian[guardianAddr[i]] = true */\n  0x0100\n  exp\n  dup2\n  sload\n  dup2\n  0xff\n  mul\n  not\n  and\n  swap1\n  dup4\n  iszero\n  iszero\n  mul\n  or\n  swap1\n  sstore\n  pop\n    /* \"contracts/BanklessWallet.sol\":1745:1748  i++ */\n  dup1\n  dup1\n  tag_22\n  swap1\n  tag_23\n  jump\t// in\ntag_22:\n  swap2\n  pop\n  pop\n    /* \"contracts/BanklessWallet.sol\":1704:1888  for(uint i = 0; i < guardianAddr.length; i++) {... */\n  jump(tag_11)\ntag_12:\n  pop\n    /* \"contracts/BanklessWallet.sol\":1918:1928  _threshold */\n  dup1\n    /* \"contracts/BanklessWallet.sol\":1906:1915  threshold */\n  0x02\n    /* \"contracts/BanklessWallet.sol\":1906:1928  threshold = _threshold */\n  dup2\n  swap1\n  sstore\n  pop\n    /* \"contracts/BanklessWallet.sol\":1946:1952  _owner */\n  dup3\n    /* \"contracts/BanklessWallet.sol\":1938:1943  owner */\n  0x01\n  0x00\n    /* \"contracts/BanklessWallet.sol\":1938:1952  owner = _owner */\n  0x0100\n  exp\n  dup2\n  sload\n  dup2\n  0xffffffffffffffffffffffffffffffffffffffff\n  mul\n  not\n  and\n  swap1\n  dup4\n  0xffffffffffffffffffffffffffffffffffffffff\n  and\n  mul\n  or\n  swap1\n  sstore\n  pop\n    /* \"contracts/BanklessWallet.sol\":1537:1959  constructor(address _owner, address[] memory guardianAddr, uint256 _threshold){... */\n  pop\n  pop\n  pop\n    /* \"contracts/BanklessWallet.sol\":176:6612  contract BanklessWallet is ReentrancyGuard {... */\n  jump(tag_24)\n    /* \"#utility.yul\":7:82   */\ntag_25:\n    /* \"#utility.yul\":40:46   */\n  0x00\n    /* \"#utility.yul\":73:75   */\n  0x40\n    /* \"#utility.yul\":67:76   */\n  mload\n    /* \"#utility.yul\":57:76   */\n  swap1\n  pop\n    /* \"#utility.yul\":7:82   */\n  swap1\n  jump\t// out\n    /* \"#utility.yul\":88:205   */\ntag_26:\n    /* \"#utility.yul\":197:198   */\n  0x00\n    /* \"#utility.yul\":194:195   */\n  dup1\n    /* \"#utility.yul\":187:199   */\n  revert\n    /* \"#utility.yul\":211:328   */\ntag_27:\n    /* \"#utility.yul\":320:321   */\n  0x00\n    /* \"#utility.yul\":317:318   */\n  dup1\n    /* \"#utility.yul\":310:322   */\n  revert\n    /* \"#utility.yul\":334:460   */\ntag_28:\n    /* \"#utility.yul\":371:378   */\n  0x00\n    /* \"#utility.yul\":411:453   */\n  0xffffffffffffffffffffffffffffffffffffffff\n    /* \"#utility.yul\":404:409   */\n  dup3\n    /* \"#utility.yul\":400:454   */\n  and\n    /* \"#utility.yul\":389:454   */\n  swap1\n  pop\n    /* \"#utility.yul\":334:460   */\n  swap2\n  swap1\n  pop\n  jump\t// out\n    /* \"#utility.yul\":466:562   */\ntag_29:\n    /* \"#utility.yul\":503:510   */\n  0x00\n    /* \"#utility.yul\":532:556   */\n  tag_56\n    /* \"#utility.yul\":550:555   */\n  dup3\n    /* \"#utility.yul\":532:556   */\n  tag_28\n  jump\t// in\ntag_56:\n    /* \"#utility.yul\":521:556   */\n  swap1\n  pop\n    /* \"#utility.yul\":466:562   */\n  swap2\n  swap1\n  pop\n  jump\t// out\n    /* \"#utility.yul\":568:690   */\ntag_30:\n    /* \"#utility.yul\":641:665   */\n  tag_58\n    /* \"#utility.yul\":659:664   */\n  dup2\n    /* \"#utility.yul\":641:665   */\n  tag_29\n  jump\t// in\ntag_58:\n    /* \"#utility.yul\":634:639   */\n  dup2\n    /* \"#utility.yul\":631:666   */\n  eq\n    /* \"#utility.yul\":621:684   */\n  tag_59\n  jumpi\n    /* \"#utility.yul\":680:681   */\n  0x00\n    /* \"#utility.yul\":677:678   */\n  dup1\n    /* \"#utility.yul\":670:682   */\n  revert\n    /* \"#utility.yul\":621:684   */\ntag_59:\n    /* \"#utility.yul\":568:690   */\n  pop\n  jump\t// out\n    /* \"#utility.yul\":696:839   */\ntag_31:\n    /* \"#utility.yul\":753:758   */\n  0x00\n    /* \"#utility.yul\":784:790   */\n  dup2\n    /* \"#utility.yul\":778:791   */\n  mload\n    /* \"#utility.yul\":769:791   */\n  swap1\n  pop\n    /* \"#utility.yul\":800:833   */\n  tag_61\n    /* \"#utility.yul\":827:832   */\n  dup2\n    /* \"#utility.yul\":800:833   */\n  tag_30\n  jump\t// in\ntag_61:\n    /* \"#utility.yul\":696:839   */\n  swap3\n  swap2\n  pop\n  pop\n  jump\t// out\n    /* \"#utility.yul\":845:962   */\ntag_32:\n    /* \"#utility.yul\":954:955   */\n  0x00\n    /* \"#utility.yul\":951:952   */\n  dup1\n    /* \"#utility.yul\":944:956   */\n  revert\n    /* \"#utility.yul\":968:1070   */\ntag_33:\n    /* \"#utility.yul\":1009:1015   */\n  0x00\n    /* \"#utility.yul\":1060:1062   */\n  0x1f\n    /* \"#utility.yul\":1056:1063   */\n  not\n    /* \"#utility.yul\":1051:1053   */\n  0x1f\n    /* \"#utility.yul\":1044:1049   */\n  dup4\n    /* \"#utility.yul\":1040:1054   */\n  add\n    /* \"#utility.yul\":1036:1064   */\n  and\n    /* \"#utility.yul\":1026:1064   */\n  swap1\n  pop\n    /* \"#utility.yul\":968:1070   */\n  swap2\n  swap1\n  pop\n  jump\t// out\n    /* \"#utility.yul\":1076:1256   */\ntag_34:\n    /* \"#utility.yul\":1124:1201   */\n  0x4e487b7100000000000000000000000000000000000000000000000000000000\n    /* \"#utility.yul\":1121:1122   */\n  0x00\n    /* \"#utility.yul\":1114:1202   */\n  mstore\n    /* \"#utility.yul\":1221:1225   */\n  0x41\n    /* \"#utility.yul\":1218:1219   */\n  0x04\n    /* \"#utility.yul\":1211:1226   */\n  mstore\n    /* \"#utility.yul\":1245:1249   */\n  0x24\n    /* \"#utility.yul\":1242:1243   */\n  0x00\n    /* \"#utility.yul\":1235:1250   */\n  revert\n    /* \"#utility.yul\":1262:1543   */\ntag_35:\n    /* \"#utility.yul\":1345:1372   */\n  tag_66\n    /* \"#utility.yul\":1367:1371   */\n  dup3\n    /* \"#utility.yul\":1345:1372   */\n  tag_33\n  jump\t// in\ntag_66:\n    /* \"#utility.yul\":1337:1343   */\n  dup2\n    /* \"#utility.yul\":1333:1373   */\n  add\n    /* \"#utility.yul\":1475:1481   */\n  dup2\n    /* \"#utility.yul\":1463:1473   */\n  dup2\n    /* \"#utility.yul\":1460:1482   */\n  lt\n    /* \"#utility.yul\":1439:1457   */\n  0xffffffffffffffff\n    /* \"#utility.yul\":1427:1437   */\n  dup3\n    /* \"#utility.yul\":1424:1458   */\n  gt\n    /* \"#utility.yul\":1421:1483   */\n  or\n    /* \"#utility.yul\":1418:1506   */\n  iszero\n  tag_67\n  jumpi\n    /* \"#utility.yul\":1486:1504   */\n  tag_68\n  tag_34\n  jump\t// in\ntag_68:\n    /* \"#utility.yul\":1418:1506   */\ntag_67:\n    /* \"#utility.yul\":1526:1536   */\n  dup1\n    /* \"#utility.yul\":1522:1524   */\n  0x40\n    /* \"#utility.yul\":1515:1537   */\n  mstore\n    /* \"#utility.yul\":1305:1543   */\n  pop\n    /* \"#utility.yul\":1262:1543   */\n  pop\n  pop\n  jump\t// out\n    /* \"#utility.yul\":1549:1678   */\ntag_36:\n    /* \"#utility.yul\":1583:1589   */\n  0x00\n    /* \"#utility.yul\":1610:1630   */\n  tag_70\n  tag_25\n  jump\t// in\ntag_70:\n    /* \"#utility.yul\":1600:1630   */\n  swap1\n  pop\n    /* \"#utility.yul\":1639:1672   */\n  tag_71\n    /* \"#utility.yul\":1667:1671   */\n  dup3\n    /* \"#utility.yul\":1659:1665   */\n  dup3\n    /* \"#utility.yul\":1639:1672   */\n  tag_35\n  jump\t// in\ntag_71:\n    /* \"#utility.yul\":1549:1678   */\n  swap2\n  swap1\n  pop\n  jump\t// out\n    /* \"#utility.yul\":1684:1995   */\ntag_37:\n    /* \"#utility.yul\":1761:1765   */\n  0x00\n    /* \"#utility.yul\":1851:1869   */\n  0xffffffffffffffff\n    /* \"#utility.yul\":1843:1849   */\n  dup3\n    /* \"#utility.yul\":1840:1870   */\n  gt\n    /* \"#utility.yul\":1837:1893   */\n  iszero\n  tag_73\n  jumpi\n    /* \"#utility.yul\":1873:1891   */\n  tag_74\n  tag_34\n  jump\t// in\ntag_74:\n    /* \"#utility.yul\":1837:1893   */\ntag_73:\n    /* \"#utility.yul\":1923:1927   */\n  0x20\n    /* \"#utility.yul\":1915:1921   */\n  dup3\n    /* \"#utility.yul\":1911:1928   */\n  mul\n    /* \"#utility.yul\":1903:1928   */\n  swap1\n  pop\n    /* \"#utility.yul\":1983:1987   */\n  0x20\n    /* \"#utility.yul\":1977:1981   */\n  dup2\n    /* \"#utility.yul\":1973:1988   */\n  add\n    /* \"#utility.yul\":1965:1988   */\n  swap1\n  pop\n    /* \"#utility.yul\":1684:1995   */\n  swap2\n  swap1\n  pop\n  jump\t// out\n    /* \"#utility.yul\":2001:2118   */\ntag_38:\n    /* \"#utility.yul\":2110:2111   */\n  0x00\n    /* \"#utility.yul\":2107:2108   */\n  dup1\n    /* \"#utility.yul\":2100:2112   */\n  revert\n    /* \"#utility.yul\":2141:2873   */\ntag_39:\n    /* \"#utility.yul\":2248:2253   */\n  0x00\n    /* \"#utility.yul\":2273:2354   */\n  tag_77\n    /* \"#utility.yul\":2289:2353   */\n  tag_78\n    /* \"#utility.yul\":2346:2352   */\n  dup5\n    /* \"#utility.yul\":2289:2353   */\n  tag_37\n  jump\t// in\ntag_78:\n    /* \"#utility.yul\":2273:2354   */\n  tag_36\n  jump\t// in\ntag_77:\n    /* \"#utility.yul\":2264:2354   */\n  swap1\n  pop\n    /* \"#utility.yul\":2374:2379   */\n  dup1\n    /* \"#utility.yul\":2403:2409   */\n  dup4\n    /* \"#utility.yul\":2396:2401   */\n  dup3\n    /* \"#utility.yul\":2389:2410   */\n  mstore\n    /* \"#utility.yul\":2437:2441   */\n  0x20\n    /* \"#utility.yul\":2430:2435   */\n  dup3\n    /* \"#utility.yul\":2426:2442   */\n  add\n    /* \"#utility.yul\":2419:2442   */\n  swap1\n  pop\n    /* \"#utility.yul\":2490:2494   */\n  0x20\n    /* \"#utility.yul\":2482:2488   */\n  dup5\n    /* \"#utility.yul\":2478:2495   */\n  mul\n    /* \"#utility.yul\":2470:2476   */\n  dup4\n    /* \"#utility.yul\":2466:2496   */\n  add\n    /* \"#utility.yul\":2519:2522   */\n  dup6\n    /* \"#utility.yul\":2511:2517   */\n  dup2\n    /* \"#utility.yul\":2508:2523   */\n  gt\n    /* \"#utility.yul\":2505:2627   */\n  iszero\n  tag_79\n  jumpi\n    /* \"#utility.yul\":2538:2617   */\n  tag_80\n  tag_38\n  jump\t// in\ntag_80:\n    /* \"#utility.yul\":2505:2627   */\ntag_79:\n    /* \"#utility.yul\":2653:2659   */\n  dup4\n    /* \"#utility.yul\":2636:2867   */\ntag_81:\n    /* \"#utility.yul\":2670:2676   */\n  dup2\n    /* \"#utility.yul\":2665:2668   */\n  dup2\n    /* \"#utility.yul\":2662:2677   */\n  lt\n    /* \"#utility.yul\":2636:2867   */\n  iszero\n  tag_83\n  jumpi\n    /* \"#utility.yul\":2745:2748   */\n  dup1\n    /* \"#utility.yul\":2774:2822   */\n  tag_84\n    /* \"#utility.yul\":2818:2821   */\n  dup9\n    /* \"#utility.yul\":2806:2816   */\n  dup3\n    /* \"#utility.yul\":2774:2822   */\n  tag_31\n  jump\t// in\ntag_84:\n    /* \"#utility.yul\":2769:2772   */\n  dup5\n    /* \"#utility.yul\":2762:2823   */\n  mstore\n    /* \"#utility.yul\":2852:2856   */\n  0x20\n    /* \"#utility.yul\":2847:2850   */\n  dup5\n    /* \"#utility.yul\":2843:2857   */\n  add\n    /* \"#utility.yul\":2836:2857   */\n  swap4\n  pop\n    /* \"#utility.yul\":2712:2867   */\n  pop\n    /* \"#utility.yul\":2696:2700   */\n  0x20\n    /* \"#utility.yul\":2691:2694   */\n  dup2\n    /* \"#utility.yul\":2687:2701   */\n  add\n    /* \"#utility.yul\":2680:2701   */\n  swap1\n  pop\n    /* \"#utility.yul\":2636:2867   */\n  jump(tag_81)\ntag_83:\n    /* \"#utility.yul\":2640:2661   */\n  pop\n    /* \"#utility.yul\":2254:2873   */\n  pop\n  pop\n    /* \"#utility.yul\":2141:2873   */\n  swap4\n  swap3\n  pop\n  pop\n  pop\n  jump\t// out\n    /* \"#utility.yul\":2896:3281   */\ntag_40:\n    /* \"#utility.yul\":2978:2983   */\n  0x00\n    /* \"#utility.yul\":3027:3030   */\n  dup3\n    /* \"#utility.yul\":3020:3024   */\n  0x1f\n    /* \"#utility.yul\":3012:3018   */\n  dup4\n    /* \"#utility.yul\":3008:3025   */\n  add\n    /* \"#utility.yul\":3004:3031   */\n  slt\n    /* \"#utility.yul\":2994:3116   */\n  tag_86\n  jumpi\n    /* \"#utility.yul\":3035:3114   */\n  tag_87\n  tag_32\n  jump\t// in\ntag_87:\n    /* \"#utility.yul\":2994:3116   */\ntag_86:\n    /* \"#utility.yul\":3145:3151   */\n  dup2\n    /* \"#utility.yul\":3139:3152   */\n  mload\n    /* \"#utility.yul\":3170:3275   */\n  tag_88\n    /* \"#utility.yul\":3271:3274   */\n  dup5\n    /* \"#utility.yul\":3263:3269   */\n  dup3\n    /* \"#utility.yul\":3256:3260   */\n  0x20\n    /* \"#utility.yul\":3248:3254   */\n  dup7\n    /* \"#utility.yul\":3244:3261   */\n  add\n    /* \"#utility.yul\":3170:3275   */\n  tag_39\n  jump\t// in\ntag_88:\n    /* \"#utility.yul\":3161:3275   */\n  swap2\n  pop\n    /* \"#utility.yul\":2984:3281   */\n  pop\n    /* \"#utility.yul\":2896:3281   */\n  swap3\n  swap2\n  pop\n  pop\n  jump\t// out\n    /* \"#utility.yul\":3287:3364   */\ntag_41:\n    /* \"#utility.yul\":3324:3331   */\n  0x00\n    /* \"#utility.yul\":3353:3358   */\n  dup2\n    /* \"#utility.yul\":3342:3358   */\n  swap1\n  pop\n    /* \"#utility.yul\":3287:3364   */\n  swap2\n  swap1\n  pop\n  jump\t// out\n    /* \"#utility.yul\":3370:3492   */\ntag_42:\n    /* \"#utility.yul\":3443:3467   */\n  tag_91\n    /* \"#utility.yul\":3461:3466   */\n  dup2\n    /* \"#utility.yul\":3443:3467   */\n  tag_41\n  jump\t// in\ntag_91:\n    /* \"#utility.yul\":3436:3441   */\n  dup2\n    /* \"#utility.yul\":3433:3468   */\n  eq\n    /* \"#utility.yul\":3423:3486   */\n  tag_92\n  jumpi\n    /* \"#utility.yul\":3482:3483   */\n  0x00\n    /* \"#utility.yul\":3479:3480   */\n  dup1\n    /* \"#utility.yul\":3472:3484   */\n  revert\n    /* \"#utility.yul\":3423:3486   */\ntag_92:\n    /* \"#utility.yul\":3370:3492   */\n  pop\n  jump\t// out\n    /* \"#utility.yul\":3498:3641   */\ntag_43:\n    /* \"#utility.yul\":3555:3560   */\n  0x00\n    /* \"#utility.yul\":3586:3592   */\n  dup2\n    /* \"#utility.yul\":3580:3593   */\n  mload\n    /* \"#utility.yul\":3571:3593   */\n  swap1\n  pop\n    /* \"#utility.yul\":3602:3635   */\n  tag_94\n    /* \"#utility.yul\":3629:3634   */\n  dup2\n    /* \"#utility.yul\":3602:3635   */\n  tag_42\n  jump\t// in\ntag_94:\n    /* \"#utility.yul\":3498:3641   */\n  swap3\n  swap2\n  pop\n  pop\n  jump\t// out\n    /* \"#utility.yul\":3647:4513   */\ntag_3:\n    /* \"#utility.yul\":3760:3766   */\n  0x00\n    /* \"#utility.yul\":3768:3774   */\n  dup1\n    /* \"#utility.yul\":3776:3782   */\n  0x00\n    /* \"#utility.yul\":3825:3827   */\n  0x60\n    /* \"#utility.yul\":3813:3822   */\n  dup5\n    /* \"#utility.yul\":3804:3811   */\n  dup7\n    /* \"#utility.yul\":3800:3823   */\n  sub\n    /* \"#utility.yul\":3796:3828   */\n  slt\n    /* \"#utility.yul\":3793:3912   */\n  iszero\n  tag_96\n  jumpi\n    /* \"#utility.yul\":3831:3910   */\n  tag_97\n  tag_26\n  jump\t// in\ntag_97:\n    /* \"#utility.yul\":3793:3912   */\ntag_96:\n    /* \"#utility.yul\":3951:3952   */\n  0x00\n    /* \"#utility.yul\":3976:4040   */\n  tag_98\n    /* \"#utility.yul\":4032:4039   */\n  dup7\n    /* \"#utility.yul\":4023:4029   */\n  dup3\n    /* \"#utility.yul\":4012:4021   */\n  dup8\n    /* \"#utility.yul\":4008:4030   */\n  add\n    /* \"#utility.yul\":3976:4040   */\n  tag_31\n  jump\t// in\ntag_98:\n    /* \"#utility.yul\":3966:4040   */\n  swap4\n  pop\n    /* \"#utility.yul\":3922:4050   */\n  pop\n    /* \"#utility.yul\":4110:4112   */\n  0x20\n    /* \"#utility.yul\":4099:4108   */\n  dup5\n    /* \"#utility.yul\":4095:4113   */\n  add\n    /* \"#utility.yul\":4089:4114   */\n  mload\n    /* \"#utility.yul\":4141:4159   */\n  0xffffffffffffffff\n    /* \"#utility.yul\":4133:4139   */\n  dup2\n    /* \"#utility.yul\":4130:4160   */\n  gt\n    /* \"#utility.yul\":4127:4244   */\n  iszero\n  tag_99\n  jumpi\n    /* \"#utility.yul\":4163:4242   */\n  tag_100\n  tag_27\n  jump\t// in\ntag_100:\n    /* \"#utility.yul\":4127:4244   */\ntag_99:\n    /* \"#utility.yul\":4268:4357   */\n  tag_101\n    /* \"#utility.yul\":4349:4356   */\n  dup7\n    /* \"#utility.yul\":4340:4346   */\n  dup3\n    /* \"#utility.yul\":4329:4338   */\n  dup8\n    /* \"#utility.yul\":4325:4347   */\n  add\n    /* \"#utility.yul\":4268:4357   */\n  tag_40\n  jump\t// in\ntag_101:\n    /* \"#utility.yul\":4258:4357   */\n  swap3\n  pop\n    /* \"#utility.yul\":4060:4367   */\n  pop\n    /* \"#utility.yul\":4406:4408   */\n  0x40\n    /* \"#utility.yul\":4432:4496   */\n  tag_102\n    /* \"#utility.yul\":4488:4495   */\n  dup7\n    /* \"#utility.yul\":4479:4485   */\n  dup3\n    /* \"#utility.yul\":4468:4477   */\n  dup8\n    /* \"#utility.yul\":4464:4486   */\n  add\n    /* \"#utility.yul\":4432:4496   */\n  tag_43\n  jump\t// in\ntag_102:\n    /* \"#utility.yul\":4422:4496   */\n  swap2\n  pop\n    /* \"#utility.yul\":4377:4506   */\n  pop\n    /* \"#utility.yul\":3647:4513   */\n  swap3\n  pop\n  swap3\n  pop\n  swap3\n  jump\t// out\n    /* \"#utility.yul\":4519:4688   */\ntag_44:\n    /* \"#utility.yul\":4603:4614   */\n  0x00\n    /* \"#utility.yul\":4637:4643   */\n  dup3\n    /* \"#utility.yul\":4632:4635   */\n  dup3\n    /* \"#utility.yul\":4625:4644   */\n  mstore\n    /* \"#utility.yul\":4677:4681   */\n  0x20\n    /* \"#utility.yul\":4672:4675   */\n  dup3\n    /* \"#utility.yul\":4668:4682   */\n  add\n    /* \"#utility.yul\":4653:4682   */\n  swap1\n  pop\n    /* \"#utility.yul\":4519:4688   */\n  swap3\n  swap2\n  pop\n  pop\n  jump\t// out\n    /* \"#utility.yul\":4694:4865   */\ntag_45:\n    /* \"#utility.yul\":4834:4857   */\n  0x5468726573686f6c6420697320746f6f20686967680000000000000000000000\n    /* \"#utility.yul\":4830:4831   */\n  0x00\n    /* \"#utility.yul\":4822:4828   */\n  dup3\n    /* \"#utility.yul\":4818:4832   */\n  add\n    /* \"#utility.yul\":4811:4858   */\n  mstore\n    /* \"#utility.yul\":4694:4865   */\n  pop\n  jump\t// out\n    /* \"#utility.yul\":4871:5237   */\ntag_46:\n    /* \"#utility.yul\":5013:5016   */\n  0x00\n    /* \"#utility.yul\":5034:5101   */\n  tag_106\n    /* \"#utility.yul\":5098:5100   */\n  0x15\n    /* \"#utility.yul\":5093:5096   */\n  dup4\n    /* \"#utility.yul\":5034:5101   */\n  tag_44\n  jump\t// in\ntag_106:\n    /* \"#utility.yul\":5027:5101   */\n  swap2\n  pop\n    /* \"#utility.yul\":5110:5203   */\n  tag_107\n    /* \"#utility.yul\":5199:5202   */\n  dup3\n    /* \"#utility.yul\":5110:5203   */\n  tag_45\n  jump\t// in\ntag_107:\n    /* \"#utility.yul\":5228:5230   */\n  0x20\n    /* \"#utility.yul\":5223:5226   */\n  dup3\n    /* \"#utility.yul\":5219:5231   */\n  add\n    /* \"#utility.yul\":5212:5231   */\n  swap1\n  pop\n    /* \"#utility.yul\":4871:5237   */\n  swap2\n  swap1\n  pop\n  jump\t// out\n    /* \"#utility.yul\":5243:5662   */\ntag_10:\n    /* \"#utility.yul\":5409:5413   */\n  0x00\n    /* \"#utility.yul\":5447:5449   */\n  0x20\n    /* \"#utility.yul\":5436:5445   */\n  dup3\n    /* \"#utility.yul\":5432:5450   */\n  add\n    /* \"#utility.yul\":5424:5450   */\n  swap1\n  pop\n    /* \"#utility.yul\":5496:5505   */\n  dup2\n    /* \"#utility.yul\":5490:5494   */\n  dup2\n    /* \"#utility.yul\":5486:5506   */\n  sub\n    /* \"#utility.yul\":5482:5483   */\n  0x00\n    /* \"#utility.yul\":5471:5480   */\n  dup4\n    /* \"#utility.yul\":5467:5484   */\n  add\n    /* \"#utility.yul\":5460:5507   */\n  mstore\n    /* \"#utility.yul\":5524:5655   */\n  tag_109\n    /* \"#utility.yul\":5650:5654   */\n  dup2\n    /* \"#utility.yul\":5524:5655   */\n  tag_46\n  jump\t// in\ntag_109:\n    /* \"#utility.yul\":5516:5655   */\n  swap1\n  pop\n    /* \"#utility.yul\":5243:5662   */\n  swap2\n  swap1\n  pop\n  jump\t// out\n    /* \"#utility.yul\":5668:5848   */\ntag_16:\n    /* \"#utility.yul\":5716:5793   */\n  0x4e487b7100000000000000000000000000000000000000000000000000000000\n    /* \"#utility.yul\":5713:5714   */\n  0x00\n    /* \"#utility.yul\":5706:5794   */\n  mstore\n    /* \"#utility.yul\":5813:5817   */\n  0x32\n    /* \"#utility.yul\":5810:5811   */\n  0x04\n    /* \"#utility.yul\":5803:5818   */\n  mstore\n    /* \"#utility.yul\":5837:5841   */\n  0x24\n    /* \"#utility.yul\":5834:5835   */\n  0x00\n    /* \"#utility.yul\":5827:5842   */\n  revert\n    /* \"#utility.yul\":5854:6028   */\ntag_47:\n    /* \"#utility.yul\":5994:6020   */\n  0x4475706c696361746520477561726469616e20466f756e640000000000000000\n    /* \"#utility.yul\":5990:5991   */\n  0x00\n    /* \"#utility.yul\":5982:5988   */\n  dup3\n    /* \"#utility.yul\":5978:5992   */\n  add\n    /* \"#utility.yul\":5971:6021   */\n  mstore\n    /* \"#utility.yul\":5854:6028   */\n  pop\n  jump\t// out\n    /* \"#utility.yul\":6034:6400   */\ntag_48:\n    /* \"#utility.yul\":6176:6179   */\n  0x00\n    /* \"#utility.yul\":6197:6264   */\n  tag_113\n    /* \"#utility.yul\":6261:6263   */\n  0x18\n    /* \"#utility.yul\":6256:6259   */\n  dup4\n    /* \"#utility.yul\":6197:6264   */\n  tag_44\n  jump\t// in\ntag_113:\n    /* \"#utility.yul\":6190:6264   */\n  swap2\n  pop\n    /* \"#utility.yul\":6273:6366   */\n  tag_114\n    /* \"#utility.yul\":6362:6365   */\n  dup3\n    /* \"#utility.yul\":6273:6366   */\n  tag_47\n  jump\t// in\ntag_114:\n    /* \"#utility.yul\":6391:6393   */\n  0x20\n    /* \"#utility.yul\":6386:6389   */\n  dup3\n    /* \"#utility.yul\":6382:6394   */\n  add\n    /* \"#utility.yul\":6375:6394   */\n  swap1\n  pop\n    /* \"#utility.yul\":6034:6400   */\n  swap2\n  swap1\n  pop\n  jump\t// out\n    /* \"#utility.yul\":6406:6825   */\ntag_19:\n    /* \"#utility.yul\":6572:6576   */\n  0x00\n    /* \"#utility.yul\":6610:6612   */\n  0x20\n    /* \"#utility.yul\":6599:6608   */\n  dup3\n    /* \"#utility.yul\":6595:6613   */\n  add\n    /* \"#utility.yul\":6587:6613   */\n  swap1\n  pop\n    /* \"#utility.yul\":6659:6668   */\n  dup2\n    /* \"#utility.yul\":6653:6657   */\n  dup2\n    /* \"#utility.yul\":6649:6669   */\n  sub\n    /* \"#utility.yul\":6645:6646   */\n  0x00\n    /* \"#utility.yul\":6634:6643   */\n  dup4\n    /* \"#utility.yul\":6630:6647   */\n  add\n    /* \"#utility.yul\":6623:6670   */\n  mstore\n    /* \"#utility.yul\":6687:6818   */\n  tag_116\n    /* \"#utility.yul\":6813:6817   */\n  dup2\n    /* \"#utility.yul\":6687:6818   */\n  tag_48\n  jump\t// in\ntag_116:\n    /* \"#utility.yul\":6679:6818   */\n  swap1\n  pop\n    /* \"#utility.yul\":6406:6825   */\n  swap2\n  swap1\n  pop\n  jump\t// out\n    /* \"#utility.yul\":6831:7011   */\ntag_49:\n    /* \"#utility.yul\":6879:6956   */\n  0x4e487b7100000000000000000000000000000000000000000000000000000000\n    /* \"#utility.yul\":6876:6877   */\n  0x00\n    /* \"#utility.yul\":6869:6957   */\n  mstore\n    /* \"#utility.yul\":6976:6980   */\n  0x11\n    /* \"#utility.yul\":6973:6974   */\n  0x04\n    /* \"#utility.yul\":6966:6981   */\n  mstore\n    /* \"#utility.yul\":7000:7004   */\n  0x24\n    /* \"#utility.yul\":6997:6998   */\n  0x00\n    /* \"#utility.yul\":6990:7005   */\n  revert\n    /* \"#utility.yul\":7017:7250   */\ntag_23:\n    /* \"#utility.yul\":7056:7059   */\n  0x00\n    /* \"#utility.yul\":7079:7103   */\n  tag_119\n    /* \"#utility.yul\":7097:7102   */\n  dup3\n    /* \"#utility.yul\":7079:7103   */\n  tag_41\n  jump\t// in\ntag_119:\n    /* \"#utility.yul\":7070:7103   */\n  swap2\n  pop\n    /* \"#utility.yul\":7125:7191   */\n  0xffffffffffffffffffffffffffffffffffffffffffffffffffffffffffffffff\n    /* \"#utility.yul\":7118:7123   */\n  dup3\n    /* \"#utility.yul\":7115:7192   */\n  sub\n    /* \"#utility.yul\":7112:7215   */\n  tag_120\n  jumpi\n    /* \"#utility.yul\":7195:7213   */\n  tag_121\n  tag_49\n  jump\t// in\ntag_121:\n    /* \"#utility.yul\":7112:7215   */\ntag_120:\n    /* \"#utility.yul\":7242:7243   */\n  0x01\n    /* \"#utility.yul\":7235:7240   */\n  dup3\n    /* \"#utility.yul\":7231:7244   */\n  add\n    /* \"#utility.yul\":7224:7244   */\n  swap1\n  pop\n    /* \"#utility.yul\":7017:7250   */\n  swap2\n  swap1\n  pop\n  jump\t// out\n    /* \"contracts/BanklessWallet.sol\":176:6612  contract BanklessWallet is ReentrancyGuard {... */\ntag_24:\n  dataSize(sub_0)\n  dup1\n  dataOffset(sub_0)\n  0x00\n  codecopy\n  0x00\n  return\nstop\n\nsub_0: assembly {\n        /* \"contracts/BanklessWallet.sol\":176:6612  contract BanklessWallet is ReentrancyGuard {... */\n      mstore(0x40, 0x80)\n      callvalue\n      dup1\n      iszero\n      tag_1\n      jumpi\n      0x00\n      dup1\n      revert\n    tag_1:\n      pop\n      jumpi(tag_2, lt(calldatasize, 0x04))\n      shr(0xe0, calldataload(0x00))\n      dup1\n      0x5fc489a7\n      gt\n      tag_22\n      jumpi\n      dup1\n      0xa9059cbb\n      gt\n      tag_23\n      jumpi\n      dup1\n      0xa9059cbb\n      eq\n      tag_17\n      jumpi\n      dup1\n      0xace7c993\n      eq\n      tag_18\n      jumpi\n      dup1\n      0xd3582164\n      eq\n      tag_19\n      jumpi\n      dup1\n      0xd5ce9aad\n      eq\n      tag_20\n      jumpi\n      dup1\n      0xf05151df\n      eq\n      tag_21\n      jumpi\n      jump(tag_2)\n    tag_23:\n      dup1\n      0x5fc489a7\n      eq\n      tag_12\n      jumpi\n      dup1\n      0x8da5cb5b\n      eq\n      tag_13\n      jumpi\n      dup1\n      0x912365ea\n      eq\n      tag_14\n      jumpi\n      dup1\n      0xa643e812\n      eq\n      tag_15\n      jumpi\n      dup1\n      0xa7b65d10\n      eq\n      tag_16\n      jumpi\n      jump(tag_2)\n    tag_22:\n      dup1\n      0x1e969523\n      gt\n      tag_24\n      jumpi\n      dup1\n      0x1e969523\n      eq\n      tag_7\n      jumpi\n      dup1\n      0x371bbdc1\n      eq\n      tag_8\n      jumpi\n      dup1\n      0x42cde4e8\n      eq\n      tag_9\n      jumpi\n      dup1\n      0x57e685bc\n      eq\n      tag_10\n      jumpi\n      dup1\n      0x5db0db7c\n      eq\n      tag_11\n      jumpi\n      jump(tag_2)\n    tag_24:\n      dup1\n      0x0ba234d6\n      eq\n      tag_3\n      jumpi\n      dup1\n      0x0c68ba21\n      eq\n      tag_4\n      jumpi\n      dup1\n      0x12065fe0\n      eq\n      tag_5\n      jumpi\n      dup1\n      0x16cfcee8\n      eq\n      tag_6\n      jumpi\n    tag_2:\n      0x00\n      dup1\n      revert\n        /* \"contracts/BanklessWallet.sol\":4152:4310  function cancelRecovery() onlyOwner onlyInRecovery external {... */\n    tag_3:\n      tag_25\n      tag_26\n      jump\t// in\n    tag_25:\n      stop\n        /* \"contracts/BanklessWallet.sol\":284:326  mapping(address => bool) public isGuardian */\n    tag_4:\n      tag_27\n      0x04\n      dup1\n      calldatasize\n      sub\n      dup2\n      add\n      swap1\n      tag_28\n      swap2\n      swap1\n      tag_29\n      jump\t// in\n    tag_28:\n      tag_30\n      jump\t// in\n    tag_27:\n      mload(0x40)\n      tag_31\n      swap2\n      swap1\n      tag_32\n      jump\t// in\n    tag_31:\n      mload(0x40)\n      dup1\n      swap2\n      sub\n      swap1\n      return\n        /* \"contracts/BanklessWallet.sol\":3292:3389  function getBalance() public view returns (uint256) {... */\n    tag_5:\n      tag_33\n      tag_34\n      jump\t// in\n    tag_33:\n      mload(0x40)\n      tag_35\n      swap2\n      swap1\n      tag_36\n      jump\t// in\n    tag_35:\n      mload(0x40)\n      dup1\n      swap2\n      sub\n      swap1\n      return\n        /* \"contracts/BanklessWallet.sol\":6323:6610  function executeGuardianRemoval(address guardianHash, uint256 _threshold) external onlyOwner {... */\n    tag_6:\n      tag_37\n      0x04\n      dup1\n      calldatasize\n      sub\n      dup2\n      add\n      swap1\n      tag_38\n      swap2\n      swap1\n      tag_39\n      jump\t// in\n    tag_38:\n      tag_40\n      jump\t// in\n    tag_37:\n      stop\n        /* \"contracts/BanklessWallet.sol\":754:818  mapping(address => GuardianRequest) public guardianChangeRequest */\n    tag_7:\n      tag_41\n      0x04\n      dup1\n      calldatasize\n      sub\n      dup2\n      add\n      swap1\n      tag_42\n      swap2\n      swap1\n      tag_29\n      jump\t// in\n    tag_42:\n      tag_43\n      jump\t// in\n    tag_41:\n      mload(0x40)\n      tag_44\n      swap4\n      swap3\n      swap2\n      swap1\n      tag_45\n      jump\t// in\n    tag_44:\n      mload(0x40)\n      dup1\n      swap2\n      sub\n      swap1\n      return\n        /* \"contracts/BanklessWallet.sol\":556:622  mapping(address => RecoveryRequest) public guardianRecoveryRequest */\n    tag_8:\n      tag_46\n      0x04\n      dup1\n      calldatasize\n      sub\n      dup2\n      add\n      swap1\n      tag_47\n      swap2\n      swap1\n      tag_29\n      jump\t// in\n    tag_47:\n      tag_48\n      jump\t// in\n    tag_46:\n      mload(0x40)\n      tag_49\n      swap4\n      swap3\n      swap2\n      swap1\n      tag_50\n      jump\t// in\n    tag_49:\n      mload(0x40)\n      dup1\n      swap2\n      sub\n      swap1\n      return\n        /* \"contracts/BanklessWallet.sol\":253:277  uint256 public threshold */\n    tag_9:\n      tag_51\n      tag_52\n      jump\t// in\n    tag_51:\n      mload(0x40)\n      tag_53\n      swap2\n      swap1\n      tag_36\n      jump\t// in\n    tag_53:\n      mload(0x40)\n      dup1\n      swap2\n      sub\n      swap1\n      return\n        /* \"contracts/BanklessWallet.sol\":3802:4146  function supportRecovery(address _proposedOwner) onlyGuardian onlyInRecovery notInGuardianRequest external {... */\n    tag_10:\n      tag_54\n      0x04\n      dup1\n      calldatasize\n      sub\n      dup2\n      add\n      swap1\n      tag_55\n      swap2\n      swap1\n      tag_29\n      jump\t// in\n    tag_55:\n      tag_56\n      jump\t// in\n    tag_54:\n      stop\n        /* \"contracts/BanklessWallet.sol\":5619:6120  function executeGuardianshipTransfer(address appellant) onlyOwner onlyInGuardianRequest notInRecovery external {... */\n    tag_11:\n      tag_57\n      0x04\n      dup1\n      calldatasize\n      sub\n      dup2\n      add\n      swap1\n      tag_58\n      swap2\n      swap1\n      tag_29\n      jump\t// in\n    tag_58:\n      tag_59\n      jump\t// in\n    tag_57:\n      stop\n        /* \"contracts/BanklessWallet.sol\":4316:5200  function executeRecovery(address newOwner, address[] calldata guardianList) onlyGuardian onlyInRecovery notInGuardianRequest external {... */\n    tag_12:\n      tag_60\n      0x04\n      dup1\n      calldatasize\n      sub\n      dup2\n      add\n      swap1\n      tag_61\n      swap2\n      swap1\n      tag_62\n      jump\t// in\n    tag_61:\n      tag_63\n      jump\t// in\n    tag_60:\n      stop\n        /* \"contracts/BanklessWallet.sol\":226:246  address public owner */\n    tag_13:\n      tag_64\n      tag_65\n      jump\t// in\n    tag_64:\n      mload(0x40)\n      tag_66\n      swap2\n      swap1\n      tag_67\n      jump\t// in\n    tag_66:\n      mload(0x40)\n      dup1\n      swap2\n      sub\n      swap1\n      return\n        /* \"contracts/BanklessWallet.sol\":2948:3286  function executeTx(address callee, uint256 value, bytes memory data) external onlyOwner nonReentrant returns(bytes memory){... */\n    tag_14:\n      tag_68\n      0x04\n      dup1\n      calldatasize\n      sub\n      dup2\n      add\n      swap1\n      tag_69\n      swap2\n      swap1\n      tag_70\n      jump\t// in\n    tag_69:\n      tag_71\n      jump\t// in\n    tag_68:\n      mload(0x40)\n      tag_72\n      swap2\n      swap1\n      tag_73\n      jump\t// in\n    tag_72:\n      mload(0x40)\n      dup1\n      swap2\n      sub\n      swap1\n      return\n        /* \"contracts/BanklessWallet.sol\":362:391  bool public inGuardianRequest */\n    tag_15:\n      tag_74\n      tag_75\n      jump\t// in\n    tag_74:\n      mload(0x40)\n      tag_76\n      swap2\n      swap1\n      tag_32\n      jump\t// in\n    tag_76:\n      mload(0x40)\n      dup1\n      swap2\n      sub\n      swap1\n      return\n        /* \"contracts/BanklessWallet.sol\":6126:6317  function cancelGuardianshipTransfer() onlyOwner onlyInGuardianRequest notInRecovery external {... */\n    tag_16:\n      tag_77\n      tag_78\n      jump\t// in\n    tag_77:\n      stop\n        /* \"contracts/BanklessWallet.sol\":2764:2938  function transfer(address payable destination, uint256 amount) external onlyOwner {... */\n    tag_17:\n      tag_79\n      0x04\n      dup1\n      calldatasize\n      sub\n      dup2\n      add\n      swap1\n      tag_80\n      swap2\n      swap1\n      tag_81\n      jump\t// in\n    tag_80:\n      tag_82\n      jump\t// in\n    tag_79:\n      stop\n        /* \"contracts/BanklessWallet.sol\":398:430  uint256 public currRecoveryRound */\n    tag_18:\n      tag_83\n      tag_84\n      jump\t// in\n    tag_83:\n      mload(0x40)\n      tag_85\n      swap2\n      swap1\n      tag_36\n      jump\t// in\n    tag_85:\n      mload(0x40)\n      dup1\n      swap2\n      sub\n      swap1\n      return\n        /* \"contracts/BanklessWallet.sol\":5206:5613  function transferGuardianship(address guardianToChange, address newGuardianHash) onlyGuardian notInGuardianRequest notInRecovery external {... */\n    tag_19:\n      tag_86\n      0x04\n      dup1\n      calldatasize\n      sub\n      dup2\n      add\n      swap1\n      tag_87\n      swap2\n      swap1\n      tag_88\n      jump\t// in\n    tag_87:\n      tag_89\n      jump\t// in\n    tag_86:\n      stop\n        /* \"contracts/BanklessWallet.sol\":3395:3796  function initiateRecovery(address _proposedOwner) onlyGuardian notInRecovery notInGuardianRequest external {... */\n    tag_20:\n      tag_90\n      0x04\n      dup1\n      calldatasize\n      sub\n      dup2\n      add\n      swap1\n      tag_91\n      swap2\n      swap1\n      tag_29\n      jump\t// in\n    tag_91:\n      tag_92\n      jump\t// in\n    tag_90:\n      stop\n        /* \"contracts/BanklessWallet.sol\":333:355  bool public inRecovery */\n    tag_21:\n      tag_93\n      tag_94\n      jump\t// in\n    tag_93:\n      mload(0x40)\n      tag_95\n      swap2\n      swap1\n      tag_32\n      jump\t// in\n    tag_95:\n      mload(0x40)\n      dup1\n      swap2\n      sub\n      swap1\n      return\n        /* \"contracts/BanklessWallet.sol\":4152:4310  function cancelRecovery() onlyOwner onlyInRecovery external {... */\n    tag_26:\n        /* \"contracts/BanklessWallet.sol\":876:881  owner */\n      0x01\n      0x00\n      swap1\n      sload\n      swap1\n      0x0100\n      exp\n      swap1\n      div\n      0xffffffffffffffffffffffffffffffffffffffff\n      and\n        /* \"contracts/BanklessWallet.sol\":862:881  msg.sender == owner */\n      0xffffffffffffffffffffffffffffffffffffffff\n      and\n        /* \"contracts/BanklessWallet.sol\":862:872  msg.sender */\n      caller\n        /* \"contracts/BanklessWallet.sol\":862:881  msg.sender == owner */\n      0xffffffffffffffffffffffffffffffffffffffff\n      and\n      eq\n        /* \"contracts/BanklessWallet.sol\":854:900  require(msg.sender == owner, \"Not Authorized\") */\n      tag_97\n      jumpi\n      mload(0x40)\n      0x08c379a000000000000000000000000000000000000000000000000000000000\n      dup2\n      mstore\n      0x04\n      add\n      tag_98\n      swap1\n      tag_99\n      jump\t// in\n    tag_98:\n      mload(0x40)\n      dup1\n      swap2\n      sub\n      swap1\n      revert\n    tag_97:\n        /* \"contracts/BanklessWallet.sol\":1205:1215  inRecovery */\n      0x04\n      0x00\n      swap1\n      sload\n      swap1\n      0x0100\n      exp\n      swap1\n      div\n      0xff\n      and\n        /* \"contracts/BanklessWallet.sol\":1197:1250  require(inRecovery, \"Wallet is not in Recovery mode\") */\n      tag_101\n      jumpi\n      mload(0x40)\n      0x08c379a000000000000000000000000000000000000000000000000000000000\n      dup2\n      mstore\n      0x04\n      add\n      tag_102\n      swap1\n      tag_103\n      jump\t// in\n    tag_102:\n      mload(0x40)\n      dup1\n      swap2\n      sub\n      swap1\n      revert\n    tag_101:\n        /* \"contracts/BanklessWallet.sol\":4235:4240  false */\n      0x00\n        /* \"contracts/BanklessWallet.sol\":4222:4232  inRecovery */\n      0x04\n      0x00\n        /* \"contracts/BanklessWallet.sol\":4222:4240  inRecovery = false */\n      0x0100\n      exp\n      dup2\n      sload\n      dup2\n      0xff\n      mul\n      not\n      and\n      swap1\n      dup4\n      iszero\n      iszero\n      mul\n      or\n      swap1\n      sstore\n      pop\n        /* \"contracts/BanklessWallet.sol\":4285:4302  currRecoveryRound */\n      sload(0x05)\n        /* \"contracts/BanklessWallet.sol\":4255:4303  RecoveryCancelled(msg.sender, currRecoveryRound) */\n      0x500ec1d4b692d3c788bfd78a898de379cfd93ab8177575efc7593f87bd051a07\n        /* \"contracts/BanklessWallet.sol\":4273:4283  msg.sender */\n      caller\n        /* \"contracts/BanklessWallet.sol\":4255:4303  RecoveryCancelled(msg.sender, currRecoveryRound) */\n      mload(0x40)\n      tag_105\n      swap2\n      swap1\n      tag_67\n      jump\t// in\n    tag_105:\n      mload(0x40)\n      dup1\n      swap2\n      sub\n      swap1\n      log2\n        /* \"contracts/BanklessWallet.sol\":4152:4310  function cancelRecovery() onlyOwner onlyInRecovery external {... */\n      jump\t// out\n        /* \"contracts/BanklessWallet.sol\":284:326  mapping(address => bool) public isGuardian */\n    tag_30:\n      mstore(0x20, 0x03)\n      dup1\n      0x00\n      mstore\n      keccak256(0x00, 0x40)\n      0x00\n      swap2\n      pop\n      sload\n      swap1\n      0x0100\n      exp\n      swap1\n      div\n      0xff\n      and\n      dup2\n      jump\t// out\n        /* \"contracts/BanklessWallet.sol\":3292:3389  function getBalance() public view returns (uint256) {... */\n    tag_34:\n        /* \"contracts/BanklessWallet.sol\":3335:3342  uint256 */\n      0x00\n        /* \"contracts/BanklessWallet.sol\":3361:3382  address(this).balance */\n      selfbalance\n        /* \"contracts/BanklessWallet.sol\":3354:3382  return address(this).balance */\n      swap1\n      pop\n        /* \"contracts/BanklessWallet.sol\":3292:3389  function getBalance() public view returns (uint256) {... */\n      swap1\n      jump\t// out\n        /* \"contracts/BanklessWallet.sol\":6323:6610  function executeGuardianRemoval(address guardianHash, uint256 _threshold) external onlyOwner {... */\n    tag_40:\n        /* \"contracts/BanklessWallet.sol\":876:881  owner */\n      0x01\n      0x00\n      swap1\n      sload\n      swap1\n      0x0100\n      exp\n      swap1\n      div\n      0xffffffffffffffffffffffffffffffffffffffff\n      and\n        /* \"contracts/BanklessWallet.sol\":862:881  msg.sender == owner */\n      0xffffffffffffffffffffffffffffffffffffffff\n      and\n        /* \"contracts/BanklessWallet.sol\":862:872  msg.sender */\n      caller\n        /* \"contracts/BanklessWallet.sol\":862:881  msg.sender == owner */\n      0xffffffffffffffffffffffffffffffffffffffff\n      and\n      eq\n        /* \"contracts/BanklessWallet.sol\":854:900  require(msg.sender == owner, \"Not Authorized\") */\n      tag_108\n      jumpi\n      mload(0x40)\n      0x08c379a000000000000000000000000000000000000000000000000000000000\n      dup2\n      mstore\n      0x04\n      add\n      tag_109\n      swap1\n      tag_99\n      jump\t// in\n    tag_109:\n      mload(0x40)\n      dup1\n      swap2\n      sub\n      swap1\n      revert\n    tag_108:\n        /* \"contracts/BanklessWallet.sol\":6434:6444  isGuardian */\n      0x03\n        /* \"contracts/BanklessWallet.sol\":6434:6458  isGuardian[guardianHash] */\n      0x00\n        /* \"contracts/BanklessWallet.sol\":6445:6457  guardianHash */\n      dup4\n        /* \"contracts/BanklessWallet.sol\":6434:6458  isGuardian[guardianHash] */\n      0xffffffffffffffffffffffffffffffffffffffff\n      and\n      0xffffffffffffffffffffffffffffffffffffffff\n      and\n      dup2\n      mstore\n      0x20\n      add\n      swap1\n      dup2\n      mstore\n      0x20\n      add\n      0x00\n      keccak256\n      0x00\n      swap1\n      sload\n      swap1\n      0x0100\n      exp\n      swap1\n      div\n      0xff\n      and\n        /* \"contracts/BanklessWallet.sol\":6426:6477  require(isGuardian[guardianHash], \"not a guardian\") */\n      tag_111\n      jumpi\n      mload(0x40)\n      0x08c379a000000000000000000000000000000000000000000000000000000000\n      dup2\n      mstore\n      0x04\n      add\n      tag_112\n      swap1\n      tag_113\n      jump\t// in\n    tag_112:\n      mload(0x40)\n      dup1\n      swap2\n      sub\n      swap1\n      revert\n    tag_111:\n        /* \"contracts/BanklessWallet.sol\":6514:6519  false */\n      0x00\n        /* \"contracts/BanklessWallet.sol\":6487:6497  isGuardian */\n      0x03\n        /* \"contracts/BanklessWallet.sol\":6487:6511  isGuardian[guardianHash] */\n      0x00\n        /* \"contracts/BanklessWallet.sol\":6498:6510  guardianHash */\n      dup5\n        /* \"contracts/BanklessWallet.sol\":6487:6511  isGuardian[guardianHash] */\n      0xffffffffffffffffffffffffffffffffffffffff\n      and\n      0xffffffffffffffffffffffffffffffffffffffff\n      and\n      dup2\n      mstore\n      0x20\n      add\n      swap1\n      dup2\n      mstore\n      0x20\n      add\n      0x00\n      keccak256\n      0x00\n        /* \"contracts/BanklessWallet.sol\":6487:6519  isGuardian[guardianHash] = false */\n      0x0100\n      exp\n      dup2\n      sload\n      dup2\n      0xff\n      mul\n      not\n      and\n      swap1\n      dup4\n      iszero\n      iszero\n      mul\n      or\n      swap1\n      sstore\n      pop\n        /* \"contracts/BanklessWallet.sol\":6540:6550  _threshold */\n      dup1\n        /* \"contracts/BanklessWallet.sol\":6528:6537  threshold */\n      0x02\n        /* \"contracts/BanklessWallet.sol\":6528:6550  threshold = _threshold */\n      dup2\n      swap1\n      sstore\n      pop\n        /* \"contracts/BanklessWallet.sol\":6564:6603  GuardianshipRemovalExecuted(msg.sender) */\n      0x2ed5a1d41af8e4c27f6e4c020febbf0221b28b9cc47fcab6bf97aa2bd28f3a68\n        /* \"contracts/BanklessWallet.sol\":6592:6602  msg.sender */\n      caller\n        /* \"contracts/BanklessWallet.sol\":6564:6603  GuardianshipRemovalExecuted(msg.sender) */\n      mload(0x40)\n      tag_114\n      swap2\n      swap1\n      tag_67\n      jump\t// in\n    tag_114:\n      mload(0x40)\n      dup1\n      swap2\n      sub\n      swap1\n      log1\n        /* \"contracts/BanklessWallet.sol\":6323:6610  function executeGuardianRemoval(address guardianHash, uint256 _threshold) external onlyOwner {... */\n      pop\n      pop\n      jump\t// out\n        /* \"contracts/BanklessWallet.sol\":754:818  mapping(address => GuardianRequest) public guardianChangeRequest */\n    tag_43:\n      mstore(0x20, 0x07)\n      dup1\n      0x00\n      mstore\n      keccak256(0x00, 0x40)\n      0x00\n      swap2\n      pop\n      swap1\n      pop\n      dup1\n      0x00\n      add\n      0x00\n      swap1\n      sload\n      swap1\n      0x0100\n      exp\n      swap1\n      div\n      0xffffffffffffffffffffffffffffffffffffffff\n      and\n      swap1\n      dup1\n      0x01\n      add\n      0x00\n      swap1\n      sload\n      swap1\n      0x0100\n      exp\n      swap1\n      div\n      0xffffffffffffffffffffffffffffffffffffffff\n      and\n      swap1\n      dup1\n      0x01\n      add\n      0x14\n      swap1\n      sload\n      swap1\n      0x0100\n      exp\n      swap1\n      div\n      0xff\n      and\n      swap1\n      pop\n      dup4\n      jump\t// out\n        /* \"contracts/BanklessWallet.sol\":556:622  mapping(address => RecoveryRequest) public guardianRecoveryRequest */\n    tag_48:\n      mstore(0x20, 0x06)\n      dup1\n      0x00\n      mstore\n      keccak256(0x00, 0x40)\n      0x00\n      swap2\n      pop\n      swap1\n      pop\n      dup1\n      0x00\n      add\n      0x00\n      swap1\n      sload\n      swap1\n      0x0100\n      exp\n      swap1\n      div\n      0xffffffffffffffffffffffffffffffffffffffff\n      and\n      swap1\n      dup1\n      0x01\n      add\n      sload\n      swap1\n      dup1\n      0x02\n      add\n      0x00\n      swap1\n      sload\n      swap1\n      0x0100\n      exp\n      swap1\n      div\n      0xff\n      and\n      swap1\n      pop\n      dup4\n      jump\t// out\n        /* \"contracts/BanklessWallet.sol\":253:277  uint256 public threshold */\n    tag_52:\n      sload(0x02)\n      dup2\n      jump\t// out\n        /* \"contracts/BanklessWallet.sol\":3802:4146  function supportRecovery(address _proposedOwner) onlyGuardian onlyInRecovery notInGuardianRequest external {... */\n    tag_56:\n        /* \"contracts/BanklessWallet.sol\":965:975  isGuardian */\n      0x03\n        /* \"contracts/BanklessWallet.sol\":965:987  isGuardian[msg.sender] */\n      0x00\n        /* \"contracts/BanklessWallet.sol\":976:986  msg.sender */\n      caller\n        /* \"contracts/BanklessWallet.sol\":965:987  isGuardian[msg.sender] */\n      0xffffffffffffffffffffffffffffffffffffffff\n      and\n      0xffffffffffffffffffffffffffffffffffffffff\n      and\n      dup2\n      mstore\n      0x20\n      add\n      swap1\n      dup2\n      mstore\n      0x20\n      add\n      0x00\n      keccak256\n      0x00\n      swap1\n      sload\n      swap1\n      0x0100\n      exp\n      swap1\n      div\n      0xff\n      and\n        /* \"contracts/BanklessWallet.sol\":957:1032  require(isGuardian[msg.sender], \"Only Guardian has access to this request\") */\n      tag_116\n      jumpi\n      mload(0x40)\n      0x08c379a000000000000000000000000000000000000000000000000000000000\n      dup2\n      mstore\n      0x04\n      add\n      tag_117\n      swap1\n      tag_118\n      jump\t// in\n    tag_117:\n      mload(0x40)\n      dup1\n      swap2\n      sub\n      swap1\n      revert\n    tag_116:\n        /* \"contracts/BanklessWallet.sol\":1205:1215  inRecovery */\n      0x04\n      0x00\n      swap1\n      sload\n      swap1\n      0x0100\n      exp\n      swap1\n      div\n      0xff\n      and\n        /* \"contracts/BanklessWallet.sol\":1197:1250  require(inRecovery, \"Wallet is not in Recovery mode\") */\n      tag_120\n      jumpi\n      mload(0x40)\n      0x08c379a000000000000000000000000000000000000000000000000000000000\n      dup2\n      mstore\n      0x04\n      add\n      tag_121\n      swap1\n      tag_103\n      jump\t// in\n    tag_121:\n      mload(0x40)\n      dup1\n      swap2\n      sub\n      swap1\n      revert\n    tag_120:\n        /* \"contracts/BanklessWallet.sol\":1324:1341  inGuardianRequest */\n      0x04\n      0x01\n      swap1\n      sload\n      swap1\n      0x0100\n      exp\n      swap1\n      div\n      0xff\n      and\n        /* \"contracts/BanklessWallet.sol\":1323:1341  !inGuardianRequest */\n      iszero\n        /* \"contracts/BanklessWallet.sol\":1315:1384  require(!inGuardianRequest, \"Existing Guardian Change Request found\") */\n      tag_123\n      jumpi\n      mload(0x40)\n      0x08c379a000000000000000000000000000000000000000000000000000000000\n      dup2\n      mstore\n      0x04\n      add\n      tag_124\n      swap1\n      tag_125\n      jump\t// in\n    tag_124:\n      mload(0x40)\n      dup1\n      swap2\n      sub\n      swap1\n      revert\n    tag_123:\n        /* \"contracts/BanklessWallet.sol\":3957:4060  RecoveryRequest(... */\n      mload(0x40)\n      dup1\n      0x60\n      add\n      0x40\n      mstore\n      dup1\n        /* \"contracts/BanklessWallet.sol\":3986:4000  _proposedOwner */\n      dup3\n        /* \"contracts/BanklessWallet.sol\":3957:4060  RecoveryRequest(... */\n      0xffffffffffffffffffffffffffffffffffffffff\n      and\n      dup2\n      mstore\n      0x20\n      add\n        /* \"contracts/BanklessWallet.sol\":4014:4031  currRecoveryRound */\n      sload(0x05)\n        /* \"contracts/BanklessWallet.sol\":3957:4060  RecoveryRequest(... */\n      dup2\n      mstore\n      0x20\n      add\n        /* \"contracts/BanklessWallet.sol\":4045:4050  false */\n      0x00\n        /* \"contracts/BanklessWallet.sol\":3957:4060  RecoveryRequest(... */\n      iszero\n      iszero\n      dup2\n      mstore\n      pop\n        /* \"contracts/BanklessWallet.sol\":3919:3942  guardianRecoveryRequest */\n      0x06\n        /* \"contracts/BanklessWallet.sol\":3919:3954  guardianRecoveryRequest[msg.sender] */\n      0x00\n        /* \"contracts/BanklessWallet.sol\":3943:3953  msg.sender */\n      caller\n        /* \"contracts/BanklessWallet.sol\":3919:3954  guardianRecoveryRequest[msg.sender] */\n      0xffffffffffffffffffffffffffffffffffffffff\n      and\n      0xffffffffffffffffffffffffffffffffffffffff\n      and\n      dup2\n      mstore\n      0x20\n      add\n      swap1\n      dup2\n      mstore\n      0x20\n      add\n      0x00\n      keccak256\n        /* \"contracts/BanklessWallet.sol\":3919:4060  guardianRecoveryRequest[msg.sender] = RecoveryRequest(... */\n      0x00\n      dup3\n      add\n      mload\n      dup2\n      0x00\n      add\n      exp(0x0100, 0x00)\n      dup2\n      sload\n      dup2\n      0xffffffffffffffffffffffffffffffffffffffff\n      mul\n      not\n      and\n      swap1\n      dup4\n      0xffffffffffffffffffffffffffffffffffffffff\n      and\n      mul\n      or\n      swap1\n      sstore\n      pop\n      0x20\n      dup3\n      add\n      mload\n      dup2\n      0x01\n      add\n      sstore\n      0x40\n      dup3\n      add\n      mload\n      dup2\n      0x02\n      add\n      exp(0x0100, 0x00)\n      dup2\n      sload\n      dup2\n      0xff\n      mul\n      not\n      and\n      swap1\n      dup4\n      iszero\n      iszero\n      mul\n      or\n      swap1\n      sstore\n      pop\n      swap1\n      pop\n      pop\n        /* \"contracts/BanklessWallet.sol\":4121:4138  currRecoveryRound */\n      sload(0x05)\n        /* \"contracts/BanklessWallet.sol\":4093:4103  msg.sender */\n      caller\n        /* \"contracts/BanklessWallet.sol\":4075:4139  RecoverySupported(msg.sender, _proposedOwner, currRecoveryRound) */\n      0xffffffffffffffffffffffffffffffffffffffff\n      and\n      0x7a0b940199ff58e943823fe8c0e916df112be357049d8105a7e83cf9a4000e4a\n        /* \"contracts/BanklessWallet.sol\":4105:4119  _proposedOwner */\n      dup4\n        /* \"contracts/BanklessWallet.sol\":4075:4139  RecoverySupported(msg.sender, _proposedOwner, currRecoveryRound) */\n      mload(0x40)\n      tag_127\n      swap2\n      swap1\n      tag_67\n      jump\t// in\n    tag_127:\n      mload(0x40)\n      dup1\n      swap2\n      sub\n      swap1\n      log3\n        /* \"contracts/BanklessWallet.sol\":3802:4146  function supportRecovery(address _proposedOwner) onlyGuardian onlyInRecovery notInGuardianRequest external {... */\n      pop\n      jump\t// out\n        /* \"contracts/BanklessWallet.sol\":5619:6120  function executeGuardianshipTransfer(address appellant) onlyOwner onlyInGuardianRequest notInRecovery external {... */\n    tag_59:\n        /* \"contracts/BanklessWallet.sol\":876:881  owner */\n      0x01\n      0x00\n      swap1\n      sload\n      swap1\n      0x0100\n      exp\n      swap1\n      div\n      0xffffffffffffffffffffffffffffffffffffffff\n      and\n        /* \"contracts/BanklessWallet.sol\":862:881  msg.sender == owner */\n      0xffffffffffffffffffffffffffffffffffffffff\n      and\n        /* \"contracts/BanklessWallet.sol\":862:872  msg.sender */\n      caller\n        /* \"contracts/BanklessWallet.sol\":862:881  msg.sender == owner */\n      0xffffffffffffffffffffffffffffffffffffffff\n      and\n      eq\n        /* \"contracts/BanklessWallet.sol\":854:900  require(msg.sender == owner, \"Not Authorized\") */\n      tag_129\n      jumpi\n      mload(0x40)\n      0x08c379a000000000000000000000000000000000000000000000000000000000\n      dup2\n      mstore\n      0x04\n      add\n      tag_130\n      swap1\n      tag_99\n      jump\t// in\n    tag_130:\n      mload(0x40)\n      dup1\n      swap2\n      sub\n      swap1\n      revert\n    tag_129:\n        /* \"contracts/BanklessWallet.sol\":1458:1475  inGuardianRequest */\n      0x04\n      0x01\n      swap1\n      sload\n      swap1\n      0x0100\n      exp\n      swap1\n      div\n      0xff\n      and\n        /* \"contracts/BanklessWallet.sol\":1450:1513  require(inGuardianRequest, \"No Current Guardian Request found\") */\n      tag_132\n      jumpi\n      mload(0x40)\n      0x08c379a000000000000000000000000000000000000000000000000000000000\n      dup2\n      mstore\n      0x04\n      add\n      tag_133\n      swap1\n      tag_134\n      jump\t// in\n    tag_133:\n      mload(0x40)\n      dup1\n      swap2\n      sub\n      swap1\n      revert\n    tag_132:\n        /* \"contracts/BanklessWallet.sol\":1098:1108  inRecovery */\n      0x04\n      0x00\n      swap1\n      sload\n      swap1\n      0x0100\n      exp\n      swap1\n      div\n      0xff\n      and\n        /* \"contracts/BanklessWallet.sol\":1097:1108  !inRecovery */\n      iszero\n        /* \"contracts/BanklessWallet.sol\":1089:1139  require(!inRecovery, \"Wallet is in Recovery mode\") */\n      tag_136\n      jumpi\n      mload(0x40)\n      0x08c379a000000000000000000000000000000000000000000000000000000000\n      dup2\n      mstore\n      0x04\n      add\n      tag_137\n      swap1\n      tag_138\n      jump\t// in\n    tag_137:\n      mload(0x40)\n      dup1\n      swap2\n      sub\n      swap1\n      revert\n    tag_136:\n        /* \"contracts/BanklessWallet.sol\":5740:5770  GuardianRequest memory request */\n      0x00\n        /* \"contracts/BanklessWallet.sol\":5773:5794  guardianChangeRequest */\n      0x07\n        /* \"contracts/BanklessWallet.sol\":5773:5805  guardianChangeRequest[appellant] */\n      0x00\n        /* \"contracts/BanklessWallet.sol\":5795:5804  appellant */\n      dup4\n        /* \"contracts/BanklessWallet.sol\":5773:5805  guardianChangeRequest[appellant] */\n      0xffffffffffffffffffffffffffffffffffffffff\n      and\n      0xffffffffffffffffffffffffffffffffffffffff\n      and\n      dup2\n      mstore\n      0x20\n      add\n      swap1\n      dup2\n      mstore\n      0x20\n      add\n      0x00\n      keccak256\n        /* \"contracts/BanklessWallet.sol\":5740:5805  GuardianRequest memory request = guardianChangeRequest[appellant] */\n      mload(0x40)\n      dup1\n      0x60\n      add\n      0x40\n      mstore\n      swap1\n      dup2\n      0x00\n      dup3\n      add\n      0x00\n      swap1\n      sload\n      swap1\n      0x0100\n      exp\n      swap1\n      div\n      0xffffffffffffffffffffffffffffffffffffffff\n      and\n      0xffffffffffffffffffffffffffffffffffffffff\n      and\n      0xffffffffffffffffffffffffffffffffffffffff\n      and\n      dup2\n      mstore\n      0x20\n      add\n      0x01\n      dup3\n      add\n      0x00\n      swap1\n      sload\n      swap1\n      0x0100\n      exp\n      swap1\n      div\n      0xffffffffffffffffffffffffffffffffffffffff\n      and\n      0xffffffffffffffffffffffffffffffffffffffff\n      and\n      0xffffffffffffffffffffffffffffffffffffffff\n      and\n      dup2\n      mstore\n      0x20\n      add\n      0x01\n      dup3\n      add\n      0x14\n      swap1\n      sload\n      swap1\n      0x0100\n      exp\n      swap1\n      div\n      0xff\n      and\n      iszero\n      iszero\n      iszero\n      iszero\n      dup2\n      mstore\n      pop\n      pop\n      swap1\n      pop\n        /* \"contracts/BanklessWallet.sol\":5824:5831  request */\n      dup1\n        /* \"contracts/BanklessWallet.sol\":5824:5838  request.isUsed */\n      0x40\n      add\n      mload\n        /* \"contracts/BanklessWallet.sol\":5823:5838  !request.isUsed */\n      iszero\n        /* \"contracts/BanklessWallet.sol\":5815:5875  require(!request.isUsed, \"Guardian Request is already Used\") */\n      tag_140\n      jumpi\n      mload(0x40)\n      0x08c379a000000000000000000000000000000000000000000000000000000000\n      dup2\n      mstore\n      0x04\n      add\n      tag_141\n      swap1\n      tag_142\n      jump\t// in\n    tag_141:\n      mload(0x40)\n      dup1\n      swap2\n      sub\n      swap1\n      revert\n    tag_140:\n        /* \"contracts/BanklessWallet.sol\":5925:5929  true */\n      0x01\n        /* \"contracts/BanklessWallet.sol\":5886:5896  isGuardian */\n      0x03\n        /* \"contracts/BanklessWallet.sol\":5886:5922  isGuardian[request.proposedGuardian] */\n      0x00\n        /* \"contracts/BanklessWallet.sol\":5897:5904  request */\n      dup4\n        /* \"contracts/BanklessWallet.sol\":5897:5921  request.proposedGuardian */\n      0x00\n      add\n      mload\n        /* \"contracts/BanklessWallet.sol\":5886:5922  isGuardian[request.proposedGuardian] */\n      0xffffffffffffffffffffffffffffffffffffffff\n      and\n      0xffffffffffffffffffffffffffffffffffffffff\n      and\n      dup2\n      mstore\n      0x20\n      add\n      swap1\n      dup2\n      mstore\n      0x20\n      add\n      0x00\n      keccak256\n      0x00\n        /* \"contracts/BanklessWallet.sol\":5886:5929  isGuardian[request.proposedGuardian] = true */\n      0x0100\n      exp\n      dup2\n      sload\n      dup2\n      0xff\n      mul\n      not\n      and\n      swap1\n      dup4\n      iszero\n      iszero\n      mul\n      or\n      swap1\n      sstore\n      pop\n        /* \"contracts/BanklessWallet.sol\":5978:5983  false */\n      0x00\n        /* \"contracts/BanklessWallet.sol\":5939:5949  isGuardian */\n      0x03\n        /* \"contracts/BanklessWallet.sol\":5939:5975  isGuardian[request.guardianToChange] */\n      0x00\n        /* \"contracts/BanklessWallet.sol\":5950:5957  request */\n      dup4\n        /* \"contracts/BanklessWallet.sol\":5950:5974  request.guardianToChange */\n      0x20\n      add\n      mload\n        /* \"contracts/BanklessWallet.sol\":5939:5975  isGuardian[request.guardianToChange] */\n      0xffffffffffffffffffffffffffffffffffffffff\n      and\n      0xffffffffffffffffffffffffffffffffffffffff\n      and\n      dup2\n      mstore\n      0x20\n      add\n      swap1\n      dup2\n      mstore\n      0x20\n      add\n      0x00\n      keccak256\n      0x00\n        /* \"contracts/BanklessWallet.sol\":5939:5983  isGuardian[request.guardianToChange] = false */\n      0x0100\n      exp\n      dup2\n      sload\n      dup2\n      0xff\n      mul\n      not\n      and\n      swap1\n      dup4\n      iszero\n      iszero\n      mul\n      or\n      swap1\n      sstore\n      pop\n        /* \"contracts/BanklessWallet.sol\":6013:6018  false */\n      0x00\n        /* \"contracts/BanklessWallet.sol\":5993:6010  inGuardianRequest */\n      0x04\n      0x01\n        /* \"contracts/BanklessWallet.sol\":5993:6018  inGuardianRequest = false */\n      0x0100\n      exp\n      dup2\n      sload\n      dup2\n      0xff\n      mul\n      not\n      and\n      swap1\n      dup4\n      iszero\n      iszero\n      mul\n      or\n      swap1\n      sstore\n      pop\n        /* \"contracts/BanklessWallet.sol\":6062:6069  request */\n      dup1\n        /* \"contracts/BanklessWallet.sol\":6062:6086  request.proposedGuardian */\n      0x00\n      add\n      mload\n        /* \"contracts/BanklessWallet.sol\":6033:6113  GuardianshipTransferExecuted(request.proposedGuardian, request.guardianToChange) */\n      0xffffffffffffffffffffffffffffffffffffffff\n      and\n      0x0ebe47b4a5aef1696896716abe65c590c720b0cd9572a7e2dcb0a9bfe2b2ca7f\n        /* \"contracts/BanklessWallet.sol\":6088:6095  request */\n      dup3\n        /* \"contracts/BanklessWallet.sol\":6088:6112  request.guardianToChange */\n      0x20\n      add\n      mload\n        /* \"contracts/BanklessWallet.sol\":6033:6113  GuardianshipTransferExecuted(request.proposedGuardian, request.guardianToChange) */\n      mload(0x40)\n      tag_143\n      swap2\n      swap1\n      tag_67\n      jump\t// in\n    tag_143:\n      mload(0x40)\n      dup1\n      swap2\n      sub\n      swap1\n      log2\n        /* \"contracts/BanklessWallet.sol\":5730:6120  {... */\n      pop\n        /* \"contracts/BanklessWallet.sol\":5619:6120  function executeGuardianshipTransfer(address appellant) onlyOwner onlyInGuardianRequest notInRecovery external {... */\n      pop\n      jump\t// out\n        /* \"contracts/BanklessWallet.sol\":4316:5200  function executeRecovery(address newOwner, address[] calldata guardianList) onlyGuardian onlyInRecovery notInGuardianRequest external {... */\n    tag_63:\n        /* \"contracts/BanklessWallet.sol\":965:975  isGuardian */\n      0x03\n        /* \"contracts/BanklessWallet.sol\":965:987  isGuardian[msg.sender] */\n      0x00\n        /* \"contracts/BanklessWallet.sol\":976:986  msg.sender */\n      caller\n        /* \"contracts/BanklessWallet.sol\":965:987  isGuardian[msg.sender] */\n      0xffffffffffffffffffffffffffffffffffffffff\n      and\n      0xffffffffffffffffffffffffffffffffffffffff\n      and\n      dup2\n      mstore\n      0x20\n      add\n      swap1\n      dup2\n      mstore\n      0x20\n      add\n      0x00\n      keccak256\n      0x00\n      swap1\n      sload\n      swap1\n      0x0100\n      exp\n      swap1\n      div\n      0xff\n      and\n        /* \"contracts/BanklessWallet.sol\":957:1032  require(isGuardian[msg.sender], \"Only Guardian has access to this request\") */\n      tag_145\n      jumpi\n      mload(0x40)\n      0x08c379a000000000000000000000000000000000000000000000000000000000\n      dup2\n      mstore\n      0x04\n      add\n      tag_146\n      swap1\n      tag_118\n      jump\t// in\n    tag_146:\n      mload(0x40)\n      dup1\n      swap2\n      sub\n      swap1\n      revert\n    tag_145:\n        /* \"contracts/BanklessWallet.sol\":1205:1215  inRecovery */\n      0x04\n      0x00\n      swap1\n      sload\n      swap1\n      0x0100\n      exp\n      swap1\n      div\n      0xff\n      and\n        /* \"contracts/BanklessWallet.sol\":1197:1250  require(inRecovery, \"Wallet is not in Recovery mode\") */\n      tag_148\n      jumpi\n      mload(0x40)\n      0x08c379a000000000000000000000000000000000000000000000000000000000\n      dup2\n      mstore\n      0x04\n      add\n      tag_149\n      swap1\n      tag_103\n      jump\t// in\n    tag_149:\n      mload(0x40)\n      dup1\n      swap2\n      sub\n      swap1\n      revert\n    tag_148:\n        /* \"contracts/BanklessWallet.sol\":1324:1341  inGuardianRequest */\n      0x04\n      0x01\n      swap1\n      sload\n      swap1\n      0x0100\n      exp\n      swap1\n      div\n      0xff\n      and\n        /* \"contracts/BanklessWallet.sol\":1323:1341  !inGuardianRequest */\n      iszero\n        /* \"contracts/BanklessWallet.sol\":1315:1384  require(!inGuardianRequest, \"Existing Guardian Change Request found\") */\n      tag_151\n      jumpi\n      mload(0x40)\n      0x08c379a000000000000000000000000000000000000000000000000000000000\n      dup2\n      mstore\n      0x04\n      add\n      tag_152\n      swap1\n      tag_125\n      jump\t// in\n    tag_152:\n      mload(0x40)\n      dup1\n      swap2\n      sub\n      swap1\n      revert\n    tag_151:\n        /* \"contracts/BanklessWallet.sol\":4491:4500  threshold */\n      sload(0x02)\n        /* \"contracts/BanklessWallet.sol\":4468:4480  guardianList */\n      dup3\n      dup3\n        /* \"contracts/BanklessWallet.sol\":4468:4487  guardianList.length */\n      swap1\n      pop\n        /* \"contracts/BanklessWallet.sol\":4468:4500  guardianList.length >= threshold */\n      lt\n      iszero\n        /* \"contracts/BanklessWallet.sol\":4460:4550  require(guardianList.length >= threshold, \"more guardians required to transfer ownership\") */\n      tag_154\n      jumpi\n      mload(0x40)\n      0x08c379a000000000000000000000000000000000000000000000000000000000\n      dup2\n      mstore\n      0x04\n      add\n      tag_155\n      swap1\n      tag_156\n      jump\t// in\n    tag_155:\n      mload(0x40)\n      dup1\n      swap2\n      sub\n      swap1\n      revert\n    tag_154:\n        /* \"contracts/BanklessWallet.sol\":4565:4571  uint i */\n      0x00\n        /* \"contracts/BanklessWallet.sol\":4560:5033  for (uint i = 0; i < guardianList.length; i++) {... */\n    tag_157:\n        /* \"contracts/BanklessWallet.sol\":4581:4593  guardianList */\n      dup3\n      dup3\n        /* \"contracts/BanklessWallet.sol\":4581:4600  guardianList.length */\n      swap1\n      pop\n        /* \"contracts/BanklessWallet.sol\":4577:4578  i */\n      dup2\n        /* \"contracts/BanklessWallet.sol\":4577:4600  i < guardianList.length */\n      lt\n        /* \"contracts/BanklessWallet.sol\":4560:5033  for (uint i = 0; i < guardianList.length; i++) {... */\n      iszero\n      tag_158\n      jumpi\n        /* \"contracts/BanklessWallet.sol\":4634:4664  RecoveryRequest memory request */\n      0x00\n        /* \"contracts/BanklessWallet.sol\":4667:4690  guardianRecoveryRequest */\n      0x06\n        /* \"contracts/BanklessWallet.sol\":4667:4707  guardianRecoveryRequest[guardianList[i]] */\n      0x00\n        /* \"contracts/BanklessWallet.sol\":4691:4703  guardianList */\n      dup6\n      dup6\n        /* \"contracts/BanklessWallet.sol\":4704:4705  i */\n      dup6\n        /* \"contracts/BanklessWallet.sol\":4691:4706  guardianList[i] */\n      dup2\n      dup2\n      lt\n      tag_160\n      jumpi\n      tag_161\n      tag_162\n      jump\t// in\n    tag_161:\n    tag_160:\n      swap1\n      pop\n      0x20\n      mul\n      add\n      0x20\n      dup2\n      add\n      swap1\n      tag_163\n      swap2\n      swap1\n      tag_29\n      jump\t// in\n    tag_163:\n        /* \"contracts/BanklessWallet.sol\":4667:4707  guardianRecoveryRequest[guardianList[i]] */\n      0xffffffffffffffffffffffffffffffffffffffff\n      and\n      0xffffffffffffffffffffffffffffffffffffffff\n      and\n      dup2\n      mstore\n      0x20\n      add\n      swap1\n      dup2\n      mstore\n      0x20\n      add\n      0x00\n      keccak256\n        /* \"contracts/BanklessWallet.sol\":4634:4707  RecoveryRequest memory request = guardianRecoveryRequest[guardianList[i]] */\n      mload(0x40)\n      dup1\n      0x60\n      add\n      0x40\n      mstore\n      swap1\n      dup2\n      0x00\n      dup3\n      add\n      0x00\n      swap1\n      sload\n      swap1\n      0x0100\n      exp\n      swap1\n      div\n      0xffffffffffffffffffffffffffffffffffffffff\n      and\n      0xffffffffffffffffffffffffffffffffffffffff\n      and\n      0xffffffffffffffffffffffffffffffffffffffff\n      and\n      dup2\n      mstore\n      0x20\n      add\n      0x01\n      dup3\n      add\n      sload\n      dup2\n      mstore\n      0x20\n      add\n      0x02\n      dup3\n      add\n      0x00\n      swap1\n      sload\n      swap1\n      0x0100\n      exp\n      swap1\n      div\n      0xff\n      and\n      iszero\n      iszero\n      iszero\n      iszero\n      dup2\n      mstore\n      pop\n      pop\n      swap1\n      pop\n        /* \"contracts/BanklessWallet.sol\":4755:4772  currRecoveryRound */\n      sload(0x05)\n        /* \"contracts/BanklessWallet.sol\":4730:4737  request */\n      dup2\n        /* \"contracts/BanklessWallet.sol\":4730:4751  request.recoveryRound */\n      0x20\n      add\n      mload\n        /* \"contracts/BanklessWallet.sol\":4730:4772  request.recoveryRound == currRecoveryRound */\n      eq\n        /* \"contracts/BanklessWallet.sol\":4722:4791  require(request.recoveryRound == currRecoveryRound, \"round mismatch\") */\n      tag_164\n      jumpi\n      mload(0x40)\n      0x08c379a000000000000000000000000000000000000000000000000000000000\n      dup2\n      mstore\n      0x04\n      add\n      tag_165\n      swap1\n      tag_166\n      jump\t// in\n    tag_165:\n      mload(0x40)\n      dup1\n      swap2\n      sub\n      swap1\n      revert\n    tag_164:\n        /* \"contracts/BanklessWallet.sol\":4838:4846  newOwner */\n      dup5\n        /* \"contracts/BanklessWallet.sol\":4813:4846  request.proposedOwner == newOwner */\n      0xffffffffffffffffffffffffffffffffffffffff\n      and\n        /* \"contracts/BanklessWallet.sol\":4813:4820  request */\n      dup2\n        /* \"contracts/BanklessWallet.sol\":4813:4834  request.proposedOwner */\n      0x00\n      add\n      mload\n        /* \"contracts/BanklessWallet.sol\":4813:4846  request.proposedOwner == newOwner */\n      0xffffffffffffffffffffffffffffffffffffffff\n      and\n      eq\n        /* \"contracts/BanklessWallet.sol\":4805:4876  require(request.proposedOwner == newOwner, \"disagreement on new owner\") */\n      tag_167\n      jumpi\n      mload(0x40)\n      0x08c379a000000000000000000000000000000000000000000000000000000000\n      dup2\n      mstore\n      0x04\n      add\n      tag_168\n      swap1\n      tag_169\n      jump\t// in\n    tag_168:\n      mload(0x40)\n      dup1\n      swap2\n      sub\n      swap1\n      revert\n    tag_167:\n        /* \"contracts/BanklessWallet.sol\":4899:4906  request */\n      dup1\n        /* \"contracts/BanklessWallet.sol\":4899:4913  request.isUsed */\n      0x40\n      add\n      mload\n        /* \"contracts/BanklessWallet.sol\":4898:4913  !request.isUsed */\n      iszero\n        /* \"contracts/BanklessWallet.sol\":4890:4953  require(!request.isUsed, \"duplicate guardian used in recovery\") */\n      tag_170\n      jumpi\n      mload(0x40)\n      0x08c379a000000000000000000000000000000000000000000000000000000000\n      dup2\n      mstore\n      0x04\n      add\n      tag_171\n      swap1\n      tag_172\n      jump\t// in\n    tag_171:\n      mload(0x40)\n      dup1\n      swap2\n      sub\n      swap1\n      revert\n    tag_170:\n        /* \"contracts/BanklessWallet.sol\":5018:5022  true */\n      0x01\n        /* \"contracts/BanklessWallet.sol\":4968:4991  guardianRecoveryRequest */\n      0x06\n        /* \"contracts/BanklessWallet.sol\":4968:5008  guardianRecoveryRequest[guardianList[i]] */\n      0x00\n        /* \"contracts/BanklessWallet.sol\":4992:5004  guardianList */\n      dup7\n      dup7\n        /* \"contracts/BanklessWallet.sol\":5005:5006  i */\n      dup7\n        /* \"contracts/BanklessWallet.sol\":4992:5007  guardianList[i] */\n      dup2\n      dup2\n      lt\n      tag_173\n      jumpi\n      tag_174\n      tag_162\n      jump\t// in\n    tag_174:\n    tag_173:\n      swap1\n      pop\n      0x20\n      mul\n      add\n      0x20\n      dup2\n      add\n      swap1\n      tag_175\n      swap2\n      swap1\n      tag_29\n      jump\t// in\n    tag_175:\n        /* \"contracts/BanklessWallet.sol\":4968:5008  guardianRecoveryRequest[guardianList[i]] */\n      0xffffffffffffffffffffffffffffffffffffffff\n      and\n      0xffffffffffffffffffffffffffffffffffffffff\n      and\n      dup2\n      mstore\n      0x20\n      add\n      swap1\n      dup2\n      mstore\n      0x20\n      add\n      0x00\n      keccak256\n        /* \"contracts/BanklessWallet.sol\":4968:5015  guardianRecoveryRequest[guardianList[i]].isUsed */\n      0x02\n      add\n      0x00\n        /* \"contracts/BanklessWallet.sol\":4968:5022  guardianRecoveryRequest[guardianList[i]].isUsed = true */\n      0x0100\n      exp\n      dup2\n      sload\n      dup2\n      0xff\n      mul\n      not\n      and\n      swap1\n      dup4\n      iszero\n      iszero\n      mul\n      or\n      swap1\n      sstore\n      pop\n        /* \"contracts/BanklessWallet.sol\":4607:5033  {... */\n      pop\n        /* \"contracts/BanklessWallet.sol\":4602:4605  i++ */\n      dup1\n      dup1\n      tag_176\n      swap1\n      tag_177\n      jump\t// in\n    tag_176:\n      swap2\n      pop\n      pop\n        /* \"contracts/BanklessWallet.sol\":4560:5033  for (uint i = 0; i < guardianList.length; i++) {... */\n      jump(tag_157)\n    tag_158:\n      pop\n        /* \"contracts/BanklessWallet.sol\":5056:5061  false */\n      0x00\n        /* \"contracts/BanklessWallet.sol\":5043:5053  inRecovery */\n      0x04\n      0x00\n        /* \"contracts/BanklessWallet.sol\":5043:5061  inRecovery = false */\n      0x0100\n      exp\n      dup2\n      sload\n      dup2\n      0xff\n      mul\n      not\n      and\n      swap1\n      dup4\n      iszero\n      iszero\n      mul\n      or\n      swap1\n      sstore\n      pop\n        /* \"contracts/BanklessWallet.sol\":5071:5088  address _oldOwner */\n      0x00\n        /* \"contracts/BanklessWallet.sol\":5091:5096  owner */\n      0x01\n      0x00\n      swap1\n      sload\n      swap1\n      0x0100\n      exp\n      swap1\n      div\n      0xffffffffffffffffffffffffffffffffffffffff\n      and\n        /* \"contracts/BanklessWallet.sol\":5071:5096  address _oldOwner = owner */\n      swap1\n      pop\n        /* \"contracts/BanklessWallet.sol\":5114:5122  newOwner */\n      dup4\n        /* \"contracts/BanklessWallet.sol\":5106:5111  owner */\n      0x01\n      0x00\n        /* \"contracts/BanklessWallet.sol\":5106:5122  owner = newOwner */\n      0x0100\n      exp\n      dup2\n      sload\n      dup2\n      0xffffffffffffffffffffffffffffffffffffffff\n      mul\n      not\n      and\n      swap1\n      dup4\n      0xffffffffffffffffffffffffffffffffffffffff\n      and\n      mul\n      or\n      swap1\n      sstore\n      pop\n        /* \"contracts/BanklessWallet.sol\":5175:5192  currRecoveryRound */\n      sload(0x05)\n        /* \"contracts/BanklessWallet.sol\":5137:5193  RecoveryExecuted(_oldOwner, newOwner, currRecoveryRound) */\n      0xcbaa7c7c351e2d5655fc08d9c383adcf4736af160c800b53df1f1dd221f826c8\n        /* \"contracts/BanklessWallet.sol\":5154:5163  _oldOwner */\n      dup3\n        /* \"contracts/BanklessWallet.sol\":5165:5173  newOwner */\n      dup7\n        /* \"contracts/BanklessWallet.sol\":5137:5193  RecoveryExecuted(_oldOwner, newOwner, currRecoveryRound) */\n      mload(0x40)\n      tag_178\n      swap3\n      swap2\n      swap1\n      tag_179\n      jump\t// in\n    tag_178:\n      mload(0x40)\n      dup1\n      swap2\n      sub\n      swap1\n      log2\n        /* \"contracts/BanklessWallet.sol\":4450:5200  {... */\n      pop\n        /* \"contracts/BanklessWallet.sol\":4316:5200  function executeRecovery(address newOwner, address[] calldata guardianList) onlyGuardian onlyInRecovery notInGuardianRequest external {... */\n      pop\n      pop\n      pop\n      jump\t// out\n        /* \"contracts/BanklessWallet.sol\":226:246  address public owner */\n    tag_65:\n      0x01\n      0x00\n      swap1\n      sload\n      swap1\n      0x0100\n      exp\n      swap1\n      div\n      0xffffffffffffffffffffffffffffffffffffffff\n      and\n      dup2\n      jump\t// out\n        /* \"contracts/BanklessWallet.sol\":2948:3286  function executeTx(address callee, uint256 value, bytes memory data) external onlyOwner nonReentrant returns(bytes memory){... */\n    tag_71:\n        /* \"contracts/BanklessWallet.sol\":3057:3069  bytes memory */\n      0x60\n        /* \"contracts/BanklessWallet.sol\":876:881  owner */\n      0x01\n      0x00\n      swap1\n      sload\n      swap1\n      0x0100\n      exp\n      swap1\n      div\n      0xffffffffffffffffffffffffffffffffffffffff\n      and\n        /* \"contracts/BanklessWallet.sol\":862:881  msg.sender == owner */\n      0xffffffffffffffffffffffffffffffffffffffff\n      and\n        /* \"contracts/BanklessWallet.sol\":862:872  msg.sender */\n      caller\n        /* \"contracts/BanklessWallet.sol\":862:881  msg.sender == owner */\n      0xffffffffffffffffffffffffffffffffffffffff\n      and\n      eq\n        /* \"contracts/BanklessWallet.sol\":854:900  require(msg.sender == owner, \"Not Authorized\") */\n      tag_181\n      jumpi\n      mload(0x40)\n      0x08c379a000000000000000000000000000000000000000000000000000000000\n      dup2\n      mstore\n      0x04\n      add\n      tag_182\n      swap1\n      tag_99\n      jump\t// in\n    tag_182:\n      mload(0x40)\n      dup1\n      swap2\n      sub\n      swap1\n      revert\n    tag_181:\n        /* \"https://github.com/OpenZeppelin/openzeppelin-contracts/blob/master/contracts/utils/ReentrancyGuard.sol\":2356:2377  _nonReentrantBefore() */\n      tag_184\n        /* \"https://github.com/OpenZeppelin/openzeppelin-contracts/blob/master/contracts/utils/ReentrancyGuard.sol\":2356:2375  _nonReentrantBefore */\n      tag_185\n        /* \"https://github.com/OpenZeppelin/openzeppelin-contracts/blob/master/contracts/utils/ReentrancyGuard.sol\":2356:2377  _nonReentrantBefore() */\n      jump\t// in\n    tag_184:\n        /* \"contracts/BanklessWallet.sol\":3081:3093  bool success */\n      0x00\n        /* \"contracts/BanklessWallet.sol\":3095:3114  bytes memory result */\n      dup1\n        /* \"contracts/BanklessWallet.sol\":3118:3124  callee */\n      dup6\n        /* \"contracts/BanklessWallet.sol\":3118:3129  callee.call */\n      0xffffffffffffffffffffffffffffffffffffffff\n      and\n        /* \"contracts/BanklessWallet.sol\":3137:3142  value */\n      dup6\n        /* \"contracts/BanklessWallet.sol\":3144:3148  data */\n      dup6\n        /* \"contracts/BanklessWallet.sol\":3118:3149  callee.call{value: value}(data) */\n      mload(0x40)\n      tag_187\n      swap2\n      swap1\n      tag_188\n      jump\t// in\n    tag_187:\n      0x00\n      mload(0x40)\n      dup1\n      dup4\n      sub\n      dup2\n      dup6\n      dup8\n      gas\n      call\n      swap3\n      pop\n      pop\n      pop\n      returndatasize\n      dup1\n      0x00\n      dup2\n      eq\n      tag_191\n      jumpi\n      mload(0x40)\n      swap2\n      pop\n      and(add(returndatasize, 0x3f), not(0x1f))\n      dup3\n      add\n      0x40\n      mstore\n      returndatasize\n      dup3\n      mstore\n      returndatasize\n      0x00\n      0x20\n      dup5\n      add\n      returndatacopy\n      jump(tag_190)\n    tag_191:\n      0x60\n      swap2\n      pop\n    tag_190:\n      pop\n        /* \"contracts/BanklessWallet.sol\":3080:3149  (bool success, bytes memory result) = callee.call{value: value}(data) */\n      swap2\n      pop\n      swap2\n      pop\n        /* \"contracts/BanklessWallet.sol\":3167:3174  success */\n      dup2\n        /* \"contracts/BanklessWallet.sol\":3159:3201  require(success, \"Contract Call Reverted\") */\n      tag_192\n      jumpi\n      mload(0x40)\n      0x08c379a000000000000000000000000000000000000000000000000000000000\n      dup2\n      mstore\n      0x04\n      add\n      tag_193\n      swap1\n      tag_194\n      jump\t// in\n    tag_193:\n      mload(0x40)\n      dup1\n      swap2\n      sub\n      swap1\n      revert\n    tag_192:\n        /* \"contracts/BanklessWallet.sol\":3236:3242  callee */\n      dup6\n        /* \"contracts/BanklessWallet.sol\":3216:3256  TransactionExecuted(callee, value, data) */\n      0xffffffffffffffffffffffffffffffffffffffff\n      and\n      0x47d99ad340f52da66535aff7e10da1ceb85a32bcbd9fa1c42314d194545e14d2\n        /* \"contracts/BanklessWallet.sol\":3244:3249  value */\n      dup7\n        /* \"contracts/BanklessWallet.sol\":3251:3255  data */\n      dup7\n        /* \"contracts/BanklessWallet.sol\":3216:3256  TransactionExecuted(callee, value, data) */\n      mload(0x40)\n      tag_195\n      swap3\n      swap2\n      swap1\n      tag_196\n      jump\t// in\n    tag_195:\n      mload(0x40)\n      dup1\n      swap2\n      sub\n      swap1\n      log2\n        /* \"contracts/BanklessWallet.sol\":3273:3279  result */\n      dup1\n        /* \"contracts/BanklessWallet.sol\":3266:3279  return result */\n      swap3\n      pop\n      pop\n      pop\n        /* \"https://github.com/OpenZeppelin/openzeppelin-contracts/blob/master/contracts/utils/ReentrancyGuard.sol\":2398:2418  _nonReentrantAfter() */\n      tag_197\n        /* \"https://github.com/OpenZeppelin/openzeppelin-contracts/blob/master/contracts/utils/ReentrancyGuard.sol\":2398:2416  _nonReentrantAfter */\n      tag_198\n        /* \"https://github.com/OpenZeppelin/openzeppelin-contracts/blob/master/contracts/utils/ReentrancyGuard.sol\":2398:2418  _nonReentrantAfter() */\n      jump\t// in\n    tag_197:\n        /* \"contracts/BanklessWallet.sol\":2948:3286  function executeTx(address callee, uint256 value, bytes memory data) external onlyOwner nonReentrant returns(bytes memory){... */\n      swap4\n      swap3\n      pop\n      pop\n      pop\n      jump\t// out\n        /* \"contracts/BanklessWallet.sol\":362:391  bool public inGuardianRequest */\n    tag_75:\n      0x04\n      0x01\n      swap1\n      sload\n      swap1\n      0x0100\n      exp\n      swap1\n      div\n      0xff\n      and\n      dup2\n      jump\t// out\n        /* \"contracts/BanklessWallet.sol\":6126:6317  function cancelGuardianshipTransfer() onlyOwner onlyInGuardianRequest notInRecovery external {... */\n    tag_78:\n        /* \"contracts/BanklessWallet.sol\":876:881  owner */\n      0x01\n      0x00\n      swap1\n      sload\n      swap1\n      0x0100\n      exp\n      swap1\n      div\n      0xffffffffffffffffffffffffffffffffffffffff\n      and\n        /* \"contracts/BanklessWallet.sol\":862:881  msg.sender == owner */\n      0xffffffffffffffffffffffffffffffffffffffff\n      and\n        /* \"contracts/BanklessWallet.sol\":862:872  msg.sender */\n      caller\n        /* \"contracts/BanklessWallet.sol\":862:881  msg.sender == owner */\n      0xffffffffffffffffffffffffffffffffffffffff\n      and\n      eq\n        /* \"contracts/BanklessWallet.sol\":854:900  require(msg.sender == owner, \"Not Authorized\") */\n      tag_200\n      jumpi\n      mload(0x40)\n      0x08c379a000000000000000000000000000000000000000000000000000000000\n      dup2\n      mstore\n      0x04\n      add\n      tag_201\n      swap1\n      tag_99\n      jump\t// in\n    tag_201:\n      mload(0x40)\n      dup1\n      swap2\n      sub\n      swap1\n      revert\n    tag_200:\n        /* \"contracts/BanklessWallet.sol\":1458:1475  inGuardianRequest */\n      0x04\n      0x01\n      swap1\n      sload\n      swap1\n      0x0100\n      exp\n      swap1\n      div\n      0xff\n      and\n        /* \"contracts/BanklessWallet.sol\":1450:1513  require(inGuardianRequest, \"No Current Guardian Request found\") */\n      tag_203\n      jumpi\n      mload(0x40)\n      0x08c379a000000000000000000000000000000000000000000000000000000000\n      dup2\n      mstore\n      0x04\n      add\n      tag_204\n      swap1\n      tag_134\n      jump\t// in\n    tag_204:\n      mload(0x40)\n      dup1\n      swap2\n      sub\n      swap1\n      revert\n    tag_203:\n        /* \"contracts/BanklessWallet.sol\":1098:1108  inRecovery */\n      0x04\n      0x00\n      swap1\n      sload\n      swap1\n      0x0100\n      exp\n      swap1\n      div\n      0xff\n      and\n        /* \"contracts/BanklessWallet.sol\":1097:1108  !inRecovery */\n      iszero\n        /* \"contracts/BanklessWallet.sol\":1089:1139  require(!inRecovery, \"Wallet is in Recovery mode\") */\n      tag_206\n      jumpi\n      mload(0x40)\n      0x08c379a000000000000000000000000000000000000000000000000000000000\n      dup2\n      mstore\n      0x04\n      add\n      tag_207\n      swap1\n      tag_138\n      jump\t// in\n    tag_207:\n      mload(0x40)\n      dup1\n      swap2\n      sub\n      swap1\n      revert\n    tag_206:\n        /* \"contracts/BanklessWallet.sol\":6249:6254  false */\n      0x00\n        /* \"contracts/BanklessWallet.sol\":6229:6246  inGuardianRequest */\n      0x04\n      0x01\n        /* \"contracts/BanklessWallet.sol\":6229:6254  inGuardianRequest = false */\n      0x0100\n      exp\n      dup2\n      sload\n      dup2\n      0xff\n      mul\n      not\n      and\n      swap1\n      dup4\n      iszero\n      iszero\n      mul\n      or\n      swap1\n      sstore\n      pop\n        /* \"contracts/BanklessWallet.sol\":6269:6310  GuardianshipTransferCancelled(msg.sender) */\n      0xd57d294d41d7cb0f642228c3aa8884365982694afcfa206c635fd368dfa4479c\n        /* \"contracts/BanklessWallet.sol\":6299:6309  msg.sender */\n      caller\n        /* \"contracts/BanklessWallet.sol\":6269:6310  GuardianshipTransferCancelled(msg.sender) */\n      mload(0x40)\n      tag_209\n      swap2\n      swap1\n      tag_67\n      jump\t// in\n    tag_209:\n      mload(0x40)\n      dup1\n      swap2\n      sub\n      swap1\n      log1\n        /* \"contracts/BanklessWallet.sol\":6126:6317  function cancelGuardianshipTransfer() onlyOwner onlyInGuardianRequest notInRecovery external {... */\n      jump\t// out\n        /* \"contracts/BanklessWallet.sol\":2764:2938  function transfer(address payable destination, uint256 amount) external onlyOwner {... */\n    tag_82:\n        /* \"contracts/BanklessWallet.sol\":876:881  owner */\n      0x01\n      0x00\n      swap1\n      sload\n      swap1\n      0x0100\n      exp\n      swap1\n      div\n      0xffffffffffffffffffffffffffffffffffffffff\n      and\n        /* \"contracts/BanklessWallet.sol\":862:881  msg.sender == owner */\n      0xffffffffffffffffffffffffffffffffffffffff\n      and\n        /* \"contracts/BanklessWallet.sol\":862:872  msg.sender */\n      caller\n        /* \"contracts/BanklessWallet.sol\":862:881  msg.sender == owner */\n      0xffffffffffffffffffffffffffffffffffffffff\n      and\n      eq\n        /* \"contracts/BanklessWallet.sol\":854:900  require(msg.sender == owner, \"Not Authorized\") */\n      tag_211\n      jumpi\n      mload(0x40)\n      0x08c379a000000000000000000000000000000000000000000000000000000000\n      dup2\n      mstore\n      0x04\n      add\n      tag_212\n      swap1\n      tag_99\n      jump\t// in\n    tag_212:\n      mload(0x40)\n      dup1\n      swap2\n      sub\n      swap1\n      revert\n    tag_211:\n        /* \"contracts/BanklessWallet.sol\":2856:2867  destination */\n      dup2\n        /* \"contracts/BanklessWallet.sol\":2856:2876  destination.transfer */\n      0xffffffffffffffffffffffffffffffffffffffff\n      and\n        /* \"contracts/BanklessWallet.sol\":2856:2884  destination.transfer(amount) */\n      0x08fc\n        /* \"contracts/BanklessWallet.sol\":2877:2883  amount */\n      dup3\n        /* \"contracts/BanklessWallet.sol\":2856:2884  destination.transfer(amount) */\n      swap1\n      dup2\n      iszero\n      mul\n      swap1\n      mload(0x40)\n      0x00\n      mload(0x40)\n      dup1\n      dup4\n      sub\n      dup2\n      dup6\n      dup9\n      dup9\n      call\n      swap4\n      pop\n      pop\n      pop\n      pop\n      iszero\n      dup1\n      iszero\n      tag_215\n      jumpi\n      returndatasize\n      0x00\n      dup1\n      returndatacopy\n      revert(0x00, returndatasize)\n    tag_215:\n      pop\n        /* \"contracts/BanklessWallet.sol\":2911:2922  destination */\n      dup2\n        /* \"contracts/BanklessWallet.sol\":2899:2931  Transferred(destination, amount) */\n      0xffffffffffffffffffffffffffffffffffffffff\n      and\n      0xe6d858f14d755446648a6e0c8ab8b5a0f58ccc7920d4c910b0454e4dcd869af0\n        /* \"contracts/BanklessWallet.sol\":2924:2930  amount */\n      dup3\n        /* \"contracts/BanklessWallet.sol\":2899:2931  Transferred(destination, amount) */\n      mload(0x40)\n      tag_216\n      swap2\n      swap1\n      tag_36\n      jump\t// in\n    tag_216:\n      mload(0x40)\n      dup1\n      swap2\n      sub\n      swap1\n      log2\n        /* \"contracts/BanklessWallet.sol\":2764:2938  function transfer(address payable destination, uint256 amount) external onlyOwner {... */\n      pop\n      pop\n      jump\t// out\n        /* \"contracts/BanklessWallet.sol\":398:430  uint256 public currRecoveryRound */\n    tag_84:\n      sload(0x05)\n      dup2\n      jump\t// out\n        /* \"contracts/BanklessWallet.sol\":5206:5613  function transferGuardianship(address guardianToChange, address newGuardianHash) onlyGuardian notInGuardianRequest notInRecovery external {... */\n    tag_89:\n        /* \"contracts/BanklessWallet.sol\":965:975  isGuardian */\n      0x03\n        /* \"contracts/BanklessWallet.sol\":965:987  isGuardian[msg.sender] */\n      0x00\n        /* \"contracts/BanklessWallet.sol\":976:986  msg.sender */\n      caller\n        /* \"contracts/BanklessWallet.sol\":965:987  isGuardian[msg.sender] */\n      0xffffffffffffffffffffffffffffffffffffffff\n      and\n      0xffffffffffffffffffffffffffffffffffffffff\n      and\n      dup2\n      mstore\n      0x20\n      add\n      swap1\n      dup2\n      mstore\n      0x20\n      add\n      0x00\n      keccak256\n      0x00\n      swap1\n      sload\n      swap1\n      0x0100\n      exp\n      swap1\n      div\n      0xff\n      and\n        /* \"contracts/BanklessWallet.sol\":957:1032  require(isGuardian[msg.sender], \"Only Guardian has access to this request\") */\n      tag_218\n      jumpi\n      mload(0x40)\n      0x08c379a000000000000000000000000000000000000000000000000000000000\n      dup2\n      mstore\n      0x04\n      add\n      tag_219\n      swap1\n      tag_118\n      jump\t// in\n    tag_219:\n      mload(0x40)\n      dup1\n      swap2\n      sub\n      swap1\n      revert\n    tag_218:\n        /* \"contracts/BanklessWallet.sol\":1324:1341  inGuardianRequest */\n      0x04\n      0x01\n      swap1\n      sload\n      swap1\n      0x0100\n      exp\n      swap1\n      div\n      0xff\n      and\n        /* \"contracts/BanklessWallet.sol\":1323:1341  !inGuardianRequest */\n      iszero\n        /* \"contracts/BanklessWallet.sol\":1315:1384  require(!inGuardianRequest, \"Existing Guardian Change Request found\") */\n      tag_221\n      jumpi\n      mload(0x40)\n      0x08c379a000000000000000000000000000000000000000000000000000000000\n      dup2\n      mstore\n      0x04\n      add\n      tag_222\n      swap1\n      tag_125\n      jump\t// in\n    tag_222:\n      mload(0x40)\n      dup1\n      swap2\n      sub\n      swap1\n      revert\n    tag_221:\n        /* \"contracts/BanklessWallet.sol\":1098:1108  inRecovery */\n      0x04\n      0x00\n      swap1\n      sload\n      swap1\n      0x0100\n      exp\n      swap1\n      div\n      0xff\n      and\n        /* \"contracts/BanklessWallet.sol\":1097:1108  !inRecovery */\n      iszero\n        /* \"contracts/BanklessWallet.sol\":1089:1139  require(!inRecovery, \"Wallet is in Recovery mode\") */\n      tag_224\n      jumpi\n      mload(0x40)\n      0x08c379a000000000000000000000000000000000000000000000000000000000\n      dup2\n      mstore\n      0x04\n      add\n      tag_225\n      swap1\n      tag_138\n      jump\t// in\n    tag_225:\n      mload(0x40)\n      dup1\n      swap2\n      sub\n      swap1\n      revert\n    tag_224:\n        /* \"contracts/BanklessWallet.sol\":5390:5493  GuardianRequest(... */\n      mload(0x40)\n      dup1\n      0x60\n      add\n      0x40\n      mstore\n      dup1\n        /* \"contracts/BanklessWallet.sol\":5419:5434  newGuardianHash */\n      dup3\n        /* \"contracts/BanklessWallet.sol\":5390:5493  GuardianRequest(... */\n      0xffffffffffffffffffffffffffffffffffffffff\n      and\n      dup2\n      mstore\n      0x20\n      add\n        /* \"contracts/BanklessWallet.sol\":5448:5464  guardianToChange */\n      dup4\n        /* \"contracts/BanklessWallet.sol\":5390:5493  GuardianRequest(... */\n      0xffffffffffffffffffffffffffffffffffffffff\n      and\n      dup2\n      mstore\n      0x20\n      add\n        /* \"contracts/BanklessWallet.sol\":5478:5483  false */\n      0x00\n        /* \"contracts/BanklessWallet.sol\":5390:5493  GuardianRequest(... */\n      iszero\n      iszero\n      dup2\n      mstore\n      pop\n        /* \"contracts/BanklessWallet.sol\":5354:5375  guardianChangeRequest */\n      0x07\n        /* \"contracts/BanklessWallet.sol\":5354:5387  guardianChangeRequest[msg.sender] */\n      0x00\n        /* \"contracts/BanklessWallet.sol\":5376:5386  msg.sender */\n      caller\n        /* \"contracts/BanklessWallet.sol\":5354:5387  guardianChangeRequest[msg.sender] */\n      0xffffffffffffffffffffffffffffffffffffffff\n      and\n      0xffffffffffffffffffffffffffffffffffffffff\n      and\n      dup2\n      mstore\n      0x20\n      add\n      swap1\n      dup2\n      mstore\n      0x20\n      add\n      0x00\n      keccak256\n        /* \"contracts/BanklessWallet.sol\":5354:5493  guardianChangeRequest[msg.sender] = GuardianRequest(... */\n      0x00\n      dup3\n      add\n      mload\n      dup2\n      0x00\n      add\n      exp(0x0100, 0x00)\n      dup2\n      sload\n      dup2\n      0xffffffffffffffffffffffffffffffffffffffff\n      mul\n      not\n      and\n      swap1\n      dup4\n      0xffffffffffffffffffffffffffffffffffffffff\n      and\n      mul\n      or\n      swap1\n      sstore\n      pop\n      0x20\n      dup3\n      add\n      mload\n      dup2\n      0x01\n      add\n      exp(0x0100, 0x00)\n      dup2\n      sload\n      dup2\n      0xffffffffffffffffffffffffffffffffffffffff\n      mul\n      not\n      and\n      swap1\n      dup4\n      0xffffffffffffffffffffffffffffffffffffffff\n      and\n      mul\n      or\n      swap1\n      sstore\n      pop\n      0x40\n      dup3\n      add\n      mload\n      dup2\n      0x01\n      add\n      exp(0x0100, 0x14)\n      dup2\n      sload\n      dup2\n      0xff\n      mul\n      not\n      and\n      swap1\n      dup4\n      iszero\n      iszero\n      mul\n      or\n      swap1\n      sstore\n      pop\n      swap1\n      pop\n      pop\n        /* \"contracts/BanklessWallet.sol\":5523:5527  true */\n      0x01\n        /* \"contracts/BanklessWallet.sol\":5503:5520  inGuardianRequest */\n      0x04\n      0x01\n        /* \"contracts/BanklessWallet.sol\":5503:5527  inGuardianRequest = true */\n      0x0100\n      exp\n      dup2\n      sload\n      dup2\n      0xff\n      mul\n      not\n      and\n      swap1\n      dup4\n      iszero\n      iszero\n      mul\n      or\n      swap1\n      sstore\n      pop\n        /* \"contracts/BanklessWallet.sol\":5572:5587  newGuardianHash */\n      dup1\n        /* \"contracts/BanklessWallet.sol\":5542:5606  GuardianshipTransferInitiated(newGuardianHash, guardianToChange) */\n      0xffffffffffffffffffffffffffffffffffffffff\n      and\n      0xd940885aa266e9a19341bba634f831bde68d4d3009e14f239e32bed8dd9e4b54\n        /* \"contracts/BanklessWallet.sol\":5589:5605  guardianToChange */\n      dup4\n        /* \"contracts/BanklessWallet.sol\":5542:5606  GuardianshipTransferInitiated(newGuardianHash, guardianToChange) */\n      mload(0x40)\n      tag_227\n      swap2\n      swap1\n      tag_67\n      jump\t// in\n    tag_227:\n      mload(0x40)\n      dup1\n      swap2\n      sub\n      swap1\n      log2\n        /* \"contracts/BanklessWallet.sol\":5206:5613  function transferGuardianship(address guardianToChange, address newGuardianHash) onlyGuardian notInGuardianRequest notInRecovery external {... */\n      pop\n      pop\n      jump\t// out\n        /* \"contracts/BanklessWallet.sol\":3395:3796  function initiateRecovery(address _proposedOwner) onlyGuardian notInRecovery notInGuardianRequest external {... */\n    tag_92:\n        /* \"contracts/BanklessWallet.sol\":965:975  isGuardian */\n      0x03\n        /* \"contracts/BanklessWallet.sol\":965:987  isGuardian[msg.sender] */\n      0x00\n        /* \"contracts/BanklessWallet.sol\":976:986  msg.sender */\n      caller\n        /* \"contracts/BanklessWallet.sol\":965:987  isGuardian[msg.sender] */\n      0xffffffffffffffffffffffffffffffffffffffff\n      and\n      0xffffffffffffffffffffffffffffffffffffffff\n      and\n      dup2\n      mstore\n      0x20\n      add\n      swap1\n      dup2\n      mstore\n      0x20\n      add\n      0x00\n      keccak256\n      0x00\n      swap1\n      sload\n      swap1\n      0x0100\n      exp\n      swap1\n      div\n      0xff\n      and\n        /* \"contracts/BanklessWallet.sol\":957:1032  require(isGuardian[msg.sender], \"Only Guardian has access to this request\") */\n      tag_229\n      jumpi\n      mload(0x40)\n      0x08c379a000000000000000000000000000000000000000000000000000000000\n      dup2\n      mstore\n      0x04\n      add\n      tag_230\n      swap1\n      tag_118\n      jump\t// in\n    tag_230:\n      mload(0x40)\n      dup1\n      swap2\n      sub\n      swap1\n      revert\n    tag_229:\n        /* \"contracts/BanklessWallet.sol\":1098:1108  inRecovery */\n      0x04\n      0x00\n      swap1\n      sload\n      swap1\n      0x0100\n      exp\n      swap1\n      div\n      0xff\n      and\n        /* \"contracts/BanklessWallet.sol\":1097:1108  !inRecovery */\n      iszero\n        /* \"contracts/BanklessWallet.sol\":1089:1139  require(!inRecovery, \"Wallet is in Recovery mode\") */\n      tag_232\n      jumpi\n      mload(0x40)\n      0x08c379a000000000000000000000000000000000000000000000000000000000\n      dup2\n      mstore\n      0x04\n      add\n      tag_233\n      swap1\n      tag_138\n      jump\t// in\n    tag_233:\n      mload(0x40)\n      dup1\n      swap2\n      sub\n      swap1\n      revert\n    tag_232:\n        /* \"contracts/BanklessWallet.sol\":1324:1341  inGuardianRequest */\n      0x04\n      0x01\n      swap1\n      sload\n      swap1\n      0x0100\n      exp\n      swap1\n      div\n      0xff\n      and\n        /* \"contracts/BanklessWallet.sol\":1323:1341  !inGuardianRequest */\n      iszero\n        /* \"contracts/BanklessWallet.sol\":1315:1384  require(!inGuardianRequest, \"Existing Guardian Change Request found\") */\n      tag_235\n      jumpi\n      mload(0x40)\n      0x08c379a000000000000000000000000000000000000000000000000000000000\n      dup2\n      mstore\n      0x04\n      add\n      tag_236\n      swap1\n      tag_125\n      jump\t// in\n    tag_236:\n      mload(0x40)\n      dup1\n      swap2\n      sub\n      swap1\n      revert\n    tag_235:\n        /* \"contracts/BanklessWallet.sol\":3512:3529  currRecoveryRound */\n      0x05\n      0x00\n        /* \"contracts/BanklessWallet.sol\":3512:3532  currRecoveryRound ++ */\n      dup2\n      sload\n      dup1\n      swap3\n      swap2\n      swap1\n      tag_238\n      swap1\n      tag_177\n      jump\t// in\n    tag_238:\n      swap2\n      swap1\n      pop\n      sstore\n      pop\n        /* \"contracts/BanklessWallet.sol\":3580:3683  RecoveryRequest(... */\n      mload(0x40)\n      dup1\n      0x60\n      add\n      0x40\n      mstore\n      dup1\n        /* \"contracts/BanklessWallet.sol\":3609:3623  _proposedOwner */\n      dup3\n        /* \"contracts/BanklessWallet.sol\":3580:3683  RecoveryRequest(... */\n      0xffffffffffffffffffffffffffffffffffffffff\n      and\n      dup2\n      mstore\n      0x20\n      add\n        /* \"contracts/BanklessWallet.sol\":3637:3654  currRecoveryRound */\n      sload(0x05)\n        /* \"contracts/BanklessWallet.sol\":3580:3683  RecoveryRequest(... */\n      dup2\n      mstore\n      0x20\n      add\n        /* \"contracts/BanklessWallet.sol\":3668:3673  false */\n      0x00\n        /* \"contracts/BanklessWallet.sol\":3580:3683  RecoveryRequest(... */\n      iszero\n      iszero\n      dup2\n      mstore\n      pop\n        /* \"contracts/BanklessWallet.sol\":3542:3565  guardianRecoveryRequest */\n      0x06\n        /* \"contracts/BanklessWallet.sol\":3542:3577  guardianRecoveryRequest[msg.sender] */\n      0x00\n        /* \"contracts/BanklessWallet.sol\":3566:3576  msg.sender */\n      caller\n        /* \"contracts/BanklessWallet.sol\":3542:3577  guardianRecoveryRequest[msg.sender] */\n      0xffffffffffffffffffffffffffffffffffffffff\n      and\n      0xffffffffffffffffffffffffffffffffffffffff\n      and\n      dup2\n      mstore\n      0x20\n      add\n      swap1\n      dup2\n      mstore\n      0x20\n      add\n      0x00\n      keccak256\n        /* \"contracts/BanklessWallet.sol\":3542:3683  guardianRecoveryRequest[msg.sender] = RecoveryRequest(... */\n      0x00\n      dup3\n      add\n      mload\n      dup2\n      0x00\n      add\n      exp(0x0100, 0x00)\n      dup2\n      sload\n      dup2\n      0xffffffffffffffffffffffffffffffffffffffff\n      mul\n      not\n      and\n      swap1\n      dup4\n      0xffffffffffffffffffffffffffffffffffffffff\n      and\n      mul\n      or\n      swap1\n      sstore\n      pop\n      0x20\n      dup3\n      add\n      mload\n      dup2\n      0x01\n      add\n      sstore\n      0x40\n      dup3\n      add\n      mload\n      dup2\n      0x02\n      add\n      exp(0x0100, 0x00)\n      dup2\n      sload\n      dup2\n      0xff\n      mul\n      not\n      and\n      swap1\n      dup4\n      iszero\n      iszero\n      mul\n      or\n      swap1\n      sstore\n      pop\n      swap1\n      pop\n      pop\n        /* \"contracts/BanklessWallet.sol\":3706:3710  true */\n      0x01\n        /* \"contracts/BanklessWallet.sol\":3693:3703  inRecovery */\n      0x04\n      0x00\n        /* \"contracts/BanklessWallet.sol\":3693:3710  inRecovery = true */\n      0x0100\n      exp\n      dup2\n      sload\n      dup2\n      0xff\n      mul\n      not\n      and\n      swap1\n      dup4\n      iszero\n      iszero\n      mul\n      or\n      swap1\n      sstore\n      pop\n        /* \"contracts/BanklessWallet.sol\":3771:3788  currRecoveryRound */\n      sload(0x05)\n        /* \"contracts/BanklessWallet.sol\":3743:3753  msg.sender */\n      caller\n        /* \"contracts/BanklessWallet.sol\":3725:3789  RecoveryInitiated(msg.sender, _proposedOwner, currRecoveryRound) */\n      0xffffffffffffffffffffffffffffffffffffffff\n      and\n      0xe290ea2cc3cfeb5114f992dc8be9e503de30042c13b9298644a2679b09e17a04\n        /* \"contracts/BanklessWallet.sol\":3755:3769  _proposedOwner */\n      dup4\n        /* \"contracts/BanklessWallet.sol\":3725:3789  RecoveryInitiated(msg.sender, _proposedOwner, currRecoveryRound) */\n      mload(0x40)\n      tag_239\n      swap2\n      swap1\n      tag_67\n      jump\t// in\n    tag_239:\n      mload(0x40)\n      dup1\n      swap2\n      sub\n      swap1\n      log3\n        /* \"contracts/BanklessWallet.sol\":3395:3796  function initiateRecovery(address _proposedOwner) onlyGuardian notInRecovery notInGuardianRequest external {... */\n      pop\n      jump\t// out\n        /* \"contracts/BanklessWallet.sol\":333:355  bool public inRecovery */\n    tag_94:\n      0x04\n      0x00\n      swap1\n      sload\n      swap1\n      0x0100\n      exp\n      swap1\n      div\n      0xff\n      and\n      dup2\n      jump\t// out\n        /* \"https://github.com/OpenZeppelin/openzeppelin-contracts/blob/master/contracts/utils/ReentrancyGuard.sol\":2431:2738  function _nonReentrantBefore() private {... */\n    tag_185:\n        /* \"https://github.com/OpenZeppelin/openzeppelin-contracts/blob/master/contracts/utils/ReentrancyGuard.sol\":1755:1756  2 */\n      0x02\n        /* \"https://github.com/OpenZeppelin/openzeppelin-contracts/blob/master/contracts/utils/ReentrancyGuard.sol\":2558:2565  _status */\n      sload(0x00)\n        /* \"https://github.com/OpenZeppelin/openzeppelin-contracts/blob/master/contracts/utils/ReentrancyGuard.sol\":2558:2576  _status == ENTERED */\n      sub\n        /* \"https://github.com/OpenZeppelin/openzeppelin-contracts/blob/master/contracts/utils/ReentrancyGuard.sol\":2554:2640  if (_status == ENTERED) {... */\n      tag_241\n      jumpi\n        /* \"https://github.com/OpenZeppelin/openzeppelin-contracts/blob/master/contracts/utils/ReentrancyGuard.sol\":2599:2629  ReentrancyGuardReentrantCall() */\n      mload(0x40)\n      0x3ee5aeb500000000000000000000000000000000000000000000000000000000\n      dup2\n      mstore\n      0x04\n      add\n      mload(0x40)\n      dup1\n      swap2\n      sub\n      swap1\n      revert\n        /* \"https://github.com/OpenZeppelin/openzeppelin-contracts/blob/master/contracts/utils/ReentrancyGuard.sol\":2554:2640  if (_status == ENTERED) {... */\n    tag_241:\n        /* \"https://github.com/OpenZeppelin/openzeppelin-contracts/blob/master/contracts/utils/ReentrancyGuard.sol\":1755:1756  2 */\n      0x02\n        /* \"https://github.com/OpenZeppelin/openzeppelin-contracts/blob/master/contracts/utils/ReentrancyGuard.sol\":2714:2721  _status */\n      0x00\n        /* \"https://github.com/OpenZeppelin/openzeppelin-contracts/blob/master/contracts/utils/ReentrancyGuard.sol\":2714:2731  _status = ENTERED */\n      dup2\n      swap1\n      sstore\n      pop\n        /* \"https://github.com/OpenZeppelin/openzeppelin-contracts/blob/master/contracts/utils/ReentrancyGuard.sol\":2431:2738  function _nonReentrantBefore() private {... */\n      jump\t// out\n        /* \"https://github.com/OpenZeppelin/openzeppelin-contracts/blob/master/contracts/utils/ReentrancyGuard.sol\":2744:2952  function _nonReentrantAfter() private {... */\n    tag_198:\n        /* \"https://github.com/OpenZeppelin/openzeppelin-contracts/blob/master/contracts/utils/ReentrancyGuard.sol\":1713:1714  1 */\n      0x01\n        /* \"https://github.com/OpenZeppelin/openzeppelin-contracts/blob/master/contracts/utils/ReentrancyGuard.sol\":2924:2931  _status */\n      0x00\n        /* \"https://github.com/OpenZeppelin/openzeppelin-contracts/blob/master/contracts/utils/ReentrancyGuard.sol\":2924:2945  _status = NOT_ENTERED */\n      dup2\n      swap1\n      sstore\n      pop\n        /* \"https://github.com/OpenZeppelin/openzeppelin-contracts/blob/master/contracts/utils/ReentrancyGuard.sol\":2744:2952  function _nonReentrantAfter() private {... */\n      jump\t// out\n        /* \"#utility.yul\":7:82   */\n    tag_243:\n        /* \"#utility.yul\":40:46   */\n      0x00\n        /* \"#utility.yul\":73:75   */\n      0x40\n        /* \"#utility.yul\":67:76   */\n      mload\n        /* \"#utility.yul\":57:76   */\n      swap1\n      pop\n        /* \"#utility.yul\":7:82   */\n      swap1\n      jump\t// out\n        /* \"#utility.yul\":88:205   */\n    tag_244:\n        /* \"#utility.yul\":197:198   */\n      0x00\n        /* \"#utility.yul\":194:195   */\n      dup1\n        /* \"#utility.yul\":187:199   */\n      revert\n        /* \"#utility.yul\":211:328   */\n    tag_245:\n        /* \"#utility.yul\":320:321   */\n      0x00\n        /* \"#utility.yul\":317:318   */\n      dup1\n        /* \"#utility.yul\":310:322   */\n      revert\n        /* \"#utility.yul\":334:460   */\n    tag_246:\n        /* \"#utility.yul\":371:378   */\n      0x00\n        /* \"#utility.yul\":411:453   */\n      0xffffffffffffffffffffffffffffffffffffffff\n        /* \"#utility.yul\":404:409   */\n      dup3\n        /* \"#utility.yul\":400:454   */\n      and\n        /* \"#utility.yul\":389:454   */\n      swap1\n      pop\n        /* \"#utility.yul\":334:460   */\n      swap2\n      swap1\n      pop\n      jump\t// out\n        /* \"#utility.yul\":466:562   */\n    tag_247:\n        /* \"#utility.yul\":503:510   */\n      0x00\n        /* \"#utility.yul\":532:556   */\n      tag_313\n        /* \"#utility.yul\":550:555   */\n      dup3\n        /* \"#utility.yul\":532:556   */\n      tag_246\n      jump\t// in\n    tag_313:\n        /* \"#utility.yul\":521:556   */\n      swap1\n      pop\n        /* \"#utility.yul\":466:562   */\n      swap2\n      swap1\n      pop\n      jump\t// out\n        /* \"#utility.yul\":568:690   */\n    tag_248:\n        /* \"#utility.yul\":641:665   */\n      tag_315\n        /* \"#utility.yul\":659:664   */\n      dup2\n        /* \"#utility.yul\":641:665   */\n      tag_247\n      jump\t// in\n    tag_315:\n        /* \"#utility.yul\":634:639   */\n      dup2\n        /* \"#utility.yul\":631:666   */\n      eq\n        /* \"#utility.yul\":621:684   */\n      tag_316\n      jumpi\n        /* \"#utility.yul\":680:681   */\n      0x00\n        /* \"#utility.yul\":677:678   */\n      dup1\n        /* \"#utility.yul\":670:682   */\n      revert\n        /* \"#utility.yul\":621:684   */\n    tag_316:\n        /* \"#utility.yul\":568:690   */\n      pop\n      jump\t// out\n        /* \"#utility.yul\":696:835   */\n    tag_249:\n        /* \"#utility.yul\":742:747   */\n      0x00\n        /* \"#utility.yul\":780:786   */\n      dup2\n        /* \"#utility.yul\":767:787   */\n      calldataload\n        /* \"#utility.yul\":758:787   */\n      swap1\n      pop\n        /* \"#utility.yul\":796:829   */\n      tag_318\n        /* \"#utility.yul\":823:828   */\n      dup2\n        /* \"#utility.yul\":796:829   */\n      tag_248\n      jump\t// in\n    tag_318:\n        /* \"#utility.yul\":696:835   */\n      swap3\n      swap2\n      pop\n      pop\n      jump\t// out\n        /* \"#utility.yul\":841:1170   */\n    tag_29:\n        /* \"#utility.yul\":900:906   */\n      0x00\n        /* \"#utility.yul\":949:951   */\n      0x20\n        /* \"#utility.yul\":937:946   */\n      dup3\n        /* \"#utility.yul\":928:935   */\n      dup5\n        /* \"#utility.yul\":924:947   */\n      sub\n        /* \"#utility.yul\":920:952   */\n      slt\n        /* \"#utility.yul\":917:1036   */\n      iszero\n      tag_320\n      jumpi\n        /* \"#utility.yul\":955:1034   */\n      tag_321\n      tag_244\n      jump\t// in\n    tag_321:\n        /* \"#utility.yul\":917:1036   */\n    tag_320:\n        /* \"#utility.yul\":1075:1076   */\n      0x00\n        /* \"#utility.yul\":1100:1153   */\n      tag_322\n        /* \"#utility.yul\":1145:1152   */\n      dup5\n        /* \"#utility.yul\":1136:1142   */\n      dup3\n        /* \"#utility.yul\":1125:1134   */\n      dup6\n        /* \"#utility.yul\":1121:1143   */\n      add\n        /* \"#utility.yul\":1100:1153   */\n      tag_249\n      jump\t// in\n    tag_322:\n        /* \"#utility.yul\":1090:1153   */\n      swap2\n      pop\n        /* \"#utility.yul\":1046:1163   */\n      pop\n        /* \"#utility.yul\":841:1170   */\n      swap3\n      swap2\n      pop\n      pop\n      jump\t// out\n        /* \"#utility.yul\":1176:1266   */\n    tag_250:\n        /* \"#utility.yul\":1210:1217   */\n      0x00\n        /* \"#utility.yul\":1253:1258   */\n      dup2\n        /* \"#utility.yul\":1246:1259   */\n      iszero\n        /* \"#utility.yul\":1239:1260   */\n      iszero\n        /* \"#utility.yul\":1228:1260   */\n      swap1\n      pop\n        /* \"#utility.yul\":1176:1266   */\n      swap2\n      swap1\n      pop\n      jump\t// out\n        /* \"#utility.yul\":1272:1381   */\n    tag_251:\n        /* \"#utility.yul\":1353:1374   */\n      tag_325\n        /* \"#utility.yul\":1368:1373   */\n      dup2\n        /* \"#utility.yul\":1353:1374   */\n      tag_250\n      jump\t// in\n    tag_325:\n        /* \"#utility.yul\":1348:1351   */\n      dup3\n        /* \"#utility.yul\":1341:1375   */\n      mstore\n        /* \"#utility.yul\":1272:1381   */\n      pop\n      pop\n      jump\t// out\n        /* \"#utility.yul\":1387:1597   */\n    tag_32:\n        /* \"#utility.yul\":1474:1478   */\n      0x00\n        /* \"#utility.yul\":1512:1514   */\n      0x20\n        /* \"#utility.yul\":1501:1510   */\n      dup3\n        /* \"#utility.yul\":1497:1515   */\n      add\n        /* \"#utility.yul\":1489:1515   */\n      swap1\n      pop\n        /* \"#utility.yul\":1525:1590   */\n      tag_327\n        /* \"#utility.yul\":1587:1588   */\n      0x00\n        /* \"#utility.yul\":1576:1585   */\n      dup4\n        /* \"#utility.yul\":1572:1589   */\n      add\n        /* \"#utility.yul\":1563:1569   */\n      dup5\n        /* \"#utility.yul\":1525:1590   */\n      tag_251\n      jump\t// in\n    tag_327:\n        /* \"#utility.yul\":1387:1597   */\n      swap3\n      swap2\n      pop\n      pop\n      jump\t// out\n        /* \"#utility.yul\":1603:1680   */\n    tag_252:\n        /* \"#utility.yul\":1640:1647   */\n      0x00\n        /* \"#utility.yul\":1669:1674   */\n      dup2\n        /* \"#utility.yul\":1658:1674   */\n      swap1\n      pop\n        /* \"#utility.yul\":1603:1680   */\n      swap2\n      swap1\n      pop\n      jump\t// out\n        /* \"#utility.yul\":1686:1804   */\n    tag_253:\n        /* \"#utility.yul\":1773:1797   */\n      tag_330\n        /* \"#utility.yul\":1791:1796   */\n      dup2\n        /* \"#utility.yul\":1773:1797   */\n      tag_252\n      jump\t// in\n    tag_330:\n        /* \"#utility.yul\":1768:1771   */\n      dup3\n        /* \"#utility.yul\":1761:1798   */\n      mstore\n        /* \"#utility.yul\":1686:1804   */\n      pop\n      pop\n      jump\t// out\n        /* \"#utility.yul\":1810:2032   */\n    tag_36:\n        /* \"#utility.yul\":1903:1907   */\n      0x00\n        /* \"#utility.yul\":1941:1943   */\n      0x20\n        /* \"#utility.yul\":1930:1939   */\n      dup3\n        /* \"#utility.yul\":1926:1944   */\n      add\n        /* \"#utility.yul\":1918:1944   */\n      swap1\n      pop\n        /* \"#utility.yul\":1954:2025   */\n      tag_332\n        /* \"#utility.yul\":2022:2023   */\n      0x00\n        /* \"#utility.yul\":2011:2020   */\n      dup4\n        /* \"#utility.yul\":2007:2024   */\n      add\n        /* \"#utility.yul\":1998:2004   */\n      dup5\n        /* \"#utility.yul\":1954:2025   */\n      tag_253\n      jump\t// in\n    tag_332:\n        /* \"#utility.yul\":1810:2032   */\n      swap3\n      swap2\n      pop\n      pop\n      jump\t// out\n        /* \"#utility.yul\":2038:2160   */\n    tag_254:\n        /* \"#utility.yul\":2111:2135   */\n      tag_334\n        /* \"#utility.yul\":2129:2134   */\n      dup2\n        /* \"#utility.yul\":2111:2135   */\n      tag_252\n      jump\t// in\n    tag_334:\n        /* \"#utility.yul\":2104:2109   */\n      dup2\n        /* \"#utility.yul\":2101:2136   */\n      eq\n        /* \"#utility.yul\":2091:2154   */\n      tag_335\n      jumpi\n        /* \"#utility.yul\":2150:2151   */\n      0x00\n        /* \"#utility.yul\":2147:2148   */\n      dup1\n        /* \"#utility.yul\":2140:2152   */\n      revert\n        /* \"#utility.yul\":2091:2154   */\n    tag_335:\n        /* \"#utility.yul\":2038:2160   */\n      pop\n      jump\t// out\n        /* \"#utility.yul\":2166:2305   */\n    tag_255:\n        /* \"#utility.yul\":2212:2217   */\n      0x00\n        /* \"#utility.yul\":2250:2256   */\n      dup2\n        /* \"#utility.yul\":2237:2257   */\n      calldataload\n        /* \"#utility.yul\":2228:2257   */\n      swap1\n      pop\n        /* \"#utility.yul\":2266:2299   */\n      tag_337\n        /* \"#utility.yul\":2293:2298   */\n      dup2\n        /* \"#utility.yul\":2266:2299   */\n      tag_254\n      jump\t// in\n    tag_337:\n        /* \"#utility.yul\":2166:2305   */\n      swap3\n      swap2\n      pop\n      pop\n      jump\t// out\n        /* \"#utility.yul\":2311:2785   */\n    tag_39:\n        /* \"#utility.yul\":2379:2385   */\n      0x00\n        /* \"#utility.yul\":2387:2393   */\n      dup1\n        /* \"#utility.yul\":2436:2438   */\n      0x40\n        /* \"#utility.yul\":2424:2433   */\n      dup4\n        /* \"#utility.yul\":2415:2422   */\n      dup6\n        /* \"#utility.yul\":2411:2434   */\n      sub\n        /* \"#utility.yul\":2407:2439   */\n      slt\n        /* \"#utility.yul\":2404:2523   */\n      iszero\n      tag_339\n      jumpi\n        /* \"#utility.yul\":2442:2521   */\n      tag_340\n      tag_244\n      jump\t// in\n    tag_340:\n        /* \"#utility.yul\":2404:2523   */\n    tag_339:\n        /* \"#utility.yul\":2562:2563   */\n      0x00\n        /* \"#utility.yul\":2587:2640   */\n      tag_341\n        /* \"#utility.yul\":2632:2639   */\n      dup6\n        /* \"#utility.yul\":2623:2629   */\n      dup3\n        /* \"#utility.yul\":2612:2621   */\n      dup7\n        /* \"#utility.yul\":2608:2630   */\n      add\n        /* \"#utility.yul\":2587:2640   */\n      tag_249\n      jump\t// in\n    tag_341:\n        /* \"#utility.yul\":2577:2640   */\n      swap3\n      pop\n        /* \"#utility.yul\":2533:2650   */\n      pop\n        /* \"#utility.yul\":2689:2691   */\n      0x20\n        /* \"#utility.yul\":2715:2768   */\n      tag_342\n        /* \"#utility.yul\":2760:2767   */\n      dup6\n        /* \"#utility.yul\":2751:2757   */\n      dup3\n        /* \"#utility.yul\":2740:2749   */\n      dup7\n        /* \"#utility.yul\":2736:2758   */\n      add\n        /* \"#utility.yul\":2715:2768   */\n      tag_255\n      jump\t// in\n    tag_342:\n        /* \"#utility.yul\":2705:2768   */\n      swap2\n      pop\n        /* \"#utility.yul\":2660:2778   */\n      pop\n        /* \"#utility.yul\":2311:2785   */\n      swap3\n      pop\n      swap3\n      swap1\n      pop\n      jump\t// out\n        /* \"#utility.yul\":2791:2909   */\n    tag_256:\n        /* \"#utility.yul\":2878:2902   */\n      tag_344\n        /* \"#utility.yul\":2896:2901   */\n      dup2\n        /* \"#utility.yul\":2878:2902   */\n      tag_247\n      jump\t// in\n    tag_344:\n        /* \"#utility.yul\":2873:2876   */\n      dup3\n        /* \"#utility.yul\":2866:2903   */\n      mstore\n        /* \"#utility.yul\":2791:2909   */\n      pop\n      pop\n      jump\t// out\n        /* \"#utility.yul\":2915:3345   */\n    tag_45:\n        /* \"#utility.yul\":3058:3062   */\n      0x00\n        /* \"#utility.yul\":3096:3098   */\n      0x60\n        /* \"#utility.yul\":3085:3094   */\n      dup3\n        /* \"#utility.yul\":3081:3099   */\n      add\n        /* \"#utility.yul\":3073:3099   */\n      swap1\n      pop\n        /* \"#utility.yul\":3109:3180   */\n      tag_346\n        /* \"#utility.yul\":3177:3178   */\n      0x00\n        /* \"#utility.yul\":3166:3175   */\n      dup4\n        /* \"#utility.yul\":3162:3179   */\n      add\n        /* \"#utility.yul\":3153:3159   */\n      dup7\n        /* \"#utility.yul\":3109:3180   */\n      tag_256\n      jump\t// in\n    tag_346:\n        /* \"#utility.yul\":3190:3262   */\n      tag_347\n        /* \"#utility.yul\":3258:3260   */\n      0x20\n        /* \"#utility.yul\":3247:3256   */\n      dup4\n        /* \"#utility.yul\":3243:3261   */\n      add\n        /* \"#utility.yul\":3234:3240   */\n      dup6\n        /* \"#utility.yul\":3190:3262   */\n      tag_256\n      jump\t// in\n    tag_347:\n        /* \"#utility.yul\":3272:3338   */\n      tag_348\n        /* \"#utility.yul\":3334:3336   */\n      0x40\n        /* \"#utility.yul\":3323:3332   */\n      dup4\n        /* \"#utility.yul\":3319:3337   */\n      add\n        /* \"#utility.yul\":3310:3316   */\n      dup5\n        /* \"#utility.yul\":3272:3338   */\n      tag_251\n      jump\t// in\n    tag_348:\n        /* \"#utility.yul\":2915:3345   */\n      swap5\n      swap4\n      pop\n      pop\n      pop\n      pop\n      jump\t// out\n        /* \"#utility.yul\":3351:3781   */\n    tag_50:\n        /* \"#utility.yul\":3494:3498   */\n      0x00\n        /* \"#utility.yul\":3532:3534   */\n      0x60\n        /* \"#utility.yul\":3521:3530   */\n      dup3\n        /* \"#utility.yul\":3517:3535   */\n      add\n        /* \"#utility.yul\":3509:3535   */\n      swap1\n      pop\n        /* \"#utility.yul\":3545:3616   */\n      tag_350\n        /* \"#utility.yul\":3613:3614   */\n      0x00\n        /* \"#utility.yul\":3602:3611   */\n      dup4\n        /* \"#utility.yul\":3598:3615   */\n      add\n        /* \"#utility.yul\":3589:3595   */\n      dup7\n        /* \"#utility.yul\":3545:3616   */\n      tag_256\n      jump\t// in\n    tag_350:\n        /* \"#utility.yul\":3626:3698   */\n      tag_351\n        /* \"#utility.yul\":3694:3696   */\n      0x20\n        /* \"#utility.yul\":3683:3692   */\n      dup4\n        /* \"#utility.yul\":3679:3697   */\n      add\n        /* \"#utility.yul\":3670:3676   */\n      dup6\n        /* \"#utility.yul\":3626:3698   */\n      tag_253\n      jump\t// in\n    tag_351:\n        /* \"#utility.yul\":3708:3774   */\n      tag_352\n        /* \"#utility.yul\":3770:3772   */\n      0x40\n        /* \"#utility.yul\":3759:3768   */\n      dup4\n        /* \"#utility.yul\":3755:3773   */\n      add\n        /* \"#utility.yul\":3746:3752   */\n      dup5\n        /* \"#utility.yul\":3708:3774   */\n      tag_251\n      jump\t// in\n    tag_352:\n        /* \"#utility.yul\":3351:3781   */\n      swap5\n      swap4\n      pop\n      pop\n      pop\n      pop\n      jump\t// out\n        /* \"#utility.yul\":3787:3904   */\n    tag_257:\n        /* \"#utility.yul\":3896:3897   */\n      0x00\n        /* \"#utility.yul\":3893:3894   */\n      dup1\n        /* \"#utility.yul\":3886:3898   */\n      revert\n        /* \"#utility.yul\":3910:4027   */\n    tag_258:\n        /* \"#utility.yul\":4019:4020   */\n      0x00\n        /* \"#utility.yul\":4016:4017   */\n      dup1\n        /* \"#utility.yul\":4009:4021   */\n      revert\n        /* \"#utility.yul\":4033:4150   */\n    tag_259:\n        /* \"#utility.yul\":4142:4143   */\n      0x00\n        /* \"#utility.yul\":4139:4140   */\n      dup1\n        /* \"#utility.yul\":4132:4144   */\n      revert\n        /* \"#utility.yul\":4173:4741   */\n    tag_260:\n        /* \"#utility.yul\":4246:4254   */\n      0x00\n        /* \"#utility.yul\":4256:4262   */\n      dup1\n        /* \"#utility.yul\":4306:4309   */\n      dup4\n        /* \"#utility.yul\":4299:4303   */\n      0x1f\n        /* \"#utility.yul\":4291:4297   */\n      dup5\n        /* \"#utility.yul\":4287:4304   */\n      add\n        /* \"#utility.yul\":4283:4310   */\n      slt\n        /* \"#utility.yul\":4273:4395   */\n      tag_357\n      jumpi\n        /* \"#utility.yul\":4314:4393   */\n      tag_358\n      tag_257\n      jump\t// in\n    tag_358:\n        /* \"#utility.yul\":4273:4395   */\n    tag_357:\n        /* \"#utility.yul\":4427:4433   */\n      dup3\n        /* \"#utility.yul\":4414:4434   */\n      calldataload\n        /* \"#utility.yul\":4404:4434   */\n      swap1\n      pop\n        /* \"#utility.yul\":4457:4475   */\n      0xffffffffffffffff\n        /* \"#utility.yul\":4449:4455   */\n      dup2\n        /* \"#utility.yul\":4446:4476   */\n      gt\n        /* \"#utility.yul\":4443:4560   */\n      iszero\n      tag_359\n      jumpi\n        /* \"#utility.yul\":4479:4558   */\n      tag_360\n      tag_258\n      jump\t// in\n    tag_360:\n        /* \"#utility.yul\":4443:4560   */\n    tag_359:\n        /* \"#utility.yul\":4593:4597   */\n      0x20\n        /* \"#utility.yul\":4585:4591   */\n      dup4\n        /* \"#utility.yul\":4581:4598   */\n      add\n        /* \"#utility.yul\":4569:4598   */\n      swap2\n      pop\n        /* \"#utility.yul\":4647:4650   */\n      dup4\n        /* \"#utility.yul\":4639:4643   */\n      0x20\n        /* \"#utility.yul\":4631:4637   */\n      dup3\n        /* \"#utility.yul\":4627:4644   */\n      mul\n        /* \"#utility.yul\":4617:4625   */\n      dup4\n        /* \"#utility.yul\":4613:4645   */\n      add\n        /* \"#utility.yul\":4610:4651   */\n      gt\n        /* \"#utility.yul\":4607:4735   */\n      iszero\n      tag_361\n      jumpi\n        /* \"#utility.yul\":4654:4733   */\n      tag_362\n      tag_259\n      jump\t// in\n    tag_362:\n        /* \"#utility.yul\":4607:4735   */\n    tag_361:\n        /* \"#utility.yul\":4173:4741   */\n      swap3\n      pop\n      swap3\n      swap1\n      pop\n      jump\t// out\n        /* \"#utility.yul\":4747:5451   */\n    tag_62:\n        /* \"#utility.yul\":4842:4848   */\n      0x00\n        /* \"#utility.yul\":4850:4856   */\n      dup1\n        /* \"#utility.yul\":4858:4864   */\n      0x00\n        /* \"#utility.yul\":4907:4909   */\n      0x40\n        /* \"#utility.yul\":4895:4904   */\n      dup5\n        /* \"#utility.yul\":4886:4893   */\n      dup7\n        /* \"#utility.yul\":4882:4905   */\n      sub\n        /* \"#utility.yul\":4878:4910   */\n      slt\n        /* \"#utility.yul\":4875:4994   */\n      iszero\n      tag_364\n      jumpi\n        /* \"#utility.yul\":4913:4992   */\n      tag_365\n      tag_244\n      jump\t// in\n    tag_365:\n        /* \"#utility.yul\":4875:4994   */\n    tag_364:\n        /* \"#utility.yul\":5033:5034   */\n      0x00\n        /* \"#utility.yul\":5058:5111   */\n      tag_366\n        /* \"#utility.yul\":5103:5110   */\n      dup7\n        /* \"#utility.yul\":5094:5100   */\n      dup3\n        /* \"#utility.yul\":5083:5092   */\n      dup8\n        /* \"#utility.yul\":5079:5101   */\n      add\n        /* \"#utility.yul\":5058:5111   */\n      tag_249\n      jump\t// in\n    tag_366:\n        /* \"#utility.yul\":5048:5111   */\n      swap4\n      pop\n        /* \"#utility.yul\":5004:5121   */\n      pop\n        /* \"#utility.yul\":5188:5190   */\n      0x20\n        /* \"#utility.yul\":5177:5186   */\n      dup5\n        /* \"#utility.yul\":5173:5191   */\n      add\n        /* \"#utility.yul\":5160:5192   */\n      calldataload\n        /* \"#utility.yul\":5219:5237   */\n      0xffffffffffffffff\n        /* \"#utility.yul\":5211:5217   */\n      dup2\n        /* \"#utility.yul\":5208:5238   */\n      gt\n        /* \"#utility.yul\":5205:5322   */\n      iszero\n      tag_367\n      jumpi\n        /* \"#utility.yul\":5241:5320   */\n      tag_368\n      tag_245\n      jump\t// in\n    tag_368:\n        /* \"#utility.yul\":5205:5322   */\n    tag_367:\n        /* \"#utility.yul\":5354:5434   */\n      tag_369\n        /* \"#utility.yul\":5426:5433   */\n      dup7\n        /* \"#utility.yul\":5417:5423   */\n      dup3\n        /* \"#utility.yul\":5406:5415   */\n      dup8\n        /* \"#utility.yul\":5402:5424   */\n      add\n        /* \"#utility.yul\":5354:5434   */\n      tag_260\n      jump\t// in\n    tag_369:\n        /* \"#utility.yul\":5336:5434   */\n      swap3\n      pop\n      swap3\n      pop\n        /* \"#utility.yul\":5131:5444   */\n      pop\n        /* \"#utility.yul\":4747:5451   */\n      swap3\n      pop\n      swap3\n      pop\n      swap3\n      jump\t// out\n        /* \"#utility.yul\":5457:5679   */\n    tag_67:\n        /* \"#utility.yul\":5550:5554   */\n      0x00\n        /* \"#utility.yul\":5588:5590   */\n      0x20\n        /* \"#utility.yul\":5577:5586   */\n      dup3\n        /* \"#utility.yul\":5573:5591   */\n      add\n        /* \"#utility.yul\":5565:5591   */\n      swap1\n      pop\n        /* \"#utility.yul\":5601:5672   */\n      tag_371\n        /* \"#utility.yul\":5669:5670   */\n      0x00\n        /* \"#utility.yul\":5658:5667   */\n      dup4\n        /* \"#utility.yul\":5654:5671   */\n      add\n        /* \"#utility.yul\":5645:5651   */\n      dup5\n        /* \"#utility.yul\":5601:5672   */\n      tag_256\n      jump\t// in\n    tag_371:\n        /* \"#utility.yul\":5457:5679   */\n      swap3\n      swap2\n      pop\n      pop\n      jump\t// out\n        /* \"#utility.yul\":5685:5802   */\n    tag_261:\n        /* \"#utility.yul\":5794:5795   */\n      0x00\n        /* \"#utility.yul\":5791:5792   */\n      dup1\n        /* \"#utility.yul\":5784:5796   */\n      revert\n        /* \"#utility.yul\":5808:5910   */\n    tag_262:\n        /* \"#utility.yul\":5849:5855   */\n      0x00\n        /* \"#utility.yul\":5900:5902   */\n      0x1f\n        /* \"#utility.yul\":5896:5903   */\n      not\n        /* \"#utility.yul\":5891:5893   */\n      0x1f\n        /* \"#utility.yul\":5884:5889   */\n      dup4\n        /* \"#utility.yul\":5880:5894   */\n      add\n        /* \"#utility.yul\":5876:5904   */\n      and\n        /* \"#utility.yul\":5866:5904   */\n      swap1\n      pop\n        /* \"#utility.yul\":5808:5910   */\n      swap2\n      swap1\n      pop\n      jump\t// out\n        /* \"#utility.yul\":5916:6096   */\n    tag_263:\n        /* \"#utility.yul\":5964:6041   */\n      0x4e487b7100000000000000000000000000000000000000000000000000000000\n        /* \"#utility.yul\":5961:5962   */\n      0x00\n        /* \"#utility.yul\":5954:6042   */\n      mstore\n        /* \"#utility.yul\":6061:6065   */\n      0x41\n        /* \"#utility.yul\":6058:6059   */\n      0x04\n        /* \"#utility.yul\":6051:6066   */\n      mstore\n        /* \"#utility.yul\":6085:6089   */\n      0x24\n        /* \"#utility.yul\":6082:6083   */\n      0x00\n        /* \"#utility.yul\":6075:6090   */\n      revert\n        /* \"#utility.yul\":6102:6383   */\n    tag_264:\n        /* \"#utility.yul\":6185:6212   */\n      tag_376\n        /* \"#utility.yul\":6207:6211   */\n      dup3\n        /* \"#utility.yul\":6185:6212   */\n      tag_262\n      jump\t// in\n    tag_376:\n        /* \"#utility.yul\":6177:6183   */\n      dup2\n        /* \"#utility.yul\":6173:6213   */\n      add\n        /* \"#utility.yul\":6315:6321   */\n      dup2\n        /* \"#utility.yul\":6303:6313   */\n      dup2\n        /* \"#utility.yul\":6300:6322   */\n      lt\n        /* \"#utility.yul\":6279:6297   */\n      0xffffffffffffffff\n        /* \"#utility.yul\":6267:6277   */\n      dup3\n        /* \"#utility.yul\":6264:6298   */\n      gt\n        /* \"#utility.yul\":6261:6323   */\n      or\n        /* \"#utility.yul\":6258:6346   */\n      iszero\n      tag_377\n      jumpi\n        /* \"#utility.yul\":6326:6344   */\n      tag_378\n      tag_263\n      jump\t// in\n    tag_378:\n        /* \"#utility.yul\":6258:6346   */\n    tag_377:\n        /* \"#utility.yul\":6366:6376   */\n      dup1\n        /* \"#utility.yul\":6362:6364   */\n      0x40\n        /* \"#utility.yul\":6355:6377   */\n      mstore\n        /* \"#utility.yul\":6145:6383   */\n      pop\n        /* \"#utility.yul\":6102:6383   */\n      pop\n      pop\n      jump\t// out\n        /* \"#utility.yul\":6389:6518   */\n    tag_265:\n        /* \"#utility.yul\":6423:6429   */\n      0x00\n        /* \"#utility.yul\":6450:6470   */\n      tag_380\n      tag_243\n      jump\t// in\n    tag_380:\n        /* \"#utility.yul\":6440:6470   */\n      swap1\n      pop\n        /* \"#utility.yul\":6479:6512   */\n      tag_381\n        /* \"#utility.yul\":6507:6511   */\n      dup3\n        /* \"#utility.yul\":6499:6505   */\n      dup3\n        /* \"#utility.yul\":6479:6512   */\n      tag_264\n      jump\t// in\n    tag_381:\n        /* \"#utility.yul\":6389:6518   */\n      swap2\n      swap1\n      pop\n      jump\t// out\n        /* \"#utility.yul\":6524:6831   */\n    tag_266:\n        /* \"#utility.yul\":6585:6589   */\n      0x00\n        /* \"#utility.yul\":6675:6693   */\n      0xffffffffffffffff\n        /* \"#utility.yul\":6667:6673   */\n      dup3\n        /* \"#utility.yul\":6664:6694   */\n      gt\n        /* \"#utility.yul\":6661:6717   */\n      iszero\n      tag_383\n      jumpi\n        /* \"#utility.yul\":6697:6715   */\n      tag_384\n      tag_263\n      jump\t// in\n    tag_384:\n        /* \"#utility.yul\":6661:6717   */\n    tag_383:\n        /* \"#utility.yul\":6735:6764   */\n      tag_385\n        /* \"#utility.yul\":6757:6763   */\n      dup3\n        /* \"#utility.yul\":6735:6764   */\n      tag_262\n      jump\t// in\n    tag_385:\n        /* \"#utility.yul\":6727:6764   */\n      swap1\n      pop\n        /* \"#utility.yul\":6819:6823   */\n      0x20\n        /* \"#utility.yul\":6813:6817   */\n      dup2\n        /* \"#utility.yul\":6809:6824   */\n      add\n        /* \"#utility.yul\":6801:6824   */\n      swap1\n      pop\n        /* \"#utility.yul\":6524:6831   */\n      swap2\n      swap1\n      pop\n      jump\t// out\n        /* \"#utility.yul\":6837:6983   */\n    tag_267:\n        /* \"#utility.yul\":6934:6940   */\n      dup3\n        /* \"#utility.yul\":6929:6932   */\n      dup2\n        /* \"#utility.yul\":6924:6927   */\n      dup4\n        /* \"#utility.yul\":6911:6941   */\n      calldatacopy\n        /* \"#utility.yul\":6975:6976   */\n      0x00\n        /* \"#utility.yul\":6966:6972   */\n      dup4\n        /* \"#utility.yul\":6961:6964   */\n      dup4\n        /* \"#utility.yul\":6957:6973   */\n      add\n        /* \"#utility.yul\":6950:6977   */\n      mstore\n        /* \"#utility.yul\":6837:6983   */\n      pop\n      pop\n      pop\n      jump\t// out\n        /* \"#utility.yul\":6989:7412   */\n    tag_268:\n        /* \"#utility.yul\":7066:7071   */\n      0x00\n        /* \"#utility.yul\":7091:7156   */\n      tag_388\n        /* \"#utility.yul\":7107:7155   */\n      tag_389\n        /* \"#utility.yul\":7148:7154   */\n      dup5\n        /* \"#utility.yul\":7107:7155   */\n      tag_266\n      jump\t// in\n    tag_389:\n        /* \"#utility.yul\":7091:7156   */\n      tag_265\n      jump\t// in\n    tag_388:\n        /* \"#utility.yul\":7082:7156   */\n      swap1\n      pop\n        /* \"#utility.yul\":7179:7185   */\n      dup3\n        /* \"#utility.yul\":7172:7177   */\n      dup2\n        /* \"#utility.yul\":7165:7186   */\n      mstore\n        /* \"#utility.yul\":7217:7221   */\n      0x20\n        /* \"#utility.yul\":7210:7215   */\n      dup2\n        /* \"#utility.yul\":7206:7222   */\n      add\n        /* \"#utility.yul\":7255:7258   */\n      dup5\n        /* \"#utility.yul\":7246:7252   */\n      dup5\n        /* \"#utility.yul\":7241:7244   */\n      dup5\n        /* \"#utility.yul\":7237:7253   */\n      add\n        /* \"#utility.yul\":7234:7259   */\n      gt\n        /* \"#utility.yul\":7231:7343   */\n      iszero\n      tag_390\n      jumpi\n        /* \"#utility.yul\":7262:7341   */\n      tag_391\n      tag_261\n      jump\t// in\n    tag_391:\n        /* \"#utility.yul\":7231:7343   */\n    tag_390:\n        /* \"#utility.yul\":7352:7406   */\n      tag_392\n        /* \"#utility.yul\":7399:7405   */\n      dup5\n        /* \"#utility.yul\":7394:7397   */\n      dup3\n        /* \"#utility.yul\":7389:7392   */\n      dup6\n        /* \"#utility.yul\":7352:7406   */\n      tag_267\n      jump\t// in\n    tag_392:\n        /* \"#utility.yul\":7072:7412   */\n      pop\n        /* \"#utility.yul\":6989:7412   */\n      swap4\n      swap3\n      pop\n      pop\n      pop\n      jump\t// out\n        /* \"#utility.yul\":7431:7769   */\n    tag_269:\n        /* \"#utility.yul\":7486:7491   */\n      0x00\n        /* \"#utility.yul\":7535:7538   */\n      dup3\n        /* \"#utility.yul\":7528:7532   */\n      0x1f\n        /* \"#utility.yul\":7520:7526   */\n      dup4\n        /* \"#utility.yul\":7516:7533   */\n      add\n        /* \"#utility.yul\":7512:7539   */\n      slt\n        /* \"#utility.yul\":7502:7624   */\n      tag_394\n      jumpi\n        /* \"#utility.yul\":7543:7622   */\n      tag_395\n      tag_257\n      jump\t// in\n    tag_395:\n        /* \"#utility.yul\":7502:7624   */\n    tag_394:\n        /* \"#utility.yul\":7660:7666   */\n      dup2\n        /* \"#utility.yul\":7647:7667   */\n      calldataload\n        /* \"#utility.yul\":7685:7763   */\n      tag_396\n        /* \"#utility.yul\":7759:7762   */\n      dup5\n        /* \"#utility.yul\":7751:7757   */\n      dup3\n        /* \"#utility.yul\":7744:7748   */\n      0x20\n        /* \"#utility.yul\":7736:7742   */\n      dup7\n        /* \"#utility.yul\":7732:7749   */\n      add\n        /* \"#utility.yul\":7685:7763   */\n      tag_268\n      jump\t// in\n    tag_396:\n        /* \"#utility.yul\":7676:7763   */\n      swap2\n      pop\n        /* \"#utility.yul\":7492:7769   */\n      pop\n        /* \"#utility.yul\":7431:7769   */\n      swap3\n      swap2\n      pop\n      pop\n      jump\t// out\n        /* \"#utility.yul\":7775:8572   */\n    tag_70:\n        /* \"#utility.yul\":7861:7867   */\n      0x00\n        /* \"#utility.yul\":7869:7875   */\n      dup1\n        /* \"#utility.yul\":7877:7883   */\n      0x00\n        /* \"#utility.yul\":7926:7928   */\n      0x60\n        /* \"#utility.yul\":7914:7923   */\n      dup5\n        /* \"#utility.yul\":7905:7912   */\n      dup7\n        /* \"#utility.yul\":7901:7924   */\n      sub\n        /* \"#utility.yul\":7897:7929   */\n      slt\n        /* \"#utility.yul\":7894:8013   */\n      iszero\n      tag_398\n      jumpi\n        /* \"#utility.yul\":7932:8011   */\n      tag_399\n      tag_244\n      jump\t// in\n    tag_399:\n        /* \"#utility.yul\":7894:8013   */\n    tag_398:\n        /* \"#utility.yul\":8052:8053   */\n      0x00\n        /* \"#utility.yul\":8077:8130   */\n      tag_400\n        /* \"#utility.yul\":8122:8129   */\n      dup7\n        /* \"#utility.yul\":8113:8119   */\n      dup3\n        /* \"#utility.yul\":8102:8111   */\n      dup8\n        /* \"#utility.yul\":8098:8120   */\n      add\n        /* \"#utility.yul\":8077:8130   */\n      tag_249\n      jump\t// in\n    tag_400:\n        /* \"#utility.yul\":8067:8130   */\n      swap4\n      pop\n        /* \"#utility.yul\":8023:8140   */\n      pop\n        /* \"#utility.yul\":8179:8181   */\n      0x20\n        /* \"#utility.yul\":8205:8258   */\n      tag_401\n        /* \"#utility.yul\":8250:8257   */\n      dup7\n        /* \"#utility.yul\":8241:8247   */\n      dup3\n        /* \"#utility.yul\":8230:8239   */\n      dup8\n        /* \"#utility.yul\":8226:8248   */\n      add\n        /* \"#utility.yul\":8205:8258   */\n      tag_255\n      jump\t// in\n    tag_401:\n        /* \"#utility.yul\":8195:8258   */\n      swap3\n      pop\n        /* \"#utility.yul\":8150:8268   */\n      pop\n        /* \"#utility.yul\":8335:8337   */\n      0x40\n        /* \"#utility.yul\":8324:8333   */\n      dup5\n        /* \"#utility.yul\":8320:8338   */\n      add\n        /* \"#utility.yul\":8307:8339   */\n      calldataload\n        /* \"#utility.yul\":8366:8384   */\n      0xffffffffffffffff\n        /* \"#utility.yul\":8358:8364   */\n      dup2\n        /* \"#utility.yul\":8355:8385   */\n      gt\n        /* \"#utility.yul\":8352:8469   */\n      iszero\n      tag_402\n      jumpi\n        /* \"#utility.yul\":8388:8467   */\n      tag_403\n      tag_245\n      jump\t// in\n    tag_403:\n        /* \"#utility.yul\":8352:8469   */\n    tag_402:\n        /* \"#utility.yul\":8493:8555   */\n      tag_404\n        /* \"#utility.yul\":8547:8554   */\n      dup7\n        /* \"#utility.yul\":8538:8544   */\n      dup3\n        /* \"#utility.yul\":8527:8536   */\n      dup8\n        /* \"#utility.yul\":8523:8545   */\n      add\n        /* \"#utility.yul\":8493:8555   */\n      tag_269\n      jump\t// in\n    tag_404:\n        /* \"#utility.yul\":8483:8555   */\n      swap2\n      pop\n        /* \"#utility.yul\":8278:8565   */\n      pop\n        /* \"#utility.yul\":7775:8572   */\n      swap3\n      pop\n      swap3\n      pop\n      swap3\n      jump\t// out\n        /* \"#utility.yul\":8578:8676   */\n    tag_270:\n        /* \"#utility.yul\":8629:8635   */\n      0x00\n        /* \"#utility.yul\":8663:8668   */\n      dup2\n        /* \"#utility.yul\":8657:8669   */\n      mload\n        /* \"#utility.yul\":8647:8669   */\n      swap1\n      pop\n        /* \"#utility.yul\":8578:8676   */\n      swap2\n      swap1\n      pop\n      jump\t// out\n        /* \"#utility.yul\":8682:8850   */\n    tag_271:\n        /* \"#utility.yul\":8765:8776   */\n      0x00\n        /* \"#utility.yul\":8799:8805   */\n      dup3\n        /* \"#utility.yul\":8794:8797   */\n      dup3\n        /* \"#utility.yul\":8787:8806   */\n      mstore\n        /* \"#utility.yul\":8839:8843   */\n      0x20\n        /* \"#utility.yul\":8834:8837   */\n      dup3\n        /* \"#utility.yul\":8830:8844   */\n      add\n        /* \"#utility.yul\":8815:8844   */\n      swap1\n      pop\n        /* \"#utility.yul\":8682:8850   */\n      swap3\n      swap2\n      pop\n      pop\n      jump\t// out\n        /* \"#utility.yul\":8856:9102   */\n    tag_272:\n        /* \"#utility.yul\":8937:8938   */\n      0x00\n        /* \"#utility.yul\":8947:9060   */\n    tag_408:\n        /* \"#utility.yul\":8961:8967   */\n      dup4\n        /* \"#utility.yul\":8958:8959   */\n      dup2\n        /* \"#utility.yul\":8955:8968   */\n      lt\n        /* \"#utility.yul\":8947:9060   */\n      iszero\n      tag_410\n      jumpi\n        /* \"#utility.yul\":9046:9047   */\n      dup1\n        /* \"#utility.yul\":9041:9044   */\n      dup3\n        /* \"#utility.yul\":9037:9048   */\n      add\n        /* \"#utility.yul\":9031:9049   */\n      mload\n        /* \"#utility.yul\":9027:9028   */\n      dup2\n        /* \"#utility.yul\":9022:9025   */\n      dup5\n        /* \"#utility.yul\":9018:9029   */\n      add\n        /* \"#utility.yul\":9011:9050   */\n      mstore\n        /* \"#utility.yul\":8983:8985   */\n      0x20\n        /* \"#utility.yul\":8980:8981   */\n      dup2\n        /* \"#utility.yul\":8976:8986   */\n      add\n        /* \"#utility.yul\":8971:8986   */\n      swap1\n      pop\n        /* \"#utility.yul\":8947:9060   */\n      jump(tag_408)\n    tag_410:\n        /* \"#utility.yul\":9094:9095   */\n      0x00\n        /* \"#utility.yul\":9085:9091   */\n      dup5\n        /* \"#utility.yul\":9080:9083   */\n      dup5\n        /* \"#utility.yul\":9076:9092   */\n      add\n        /* \"#utility.yul\":9069:9096   */\n      mstore\n        /* \"#utility.yul\":8918:9102   */\n      pop\n        /* \"#utility.yul\":8856:9102   */\n      pop\n      pop\n      pop\n      jump\t// out\n        /* \"#utility.yul\":9108:9481   */\n    tag_273:\n        /* \"#utility.yul\":9194:9197   */\n      0x00\n        /* \"#utility.yul\":9222:9260   */\n      tag_412\n        /* \"#utility.yul\":9254:9259   */\n      dup3\n        /* \"#utility.yul\":9222:9260   */\n      tag_270\n      jump\t// in\n    tag_412:\n        /* \"#utility.yul\":9276:9346   */\n      tag_413\n        /* \"#utility.yul\":9339:9345   */\n      dup2\n        /* \"#utility.yul\":9334:9337   */\n      dup6\n        /* \"#utility.yul\":9276:9346   */\n      tag_271\n      jump\t// in\n    tag_413:\n        /* \"#utility.yul\":9269:9346   */\n      swap4\n      pop\n        /* \"#utility.yul\":9355:9420   */\n      tag_414\n        /* \"#utility.yul\":9413:9419   */\n      dup2\n        /* \"#utility.yul\":9408:9411   */\n      dup6\n        /* \"#utility.yul\":9401:9405   */\n      0x20\n        /* \"#utility.yul\":9394:9399   */\n      dup7\n        /* \"#utility.yul\":9390:9406   */\n      add\n        /* \"#utility.yul\":9355:9420   */\n      tag_272\n      jump\t// in\n    tag_414:\n        /* \"#utility.yul\":9445:9474   */\n      tag_415\n        /* \"#utility.yul\":9467:9473   */\n      dup2\n        /* \"#utility.yul\":9445:9474   */\n      tag_262\n      jump\t// in\n    tag_415:\n        /* \"#utility.yul\":9440:9443   */\n      dup5\n        /* \"#utility.yul\":9436:9475   */\n      add\n        /* \"#utility.yul\":9429:9475   */\n      swap2\n      pop\n        /* \"#utility.yul\":9198:9481   */\n      pop\n        /* \"#utility.yul\":9108:9481   */\n      swap3\n      swap2\n      pop\n      pop\n      jump\t// out\n        /* \"#utility.yul\":9487:9796   */\n    tag_73:\n        /* \"#utility.yul\":9598:9602   */\n      0x00\n        /* \"#utility.yul\":9636:9638   */\n      0x20\n        /* \"#utility.yul\":9625:9634   */\n      dup3\n        /* \"#utility.yul\":9621:9639   */\n      add\n        /* \"#utility.yul\":9613:9639   */\n      swap1\n      pop\n        /* \"#utility.yul\":9685:9694   */\n      dup2\n        /* \"#utility.yul\":9679:9683   */\n      dup2\n        /* \"#utility.yul\":9675:9695   */\n      sub\n        /* \"#utility.yul\":9671:9672   */\n      0x00\n        /* \"#utility.yul\":9660:9669   */\n      dup4\n        /* \"#utility.yul\":9656:9673   */\n      add\n        /* \"#utility.yul\":9649:9696   */\n      mstore\n        /* \"#utility.yul\":9713:9789   */\n      tag_417\n        /* \"#utility.yul\":9784:9788   */\n      dup2\n        /* \"#utility.yul\":9775:9781   */\n      dup5\n        /* \"#utility.yul\":9713:9789   */\n      tag_273\n      jump\t// in\n    tag_417:\n        /* \"#utility.yul\":9705:9789   */\n      swap1\n      pop\n        /* \"#utility.yul\":9487:9796   */\n      swap3\n      swap2\n      pop\n      pop\n      jump\t// out\n        /* \"#utility.yul\":9802:9906   */\n    tag_274:\n        /* \"#utility.yul\":9847:9854   */\n      0x00\n        /* \"#utility.yul\":9876:9900   */\n      tag_419\n        /* \"#utility.yul\":9894:9899   */\n      dup3\n        /* \"#utility.yul\":9876:9900   */\n      tag_246\n      jump\t// in\n    tag_419:\n        /* \"#utility.yul\":9865:9900   */\n      swap1\n      pop\n        /* \"#utility.yul\":9802:9906   */\n      swap2\n      swap1\n      pop\n      jump\t// out\n        /* \"#utility.yul\":9912:10050   */\n    tag_275:\n        /* \"#utility.yul\":9993:10025   */\n      tag_421\n        /* \"#utility.yul\":10019:10024   */\n      dup2\n        /* \"#utility.yul\":9993:10025   */\n      tag_274\n      jump\t// in\n    tag_421:\n        /* \"#utility.yul\":9986:9991   */\n      dup2\n        /* \"#utility.yul\":9983:10026   */\n      eq\n        /* \"#utility.yul\":9973:10044   */\n      tag_422\n      jumpi\n        /* \"#utility.yul\":10040:10041   */\n      0x00\n        /* \"#utility.yul\":10037:10038   */\n      dup1\n        /* \"#utility.yul\":10030:10042   */\n      revert\n        /* \"#utility.yul\":9973:10044   */\n    tag_422:\n        /* \"#utility.yul\":9912:10050   */\n      pop\n      jump\t// out\n        /* \"#utility.yul\":10056:10211   */\n    tag_276:\n        /* \"#utility.yul\":10110:10115   */\n      0x00\n        /* \"#utility.yul\":10148:10154   */\n      dup2\n        /* \"#utility.yul\":10135:10155   */\n      calldataload\n        /* \"#utility.yul\":10126:10155   */\n      swap1\n      pop\n        /* \"#utility.yul\":10164:10205   */\n      tag_424\n        /* \"#utility.yul\":10199:10204   */\n      dup2\n        /* \"#utility.yul\":10164:10205   */\n      tag_275\n      jump\t// in\n    tag_424:\n        /* \"#utility.yul\":10056:10211   */\n      swap3\n      swap2\n      pop\n      pop\n      jump\t// out\n        /* \"#utility.yul\":10217:10707   */\n    tag_81:\n        /* \"#utility.yul\":10293:10299   */\n      0x00\n        /* \"#utility.yul\":10301:10307   */\n      dup1\n        /* \"#utility.yul\":10350:10352   */\n      0x40\n        /* \"#utility.yul\":10338:10347   */\n      dup4\n        /* \"#utility.yul\":10329:10336   */\n      dup6\n        /* \"#utility.yul\":10325:10348   */\n      sub\n        /* \"#utility.yul\":10321:10353   */\n      slt\n        /* \"#utility.yul\":10318:10437   */\n      iszero\n      tag_426\n      jumpi\n        /* \"#utility.yul\":10356:10435   */\n      tag_427\n      tag_244\n      jump\t// in\n    tag_427:\n        /* \"#utility.yul\":10318:10437   */\n    tag_426:\n        /* \"#utility.yul\":10476:10477   */\n      0x00\n        /* \"#utility.yul\":10501:10562   */\n      tag_428\n        /* \"#utility.yul\":10554:10561   */\n      dup6\n        /* \"#utility.yul\":10545:10551   */\n      dup3\n        /* \"#utility.yul\":10534:10543   */\n      dup7\n        /* \"#utility.yul\":10530:10552   */\n      add\n        /* \"#utility.yul\":10501:10562   */\n      tag_276\n      jump\t// in\n    tag_428:\n        /* \"#utility.yul\":10491:10562   */\n      swap3\n      pop\n        /* \"#utility.yul\":10447:10572   */\n      pop\n        /* \"#utility.yul\":10611:10613   */\n      0x20\n        /* \"#utility.yul\":10637:10690   */\n      tag_429\n        /* \"#utility.yul\":10682:10689   */\n      dup6\n        /* \"#utility.yul\":10673:10679   */\n      dup3\n        /* \"#utility.yul\":10662:10671   */\n      dup7\n        /* \"#utility.yul\":10658:10680   */\n      add\n        /* \"#utility.yul\":10637:10690   */\n      tag_255\n      jump\t// in\n    tag_429:\n        /* \"#utility.yul\":10627:10690   */\n      swap2\n      pop\n        /* \"#utility.yul\":10582:10700   */\n      pop\n        /* \"#utility.yul\":10217:10707   */\n      swap3\n      pop\n      swap3\n      swap1\n      pop\n      jump\t// out\n        /* \"#utility.yul\":10713:11187   */\n    tag_88:\n        /* \"#utility.yul\":10781:10787   */\n      0x00\n        /* \"#utility.yul\":10789:10795   */\n      dup1\n        /* \"#utility.yul\":10838:10840   */\n      0x40\n        /* \"#utility.yul\":10826:10835   */\n      dup4\n        /* \"#utility.yul\":10817:10824   */\n      dup6\n        /* \"#utility.yul\":10813:10836   */\n      sub\n        /* \"#utility.yul\":10809:10841   */\n      slt\n        /* \"#utility.yul\":10806:10925   */\n      iszero\n      tag_431\n      jumpi\n        /* \"#utility.yul\":10844:10923   */\n      tag_432\n      tag_244\n      jump\t// in\n    tag_432:\n        /* \"#utility.yul\":10806:10925   */\n    tag_431:\n        /* \"#utility.yul\":10964:10965   */\n      0x00\n        /* \"#utility.yul\":10989:11042   */\n      tag_433\n        /* \"#utility.yul\":11034:11041   */\n      dup6\n        /* \"#utility.yul\":11025:11031   */\n      dup3\n        /* \"#utility.yul\":11014:11023   */\n      dup7\n        /* \"#utility.yul\":11010:11032   */\n      add\n        /* \"#utility.yul\":10989:11042   */\n      tag_249\n      jump\t// in\n    tag_433:\n        /* \"#utility.yul\":10979:11042   */\n      swap3\n      pop\n        /* \"#utility.yul\":10935:11052   */\n      pop\n        /* \"#utility.yul\":11091:11093   */\n      0x20\n        /* \"#utility.yul\":11117:11170   */\n      tag_434\n        /* \"#utility.yul\":11162:11169   */\n      dup6\n        /* \"#utility.yul\":11153:11159   */\n      dup3\n        /* \"#utility.yul\":11142:11151   */\n      dup7\n        /* \"#utility.yul\":11138:11160   */\n      add\n        /* \"#utility.yul\":11117:11170   */\n      tag_249\n      jump\t// in\n    tag_434:\n        /* \"#utility.yul\":11107:11170   */\n      swap2\n      pop\n        /* \"#utility.yul\":11062:11180   */\n      pop\n        /* \"#utility.yul\":10713:11187   */\n      swap3\n      pop\n      swap3\n      swap1\n      pop\n      jump\t// out\n        /* \"#utility.yul\":11193:11362   */\n    tag_277:\n        /* \"#utility.yul\":11277:11288   */\n      0x00\n        /* \"#utility.yul\":11311:11317   */\n      dup3\n        /* \"#utility.yul\":11306:11309   */\n      dup3\n        /* \"#utility.yul\":11299:11318   */\n      mstore\n        /* \"#utility.yul\":11351:11355   */\n      0x20\n        /* \"#utility.yul\":11346:11349   */\n      dup3\n        /* \"#utility.yul\":11342:11356   */\n      add\n        /* \"#utility.yul\":11327:11356   */\n      swap1\n      pop\n        /* \"#utility.yul\":11193:11362   */\n      swap3\n      swap2\n      pop\n      pop\n      jump\t// out\n        /* \"#utility.yul\":11368:11532   */\n    tag_278:\n        /* \"#utility.yul\":11508:11524   */\n      0x4e6f7420417574686f72697a6564000000000000000000000000000000000000\n        /* \"#utility.yul\":11504:11505   */\n      0x00\n        /* \"#utility.yul\":11496:11502   */\n      dup3\n        /* \"#utility.yul\":11492:11506   */\n      add\n        /* \"#utility.yul\":11485:11525   */\n      mstore\n        /* \"#utility.yul\":11368:11532   */\n      pop\n      jump\t// out\n        /* \"#utility.yul\":11538:11904   */\n    tag_279:\n        /* \"#utility.yul\":11680:11683   */\n      0x00\n        /* \"#utility.yul\":11701:11768   */\n      tag_438\n        /* \"#utility.yul\":11765:11767   */\n      0x0e\n        /* \"#utility.yul\":11760:11763   */\n      dup4\n        /* \"#utility.yul\":11701:11768   */\n      tag_277\n      jump\t// in\n    tag_438:\n        /* \"#utility.yul\":11694:11768   */\n      swap2\n      pop\n        /* \"#utility.yul\":11777:11870   */\n      tag_439\n        /* \"#utility.yul\":11866:11869   */\n      dup3\n        /* \"#utility.yul\":11777:11870   */\n      tag_278\n      jump\t// in\n    tag_439:\n        /* \"#utility.yul\":11895:11897   */\n      0x20\n        /* \"#utility.yul\":11890:11893   */\n      dup3\n        /* \"#utility.yul\":11886:11898   */\n      add\n        /* \"#utility.yul\":11879:11898   */\n      swap1\n      pop\n        /* \"#utility.yul\":11538:11904   */\n      swap2\n      swap1\n      pop\n      jump\t// out\n        /* \"#utility.yul\":11910:12329   */\n    tag_99:\n        /* \"#utility.yul\":12076:12080   */\n      0x00\n        /* \"#utility.yul\":12114:12116   */\n      0x20\n        /* \"#utility.yul\":12103:12112   */\n      dup3\n        /* \"#utility.yul\":12099:12117   */\n      add\n        /* \"#utility.yul\":12091:12117   */\n      swap1\n      pop\n        /* \"#utility.yul\":12163:12172   */\n      dup2\n        /* \"#utility.yul\":12157:12161   */\n      dup2\n        /* \"#utility.yul\":12153:12173   */\n      sub\n        /* \"#utility.yul\":12149:12150   */\n      0x00\n        /* \"#utility.yul\":12138:12147   */\n      dup4\n        /* \"#utility.yul\":12134:12151   */\n      add\n        /* \"#utility.yul\":12127:12174   */\n      mstore\n        /* \"#utility.yul\":12191:12322   */\n      tag_441\n        /* \"#utility.yul\":12317:12321   */\n      dup2\n        /* \"#utility.yul\":12191:12322   */\n      tag_279\n      jump\t// in\n    tag_441:\n        /* \"#utility.yul\":12183:12322   */\n      swap1\n      pop\n        /* \"#utility.yul\":11910:12329   */\n      swap2\n      swap1\n      pop\n      jump\t// out\n        /* \"#utility.yul\":12335:12515   */\n    tag_280:\n        /* \"#utility.yul\":12475:12507   */\n      0x57616c6c6574206973206e6f7420696e205265636f76657279206d6f64650000\n        /* \"#utility.yul\":12471:12472   */\n      0x00\n        /* \"#utility.yul\":12463:12469   */\n      dup3\n        /* \"#utility.yul\":12459:12473   */\n      add\n        /* \"#utility.yul\":12452:12508   */\n      mstore\n        /* \"#utility.yul\":12335:12515   */\n      pop\n      jump\t// out\n        /* \"#utility.yul\":12521:12887   */\n    tag_281:\n        /* \"#utility.yul\":12663:12666   */\n      0x00\n        /* \"#utility.yul\":12684:12751   */\n      tag_444\n        /* \"#utility.yul\":12748:12750   */\n      0x1e\n        /* \"#utility.yul\":12743:12746   */\n      dup4\n        /* \"#utility.yul\":12684:12751   */\n      tag_277\n      jump\t// in\n    tag_444:\n        /* \"#utility.yul\":12677:12751   */\n      swap2\n      pop\n        /* \"#utility.yul\":12760:12853   */\n      tag_445\n        /* \"#utility.yul\":12849:12852   */\n      dup3\n        /* \"#utility.yul\":12760:12853   */\n      tag_280\n      jump\t// in\n    tag_445:\n        /* \"#utility.yul\":12878:12880   */\n      0x20\n        /* \"#utility.yul\":12873:12876   */\n      dup3\n        /* \"#utility.yul\":12869:12881   */\n      add\n        /* \"#utility.yul\":12862:12881   */\n      swap1\n      pop\n        /* \"#utility.yul\":12521:12887   */\n      swap2\n      swap1\n      pop\n      jump\t// out\n        /* \"#utility.yul\":12893:13312   */\n    tag_103:\n        /* \"#utility.yul\":13059:13063   */\n      0x00\n        /* \"#utility.yul\":13097:13099   */\n      0x20\n        /* \"#utility.yul\":13086:13095   */\n      dup3\n        /* \"#utility.yul\":13082:13100   */\n      add\n        /* \"#utility.yul\":13074:13100   */\n      swap1\n      pop\n        /* \"#utility.yul\":13146:13155   */\n      dup2\n        /* \"#utility.yul\":13140:13144   */\n      dup2\n        /* \"#utility.yul\":13136:13156   */\n      sub\n        /* \"#utility.yul\":13132:13133   */\n      0x00\n        /* \"#utility.yul\":13121:13130   */\n      dup4\n        /* \"#utility.yul\":13117:13134   */\n      add\n        /* \"#utility.yul\":13110:13157   */\n      mstore\n        /* \"#utility.yul\":13174:13305   */\n      tag_447\n        /* \"#utility.yul\":13300:13304   */\n      dup2\n        /* \"#utility.yul\":13174:13305   */\n      tag_281\n      jump\t// in\n    tag_447:\n        /* \"#utility.yul\":13166:13305   */\n      swap1\n      pop\n        /* \"#utility.yul\":12893:13312   */\n      swap2\n      swap1\n      pop\n      jump\t// out\n        /* \"#utility.yul\":13318:13482   */\n    tag_282:\n        /* \"#utility.yul\":13458:13474   */\n      0x6e6f74206120677561726469616e000000000000000000000000000000000000\n        /* \"#utility.yul\":13454:13455   */\n      0x00\n        /* \"#utility.yul\":13446:13452   */\n      dup3\n        /* \"#utility.yul\":13442:13456   */\n      add\n        /* \"#utility.yul\":13435:13475   */\n      mstore\n        /* \"#utility.yul\":13318:13482   */\n      pop\n      jump\t// out\n        /* \"#utility.yul\":13488:13854   */\n    tag_283:\n        /* \"#utility.yul\":13630:13633   */\n      0x00\n        /* \"#utility.yul\":13651:13718   */\n      tag_450\n        /* \"#utility.yul\":13715:13717   */\n      0x0e\n        /* \"#utility.yul\":13710:13713   */\n      dup4\n        /* \"#utility.yul\":13651:13718   */\n      tag_277\n      jump\t// in\n    tag_450:\n        /* \"#utility.yul\":13644:13718   */\n      swap2\n      pop\n        /* \"#utility.yul\":13727:13820   */\n      tag_451\n        /* \"#utility.yul\":13816:13819   */\n      dup3\n        /* \"#utility.yul\":13727:13820   */\n      tag_282\n      jump\t// in\n    tag_451:\n        /* \"#utility.yul\":13845:13847   */\n      0x20\n        /* \"#utility.yul\":13840:13843   */\n      dup3\n        /* \"#utility.yul\":13836:13848   */\n      add\n        /* \"#utility.yul\":13829:13848   */\n      swap1\n      pop\n        /* \"#utility.yul\":13488:13854   */\n      swap2\n      swap1\n      pop\n      jump\t// out\n        /* \"#utility.yul\":13860:14279   */\n    tag_113:\n        /* \"#utility.yul\":14026:14030   */\n      0x00\n        /* \"#utility.yul\":14064:14066   */\n      0x20\n        /* \"#utility.yul\":14053:14062   */\n      dup3\n        /* \"#utility.yul\":14049:14067   */\n      add\n        /* \"#utility.yul\":14041:14067   */\n      swap1\n      pop\n        /* \"#utility.yul\":14113:14122   */\n      dup2\n        /* \"#utility.yul\":14107:14111   */\n      dup2\n        /* \"#utility.yul\":14103:14123   */\n      sub\n        /* \"#utility.yul\":14099:14100   */\n      0x00\n        /* \"#utility.yul\":14088:14097   */\n      dup4\n        /* \"#utility.yul\":14084:14101   */\n      add\n        /* \"#utility.yul\":14077:14124   */\n      mstore\n        /* \"#utility.yul\":14141:14272   */\n      tag_453\n        /* \"#utility.yul\":14267:14271   */\n      dup2\n        /* \"#utility.yul\":14141:14272   */\n      tag_283\n      jump\t// in\n    tag_453:\n        /* \"#utility.yul\":14133:14272   */\n      swap1\n      pop\n        /* \"#utility.yul\":13860:14279   */\n      swap2\n      swap1\n      pop\n      jump\t// out\n        /* \"#utility.yul\":14285:14512   */\n    tag_284:\n        /* \"#utility.yul\":14425:14459   */\n      0x4f6e6c7920477561726469616e206861732061636365737320746f2074686973\n        /* \"#utility.yul\":14421:14422   */\n      0x00\n        /* \"#utility.yul\":14413:14419   */\n      dup3\n        /* \"#utility.yul\":14409:14423   */\n      add\n        /* \"#utility.yul\":14402:14460   */\n      mstore\n        /* \"#utility.yul\":14494:14504   */\n      0x2072657175657374000000000000000000000000000000000000000000000000\n        /* \"#utility.yul\":14489:14491   */\n      0x20\n        /* \"#utility.yul\":14481:14487   */\n      dup3\n        /* \"#utility.yul\":14477:14492   */\n      add\n        /* \"#utility.yul\":14470:14505   */\n      mstore\n        /* \"#utility.yul\":14285:14512   */\n      pop\n      jump\t// out\n        /* \"#utility.yul\":14518:14884   */\n    tag_285:\n        /* \"#utility.yul\":14660:14663   */\n      0x00\n        /* \"#utility.yul\":14681:14748   */\n      tag_456\n        /* \"#utility.yul\":14745:14747   */\n      0x28\n        /* \"#utility.yul\":14740:14743   */\n      dup4\n        /* \"#utility.yul\":14681:14748   */\n      tag_277\n      jump\t// in\n    tag_456:\n        /* \"#utility.yul\":14674:14748   */\n      swap2\n      pop\n        /* \"#utility.yul\":14757:14850   */\n      tag_457\n        /* \"#utility.yul\":14846:14849   */\n      dup3\n        /* \"#utility.yul\":14757:14850   */\n      tag_284\n      jump\t// in\n    tag_457:\n        /* \"#utility.yul\":14875:14877   */\n      0x40\n        /* \"#utility.yul\":14870:14873   */\n      dup3\n        /* \"#utility.yul\":14866:14878   */\n      add\n        /* \"#utility.yul\":14859:14878   */\n      swap1\n      pop\n        /* \"#utility.yul\":14518:14884   */\n      swap2\n      swap1\n      pop\n      jump\t// out\n        /* \"#utility.yul\":14890:15309   */\n    tag_118:\n        /* \"#utility.yul\":15056:15060   */\n      0x00\n        /* \"#utility.yul\":15094:15096   */\n      0x20\n        /* \"#utility.yul\":15083:15092   */\n      dup3\n        /* \"#utility.yul\":15079:15097   */\n      add\n        /* \"#utility.yul\":15071:15097   */\n      swap1\n      pop\n        /* \"#utility.yul\":15143:15152   */\n      dup2\n        /* \"#utility.yul\":15137:15141   */\n      dup2\n        /* \"#utility.yul\":15133:15153   */\n      sub\n        /* \"#utility.yul\":15129:15130   */\n      0x00\n        /* \"#utility.yul\":15118:15127   */\n      dup4\n        /* \"#utility.yul\":15114:15131   */\n      add\n        /* \"#utility.yul\":15107:15154   */\n      mstore\n        /* \"#utility.yul\":15171:15302   */\n      tag_459\n        /* \"#utility.yul\":15297:15301   */\n      dup2\n        /* \"#utility.yul\":15171:15302   */\n      tag_285\n      jump\t// in\n    tag_459:\n        /* \"#utility.yul\":15163:15302   */\n      swap1\n      pop\n        /* \"#utility.yul\":14890:15309   */\n      swap2\n      swap1\n      pop\n      jump\t// out\n        /* \"#utility.yul\":15315:15540   */\n    tag_286:\n        /* \"#utility.yul\":15455:15489   */\n      0x4578697374696e6720477561726469616e204368616e67652052657175657374\n        /* \"#utility.yul\":15451:15452   */\n      0x00\n        /* \"#utility.yul\":15443:15449   */\n      dup3\n        /* \"#utility.yul\":15439:15453   */\n      add\n        /* \"#utility.yul\":15432:15490   */\n      mstore\n        /* \"#utility.yul\":15524:15532   */\n      0x20666f756e640000000000000000000000000000000000000000000000000000\n        /* \"#utility.yul\":15519:15521   */\n      0x20\n        /* \"#utility.yul\":15511:15517   */\n      dup3\n        /* \"#utility.yul\":15507:15522   */\n      add\n        /* \"#utility.yul\":15500:15533   */\n      mstore\n        /* \"#utility.yul\":15315:15540   */\n      pop\n      jump\t// out\n        /* \"#utility.yul\":15546:15912   */\n    tag_287:\n        /* \"#utility.yul\":15688:15691   */\n      0x00\n        /* \"#utility.yul\":15709:15776   */\n      tag_462\n        /* \"#utility.yul\":15773:15775   */\n      0x26\n        /* \"#utility.yul\":15768:15771   */\n      dup4\n        /* \"#utility.yul\":15709:15776   */\n      tag_277\n      jump\t// in\n    tag_462:\n        /* \"#utility.yul\":15702:15776   */\n      swap2\n      pop\n        /* \"#utility.yul\":15785:15878   */\n      tag_463\n        /* \"#utility.yul\":15874:15877   */\n      dup3\n        /* \"#utility.yul\":15785:15878   */\n      tag_286\n      jump\t// in\n    tag_463:\n        /* \"#utility.yul\":15903:15905   */\n      0x40\n        /* \"#utility.yul\":15898:15901   */\n      dup3\n        /* \"#utility.yul\":15894:15906   */\n      add\n        /* \"#utility.yul\":15887:15906   */\n      swap1\n      pop\n        /* \"#utility.yul\":15546:15912   */\n      swap2\n      swap1\n      pop\n      jump\t// out\n        /* \"#utility.yul\":15918:16337   */\n    tag_125:\n        /* \"#utility.yul\":16084:16088   */\n      0x00\n        /* \"#utility.yul\":16122:16124   */\n      0x20\n        /* \"#utility.yul\":16111:16120   */\n      dup3\n        /* \"#utility.yul\":16107:16125   */\n      add\n        /* \"#utility.yul\":16099:16125   */\n      swap1\n      pop\n        /* \"#utility.yul\":16171:16180   */\n      dup2\n        /* \"#utility.yul\":16165:16169   */\n      dup2\n        /* \"#utility.yul\":16161:16181   */\n      sub\n        /* \"#utility.yul\":16157:16158   */\n      0x00\n        /* \"#utility.yul\":16146:16155   */\n      dup4\n        /* \"#utility.yul\":16142:16159   */\n      add\n        /* \"#utility.yul\":16135:16182   */\n      mstore\n        /* \"#utility.yul\":16199:16330   */\n      tag_465\n        /* \"#utility.yul\":16325:16329   */\n      dup2\n        /* \"#utility.yul\":16199:16330   */\n      tag_287\n      jump\t// in\n    tag_465:\n        /* \"#utility.yul\":16191:16330   */\n      swap1\n      pop\n        /* \"#utility.yul\":15918:16337   */\n      swap2\n      swap1\n      pop\n      jump\t// out\n        /* \"#utility.yul\":16343:16563   */\n    tag_288:\n        /* \"#utility.yul\":16483:16517   */\n      0x4e6f2043757272656e7420477561726469616e205265717565737420666f756e\n        /* \"#utility.yul\":16479:16480   */\n      0x00\n        /* \"#utility.yul\":16471:16477   */\n      dup3\n        /* \"#utility.yul\":16467:16481   */\n      add\n        /* \"#utility.yul\":16460:16518   */\n      mstore\n        /* \"#utility.yul\":16552:16555   */\n      0x6400000000000000000000000000000000000000000000000000000000000000\n        /* \"#utility.yul\":16547:16549   */\n      0x20\n        /* \"#utility.yul\":16539:16545   */\n      dup3\n        /* \"#utility.yul\":16535:16550   */\n      add\n        /* \"#utility.yul\":16528:16556   */\n      mstore\n        /* \"#utility.yul\":16343:16563   */\n      pop\n      jump\t// out\n        /* \"#utility.yul\":16569:16935   */\n    tag_289:\n        /* \"#utility.yul\":16711:16714   */\n      0x00\n        /* \"#utility.yul\":16732:16799   */\n      tag_468\n        /* \"#utility.yul\":16796:16798   */\n      0x21\n        /* \"#utility.yul\":16791:16794   */\n      dup4\n        /* \"#utility.yul\":16732:16799   */\n      tag_277\n      jump\t// in\n    tag_468:\n        /* \"#utility.yul\":16725:16799   */\n      swap2\n      pop\n        /* \"#utility.yul\":16808:16901   */\n      tag_469\n        /* \"#utility.yul\":16897:16900   */\n      dup3\n        /* \"#utility.yul\":16808:16901   */\n      tag_288\n      jump\t// in\n    tag_469:\n        /* \"#utility.yul\":16926:16928   */\n      0x40\n        /* \"#utility.yul\":16921:16924   */\n      dup3\n        /* \"#utility.yul\":16917:16929   */\n      add\n        /* \"#utility.yul\":16910:16929   */\n      swap1\n      pop\n        /* \"#utility.yul\":16569:16935   */\n      swap2\n      swap1\n      pop\n      jump\t// out\n        /* \"#utility.yul\":16941:17360   */\n    tag_134:\n        /* \"#utility.yul\":17107:17111   */\n      0x00\n        /* \"#utility.yul\":17145:17147   */\n      0x20\n        /* \"#utility.yul\":17134:17143   */\n      dup3\n        /* \"#utility.yul\":17130:17148   */\n      add\n        /* \"#utility.yul\":17122:17148   */\n      swap1\n      pop\n        /* \"#utility.yul\":17194:17203   */\n      dup2\n        /* \"#utility.yul\":17188:17192   */\n      dup2\n        /* \"#utility.yul\":17184:17204   */\n      sub\n        /* \"#utility.yul\":17180:17181   */\n      0x00\n        /* \"#utility.yul\":17169:17178   */\n      dup4\n        /* \"#utility.yul\":17165:17182   */\n      add\n        /* \"#utility.yul\":17158:17205   */\n      mstore\n        /* \"#utility.yul\":17222:17353   */\n      tag_471\n        /* \"#utility.yul\":17348:17352   */\n      dup2\n        /* \"#utility.yul\":17222:17353   */\n      tag_289\n      jump\t// in\n    tag_471:\n        /* \"#utility.yul\":17214:17353   */\n      swap1\n      pop\n        /* \"#utility.yul\":16941:17360   */\n      swap2\n      swap1\n      pop\n      jump\t// out\n        /* \"#utility.yul\":17366:17542   */\n    tag_290:\n        /* \"#utility.yul\":17506:17534   */\n      0x57616c6c657420697320696e205265636f76657279206d6f6465000000000000\n        /* \"#utility.yul\":17502:17503   */\n      0x00\n        /* \"#utility.yul\":17494:17500   */\n      dup3\n        /* \"#utility.yul\":17490:17504   */\n      add\n        /* \"#utility.yul\":17483:17535   */\n      mstore\n        /* \"#utility.yul\":17366:17542   */\n      pop\n      jump\t// out\n        /* \"#utility.yul\":17548:17914   */\n    tag_291:\n        /* \"#utility.yul\":17690:17693   */\n      0x00\n        /* \"#utility.yul\":17711:17778   */\n      tag_474\n        /* \"#utility.yul\":17775:17777   */\n      0x1a\n        /* \"#utility.yul\":17770:17773   */\n      dup4\n        /* \"#utility.yul\":17711:17778   */\n      tag_277\n      jump\t// in\n    tag_474:\n        /* \"#utility.yul\":17704:17778   */\n      swap2\n      pop\n        /* \"#utility.yul\":17787:17880   */\n      tag_475\n        /* \"#utility.yul\":17876:17879   */\n      dup3\n        /* \"#utility.yul\":17787:17880   */\n      tag_290\n      jump\t// in\n    tag_475:\n        /* \"#utility.yul\":17905:17907   */\n      0x20\n        /* \"#utility.yul\":17900:17903   */\n      dup3\n        /* \"#utility.yul\":17896:17908   */\n      add\n        /* \"#utility.yul\":17889:17908   */\n      swap1\n      pop\n        /* \"#utility.yul\":17548:17914   */\n      swap2\n      swap1\n      pop\n      jump\t// out\n        /* \"#utility.yul\":17920:18339   */\n    tag_138:\n        /* \"#utility.yul\":18086:18090   */\n      0x00\n        /* \"#utility.yul\":18124:18126   */\n      0x20\n        /* \"#utility.yul\":18113:18122   */\n      dup3\n        /* \"#utility.yul\":18109:18127   */\n      add\n        /* \"#utility.yul\":18101:18127   */\n      swap1\n      pop\n        /* \"#utility.yul\":18173:18182   */\n      dup2\n        /* \"#utility.yul\":18167:18171   */\n      dup2\n        /* \"#utility.yul\":18163:18183   */\n      sub\n        /* \"#utility.yul\":18159:18160   */\n      0x00\n        /* \"#utility.yul\":18148:18157   */\n      dup4\n        /* \"#utility.yul\":18144:18161   */\n      add\n        /* \"#utility.yul\":18137:18184   */\n      mstore\n        /* \"#utility.yul\":18201:18332   */\n      tag_477\n        /* \"#utility.yul\":18327:18331   */\n      dup2\n        /* \"#utility.yul\":18201:18332   */\n      tag_291\n      jump\t// in\n    tag_477:\n        /* \"#utility.yul\":18193:18332   */\n      swap1\n      pop\n        /* \"#utility.yul\":17920:18339   */\n      swap2\n      swap1\n      pop\n      jump\t// out\n        /* \"#utility.yul\":18345:18527   */\n    tag_292:\n        /* \"#utility.yul\":18485:18519   */\n      0x477561726469616e205265717565737420697320616c72656164792055736564\n        /* \"#utility.yul\":18481:18482   */\n      0x00\n        /* \"#utility.yul\":18473:18479   */\n      dup3\n        /* \"#utility.yul\":18469:18483   */\n      add\n        /* \"#utility.yul\":18462:18520   */\n      mstore\n        /* \"#utility.yul\":18345:18527   */\n      pop\n      jump\t// out\n        /* \"#utility.yul\":18533:18899   */\n    tag_293:\n        /* \"#utility.yul\":18675:18678   */\n      0x00\n        /* \"#utility.yul\":18696:18763   */\n      tag_480\n        /* \"#utility.yul\":18760:18762   */\n      0x20\n        /* \"#utility.yul\":18755:18758   */\n      dup4\n        /* \"#utility.yul\":18696:18763   */\n      tag_277\n      jump\t// in\n    tag_480:\n        /* \"#utility.yul\":18689:18763   */\n      swap2\n      pop\n        /* \"#utility.yul\":18772:18865   */\n      tag_481\n        /* \"#utility.yul\":18861:18864   */\n      dup3\n        /* \"#utility.yul\":18772:18865   */\n      tag_292\n      jump\t// in\n    tag_481:\n        /* \"#utility.yul\":18890:18892   */\n      0x20\n        /* \"#utility.yul\":18885:18888   */\n      dup3\n        /* \"#utility.yul\":18881:18893   */\n      add\n        /* \"#utility.yul\":18874:18893   */\n      swap1\n      pop\n        /* \"#utility.yul\":18533:18899   */\n      swap2\n      swap1\n      pop\n      jump\t// out\n        /* \"#utility.yul\":18905:19324   */\n    tag_142:\n        /* \"#utility.yul\":19071:19075   */\n      0x00\n        /* \"#utility.yul\":19109:19111   */\n      0x20\n        /* \"#utility.yul\":19098:19107   */\n      dup3\n        /* \"#utility.yul\":19094:19112   */\n      add\n        /* \"#utility.yul\":19086:19112   */\n      swap1\n      pop\n        /* \"#utility.yul\":19158:19167   */\n      dup2\n        /* \"#utility.yul\":19152:19156   */\n      dup2\n        /* \"#utility.yul\":19148:19168   */\n      sub\n        /* \"#utility.yul\":19144:19145   */\n      0x00\n        /* \"#utility.yul\":19133:19142   */\n      dup4\n        /* \"#utility.yul\":19129:19146   */\n      add\n        /* \"#utility.yul\":19122:19169   */\n      mstore\n        /* \"#utility.yul\":19186:19317   */\n      tag_483\n        /* \"#utility.yul\":19312:19316   */\n      dup2\n        /* \"#utility.yul\":19186:19317   */\n      tag_293\n      jump\t// in\n    tag_483:\n        /* \"#utility.yul\":19178:19317   */\n      swap1\n      pop\n        /* \"#utility.yul\":18905:19324   */\n      swap2\n      swap1\n      pop\n      jump\t// out\n        /* \"#utility.yul\":19330:19562   */\n    tag_294:\n        /* \"#utility.yul\":19470:19504   */\n      0x6d6f726520677561726469616e7320726571756972656420746f207472616e73\n        /* \"#utility.yul\":19466:19467   */\n      0x00\n        /* \"#utility.yul\":19458:19464   */\n      dup3\n        /* \"#utility.yul\":19454:19468   */\n      add\n        /* \"#utility.yul\":19447:19505   */\n      mstore\n        /* \"#utility.yul\":19539:19554   */\n      0x666572206f776e65727368697000000000000000000000000000000000000000\n        /* \"#utility.yul\":19534:19536   */\n      0x20\n        /* \"#utility.yul\":19526:19532   */\n      dup3\n        /* \"#utility.yul\":19522:19537   */\n      add\n        /* \"#utility.yul\":19515:19555   */\n      mstore\n        /* \"#utility.yul\":19330:19562   */\n      pop\n      jump\t// out\n        /* \"#utility.yul\":19568:19934   */\n    tag_295:\n        /* \"#utility.yul\":19710:19713   */\n      0x00\n        /* \"#utility.yul\":19731:19798   */\n      tag_486\n        /* \"#utility.yul\":19795:19797   */\n      0x2d\n        /* \"#utility.yul\":19790:19793   */\n      dup4\n        /* \"#utility.yul\":19731:19798   */\n      tag_277\n      jump\t// in\n    tag_486:\n        /* \"#utility.yul\":19724:19798   */\n      swap2\n      pop\n        /* \"#utility.yul\":19807:19900   */\n      tag_487\n        /* \"#utility.yul\":19896:19899   */\n      dup3\n        /* \"#utility.yul\":19807:19900   */\n      tag_294\n      jump\t// in\n    tag_487:\n        /* \"#utility.yul\":19925:19927   */\n      0x40\n        /* \"#utility.yul\":19920:19923   */\n      dup3\n        /* \"#utility.yul\":19916:19928   */\n      add\n        /* \"#utility.yul\":19909:19928   */\n      swap1\n      pop\n        /* \"#utility.yul\":19568:19934   */\n      swap2\n      swap1\n      pop\n      jump\t// out\n        /* \"#utility.yul\":19940:20359   */\n    tag_156:\n        /* \"#utility.yul\":20106:20110   */\n      0x00\n        /* \"#utility.yul\":20144:20146   */\n      0x20\n        /* \"#utility.yul\":20133:20142   */\n      dup3\n        /* \"#utility.yul\":20129:20147   */\n      add\n        /* \"#utility.yul\":20121:20147   */\n      swap1\n      pop\n        /* \"#utility.yul\":20193:20202   */\n      dup2\n        /* \"#utility.yul\":20187:20191   */\n      dup2\n        /* \"#utility.yul\":20183:20203   */\n      sub\n        /* \"#utility.yul\":20179:20180   */\n      0x00\n        /* \"#utility.yul\":20168:20177   */\n      dup4\n        /* \"#utility.yul\":20164:20181   */\n      add\n        /* \"#utility.yul\":20157:20204   */\n      mstore\n        /* \"#utility.yul\":20221:20352   */\n      tag_489\n        /* \"#utility.yul\":20347:20351   */\n      dup2\n        /* \"#utility.yul\":20221:20352   */\n      tag_295\n      jump\t// in\n    tag_489:\n        /* \"#utility.yul\":20213:20352   */\n      swap1\n      pop\n        /* \"#utility.yul\":19940:20359   */\n      swap2\n      swap1\n      pop\n      jump\t// out\n        /* \"#utility.yul\":20365:20545   */\n    tag_162:\n        /* \"#utility.yul\":20413:20490   */\n      0x4e487b7100000000000000000000000000000000000000000000000000000000\n        /* \"#utility.yul\":20410:20411   */\n      0x00\n        /* \"#utility.yul\":20403:20491   */\n      mstore\n        /* \"#utility.yul\":20510:20514   */\n      0x32\n        /* \"#utility.yul\":20507:20508   */\n      0x04\n        /* \"#utility.yul\":20500:20515   */\n      mstore\n        /* \"#utility.yul\":20534:20538   */\n      0x24\n        /* \"#utility.yul\":20531:20532   */\n      0x00\n        /* \"#utility.yul\":20524:20539   */\n      revert\n        /* \"#utility.yul\":20551:20715   */\n    tag_296:\n        /* \"#utility.yul\":20691:20707   */\n      0x726f756e64206d69736d61746368000000000000000000000000000000000000\n        /* \"#utility.yul\":20687:20688   */\n      0x00\n        /* \"#utility.yul\":20679:20685   */\n      dup3\n        /* \"#utility.yul\":20675:20689   */\n      add\n        /* \"#utility.yul\":20668:20708   */\n      mstore\n        /* \"#utility.yul\":20551:20715   */\n      pop\n      jump\t// out\n        /* \"#utility.yul\":20721:21087   */\n    tag_297:\n        /* \"#utility.yul\":20863:20866   */\n      0x00\n        /* \"#utility.yul\":20884:20951   */\n      tag_493\n        /* \"#utility.yul\":20948:20950   */\n      0x0e\n        /* \"#utility.yul\":20943:20946   */\n      dup4\n        /* \"#utility.yul\":20884:20951   */\n      tag_277\n      jump\t// in\n    tag_493:\n        /* \"#utility.yul\":20877:20951   */\n      swap2\n      pop\n        /* \"#utility.yul\":20960:21053   */\n      tag_494\n        /* \"#utility.yul\":21049:21052   */\n      dup3\n        /* \"#utility.yul\":20960:21053   */\n      tag_296\n      jump\t// in\n    tag_494:\n        /* \"#utility.yul\":21078:21080   */\n      0x20\n        /* \"#utility.yul\":21073:21076   */\n      dup3\n        /* \"#utility.yul\":21069:21081   */\n      add\n        /* \"#utility.yul\":21062:21081   */\n      swap1\n      pop\n        /* \"#utility.yul\":20721:21087   */\n      swap2\n      swap1\n      pop\n      jump\t// out\n        /* \"#utility.yul\":21093:21512   */\n    tag_166:\n        /* \"#utility.yul\":21259:21263   */\n      0x00\n        /* \"#utility.yul\":21297:21299   */\n      0x20\n        /* \"#utility.yul\":21286:21295   */\n      dup3\n        /* \"#utility.yul\":21282:21300   */\n      add\n        /* \"#utility.yul\":21274:21300   */\n      swap1\n      pop\n        /* \"#utility.yul\":21346:21355   */\n      dup2\n        /* \"#utility.yul\":21340:21344   */\n      dup2\n        /* \"#utility.yul\":21336:21356   */\n      sub\n        /* \"#utility.yul\":21332:21333   */\n      0x00\n        /* \"#utility.yul\":21321:21330   */\n      dup4\n        /* \"#utility.yul\":21317:21334   */\n      add\n        /* \"#utility.yul\":21310:21357   */\n      mstore\n        /* \"#utility.yul\":21374:21505   */\n      tag_496\n        /* \"#utility.yul\":21500:21504   */\n      dup2\n        /* \"#utility.yul\":21374:21505   */\n      tag_297\n      jump\t// in\n    tag_496:\n        /* \"#utility.yul\":21366:21505   */\n      swap1\n      pop\n        /* \"#utility.yul\":21093:21512   */\n      swap2\n      swap1\n      pop\n      jump\t// out\n        /* \"#utility.yul\":21518:21693   */\n    tag_298:\n        /* \"#utility.yul\":21658:21685   */\n      0x64697361677265656d656e74206f6e206e6577206f776e657200000000000000\n        /* \"#utility.yul\":21654:21655   */\n      0x00\n        /* \"#utility.yul\":21646:21652   */\n      dup3\n        /* \"#utility.yul\":21642:21656   */\n      add\n        /* \"#utility.yul\":21635:21686   */\n      mstore\n        /* \"#utility.yul\":21518:21693   */\n      pop\n      jump\t// out\n        /* \"#utility.yul\":21699:22065   */\n    tag_299:\n        /* \"#utility.yul\":21841:21844   */\n      0x00\n        /* \"#utility.yul\":21862:21929   */\n      tag_499\n        /* \"#utility.yul\":21926:21928   */\n      0x19\n        /* \"#utility.yul\":21921:21924   */\n      dup4\n        /* \"#utility.yul\":21862:21929   */\n      tag_277\n      jump\t// in\n    tag_499:\n        /* \"#utility.yul\":21855:21929   */\n      swap2\n      pop\n        /* \"#utility.yul\":21938:22031   */\n      tag_500\n        /* \"#utility.yul\":22027:22030   */\n      dup3\n        /* \"#utility.yul\":21938:22031   */\n      tag_298\n      jump\t// in\n    tag_500:\n        /* \"#utility.yul\":22056:22058   */\n      0x20\n        /* \"#utility.yul\":22051:22054   */\n      dup3\n        /* \"#utility.yul\":22047:22059   */\n      add\n        /* \"#utility.yul\":22040:22059   */\n      swap1\n      pop\n        /* \"#utility.yul\":21699:22065   */\n      swap2\n      swap1\n      pop\n      jump\t// out\n        /* \"#utility.yul\":22071:22490   */\n    tag_169:\n        /* \"#utility.yul\":22237:22241   */\n      0x00\n        /* \"#utility.yul\":22275:22277   */\n      0x20\n        /* \"#utility.yul\":22264:22273   */\n      dup3\n        /* \"#utility.yul\":22260:22278   */\n      add\n        /* \"#utility.yul\":22252:22278   */\n      swap1\n      pop\n        /* \"#utility.yul\":22324:22333   */\n      dup2\n        /* \"#utility.yul\":22318:22322   */\n      dup2\n        /* \"#utility.yul\":22314:22334   */\n      sub\n        /* \"#utility.yul\":22310:22311   */\n      0x00\n        /* \"#utility.yul\":22299:22308   */\n      dup4\n        /* \"#utility.yul\":22295:22312   */\n      add\n        /* \"#utility.yul\":22288:22335   */\n      mstore\n        /* \"#utility.yul\":22352:22483   */\n      tag_502\n        /* \"#utility.yul\":22478:22482   */\n      dup2\n        /* \"#utility.yul\":22352:22483   */\n      tag_299\n      jump\t// in\n    tag_502:\n        /* \"#utility.yul\":22344:22483   */\n      swap1\n      pop\n        /* \"#utility.yul\":22071:22490   */\n      swap2\n      swap1\n      pop\n      jump\t// out\n        /* \"#utility.yul\":22496:22718   */\n    tag_300:\n        /* \"#utility.yul\":22636:22670   */\n      0x6475706c696361746520677561726469616e207573656420696e207265636f76\n        /* \"#utility.yul\":22632:22633   */\n      0x00\n        /* \"#utility.yul\":22624:22630   */\n      dup3\n        /* \"#utility.yul\":22620:22634   */\n      add\n        /* \"#utility.yul\":22613:22671   */\n      mstore\n        /* \"#utility.yul\":22705:22710   */\n      0x6572790000000000000000000000000000000000000000000000000000000000\n        /* \"#utility.yul\":22700:22702   */\n      0x20\n        /* \"#utility.yul\":22692:22698   */\n      dup3\n        /* \"#utility.yul\":22688:22703   */\n      add\n        /* \"#utility.yul\":22681:22711   */\n      mstore\n        /* \"#utility.yul\":22496:22718   */\n      pop\n      jump\t// out\n        /* \"#utility.yul\":22724:23090   */\n    tag_301:\n        /* \"#utility.yul\":22866:22869   */\n      0x00\n        /* \"#utility.yul\":22887:22954   */\n      tag_505\n        /* \"#utility.yul\":22951:22953   */\n      0x23\n        /* \"#utility.yul\":22946:22949   */\n      dup4\n        /* \"#utility.yul\":22887:22954   */\n      tag_277\n      jump\t// in\n    tag_505:\n        /* \"#utility.yul\":22880:22954   */\n      swap2\n      pop\n        /* \"#utility.yul\":22963:23056   */\n      tag_506\n        /* \"#utility.yul\":23052:23055   */\n      dup3\n        /* \"#utility.yul\":22963:23056   */\n      tag_300\n      jump\t// in\n    tag_506:\n        /* \"#utility.yul\":23081:23083   */\n      0x40\n        /* \"#utility.yul\":23076:23079   */\n      dup3\n        /* \"#utility.yul\":23072:23084   */\n      add\n        /* \"#utility.yul\":23065:23084   */\n      swap1\n      pop\n        /* \"#utility.yul\":22724:23090   */\n      swap2\n      swap1\n      pop\n      jump\t// out\n        /* \"#utility.yul\":23096:23515   */\n    tag_172:\n        /* \"#utility.yul\":23262:23266   */\n      0x00\n        /* \"#utility.yul\":23300:23302   */\n      0x20\n        /* \"#utility.yul\":23289:23298   */\n      dup3\n        /* \"#utility.yul\":23285:23303   */\n      add\n        /* \"#utility.yul\":23277:23303   */\n      swap1\n      pop\n        /* \"#utility.yul\":23349:23358   */\n      dup2\n        /* \"#utility.yul\":23343:23347   */\n      dup2\n        /* \"#utility.yul\":23339:23359   */\n      sub\n        /* \"#utility.yul\":23335:23336   */\n      0x00\n        /* \"#utility.yul\":23324:23333   */\n      dup4\n        /* \"#utility.yul\":23320:23337   */\n      add\n        /* \"#utility.yul\":23313:23360   */\n      mstore\n        /* \"#utility.yul\":23377:23508   */\n      tag_508\n        /* \"#utility.yul\":23503:23507   */\n      dup2\n        /* \"#utility.yul\":23377:23508   */\n      tag_301\n      jump\t// in\n    tag_508:\n        /* \"#utility.yul\":23369:23508   */\n      swap1\n      pop\n        /* \"#utility.yul\":23096:23515   */\n      swap2\n      swap1\n      pop\n      jump\t// out\n        /* \"#utility.yul\":23521:23701   */\n    tag_302:\n        /* \"#utility.yul\":23569:23646   */\n      0x4e487b7100000000000000000000000000000000000000000000000000000000\n        /* \"#utility.yul\":23566:23567   */\n      0x00\n        /* \"#utility.yul\":23559:23647   */\n      mstore\n        /* \"#utility.yul\":23666:23670   */\n      0x11\n        /* \"#utility.yul\":23663:23664   */\n      0x04\n        /* \"#utility.yul\":23656:23671   */\n      mstore\n        /* \"#utility.yul\":23690:23694   */\n      0x24\n        /* \"#utility.yul\":23687:23688   */\n      0x00\n        /* \"#utility.yul\":23680:23695   */\n      revert\n        /* \"#utility.yul\":23707:23940   */\n    tag_177:\n        /* \"#utility.yul\":23746:23749   */\n      0x00\n        /* \"#utility.yul\":23769:23793   */\n      tag_511\n        /* \"#utility.yul\":23787:23792   */\n      dup3\n        /* \"#utility.yul\":23769:23793   */\n      tag_252\n      jump\t// in\n    tag_511:\n        /* \"#utility.yul\":23760:23793   */\n      swap2\n      pop\n        /* \"#utility.yul\":23815:23881   */\n      0xffffffffffffffffffffffffffffffffffffffffffffffffffffffffffffffff\n        /* \"#utility.yul\":23808:23813   */\n      dup3\n        /* \"#utility.yul\":23805:23882   */\n      sub\n        /* \"#utility.yul\":23802:23905   */\n      tag_512\n      jumpi\n        /* \"#utility.yul\":23885:23903   */\n      tag_513\n      tag_302\n      jump\t// in\n    tag_513:\n        /* \"#utility.yul\":23802:23905   */\n    tag_512:\n        /* \"#utility.yul\":23932:23933   */\n      0x01\n        /* \"#utility.yul\":23925:23930   */\n      dup3\n        /* \"#utility.yul\":23921:23934   */\n      add\n        /* \"#utility.yul\":23914:23934   */\n      swap1\n      pop\n        /* \"#utility.yul\":23707:23940   */\n      swap2\n      swap1\n      pop\n      jump\t// out\n        /* \"#utility.yul\":23946:24278   */\n    tag_179:\n        /* \"#utility.yul\":24067:24071   */\n      0x00\n        /* \"#utility.yul\":24105:24107   */\n      0x40\n        /* \"#utility.yul\":24094:24103   */\n      dup3\n        /* \"#utility.yul\":24090:24108   */\n      add\n        /* \"#utility.yul\":24082:24108   */\n      swap1\n      pop\n        /* \"#utility.yul\":24118:24189   */\n      tag_515\n        /* \"#utility.yul\":24186:24187   */\n      0x00\n        /* \"#utility.yul\":24175:24184   */\n      dup4\n        /* \"#utility.yul\":24171:24188   */\n      add\n        /* \"#utility.yul\":24162:24168   */\n      dup6\n        /* \"#utility.yul\":24118:24189   */\n      tag_256\n      jump\t// in\n    tag_515:\n        /* \"#utility.yul\":24199:24271   */\n      tag_516\n        /* \"#utility.yul\":24267:24269   */\n      0x20\n        /* \"#utility.yul\":24256:24265   */\n      dup4\n        /* \"#utility.yul\":24252:24270   */\n      add\n        /* \"#utility.yul\":24243:24249   */\n      dup5\n        /* \"#utility.yul\":24199:24271   */\n      tag_256\n      jump\t// in\n    tag_516:\n        /* \"#utility.yul\":23946:24278   */\n      swap4\n      swap3\n      pop\n      pop\n      pop\n      jump\t// out\n        /* \"#utility.yul\":24284:24431   */\n    tag_303:\n        /* \"#utility.yul\":24385:24396   */\n      0x00\n        /* \"#utility.yul\":24422:24425   */\n      dup2\n        /* \"#utility.yul\":24407:24425   */\n      swap1\n      pop\n        /* \"#utility.yul\":24284:24431   */\n      swap3\n      swap2\n      pop\n      pop\n      jump\t// out\n        /* \"#utility.yul\":24437:24823   */\n    tag_304:\n        /* \"#utility.yul\":24541:24544   */\n      0x00\n        /* \"#utility.yul\":24569:24607   */\n      tag_519\n        /* \"#utility.yul\":24601:24606   */\n      dup3\n        /* \"#utility.yul\":24569:24607   */\n      tag_270\n      jump\t// in\n    tag_519:\n        /* \"#utility.yul\":24623:24711   */\n      tag_520\n        /* \"#utility.yul\":24704:24710   */\n      dup2\n        /* \"#utility.yul\":24699:24702   */\n      dup6\n        /* \"#utility.yul\":24623:24711   */\n      tag_303\n      jump\t// in\n    tag_520:\n        /* \"#utility.yul\":24616:24711   */\n      swap4\n      pop\n        /* \"#utility.yul\":24720:24785   */\n      tag_521\n        /* \"#utility.yul\":24778:24784   */\n      dup2\n        /* \"#utility.yul\":24773:24776   */\n      dup6\n        /* \"#utility.yul\":24766:24770   */\n      0x20\n        /* \"#utility.yul\":24759:24764   */\n      dup7\n        /* \"#utility.yul\":24755:24771   */\n      add\n        /* \"#utility.yul\":24720:24785   */\n      tag_272\n      jump\t// in\n    tag_521:\n        /* \"#utility.yul\":24810:24816   */\n      dup1\n        /* \"#utility.yul\":24805:24808   */\n      dup5\n        /* \"#utility.yul\":24801:24817   */\n      add\n        /* \"#utility.yul\":24794:24817   */\n      swap2\n      pop\n        /* \"#utility.yul\":24545:24823   */\n      pop\n        /* \"#utility.yul\":24437:24823   */\n      swap3\n      swap2\n      pop\n      pop\n      jump\t// out\n        /* \"#utility.yul\":24829:25100   */\n    tag_188:\n        /* \"#utility.yul\":24959:24962   */\n      0x00\n        /* \"#utility.yul\":24981:25074   */\n      tag_523\n        /* \"#utility.yul\":25070:25073   */\n      dup3\n        /* \"#utility.yul\":25061:25067   */\n      dup5\n        /* \"#utility.yul\":24981:25074   */\n      tag_304\n      jump\t// in\n    tag_523:\n        /* \"#utility.yul\":24974:25074   */\n      swap2\n      pop\n        /* \"#utility.yul\":25091:25094   */\n      dup2\n        /* \"#utility.yul\":25084:25094   */\n      swap1\n      pop\n        /* \"#utility.yul\":24829:25100   */\n      swap3\n      swap2\n      pop\n      pop\n      jump\t// out\n        /* \"#utility.yul\":25106:25278   */\n    tag_305:\n        /* \"#utility.yul\":25246:25270   */\n      0x436f6e74726163742043616c6c20526576657274656400000000000000000000\n        /* \"#utility.yul\":25242:25243   */\n      0x00\n        /* \"#utility.yul\":25234:25240   */\n      dup3\n        /* \"#utility.yul\":25230:25244   */\n      add\n        /* \"#utility.yul\":25223:25271   */\n      mstore\n        /* \"#utility.yul\":25106:25278   */\n      pop\n      jump\t// out\n        /* \"#utility.yul\":25284:25650   */\n    tag_306:\n        /* \"#utility.yul\":25426:25429   */\n      0x00\n        /* \"#utility.yul\":25447:25514   */\n      tag_526\n        /* \"#utility.yul\":25511:25513   */\n      0x16\n        /* \"#utility.yul\":25506:25509   */\n      dup4\n        /* \"#utility.yul\":25447:25514   */\n      tag_277\n      jump\t// in\n    tag_526:\n        /* \"#utility.yul\":25440:25514   */\n      swap2\n      pop\n        /* \"#utility.yul\":25523:25616   */\n      tag_527\n        /* \"#utility.yul\":25612:25615   */\n      dup3\n        /* \"#utility.yul\":25523:25616   */\n      tag_305\n      jump\t// in\n    tag_527:\n        /* \"#utility.yul\":25641:25643   */\n      0x20\n        /* \"#utility.yul\":25636:25639   */\n      dup3\n        /* \"#utility.yul\":25632:25644   */\n      add\n        /* \"#utility.yul\":25625:25644   */\n      swap1\n      pop\n        /* \"#utility.yul\":25284:25650   */\n      swap2\n      swap1\n      pop\n      jump\t// out\n        /* \"#utility.yul\":25656:26075   */\n    tag_194:\n        /* \"#utility.yul\":25822:25826   */\n      0x00\n        /* \"#utility.yul\":25860:25862   */\n      0x20\n        /* \"#utility.yul\":25849:25858   */\n      dup3\n        /* \"#utility.yul\":25845:25863   */\n      add\n        /* \"#utility.yul\":25837:25863   */\n      swap1\n      pop\n        /* \"#utility.yul\":25909:25918   */\n      dup2\n        /* \"#utility.yul\":25903:25907   */\n      dup2\n        /* \"#utility.yul\":25899:25919   */\n      sub\n        /* \"#utility.yul\":25895:25896   */\n      0x00\n        /* \"#utility.yul\":25884:25893   */\n      dup4\n        /* \"#utility.yul\":25880:25897   */\n      add\n        /* \"#utility.yul\":25873:25920   */\n      mstore\n        /* \"#utility.yul\":25937:26068   */\n      tag_529\n        /* \"#utility.yul\":26063:26067   */\n      dup2\n        /* \"#utility.yul\":25937:26068   */\n      tag_306\n      jump\t// in\n    tag_529:\n        /* \"#utility.yul\":25929:26068   */\n      swap1\n      pop\n        /* \"#utility.yul\":25656:26075   */\n      swap2\n      swap1\n      pop\n      jump\t// out\n        /* \"#utility.yul\":26081:26500   */\n    tag_196:\n        /* \"#utility.yul\":26220:26224   */\n      0x00\n        /* \"#utility.yul\":26258:26260   */\n      0x40\n        /* \"#utility.yul\":26247:26256   */\n      dup3\n        /* \"#utility.yul\":26243:26261   */\n      add\n        /* \"#utility.yul\":26235:26261   */\n      swap1\n      pop\n        /* \"#utility.yul\":26271:26342   */\n      tag_531\n        /* \"#utility.yul\":26339:26340   */\n      0x00\n        /* \"#utility.yul\":26328:26337   */\n      dup4\n        /* \"#utility.yul\":26324:26341   */\n      add\n        /* \"#utility.yul\":26315:26321   */\n      dup6\n        /* \"#utility.yul\":26271:26342   */\n      tag_253\n      jump\t// in\n    tag_531:\n        /* \"#utility.yul\":26389:26398   */\n      dup2\n        /* \"#utility.yul\":26383:26387   */\n      dup2\n        /* \"#utility.yul\":26379:26399   */\n      sub\n        /* \"#utility.yul\":26374:26376   */\n      0x20\n        /* \"#utility.yul\":26363:26372   */\n      dup4\n        /* \"#utility.yul\":26359:26377   */\n      add\n        /* \"#utility.yul\":26352:26400   */\n      mstore\n        /* \"#utility.yul\":26417:26493   */\n      tag_532\n        /* \"#utility.yul\":26488:26492   */\n      dup2\n        /* \"#utility.yul\":26479:26485   */\n      dup5\n        /* \"#utility.yul\":26417:26493   */\n      tag_273\n      jump\t// in\n    tag_532:\n        /* \"#utility.yul\":26409:26493   */\n      swap1\n      pop\n        /* \"#utility.yul\":26081:26500   */\n      swap4\n      swap3\n      pop\n      pop\n      pop\n      jump\t// out\n\n    auxdata: 0xa26469706673582212209ea9539158ab9c43fccca44f1d427a9ff1fe9ce0f97779e219590ba6bf5a600e64736f6c63430008140033\n}\n",
				"bytecode": {
					"linkReferences": {},
					"object": "608060405234801562000010575f80fd5b5060405162002fb438038062002fb4833981810160405281019062000036919062000429565b60015f81905550815181111562000084576040517f08c379a00000000000000000000000000000000000000000000000000000000081526004016200007b90620004ff565b60405180910390fd5b5f5b8251811015620001c25760035f848381518110620000a957620000a86200051f565b5b602002602001015173ffffffffffffffffffffffffffffffffffffffff1673ffffffffffffffffffffffffffffffffffffffff1681526020019081526020015f205f9054906101000a900460ff16156200013a576040517f08c379a000000000000000000000000000000000000000000000000000000000815260040162000131906200059a565b60405180910390fd5b600160035f8584815181106200015557620001546200051f565b5b602002602001015173ffffffffffffffffffffffffffffffffffffffff1673ffffffffffffffffffffffffffffffffffffffff1681526020019081526020015f205f6101000a81548160ff0219169083151502179055508080620001b990620005e7565b91505062000086565b50806002819055508260015f6101000a81548173ffffffffffffffffffffffffffffffffffffffff021916908373ffffffffffffffffffffffffffffffffffffffff16021790555050505062000633565b5f604051905090565b5f80fd5b5f80fd5b5f73ffffffffffffffffffffffffffffffffffffffff82169050919050565b5f6200024f8262000224565b9050919050565b620002618162000243565b81146200026c575f80fd5b50565b5f815190506200027f8162000256565b92915050565b5f80fd5b5f601f19601f8301169050919050565b7f4e487b71000000000000000000000000000000000000000000000000000000005f52604160045260245ffd5b620002d18262000289565b810181811067ffffffffffffffff82111715620002f357620002f262000299565b5b80604052505050565b5f6200030762000213565b9050620003158282620002c6565b919050565b5f67ffffffffffffffff82111562000337576200033662000299565b5b602082029050602081019050919050565b5f80fd5b5f620003626200035c846200031a565b620002fc565b9050808382526020820190506020840283018581111562000388576200038762000348565b5b835b81811015620003b55780620003a088826200026f565b8452602084019350506020810190506200038a565b5050509392505050565b5f82601f830112620003d657620003d562000285565b5b8151620003e88482602086016200034c565b91505092915050565b5f819050919050565b6200040581620003f1565b811462000410575f80fd5b50565b5f815190506200042381620003fa565b92915050565b5f805f606084860312156200044357620004426200021c565b5b5f62000452868287016200026f565b935050602084015167ffffffffffffffff81111562000476576200047562000220565b5b6200048486828701620003bf565b9250506040620004978682870162000413565b9150509250925092565b5f82825260208201905092915050565b7f5468726573686f6c6420697320746f6f206869676800000000000000000000005f82015250565b5f620004e7601583620004a1565b9150620004f482620004b1565b602082019050919050565b5f6020820190508181035f8301526200051881620004d9565b9050919050565b7f4e487b71000000000000000000000000000000000000000000000000000000005f52603260045260245ffd5b7f4475706c696361746520477561726469616e20466f756e6400000000000000005f82015250565b5f62000582601883620004a1565b91506200058f826200054c565b602082019050919050565b5f6020820190508181035f830152620005b38162000574565b9050919050565b7f4e487b71000000000000000000000000000000000000000000000000000000005f52601160045260245ffd5b5f620005f382620003f1565b91507fffffffffffffffffffffffffffffffffffffffffffffffffffffffffffffffff8203620006285762000627620005ba565b5b600182019050919050565b61297380620006415f395ff3fe608060405234801561000f575f80fd5b506004361061011f575f3560e01c80635fc489a7116100ab578063a9059cbb1161006f578063a9059cbb146102e3578063ace7c993146102ff578063d35821641461031d578063d5ce9aad14610339578063f05151df146103555761011f565b80635fc489a7146102515780638da5cb5b1461026d578063912365ea1461028b578063a643e812146102bb578063a7b65d10146102d95761011f565b80631e969523116100f25780631e96952314610197578063371bbdc1146101c957806342cde4e8146101fb57806357e685bc146102195780635db0db7c146102355761011f565b80630ba234d6146101235780630c68ba211461012d57806312065fe01461015d57806316cfcee81461017b575b5f80fd5b61012b610373565b005b61014760048036038101906101429190611ca5565b6104a5565b6040516101549190611cea565b60405180910390f35b6101656104c2565b6040516101729190611d1b565b60405180910390f35b61019560048036038101906101909190611d5e565b6104c9565b005b6101b160048036038101906101ac9190611ca5565b610677565b6040516101c093929190611dab565b60405180910390f35b6101e360048036038101906101de9190611ca5565b6106e8565b6040516101f293929190611de0565b60405180910390f35b610203610739565b6040516102109190611d1b565b60405180910390f35b610233600480360381019061022e9190611ca5565b61073f565b005b61024f600480360381019061024a9190611ca5565b61099c565b005b61026b60048036038101906102669190611e76565b610d40565b005b6102756111f8565b6040516102829190611ed3565b60405180910390f35b6102a560048036038101906102a09190612024565b61121d565b6040516102b2919061210a565b60405180910390f35b6102c36113c6565b6040516102d09190611cea565b60405180910390f35b6102e16113d9565b005b6102fd60048036038101906102f89190612165565b611559565b005b61030761167e565b6040516103149190611d1b565b60405180910390f35b610337600480360381019061033291906121a3565b611684565b005b610353600480360381019061034e9190611ca5565b61194c565b005b61035d611bdb565b60405161036a9190611cea565b60405180910390f35b60015f9054906101000a900473ffffffffffffffffffffffffffffffffffffffff1673ffffffffffffffffffffffffffffffffffffffff163373ffffffffffffffffffffffffffffffffffffffff1614610402576040517f08c379a00000000000000000000000000000000000000000000000000000000081526004016103f99061223b565b60405180910390fd5b60045f9054906101000a900460ff16610450576040517f08c379a0000000000000000000000000000000000000000000000000000000008152600401610447906122a3565b60405180910390fd5b5f60045f6101000a81548160ff0219169083151502179055506005547f500ec1d4b692d3c788bfd78a898de379cfd93ab8177575efc7593f87bd051a073360405161049b9190611ed3565b60405180910390a2565b6003602052805f5260405f205f915054906101000a900460ff1681565b5f47905090565b60015f9054906101000a900473ffffffffffffffffffffffffffffffffffffffff1673ffffffffffffffffffffffffffffffffffffffff163373ffffffffffffffffffffffffffffffffffffffff1614610558576040517f08c379a000000000000000000000000000000000000000000000000000000000815260040161054f9061223b565b60405180910390fd5b60035f8373ffffffffffffffffffffffffffffffffffffffff1673ffffffffffffffffffffffffffffffffffffffff1681526020019081526020015f205f9054906101000a900460ff166105e1576040517f08c379a00000000000000000000000000000000000000000000000000000000081526004016105d89061230b565b60405180910390fd5b5f60035f8473ffffffffffffffffffffffffffffffffffffffff1673ffffffffffffffffffffffffffffffffffffffff1681526020019081526020015f205f6101000a81548160ff021916908315150217905550806002819055507f2ed5a1d41af8e4c27f6e4c020febbf0221b28b9cc47fcab6bf97aa2bd28f3a683360405161066b9190611ed3565b60405180910390a15050565b6007602052805f5260405f205f91509050805f015f9054906101000a900473ffffffffffffffffffffffffffffffffffffffff1690806001015f9054906101000a900473ffffffffffffffffffffffffffffffffffffffff16908060010160149054906101000a900460ff16905083565b6006602052805f5260405f205f91509050805f015f9054906101000a900473ffffffffffffffffffffffffffffffffffffffff1690806001015490806002015f9054906101000a900460ff16905083565b60025481565b60035f3373ffffffffffffffffffffffffffffffffffffffff1673ffffffffffffffffffffffffffffffffffffffff1681526020019081526020015f205f9054906101000a900460ff166107c8576040517f08c379a00000000000000000000000000000000000000000000000000000000081526004016107bf90612399565b60405180910390fd5b60045f9054906101000a900460ff16610816576040517f08c379a000000000000000000000000000000000000000000000000000000000815260040161080d906122a3565b60405180910390fd5b600460019054906101000a900460ff1615610866576040517f08c379a000000000000000000000000000000000000000000000000000000000815260040161085d90612427565b60405180910390fd5b60405180606001604052808273ffffffffffffffffffffffffffffffffffffffff16815260200160055481526020015f151581525060065f3373ffffffffffffffffffffffffffffffffffffffff1673ffffffffffffffffffffffffffffffffffffffff1681526020019081526020015f205f820151815f015f6101000a81548173ffffffffffffffffffffffffffffffffffffffff021916908373ffffffffffffffffffffffffffffffffffffffff160217905550602082015181600101556040820151816002015f6101000a81548160ff0219169083151502179055509050506005543373ffffffffffffffffffffffffffffffffffffffff167f7a0b940199ff58e943823fe8c0e916df112be357049d8105a7e83cf9a4000e4a836040516109919190611ed3565b60405180910390a350565b60015f9054906101000a900473ffffffffffffffffffffffffffffffffffffffff1673ffffffffffffffffffffffffffffffffffffffff163373ffffffffffffffffffffffffffffffffffffffff1614610a2b576040517f08c379a0000000000000000000000000000000000000000000000000000000008152600401610a229061223b565b60405180910390fd5b600460019054906101000a900460ff16610a7a576040517f08c379a0000000000000000000000000000000000000000000000000000000008152600401610a71906124b5565b60405180910390fd5b60045f9054906101000a900460ff1615610ac9576040517f08c379a0000000000000000000000000000000000000000000000000000000008152600401610ac09061251d565b60405180910390fd5b5f60075f8373ffffffffffffffffffffffffffffffffffffffff1673ffffffffffffffffffffffffffffffffffffffff1681526020019081526020015f206040518060600160405290815f82015f9054906101000a900473ffffffffffffffffffffffffffffffffffffffff1673ffffffffffffffffffffffffffffffffffffffff1673ffffffffffffffffffffffffffffffffffffffff168152602001600182015f9054906101000a900473ffffffffffffffffffffffffffffffffffffffff1673ffffffffffffffffffffffffffffffffffffffff1673ffffffffffffffffffffffffffffffffffffffff1681526020016001820160149054906101000a900460ff1615151515815250509050806040015115610c1d576040517f08c379a0000000000000000000000000000000000000000000000000000000008152600401610c1490612585565b60405180910390fd5b600160035f835f015173ffffffffffffffffffffffffffffffffffffffff1673ffffffffffffffffffffffffffffffffffffffff1681526020019081526020015f205f6101000a81548160ff0219169083151502179055505f60035f836020015173ffffffffffffffffffffffffffffffffffffffff1673ffffffffffffffffffffffffffffffffffffffff1681526020019081526020015f205f6101000a81548160ff0219169083151502179055505f600460016101000a81548160ff021916908315150217905550805f015173ffffffffffffffffffffffffffffffffffffffff167f0ebe47b4a5aef1696896716abe65c590c720b0cd9572a7e2dcb0a9bfe2b2ca7f8260200151604051610d349190611ed3565b60405180910390a25050565b60035f3373ffffffffffffffffffffffffffffffffffffffff1673ffffffffffffffffffffffffffffffffffffffff1681526020019081526020015f205f9054906101000a900460ff16610dc9576040517f08c379a0000000000000000000000000000000000000000000000000000000008152600401610dc090612399565b60405180910390fd5b60045f9054906101000a900460ff16610e17576040517f08c379a0000000000000000000000000000000000000000000000000000000008152600401610e0e906122a3565b60405180910390fd5b600460019054906101000a900460ff1615610e67576040517f08c379a0000000000000000000000000000000000000000000000000000000008152600401610e5e90612427565b60405180910390fd5b600254828290501015610eaf576040517f08c379a0000000000000000000000000000000000000000000000000000000008152600401610ea690612613565b60405180910390fd5b5f5b82829050811015611137575f60065f858585818110610ed357610ed2612631565b5b9050602002016020810190610ee89190611ca5565b73ffffffffffffffffffffffffffffffffffffffff1673ffffffffffffffffffffffffffffffffffffffff1681526020019081526020015f206040518060600160405290815f82015f9054906101000a900473ffffffffffffffffffffffffffffffffffffffff1673ffffffffffffffffffffffffffffffffffffffff1673ffffffffffffffffffffffffffffffffffffffff16815260200160018201548152602001600282015f9054906101000a900460ff1615151515815250509050600554816020015114610fee576040517f08c379a0000000000000000000000000000000000000000000000000000000008152600401610fe5906126a8565b60405180910390fd5b8473ffffffffffffffffffffffffffffffffffffffff16815f015173ffffffffffffffffffffffffffffffffffffffff161461105f576040517f08c379a000000000000000000000000000000000000000000000000000000000815260040161105690612710565b60405180910390fd5b8060400151156110a4576040517f08c379a000000000000000000000000000000000000000000000000000000000815260040161109b9061279e565b60405180910390fd5b600160065f8686868181106110bc576110bb612631565b5b90506020020160208101906110d19190611ca5565b73ffffffffffffffffffffffffffffffffffffffff1673ffffffffffffffffffffffffffffffffffffffff1681526020019081526020015f206002015f6101000a81548160ff02191690831515021790555050808061112f906127e9565b915050610eb1565b505f60045f6101000a81548160ff0219169083151502179055505f60015f9054906101000a900473ffffffffffffffffffffffffffffffffffffffff1690508360015f6101000a81548173ffffffffffffffffffffffffffffffffffffffff021916908373ffffffffffffffffffffffffffffffffffffffff1602179055506005547fcbaa7c7c351e2d5655fc08d9c383adcf4736af160c800b53df1f1dd221f826c882866040516111ea929190612830565b60405180910390a250505050565b60015f9054906101000a900473ffffffffffffffffffffffffffffffffffffffff1681565b606060015f9054906101000a900473ffffffffffffffffffffffffffffffffffffffff1673ffffffffffffffffffffffffffffffffffffffff163373ffffffffffffffffffffffffffffffffffffffff16146112ae576040517f08c379a00000000000000000000000000000000000000000000000000000000081526004016112a59061223b565b60405180910390fd5b6112b6611bed565b5f808573ffffffffffffffffffffffffffffffffffffffff1685856040516112de9190612891565b5f6040518083038185875af1925050503d805f8114611318576040519150601f19603f3d011682016040523d82523d5f602084013e61131d565b606091505b509150915081611362576040517f08c379a0000000000000000000000000000000000000000000000000000000008152600401611359906128f1565b60405180910390fd5b8573ffffffffffffffffffffffffffffffffffffffff167f47d99ad340f52da66535aff7e10da1ceb85a32bcbd9fa1c42314d194545e14d286866040516113aa92919061290f565b60405180910390a280925050506113bf611c31565b9392505050565b600460019054906101000a900460ff1681565b60015f9054906101000a900473ffffffffffffffffffffffffffffffffffffffff1673ffffffffffffffffffffffffffffffffffffffff163373ffffffffffffffffffffffffffffffffffffffff1614611468576040517f08c379a000000000000000000000000000000000000000000000000000000000815260040161145f9061223b565b60405180910390fd5b600460019054906101000a900460ff166114b7576040517f08c379a00000000000000000000000000000000000000000000000000000000081526004016114ae906124b5565b60405180910390fd5b60045f9054906101000a900460ff1615611506576040517f08c379a00000000000000000000000000000000000000000000000000000000081526004016114fd9061251d565b60405180910390fd5b5f600460016101000a81548160ff0219169083151502179055507fd57d294d41d7cb0f642228c3aa8884365982694afcfa206c635fd368dfa4479c3360405161154f9190611ed3565b60405180910390a1565b60015f9054906101000a900473ffffffffffffffffffffffffffffffffffffffff1673ffffffffffffffffffffffffffffffffffffffff163373ffffffffffffffffffffffffffffffffffffffff16146115e8576040517f08c379a00000000000000000000000000000000000000000000000000000000081526004016115df9061223b565b60405180910390fd5b8173ffffffffffffffffffffffffffffffffffffffff166108fc8290811502906040515f60405180830381858888f1935050505015801561162b573d5f803e3d5ffd5b508173ffffffffffffffffffffffffffffffffffffffff167fe6d858f14d755446648a6e0c8ab8b5a0f58ccc7920d4c910b0454e4dcd869af0826040516116729190611d1b565b60405180910390a25050565b60055481565b60035f3373ffffffffffffffffffffffffffffffffffffffff1673ffffffffffffffffffffffffffffffffffffffff1681526020019081526020015f205f9054906101000a900460ff1661170d576040517f08c379a000000000000000000000000000000000000000000000000000000000815260040161170490612399565b60405180910390fd5b600460019054906101000a900460ff161561175d576040517f08c379a000000000000000000000000000000000000000000000000000000000815260040161175490612427565b60405180910390fd5b60045f9054906101000a900460ff16156117ac576040517f08c379a00000000000000000000000000000000000000000000000000000000081526004016117a39061251d565b60405180910390fd5b60405180606001604052808273ffffffffffffffffffffffffffffffffffffffff1681526020018373ffffffffffffffffffffffffffffffffffffffff1681526020015f151581525060075f3373ffffffffffffffffffffffffffffffffffffffff1673ffffffffffffffffffffffffffffffffffffffff1681526020019081526020015f205f820151815f015f6101000a81548173ffffffffffffffffffffffffffffffffffffffff021916908373ffffffffffffffffffffffffffffffffffffffff1602179055506020820151816001015f6101000a81548173ffffffffffffffffffffffffffffffffffffffff021916908373ffffffffffffffffffffffffffffffffffffffff16021790555060408201518160010160146101000a81548160ff0219169083151502179055509050506001600460016101000a81548160ff0219169083151502179055508073ffffffffffffffffffffffffffffffffffffffff167fd940885aa266e9a19341bba634f831bde68d4d3009e14f239e32bed8dd9e4b54836040516119409190611ed3565b60405180910390a25050565b60035f3373ffffffffffffffffffffffffffffffffffffffff1673ffffffffffffffffffffffffffffffffffffffff1681526020019081526020015f205f9054906101000a900460ff166119d5576040517f08c379a00000000000000000000000000000000000000000000000000000000081526004016119cc90612399565b60405180910390fd5b60045f9054906101000a900460ff1615611a24576040517f08c379a0000000000000000000000000000000000000000000000000000000008152600401611a1b9061251d565b60405180910390fd5b600460019054906101000a900460ff1615611a74576040517f08c379a0000000000000000000000000000000000000000000000000000000008152600401611a6b90612427565b60405180910390fd5b60055f815480929190611a86906127e9565b919050555060405180606001604052808273ffffffffffffffffffffffffffffffffffffffff16815260200160055481526020015f151581525060065f3373ffffffffffffffffffffffffffffffffffffffff1673ffffffffffffffffffffffffffffffffffffffff1681526020019081526020015f205f820151815f015f6101000a81548173ffffffffffffffffffffffffffffffffffffffff021916908373ffffffffffffffffffffffffffffffffffffffff160217905550602082015181600101556040820151816002015f6101000a81548160ff021916908315150217905550905050600160045f6101000a81548160ff0219169083151502179055506005543373ffffffffffffffffffffffffffffffffffffffff167fe290ea2cc3cfeb5114f992dc8be9e503de30042c13b9298644a2679b09e17a0483604051611bd09190611ed3565b60405180910390a350565b60045f9054906101000a900460ff1681565b60025f5403611c28576040517f3ee5aeb500000000000000000000000000000000000000000000000000000000815260040160405180910390fd5b60025f81905550565b60015f81905550565b5f604051905090565b5f80fd5b5f80fd5b5f73ffffffffffffffffffffffffffffffffffffffff82169050919050565b5f611c7482611c4b565b9050919050565b611c8481611c6a565b8114611c8e575f80fd5b50565b5f81359050611c9f81611c7b565b92915050565b5f60208284031215611cba57611cb9611c43565b5b5f611cc784828501611c91565b91505092915050565b5f8115159050919050565b611ce481611cd0565b82525050565b5f602082019050611cfd5f830184611cdb565b92915050565b5f819050919050565b611d1581611d03565b82525050565b5f602082019050611d2e5f830184611d0c565b92915050565b611d3d81611d03565b8114611d47575f80fd5b50565b5f81359050611d5881611d34565b92915050565b5f8060408385031215611d7457611d73611c43565b5b5f611d8185828601611c91565b9250506020611d9285828601611d4a565b9150509250929050565b611da581611c6a565b82525050565b5f606082019050611dbe5f830186611d9c565b611dcb6020830185611d9c565b611dd86040830184611cdb565b949350505050565b5f606082019050611df35f830186611d9c565b611e006020830185611d0c565b611e0d6040830184611cdb565b949350505050565b5f80fd5b5f80fd5b5f80fd5b5f8083601f840112611e3657611e35611e15565b5b8235905067ffffffffffffffff811115611e5357611e52611e19565b5b602083019150836020820283011115611e6f57611e6e611e1d565b5b9250929050565b5f805f60408486031215611e8d57611e8c611c43565b5b5f611e9a86828701611c91565b935050602084013567ffffffffffffffff811115611ebb57611eba611c47565b5b611ec786828701611e21565b92509250509250925092565b5f602082019050611ee65f830184611d9c565b92915050565b5f80fd5b5f601f19601f8301169050919050565b7f4e487b71000000000000000000000000000000000000000000000000000000005f52604160045260245ffd5b611f3682611ef0565b810181811067ffffffffffffffff82111715611f5557611f54611f00565b5b80604052505050565b5f611f67611c3a565b9050611f738282611f2d565b919050565b5f67ffffffffffffffff821115611f9257611f91611f00565b5b611f9b82611ef0565b9050602081019050919050565b828183375f83830152505050565b5f611fc8611fc384611f78565b611f5e565b905082815260208101848484011115611fe457611fe3611eec565b5b611fef848285611fa8565b509392505050565b5f82601f83011261200b5761200a611e15565b5b813561201b848260208601611fb6565b91505092915050565b5f805f6060848603121561203b5761203a611c43565b5b5f61204886828701611c91565b935050602061205986828701611d4a565b925050604084013567ffffffffffffffff81111561207a57612079611c47565b5b61208686828701611ff7565b9150509250925092565b5f81519050919050565b5f82825260208201905092915050565b5f5b838110156120c75780820151818401526020810190506120ac565b5f8484015250505050565b5f6120dc82612090565b6120e6818561209a565b93506120f68185602086016120aa565b6120ff81611ef0565b840191505092915050565b5f6020820190508181035f83015261212281846120d2565b905092915050565b5f61213482611c4b565b9050919050565b6121448161212a565b811461214e575f80fd5b50565b5f8135905061215f8161213b565b92915050565b5f806040838503121561217b5761217a611c43565b5b5f61218885828601612151565b925050602061219985828601611d4a565b9150509250929050565b5f80604083850312156121b9576121b8611c43565b5b5f6121c685828601611c91565b92505060206121d785828601611c91565b9150509250929050565b5f82825260208201905092915050565b7f4e6f7420417574686f72697a65640000000000000000000000000000000000005f82015250565b5f612225600e836121e1565b9150612230826121f1565b602082019050919050565b5f6020820190508181035f83015261225281612219565b9050919050565b7f57616c6c6574206973206e6f7420696e205265636f76657279206d6f646500005f82015250565b5f61228d601e836121e1565b915061229882612259565b602082019050919050565b5f6020820190508181035f8301526122ba81612281565b9050919050565b7f6e6f74206120677561726469616e0000000000000000000000000000000000005f82015250565b5f6122f5600e836121e1565b9150612300826122c1565b602082019050919050565b5f6020820190508181035f830152612322816122e9565b9050919050565b7f4f6e6c7920477561726469616e206861732061636365737320746f20746869735f8201527f2072657175657374000000000000000000000000000000000000000000000000602082015250565b5f6123836028836121e1565b915061238e82612329565b604082019050919050565b5f6020820190508181035f8301526123b081612377565b9050919050565b7f4578697374696e6720477561726469616e204368616e676520526571756573745f8201527f20666f756e640000000000000000000000000000000000000000000000000000602082015250565b5f6124116026836121e1565b915061241c826123b7565b604082019050919050565b5f6020820190508181035f83015261243e81612405565b9050919050565b7f4e6f2043757272656e7420477561726469616e205265717565737420666f756e5f8201527f6400000000000000000000000000000000000000000000000000000000000000602082015250565b5f61249f6021836121e1565b91506124aa82612445565b604082019050919050565b5f6020820190508181035f8301526124cc81612493565b9050919050565b7f57616c6c657420697320696e205265636f76657279206d6f64650000000000005f82015250565b5f612507601a836121e1565b9150612512826124d3565b602082019050919050565b5f6020820190508181035f830152612534816124fb565b9050919050565b7f477561726469616e205265717565737420697320616c726561647920557365645f82015250565b5f61256f6020836121e1565b915061257a8261253b565b602082019050919050565b5f6020820190508181035f83015261259c81612563565b9050919050565b7f6d6f726520677561726469616e7320726571756972656420746f207472616e735f8201527f666572206f776e65727368697000000000000000000000000000000000000000602082015250565b5f6125fd602d836121e1565b9150612608826125a3565b604082019050919050565b5f6020820190508181035f83015261262a816125f1565b9050919050565b7f4e487b71000000000000000000000000000000000000000000000000000000005f52603260045260245ffd5b7f726f756e64206d69736d617463680000000000000000000000000000000000005f82015250565b5f612692600e836121e1565b915061269d8261265e565b602082019050919050565b5f6020820190508181035f8301526126bf81612686565b9050919050565b7f64697361677265656d656e74206f6e206e6577206f776e6572000000000000005f82015250565b5f6126fa6019836121e1565b9150612705826126c6565b602082019050919050565b5f6020820190508181035f830152612727816126ee565b9050919050565b7f6475706c696361746520677561726469616e207573656420696e207265636f765f8201527f6572790000000000000000000000000000000000000000000000000000000000602082015250565b5f6127886023836121e1565b91506127938261272e565b604082019050919050565b5f6020820190508181035f8301526127b58161277c565b9050919050565b7f4e487b71000000000000000000000000000000000000000000000000000000005f52601160045260245ffd5b5f6127f382611d03565b91507fffffffffffffffffffffffffffffffffffffffffffffffffffffffffffffffff8203612825576128246127bc565b5b600182019050919050565b5f6040820190506128435f830185611d9c565b6128506020830184611d9c565b9392505050565b5f81905092915050565b5f61286b82612090565b6128758185612857565b93506128858185602086016120aa565b80840191505092915050565b5f61289c8284612861565b915081905092915050565b7f436f6e74726163742043616c6c205265766572746564000000000000000000005f82015250565b5f6128db6016836121e1565b91506128e6826128a7565b602082019050919050565b5f6020820190508181035f830152612908816128cf565b9050919050565b5f6040820190506129225f830185611d0c565b818103602083015261293481846120d2565b9050939250505056fea26469706673582212209ea9539158ab9c43fccca44f1d427a9ff1fe9ce0f97779e219590ba6bf5a600e64736f6c63430008140033",
					"opcodes": "PUSH1 0x80 PUSH1 0x40 MSTORE CALLVALUE DUP1 ISZERO PUSH3 0x10 JUMPI PUSH0 DUP1 REVERT JUMPDEST POP PUSH1 0x40 MLOAD PUSH3 0x2FB4 CODESIZE SUB DUP1 PUSH3 0x2FB4 DUP4 CODECOPY DUP2 DUP2 ADD PUSH1 0x40 MSTORE DUP2 ADD SWAP1 PUSH3 0x36 SWAP2 SWAP1 PUSH3 0x429 JUMP JUMPDEST PUSH1 0x1 PUSH0 DUP2 SWAP1 SSTORE POP DUP2 MLOAD DUP2 GT ISZERO PUSH3 0x84 JUMPI PUSH1 0x40 MLOAD PUSH32 0x8C379A000000000000000000000000000000000000000000000000000000000 DUP2 MSTORE PUSH1 0x4 ADD PUSH3 0x7B SWAP1 PUSH3 0x4FF JUMP JUMPDEST PUSH1 0x40 MLOAD DUP1 SWAP2 SUB SWAP1 REVERT JUMPDEST PUSH0 JUMPDEST DUP3 MLOAD DUP2 LT ISZERO PUSH3 0x1C2 JUMPI PUSH1 0x3 PUSH0 DUP5 DUP4 DUP2 MLOAD DUP2 LT PUSH3 0xA9 JUMPI PUSH3 0xA8 PUSH3 0x51F JUMP JUMPDEST JUMPDEST PUSH1 0x20 MUL PUSH1 0x20 ADD ADD MLOAD PUSH20 0xFFFFFFFFFFFFFFFFFFFFFFFFFFFFFFFFFFFFFFFF AND PUSH20 0xFFFFFFFFFFFFFFFFFFFFFFFFFFFFFFFFFFFFFFFF AND DUP2 MSTORE PUSH1 0x20 ADD SWAP1 DUP2 MSTORE PUSH1 0x20 ADD PUSH0 KECCAK256 PUSH0 SWAP1 SLOAD SWAP1 PUSH2 0x100 EXP SWAP1 DIV PUSH1 0xFF AND ISZERO PUSH3 0x13A JUMPI PUSH1 0x40 MLOAD PUSH32 0x8C379A000000000000000000000000000000000000000000000000000000000 DUP2 MSTORE PUSH1 0x4 ADD PUSH3 0x131 SWAP1 PUSH3 0x59A JUMP JUMPDEST PUSH1 0x40 MLOAD DUP1 SWAP2 SUB SWAP1 REVERT JUMPDEST PUSH1 0x1 PUSH1 0x3 PUSH0 DUP6 DUP5 DUP2 MLOAD DUP2 LT PUSH3 0x155 JUMPI PUSH3 0x154 PUSH3 0x51F JUMP JUMPDEST JUMPDEST PUSH1 0x20 MUL PUSH1 0x20 ADD ADD MLOAD PUSH20 0xFFFFFFFFFFFFFFFFFFFFFFFFFFFFFFFFFFFFFFFF AND PUSH20 0xFFFFFFFFFFFFFFFFFFFFFFFFFFFFFFFFFFFFFFFF AND DUP2 MSTORE PUSH1 0x20 ADD SWAP1 DUP2 MSTORE PUSH1 0x20 ADD PUSH0 KECCAK256 PUSH0 PUSH2 0x100 EXP DUP2 SLOAD DUP2 PUSH1 0xFF MUL NOT AND SWAP1 DUP4 ISZERO ISZERO MUL OR SWAP1 SSTORE POP DUP1 DUP1 PUSH3 0x1B9 SWAP1 PUSH3 0x5E7 JUMP JUMPDEST SWAP2 POP POP PUSH3 0x86 JUMP JUMPDEST POP DUP1 PUSH1 0x2 DUP2 SWAP1 SSTORE POP DUP3 PUSH1 0x1 PUSH0 PUSH2 0x100 EXP DUP2 SLOAD DUP2 PUSH20 0xFFFFFFFFFFFFFFFFFFFFFFFFFFFFFFFFFFFFFFFF MUL NOT AND SWAP1 DUP4 PUSH20 0xFFFFFFFFFFFFFFFFFFFFFFFFFFFFFFFFFFFFFFFF AND MUL OR SWAP1 SSTORE POP POP POP POP PUSH3 0x633 JUMP JUMPDEST PUSH0 PUSH1 0x40 MLOAD SWAP1 POP SWAP1 JUMP JUMPDEST PUSH0 DUP1 REVERT JUMPDEST PUSH0 DUP1 REVERT JUMPDEST PUSH0 PUSH20 0xFFFFFFFFFFFFFFFFFFFFFFFFFFFFFFFFFFFFFFFF DUP3 AND SWAP1 POP SWAP2 SWAP1 POP JUMP JUMPDEST PUSH0 PUSH3 0x24F DUP3 PUSH3 0x224 JUMP JUMPDEST SWAP1 POP SWAP2 SWAP1 POP JUMP JUMPDEST PUSH3 0x261 DUP2 PUSH3 0x243 JUMP JUMPDEST DUP2 EQ PUSH3 0x26C JUMPI PUSH0 DUP1 REVERT JUMPDEST POP JUMP JUMPDEST PUSH0 DUP2 MLOAD SWAP1 POP PUSH3 0x27F DUP2 PUSH3 0x256 JUMP JUMPDEST SWAP3 SWAP2 POP POP JUMP JUMPDEST PUSH0 DUP1 REVERT JUMPDEST PUSH0 PUSH1 0x1F NOT PUSH1 0x1F DUP4 ADD AND SWAP1 POP SWAP2 SWAP1 POP JUMP JUMPDEST PUSH32 0x4E487B7100000000000000000000000000000000000000000000000000000000 PUSH0 MSTORE PUSH1 0x41 PUSH1 0x4 MSTORE PUSH1 0x24 PUSH0 REVERT JUMPDEST PUSH3 0x2D1 DUP3 PUSH3 0x289 JUMP JUMPDEST DUP2 ADD DUP2 DUP2 LT PUSH8 0xFFFFFFFFFFFFFFFF DUP3 GT OR ISZERO PUSH3 0x2F3 JUMPI PUSH3 0x2F2 PUSH3 0x299 JUMP JUMPDEST JUMPDEST DUP1 PUSH1 0x40 MSTORE POP POP POP JUMP JUMPDEST PUSH0 PUSH3 0x307 PUSH3 0x213 JUMP JUMPDEST SWAP1 POP PUSH3 0x315 DUP3 DUP3 PUSH3 0x2C6 JUMP JUMPDEST SWAP2 SWAP1 POP JUMP JUMPDEST PUSH0 PUSH8 0xFFFFFFFFFFFFFFFF DUP3 GT ISZERO PUSH3 0x337 JUMPI PUSH3 0x336 PUSH3 0x299 JUMP JUMPDEST JUMPDEST PUSH1 0x20 DUP3 MUL SWAP1 POP PUSH1 0x20 DUP2 ADD SWAP1 POP SWAP2 SWAP1 POP JUMP JUMPDEST PUSH0 DUP1 REVERT JUMPDEST PUSH0 PUSH3 0x362 PUSH3 0x35C DUP5 PUSH3 0x31A JUMP JUMPDEST PUSH3 0x2FC JUMP JUMPDEST SWAP1 POP DUP1 DUP4 DUP3 MSTORE PUSH1 0x20 DUP3 ADD SWAP1 POP PUSH1 0x20 DUP5 MUL DUP4 ADD DUP6 DUP2 GT ISZERO PUSH3 0x388 JUMPI PUSH3 0x387 PUSH3 0x348 JUMP JUMPDEST JUMPDEST DUP4 JUMPDEST DUP2 DUP2 LT ISZERO PUSH3 0x3B5 JUMPI DUP1 PUSH3 0x3A0 DUP9 DUP3 PUSH3 0x26F JUMP JUMPDEST DUP5 MSTORE PUSH1 0x20 DUP5 ADD SWAP4 POP POP PUSH1 0x20 DUP2 ADD SWAP1 POP PUSH3 0x38A JUMP JUMPDEST POP POP POP SWAP4 SWAP3 POP POP POP JUMP JUMPDEST PUSH0 DUP3 PUSH1 0x1F DUP4 ADD SLT PUSH3 0x3D6 JUMPI PUSH3 0x3D5 PUSH3 0x285 JUMP JUMPDEST JUMPDEST DUP2 MLOAD PUSH3 0x3E8 DUP5 DUP3 PUSH1 0x20 DUP7 ADD PUSH3 0x34C JUMP JUMPDEST SWAP2 POP POP SWAP3 SWAP2 POP POP JUMP JUMPDEST PUSH0 DUP2 SWAP1 POP SWAP2 SWAP1 POP JUMP JUMPDEST PUSH3 0x405 DUP2 PUSH3 0x3F1 JUMP JUMPDEST DUP2 EQ PUSH3 0x410 JUMPI PUSH0 DUP1 REVERT JUMPDEST POP JUMP JUMPDEST PUSH0 DUP2 MLOAD SWAP1 POP PUSH3 0x423 DUP2 PUSH3 0x3FA JUMP JUMPDEST SWAP3 SWAP2 POP POP JUMP JUMPDEST PUSH0 DUP1 PUSH0 PUSH1 0x60 DUP5 DUP7 SUB SLT ISZERO PUSH3 0x443 JUMPI PUSH3 0x442 PUSH3 0x21C JUMP JUMPDEST JUMPDEST PUSH0 PUSH3 0x452 DUP7 DUP3 DUP8 ADD PUSH3 0x26F JUMP JUMPDEST SWAP4 POP POP PUSH1 0x20 DUP5 ADD MLOAD PUSH8 0xFFFFFFFFFFFFFFFF DUP2 GT ISZERO PUSH3 0x476 JUMPI PUSH3 0x475 PUSH3 0x220 JUMP JUMPDEST JUMPDEST PUSH3 0x484 DUP7 DUP3 DUP8 ADD PUSH3 0x3BF JUMP JUMPDEST SWAP3 POP POP PUSH1 0x40 PUSH3 0x497 DUP7 DUP3 DUP8 ADD PUSH3 0x413 JUMP JUMPDEST SWAP2 POP POP SWAP3 POP SWAP3 POP SWAP3 JUMP JUMPDEST PUSH0 DUP3 DUP3 MSTORE PUSH1 0x20 DUP3 ADD SWAP1 POP SWAP3 SWAP2 POP POP JUMP JUMPDEST PUSH32 0x5468726573686F6C6420697320746F6F20686967680000000000000000000000 PUSH0 DUP3 ADD MSTORE POP JUMP JUMPDEST PUSH0 PUSH3 0x4E7 PUSH1 0x15 DUP4 PUSH3 0x4A1 JUMP JUMPDEST SWAP2 POP PUSH3 0x4F4 DUP3 PUSH3 0x4B1 JUMP JUMPDEST PUSH1 0x20 DUP3 ADD SWAP1 POP SWAP2 SWAP1 POP JUMP JUMPDEST PUSH0 PUSH1 0x20 DUP3 ADD SWAP1 POP DUP2 DUP2 SUB PUSH0 DUP4 ADD MSTORE PUSH3 0x518 DUP2 PUSH3 0x4D9 JUMP JUMPDEST SWAP1 POP SWAP2 SWAP1 POP JUMP JUMPDEST PUSH32 0x4E487B7100000000000000000000000000000000000000000000000000000000 PUSH0 MSTORE PUSH1 0x32 PUSH1 0x4 MSTORE PUSH1 0x24 PUSH0 REVERT JUMPDEST PUSH32 0x4475706C696361746520477561726469616E20466F756E640000000000000000 PUSH0 DUP3 ADD MSTORE POP JUMP JUMPDEST PUSH0 PUSH3 0x582 PUSH1 0x18 DUP4 PUSH3 0x4A1 JUMP JUMPDEST SWAP2 POP PUSH3 0x58F DUP3 PUSH3 0x54C JUMP JUMPDEST PUSH1 0x20 DUP3 ADD SWAP1 POP SWAP2 SWAP1 POP JUMP JUMPDEST PUSH0 PUSH1 0x20 DUP3 ADD SWAP1 POP DUP2 DUP2 SUB PUSH0 DUP4 ADD MSTORE PUSH3 0x5B3 DUP2 PUSH3 0x574 JUMP JUMPDEST SWAP1 POP SWAP2 SWAP1 POP JUMP JUMPDEST PUSH32 0x4E487B7100000000000000000000000000000000000000000000000000000000 PUSH0 MSTORE PUSH1 0x11 PUSH1 0x4 MSTORE PUSH1 0x24 PUSH0 REVERT JUMPDEST PUSH0 PUSH3 0x5F3 DUP3 PUSH3 0x3F1 JUMP JUMPDEST SWAP2 POP PUSH32 0xFFFFFFFFFFFFFFFFFFFFFFFFFFFFFFFFFFFFFFFFFFFFFFFFFFFFFFFFFFFFFFFF DUP3 SUB PUSH3 0x628 JUMPI PUSH3 0x627 PUSH3 0x5BA JUMP JUMPDEST JUMPDEST PUSH1 0x1 DUP3 ADD SWAP1 POP SWAP2 SWAP1 POP JUMP JUMPDEST PUSH2 0x2973 DUP1 PUSH3 0x641 PUSH0 CODECOPY PUSH0 RETURN INVALID PUSH1 0x80 PUSH1 0x40 MSTORE CALLVALUE DUP1 ISZERO PUSH2 0xF JUMPI PUSH0 DUP1 REVERT JUMPDEST POP PUSH1 0x4 CALLDATASIZE LT PUSH2 0x11F JUMPI PUSH0 CALLDATALOAD PUSH1 0xE0 SHR DUP1 PUSH4 0x5FC489A7 GT PUSH2 0xAB JUMPI DUP1 PUSH4 0xA9059CBB GT PUSH2 0x6F JUMPI DUP1 PUSH4 0xA9059CBB EQ PUSH2 0x2E3 JUMPI DUP1 PUSH4 0xACE7C993 EQ PUSH2 0x2FF JUMPI DUP1 PUSH4 0xD3582164 EQ PUSH2 0x31D JUMPI DUP1 PUSH4 0xD5CE9AAD EQ PUSH2 0x339 JUMPI DUP1 PUSH4 0xF05151DF EQ PUSH2 0x355 JUMPI PUSH2 0x11F JUMP JUMPDEST DUP1 PUSH4 0x5FC489A7 EQ PUSH2 0x251 JUMPI DUP1 PUSH4 0x8DA5CB5B EQ PUSH2 0x26D JUMPI DUP1 PUSH4 0x912365EA EQ PUSH2 0x28B JUMPI DUP1 PUSH4 0xA643E812 EQ PUSH2 0x2BB JUMPI DUP1 PUSH4 0xA7B65D10 EQ PUSH2 0x2D9 JUMPI PUSH2 0x11F JUMP JUMPDEST DUP1 PUSH4 0x1E969523 GT PUSH2 0xF2 JUMPI DUP1 PUSH4 0x1E969523 EQ PUSH2 0x197 JUMPI DUP1 PUSH4 0x371BBDC1 EQ PUSH2 0x1C9 JUMPI DUP1 PUSH4 0x42CDE4E8 EQ PUSH2 0x1FB JUMPI DUP1 PUSH4 0x57E685BC EQ PUSH2 0x219 JUMPI DUP1 PUSH4 0x5DB0DB7C EQ PUSH2 0x235 JUMPI PUSH2 0x11F JUMP JUMPDEST DUP1 PUSH4 0xBA234D6 EQ PUSH2 0x123 JUMPI DUP1 PUSH4 0xC68BA21 EQ PUSH2 0x12D JUMPI DUP1 PUSH4 0x12065FE0 EQ PUSH2 0x15D JUMPI DUP1 PUSH4 0x16CFCEE8 EQ PUSH2 0x17B JUMPI JUMPDEST PUSH0 DUP1 REVERT JUMPDEST PUSH2 0x12B PUSH2 0x373 JUMP JUMPDEST STOP JUMPDEST PUSH2 0x147 PUSH1 0x4 DUP1 CALLDATASIZE SUB DUP2 ADD SWAP1 PUSH2 0x142 SWAP2 SWAP1 PUSH2 0x1CA5 JUMP JUMPDEST PUSH2 0x4A5 JUMP JUMPDEST PUSH1 0x40 MLOAD PUSH2 0x154 SWAP2 SWAP1 PUSH2 0x1CEA JUMP JUMPDEST PUSH1 0x40 MLOAD DUP1 SWAP2 SUB SWAP1 RETURN JUMPDEST PUSH2 0x165 PUSH2 0x4C2 JUMP JUMPDEST PUSH1 0x40 MLOAD PUSH2 0x172 SWAP2 SWAP1 PUSH2 0x1D1B JUMP JUMPDEST PUSH1 0x40 MLOAD DUP1 SWAP2 SUB SWAP1 RETURN JUMPDEST PUSH2 0x195 PUSH1 0x4 DUP1 CALLDATASIZE SUB DUP2 ADD SWAP1 PUSH2 0x190 SWAP2 SWAP1 PUSH2 0x1D5E JUMP JUMPDEST PUSH2 0x4C9 JUMP JUMPDEST STOP JUMPDEST PUSH2 0x1B1 PUSH1 0x4 DUP1 CALLDATASIZE SUB DUP2 ADD SWAP1 PUSH2 0x1AC SWAP2 SWAP1 PUSH2 0x1CA5 JUMP JUMPDEST PUSH2 0x677 JUMP JUMPDEST PUSH1 0x40 MLOAD PUSH2 0x1C0 SWAP4 SWAP3 SWAP2 SWAP1 PUSH2 0x1DAB JUMP JUMPDEST PUSH1 0x40 MLOAD DUP1 SWAP2 SUB SWAP1 RETURN JUMPDEST PUSH2 0x1E3 PUSH1 0x4 DUP1 CALLDATASIZE SUB DUP2 ADD SWAP1 PUSH2 0x1DE SWAP2 SWAP1 PUSH2 0x1CA5 JUMP JUMPDEST PUSH2 0x6E8 JUMP JUMPDEST PUSH1 0x40 MLOAD PUSH2 0x1F2 SWAP4 SWAP3 SWAP2 SWAP1 PUSH2 0x1DE0 JUMP JUMPDEST PUSH1 0x40 MLOAD DUP1 SWAP2 SUB SWAP1 RETURN JUMPDEST PUSH2 0x203 PUSH2 0x739 JUMP JUMPDEST PUSH1 0x40 MLOAD PUSH2 0x210 SWAP2 SWAP1 PUSH2 0x1D1B JUMP JUMPDEST PUSH1 0x40 MLOAD DUP1 SWAP2 SUB SWAP1 RETURN JUMPDEST PUSH2 0x233 PUSH1 0x4 DUP1 CALLDATASIZE SUB DUP2 ADD SWAP1 PUSH2 0x22E SWAP2 SWAP1 PUSH2 0x1CA5 JUMP JUMPDEST PUSH2 0x73F JUMP JUMPDEST STOP JUMPDEST PUSH2 0x24F PUSH1 0x4 DUP1 CALLDATASIZE SUB DUP2 ADD SWAP1 PUSH2 0x24A SWAP2 SWAP1 PUSH2 0x1CA5 JUMP JUMPDEST PUSH2 0x99C JUMP JUMPDEST STOP JUMPDEST PUSH2 0x26B PUSH1 0x4 DUP1 CALLDATASIZE SUB DUP2 ADD SWAP1 PUSH2 0x266 SWAP2 SWAP1 PUSH2 0x1E76 JUMP JUMPDEST PUSH2 0xD40 JUMP JUMPDEST STOP JUMPDEST PUSH2 0x275 PUSH2 0x11F8 JUMP JUMPDEST PUSH1 0x40 MLOAD PUSH2 0x282 SWAP2 SWAP1 PUSH2 0x1ED3 JUMP JUMPDEST PUSH1 0x40 MLOAD DUP1 SWAP2 SUB SWAP1 RETURN JUMPDEST PUSH2 0x2A5 PUSH1 0x4 DUP1 CALLDATASIZE SUB DUP2 ADD SWAP1 PUSH2 0x2A0 SWAP2 SWAP1 PUSH2 0x2024 JUMP JUMPDEST PUSH2 0x121D JUMP JUMPDEST PUSH1 0x40 MLOAD PUSH2 0x2B2 SWAP2 SWAP1 PUSH2 0x210A JUMP JUMPDEST PUSH1 0x40 MLOAD DUP1 SWAP2 SUB SWAP1 RETURN JUMPDEST PUSH2 0x2C3 PUSH2 0x13C6 JUMP JUMPDEST PUSH1 0x40 MLOAD PUSH2 0x2D0 SWAP2 SWAP1 PUSH2 0x1CEA JUMP JUMPDEST PUSH1 0x40 MLOAD DUP1 SWAP2 SUB SWAP1 RETURN JUMPDEST PUSH2 0x2E1 PUSH2 0x13D9 JUMP JUMPDEST STOP JUMPDEST PUSH2 0x2FD PUSH1 0x4 DUP1 CALLDATASIZE SUB DUP2 ADD SWAP1 PUSH2 0x2F8 SWAP2 SWAP1 PUSH2 0x2165 JUMP JUMPDEST PUSH2 0x1559 JUMP JUMPDEST STOP JUMPDEST PUSH2 0x307 PUSH2 0x167E JUMP JUMPDEST PUSH1 0x40 MLOAD PUSH2 0x314 SWAP2 SWAP1 PUSH2 0x1D1B JUMP JUMPDEST PUSH1 0x40 MLOAD DUP1 SWAP2 SUB SWAP1 RETURN JUMPDEST PUSH2 0x337 PUSH1 0x4 DUP1 CALLDATASIZE SUB DUP2 ADD SWAP1 PUSH2 0x332 SWAP2 SWAP1 PUSH2 0x21A3 JUMP JUMPDEST PUSH2 0x1684 JUMP JUMPDEST STOP JUMPDEST PUSH2 0x353 PUSH1 0x4 DUP1 CALLDATASIZE SUB DUP2 ADD SWAP1 PUSH2 0x34E SWAP2 SWAP1 PUSH2 0x1CA5 JUMP JUMPDEST PUSH2 0x194C JUMP JUMPDEST STOP JUMPDEST PUSH2 0x35D PUSH2 0x1BDB JUMP JUMPDEST PUSH1 0x40 MLOAD PUSH2 0x36A SWAP2 SWAP1 PUSH2 0x1CEA JUMP JUMPDEST PUSH1 0x40 MLOAD DUP1 SWAP2 SUB SWAP1 RETURN JUMPDEST PUSH1 0x1 PUSH0 SWAP1 SLOAD SWAP1 PUSH2 0x100 EXP SWAP1 DIV PUSH20 0xFFFFFFFFFFFFFFFFFFFFFFFFFFFFFFFFFFFFFFFF AND PUSH20 0xFFFFFFFFFFFFFFFFFFFFFFFFFFFFFFFFFFFFFFFF AND CALLER PUSH20 0xFFFFFFFFFFFFFFFFFFFFFFFFFFFFFFFFFFFFFFFF AND EQ PUSH2 0x402 JUMPI PUSH1 0x40 MLOAD PUSH32 0x8C379A000000000000000000000000000000000000000000000000000000000 DUP2 MSTORE PUSH1 0x4 ADD PUSH2 0x3F9 SWAP1 PUSH2 0x223B JUMP JUMPDEST PUSH1 0x40 MLOAD DUP1 SWAP2 SUB SWAP1 REVERT JUMPDEST PUSH1 0x4 PUSH0 SWAP1 SLOAD SWAP1 PUSH2 0x100 EXP SWAP1 DIV PUSH1 0xFF AND PUSH2 0x450 JUMPI PUSH1 0x40 MLOAD PUSH32 0x8C379A000000000000000000000000000000000000000000000000000000000 DUP2 MSTORE PUSH1 0x4 ADD PUSH2 0x447 SWAP1 PUSH2 0x22A3 JUMP JUMPDEST PUSH1 0x40 MLOAD DUP1 SWAP2 SUB SWAP1 REVERT JUMPDEST PUSH0 PUSH1 0x4 PUSH0 PUSH2 0x100 EXP DUP2 SLOAD DUP2 PUSH1 0xFF MUL NOT AND SWAP1 DUP4 ISZERO ISZERO MUL OR SWAP1 SSTORE POP PUSH1 0x5 SLOAD PUSH32 0x500EC1D4B692D3C788BFD78A898DE379CFD93AB8177575EFC7593F87BD051A07 CALLER PUSH1 0x40 MLOAD PUSH2 0x49B SWAP2 SWAP1 PUSH2 0x1ED3 JUMP JUMPDEST PUSH1 0x40 MLOAD DUP1 SWAP2 SUB SWAP1 LOG2 JUMP JUMPDEST PUSH1 0x3 PUSH1 0x20 MSTORE DUP1 PUSH0 MSTORE PUSH1 0x40 PUSH0 KECCAK256 PUSH0 SWAP2 POP SLOAD SWAP1 PUSH2 0x100 EXP SWAP1 DIV PUSH1 0xFF AND DUP2 JUMP JUMPDEST PUSH0 SELFBALANCE SWAP1 POP SWAP1 JUMP JUMPDEST PUSH1 0x1 PUSH0 SWAP1 SLOAD SWAP1 PUSH2 0x100 EXP SWAP1 DIV PUSH20 0xFFFFFFFFFFFFFFFFFFFFFFFFFFFFFFFFFFFFFFFF AND PUSH20 0xFFFFFFFFFFFFFFFFFFFFFFFFFFFFFFFFFFFFFFFF AND CALLER PUSH20 0xFFFFFFFFFFFFFFFFFFFFFFFFFFFFFFFFFFFFFFFF AND EQ PUSH2 0x558 JUMPI PUSH1 0x40 MLOAD PUSH32 0x8C379A000000000000000000000000000000000000000000000000000000000 DUP2 MSTORE PUSH1 0x4 ADD PUSH2 0x54F SWAP1 PUSH2 0x223B JUMP JUMPDEST PUSH1 0x40 MLOAD DUP1 SWAP2 SUB SWAP1 REVERT JUMPDEST PUSH1 0x3 PUSH0 DUP4 PUSH20 0xFFFFFFFFFFFFFFFFFFFFFFFFFFFFFFFFFFFFFFFF AND PUSH20 0xFFFFFFFFFFFFFFFFFFFFFFFFFFFFFFFFFFFFFFFF AND DUP2 MSTORE PUSH1 0x20 ADD SWAP1 DUP2 MSTORE PUSH1 0x20 ADD PUSH0 KECCAK256 PUSH0 SWAP1 SLOAD SWAP1 PUSH2 0x100 EXP SWAP1 DIV PUSH1 0xFF AND PUSH2 0x5E1 JUMPI PUSH1 0x40 MLOAD PUSH32 0x8C379A000000000000000000000000000000000000000000000000000000000 DUP2 MSTORE PUSH1 0x4 ADD PUSH2 0x5D8 SWAP1 PUSH2 0x230B JUMP JUMPDEST PUSH1 0x40 MLOAD DUP1 SWAP2 SUB SWAP1 REVERT JUMPDEST PUSH0 PUSH1 0x3 PUSH0 DUP5 PUSH20 0xFFFFFFFFFFFFFFFFFFFFFFFFFFFFFFFFFFFFFFFF AND PUSH20 0xFFFFFFFFFFFFFFFFFFFFFFFFFFFFFFFFFFFFFFFF AND DUP2 MSTORE PUSH1 0x20 ADD SWAP1 DUP2 MSTORE PUSH1 0x20 ADD PUSH0 KECCAK256 PUSH0 PUSH2 0x100 EXP DUP2 SLOAD DUP2 PUSH1 0xFF MUL NOT AND SWAP1 DUP4 ISZERO ISZERO MUL OR SWAP1 SSTORE POP DUP1 PUSH1 0x2 DUP2 SWAP1 SSTORE POP PUSH32 0x2ED5A1D41AF8E4C27F6E4C020FEBBF0221B28B9CC47FCAB6BF97AA2BD28F3A68 CALLER PUSH1 0x40 MLOAD PUSH2 0x66B SWAP2 SWAP1 PUSH2 0x1ED3 JUMP JUMPDEST PUSH1 0x40 MLOAD DUP1 SWAP2 SUB SWAP1 LOG1 POP POP JUMP JUMPDEST PUSH1 0x7 PUSH1 0x20 MSTORE DUP1 PUSH0 MSTORE PUSH1 0x40 PUSH0 KECCAK256 PUSH0 SWAP2 POP SWAP1 POP DUP1 PUSH0 ADD PUSH0 SWAP1 SLOAD SWAP1 PUSH2 0x100 EXP SWAP1 DIV PUSH20 0xFFFFFFFFFFFFFFFFFFFFFFFFFFFFFFFFFFFFFFFF AND SWAP1 DUP1 PUSH1 0x1 ADD PUSH0 SWAP1 SLOAD SWAP1 PUSH2 0x100 EXP SWAP1 DIV PUSH20 0xFFFFFFFFFFFFFFFFFFFFFFFFFFFFFFFFFFFFFFFF AND SWAP1 DUP1 PUSH1 0x1 ADD PUSH1 0x14 SWAP1 SLOAD SWAP1 PUSH2 0x100 EXP SWAP1 DIV PUSH1 0xFF AND SWAP1 POP DUP4 JUMP JUMPDEST PUSH1 0x6 PUSH1 0x20 MSTORE DUP1 PUSH0 MSTORE PUSH1 0x40 PUSH0 KECCAK256 PUSH0 SWAP2 POP SWAP1 POP DUP1 PUSH0 ADD PUSH0 SWAP1 SLOAD SWAP1 PUSH2 0x100 EXP SWAP1 DIV PUSH20 0xFFFFFFFFFFFFFFFFFFFFFFFFFFFFFFFFFFFFFFFF AND SWAP1 DUP1 PUSH1 0x1 ADD SLOAD SWAP1 DUP1 PUSH1 0x2 ADD PUSH0 SWAP1 SLOAD SWAP1 PUSH2 0x100 EXP SWAP1 DIV PUSH1 0xFF AND SWAP1 POP DUP4 JUMP JUMPDEST PUSH1 0x2 SLOAD DUP2 JUMP JUMPDEST PUSH1 0x3 PUSH0 CALLER PUSH20 0xFFFFFFFFFFFFFFFFFFFFFFFFFFFFFFFFFFFFFFFF AND PUSH20 0xFFFFFFFFFFFFFFFFFFFFFFFFFFFFFFFFFFFFFFFF AND DUP2 MSTORE PUSH1 0x20 ADD SWAP1 DUP2 MSTORE PUSH1 0x20 ADD PUSH0 KECCAK256 PUSH0 SWAP1 SLOAD SWAP1 PUSH2 0x100 EXP SWAP1 DIV PUSH1 0xFF AND PUSH2 0x7C8 JUMPI PUSH1 0x40 MLOAD PUSH32 0x8C379A000000000000000000000000000000000000000000000000000000000 DUP2 MSTORE PUSH1 0x4 ADD PUSH2 0x7BF SWAP1 PUSH2 0x2399 JUMP JUMPDEST PUSH1 0x40 MLOAD DUP1 SWAP2 SUB SWAP1 REVERT JUMPDEST PUSH1 0x4 PUSH0 SWAP1 SLOAD SWAP1 PUSH2 0x100 EXP SWAP1 DIV PUSH1 0xFF AND PUSH2 0x816 JUMPI PUSH1 0x40 MLOAD PUSH32 0x8C379A000000000000000000000000000000000000000000000000000000000 DUP2 MSTORE PUSH1 0x4 ADD PUSH2 0x80D SWAP1 PUSH2 0x22A3 JUMP JUMPDEST PUSH1 0x40 MLOAD DUP1 SWAP2 SUB SWAP1 REVERT JUMPDEST PUSH1 0x4 PUSH1 0x1 SWAP1 SLOAD SWAP1 PUSH2 0x100 EXP SWAP1 DIV PUSH1 0xFF AND ISZERO PUSH2 0x866 JUMPI PUSH1 0x40 MLOAD PUSH32 0x8C379A000000000000000000000000000000000000000000000000000000000 DUP2 MSTORE PUSH1 0x4 ADD PUSH2 0x85D SWAP1 PUSH2 0x2427 JUMP JUMPDEST PUSH1 0x40 MLOAD DUP1 SWAP2 SUB SWAP1 REVERT JUMPDEST PUSH1 0x40 MLOAD DUP1 PUSH1 0x60 ADD PUSH1 0x40 MSTORE DUP1 DUP3 PUSH20 0xFFFFFFFFFFFFFFFFFFFFFFFFFFFFFFFFFFFFFFFF AND DUP2 MSTORE PUSH1 0x20 ADD PUSH1 0x5 SLOAD DUP2 MSTORE PUSH1 0x20 ADD PUSH0 ISZERO ISZERO DUP2 MSTORE POP PUSH1 0x6 PUSH0 CALLER PUSH20 0xFFFFFFFFFFFFFFFFFFFFFFFFFFFFFFFFFFFFFFFF AND PUSH20 0xFFFFFFFFFFFFFFFFFFFFFFFFFFFFFFFFFFFFFFFF AND DUP2 MSTORE PUSH1 0x20 ADD SWAP1 DUP2 MSTORE PUSH1 0x20 ADD PUSH0 KECCAK256 PUSH0 DUP3 ADD MLOAD DUP2 PUSH0 ADD PUSH0 PUSH2 0x100 EXP DUP2 SLOAD DUP2 PUSH20 0xFFFFFFFFFFFFFFFFFFFFFFFFFFFFFFFFFFFFFFFF MUL NOT AND SWAP1 DUP4 PUSH20 0xFFFFFFFFFFFFFFFFFFFFFFFFFFFFFFFFFFFFFFFF AND MUL OR SWAP1 SSTORE POP PUSH1 0x20 DUP3 ADD MLOAD DUP2 PUSH1 0x1 ADD SSTORE PUSH1 0x40 DUP3 ADD MLOAD DUP2 PUSH1 0x2 ADD PUSH0 PUSH2 0x100 EXP DUP2 SLOAD DUP2 PUSH1 0xFF MUL NOT AND SWAP1 DUP4 ISZERO ISZERO MUL OR SWAP1 SSTORE POP SWAP1 POP POP PUSH1 0x5 SLOAD CALLER PUSH20 0xFFFFFFFFFFFFFFFFFFFFFFFFFFFFFFFFFFFFFFFF AND PUSH32 0x7A0B940199FF58E943823FE8C0E916DF112BE357049D8105A7E83CF9A4000E4A DUP4 PUSH1 0x40 MLOAD PUSH2 0x991 SWAP2 SWAP1 PUSH2 0x1ED3 JUMP JUMPDEST PUSH1 0x40 MLOAD DUP1 SWAP2 SUB SWAP1 LOG3 POP JUMP JUMPDEST PUSH1 0x1 PUSH0 SWAP1 SLOAD SWAP1 PUSH2 0x100 EXP SWAP1 DIV PUSH20 0xFFFFFFFFFFFFFFFFFFFFFFFFFFFFFFFFFFFFFFFF AND PUSH20 0xFFFFFFFFFFFFFFFFFFFFFFFFFFFFFFFFFFFFFFFF AND CALLER PUSH20 0xFFFFFFFFFFFFFFFFFFFFFFFFFFFFFFFFFFFFFFFF AND EQ PUSH2 0xA2B JUMPI PUSH1 0x40 MLOAD PUSH32 0x8C379A000000000000000000000000000000000000000000000000000000000 DUP2 MSTORE PUSH1 0x4 ADD PUSH2 0xA22 SWAP1 PUSH2 0x223B JUMP JUMPDEST PUSH1 0x40 MLOAD DUP1 SWAP2 SUB SWAP1 REVERT JUMPDEST PUSH1 0x4 PUSH1 0x1 SWAP1 SLOAD SWAP1 PUSH2 0x100 EXP SWAP1 DIV PUSH1 0xFF AND PUSH2 0xA7A JUMPI PUSH1 0x40 MLOAD PUSH32 0x8C379A000000000000000000000000000000000000000000000000000000000 DUP2 MSTORE PUSH1 0x4 ADD PUSH2 0xA71 SWAP1 PUSH2 0x24B5 JUMP JUMPDEST PUSH1 0x40 MLOAD DUP1 SWAP2 SUB SWAP1 REVERT JUMPDEST PUSH1 0x4 PUSH0 SWAP1 SLOAD SWAP1 PUSH2 0x100 EXP SWAP1 DIV PUSH1 0xFF AND ISZERO PUSH2 0xAC9 JUMPI PUSH1 0x40 MLOAD PUSH32 0x8C379A000000000000000000000000000000000000000000000000000000000 DUP2 MSTORE PUSH1 0x4 ADD PUSH2 0xAC0 SWAP1 PUSH2 0x251D JUMP JUMPDEST PUSH1 0x40 MLOAD DUP1 SWAP2 SUB SWAP1 REVERT JUMPDEST PUSH0 PUSH1 0x7 PUSH0 DUP4 PUSH20 0xFFFFFFFFFFFFFFFFFFFFFFFFFFFFFFFFFFFFFFFF AND PUSH20 0xFFFFFFFFFFFFFFFFFFFFFFFFFFFFFFFFFFFFFFFF AND DUP2 MSTORE PUSH1 0x20 ADD SWAP1 DUP2 MSTORE PUSH1 0x20 ADD PUSH0 KECCAK256 PUSH1 0x40 MLOAD DUP1 PUSH1 0x60 ADD PUSH1 0x40 MSTORE SWAP1 DUP2 PUSH0 DUP3 ADD PUSH0 SWAP1 SLOAD SWAP1 PUSH2 0x100 EXP SWAP1 DIV PUSH20 0xFFFFFFFFFFFFFFFFFFFFFFFFFFFFFFFFFFFFFFFF AND PUSH20 0xFFFFFFFFFFFFFFFFFFFFFFFFFFFFFFFFFFFFFFFF AND PUSH20 0xFFFFFFFFFFFFFFFFFFFFFFFFFFFFFFFFFFFFFFFF AND DUP2 MSTORE PUSH1 0x20 ADD PUSH1 0x1 DUP3 ADD PUSH0 SWAP1 SLOAD SWAP1 PUSH2 0x100 EXP SWAP1 DIV PUSH20 0xFFFFFFFFFFFFFFFFFFFFFFFFFFFFFFFFFFFFFFFF AND PUSH20 0xFFFFFFFFFFFFFFFFFFFFFFFFFFFFFFFFFFFFFFFF AND PUSH20 0xFFFFFFFFFFFFFFFFFFFFFFFFFFFFFFFFFFFFFFFF AND DUP2 MSTORE PUSH1 0x20 ADD PUSH1 0x1 DUP3 ADD PUSH1 0x14 SWAP1 SLOAD SWAP1 PUSH2 0x100 EXP SWAP1 DIV PUSH1 0xFF AND ISZERO ISZERO ISZERO ISZERO DUP2 MSTORE POP POP SWAP1 POP DUP1 PUSH1 0x40 ADD MLOAD ISZERO PUSH2 0xC1D JUMPI PUSH1 0x40 MLOAD PUSH32 0x8C379A000000000000000000000000000000000000000000000000000000000 DUP2 MSTORE PUSH1 0x4 ADD PUSH2 0xC14 SWAP1 PUSH2 0x2585 JUMP JUMPDEST PUSH1 0x40 MLOAD DUP1 SWAP2 SUB SWAP1 REVERT JUMPDEST PUSH1 0x1 PUSH1 0x3 PUSH0 DUP4 PUSH0 ADD MLOAD PUSH20 0xFFFFFFFFFFFFFFFFFFFFFFFFFFFFFFFFFFFFFFFF AND PUSH20 0xFFFFFFFFFFFFFFFFFFFFFFFFFFFFFFFFFFFFFFFF AND DUP2 MSTORE PUSH1 0x20 ADD SWAP1 DUP2 MSTORE PUSH1 0x20 ADD PUSH0 KECCAK256 PUSH0 PUSH2 0x100 EXP DUP2 SLOAD DUP2 PUSH1 0xFF MUL NOT AND SWAP1 DUP4 ISZERO ISZERO MUL OR SWAP1 SSTORE POP PUSH0 PUSH1 0x3 PUSH0 DUP4 PUSH1 0x20 ADD MLOAD PUSH20 0xFFFFFFFFFFFFFFFFFFFFFFFFFFFFFFFFFFFFFFFF AND PUSH20 0xFFFFFFFFFFFFFFFFFFFFFFFFFFFFFFFFFFFFFFFF AND DUP2 MSTORE PUSH1 0x20 ADD SWAP1 DUP2 MSTORE PUSH1 0x20 ADD PUSH0 KECCAK256 PUSH0 PUSH2 0x100 EXP DUP2 SLOAD DUP2 PUSH1 0xFF MUL NOT AND SWAP1 DUP4 ISZERO ISZERO MUL OR SWAP1 SSTORE POP PUSH0 PUSH1 0x4 PUSH1 0x1 PUSH2 0x100 EXP DUP2 SLOAD DUP2 PUSH1 0xFF MUL NOT AND SWAP1 DUP4 ISZERO ISZERO MUL OR SWAP1 SSTORE POP DUP1 PUSH0 ADD MLOAD PUSH20 0xFFFFFFFFFFFFFFFFFFFFFFFFFFFFFFFFFFFFFFFF AND PUSH32 0xEBE47B4A5AEF1696896716ABE65C590C720B0CD9572A7E2DCB0A9BFE2B2CA7F DUP3 PUSH1 0x20 ADD MLOAD PUSH1 0x40 MLOAD PUSH2 0xD34 SWAP2 SWAP1 PUSH2 0x1ED3 JUMP JUMPDEST PUSH1 0x40 MLOAD DUP1 SWAP2 SUB SWAP1 LOG2 POP POP JUMP JUMPDEST PUSH1 0x3 PUSH0 CALLER PUSH20 0xFFFFFFFFFFFFFFFFFFFFFFFFFFFFFFFFFFFFFFFF AND PUSH20 0xFFFFFFFFFFFFFFFFFFFFFFFFFFFFFFFFFFFFFFFF AND DUP2 MSTORE PUSH1 0x20 ADD SWAP1 DUP2 MSTORE PUSH1 0x20 ADD PUSH0 KECCAK256 PUSH0 SWAP1 SLOAD SWAP1 PUSH2 0x100 EXP SWAP1 DIV PUSH1 0xFF AND PUSH2 0xDC9 JUMPI PUSH1 0x40 MLOAD PUSH32 0x8C379A000000000000000000000000000000000000000000000000000000000 DUP2 MSTORE PUSH1 0x4 ADD PUSH2 0xDC0 SWAP1 PUSH2 0x2399 JUMP JUMPDEST PUSH1 0x40 MLOAD DUP1 SWAP2 SUB SWAP1 REVERT JUMPDEST PUSH1 0x4 PUSH0 SWAP1 SLOAD SWAP1 PUSH2 0x100 EXP SWAP1 DIV PUSH1 0xFF AND PUSH2 0xE17 JUMPI PUSH1 0x40 MLOAD PUSH32 0x8C379A000000000000000000000000000000000000000000000000000000000 DUP2 MSTORE PUSH1 0x4 ADD PUSH2 0xE0E SWAP1 PUSH2 0x22A3 JUMP JUMPDEST PUSH1 0x40 MLOAD DUP1 SWAP2 SUB SWAP1 REVERT JUMPDEST PUSH1 0x4 PUSH1 0x1 SWAP1 SLOAD SWAP1 PUSH2 0x100 EXP SWAP1 DIV PUSH1 0xFF AND ISZERO PUSH2 0xE67 JUMPI PUSH1 0x40 MLOAD PUSH32 0x8C379A000000000000000000000000000000000000000000000000000000000 DUP2 MSTORE PUSH1 0x4 ADD PUSH2 0xE5E SWAP1 PUSH2 0x2427 JUMP JUMPDEST PUSH1 0x40 MLOAD DUP1 SWAP2 SUB SWAP1 REVERT JUMPDEST PUSH1 0x2 SLOAD DUP3 DUP3 SWAP1 POP LT ISZERO PUSH2 0xEAF JUMPI PUSH1 0x40 MLOAD PUSH32 0x8C379A000000000000000000000000000000000000000000000000000000000 DUP2 MSTORE PUSH1 0x4 ADD PUSH2 0xEA6 SWAP1 PUSH2 0x2613 JUMP JUMPDEST PUSH1 0x40 MLOAD DUP1 SWAP2 SUB SWAP1 REVERT JUMPDEST PUSH0 JUMPDEST DUP3 DUP3 SWAP1 POP DUP2 LT ISZERO PUSH2 0x1137 JUMPI PUSH0 PUSH1 0x6 PUSH0 DUP6 DUP6 DUP6 DUP2 DUP2 LT PUSH2 0xED3 JUMPI PUSH2 0xED2 PUSH2 0x2631 JUMP JUMPDEST JUMPDEST SWAP1 POP PUSH1 0x20 MUL ADD PUSH1 0x20 DUP2 ADD SWAP1 PUSH2 0xEE8 SWAP2 SWAP1 PUSH2 0x1CA5 JUMP JUMPDEST PUSH20 0xFFFFFFFFFFFFFFFFFFFFFFFFFFFFFFFFFFFFFFFF AND PUSH20 0xFFFFFFFFFFFFFFFFFFFFFFFFFFFFFFFFFFFFFFFF AND DUP2 MSTORE PUSH1 0x20 ADD SWAP1 DUP2 MSTORE PUSH1 0x20 ADD PUSH0 KECCAK256 PUSH1 0x40 MLOAD DUP1 PUSH1 0x60 ADD PUSH1 0x40 MSTORE SWAP1 DUP2 PUSH0 DUP3 ADD PUSH0 SWAP1 SLOAD SWAP1 PUSH2 0x100 EXP SWAP1 DIV PUSH20 0xFFFFFFFFFFFFFFFFFFFFFFFFFFFFFFFFFFFFFFFF AND PUSH20 0xFFFFFFFFFFFFFFFFFFFFFFFFFFFFFFFFFFFFFFFF AND PUSH20 0xFFFFFFFFFFFFFFFFFFFFFFFFFFFFFFFFFFFFFFFF AND DUP2 MSTORE PUSH1 0x20 ADD PUSH1 0x1 DUP3 ADD SLOAD DUP2 MSTORE PUSH1 0x20 ADD PUSH1 0x2 DUP3 ADD PUSH0 SWAP1 SLOAD SWAP1 PUSH2 0x100 EXP SWAP1 DIV PUSH1 0xFF AND ISZERO ISZERO ISZERO ISZERO DUP2 MSTORE POP POP SWAP1 POP PUSH1 0x5 SLOAD DUP2 PUSH1 0x20 ADD MLOAD EQ PUSH2 0xFEE JUMPI PUSH1 0x40 MLOAD PUSH32 0x8C379A000000000000000000000000000000000000000000000000000000000 DUP2 MSTORE PUSH1 0x4 ADD PUSH2 0xFE5 SWAP1 PUSH2 0x26A8 JUMP JUMPDEST PUSH1 0x40 MLOAD DUP1 SWAP2 SUB SWAP1 REVERT JUMPDEST DUP5 PUSH20 0xFFFFFFFFFFFFFFFFFFFFFFFFFFFFFFFFFFFFFFFF AND DUP2 PUSH0 ADD MLOAD PUSH20 0xFFFFFFFFFFFFFFFFFFFFFFFFFFFFFFFFFFFFFFFF AND EQ PUSH2 0x105F JUMPI PUSH1 0x40 MLOAD PUSH32 0x8C379A000000000000000000000000000000000000000000000000000000000 DUP2 MSTORE PUSH1 0x4 ADD PUSH2 0x1056 SWAP1 PUSH2 0x2710 JUMP JUMPDEST PUSH1 0x40 MLOAD DUP1 SWAP2 SUB SWAP1 REVERT JUMPDEST DUP1 PUSH1 0x40 ADD MLOAD ISZERO PUSH2 0x10A4 JUMPI PUSH1 0x40 MLOAD PUSH32 0x8C379A000000000000000000000000000000000000000000000000000000000 DUP2 MSTORE PUSH1 0x4 ADD PUSH2 0x109B SWAP1 PUSH2 0x279E JUMP JUMPDEST PUSH1 0x40 MLOAD DUP1 SWAP2 SUB SWAP1 REVERT JUMPDEST PUSH1 0x1 PUSH1 0x6 PUSH0 DUP7 DUP7 DUP7 DUP2 DUP2 LT PUSH2 0x10BC JUMPI PUSH2 0x10BB PUSH2 0x2631 JUMP JUMPDEST JUMPDEST SWAP1 POP PUSH1 0x20 MUL ADD PUSH1 0x20 DUP2 ADD SWAP1 PUSH2 0x10D1 SWAP2 SWAP1 PUSH2 0x1CA5 JUMP JUMPDEST PUSH20 0xFFFFFFFFFFFFFFFFFFFFFFFFFFFFFFFFFFFFFFFF AND PUSH20 0xFFFFFFFFFFFFFFFFFFFFFFFFFFFFFFFFFFFFFFFF AND DUP2 MSTORE PUSH1 0x20 ADD SWAP1 DUP2 MSTORE PUSH1 0x20 ADD PUSH0 KECCAK256 PUSH1 0x2 ADD PUSH0 PUSH2 0x100 EXP DUP2 SLOAD DUP2 PUSH1 0xFF MUL NOT AND SWAP1 DUP4 ISZERO ISZERO MUL OR SWAP1 SSTORE POP POP DUP1 DUP1 PUSH2 0x112F SWAP1 PUSH2 0x27E9 JUMP JUMPDEST SWAP2 POP POP PUSH2 0xEB1 JUMP JUMPDEST POP PUSH0 PUSH1 0x4 PUSH0 PUSH2 0x100 EXP DUP2 SLOAD DUP2 PUSH1 0xFF MUL NOT AND SWAP1 DUP4 ISZERO ISZERO MUL OR SWAP1 SSTORE POP PUSH0 PUSH1 0x1 PUSH0 SWAP1 SLOAD SWAP1 PUSH2 0x100 EXP SWAP1 DIV PUSH20 0xFFFFFFFFFFFFFFFFFFFFFFFFFFFFFFFFFFFFFFFF AND SWAP1 POP DUP4 PUSH1 0x1 PUSH0 PUSH2 0x100 EXP DUP2 SLOAD DUP2 PUSH20 0xFFFFFFFFFFFFFFFFFFFFFFFFFFFFFFFFFFFFFFFF MUL NOT AND SWAP1 DUP4 PUSH20 0xFFFFFFFFFFFFFFFFFFFFFFFFFFFFFFFFFFFFFFFF AND MUL OR SWAP1 SSTORE POP PUSH1 0x5 SLOAD PUSH32 0xCBAA7C7C351E2D5655FC08D9C383ADCF4736AF160C800B53DF1F1DD221F826C8 DUP3 DUP7 PUSH1 0x40 MLOAD PUSH2 0x11EA SWAP3 SWAP2 SWAP1 PUSH2 0x2830 JUMP JUMPDEST PUSH1 0x40 MLOAD DUP1 SWAP2 SUB SWAP1 LOG2 POP POP POP POP JUMP JUMPDEST PUSH1 0x1 PUSH0 SWAP1 SLOAD SWAP1 PUSH2 0x100 EXP SWAP1 DIV PUSH20 0xFFFFFFFFFFFFFFFFFFFFFFFFFFFFFFFFFFFFFFFF AND DUP2 JUMP JUMPDEST PUSH1 0x60 PUSH1 0x1 PUSH0 SWAP1 SLOAD SWAP1 PUSH2 0x100 EXP SWAP1 DIV PUSH20 0xFFFFFFFFFFFFFFFFFFFFFFFFFFFFFFFFFFFFFFFF AND PUSH20 0xFFFFFFFFFFFFFFFFFFFFFFFFFFFFFFFFFFFFFFFF AND CALLER PUSH20 0xFFFFFFFFFFFFFFFFFFFFFFFFFFFFFFFFFFFFFFFF AND EQ PUSH2 0x12AE JUMPI PUSH1 0x40 MLOAD PUSH32 0x8C379A000000000000000000000000000000000000000000000000000000000 DUP2 MSTORE PUSH1 0x4 ADD PUSH2 0x12A5 SWAP1 PUSH2 0x223B JUMP JUMPDEST PUSH1 0x40 MLOAD DUP1 SWAP2 SUB SWAP1 REVERT JUMPDEST PUSH2 0x12B6 PUSH2 0x1BED JUMP JUMPDEST PUSH0 DUP1 DUP6 PUSH20 0xFFFFFFFFFFFFFFFFFFFFFFFFFFFFFFFFFFFFFFFF AND DUP6 DUP6 PUSH1 0x40 MLOAD PUSH2 0x12DE SWAP2 SWAP1 PUSH2 0x2891 JUMP JUMPDEST PUSH0 PUSH1 0x40 MLOAD DUP1 DUP4 SUB DUP2 DUP6 DUP8 GAS CALL SWAP3 POP POP POP RETURNDATASIZE DUP1 PUSH0 DUP2 EQ PUSH2 0x1318 JUMPI PUSH1 0x40 MLOAD SWAP2 POP PUSH1 0x1F NOT PUSH1 0x3F RETURNDATASIZE ADD AND DUP3 ADD PUSH1 0x40 MSTORE RETURNDATASIZE DUP3 MSTORE RETURNDATASIZE PUSH0 PUSH1 0x20 DUP5 ADD RETURNDATACOPY PUSH2 0x131D JUMP JUMPDEST PUSH1 0x60 SWAP2 POP JUMPDEST POP SWAP2 POP SWAP2 POP DUP2 PUSH2 0x1362 JUMPI PUSH1 0x40 MLOAD PUSH32 0x8C379A000000000000000000000000000000000000000000000000000000000 DUP2 MSTORE PUSH1 0x4 ADD PUSH2 0x1359 SWAP1 PUSH2 0x28F1 JUMP JUMPDEST PUSH1 0x40 MLOAD DUP1 SWAP2 SUB SWAP1 REVERT JUMPDEST DUP6 PUSH20 0xFFFFFFFFFFFFFFFFFFFFFFFFFFFFFFFFFFFFFFFF AND PUSH32 0x47D99AD340F52DA66535AFF7E10DA1CEB85A32BCBD9FA1C42314D194545E14D2 DUP7 DUP7 PUSH1 0x40 MLOAD PUSH2 0x13AA SWAP3 SWAP2 SWAP1 PUSH2 0x290F JUMP JUMPDEST PUSH1 0x40 MLOAD DUP1 SWAP2 SUB SWAP1 LOG2 DUP1 SWAP3 POP POP POP PUSH2 0x13BF PUSH2 0x1C31 JUMP JUMPDEST SWAP4 SWAP3 POP POP POP JUMP JUMPDEST PUSH1 0x4 PUSH1 0x1 SWAP1 SLOAD SWAP1 PUSH2 0x100 EXP SWAP1 DIV PUSH1 0xFF AND DUP2 JUMP JUMPDEST PUSH1 0x1 PUSH0 SWAP1 SLOAD SWAP1 PUSH2 0x100 EXP SWAP1 DIV PUSH20 0xFFFFFFFFFFFFFFFFFFFFFFFFFFFFFFFFFFFFFFFF AND PUSH20 0xFFFFFFFFFFFFFFFFFFFFFFFFFFFFFFFFFFFFFFFF AND CALLER PUSH20 0xFFFFFFFFFFFFFFFFFFFFFFFFFFFFFFFFFFFFFFFF AND EQ PUSH2 0x1468 JUMPI PUSH1 0x40 MLOAD PUSH32 0x8C379A000000000000000000000000000000000000000000000000000000000 DUP2 MSTORE PUSH1 0x4 ADD PUSH2 0x145F SWAP1 PUSH2 0x223B JUMP JUMPDEST PUSH1 0x40 MLOAD DUP1 SWAP2 SUB SWAP1 REVERT JUMPDEST PUSH1 0x4 PUSH1 0x1 SWAP1 SLOAD SWAP1 PUSH2 0x100 EXP SWAP1 DIV PUSH1 0xFF AND PUSH2 0x14B7 JUMPI PUSH1 0x40 MLOAD PUSH32 0x8C379A000000000000000000000000000000000000000000000000000000000 DUP2 MSTORE PUSH1 0x4 ADD PUSH2 0x14AE SWAP1 PUSH2 0x24B5 JUMP JUMPDEST PUSH1 0x40 MLOAD DUP1 SWAP2 SUB SWAP1 REVERT JUMPDEST PUSH1 0x4 PUSH0 SWAP1 SLOAD SWAP1 PUSH2 0x100 EXP SWAP1 DIV PUSH1 0xFF AND ISZERO PUSH2 0x1506 JUMPI PUSH1 0x40 MLOAD PUSH32 0x8C379A000000000000000000000000000000000000000000000000000000000 DUP2 MSTORE PUSH1 0x4 ADD PUSH2 0x14FD SWAP1 PUSH2 0x251D JUMP JUMPDEST PUSH1 0x40 MLOAD DUP1 SWAP2 SUB SWAP1 REVERT JUMPDEST PUSH0 PUSH1 0x4 PUSH1 0x1 PUSH2 0x100 EXP DUP2 SLOAD DUP2 PUSH1 0xFF MUL NOT AND SWAP1 DUP4 ISZERO ISZERO MUL OR SWAP1 SSTORE POP PUSH32 0xD57D294D41D7CB0F642228C3AA8884365982694AFCFA206C635FD368DFA4479C CALLER PUSH1 0x40 MLOAD PUSH2 0x154F SWAP2 SWAP1 PUSH2 0x1ED3 JUMP JUMPDEST PUSH1 0x40 MLOAD DUP1 SWAP2 SUB SWAP1 LOG1 JUMP JUMPDEST PUSH1 0x1 PUSH0 SWAP1 SLOAD SWAP1 PUSH2 0x100 EXP SWAP1 DIV PUSH20 0xFFFFFFFFFFFFFFFFFFFFFFFFFFFFFFFFFFFFFFFF AND PUSH20 0xFFFFFFFFFFFFFFFFFFFFFFFFFFFFFFFFFFFFFFFF AND CALLER PUSH20 0xFFFFFFFFFFFFFFFFFFFFFFFFFFFFFFFFFFFFFFFF AND EQ PUSH2 0x15E8 JUMPI PUSH1 0x40 MLOAD PUSH32 0x8C379A000000000000000000000000000000000000000000000000000000000 DUP2 MSTORE PUSH1 0x4 ADD PUSH2 0x15DF SWAP1 PUSH2 0x223B JUMP JUMPDEST PUSH1 0x40 MLOAD DUP1 SWAP2 SUB SWAP1 REVERT JUMPDEST DUP2 PUSH20 0xFFFFFFFFFFFFFFFFFFFFFFFFFFFFFFFFFFFFFFFF AND PUSH2 0x8FC DUP3 SWAP1 DUP2 ISZERO MUL SWAP1 PUSH1 0x40 MLOAD PUSH0 PUSH1 0x40 MLOAD DUP1 DUP4 SUB DUP2 DUP6 DUP9 DUP9 CALL SWAP4 POP POP POP POP ISZERO DUP1 ISZERO PUSH2 0x162B JUMPI RETURNDATASIZE PUSH0 DUP1 RETURNDATACOPY RETURNDATASIZE PUSH0 REVERT JUMPDEST POP DUP2 PUSH20 0xFFFFFFFFFFFFFFFFFFFFFFFFFFFFFFFFFFFFFFFF AND PUSH32 0xE6D858F14D755446648A6E0C8AB8B5A0F58CCC7920D4C910B0454E4DCD869AF0 DUP3 PUSH1 0x40 MLOAD PUSH2 0x1672 SWAP2 SWAP1 PUSH2 0x1D1B JUMP JUMPDEST PUSH1 0x40 MLOAD DUP1 SWAP2 SUB SWAP1 LOG2 POP POP JUMP JUMPDEST PUSH1 0x5 SLOAD DUP2 JUMP JUMPDEST PUSH1 0x3 PUSH0 CALLER PUSH20 0xFFFFFFFFFFFFFFFFFFFFFFFFFFFFFFFFFFFFFFFF AND PUSH20 0xFFFFFFFFFFFFFFFFFFFFFFFFFFFFFFFFFFFFFFFF AND DUP2 MSTORE PUSH1 0x20 ADD SWAP1 DUP2 MSTORE PUSH1 0x20 ADD PUSH0 KECCAK256 PUSH0 SWAP1 SLOAD SWAP1 PUSH2 0x100 EXP SWAP1 DIV PUSH1 0xFF AND PUSH2 0x170D JUMPI PUSH1 0x40 MLOAD PUSH32 0x8C379A000000000000000000000000000000000000000000000000000000000 DUP2 MSTORE PUSH1 0x4 ADD PUSH2 0x1704 SWAP1 PUSH2 0x2399 JUMP JUMPDEST PUSH1 0x40 MLOAD DUP1 SWAP2 SUB SWAP1 REVERT JUMPDEST PUSH1 0x4 PUSH1 0x1 SWAP1 SLOAD SWAP1 PUSH2 0x100 EXP SWAP1 DIV PUSH1 0xFF AND ISZERO PUSH2 0x175D JUMPI PUSH1 0x40 MLOAD PUSH32 0x8C379A000000000000000000000000000000000000000000000000000000000 DUP2 MSTORE PUSH1 0x4 ADD PUSH2 0x1754 SWAP1 PUSH2 0x2427 JUMP JUMPDEST PUSH1 0x40 MLOAD DUP1 SWAP2 SUB SWAP1 REVERT JUMPDEST PUSH1 0x4 PUSH0 SWAP1 SLOAD SWAP1 PUSH2 0x100 EXP SWAP1 DIV PUSH1 0xFF AND ISZERO PUSH2 0x17AC JUMPI PUSH1 0x40 MLOAD PUSH32 0x8C379A000000000000000000000000000000000000000000000000000000000 DUP2 MSTORE PUSH1 0x4 ADD PUSH2 0x17A3 SWAP1 PUSH2 0x251D JUMP JUMPDEST PUSH1 0x40 MLOAD DUP1 SWAP2 SUB SWAP1 REVERT JUMPDEST PUSH1 0x40 MLOAD DUP1 PUSH1 0x60 ADD PUSH1 0x40 MSTORE DUP1 DUP3 PUSH20 0xFFFFFFFFFFFFFFFFFFFFFFFFFFFFFFFFFFFFFFFF AND DUP2 MSTORE PUSH1 0x20 ADD DUP4 PUSH20 0xFFFFFFFFFFFFFFFFFFFFFFFFFFFFFFFFFFFFFFFF AND DUP2 MSTORE PUSH1 0x20 ADD PUSH0 ISZERO ISZERO DUP2 MSTORE POP PUSH1 0x7 PUSH0 CALLER PUSH20 0xFFFFFFFFFFFFFFFFFFFFFFFFFFFFFFFFFFFFFFFF AND PUSH20 0xFFFFFFFFFFFFFFFFFFFFFFFFFFFFFFFFFFFFFFFF AND DUP2 MSTORE PUSH1 0x20 ADD SWAP1 DUP2 MSTORE PUSH1 0x20 ADD PUSH0 KECCAK256 PUSH0 DUP3 ADD MLOAD DUP2 PUSH0 ADD PUSH0 PUSH2 0x100 EXP DUP2 SLOAD DUP2 PUSH20 0xFFFFFFFFFFFFFFFFFFFFFFFFFFFFFFFFFFFFFFFF MUL NOT AND SWAP1 DUP4 PUSH20 0xFFFFFFFFFFFFFFFFFFFFFFFFFFFFFFFFFFFFFFFF AND MUL OR SWAP1 SSTORE POP PUSH1 0x20 DUP3 ADD MLOAD DUP2 PUSH1 0x1 ADD PUSH0 PUSH2 0x100 EXP DUP2 SLOAD DUP2 PUSH20 0xFFFFFFFFFFFFFFFFFFFFFFFFFFFFFFFFFFFFFFFF MUL NOT AND SWAP1 DUP4 PUSH20 0xFFFFFFFFFFFFFFFFFFFFFFFFFFFFFFFFFFFFFFFF AND MUL OR SWAP1 SSTORE POP PUSH1 0x40 DUP3 ADD MLOAD DUP2 PUSH1 0x1 ADD PUSH1 0x14 PUSH2 0x100 EXP DUP2 SLOAD DUP2 PUSH1 0xFF MUL NOT AND SWAP1 DUP4 ISZERO ISZERO MUL OR SWAP1 SSTORE POP SWAP1 POP POP PUSH1 0x1 PUSH1 0x4 PUSH1 0x1 PUSH2 0x100 EXP DUP2 SLOAD DUP2 PUSH1 0xFF MUL NOT AND SWAP1 DUP4 ISZERO ISZERO MUL OR SWAP1 SSTORE POP DUP1 PUSH20 0xFFFFFFFFFFFFFFFFFFFFFFFFFFFFFFFFFFFFFFFF AND PUSH32 0xD940885AA266E9A19341BBA634F831BDE68D4D3009E14F239E32BED8DD9E4B54 DUP4 PUSH1 0x40 MLOAD PUSH2 0x1940 SWAP2 SWAP1 PUSH2 0x1ED3 JUMP JUMPDEST PUSH1 0x40 MLOAD DUP1 SWAP2 SUB SWAP1 LOG2 POP POP JUMP JUMPDEST PUSH1 0x3 PUSH0 CALLER PUSH20 0xFFFFFFFFFFFFFFFFFFFFFFFFFFFFFFFFFFFFFFFF AND PUSH20 0xFFFFFFFFFFFFFFFFFFFFFFFFFFFFFFFFFFFFFFFF AND DUP2 MSTORE PUSH1 0x20 ADD SWAP1 DUP2 MSTORE PUSH1 0x20 ADD PUSH0 KECCAK256 PUSH0 SWAP1 SLOAD SWAP1 PUSH2 0x100 EXP SWAP1 DIV PUSH1 0xFF AND PUSH2 0x19D5 JUMPI PUSH1 0x40 MLOAD PUSH32 0x8C379A000000000000000000000000000000000000000000000000000000000 DUP2 MSTORE PUSH1 0x4 ADD PUSH2 0x19CC SWAP1 PUSH2 0x2399 JUMP JUMPDEST PUSH1 0x40 MLOAD DUP1 SWAP2 SUB SWAP1 REVERT JUMPDEST PUSH1 0x4 PUSH0 SWAP1 SLOAD SWAP1 PUSH2 0x100 EXP SWAP1 DIV PUSH1 0xFF AND ISZERO PUSH2 0x1A24 JUMPI PUSH1 0x40 MLOAD PUSH32 0x8C379A000000000000000000000000000000000000000000000000000000000 DUP2 MSTORE PUSH1 0x4 ADD PUSH2 0x1A1B SWAP1 PUSH2 0x251D JUMP JUMPDEST PUSH1 0x40 MLOAD DUP1 SWAP2 SUB SWAP1 REVERT JUMPDEST PUSH1 0x4 PUSH1 0x1 SWAP1 SLOAD SWAP1 PUSH2 0x100 EXP SWAP1 DIV PUSH1 0xFF AND ISZERO PUSH2 0x1A74 JUMPI PUSH1 0x40 MLOAD PUSH32 0x8C379A000000000000000000000000000000000000000000000000000000000 DUP2 MSTORE PUSH1 0x4 ADD PUSH2 0x1A6B SWAP1 PUSH2 0x2427 JUMP JUMPDEST PUSH1 0x40 MLOAD DUP1 SWAP2 SUB SWAP1 REVERT JUMPDEST PUSH1 0x5 PUSH0 DUP2 SLOAD DUP1 SWAP3 SWAP2 SWAP1 PUSH2 0x1A86 SWAP1 PUSH2 0x27E9 JUMP JUMPDEST SWAP2 SWAP1 POP SSTORE POP PUSH1 0x40 MLOAD DUP1 PUSH1 0x60 ADD PUSH1 0x40 MSTORE DUP1 DUP3 PUSH20 0xFFFFFFFFFFFFFFFFFFFFFFFFFFFFFFFFFFFFFFFF AND DUP2 MSTORE PUSH1 0x20 ADD PUSH1 0x5 SLOAD DUP2 MSTORE PUSH1 0x20 ADD PUSH0 ISZERO ISZERO DUP2 MSTORE POP PUSH1 0x6 PUSH0 CALLER PUSH20 0xFFFFFFFFFFFFFFFFFFFFFFFFFFFFFFFFFFFFFFFF AND PUSH20 0xFFFFFFFFFFFFFFFFFFFFFFFFFFFFFFFFFFFFFFFF AND DUP2 MSTORE PUSH1 0x20 ADD SWAP1 DUP2 MSTORE PUSH1 0x20 ADD PUSH0 KECCAK256 PUSH0 DUP3 ADD MLOAD DUP2 PUSH0 ADD PUSH0 PUSH2 0x100 EXP DUP2 SLOAD DUP2 PUSH20 0xFFFFFFFFFFFFFFFFFFFFFFFFFFFFFFFFFFFFFFFF MUL NOT AND SWAP1 DUP4 PUSH20 0xFFFFFFFFFFFFFFFFFFFFFFFFFFFFFFFFFFFFFFFF AND MUL OR SWAP1 SSTORE POP PUSH1 0x20 DUP3 ADD MLOAD DUP2 PUSH1 0x1 ADD SSTORE PUSH1 0x40 DUP3 ADD MLOAD DUP2 PUSH1 0x2 ADD PUSH0 PUSH2 0x100 EXP DUP2 SLOAD DUP2 PUSH1 0xFF MUL NOT AND SWAP1 DUP4 ISZERO ISZERO MUL OR SWAP1 SSTORE POP SWAP1 POP POP PUSH1 0x1 PUSH1 0x4 PUSH0 PUSH2 0x100 EXP DUP2 SLOAD DUP2 PUSH1 0xFF MUL NOT AND SWAP1 DUP4 ISZERO ISZERO MUL OR SWAP1 SSTORE POP PUSH1 0x5 SLOAD CALLER PUSH20 0xFFFFFFFFFFFFFFFFFFFFFFFFFFFFFFFFFFFFFFFF AND PUSH32 0xE290EA2CC3CFEB5114F992DC8BE9E503DE30042C13B9298644A2679B09E17A04 DUP4 PUSH1 0x40 MLOAD PUSH2 0x1BD0 SWAP2 SWAP1 PUSH2 0x1ED3 JUMP JUMPDEST PUSH1 0x40 MLOAD DUP1 SWAP2 SUB SWAP1 LOG3 POP JUMP JUMPDEST PUSH1 0x4 PUSH0 SWAP1 SLOAD SWAP1 PUSH2 0x100 EXP SWAP1 DIV PUSH1 0xFF AND DUP2 JUMP JUMPDEST PUSH1 0x2 PUSH0 SLOAD SUB PUSH2 0x1C28 JUMPI PUSH1 0x40 MLOAD PUSH32 0x3EE5AEB500000000000000000000000000000000000000000000000000000000 DUP2 MSTORE PUSH1 0x4 ADD PUSH1 0x40 MLOAD DUP1 SWAP2 SUB SWAP1 REVERT JUMPDEST PUSH1 0x2 PUSH0 DUP2 SWAP1 SSTORE POP JUMP JUMPDEST PUSH1 0x1 PUSH0 DUP2 SWAP1 SSTORE POP JUMP JUMPDEST PUSH0 PUSH1 0x40 MLOAD SWAP1 POP SWAP1 JUMP JUMPDEST PUSH0 DUP1 REVERT JUMPDEST PUSH0 DUP1 REVERT JUMPDEST PUSH0 PUSH20 0xFFFFFFFFFFFFFFFFFFFFFFFFFFFFFFFFFFFFFFFF DUP3 AND SWAP1 POP SWAP2 SWAP1 POP JUMP JUMPDEST PUSH0 PUSH2 0x1C74 DUP3 PUSH2 0x1C4B JUMP JUMPDEST SWAP1 POP SWAP2 SWAP1 POP JUMP JUMPDEST PUSH2 0x1C84 DUP2 PUSH2 0x1C6A JUMP JUMPDEST DUP2 EQ PUSH2 0x1C8E JUMPI PUSH0 DUP1 REVERT JUMPDEST POP JUMP JUMPDEST PUSH0 DUP2 CALLDATALOAD SWAP1 POP PUSH2 0x1C9F DUP2 PUSH2 0x1C7B JUMP JUMPDEST SWAP3 SWAP2 POP POP JUMP JUMPDEST PUSH0 PUSH1 0x20 DUP3 DUP5 SUB SLT ISZERO PUSH2 0x1CBA JUMPI PUSH2 0x1CB9 PUSH2 0x1C43 JUMP JUMPDEST JUMPDEST PUSH0 PUSH2 0x1CC7 DUP5 DUP3 DUP6 ADD PUSH2 0x1C91 JUMP JUMPDEST SWAP2 POP POP SWAP3 SWAP2 POP POP JUMP JUMPDEST PUSH0 DUP2 ISZERO ISZERO SWAP1 POP SWAP2 SWAP1 POP JUMP JUMPDEST PUSH2 0x1CE4 DUP2 PUSH2 0x1CD0 JUMP JUMPDEST DUP3 MSTORE POP POP JUMP JUMPDEST PUSH0 PUSH1 0x20 DUP3 ADD SWAP1 POP PUSH2 0x1CFD PUSH0 DUP4 ADD DUP5 PUSH2 0x1CDB JUMP JUMPDEST SWAP3 SWAP2 POP POP JUMP JUMPDEST PUSH0 DUP2 SWAP1 POP SWAP2 SWAP1 POP JUMP JUMPDEST PUSH2 0x1D15 DUP2 PUSH2 0x1D03 JUMP JUMPDEST DUP3 MSTORE POP POP JUMP JUMPDEST PUSH0 PUSH1 0x20 DUP3 ADD SWAP1 POP PUSH2 0x1D2E PUSH0 DUP4 ADD DUP5 PUSH2 0x1D0C JUMP JUMPDEST SWAP3 SWAP2 POP POP JUMP JUMPDEST PUSH2 0x1D3D DUP2 PUSH2 0x1D03 JUMP JUMPDEST DUP2 EQ PUSH2 0x1D47 JUMPI PUSH0 DUP1 REVERT JUMPDEST POP JUMP JUMPDEST PUSH0 DUP2 CALLDATALOAD SWAP1 POP PUSH2 0x1D58 DUP2 PUSH2 0x1D34 JUMP JUMPDEST SWAP3 SWAP2 POP POP JUMP JUMPDEST PUSH0 DUP1 PUSH1 0x40 DUP4 DUP6 SUB SLT ISZERO PUSH2 0x1D74 JUMPI PUSH2 0x1D73 PUSH2 0x1C43 JUMP JUMPDEST JUMPDEST PUSH0 PUSH2 0x1D81 DUP6 DUP3 DUP7 ADD PUSH2 0x1C91 JUMP JUMPDEST SWAP3 POP POP PUSH1 0x20 PUSH2 0x1D92 DUP6 DUP3 DUP7 ADD PUSH2 0x1D4A JUMP JUMPDEST SWAP2 POP POP SWAP3 POP SWAP3 SWAP1 POP JUMP JUMPDEST PUSH2 0x1DA5 DUP2 PUSH2 0x1C6A JUMP JUMPDEST DUP3 MSTORE POP POP JUMP JUMPDEST PUSH0 PUSH1 0x60 DUP3 ADD SWAP1 POP PUSH2 0x1DBE PUSH0 DUP4 ADD DUP7 PUSH2 0x1D9C JUMP JUMPDEST PUSH2 0x1DCB PUSH1 0x20 DUP4 ADD DUP6 PUSH2 0x1D9C JUMP JUMPDEST PUSH2 0x1DD8 PUSH1 0x40 DUP4 ADD DUP5 PUSH2 0x1CDB JUMP JUMPDEST SWAP5 SWAP4 POP POP POP POP JUMP JUMPDEST PUSH0 PUSH1 0x60 DUP3 ADD SWAP1 POP PUSH2 0x1DF3 PUSH0 DUP4 ADD DUP7 PUSH2 0x1D9C JUMP JUMPDEST PUSH2 0x1E00 PUSH1 0x20 DUP4 ADD DUP6 PUSH2 0x1D0C JUMP JUMPDEST PUSH2 0x1E0D PUSH1 0x40 DUP4 ADD DUP5 PUSH2 0x1CDB JUMP JUMPDEST SWAP5 SWAP4 POP POP POP POP JUMP JUMPDEST PUSH0 DUP1 REVERT JUMPDEST PUSH0 DUP1 REVERT JUMPDEST PUSH0 DUP1 REVERT JUMPDEST PUSH0 DUP1 DUP4 PUSH1 0x1F DUP5 ADD SLT PUSH2 0x1E36 JUMPI PUSH2 0x1E35 PUSH2 0x1E15 JUMP JUMPDEST JUMPDEST DUP3 CALLDATALOAD SWAP1 POP PUSH8 0xFFFFFFFFFFFFFFFF DUP2 GT ISZERO PUSH2 0x1E53 JUMPI PUSH2 0x1E52 PUSH2 0x1E19 JUMP JUMPDEST JUMPDEST PUSH1 0x20 DUP4 ADD SWAP2 POP DUP4 PUSH1 0x20 DUP3 MUL DUP4 ADD GT ISZERO PUSH2 0x1E6F JUMPI PUSH2 0x1E6E PUSH2 0x1E1D JUMP JUMPDEST JUMPDEST SWAP3 POP SWAP3 SWAP1 POP JUMP JUMPDEST PUSH0 DUP1 PUSH0 PUSH1 0x40 DUP5 DUP7 SUB SLT ISZERO PUSH2 0x1E8D JUMPI PUSH2 0x1E8C PUSH2 0x1C43 JUMP JUMPDEST JUMPDEST PUSH0 PUSH2 0x1E9A DUP7 DUP3 DUP8 ADD PUSH2 0x1C91 JUMP JUMPDEST SWAP4 POP POP PUSH1 0x20 DUP5 ADD CALLDATALOAD PUSH8 0xFFFFFFFFFFFFFFFF DUP2 GT ISZERO PUSH2 0x1EBB JUMPI PUSH2 0x1EBA PUSH2 0x1C47 JUMP JUMPDEST JUMPDEST PUSH2 0x1EC7 DUP7 DUP3 DUP8 ADD PUSH2 0x1E21 JUMP JUMPDEST SWAP3 POP SWAP3 POP POP SWAP3 POP SWAP3 POP SWAP3 JUMP JUMPDEST PUSH0 PUSH1 0x20 DUP3 ADD SWAP1 POP PUSH2 0x1EE6 PUSH0 DUP4 ADD DUP5 PUSH2 0x1D9C JUMP JUMPDEST SWAP3 SWAP2 POP POP JUMP JUMPDEST PUSH0 DUP1 REVERT JUMPDEST PUSH0 PUSH1 0x1F NOT PUSH1 0x1F DUP4 ADD AND SWAP1 POP SWAP2 SWAP1 POP JUMP JUMPDEST PUSH32 0x4E487B7100000000000000000000000000000000000000000000000000000000 PUSH0 MSTORE PUSH1 0x41 PUSH1 0x4 MSTORE PUSH1 0x24 PUSH0 REVERT JUMPDEST PUSH2 0x1F36 DUP3 PUSH2 0x1EF0 JUMP JUMPDEST DUP2 ADD DUP2 DUP2 LT PUSH8 0xFFFFFFFFFFFFFFFF DUP3 GT OR ISZERO PUSH2 0x1F55 JUMPI PUSH2 0x1F54 PUSH2 0x1F00 JUMP JUMPDEST JUMPDEST DUP1 PUSH1 0x40 MSTORE POP POP POP JUMP JUMPDEST PUSH0 PUSH2 0x1F67 PUSH2 0x1C3A JUMP JUMPDEST SWAP1 POP PUSH2 0x1F73 DUP3 DUP3 PUSH2 0x1F2D JUMP JUMPDEST SWAP2 SWAP1 POP JUMP JUMPDEST PUSH0 PUSH8 0xFFFFFFFFFFFFFFFF DUP3 GT ISZERO PUSH2 0x1F92 JUMPI PUSH2 0x1F91 PUSH2 0x1F00 JUMP JUMPDEST JUMPDEST PUSH2 0x1F9B DUP3 PUSH2 0x1EF0 JUMP JUMPDEST SWAP1 POP PUSH1 0x20 DUP2 ADD SWAP1 POP SWAP2 SWAP1 POP JUMP JUMPDEST DUP3 DUP2 DUP4 CALLDATACOPY PUSH0 DUP4 DUP4 ADD MSTORE POP POP POP JUMP JUMPDEST PUSH0 PUSH2 0x1FC8 PUSH2 0x1FC3 DUP5 PUSH2 0x1F78 JUMP JUMPDEST PUSH2 0x1F5E JUMP JUMPDEST SWAP1 POP DUP3 DUP2 MSTORE PUSH1 0x20 DUP2 ADD DUP5 DUP5 DUP5 ADD GT ISZERO PUSH2 0x1FE4 JUMPI PUSH2 0x1FE3 PUSH2 0x1EEC JUMP JUMPDEST JUMPDEST PUSH2 0x1FEF DUP5 DUP3 DUP6 PUSH2 0x1FA8 JUMP JUMPDEST POP SWAP4 SWAP3 POP POP POP JUMP JUMPDEST PUSH0 DUP3 PUSH1 0x1F DUP4 ADD SLT PUSH2 0x200B JUMPI PUSH2 0x200A PUSH2 0x1E15 JUMP JUMPDEST JUMPDEST DUP2 CALLDATALOAD PUSH2 0x201B DUP5 DUP3 PUSH1 0x20 DUP7 ADD PUSH2 0x1FB6 JUMP JUMPDEST SWAP2 POP POP SWAP3 SWAP2 POP POP JUMP JUMPDEST PUSH0 DUP1 PUSH0 PUSH1 0x60 DUP5 DUP7 SUB SLT ISZERO PUSH2 0x203B JUMPI PUSH2 0x203A PUSH2 0x1C43 JUMP JUMPDEST JUMPDEST PUSH0 PUSH2 0x2048 DUP7 DUP3 DUP8 ADD PUSH2 0x1C91 JUMP JUMPDEST SWAP4 POP POP PUSH1 0x20 PUSH2 0x2059 DUP7 DUP3 DUP8 ADD PUSH2 0x1D4A JUMP JUMPDEST SWAP3 POP POP PUSH1 0x40 DUP5 ADD CALLDATALOAD PUSH8 0xFFFFFFFFFFFFFFFF DUP2 GT ISZERO PUSH2 0x207A JUMPI PUSH2 0x2079 PUSH2 0x1C47 JUMP JUMPDEST JUMPDEST PUSH2 0x2086 DUP7 DUP3 DUP8 ADD PUSH2 0x1FF7 JUMP JUMPDEST SWAP2 POP POP SWAP3 POP SWAP3 POP SWAP3 JUMP JUMPDEST PUSH0 DUP2 MLOAD SWAP1 POP SWAP2 SWAP1 POP JUMP JUMPDEST PUSH0 DUP3 DUP3 MSTORE PUSH1 0x20 DUP3 ADD SWAP1 POP SWAP3 SWAP2 POP POP JUMP JUMPDEST PUSH0 JUMPDEST DUP4 DUP2 LT ISZERO PUSH2 0x20C7 JUMPI DUP1 DUP3 ADD MLOAD DUP2 DUP5 ADD MSTORE PUSH1 0x20 DUP2 ADD SWAP1 POP PUSH2 0x20AC JUMP JUMPDEST PUSH0 DUP5 DUP5 ADD MSTORE POP POP POP POP JUMP JUMPDEST PUSH0 PUSH2 0x20DC DUP3 PUSH2 0x2090 JUMP JUMPDEST PUSH2 0x20E6 DUP2 DUP6 PUSH2 0x209A JUMP JUMPDEST SWAP4 POP PUSH2 0x20F6 DUP2 DUP6 PUSH1 0x20 DUP7 ADD PUSH2 0x20AA JUMP JUMPDEST PUSH2 0x20FF DUP2 PUSH2 0x1EF0 JUMP JUMPDEST DUP5 ADD SWAP2 POP POP SWAP3 SWAP2 POP POP JUMP JUMPDEST PUSH0 PUSH1 0x20 DUP3 ADD SWAP1 POP DUP2 DUP2 SUB PUSH0 DUP4 ADD MSTORE PUSH2 0x2122 DUP2 DUP5 PUSH2 0x20D2 JUMP JUMPDEST SWAP1 POP SWAP3 SWAP2 POP POP JUMP JUMPDEST PUSH0 PUSH2 0x2134 DUP3 PUSH2 0x1C4B JUMP JUMPDEST SWAP1 POP SWAP2 SWAP1 POP JUMP JUMPDEST PUSH2 0x2144 DUP2 PUSH2 0x212A JUMP JUMPDEST DUP2 EQ PUSH2 0x214E JUMPI PUSH0 DUP1 REVERT JUMPDEST POP JUMP JUMPDEST PUSH0 DUP2 CALLDATALOAD SWAP1 POP PUSH2 0x215F DUP2 PUSH2 0x213B JUMP JUMPDEST SWAP3 SWAP2 POP POP JUMP JUMPDEST PUSH0 DUP1 PUSH1 0x40 DUP4 DUP6 SUB SLT ISZERO PUSH2 0x217B JUMPI PUSH2 0x217A PUSH2 0x1C43 JUMP JUMPDEST JUMPDEST PUSH0 PUSH2 0x2188 DUP6 DUP3 DUP7 ADD PUSH2 0x2151 JUMP JUMPDEST SWAP3 POP POP PUSH1 0x20 PUSH2 0x2199 DUP6 DUP3 DUP7 ADD PUSH2 0x1D4A JUMP JUMPDEST SWAP2 POP POP SWAP3 POP SWAP3 SWAP1 POP JUMP JUMPDEST PUSH0 DUP1 PUSH1 0x40 DUP4 DUP6 SUB SLT ISZERO PUSH2 0x21B9 JUMPI PUSH2 0x21B8 PUSH2 0x1C43 JUMP JUMPDEST JUMPDEST PUSH0 PUSH2 0x21C6 DUP6 DUP3 DUP7 ADD PUSH2 0x1C91 JUMP JUMPDEST SWAP3 POP POP PUSH1 0x20 PUSH2 0x21D7 DUP6 DUP3 DUP7 ADD PUSH2 0x1C91 JUMP JUMPDEST SWAP2 POP POP SWAP3 POP SWAP3 SWAP1 POP JUMP JUMPDEST PUSH0 DUP3 DUP3 MSTORE PUSH1 0x20 DUP3 ADD SWAP1 POP SWAP3 SWAP2 POP POP JUMP JUMPDEST PUSH32 0x4E6F7420417574686F72697A6564000000000000000000000000000000000000 PUSH0 DUP3 ADD MSTORE POP JUMP JUMPDEST PUSH0 PUSH2 0x2225 PUSH1 0xE DUP4 PUSH2 0x21E1 JUMP JUMPDEST SWAP2 POP PUSH2 0x2230 DUP3 PUSH2 0x21F1 JUMP JUMPDEST PUSH1 0x20 DUP3 ADD SWAP1 POP SWAP2 SWAP1 POP JUMP JUMPDEST PUSH0 PUSH1 0x20 DUP3 ADD SWAP1 POP DUP2 DUP2 SUB PUSH0 DUP4 ADD MSTORE PUSH2 0x2252 DUP2 PUSH2 0x2219 JUMP JUMPDEST SWAP1 POP SWAP2 SWAP1 POP JUMP JUMPDEST PUSH32 0x57616C6C6574206973206E6F7420696E205265636F76657279206D6F64650000 PUSH0 DUP3 ADD MSTORE POP JUMP JUMPDEST PUSH0 PUSH2 0x228D PUSH1 0x1E DUP4 PUSH2 0x21E1 JUMP JUMPDEST SWAP2 POP PUSH2 0x2298 DUP3 PUSH2 0x2259 JUMP JUMPDEST PUSH1 0x20 DUP3 ADD SWAP1 POP SWAP2 SWAP1 POP JUMP JUMPDEST PUSH0 PUSH1 0x20 DUP3 ADD SWAP1 POP DUP2 DUP2 SUB PUSH0 DUP4 ADD MSTORE PUSH2 0x22BA DUP2 PUSH2 0x2281 JUMP JUMPDEST SWAP1 POP SWAP2 SWAP1 POP JUMP JUMPDEST PUSH32 0x6E6F74206120677561726469616E000000000000000000000000000000000000 PUSH0 DUP3 ADD MSTORE POP JUMP JUMPDEST PUSH0 PUSH2 0x22F5 PUSH1 0xE DUP4 PUSH2 0x21E1 JUMP JUMPDEST SWAP2 POP PUSH2 0x2300 DUP3 PUSH2 0x22C1 JUMP JUMPDEST PUSH1 0x20 DUP3 ADD SWAP1 POP SWAP2 SWAP1 POP JUMP JUMPDEST PUSH0 PUSH1 0x20 DUP3 ADD SWAP1 POP DUP2 DUP2 SUB PUSH0 DUP4 ADD MSTORE PUSH2 0x2322 DUP2 PUSH2 0x22E9 JUMP JUMPDEST SWAP1 POP SWAP2 SWAP1 POP JUMP JUMPDEST PUSH32 0x4F6E6C7920477561726469616E206861732061636365737320746F2074686973 PUSH0 DUP3 ADD MSTORE PUSH32 0x2072657175657374000000000000000000000000000000000000000000000000 PUSH1 0x20 DUP3 ADD MSTORE POP JUMP JUMPDEST PUSH0 PUSH2 0x2383 PUSH1 0x28 DUP4 PUSH2 0x21E1 JUMP JUMPDEST SWAP2 POP PUSH2 0x238E DUP3 PUSH2 0x2329 JUMP JUMPDEST PUSH1 0x40 DUP3 ADD SWAP1 POP SWAP2 SWAP1 POP JUMP JUMPDEST PUSH0 PUSH1 0x20 DUP3 ADD SWAP1 POP DUP2 DUP2 SUB PUSH0 DUP4 ADD MSTORE PUSH2 0x23B0 DUP2 PUSH2 0x2377 JUMP JUMPDEST SWAP1 POP SWAP2 SWAP1 POP JUMP JUMPDEST PUSH32 0x4578697374696E6720477561726469616E204368616E67652052657175657374 PUSH0 DUP3 ADD MSTORE PUSH32 0x20666F756E640000000000000000000000000000000000000000000000000000 PUSH1 0x20 DUP3 ADD MSTORE POP JUMP JUMPDEST PUSH0 PUSH2 0x2411 PUSH1 0x26 DUP4 PUSH2 0x21E1 JUMP JUMPDEST SWAP2 POP PUSH2 0x241C DUP3 PUSH2 0x23B7 JUMP JUMPDEST PUSH1 0x40 DUP3 ADD SWAP1 POP SWAP2 SWAP1 POP JUMP JUMPDEST PUSH0 PUSH1 0x20 DUP3 ADD SWAP1 POP DUP2 DUP2 SUB PUSH0 DUP4 ADD MSTORE PUSH2 0x243E DUP2 PUSH2 0x2405 JUMP JUMPDEST SWAP1 POP SWAP2 SWAP1 POP JUMP JUMPDEST PUSH32 0x4E6F2043757272656E7420477561726469616E205265717565737420666F756E PUSH0 DUP3 ADD MSTORE PUSH32 0x6400000000000000000000000000000000000000000000000000000000000000 PUSH1 0x20 DUP3 ADD MSTORE POP JUMP JUMPDEST PUSH0 PUSH2 0x249F PUSH1 0x21 DUP4 PUSH2 0x21E1 JUMP JUMPDEST SWAP2 POP PUSH2 0x24AA DUP3 PUSH2 0x2445 JUMP JUMPDEST PUSH1 0x40 DUP3 ADD SWAP1 POP SWAP2 SWAP1 POP JUMP JUMPDEST PUSH0 PUSH1 0x20 DUP3 ADD SWAP1 POP DUP2 DUP2 SUB PUSH0 DUP4 ADD MSTORE PUSH2 0x24CC DUP2 PUSH2 0x2493 JUMP JUMPDEST SWAP1 POP SWAP2 SWAP1 POP JUMP JUMPDEST PUSH32 0x57616C6C657420697320696E205265636F76657279206D6F6465000000000000 PUSH0 DUP3 ADD MSTORE POP JUMP JUMPDEST PUSH0 PUSH2 0x2507 PUSH1 0x1A DUP4 PUSH2 0x21E1 JUMP JUMPDEST SWAP2 POP PUSH2 0x2512 DUP3 PUSH2 0x24D3 JUMP JUMPDEST PUSH1 0x20 DUP3 ADD SWAP1 POP SWAP2 SWAP1 POP JUMP JUMPDEST PUSH0 PUSH1 0x20 DUP3 ADD SWAP1 POP DUP2 DUP2 SUB PUSH0 DUP4 ADD MSTORE PUSH2 0x2534 DUP2 PUSH2 0x24FB JUMP JUMPDEST SWAP1 POP SWAP2 SWAP1 POP JUMP JUMPDEST PUSH32 0x477561726469616E205265717565737420697320616C72656164792055736564 PUSH0 DUP3 ADD MSTORE POP JUMP JUMPDEST PUSH0 PUSH2 0x256F PUSH1 0x20 DUP4 PUSH2 0x21E1 JUMP JUMPDEST SWAP2 POP PUSH2 0x257A DUP3 PUSH2 0x253B JUMP JUMPDEST PUSH1 0x20 DUP3 ADD SWAP1 POP SWAP2 SWAP1 POP JUMP JUMPDEST PUSH0 PUSH1 0x20 DUP3 ADD SWAP1 POP DUP2 DUP2 SUB PUSH0 DUP4 ADD MSTORE PUSH2 0x259C DUP2 PUSH2 0x2563 JUMP JUMPDEST SWAP1 POP SWAP2 SWAP1 POP JUMP JUMPDEST PUSH32 0x6D6F726520677561726469616E7320726571756972656420746F207472616E73 PUSH0 DUP3 ADD MSTORE PUSH32 0x666572206F776E65727368697000000000000000000000000000000000000000 PUSH1 0x20 DUP3 ADD MSTORE POP JUMP JUMPDEST PUSH0 PUSH2 0x25FD PUSH1 0x2D DUP4 PUSH2 0x21E1 JUMP JUMPDEST SWAP2 POP PUSH2 0x2608 DUP3 PUSH2 0x25A3 JUMP JUMPDEST PUSH1 0x40 DUP3 ADD SWAP1 POP SWAP2 SWAP1 POP JUMP JUMPDEST PUSH0 PUSH1 0x20 DUP3 ADD SWAP1 POP DUP2 DUP2 SUB PUSH0 DUP4 ADD MSTORE PUSH2 0x262A DUP2 PUSH2 0x25F1 JUMP JUMPDEST SWAP1 POP SWAP2 SWAP1 POP JUMP JUMPDEST PUSH32 0x4E487B7100000000000000000000000000000000000000000000000000000000 PUSH0 MSTORE PUSH1 0x32 PUSH1 0x4 MSTORE PUSH1 0x24 PUSH0 REVERT JUMPDEST PUSH32 0x726F756E64206D69736D61746368000000000000000000000000000000000000 PUSH0 DUP3 ADD MSTORE POP JUMP JUMPDEST PUSH0 PUSH2 0x2692 PUSH1 0xE DUP4 PUSH2 0x21E1 JUMP JUMPDEST SWAP2 POP PUSH2 0x269D DUP3 PUSH2 0x265E JUMP JUMPDEST PUSH1 0x20 DUP3 ADD SWAP1 POP SWAP2 SWAP1 POP JUMP JUMPDEST PUSH0 PUSH1 0x20 DUP3 ADD SWAP1 POP DUP2 DUP2 SUB PUSH0 DUP4 ADD MSTORE PUSH2 0x26BF DUP2 PUSH2 0x2686 JUMP JUMPDEST SWAP1 POP SWAP2 SWAP1 POP JUMP JUMPDEST PUSH32 0x64697361677265656D656E74206F6E206E6577206F776E657200000000000000 PUSH0 DUP3 ADD MSTORE POP JUMP JUMPDEST PUSH0 PUSH2 0x26FA PUSH1 0x19 DUP4 PUSH2 0x21E1 JUMP JUMPDEST SWAP2 POP PUSH2 0x2705 DUP3 PUSH2 0x26C6 JUMP JUMPDEST PUSH1 0x20 DUP3 ADD SWAP1 POP SWAP2 SWAP1 POP JUMP JUMPDEST PUSH0 PUSH1 0x20 DUP3 ADD SWAP1 POP DUP2 DUP2 SUB PUSH0 DUP4 ADD MSTORE PUSH2 0x2727 DUP2 PUSH2 0x26EE JUMP JUMPDEST SWAP1 POP SWAP2 SWAP1 POP JUMP JUMPDEST PUSH32 0x6475706C696361746520677561726469616E207573656420696E207265636F76 PUSH0 DUP3 ADD MSTORE PUSH32 0x6572790000000000000000000000000000000000000000000000000000000000 PUSH1 0x20 DUP3 ADD MSTORE POP JUMP JUMPDEST PUSH0 PUSH2 0x2788 PUSH1 0x23 DUP4 PUSH2 0x21E1 JUMP JUMPDEST SWAP2 POP PUSH2 0x2793 DUP3 PUSH2 0x272E JUMP JUMPDEST PUSH1 0x40 DUP3 ADD SWAP1 POP SWAP2 SWAP1 POP JUMP JUMPDEST PUSH0 PUSH1 0x20 DUP3 ADD SWAP1 POP DUP2 DUP2 SUB PUSH0 DUP4 ADD MSTORE PUSH2 0x27B5 DUP2 PUSH2 0x277C JUMP JUMPDEST SWAP1 POP SWAP2 SWAP1 POP JUMP JUMPDEST PUSH32 0x4E487B7100000000000000000000000000000000000000000000000000000000 PUSH0 MSTORE PUSH1 0x11 PUSH1 0x4 MSTORE PUSH1 0x24 PUSH0 REVERT JUMPDEST PUSH0 PUSH2 0x27F3 DUP3 PUSH2 0x1D03 JUMP JUMPDEST SWAP2 POP PUSH32 0xFFFFFFFFFFFFFFFFFFFFFFFFFFFFFFFFFFFFFFFFFFFFFFFFFFFFFFFFFFFFFFFF DUP3 SUB PUSH2 0x2825 JUMPI PUSH2 0x2824 PUSH2 0x27BC JUMP JUMPDEST JUMPDEST PUSH1 0x1 DUP3 ADD SWAP1 POP SWAP2 SWAP1 POP JUMP JUMPDEST PUSH0 PUSH1 0x40 DUP3 ADD SWAP1 POP PUSH2 0x2843 PUSH0 DUP4 ADD DUP6 PUSH2 0x1D9C JUMP JUMPDEST PUSH2 0x2850 PUSH1 0x20 DUP4 ADD DUP5 PUSH2 0x1D9C JUMP JUMPDEST SWAP4 SWAP3 POP POP POP JUMP JUMPDEST PUSH0 DUP2 SWAP1 POP SWAP3 SWAP2 POP POP JUMP JUMPDEST PUSH0 PUSH2 0x286B DUP3 PUSH2 0x2090 JUMP JUMPDEST PUSH2 0x2875 DUP2 DUP6 PUSH2 0x2857 JUMP JUMPDEST SWAP4 POP PUSH2 0x2885 DUP2 DUP6 PUSH1 0x20 DUP7 ADD PUSH2 0x20AA JUMP JUMPDEST DUP1 DUP5 ADD SWAP2 POP POP SWAP3 SWAP2 POP POP JUMP JUMPDEST PUSH0 PUSH2 0x289C DUP3 DUP5 PUSH2 0x2861 JUMP JUMPDEST SWAP2 POP DUP2 SWAP1 POP SWAP3 SWAP2 POP POP JUMP JUMPDEST PUSH32 0x436F6E74726163742043616C6C20526576657274656400000000000000000000 PUSH0 DUP3 ADD MSTORE POP JUMP JUMPDEST PUSH0 PUSH2 0x28DB PUSH1 0x16 DUP4 PUSH2 0x21E1 JUMP JUMPDEST SWAP2 POP PUSH2 0x28E6 DUP3 PUSH2 0x28A7 JUMP JUMPDEST PUSH1 0x20 DUP3 ADD SWAP1 POP SWAP2 SWAP1 POP JUMP JUMPDEST PUSH0 PUSH1 0x20 DUP3 ADD SWAP1 POP DUP2 DUP2 SUB PUSH0 DUP4 ADD MSTORE PUSH2 0x2908 DUP2 PUSH2 0x28CF JUMP JUMPDEST SWAP1 POP SWAP2 SWAP1 POP JUMP JUMPDEST PUSH0 PUSH1 0x40 DUP3 ADD SWAP1 POP PUSH2 0x2922 PUSH0 DUP4 ADD DUP6 PUSH2 0x1D0C JUMP JUMPDEST DUP2 DUP2 SUB PUSH1 0x20 DUP4 ADD MSTORE PUSH2 0x2934 DUP2 DUP5 PUSH2 0x20D2 JUMP JUMPDEST SWAP1 POP SWAP4 SWAP3 POP POP POP JUMP INVALID LOG2 PUSH5 0x6970667358 0x22 SLT KECCAK256 SWAP15 0xA9 MSTORE8 SWAP2 PC 0xAB SWAP13 NUMBER 0xFC 0xCC LOG4 0x4F SAR TIMESTAMP PUSH27 0x9FF1FE9CE0F97779E219590BA6BF5A600E64736F6C634300081400 CALLER "
				},
				"gasEstimates": {
					"creation": {
						"codeDepositCost": "2122200",
						"executionCost": "infinite",
						"totalCost": "infinite"
					},
					"external": {
						"cancelGuardianshipTransfer()": "32332",
						"cancelRecovery()": "32466",
						"currRecoveryRound()": "2469",
						"executeGuardianRemoval(address,uint256)": "infinite",
						"executeGuardianshipTransfer(address)": "infinite",
						"executeRecovery(address,address[])": "infinite",
						"executeTx(address,uint256,bytes)": "infinite",
						"getBalance()": "402",
						"guardianChangeRequest(address)": "infinite",
						"guardianRecoveryRequest(address)": "infinite",
						"inGuardianRequest()": "2606",
						"inRecovery()": "2576",
						"initiateRecovery(address)": "infinite",
						"isGuardian(address)": "2879",
						"owner()": "2553",
						"supportRecovery(address)": "infinite",
						"threshold()": "2492",
						"transfer(address,uint256)": "infinite",
						"transferGuardianship(address,address)": "infinite"
					}
				},
				"methodIdentifiers": {
					"cancelGuardianshipTransfer()": "a7b65d10",
					"cancelRecovery()": "0ba234d6",
					"currRecoveryRound()": "ace7c993",
					"executeGuardianRemoval(address,uint256)": "16cfcee8",
					"executeGuardianshipTransfer(address)": "5db0db7c",
					"executeRecovery(address,address[])": "5fc489a7",
					"executeTx(address,uint256,bytes)": "912365ea",
					"getBalance()": "12065fe0",
					"guardianChangeRequest(address)": "1e969523",
					"guardianRecoveryRequest(address)": "371bbdc1",
					"inGuardianRequest()": "a643e812",
					"inRecovery()": "f05151df",
					"initiateRecovery(address)": "d5ce9aad",
					"isGuardian(address)": "0c68ba21",
					"owner()": "8da5cb5b",
					"supportRecovery(address)": "57e685bc",
					"threshold()": "42cde4e8",
					"transfer(address,uint256)": "a9059cbb",
					"transferGuardianship(address,address)": "d3582164"
				}
			},
			"storageLayout": {
				"storage": [
					{
						"astId": 627,
						"contract": "contracts/BanklessWallet.sol:BanklessWallet",
						"label": "_status",
						"offset": 0,
						"slot": "0",
						"type": "t_uint256"
					},
					{
						"astId": 6,
						"contract": "contracts/BanklessWallet.sol:BanklessWallet",
						"label": "owner",
						"offset": 0,
						"slot": "1",
						"type": "t_address"
					},
					{
						"astId": 8,
						"contract": "contracts/BanklessWallet.sol:BanklessWallet",
						"label": "threshold",
						"offset": 0,
						"slot": "2",
						"type": "t_uint256"
					},
					{
						"astId": 12,
						"contract": "contracts/BanklessWallet.sol:BanklessWallet",
						"label": "isGuardian",
						"offset": 0,
						"slot": "3",
						"type": "t_mapping(t_address,t_bool)"
					},
					{
						"astId": 14,
						"contract": "contracts/BanklessWallet.sol:BanklessWallet",
						"label": "inRecovery",
						"offset": 0,
						"slot": "4",
						"type": "t_bool"
					},
					{
						"astId": 16,
						"contract": "contracts/BanklessWallet.sol:BanklessWallet",
						"label": "inGuardianRequest",
						"offset": 1,
						"slot": "4",
						"type": "t_bool"
					},
					{
						"astId": 18,
						"contract": "contracts/BanklessWallet.sol:BanklessWallet",
						"label": "currRecoveryRound",
						"offset": 0,
						"slot": "5",
						"type": "t_uint256"
					},
					{
						"astId": 30,
						"contract": "contracts/BanklessWallet.sol:BanklessWallet",
						"label": "guardianRecoveryRequest",
						"offset": 0,
						"slot": "6",
						"type": "t_mapping(t_address,t_struct(RecoveryRequest)25_storage)"
					},
					{
						"astId": 42,
						"contract": "contracts/BanklessWallet.sol:BanklessWallet",
						"label": "guardianChangeRequest",
						"offset": 0,
						"slot": "7",
						"type": "t_mapping(t_address,t_struct(GuardianRequest)37_storage)"
					}
				],
				"types": {
					"t_address": {
						"encoding": "inplace",
						"label": "address",
						"numberOfBytes": "20"
					},
					"t_bool": {
						"encoding": "inplace",
						"label": "bool",
						"numberOfBytes": "1"
					},
					"t_mapping(t_address,t_bool)": {
						"encoding": "mapping",
						"key": "t_address",
						"label": "mapping(address => bool)",
						"numberOfBytes": "32",
						"value": "t_bool"
					},
					"t_mapping(t_address,t_struct(GuardianRequest)37_storage)": {
						"encoding": "mapping",
						"key": "t_address",
						"label": "mapping(address => struct BanklessWallet.GuardianRequest)",
						"numberOfBytes": "32",
						"value": "t_struct(GuardianRequest)37_storage"
					},
					"t_mapping(t_address,t_struct(RecoveryRequest)25_storage)": {
						"encoding": "mapping",
						"key": "t_address",
						"label": "mapping(address => struct BanklessWallet.RecoveryRequest)",
						"numberOfBytes": "32",
						"value": "t_struct(RecoveryRequest)25_storage"
					},
					"t_struct(GuardianRequest)37_storage": {
						"encoding": "inplace",
						"label": "struct BanklessWallet.GuardianRequest",
						"members": [
							{
								"astId": 32,
								"contract": "contracts/BanklessWallet.sol:BanklessWallet",
								"label": "proposedGuardian",
								"offset": 0,
								"slot": "0",
								"type": "t_address"
							},
							{
								"astId": 34,
								"contract": "contracts/BanklessWallet.sol:BanklessWallet",
								"label": "guardianToChange",
								"offset": 0,
								"slot": "1",
								"type": "t_address"
							},
							{
								"astId": 36,
								"contract": "contracts/BanklessWallet.sol:BanklessWallet",
								"label": "isUsed",
								"offset": 20,
								"slot": "1",
								"type": "t_bool"
							}
						],
						"numberOfBytes": "64"
					},
					"t_struct(RecoveryRequest)25_storage": {
						"encoding": "inplace",
						"label": "struct BanklessWallet.RecoveryRequest",
						"members": [
							{
								"astId": 20,
								"contract": "contracts/BanklessWallet.sol:BanklessWallet",
								"label": "proposedOwner",
								"offset": 0,
								"slot": "0",
								"type": "t_address"
							},
							{
								"astId": 22,
								"contract": "contracts/BanklessWallet.sol:BanklessWallet",
								"label": "recoveryRound",
								"offset": 0,
								"slot": "1",
								"type": "t_uint256"
							},
							{
								"astId": 24,
								"contract": "contracts/BanklessWallet.sol:BanklessWallet",
								"label": "isUsed",
								"offset": 0,
								"slot": "2",
								"type": "t_bool"
							}
						],
						"numberOfBytes": "96"
					},
					"t_uint256": {
						"encoding": "inplace",
						"label": "uint256",
						"numberOfBytes": "32"
					}
				}
			},
			"userdoc": {
				"kind": "user",
				"methods": {},
				"version": 1
			}
		}
	}
}