{
	"contracts/BanklessWallet.sol": {
		"BanklessWallet": {
			"abi": [
				{
					"inputs": [
						{
							"internalType": "bytes32[]",
							"name": "guardianAddrHashes",
							"type": "bytes32[]"
						},
						{
							"internalType": "uint256",
							"name": "_threshold",
							"type": "uint256"
						}
					],
					"stateMutability": "nonpayable",
					"type": "constructor"
				},
				{
					"inputs": [],
					"name": "ReentrancyGuardReentrantCall",
					"type": "error"
				},
				{
					"anonymous": false,
					"inputs": [
						{
							"indexed": true,
							"internalType": "bytes32",
							"name": "guardianHash",
							"type": "bytes32"
						},
						{
							"indexed": true,
							"internalType": "address",
							"name": "guardianAddr",
							"type": "address"
						}
					],
					"name": "GuardianRevealed",
					"type": "event"
				},
				{
					"anonymous": false,
					"inputs": [
						{
							"indexed": false,
							"internalType": "address",
							"name": "by",
							"type": "address"
						}
					],
					"name": "GuardianshipRemovalExecuted",
					"type": "event"
				},
				{
					"anonymous": false,
					"inputs": [
						{
							"indexed": false,
							"internalType": "address",
							"name": "by",
							"type": "address"
						}
					],
					"name": "GuardianshipTransferCancelled",
					"type": "event"
				},
				{
					"anonymous": false,
					"inputs": [
						{
							"indexed": true,
							"internalType": "bytes32",
							"name": "newGuardian",
							"type": "bytes32"
						},
						{
							"indexed": false,
							"internalType": "bytes32",
							"name": "oldGuardian",
							"type": "bytes32"
						}
					],
					"name": "GuardianshipTransferExecuted",
					"type": "event"
				},
				{
					"anonymous": false,
					"inputs": [
						{
							"indexed": true,
							"internalType": "bytes32",
							"name": "newGuardian",
							"type": "bytes32"
						},
						{
							"indexed": false,
							"internalType": "bytes32",
							"name": "oldGuardian",
							"type": "bytes32"
						}
					],
					"name": "GuardianshipTransferInitiated",
					"type": "event"
				},
				{
					"anonymous": false,
					"inputs": [
						{
							"indexed": false,
							"internalType": "address",
							"name": "by",
							"type": "address"
						},
						{
							"indexed": true,
							"internalType": "uint256",
							"name": "round",
							"type": "uint256"
						}
					],
					"name": "RecoveryCancelled",
					"type": "event"
				},
				{
					"anonymous": false,
					"inputs": [
						{
							"indexed": false,
							"internalType": "address",
							"name": "oldOwner",
							"type": "address"
						},
						{
							"indexed": false,
							"internalType": "address",
							"name": "newOwner",
							"type": "address"
						},
						{
							"indexed": true,
							"internalType": "uint256",
							"name": "round",
							"type": "uint256"
						}
					],
					"name": "RecoveryExecuted",
					"type": "event"
				},
				{
					"anonymous": false,
					"inputs": [
						{
							"indexed": true,
							"internalType": "address",
							"name": "by",
							"type": "address"
						},
						{
							"indexed": false,
							"internalType": "address",
							"name": "newProposedOwner",
							"type": "address"
						},
						{
							"indexed": true,
							"internalType": "uint256",
							"name": "round",
							"type": "uint256"
						}
					],
					"name": "RecoveryInitiated",
					"type": "event"
				},
				{
					"anonymous": false,
					"inputs": [
						{
							"indexed": true,
							"internalType": "address",
							"name": "by",
							"type": "address"
						},
						{
							"indexed": false,
							"internalType": "address",
							"name": "newProposedOwner",
							"type": "address"
						},
						{
							"indexed": true,
							"internalType": "uint256",
							"name": "round",
							"type": "uint256"
						}
					],
					"name": "RecoverySupported",
					"type": "event"
				},
				{
					"anonymous": false,
					"inputs": [
						{
							"indexed": true,
							"internalType": "address",
							"name": "callee",
							"type": "address"
						},
						{
							"indexed": false,
							"internalType": "uint256",
							"name": "value",
							"type": "uint256"
						},
						{
							"indexed": false,
							"internalType": "bytes",
							"name": "data",
							"type": "bytes"
						}
					],
					"name": "TransactionExecuted",
					"type": "event"
				},
				{
					"anonymous": false,
					"inputs": [
						{
							"indexed": true,
							"internalType": "address",
							"name": "destination",
							"type": "address"
						},
						{
							"indexed": false,
							"internalType": "uint256",
							"name": "value",
							"type": "uint256"
						}
					],
					"name": "Transferred",
					"type": "event"
				},
				{
					"inputs": [],
					"name": "cancelGuardianshipTransfer",
					"outputs": [],
					"stateMutability": "nonpayable",
					"type": "function"
				},
				{
					"inputs": [],
					"name": "cancelRecovery",
					"outputs": [],
					"stateMutability": "nonpayable",
					"type": "function"
				},
				{
					"inputs": [],
					"name": "currRecoveryRound",
					"outputs": [
						{
							"internalType": "uint256",
							"name": "",
							"type": "uint256"
						}
					],
					"stateMutability": "view",
					"type": "function"
				},
				{
					"inputs": [
						{
							"internalType": "bytes32",
							"name": "guardianHash",
							"type": "bytes32"
						},
						{
							"internalType": "uint256",
							"name": "_threshold",
							"type": "uint256"
						}
					],
					"name": "executeGuardianRemoval",
					"outputs": [],
					"stateMutability": "nonpayable",
					"type": "function"
				},
				{
					"inputs": [
						{
							"internalType": "address",
							"name": "appellant",
							"type": "address"
						}
					],
					"name": "executeGuardianshipTransfer",
					"outputs": [],
					"stateMutability": "nonpayable",
					"type": "function"
				},
				{
					"inputs": [
						{
							"internalType": "address",
							"name": "newOwner",
							"type": "address"
						},
						{
							"internalType": "address[]",
							"name": "guardianList",
							"type": "address[]"
						}
					],
					"name": "executeRecovery",
					"outputs": [],
					"stateMutability": "nonpayable",
					"type": "function"
				},
				{
					"inputs": [
						{
							"internalType": "address",
							"name": "callee",
							"type": "address"
						},
						{
							"internalType": "uint256",
							"name": "value",
							"type": "uint256"
						},
						{
							"internalType": "bytes",
							"name": "data",
							"type": "bytes"
						}
					],
					"name": "executeTx",
					"outputs": [
						{
							"internalType": "bytes",
							"name": "",
							"type": "bytes"
						}
					],
					"stateMutability": "nonpayable",
					"type": "function"
				},
				{
					"inputs": [],
					"name": "getBalance",
					"outputs": [
						{
							"internalType": "uint256",
							"name": "",
							"type": "uint256"
						}
					],
					"stateMutability": "view",
					"type": "function"
				},
				{
					"inputs": [
						{
							"internalType": "address",
							"name": "",
							"type": "address"
						}
					],
					"name": "guardianChangeRequest",
					"outputs": [
						{
							"internalType": "bytes32",
							"name": "proposedGuardian",
							"type": "bytes32"
						},
						{
							"internalType": "bytes32",
							"name": "guardianToChange",
							"type": "bytes32"
						},
						{
							"internalType": "bool",
							"name": "isUsed",
							"type": "bool"
						}
					],
					"stateMutability": "view",
					"type": "function"
				},
				{
					"inputs": [
						{
							"internalType": "address",
							"name": "",
							"type": "address"
						}
					],
					"name": "guardianRecoveryRequest",
					"outputs": [
						{
							"internalType": "address",
							"name": "proposedOwner",
							"type": "address"
						},
						{
							"internalType": "uint256",
							"name": "recoveryRound",
							"type": "uint256"
						},
						{
							"internalType": "bool",
							"name": "isUsed",
							"type": "bool"
						}
					],
					"stateMutability": "view",
					"type": "function"
				},
				{
					"inputs": [],
					"name": "inGuardianRequest",
					"outputs": [
						{
							"internalType": "bool",
							"name": "",
							"type": "bool"
						}
					],
					"stateMutability": "view",
					"type": "function"
				},
				{
					"inputs": [],
					"name": "inRecovery",
					"outputs": [
						{
							"internalType": "bool",
							"name": "",
							"type": "bool"
						}
					],
					"stateMutability": "view",
					"type": "function"
				},
				{
					"inputs": [
						{
							"internalType": "address",
							"name": "_proposedOwner",
							"type": "address"
						}
					],
					"name": "initiateRecovery",
					"outputs": [],
					"stateMutability": "nonpayable",
					"type": "function"
				},
				{
					"inputs": [
						{
							"internalType": "bytes32",
							"name": "",
							"type": "bytes32"
						}
					],
					"name": "isGuardian",
					"outputs": [
						{
							"internalType": "bool",
							"name": "",
							"type": "bool"
						}
					],
					"stateMutability": "view",
					"type": "function"
				},
				{
					"inputs": [],
					"name": "owner",
					"outputs": [
						{
							"internalType": "address",
							"name": "",
							"type": "address"
						}
					],
					"stateMutability": "view",
					"type": "function"
				},
				{
					"inputs": [],
					"name": "revealGuardianIdentity",
					"outputs": [],
					"stateMutability": "nonpayable",
					"type": "function"
				},
				{
					"inputs": [
						{
							"internalType": "address",
							"name": "_proposedOwner",
							"type": "address"
						}
					],
					"name": "supportRecovery",
					"outputs": [],
					"stateMutability": "nonpayable",
					"type": "function"
				},
				{
					"inputs": [],
					"name": "threshold",
					"outputs": [
						{
							"internalType": "uint256",
							"name": "",
							"type": "uint256"
						}
					],
					"stateMutability": "view",
					"type": "function"
				},
				{
					"inputs": [
						{
							"internalType": "address payable",
							"name": "destination",
							"type": "address"
						},
						{
							"internalType": "uint256",
							"name": "amount",
							"type": "uint256"
						}
					],
					"name": "transfer",
					"outputs": [],
					"stateMutability": "nonpayable",
					"type": "function"
				},
				{
					"inputs": [
						{
							"internalType": "bytes32",
							"name": "guardianToChange",
							"type": "bytes32"
						},
						{
							"internalType": "bytes32",
							"name": "newGuardianHash",
							"type": "bytes32"
						}
					],
					"name": "transferGuardianship",
					"outputs": [],
					"stateMutability": "nonpayable",
					"type": "function"
				}
			],
			"devdoc": {
				"errors": {
					"ReentrancyGuardReentrantCall()": [
						{
							"details": "Unauthorized reentrant call."
						}
					]
				},
				"kind": "dev",
				"methods": {},
				"version": 1
			},
			"evm": {
				"assembly": "    /* \"contracts/BanklessWallet.sol\":176:6902  contract BanklessWallet is ReentrancyGuard {... */\n  mstore(0x40, 0x80)\n    /* \"contracts/BanklessWallet.sol\":1566:2006  constructor(bytes32[] memory guardianAddrHashes, uint256 _threshold){... */\n  callvalue\n  dup1\n  iszero\n  tag_1\n  jumpi\n  0x00\n  dup1\n  revert\ntag_1:\n  pop\n  mload(0x40)\n  sub(codesize, bytecodeSize)\n  dup1\n  bytecodeSize\n  dup4\n  codecopy\n  dup2\n  dup2\n  add\n  0x40\n  mstore\n  dup2\n  add\n  swap1\n  tag_2\n  swap2\n  swap1\n  tag_3\n  jump\t// in\ntag_2:\n    /* \"https://github.com/OpenZeppelin/openzeppelin-contracts/blob/master/contracts/utils/ReentrancyGuard.sol\":1713:1714  1 */\n  0x01\n    /* \"https://github.com/OpenZeppelin/openzeppelin-contracts/blob/master/contracts/utils/ReentrancyGuard.sol\":1917:1924  _status */\n  0x00\n    /* \"https://github.com/OpenZeppelin/openzeppelin-contracts/blob/master/contracts/utils/ReentrancyGuard.sol\":1917:1938  _status = NOT_ENTERED */\n  dup2\n  swap1\n  sstore\n  pop\n    /* \"contracts/BanklessWallet.sol\":1666:1684  guardianAddrHashes */\n  dup2\n    /* \"contracts/BanklessWallet.sol\":1666:1691  guardianAddrHashes.length */\n  mload\n    /* \"contracts/BanklessWallet.sol\":1652:1662  _threshold */\n  dup2\n    /* \"contracts/BanklessWallet.sol\":1652:1691  _threshold <= guardianAddrHashes.length */\n  gt\n  iszero\n    /* \"contracts/BanklessWallet.sol\":1644:1717  require(_threshold <= guardianAddrHashes.length, \"Threshold is too high\") */\n  tag_8\n  jumpi\n  mload(0x40)\n  0x08c379a000000000000000000000000000000000000000000000000000000000\n  dup2\n  mstore\n  0x04\n  add\n  tag_9\n  swap1\n  tag_10\n  jump\t// in\ntag_9:\n  mload(0x40)\n  dup1\n  swap2\n  sub\n  swap1\n  revert\ntag_8:\n    /* \"contracts/BanklessWallet.sol\":1733:1739  uint i */\n  0x00\n    /* \"contracts/BanklessWallet.sol\":1729:1931  for(uint i = 0; i < guardianAddrHashes.length; i++) {... */\ntag_11:\n    /* \"contracts/BanklessWallet.sol\":1749:1767  guardianAddrHashes */\n  dup3\n    /* \"contracts/BanklessWallet.sol\":1749:1774  guardianAddrHashes.length */\n  mload\n    /* \"contracts/BanklessWallet.sol\":1745:1746  i */\n  dup2\n    /* \"contracts/BanklessWallet.sol\":1745:1774  i < guardianAddrHashes.length */\n  lt\n    /* \"contracts/BanklessWallet.sol\":1729:1931  for(uint i = 0; i < guardianAddrHashes.length; i++) {... */\n  iszero\n  tag_12\n  jumpi\n    /* \"contracts/BanklessWallet.sol\":1804:1814  isGuardian */\n  0x03\n    /* \"contracts/BanklessWallet.sol\":1804:1837  isGuardian[guardianAddrHashes[i]] */\n  0x00\n    /* \"contracts/BanklessWallet.sol\":1815:1833  guardianAddrHashes */\n  dup5\n    /* \"contracts/BanklessWallet.sol\":1834:1835  i */\n  dup4\n    /* \"contracts/BanklessWallet.sol\":1815:1836  guardianAddrHashes[i] */\n  dup2\n  mload\n  dup2\n  lt\n  tag_14\n  jumpi\n  tag_15\n  tag_16\n  jump\t// in\ntag_15:\ntag_14:\n  0x20\n  mul\n  0x20\n  add\n  add\n  mload\n    /* \"contracts/BanklessWallet.sol\":1804:1837  isGuardian[guardianAddrHashes[i]] */\n  dup2\n  mstore\n  0x20\n  add\n  swap1\n  dup2\n  mstore\n  0x20\n  add\n  0x00\n  keccak256\n  0x00\n  swap1\n  sload\n  swap1\n  0x0100\n  exp\n  swap1\n  div\n  0xff\n  and\n    /* \"contracts/BanklessWallet.sol\":1803:1837  !isGuardian[guardianAddrHashes[i]] */\n  iszero\n    /* \"contracts/BanklessWallet.sol\":1795:1866  require(!isGuardian[guardianAddrHashes[i]], \"Duplicate Guardian Found\") */\n  tag_17\n  jumpi\n  mload(0x40)\n  0x08c379a000000000000000000000000000000000000000000000000000000000\n  dup2\n  mstore\n  0x04\n  add\n  tag_18\n  swap1\n  tag_19\n  jump\t// in\ntag_18:\n  mload(0x40)\n  dup1\n  swap2\n  sub\n  swap1\n  revert\ntag_17:\n    /* \"contracts/BanklessWallet.sol\":1916:1920  true */\n  0x01\n    /* \"contracts/BanklessWallet.sol\":1880:1890  isGuardian */\n  0x03\n    /* \"contracts/BanklessWallet.sol\":1880:1913  isGuardian[guardianAddrHashes[i]] */\n  0x00\n    /* \"contracts/BanklessWallet.sol\":1891:1909  guardianAddrHashes */\n  dup6\n    /* \"contracts/BanklessWallet.sol\":1910:1911  i */\n  dup5\n    /* \"contracts/BanklessWallet.sol\":1891:1912  guardianAddrHashes[i] */\n  dup2\n  mload\n  dup2\n  lt\n  tag_20\n  jumpi\n  tag_21\n  tag_16\n  jump\t// in\ntag_21:\ntag_20:\n  0x20\n  mul\n  0x20\n  add\n  add\n  mload\n    /* \"contracts/BanklessWallet.sol\":1880:1913  isGuardian[guardianAddrHashes[i]] */\n  dup2\n  mstore\n  0x20\n  add\n  swap1\n  dup2\n  mstore\n  0x20\n  add\n  0x00\n  keccak256\n  0x00\n    /* \"contracts/BanklessWallet.sol\":1880:1920  isGuardian[guardianAddrHashes[i]] = true */\n  0x0100\n  exp\n  dup2\n  sload\n  dup2\n  0xff\n  mul\n  not\n  and\n  swap1\n  dup4\n  iszero\n  iszero\n  mul\n  or\n  swap1\n  sstore\n  pop\n    /* \"contracts/BanklessWallet.sol\":1776:1779  i++ */\n  dup1\n  dup1\n  tag_22\n  swap1\n  tag_23\n  jump\t// in\ntag_22:\n  swap2\n  pop\n  pop\n    /* \"contracts/BanklessWallet.sol\":1729:1931  for(uint i = 0; i < guardianAddrHashes.length; i++) {... */\n  jump(tag_11)\ntag_12:\n  pop\n    /* \"contracts/BanklessWallet.sol\":1961:1971  _threshold */\n  dup1\n    /* \"contracts/BanklessWallet.sol\":1949:1958  threshold */\n  0x02\n    /* \"contracts/BanklessWallet.sol\":1949:1971  threshold = _threshold */\n  dup2\n  swap1\n  sstore\n  pop\n    /* \"contracts/BanklessWallet.sol\":1989:1999  msg.sender */\n  caller\n    /* \"contracts/BanklessWallet.sol\":1981:1986  owner */\n  0x01\n  0x00\n    /* \"contracts/BanklessWallet.sol\":1981:1999  owner = msg.sender */\n  0x0100\n  exp\n  dup2\n  sload\n  dup2\n  0xffffffffffffffffffffffffffffffffffffffff\n  mul\n  not\n  and\n  swap1\n  dup4\n  0xffffffffffffffffffffffffffffffffffffffff\n  and\n  mul\n  or\n  swap1\n  sstore\n  pop\n    /* \"contracts/BanklessWallet.sol\":1566:2006  constructor(bytes32[] memory guardianAddrHashes, uint256 _threshold){... */\n  pop\n  pop\n    /* \"contracts/BanklessWallet.sol\":176:6902  contract BanklessWallet is ReentrancyGuard {... */\n  jump(tag_24)\n    /* \"#utility.yul\":7:82   */\ntag_25:\n    /* \"#utility.yul\":40:46   */\n  0x00\n    /* \"#utility.yul\":73:75   */\n  0x40\n    /* \"#utility.yul\":67:76   */\n  mload\n    /* \"#utility.yul\":57:76   */\n  swap1\n  pop\n    /* \"#utility.yul\":7:82   */\n  swap1\n  jump\t// out\n    /* \"#utility.yul\":88:205   */\ntag_26:\n    /* \"#utility.yul\":197:198   */\n  0x00\n    /* \"#utility.yul\":194:195   */\n  dup1\n    /* \"#utility.yul\":187:199   */\n  revert\n    /* \"#utility.yul\":211:328   */\ntag_27:\n    /* \"#utility.yul\":320:321   */\n  0x00\n    /* \"#utility.yul\":317:318   */\n  dup1\n    /* \"#utility.yul\":310:322   */\n  revert\n    /* \"#utility.yul\":334:451   */\ntag_28:\n    /* \"#utility.yul\":443:444   */\n  0x00\n    /* \"#utility.yul\":440:441   */\n  dup1\n    /* \"#utility.yul\":433:445   */\n  revert\n    /* \"#utility.yul\":457:559   */\ntag_29:\n    /* \"#utility.yul\":498:504   */\n  0x00\n    /* \"#utility.yul\":549:551   */\n  0x1f\n    /* \"#utility.yul\":545:552   */\n  not\n    /* \"#utility.yul\":540:542   */\n  0x1f\n    /* \"#utility.yul\":533:538   */\n  dup4\n    /* \"#utility.yul\":529:543   */\n  add\n    /* \"#utility.yul\":525:553   */\n  and\n    /* \"#utility.yul\":515:553   */\n  swap1\n  pop\n    /* \"#utility.yul\":457:559   */\n  swap2\n  swap1\n  pop\n  jump\t// out\n    /* \"#utility.yul\":565:745   */\ntag_30:\n    /* \"#utility.yul\":613:690   */\n  0x4e487b7100000000000000000000000000000000000000000000000000000000\n    /* \"#utility.yul\":610:611   */\n  0x00\n    /* \"#utility.yul\":603:691   */\n  mstore\n    /* \"#utility.yul\":710:714   */\n  0x41\n    /* \"#utility.yul\":707:708   */\n  0x04\n    /* \"#utility.yul\":700:715   */\n  mstore\n    /* \"#utility.yul\":734:738   */\n  0x24\n    /* \"#utility.yul\":731:732   */\n  0x00\n    /* \"#utility.yul\":724:739   */\n  revert\n    /* \"#utility.yul\":751:1032   */\ntag_31:\n    /* \"#utility.yul\":834:861   */\n  tag_57\n    /* \"#utility.yul\":856:860   */\n  dup3\n    /* \"#utility.yul\":834:861   */\n  tag_29\n  jump\t// in\ntag_57:\n    /* \"#utility.yul\":826:832   */\n  dup2\n    /* \"#utility.yul\":822:862   */\n  add\n    /* \"#utility.yul\":964:970   */\n  dup2\n    /* \"#utility.yul\":952:962   */\n  dup2\n    /* \"#utility.yul\":949:971   */\n  lt\n    /* \"#utility.yul\":928:946   */\n  0xffffffffffffffff\n    /* \"#utility.yul\":916:926   */\n  dup3\n    /* \"#utility.yul\":913:947   */\n  gt\n    /* \"#utility.yul\":910:972   */\n  or\n    /* \"#utility.yul\":907:995   */\n  iszero\n  tag_58\n  jumpi\n    /* \"#utility.yul\":975:993   */\n  tag_59\n  tag_30\n  jump\t// in\ntag_59:\n    /* \"#utility.yul\":907:995   */\ntag_58:\n    /* \"#utility.yul\":1015:1025   */\n  dup1\n    /* \"#utility.yul\":1011:1013   */\n  0x40\n    /* \"#utility.yul\":1004:1026   */\n  mstore\n    /* \"#utility.yul\":794:1032   */\n  pop\n    /* \"#utility.yul\":751:1032   */\n  pop\n  pop\n  jump\t// out\n    /* \"#utility.yul\":1038:1167   */\ntag_32:\n    /* \"#utility.yul\":1072:1078   */\n  0x00\n    /* \"#utility.yul\":1099:1119   */\n  tag_61\n  tag_25\n  jump\t// in\ntag_61:\n    /* \"#utility.yul\":1089:1119   */\n  swap1\n  pop\n    /* \"#utility.yul\":1128:1161   */\n  tag_62\n    /* \"#utility.yul\":1156:1160   */\n  dup3\n    /* \"#utility.yul\":1148:1154   */\n  dup3\n    /* \"#utility.yul\":1128:1161   */\n  tag_31\n  jump\t// in\ntag_62:\n    /* \"#utility.yul\":1038:1167   */\n  swap2\n  swap1\n  pop\n  jump\t// out\n    /* \"#utility.yul\":1173:1484   */\ntag_33:\n    /* \"#utility.yul\":1250:1254   */\n  0x00\n    /* \"#utility.yul\":1340:1358   */\n  0xffffffffffffffff\n    /* \"#utility.yul\":1332:1338   */\n  dup3\n    /* \"#utility.yul\":1329:1359   */\n  gt\n    /* \"#utility.yul\":1326:1382   */\n  iszero\n  tag_64\n  jumpi\n    /* \"#utility.yul\":1362:1380   */\n  tag_65\n  tag_30\n  jump\t// in\ntag_65:\n    /* \"#utility.yul\":1326:1382   */\ntag_64:\n    /* \"#utility.yul\":1412:1416   */\n  0x20\n    /* \"#utility.yul\":1404:1410   */\n  dup3\n    /* \"#utility.yul\":1400:1417   */\n  mul\n    /* \"#utility.yul\":1392:1417   */\n  swap1\n  pop\n    /* \"#utility.yul\":1472:1476   */\n  0x20\n    /* \"#utility.yul\":1466:1470   */\n  dup2\n    /* \"#utility.yul\":1462:1477   */\n  add\n    /* \"#utility.yul\":1454:1477   */\n  swap1\n  pop\n    /* \"#utility.yul\":1173:1484   */\n  swap2\n  swap1\n  pop\n  jump\t// out\n    /* \"#utility.yul\":1490:1607   */\ntag_34:\n    /* \"#utility.yul\":1599:1600   */\n  0x00\n    /* \"#utility.yul\":1596:1597   */\n  dup1\n    /* \"#utility.yul\":1589:1601   */\n  revert\n    /* \"#utility.yul\":1613:1690   */\ntag_35:\n    /* \"#utility.yul\":1650:1657   */\n  0x00\n    /* \"#utility.yul\":1679:1684   */\n  dup2\n    /* \"#utility.yul\":1668:1684   */\n  swap1\n  pop\n    /* \"#utility.yul\":1613:1690   */\n  swap2\n  swap1\n  pop\n  jump\t// out\n    /* \"#utility.yul\":1696:1818   */\ntag_36:\n    /* \"#utility.yul\":1769:1793   */\n  tag_69\n    /* \"#utility.yul\":1787:1792   */\n  dup2\n    /* \"#utility.yul\":1769:1793   */\n  tag_35\n  jump\t// in\ntag_69:\n    /* \"#utility.yul\":1762:1767   */\n  dup2\n    /* \"#utility.yul\":1759:1794   */\n  eq\n    /* \"#utility.yul\":1749:1812   */\n  tag_70\n  jumpi\n    /* \"#utility.yul\":1808:1809   */\n  0x00\n    /* \"#utility.yul\":1805:1806   */\n  dup1\n    /* \"#utility.yul\":1798:1810   */\n  revert\n    /* \"#utility.yul\":1749:1812   */\ntag_70:\n    /* \"#utility.yul\":1696:1818   */\n  pop\n  jump\t// out\n    /* \"#utility.yul\":1824:1967   */\ntag_37:\n    /* \"#utility.yul\":1881:1886   */\n  0x00\n    /* \"#utility.yul\":1912:1918   */\n  dup2\n    /* \"#utility.yul\":1906:1919   */\n  mload\n    /* \"#utility.yul\":1897:1919   */\n  swap1\n  pop\n    /* \"#utility.yul\":1928:1961   */\n  tag_72\n    /* \"#utility.yul\":1955:1960   */\n  dup2\n    /* \"#utility.yul\":1928:1961   */\n  tag_36\n  jump\t// in\ntag_72:\n    /* \"#utility.yul\":1824:1967   */\n  swap3\n  swap2\n  pop\n  pop\n  jump\t// out\n    /* \"#utility.yul\":1990:2722   */\ntag_38:\n    /* \"#utility.yul\":2097:2102   */\n  0x00\n    /* \"#utility.yul\":2122:2203   */\n  tag_74\n    /* \"#utility.yul\":2138:2202   */\n  tag_75\n    /* \"#utility.yul\":2195:2201   */\n  dup5\n    /* \"#utility.yul\":2138:2202   */\n  tag_33\n  jump\t// in\ntag_75:\n    /* \"#utility.yul\":2122:2203   */\n  tag_32\n  jump\t// in\ntag_74:\n    /* \"#utility.yul\":2113:2203   */\n  swap1\n  pop\n    /* \"#utility.yul\":2223:2228   */\n  dup1\n    /* \"#utility.yul\":2252:2258   */\n  dup4\n    /* \"#utility.yul\":2245:2250   */\n  dup3\n    /* \"#utility.yul\":2238:2259   */\n  mstore\n    /* \"#utility.yul\":2286:2290   */\n  0x20\n    /* \"#utility.yul\":2279:2284   */\n  dup3\n    /* \"#utility.yul\":2275:2291   */\n  add\n    /* \"#utility.yul\":2268:2291   */\n  swap1\n  pop\n    /* \"#utility.yul\":2339:2343   */\n  0x20\n    /* \"#utility.yul\":2331:2337   */\n  dup5\n    /* \"#utility.yul\":2327:2344   */\n  mul\n    /* \"#utility.yul\":2319:2325   */\n  dup4\n    /* \"#utility.yul\":2315:2345   */\n  add\n    /* \"#utility.yul\":2368:2371   */\n  dup6\n    /* \"#utility.yul\":2360:2366   */\n  dup2\n    /* \"#utility.yul\":2357:2372   */\n  gt\n    /* \"#utility.yul\":2354:2476   */\n  iszero\n  tag_76\n  jumpi\n    /* \"#utility.yul\":2387:2466   */\n  tag_77\n  tag_34\n  jump\t// in\ntag_77:\n    /* \"#utility.yul\":2354:2476   */\ntag_76:\n    /* \"#utility.yul\":2502:2508   */\n  dup4\n    /* \"#utility.yul\":2485:2716   */\ntag_78:\n    /* \"#utility.yul\":2519:2525   */\n  dup2\n    /* \"#utility.yul\":2514:2517   */\n  dup2\n    /* \"#utility.yul\":2511:2526   */\n  lt\n    /* \"#utility.yul\":2485:2716   */\n  iszero\n  tag_80\n  jumpi\n    /* \"#utility.yul\":2594:2597   */\n  dup1\n    /* \"#utility.yul\":2623:2671   */\n  tag_81\n    /* \"#utility.yul\":2667:2670   */\n  dup9\n    /* \"#utility.yul\":2655:2665   */\n  dup3\n    /* \"#utility.yul\":2623:2671   */\n  tag_37\n  jump\t// in\ntag_81:\n    /* \"#utility.yul\":2618:2621   */\n  dup5\n    /* \"#utility.yul\":2611:2672   */\n  mstore\n    /* \"#utility.yul\":2701:2705   */\n  0x20\n    /* \"#utility.yul\":2696:2699   */\n  dup5\n    /* \"#utility.yul\":2692:2706   */\n  add\n    /* \"#utility.yul\":2685:2706   */\n  swap4\n  pop\n    /* \"#utility.yul\":2561:2716   */\n  pop\n    /* \"#utility.yul\":2545:2549   */\n  0x20\n    /* \"#utility.yul\":2540:2543   */\n  dup2\n    /* \"#utility.yul\":2536:2550   */\n  add\n    /* \"#utility.yul\":2529:2550   */\n  swap1\n  pop\n    /* \"#utility.yul\":2485:2716   */\n  jump(tag_78)\ntag_80:\n    /* \"#utility.yul\":2489:2510   */\n  pop\n    /* \"#utility.yul\":2103:2722   */\n  pop\n  pop\n    /* \"#utility.yul\":1990:2722   */\n  swap4\n  swap3\n  pop\n  pop\n  pop\n  jump\t// out\n    /* \"#utility.yul\":2745:3130   */\ntag_39:\n    /* \"#utility.yul\":2827:2832   */\n  0x00\n    /* \"#utility.yul\":2876:2879   */\n  dup3\n    /* \"#utility.yul\":2869:2873   */\n  0x1f\n    /* \"#utility.yul\":2861:2867   */\n  dup4\n    /* \"#utility.yul\":2857:2874   */\n  add\n    /* \"#utility.yul\":2853:2880   */\n  slt\n    /* \"#utility.yul\":2843:2965   */\n  tag_83\n  jumpi\n    /* \"#utility.yul\":2884:2963   */\n  tag_84\n  tag_28\n  jump\t// in\ntag_84:\n    /* \"#utility.yul\":2843:2965   */\ntag_83:\n    /* \"#utility.yul\":2994:3000   */\n  dup2\n    /* \"#utility.yul\":2988:3001   */\n  mload\n    /* \"#utility.yul\":3019:3124   */\n  tag_85\n    /* \"#utility.yul\":3120:3123   */\n  dup5\n    /* \"#utility.yul\":3112:3118   */\n  dup3\n    /* \"#utility.yul\":3105:3109   */\n  0x20\n    /* \"#utility.yul\":3097:3103   */\n  dup7\n    /* \"#utility.yul\":3093:3110   */\n  add\n    /* \"#utility.yul\":3019:3124   */\n  tag_38\n  jump\t// in\ntag_85:\n    /* \"#utility.yul\":3010:3124   */\n  swap2\n  pop\n    /* \"#utility.yul\":2833:3130   */\n  pop\n    /* \"#utility.yul\":2745:3130   */\n  swap3\n  swap2\n  pop\n  pop\n  jump\t// out\n    /* \"#utility.yul\":3136:3213   */\ntag_40:\n    /* \"#utility.yul\":3173:3180   */\n  0x00\n    /* \"#utility.yul\":3202:3207   */\n  dup2\n    /* \"#utility.yul\":3191:3207   */\n  swap1\n  pop\n    /* \"#utility.yul\":3136:3213   */\n  swap2\n  swap1\n  pop\n  jump\t// out\n    /* \"#utility.yul\":3219:3341   */\ntag_41:\n    /* \"#utility.yul\":3292:3316   */\n  tag_88\n    /* \"#utility.yul\":3310:3315   */\n  dup2\n    /* \"#utility.yul\":3292:3316   */\n  tag_40\n  jump\t// in\ntag_88:\n    /* \"#utility.yul\":3285:3290   */\n  dup2\n    /* \"#utility.yul\":3282:3317   */\n  eq\n    /* \"#utility.yul\":3272:3335   */\n  tag_89\n  jumpi\n    /* \"#utility.yul\":3331:3332   */\n  0x00\n    /* \"#utility.yul\":3328:3329   */\n  dup1\n    /* \"#utility.yul\":3321:3333   */\n  revert\n    /* \"#utility.yul\":3272:3335   */\ntag_89:\n    /* \"#utility.yul\":3219:3341   */\n  pop\n  jump\t// out\n    /* \"#utility.yul\":3347:3490   */\ntag_42:\n    /* \"#utility.yul\":3404:3409   */\n  0x00\n    /* \"#utility.yul\":3435:3441   */\n  dup2\n    /* \"#utility.yul\":3429:3442   */\n  mload\n    /* \"#utility.yul\":3420:3442   */\n  swap1\n  pop\n    /* \"#utility.yul\":3451:3484   */\n  tag_91\n    /* \"#utility.yul\":3478:3483   */\n  dup2\n    /* \"#utility.yul\":3451:3484   */\n  tag_41\n  jump\t// in\ntag_91:\n    /* \"#utility.yul\":3347:3490   */\n  swap3\n  swap2\n  pop\n  pop\n  jump\t// out\n    /* \"#utility.yul\":3496:4206   */\ntag_3:\n    /* \"#utility.yul\":3600:3606   */\n  0x00\n    /* \"#utility.yul\":3608:3614   */\n  dup1\n    /* \"#utility.yul\":3657:3659   */\n  0x40\n    /* \"#utility.yul\":3645:3654   */\n  dup4\n    /* \"#utility.yul\":3636:3643   */\n  dup6\n    /* \"#utility.yul\":3632:3655   */\n  sub\n    /* \"#utility.yul\":3628:3660   */\n  slt\n    /* \"#utility.yul\":3625:3744   */\n  iszero\n  tag_93\n  jumpi\n    /* \"#utility.yul\":3663:3742   */\n  tag_94\n  tag_26\n  jump\t// in\ntag_94:\n    /* \"#utility.yul\":3625:3744   */\ntag_93:\n    /* \"#utility.yul\":3804:3805   */\n  0x00\n    /* \"#utility.yul\":3793:3802   */\n  dup4\n    /* \"#utility.yul\":3789:3806   */\n  add\n    /* \"#utility.yul\":3783:3807   */\n  mload\n    /* \"#utility.yul\":3834:3852   */\n  0xffffffffffffffff\n    /* \"#utility.yul\":3826:3832   */\n  dup2\n    /* \"#utility.yul\":3823:3853   */\n  gt\n    /* \"#utility.yul\":3820:3937   */\n  iszero\n  tag_95\n  jumpi\n    /* \"#utility.yul\":3856:3935   */\n  tag_96\n  tag_27\n  jump\t// in\ntag_96:\n    /* \"#utility.yul\":3820:3937   */\ntag_95:\n    /* \"#utility.yul\":3961:4050   */\n  tag_97\n    /* \"#utility.yul\":4042:4049   */\n  dup6\n    /* \"#utility.yul\":4033:4039   */\n  dup3\n    /* \"#utility.yul\":4022:4031   */\n  dup7\n    /* \"#utility.yul\":4018:4040   */\n  add\n    /* \"#utility.yul\":3961:4050   */\n  tag_39\n  jump\t// in\ntag_97:\n    /* \"#utility.yul\":3951:4050   */\n  swap3\n  pop\n    /* \"#utility.yul\":3754:4060   */\n  pop\n    /* \"#utility.yul\":4099:4101   */\n  0x20\n    /* \"#utility.yul\":4125:4189   */\n  tag_98\n    /* \"#utility.yul\":4181:4188   */\n  dup6\n    /* \"#utility.yul\":4172:4178   */\n  dup3\n    /* \"#utility.yul\":4161:4170   */\n  dup7\n    /* \"#utility.yul\":4157:4179   */\n  add\n    /* \"#utility.yul\":4125:4189   */\n  tag_42\n  jump\t// in\ntag_98:\n    /* \"#utility.yul\":4115:4189   */\n  swap2\n  pop\n    /* \"#utility.yul\":4070:4199   */\n  pop\n    /* \"#utility.yul\":3496:4206   */\n  swap3\n  pop\n  swap3\n  swap1\n  pop\n  jump\t// out\n    /* \"#utility.yul\":4212:4381   */\ntag_43:\n    /* \"#utility.yul\":4296:4307   */\n  0x00\n    /* \"#utility.yul\":4330:4336   */\n  dup3\n    /* \"#utility.yul\":4325:4328   */\n  dup3\n    /* \"#utility.yul\":4318:4337   */\n  mstore\n    /* \"#utility.yul\":4370:4374   */\n  0x20\n    /* \"#utility.yul\":4365:4368   */\n  dup3\n    /* \"#utility.yul\":4361:4375   */\n  add\n    /* \"#utility.yul\":4346:4375   */\n  swap1\n  pop\n    /* \"#utility.yul\":4212:4381   */\n  swap3\n  swap2\n  pop\n  pop\n  jump\t// out\n    /* \"#utility.yul\":4387:4558   */\ntag_44:\n    /* \"#utility.yul\":4527:4550   */\n  0x5468726573686f6c6420697320746f6f20686967680000000000000000000000\n    /* \"#utility.yul\":4523:4524   */\n  0x00\n    /* \"#utility.yul\":4515:4521   */\n  dup3\n    /* \"#utility.yul\":4511:4525   */\n  add\n    /* \"#utility.yul\":4504:4551   */\n  mstore\n    /* \"#utility.yul\":4387:4558   */\n  pop\n  jump\t// out\n    /* \"#utility.yul\":4564:4930   */\ntag_45:\n    /* \"#utility.yul\":4706:4709   */\n  0x00\n    /* \"#utility.yul\":4727:4794   */\n  tag_102\n    /* \"#utility.yul\":4791:4793   */\n  0x15\n    /* \"#utility.yul\":4786:4789   */\n  dup4\n    /* \"#utility.yul\":4727:4794   */\n  tag_43\n  jump\t// in\ntag_102:\n    /* \"#utility.yul\":4720:4794   */\n  swap2\n  pop\n    /* \"#utility.yul\":4803:4896   */\n  tag_103\n    /* \"#utility.yul\":4892:4895   */\n  dup3\n    /* \"#utility.yul\":4803:4896   */\n  tag_44\n  jump\t// in\ntag_103:\n    /* \"#utility.yul\":4921:4923   */\n  0x20\n    /* \"#utility.yul\":4916:4919   */\n  dup3\n    /* \"#utility.yul\":4912:4924   */\n  add\n    /* \"#utility.yul\":4905:4924   */\n  swap1\n  pop\n    /* \"#utility.yul\":4564:4930   */\n  swap2\n  swap1\n  pop\n  jump\t// out\n    /* \"#utility.yul\":4936:5355   */\ntag_10:\n    /* \"#utility.yul\":5102:5106   */\n  0x00\n    /* \"#utility.yul\":5140:5142   */\n  0x20\n    /* \"#utility.yul\":5129:5138   */\n  dup3\n    /* \"#utility.yul\":5125:5143   */\n  add\n    /* \"#utility.yul\":5117:5143   */\n  swap1\n  pop\n    /* \"#utility.yul\":5189:5198   */\n  dup2\n    /* \"#utility.yul\":5183:5187   */\n  dup2\n    /* \"#utility.yul\":5179:5199   */\n  sub\n    /* \"#utility.yul\":5175:5176   */\n  0x00\n    /* \"#utility.yul\":5164:5173   */\n  dup4\n    /* \"#utility.yul\":5160:5177   */\n  add\n    /* \"#utility.yul\":5153:5200   */\n  mstore\n    /* \"#utility.yul\":5217:5348   */\n  tag_105\n    /* \"#utility.yul\":5343:5347   */\n  dup2\n    /* \"#utility.yul\":5217:5348   */\n  tag_45\n  jump\t// in\ntag_105:\n    /* \"#utility.yul\":5209:5348   */\n  swap1\n  pop\n    /* \"#utility.yul\":4936:5355   */\n  swap2\n  swap1\n  pop\n  jump\t// out\n    /* \"#utility.yul\":5361:5541   */\ntag_16:\n    /* \"#utility.yul\":5409:5486   */\n  0x4e487b7100000000000000000000000000000000000000000000000000000000\n    /* \"#utility.yul\":5406:5407   */\n  0x00\n    /* \"#utility.yul\":5399:5487   */\n  mstore\n    /* \"#utility.yul\":5506:5510   */\n  0x32\n    /* \"#utility.yul\":5503:5504   */\n  0x04\n    /* \"#utility.yul\":5496:5511   */\n  mstore\n    /* \"#utility.yul\":5530:5534   */\n  0x24\n    /* \"#utility.yul\":5527:5528   */\n  0x00\n    /* \"#utility.yul\":5520:5535   */\n  revert\n    /* \"#utility.yul\":5547:5721   */\ntag_46:\n    /* \"#utility.yul\":5687:5713   */\n  0x4475706c696361746520477561726469616e20466f756e640000000000000000\n    /* \"#utility.yul\":5683:5684   */\n  0x00\n    /* \"#utility.yul\":5675:5681   */\n  dup3\n    /* \"#utility.yul\":5671:5685   */\n  add\n    /* \"#utility.yul\":5664:5714   */\n  mstore\n    /* \"#utility.yul\":5547:5721   */\n  pop\n  jump\t// out\n    /* \"#utility.yul\":5727:6093   */\ntag_47:\n    /* \"#utility.yul\":5869:5872   */\n  0x00\n    /* \"#utility.yul\":5890:5957   */\n  tag_109\n    /* \"#utility.yul\":5954:5956   */\n  0x18\n    /* \"#utility.yul\":5949:5952   */\n  dup4\n    /* \"#utility.yul\":5890:5957   */\n  tag_43\n  jump\t// in\ntag_109:\n    /* \"#utility.yul\":5883:5957   */\n  swap2\n  pop\n    /* \"#utility.yul\":5966:6059   */\n  tag_110\n    /* \"#utility.yul\":6055:6058   */\n  dup3\n    /* \"#utility.yul\":5966:6059   */\n  tag_46\n  jump\t// in\ntag_110:\n    /* \"#utility.yul\":6084:6086   */\n  0x20\n    /* \"#utility.yul\":6079:6082   */\n  dup3\n    /* \"#utility.yul\":6075:6087   */\n  add\n    /* \"#utility.yul\":6068:6087   */\n  swap1\n  pop\n    /* \"#utility.yul\":5727:6093   */\n  swap2\n  swap1\n  pop\n  jump\t// out\n    /* \"#utility.yul\":6099:6518   */\ntag_19:\n    /* \"#utility.yul\":6265:6269   */\n  0x00\n    /* \"#utility.yul\":6303:6305   */\n  0x20\n    /* \"#utility.yul\":6292:6301   */\n  dup3\n    /* \"#utility.yul\":6288:6306   */\n  add\n    /* \"#utility.yul\":6280:6306   */\n  swap1\n  pop\n    /* \"#utility.yul\":6352:6361   */\n  dup2\n    /* \"#utility.yul\":6346:6350   */\n  dup2\n    /* \"#utility.yul\":6342:6362   */\n  sub\n    /* \"#utility.yul\":6338:6339   */\n  0x00\n    /* \"#utility.yul\":6327:6336   */\n  dup4\n    /* \"#utility.yul\":6323:6340   */\n  add\n    /* \"#utility.yul\":6316:6363   */\n  mstore\n    /* \"#utility.yul\":6380:6511   */\n  tag_112\n    /* \"#utility.yul\":6506:6510   */\n  dup2\n    /* \"#utility.yul\":6380:6511   */\n  tag_47\n  jump\t// in\ntag_112:\n    /* \"#utility.yul\":6372:6511   */\n  swap1\n  pop\n    /* \"#utility.yul\":6099:6518   */\n  swap2\n  swap1\n  pop\n  jump\t// out\n    /* \"#utility.yul\":6524:6704   */\ntag_48:\n    /* \"#utility.yul\":6572:6649   */\n  0x4e487b7100000000000000000000000000000000000000000000000000000000\n    /* \"#utility.yul\":6569:6570   */\n  0x00\n    /* \"#utility.yul\":6562:6650   */\n  mstore\n    /* \"#utility.yul\":6669:6673   */\n  0x11\n    /* \"#utility.yul\":6666:6667   */\n  0x04\n    /* \"#utility.yul\":6659:6674   */\n  mstore\n    /* \"#utility.yul\":6693:6697   */\n  0x24\n    /* \"#utility.yul\":6690:6691   */\n  0x00\n    /* \"#utility.yul\":6683:6698   */\n  revert\n    /* \"#utility.yul\":6710:6943   */\ntag_23:\n    /* \"#utility.yul\":6749:6752   */\n  0x00\n    /* \"#utility.yul\":6772:6796   */\n  tag_115\n    /* \"#utility.yul\":6790:6795   */\n  dup3\n    /* \"#utility.yul\":6772:6796   */\n  tag_40\n  jump\t// in\ntag_115:\n    /* \"#utility.yul\":6763:6796   */\n  swap2\n  pop\n    /* \"#utility.yul\":6818:6884   */\n  0xffffffffffffffffffffffffffffffffffffffffffffffffffffffffffffffff\n    /* \"#utility.yul\":6811:6816   */\n  dup3\n    /* \"#utility.yul\":6808:6885   */\n  sub\n    /* \"#utility.yul\":6805:6908   */\n  tag_116\n  jumpi\n    /* \"#utility.yul\":6888:6906   */\n  tag_117\n  tag_48\n  jump\t// in\ntag_117:\n    /* \"#utility.yul\":6805:6908   */\ntag_116:\n    /* \"#utility.yul\":6935:6936   */\n  0x01\n    /* \"#utility.yul\":6928:6933   */\n  dup3\n    /* \"#utility.yul\":6924:6937   */\n  add\n    /* \"#utility.yul\":6917:6937   */\n  swap1\n  pop\n    /* \"#utility.yul\":6710:6943   */\n  swap2\n  swap1\n  pop\n  jump\t// out\n    /* \"contracts/BanklessWallet.sol\":176:6902  contract BanklessWallet is ReentrancyGuard {... */\ntag_24:\n  dataSize(sub_0)\n  dup1\n  dataOffset(sub_0)\n  0x00\n  codecopy\n  0x00\n  return\nstop\n\nsub_0: assembly {\n        /* \"contracts/BanklessWallet.sol\":176:6902  contract BanklessWallet is ReentrancyGuard {... */\n      mstore(0x40, 0x80)\n      callvalue\n      dup1\n      iszero\n      tag_1\n      jumpi\n      0x00\n      dup1\n      revert\n    tag_1:\n      pop\n      jumpi(tag_2, lt(calldatasize, 0x04))\n      shr(0xe0, calldataload(0x00))\n      dup1\n      0xa643e812\n      gt\n      tag_23\n      jumpi\n      dup1\n      0xb6547cb5\n      gt\n      tag_24\n      jumpi\n      dup1\n      0xb6547cb5\n      eq\n      tag_18\n      jumpi\n      dup1\n      0xc42fe50a\n      eq\n      tag_19\n      jumpi\n      dup1\n      0xc622b2dc\n      eq\n      tag_20\n      jumpi\n      dup1\n      0xd5ce9aad\n      eq\n      tag_21\n      jumpi\n      dup1\n      0xf05151df\n      eq\n      tag_22\n      jumpi\n      jump(tag_2)\n    tag_24:\n      dup1\n      0xa643e812\n      eq\n      tag_13\n      jumpi\n      dup1\n      0xa774f412\n      eq\n      tag_14\n      jumpi\n      dup1\n      0xa7b65d10\n      eq\n      tag_15\n      jumpi\n      dup1\n      0xa9059cbb\n      eq\n      tag_16\n      jumpi\n      dup1\n      0xace7c993\n      eq\n      tag_17\n      jumpi\n      jump(tag_2)\n    tag_23:\n      dup1\n      0x57e685bc\n      gt\n      tag_25\n      jumpi\n      dup1\n      0x57e685bc\n      eq\n      tag_8\n      jumpi\n      dup1\n      0x5db0db7c\n      eq\n      tag_9\n      jumpi\n      dup1\n      0x5fc489a7\n      eq\n      tag_10\n      jumpi\n      dup1\n      0x8da5cb5b\n      eq\n      tag_11\n      jumpi\n      dup1\n      0x912365ea\n      eq\n      tag_12\n      jumpi\n      jump(tag_2)\n    tag_25:\n      dup1\n      0x0ba234d6\n      eq\n      tag_3\n      jumpi\n      dup1\n      0x12065fe0\n      eq\n      tag_4\n      jumpi\n      dup1\n      0x1e969523\n      eq\n      tag_5\n      jumpi\n      dup1\n      0x371bbdc1\n      eq\n      tag_6\n      jumpi\n      dup1\n      0x42cde4e8\n      eq\n      tag_7\n      jumpi\n    tag_2:\n      0x00\n      dup1\n      revert\n        /* \"contracts/BanklessWallet.sol\":4289:4447  function cancelRecovery() onlyOwner onlyInRecovery external {... */\n    tag_3:\n      tag_26\n      tag_27\n      jump\t// in\n    tag_26:\n      stop\n        /* \"contracts/BanklessWallet.sol\":3429:3526  function getBalance() public view returns (uint256) {... */\n    tag_4:\n      tag_28\n      tag_29\n      jump\t// in\n    tag_28:\n      mload(0x40)\n      tag_30\n      swap2\n      swap1\n      tag_31\n      jump\t// in\n    tag_30:\n      mload(0x40)\n      dup1\n      swap2\n      sub\n      swap1\n      return\n        /* \"contracts/BanklessWallet.sol\":754:818  mapping(address => GuardianRequest) public guardianChangeRequest */\n    tag_5:\n      tag_32\n      0x04\n      dup1\n      calldatasize\n      sub\n      dup2\n      add\n      swap1\n      tag_33\n      swap2\n      swap1\n      tag_34\n      jump\t// in\n    tag_33:\n      tag_35\n      jump\t// in\n    tag_32:\n      mload(0x40)\n      tag_36\n      swap4\n      swap3\n      swap2\n      swap1\n      tag_37\n      jump\t// in\n    tag_36:\n      mload(0x40)\n      dup1\n      swap2\n      sub\n      swap1\n      return\n        /* \"contracts/BanklessWallet.sol\":556:622  mapping(address => RecoveryRequest) public guardianRecoveryRequest */\n    tag_6:\n      tag_38\n      0x04\n      dup1\n      calldatasize\n      sub\n      dup2\n      add\n      swap1\n      tag_39\n      swap2\n      swap1\n      tag_34\n      jump\t// in\n    tag_39:\n      tag_40\n      jump\t// in\n    tag_38:\n      mload(0x40)\n      tag_41\n      swap4\n      swap3\n      swap2\n      swap1\n      tag_42\n      jump\t// in\n    tag_41:\n      mload(0x40)\n      dup1\n      swap2\n      sub\n      swap1\n      return\n        /* \"contracts/BanklessWallet.sol\":253:277  uint256 public threshold */\n    tag_7:\n      tag_43\n      tag_44\n      jump\t// in\n    tag_43:\n      mload(0x40)\n      tag_45\n      swap2\n      swap1\n      tag_31\n      jump\t// in\n    tag_45:\n      mload(0x40)\n      dup1\n      swap2\n      sub\n      swap1\n      return\n        /* \"contracts/BanklessWallet.sol\":3939:4283  function supportRecovery(address _proposedOwner) onlyGuardian onlyInRecovery notInGuardianRequest external {... */\n    tag_8:\n      tag_46\n      0x04\n      dup1\n      calldatasize\n      sub\n      dup2\n      add\n      swap1\n      tag_47\n      swap2\n      swap1\n      tag_34\n      jump\t// in\n    tag_47:\n      tag_48\n      jump\t// in\n    tag_46:\n      stop\n        /* \"contracts/BanklessWallet.sol\":5756:6257  function executeGuardianshipTransfer(address appellant) onlyOwner onlyInGuardianRequest notInRecovery external {... */\n    tag_9:\n      tag_49\n      0x04\n      dup1\n      calldatasize\n      sub\n      dup2\n      add\n      swap1\n      tag_50\n      swap2\n      swap1\n      tag_34\n      jump\t// in\n    tag_50:\n      tag_51\n      jump\t// in\n    tag_49:\n      stop\n        /* \"contracts/BanklessWallet.sol\":4453:5337  function executeRecovery(address newOwner, address[] calldata guardianList) onlyGuardian onlyInRecovery notInGuardianRequest external {... */\n    tag_10:\n      tag_52\n      0x04\n      dup1\n      calldatasize\n      sub\n      dup2\n      add\n      swap1\n      tag_53\n      swap2\n      swap1\n      tag_54\n      jump\t// in\n    tag_53:\n      tag_55\n      jump\t// in\n    tag_52:\n      stop\n        /* \"contracts/BanklessWallet.sol\":226:246  address public owner */\n    tag_11:\n      tag_56\n      tag_57\n      jump\t// in\n    tag_56:\n      mload(0x40)\n      tag_58\n      swap2\n      swap1\n      tag_59\n      jump\t// in\n    tag_58:\n      mload(0x40)\n      dup1\n      swap2\n      sub\n      swap1\n      return\n        /* \"contracts/BanklessWallet.sol\":3085:3423  function executeTx(address callee, uint256 value, bytes memory data) external onlyOwner nonReentrant returns(bytes memory){... */\n    tag_12:\n      tag_60\n      0x04\n      dup1\n      calldatasize\n      sub\n      dup2\n      add\n      swap1\n      tag_61\n      swap2\n      swap1\n      tag_62\n      jump\t// in\n    tag_61:\n      tag_63\n      jump\t// in\n    tag_60:\n      mload(0x40)\n      tag_64\n      swap2\n      swap1\n      tag_65\n      jump\t// in\n    tag_64:\n      mload(0x40)\n      dup1\n      swap2\n      sub\n      swap1\n      return\n        /* \"contracts/BanklessWallet.sol\":362:391  bool public inGuardianRequest */\n    tag_13:\n      tag_66\n      tag_67\n      jump\t// in\n    tag_66:\n      mload(0x40)\n      tag_68\n      swap2\n      swap1\n      tag_69\n      jump\t// in\n    tag_68:\n      mload(0x40)\n      dup1\n      swap2\n      sub\n      swap1\n      return\n        /* \"contracts/BanklessWallet.sol\":6753:6900  function revealGuardianIdentity() onlyGuardian external {... */\n    tag_14:\n      tag_70\n      tag_71\n      jump\t// in\n    tag_70:\n      stop\n        /* \"contracts/BanklessWallet.sol\":6263:6454  function cancelGuardianshipTransfer() onlyOwner onlyInGuardianRequest notInRecovery external {... */\n    tag_15:\n      tag_72\n      tag_73\n      jump\t// in\n    tag_72:\n      stop\n        /* \"contracts/BanklessWallet.sol\":2901:3075  function transfer(address payable destination, uint256 amount) external onlyOwner {... */\n    tag_16:\n      tag_74\n      0x04\n      dup1\n      calldatasize\n      sub\n      dup2\n      add\n      swap1\n      tag_75\n      swap2\n      swap1\n      tag_76\n      jump\t// in\n    tag_75:\n      tag_77\n      jump\t// in\n    tag_74:\n      stop\n        /* \"contracts/BanklessWallet.sol\":398:430  uint256 public currRecoveryRound */\n    tag_17:\n      tag_78\n      tag_79\n      jump\t// in\n    tag_78:\n      mload(0x40)\n      tag_80\n      swap2\n      swap1\n      tag_31\n      jump\t// in\n    tag_80:\n      mload(0x40)\n      dup1\n      swap2\n      sub\n      swap1\n      return\n        /* \"contracts/BanklessWallet.sol\":6460:6747  function executeGuardianRemoval(bytes32 guardianHash, uint256 _threshold) external onlyOwner {... */\n    tag_18:\n      tag_81\n      0x04\n      dup1\n      calldatasize\n      sub\n      dup2\n      add\n      swap1\n      tag_82\n      swap2\n      swap1\n      tag_83\n      jump\t// in\n    tag_82:\n      tag_84\n      jump\t// in\n    tag_81:\n      stop\n        /* \"contracts/BanklessWallet.sol\":284:326  mapping(bytes32 => bool) public isGuardian */\n    tag_19:\n      tag_85\n      0x04\n      dup1\n      calldatasize\n      sub\n      dup2\n      add\n      swap1\n      tag_86\n      swap2\n      swap1\n      tag_87\n      jump\t// in\n    tag_86:\n      tag_88\n      jump\t// in\n    tag_85:\n      mload(0x40)\n      tag_89\n      swap2\n      swap1\n      tag_69\n      jump\t// in\n    tag_89:\n      mload(0x40)\n      dup1\n      swap2\n      sub\n      swap1\n      return\n        /* \"contracts/BanklessWallet.sol\":5343:5750  function transferGuardianship(bytes32 guardianToChange, bytes32 newGuardianHash) onlyGuardian notInGuardianRequest notInRecovery external {... */\n    tag_20:\n      tag_90\n      0x04\n      dup1\n      calldatasize\n      sub\n      dup2\n      add\n      swap1\n      tag_91\n      swap2\n      swap1\n      tag_92\n      jump\t// in\n    tag_91:\n      tag_93\n      jump\t// in\n    tag_90:\n      stop\n        /* \"contracts/BanklessWallet.sol\":3532:3933  function initiateRecovery(address _proposedOwner) onlyGuardian notInRecovery notInGuardianRequest external {... */\n    tag_21:\n      tag_94\n      0x04\n      dup1\n      calldatasize\n      sub\n      dup2\n      add\n      swap1\n      tag_95\n      swap2\n      swap1\n      tag_34\n      jump\t// in\n    tag_95:\n      tag_96\n      jump\t// in\n    tag_94:\n      stop\n        /* \"contracts/BanklessWallet.sol\":333:355  bool public inRecovery */\n    tag_22:\n      tag_97\n      tag_98\n      jump\t// in\n    tag_97:\n      mload(0x40)\n      tag_99\n      swap2\n      swap1\n      tag_69\n      jump\t// in\n    tag_99:\n      mload(0x40)\n      dup1\n      swap2\n      sub\n      swap1\n      return\n        /* \"contracts/BanklessWallet.sol\":4289:4447  function cancelRecovery() onlyOwner onlyInRecovery external {... */\n    tag_27:\n        /* \"contracts/BanklessWallet.sol\":876:881  owner */\n      0x01\n      0x00\n      swap1\n      sload\n      swap1\n      0x0100\n      exp\n      swap1\n      div\n      0xffffffffffffffffffffffffffffffffffffffff\n      and\n        /* \"contracts/BanklessWallet.sol\":862:881  msg.sender == owner */\n      0xffffffffffffffffffffffffffffffffffffffff\n      and\n        /* \"contracts/BanklessWallet.sol\":862:872  msg.sender */\n      caller\n        /* \"contracts/BanklessWallet.sol\":862:881  msg.sender == owner */\n      0xffffffffffffffffffffffffffffffffffffffff\n      and\n      eq\n        /* \"contracts/BanklessWallet.sol\":854:900  require(msg.sender == owner, \"Not Authorized\") */\n      tag_101\n      jumpi\n      mload(0x40)\n      0x08c379a000000000000000000000000000000000000000000000000000000000\n      dup2\n      mstore\n      0x04\n      add\n      tag_102\n      swap1\n      tag_103\n      jump\t// in\n    tag_102:\n      mload(0x40)\n      dup1\n      swap2\n      sub\n      swap1\n      revert\n    tag_101:\n        /* \"contracts/BanklessWallet.sol\":1234:1244  inRecovery */\n      0x04\n      0x00\n      swap1\n      sload\n      swap1\n      0x0100\n      exp\n      swap1\n      div\n      0xff\n      and\n        /* \"contracts/BanklessWallet.sol\":1226:1279  require(inRecovery, \"Wallet is not in Recovery mode\") */\n      tag_105\n      jumpi\n      mload(0x40)\n      0x08c379a000000000000000000000000000000000000000000000000000000000\n      dup2\n      mstore\n      0x04\n      add\n      tag_106\n      swap1\n      tag_107\n      jump\t// in\n    tag_106:\n      mload(0x40)\n      dup1\n      swap2\n      sub\n      swap1\n      revert\n    tag_105:\n        /* \"contracts/BanklessWallet.sol\":4372:4377  false */\n      0x00\n        /* \"contracts/BanklessWallet.sol\":4359:4369  inRecovery */\n      0x04\n      0x00\n        /* \"contracts/BanklessWallet.sol\":4359:4377  inRecovery = false */\n      0x0100\n      exp\n      dup2\n      sload\n      dup2\n      0xff\n      mul\n      not\n      and\n      swap1\n      dup4\n      iszero\n      iszero\n      mul\n      or\n      swap1\n      sstore\n      pop\n        /* \"contracts/BanklessWallet.sol\":4422:4439  currRecoveryRound */\n      sload(0x05)\n        /* \"contracts/BanklessWallet.sol\":4392:4440  RecoveryCancelled(msg.sender, currRecoveryRound) */\n      0x500ec1d4b692d3c788bfd78a898de379cfd93ab8177575efc7593f87bd051a07\n        /* \"contracts/BanklessWallet.sol\":4410:4420  msg.sender */\n      caller\n        /* \"contracts/BanklessWallet.sol\":4392:4440  RecoveryCancelled(msg.sender, currRecoveryRound) */\n      mload(0x40)\n      tag_109\n      swap2\n      swap1\n      tag_59\n      jump\t// in\n    tag_109:\n      mload(0x40)\n      dup1\n      swap2\n      sub\n      swap1\n      log2\n        /* \"contracts/BanklessWallet.sol\":4289:4447  function cancelRecovery() onlyOwner onlyInRecovery external {... */\n      jump\t// out\n        /* \"contracts/BanklessWallet.sol\":3429:3526  function getBalance() public view returns (uint256) {... */\n    tag_29:\n        /* \"contracts/BanklessWallet.sol\":3472:3479  uint256 */\n      0x00\n        /* \"contracts/BanklessWallet.sol\":3498:3519  address(this).balance */\n      selfbalance\n        /* \"contracts/BanklessWallet.sol\":3491:3519  return address(this).balance */\n      swap1\n      pop\n        /* \"contracts/BanklessWallet.sol\":3429:3526  function getBalance() public view returns (uint256) {... */\n      swap1\n      jump\t// out\n        /* \"contracts/BanklessWallet.sol\":754:818  mapping(address => GuardianRequest) public guardianChangeRequest */\n    tag_35:\n      mstore(0x20, 0x07)\n      dup1\n      0x00\n      mstore\n      keccak256(0x00, 0x40)\n      0x00\n      swap2\n      pop\n      swap1\n      pop\n      dup1\n      0x00\n      add\n      sload\n      swap1\n      dup1\n      0x01\n      add\n      sload\n      swap1\n      dup1\n      0x02\n      add\n      0x00\n      swap1\n      sload\n      swap1\n      0x0100\n      exp\n      swap1\n      div\n      0xff\n      and\n      swap1\n      pop\n      dup4\n      jump\t// out\n        /* \"contracts/BanklessWallet.sol\":556:622  mapping(address => RecoveryRequest) public guardianRecoveryRequest */\n    tag_40:\n      mstore(0x20, 0x06)\n      dup1\n      0x00\n      mstore\n      keccak256(0x00, 0x40)\n      0x00\n      swap2\n      pop\n      swap1\n      pop\n      dup1\n      0x00\n      add\n      0x00\n      swap1\n      sload\n      swap1\n      0x0100\n      exp\n      swap1\n      div\n      0xffffffffffffffffffffffffffffffffffffffff\n      and\n      swap1\n      dup1\n      0x01\n      add\n      sload\n      swap1\n      dup1\n      0x02\n      add\n      0x00\n      swap1\n      sload\n      swap1\n      0x0100\n      exp\n      swap1\n      div\n      0xff\n      and\n      swap1\n      pop\n      dup4\n      jump\t// out\n        /* \"contracts/BanklessWallet.sol\":253:277  uint256 public threshold */\n    tag_44:\n      sload(0x02)\n      dup2\n      jump\t// out\n        /* \"contracts/BanklessWallet.sol\":3939:4283  function supportRecovery(address _proposedOwner) onlyGuardian onlyInRecovery notInGuardianRequest external {... */\n    tag_48:\n        /* \"contracts/BanklessWallet.sol\":965:975  isGuardian */\n      0x03\n        /* \"contracts/BanklessWallet.sol\":965:1016  isGuardian[keccak256(abi.encodePacked(msg.sender))] */\n      0x00\n        /* \"contracts/BanklessWallet.sol\":1003:1013  msg.sender */\n      caller\n        /* \"contracts/BanklessWallet.sol\":986:1014  abi.encodePacked(msg.sender) */\n      add(0x20, mload(0x40))\n      tag_112\n      swap2\n      swap1\n      tag_113\n      jump\t// in\n    tag_112:\n      mload(0x40)\n      0x20\n      dup2\n      dup4\n      sub\n      sub\n      dup2\n      mstore\n      swap1\n      0x40\n      mstore\n        /* \"contracts/BanklessWallet.sol\":976:1015  keccak256(abi.encodePacked(msg.sender)) */\n      dup1\n      mload\n      swap1\n      0x20\n      add\n      keccak256\n        /* \"contracts/BanklessWallet.sol\":965:1016  isGuardian[keccak256(abi.encodePacked(msg.sender))] */\n      dup2\n      mstore\n      0x20\n      add\n      swap1\n      dup2\n      mstore\n      0x20\n      add\n      0x00\n      keccak256\n      0x00\n      swap1\n      sload\n      swap1\n      0x0100\n      exp\n      swap1\n      div\n      0xff\n      and\n        /* \"contracts/BanklessWallet.sol\":957:1061  require(isGuardian[keccak256(abi.encodePacked(msg.sender))], \"Only Guardian has access to this request\") */\n      tag_114\n      jumpi\n      mload(0x40)\n      0x08c379a000000000000000000000000000000000000000000000000000000000\n      dup2\n      mstore\n      0x04\n      add\n      tag_115\n      swap1\n      tag_116\n      jump\t// in\n    tag_115:\n      mload(0x40)\n      dup1\n      swap2\n      sub\n      swap1\n      revert\n    tag_114:\n        /* \"contracts/BanklessWallet.sol\":1234:1244  inRecovery */\n      0x04\n      0x00\n      swap1\n      sload\n      swap1\n      0x0100\n      exp\n      swap1\n      div\n      0xff\n      and\n        /* \"contracts/BanklessWallet.sol\":1226:1279  require(inRecovery, \"Wallet is not in Recovery mode\") */\n      tag_118\n      jumpi\n      mload(0x40)\n      0x08c379a000000000000000000000000000000000000000000000000000000000\n      dup2\n      mstore\n      0x04\n      add\n      tag_119\n      swap1\n      tag_107\n      jump\t// in\n    tag_119:\n      mload(0x40)\n      dup1\n      swap2\n      sub\n      swap1\n      revert\n    tag_118:\n        /* \"contracts/BanklessWallet.sol\":1353:1370  inGuardianRequest */\n      0x04\n      0x01\n      swap1\n      sload\n      swap1\n      0x0100\n      exp\n      swap1\n      div\n      0xff\n      and\n        /* \"contracts/BanklessWallet.sol\":1352:1370  !inGuardianRequest */\n      iszero\n        /* \"contracts/BanklessWallet.sol\":1344:1413  require(!inGuardianRequest, \"Existing Guardian Change Request found\") */\n      tag_121\n      jumpi\n      mload(0x40)\n      0x08c379a000000000000000000000000000000000000000000000000000000000\n      dup2\n      mstore\n      0x04\n      add\n      tag_122\n      swap1\n      tag_123\n      jump\t// in\n    tag_122:\n      mload(0x40)\n      dup1\n      swap2\n      sub\n      swap1\n      revert\n    tag_121:\n        /* \"contracts/BanklessWallet.sol\":4094:4197  RecoveryRequest(... */\n      mload(0x40)\n      dup1\n      0x60\n      add\n      0x40\n      mstore\n      dup1\n        /* \"contracts/BanklessWallet.sol\":4123:4137  _proposedOwner */\n      dup3\n        /* \"contracts/BanklessWallet.sol\":4094:4197  RecoveryRequest(... */\n      0xffffffffffffffffffffffffffffffffffffffff\n      and\n      dup2\n      mstore\n      0x20\n      add\n        /* \"contracts/BanklessWallet.sol\":4151:4168  currRecoveryRound */\n      sload(0x05)\n        /* \"contracts/BanklessWallet.sol\":4094:4197  RecoveryRequest(... */\n      dup2\n      mstore\n      0x20\n      add\n        /* \"contracts/BanklessWallet.sol\":4182:4187  false */\n      0x00\n        /* \"contracts/BanklessWallet.sol\":4094:4197  RecoveryRequest(... */\n      iszero\n      iszero\n      dup2\n      mstore\n      pop\n        /* \"contracts/BanklessWallet.sol\":4056:4079  guardianRecoveryRequest */\n      0x06\n        /* \"contracts/BanklessWallet.sol\":4056:4091  guardianRecoveryRequest[msg.sender] */\n      0x00\n        /* \"contracts/BanklessWallet.sol\":4080:4090  msg.sender */\n      caller\n        /* \"contracts/BanklessWallet.sol\":4056:4091  guardianRecoveryRequest[msg.sender] */\n      0xffffffffffffffffffffffffffffffffffffffff\n      and\n      0xffffffffffffffffffffffffffffffffffffffff\n      and\n      dup2\n      mstore\n      0x20\n      add\n      swap1\n      dup2\n      mstore\n      0x20\n      add\n      0x00\n      keccak256\n        /* \"contracts/BanklessWallet.sol\":4056:4197  guardianRecoveryRequest[msg.sender] = RecoveryRequest(... */\n      0x00\n      dup3\n      add\n      mload\n      dup2\n      0x00\n      add\n      exp(0x0100, 0x00)\n      dup2\n      sload\n      dup2\n      0xffffffffffffffffffffffffffffffffffffffff\n      mul\n      not\n      and\n      swap1\n      dup4\n      0xffffffffffffffffffffffffffffffffffffffff\n      and\n      mul\n      or\n      swap1\n      sstore\n      pop\n      0x20\n      dup3\n      add\n      mload\n      dup2\n      0x01\n      add\n      sstore\n      0x40\n      dup3\n      add\n      mload\n      dup2\n      0x02\n      add\n      exp(0x0100, 0x00)\n      dup2\n      sload\n      dup2\n      0xff\n      mul\n      not\n      and\n      swap1\n      dup4\n      iszero\n      iszero\n      mul\n      or\n      swap1\n      sstore\n      pop\n      swap1\n      pop\n      pop\n        /* \"contracts/BanklessWallet.sol\":4258:4275  currRecoveryRound */\n      sload(0x05)\n        /* \"contracts/BanklessWallet.sol\":4230:4240  msg.sender */\n      caller\n        /* \"contracts/BanklessWallet.sol\":4212:4276  RecoverySupported(msg.sender, _proposedOwner, currRecoveryRound) */\n      0xffffffffffffffffffffffffffffffffffffffff\n      and\n      0x7a0b940199ff58e943823fe8c0e916df112be357049d8105a7e83cf9a4000e4a\n        /* \"contracts/BanklessWallet.sol\":4242:4256  _proposedOwner */\n      dup4\n        /* \"contracts/BanklessWallet.sol\":4212:4276  RecoverySupported(msg.sender, _proposedOwner, currRecoveryRound) */\n      mload(0x40)\n      tag_125\n      swap2\n      swap1\n      tag_59\n      jump\t// in\n    tag_125:\n      mload(0x40)\n      dup1\n      swap2\n      sub\n      swap1\n      log3\n        /* \"contracts/BanklessWallet.sol\":3939:4283  function supportRecovery(address _proposedOwner) onlyGuardian onlyInRecovery notInGuardianRequest external {... */\n      pop\n      jump\t// out\n        /* \"contracts/BanklessWallet.sol\":5756:6257  function executeGuardianshipTransfer(address appellant) onlyOwner onlyInGuardianRequest notInRecovery external {... */\n    tag_51:\n        /* \"contracts/BanklessWallet.sol\":876:881  owner */\n      0x01\n      0x00\n      swap1\n      sload\n      swap1\n      0x0100\n      exp\n      swap1\n      div\n      0xffffffffffffffffffffffffffffffffffffffff\n      and\n        /* \"contracts/BanklessWallet.sol\":862:881  msg.sender == owner */\n      0xffffffffffffffffffffffffffffffffffffffff\n      and\n        /* \"contracts/BanklessWallet.sol\":862:872  msg.sender */\n      caller\n        /* \"contracts/BanklessWallet.sol\":862:881  msg.sender == owner */\n      0xffffffffffffffffffffffffffffffffffffffff\n      and\n      eq\n        /* \"contracts/BanklessWallet.sol\":854:900  require(msg.sender == owner, \"Not Authorized\") */\n      tag_127\n      jumpi\n      mload(0x40)\n      0x08c379a000000000000000000000000000000000000000000000000000000000\n      dup2\n      mstore\n      0x04\n      add\n      tag_128\n      swap1\n      tag_103\n      jump\t// in\n    tag_128:\n      mload(0x40)\n      dup1\n      swap2\n      sub\n      swap1\n      revert\n    tag_127:\n        /* \"contracts/BanklessWallet.sol\":1487:1504  inGuardianRequest */\n      0x04\n      0x01\n      swap1\n      sload\n      swap1\n      0x0100\n      exp\n      swap1\n      div\n      0xff\n      and\n        /* \"contracts/BanklessWallet.sol\":1479:1542  require(inGuardianRequest, \"No Current Guardian Request found\") */\n      tag_130\n      jumpi\n      mload(0x40)\n      0x08c379a000000000000000000000000000000000000000000000000000000000\n      dup2\n      mstore\n      0x04\n      add\n      tag_131\n      swap1\n      tag_132\n      jump\t// in\n    tag_131:\n      mload(0x40)\n      dup1\n      swap2\n      sub\n      swap1\n      revert\n    tag_130:\n        /* \"contracts/BanklessWallet.sol\":1127:1137  inRecovery */\n      0x04\n      0x00\n      swap1\n      sload\n      swap1\n      0x0100\n      exp\n      swap1\n      div\n      0xff\n      and\n        /* \"contracts/BanklessWallet.sol\":1126:1137  !inRecovery */\n      iszero\n        /* \"contracts/BanklessWallet.sol\":1118:1168  require(!inRecovery, \"Wallet is in Recovery mode\") */\n      tag_134\n      jumpi\n      mload(0x40)\n      0x08c379a000000000000000000000000000000000000000000000000000000000\n      dup2\n      mstore\n      0x04\n      add\n      tag_135\n      swap1\n      tag_136\n      jump\t// in\n    tag_135:\n      mload(0x40)\n      dup1\n      swap2\n      sub\n      swap1\n      revert\n    tag_134:\n        /* \"contracts/BanklessWallet.sol\":5877:5907  GuardianRequest memory request */\n      0x00\n        /* \"contracts/BanklessWallet.sol\":5910:5931  guardianChangeRequest */\n      0x07\n        /* \"contracts/BanklessWallet.sol\":5910:5942  guardianChangeRequest[appellant] */\n      0x00\n        /* \"contracts/BanklessWallet.sol\":5932:5941  appellant */\n      dup4\n        /* \"contracts/BanklessWallet.sol\":5910:5942  guardianChangeRequest[appellant] */\n      0xffffffffffffffffffffffffffffffffffffffff\n      and\n      0xffffffffffffffffffffffffffffffffffffffff\n      and\n      dup2\n      mstore\n      0x20\n      add\n      swap1\n      dup2\n      mstore\n      0x20\n      add\n      0x00\n      keccak256\n        /* \"contracts/BanklessWallet.sol\":5877:5942  GuardianRequest memory request = guardianChangeRequest[appellant] */\n      mload(0x40)\n      dup1\n      0x60\n      add\n      0x40\n      mstore\n      swap1\n      dup2\n      0x00\n      dup3\n      add\n      sload\n      dup2\n      mstore\n      0x20\n      add\n      0x01\n      dup3\n      add\n      sload\n      dup2\n      mstore\n      0x20\n      add\n      0x02\n      dup3\n      add\n      0x00\n      swap1\n      sload\n      swap1\n      0x0100\n      exp\n      swap1\n      div\n      0xff\n      and\n      iszero\n      iszero\n      iszero\n      iszero\n      dup2\n      mstore\n      pop\n      pop\n      swap1\n      pop\n        /* \"contracts/BanklessWallet.sol\":5961:5968  request */\n      dup1\n        /* \"contracts/BanklessWallet.sol\":5961:5975  request.isUsed */\n      0x40\n      add\n      mload\n        /* \"contracts/BanklessWallet.sol\":5960:5975  !request.isUsed */\n      iszero\n        /* \"contracts/BanklessWallet.sol\":5952:6012  require(!request.isUsed, \"Guardian Request is already Used\") */\n      tag_138\n      jumpi\n      mload(0x40)\n      0x08c379a000000000000000000000000000000000000000000000000000000000\n      dup2\n      mstore\n      0x04\n      add\n      tag_139\n      swap1\n      tag_140\n      jump\t// in\n    tag_139:\n      mload(0x40)\n      dup1\n      swap2\n      sub\n      swap1\n      revert\n    tag_138:\n        /* \"contracts/BanklessWallet.sol\":6062:6066  true */\n      0x01\n        /* \"contracts/BanklessWallet.sol\":6023:6033  isGuardian */\n      0x03\n        /* \"contracts/BanklessWallet.sol\":6023:6059  isGuardian[request.proposedGuardian] */\n      0x00\n        /* \"contracts/BanklessWallet.sol\":6034:6041  request */\n      dup4\n        /* \"contracts/BanklessWallet.sol\":6034:6058  request.proposedGuardian */\n      0x00\n      add\n      mload\n        /* \"contracts/BanklessWallet.sol\":6023:6059  isGuardian[request.proposedGuardian] */\n      dup2\n      mstore\n      0x20\n      add\n      swap1\n      dup2\n      mstore\n      0x20\n      add\n      0x00\n      keccak256\n      0x00\n        /* \"contracts/BanklessWallet.sol\":6023:6066  isGuardian[request.proposedGuardian] = true */\n      0x0100\n      exp\n      dup2\n      sload\n      dup2\n      0xff\n      mul\n      not\n      and\n      swap1\n      dup4\n      iszero\n      iszero\n      mul\n      or\n      swap1\n      sstore\n      pop\n        /* \"contracts/BanklessWallet.sol\":6115:6120  false */\n      0x00\n        /* \"contracts/BanklessWallet.sol\":6076:6086  isGuardian */\n      0x03\n        /* \"contracts/BanklessWallet.sol\":6076:6112  isGuardian[request.guardianToChange] */\n      0x00\n        /* \"contracts/BanklessWallet.sol\":6087:6094  request */\n      dup4\n        /* \"contracts/BanklessWallet.sol\":6087:6111  request.guardianToChange */\n      0x20\n      add\n      mload\n        /* \"contracts/BanklessWallet.sol\":6076:6112  isGuardian[request.guardianToChange] */\n      dup2\n      mstore\n      0x20\n      add\n      swap1\n      dup2\n      mstore\n      0x20\n      add\n      0x00\n      keccak256\n      0x00\n        /* \"contracts/BanklessWallet.sol\":6076:6120  isGuardian[request.guardianToChange] = false */\n      0x0100\n      exp\n      dup2\n      sload\n      dup2\n      0xff\n      mul\n      not\n      and\n      swap1\n      dup4\n      iszero\n      iszero\n      mul\n      or\n      swap1\n      sstore\n      pop\n        /* \"contracts/BanklessWallet.sol\":6150:6155  false */\n      0x00\n        /* \"contracts/BanklessWallet.sol\":6130:6147  inGuardianRequest */\n      0x04\n      0x01\n        /* \"contracts/BanklessWallet.sol\":6130:6155  inGuardianRequest = false */\n      0x0100\n      exp\n      dup2\n      sload\n      dup2\n      0xff\n      mul\n      not\n      and\n      swap1\n      dup4\n      iszero\n      iszero\n      mul\n      or\n      swap1\n      sstore\n      pop\n        /* \"contracts/BanklessWallet.sol\":6199:6206  request */\n      dup1\n        /* \"contracts/BanklessWallet.sol\":6199:6223  request.proposedGuardian */\n      0x00\n      add\n      mload\n        /* \"contracts/BanklessWallet.sol\":6170:6250  GuardianshipTransferExecuted(request.proposedGuardian, request.guardianToChange) */\n      0x1935df56423daeebb7957dec11c3179bf5a7699c6738c6f158bbfa0ffa6767d9\n        /* \"contracts/BanklessWallet.sol\":6225:6232  request */\n      dup3\n        /* \"contracts/BanklessWallet.sol\":6225:6249  request.guardianToChange */\n      0x20\n      add\n      mload\n        /* \"contracts/BanklessWallet.sol\":6170:6250  GuardianshipTransferExecuted(request.proposedGuardian, request.guardianToChange) */\n      mload(0x40)\n      tag_141\n      swap2\n      swap1\n      tag_142\n      jump\t// in\n    tag_141:\n      mload(0x40)\n      dup1\n      swap2\n      sub\n      swap1\n      log2\n        /* \"contracts/BanklessWallet.sol\":5867:6257  {... */\n      pop\n        /* \"contracts/BanklessWallet.sol\":5756:6257  function executeGuardianshipTransfer(address appellant) onlyOwner onlyInGuardianRequest notInRecovery external {... */\n      pop\n      jump\t// out\n        /* \"contracts/BanklessWallet.sol\":4453:5337  function executeRecovery(address newOwner, address[] calldata guardianList) onlyGuardian onlyInRecovery notInGuardianRequest external {... */\n    tag_55:\n        /* \"contracts/BanklessWallet.sol\":965:975  isGuardian */\n      0x03\n        /* \"contracts/BanklessWallet.sol\":965:1016  isGuardian[keccak256(abi.encodePacked(msg.sender))] */\n      0x00\n        /* \"contracts/BanklessWallet.sol\":1003:1013  msg.sender */\n      caller\n        /* \"contracts/BanklessWallet.sol\":986:1014  abi.encodePacked(msg.sender) */\n      add(0x20, mload(0x40))\n      tag_144\n      swap2\n      swap1\n      tag_113\n      jump\t// in\n    tag_144:\n      mload(0x40)\n      0x20\n      dup2\n      dup4\n      sub\n      sub\n      dup2\n      mstore\n      swap1\n      0x40\n      mstore\n        /* \"contracts/BanklessWallet.sol\":976:1015  keccak256(abi.encodePacked(msg.sender)) */\n      dup1\n      mload\n      swap1\n      0x20\n      add\n      keccak256\n        /* \"contracts/BanklessWallet.sol\":965:1016  isGuardian[keccak256(abi.encodePacked(msg.sender))] */\n      dup2\n      mstore\n      0x20\n      add\n      swap1\n      dup2\n      mstore\n      0x20\n      add\n      0x00\n      keccak256\n      0x00\n      swap1\n      sload\n      swap1\n      0x0100\n      exp\n      swap1\n      div\n      0xff\n      and\n        /* \"contracts/BanklessWallet.sol\":957:1061  require(isGuardian[keccak256(abi.encodePacked(msg.sender))], \"Only Guardian has access to this request\") */\n      tag_145\n      jumpi\n      mload(0x40)\n      0x08c379a000000000000000000000000000000000000000000000000000000000\n      dup2\n      mstore\n      0x04\n      add\n      tag_146\n      swap1\n      tag_116\n      jump\t// in\n    tag_146:\n      mload(0x40)\n      dup1\n      swap2\n      sub\n      swap1\n      revert\n    tag_145:\n        /* \"contracts/BanklessWallet.sol\":1234:1244  inRecovery */\n      0x04\n      0x00\n      swap1\n      sload\n      swap1\n      0x0100\n      exp\n      swap1\n      div\n      0xff\n      and\n        /* \"contracts/BanklessWallet.sol\":1226:1279  require(inRecovery, \"Wallet is not in Recovery mode\") */\n      tag_148\n      jumpi\n      mload(0x40)\n      0x08c379a000000000000000000000000000000000000000000000000000000000\n      dup2\n      mstore\n      0x04\n      add\n      tag_149\n      swap1\n      tag_107\n      jump\t// in\n    tag_149:\n      mload(0x40)\n      dup1\n      swap2\n      sub\n      swap1\n      revert\n    tag_148:\n        /* \"contracts/BanklessWallet.sol\":1353:1370  inGuardianRequest */\n      0x04\n      0x01\n      swap1\n      sload\n      swap1\n      0x0100\n      exp\n      swap1\n      div\n      0xff\n      and\n        /* \"contracts/BanklessWallet.sol\":1352:1370  !inGuardianRequest */\n      iszero\n        /* \"contracts/BanklessWallet.sol\":1344:1413  require(!inGuardianRequest, \"Existing Guardian Change Request found\") */\n      tag_151\n      jumpi\n      mload(0x40)\n      0x08c379a000000000000000000000000000000000000000000000000000000000\n      dup2\n      mstore\n      0x04\n      add\n      tag_152\n      swap1\n      tag_123\n      jump\t// in\n    tag_152:\n      mload(0x40)\n      dup1\n      swap2\n      sub\n      swap1\n      revert\n    tag_151:\n        /* \"contracts/BanklessWallet.sol\":4628:4637  threshold */\n      sload(0x02)\n        /* \"contracts/BanklessWallet.sol\":4605:4617  guardianList */\n      dup3\n      dup3\n        /* \"contracts/BanklessWallet.sol\":4605:4624  guardianList.length */\n      swap1\n      pop\n        /* \"contracts/BanklessWallet.sol\":4605:4637  guardianList.length >= threshold */\n      lt\n      iszero\n        /* \"contracts/BanklessWallet.sol\":4597:4687  require(guardianList.length >= threshold, \"more guardians required to transfer ownership\") */\n      tag_154\n      jumpi\n      mload(0x40)\n      0x08c379a000000000000000000000000000000000000000000000000000000000\n      dup2\n      mstore\n      0x04\n      add\n      tag_155\n      swap1\n      tag_156\n      jump\t// in\n    tag_155:\n      mload(0x40)\n      dup1\n      swap2\n      sub\n      swap1\n      revert\n    tag_154:\n        /* \"contracts/BanklessWallet.sol\":4702:4708  uint i */\n      0x00\n        /* \"contracts/BanklessWallet.sol\":4697:5170  for (uint i = 0; i < guardianList.length; i++) {... */\n    tag_157:\n        /* \"contracts/BanklessWallet.sol\":4718:4730  guardianList */\n      dup3\n      dup3\n        /* \"contracts/BanklessWallet.sol\":4718:4737  guardianList.length */\n      swap1\n      pop\n        /* \"contracts/BanklessWallet.sol\":4714:4715  i */\n      dup2\n        /* \"contracts/BanklessWallet.sol\":4714:4737  i < guardianList.length */\n      lt\n        /* \"contracts/BanklessWallet.sol\":4697:5170  for (uint i = 0; i < guardianList.length; i++) {... */\n      iszero\n      tag_158\n      jumpi\n        /* \"contracts/BanklessWallet.sol\":4771:4801  RecoveryRequest memory request */\n      0x00\n        /* \"contracts/BanklessWallet.sol\":4804:4827  guardianRecoveryRequest */\n      0x06\n        /* \"contracts/BanklessWallet.sol\":4804:4844  guardianRecoveryRequest[guardianList[i]] */\n      0x00\n        /* \"contracts/BanklessWallet.sol\":4828:4840  guardianList */\n      dup6\n      dup6\n        /* \"contracts/BanklessWallet.sol\":4841:4842  i */\n      dup6\n        /* \"contracts/BanklessWallet.sol\":4828:4843  guardianList[i] */\n      dup2\n      dup2\n      lt\n      tag_160\n      jumpi\n      tag_161\n      tag_162\n      jump\t// in\n    tag_161:\n    tag_160:\n      swap1\n      pop\n      0x20\n      mul\n      add\n      0x20\n      dup2\n      add\n      swap1\n      tag_163\n      swap2\n      swap1\n      tag_34\n      jump\t// in\n    tag_163:\n        /* \"contracts/BanklessWallet.sol\":4804:4844  guardianRecoveryRequest[guardianList[i]] */\n      0xffffffffffffffffffffffffffffffffffffffff\n      and\n      0xffffffffffffffffffffffffffffffffffffffff\n      and\n      dup2\n      mstore\n      0x20\n      add\n      swap1\n      dup2\n      mstore\n      0x20\n      add\n      0x00\n      keccak256\n        /* \"contracts/BanklessWallet.sol\":4771:4844  RecoveryRequest memory request = guardianRecoveryRequest[guardianList[i]] */\n      mload(0x40)\n      dup1\n      0x60\n      add\n      0x40\n      mstore\n      swap1\n      dup2\n      0x00\n      dup3\n      add\n      0x00\n      swap1\n      sload\n      swap1\n      0x0100\n      exp\n      swap1\n      div\n      0xffffffffffffffffffffffffffffffffffffffff\n      and\n      0xffffffffffffffffffffffffffffffffffffffff\n      and\n      0xffffffffffffffffffffffffffffffffffffffff\n      and\n      dup2\n      mstore\n      0x20\n      add\n      0x01\n      dup3\n      add\n      sload\n      dup2\n      mstore\n      0x20\n      add\n      0x02\n      dup3\n      add\n      0x00\n      swap1\n      sload\n      swap1\n      0x0100\n      exp\n      swap1\n      div\n      0xff\n      and\n      iszero\n      iszero\n      iszero\n      iszero\n      dup2\n      mstore\n      pop\n      pop\n      swap1\n      pop\n        /* \"contracts/BanklessWallet.sol\":4892:4909  currRecoveryRound */\n      sload(0x05)\n        /* \"contracts/BanklessWallet.sol\":4867:4874  request */\n      dup2\n        /* \"contracts/BanklessWallet.sol\":4867:4888  request.recoveryRound */\n      0x20\n      add\n      mload\n        /* \"contracts/BanklessWallet.sol\":4867:4909  request.recoveryRound == currRecoveryRound */\n      eq\n        /* \"contracts/BanklessWallet.sol\":4859:4928  require(request.recoveryRound == currRecoveryRound, \"round mismatch\") */\n      tag_164\n      jumpi\n      mload(0x40)\n      0x08c379a000000000000000000000000000000000000000000000000000000000\n      dup2\n      mstore\n      0x04\n      add\n      tag_165\n      swap1\n      tag_166\n      jump\t// in\n    tag_165:\n      mload(0x40)\n      dup1\n      swap2\n      sub\n      swap1\n      revert\n    tag_164:\n        /* \"contracts/BanklessWallet.sol\":4975:4983  newOwner */\n      dup5\n        /* \"contracts/BanklessWallet.sol\":4950:4983  request.proposedOwner == newOwner */\n      0xffffffffffffffffffffffffffffffffffffffff\n      and\n        /* \"contracts/BanklessWallet.sol\":4950:4957  request */\n      dup2\n        /* \"contracts/BanklessWallet.sol\":4950:4971  request.proposedOwner */\n      0x00\n      add\n      mload\n        /* \"contracts/BanklessWallet.sol\":4950:4983  request.proposedOwner == newOwner */\n      0xffffffffffffffffffffffffffffffffffffffff\n      and\n      eq\n        /* \"contracts/BanklessWallet.sol\":4942:5013  require(request.proposedOwner == newOwner, \"disagreement on new owner\") */\n      tag_167\n      jumpi\n      mload(0x40)\n      0x08c379a000000000000000000000000000000000000000000000000000000000\n      dup2\n      mstore\n      0x04\n      add\n      tag_168\n      swap1\n      tag_169\n      jump\t// in\n    tag_168:\n      mload(0x40)\n      dup1\n      swap2\n      sub\n      swap1\n      revert\n    tag_167:\n        /* \"contracts/BanklessWallet.sol\":5036:5043  request */\n      dup1\n        /* \"contracts/BanklessWallet.sol\":5036:5050  request.isUsed */\n      0x40\n      add\n      mload\n        /* \"contracts/BanklessWallet.sol\":5035:5050  !request.isUsed */\n      iszero\n        /* \"contracts/BanklessWallet.sol\":5027:5090  require(!request.isUsed, \"duplicate guardian used in recovery\") */\n      tag_170\n      jumpi\n      mload(0x40)\n      0x08c379a000000000000000000000000000000000000000000000000000000000\n      dup2\n      mstore\n      0x04\n      add\n      tag_171\n      swap1\n      tag_172\n      jump\t// in\n    tag_171:\n      mload(0x40)\n      dup1\n      swap2\n      sub\n      swap1\n      revert\n    tag_170:\n        /* \"contracts/BanklessWallet.sol\":5155:5159  true */\n      0x01\n        /* \"contracts/BanklessWallet.sol\":5105:5128  guardianRecoveryRequest */\n      0x06\n        /* \"contracts/BanklessWallet.sol\":5105:5145  guardianRecoveryRequest[guardianList[i]] */\n      0x00\n        /* \"contracts/BanklessWallet.sol\":5129:5141  guardianList */\n      dup7\n      dup7\n        /* \"contracts/BanklessWallet.sol\":5142:5143  i */\n      dup7\n        /* \"contracts/BanklessWallet.sol\":5129:5144  guardianList[i] */\n      dup2\n      dup2\n      lt\n      tag_173\n      jumpi\n      tag_174\n      tag_162\n      jump\t// in\n    tag_174:\n    tag_173:\n      swap1\n      pop\n      0x20\n      mul\n      add\n      0x20\n      dup2\n      add\n      swap1\n      tag_175\n      swap2\n      swap1\n      tag_34\n      jump\t// in\n    tag_175:\n        /* \"contracts/BanklessWallet.sol\":5105:5145  guardianRecoveryRequest[guardianList[i]] */\n      0xffffffffffffffffffffffffffffffffffffffff\n      and\n      0xffffffffffffffffffffffffffffffffffffffff\n      and\n      dup2\n      mstore\n      0x20\n      add\n      swap1\n      dup2\n      mstore\n      0x20\n      add\n      0x00\n      keccak256\n        /* \"contracts/BanklessWallet.sol\":5105:5152  guardianRecoveryRequest[guardianList[i]].isUsed */\n      0x02\n      add\n      0x00\n        /* \"contracts/BanklessWallet.sol\":5105:5159  guardianRecoveryRequest[guardianList[i]].isUsed = true */\n      0x0100\n      exp\n      dup2\n      sload\n      dup2\n      0xff\n      mul\n      not\n      and\n      swap1\n      dup4\n      iszero\n      iszero\n      mul\n      or\n      swap1\n      sstore\n      pop\n        /* \"contracts/BanklessWallet.sol\":4744:5170  {... */\n      pop\n        /* \"contracts/BanklessWallet.sol\":4739:4742  i++ */\n      dup1\n      dup1\n      tag_176\n      swap1\n      tag_177\n      jump\t// in\n    tag_176:\n      swap2\n      pop\n      pop\n        /* \"contracts/BanklessWallet.sol\":4697:5170  for (uint i = 0; i < guardianList.length; i++) {... */\n      jump(tag_157)\n    tag_158:\n      pop\n        /* \"contracts/BanklessWallet.sol\":5193:5198  false */\n      0x00\n        /* \"contracts/BanklessWallet.sol\":5180:5190  inRecovery */\n      0x04\n      0x00\n        /* \"contracts/BanklessWallet.sol\":5180:5198  inRecovery = false */\n      0x0100\n      exp\n      dup2\n      sload\n      dup2\n      0xff\n      mul\n      not\n      and\n      swap1\n      dup4\n      iszero\n      iszero\n      mul\n      or\n      swap1\n      sstore\n      pop\n        /* \"contracts/BanklessWallet.sol\":5208:5225  address _oldOwner */\n      0x00\n        /* \"contracts/BanklessWallet.sol\":5228:5233  owner */\n      0x01\n      0x00\n      swap1\n      sload\n      swap1\n      0x0100\n      exp\n      swap1\n      div\n      0xffffffffffffffffffffffffffffffffffffffff\n      and\n        /* \"contracts/BanklessWallet.sol\":5208:5233  address _oldOwner = owner */\n      swap1\n      pop\n        /* \"contracts/BanklessWallet.sol\":5251:5259  newOwner */\n      dup4\n        /* \"contracts/BanklessWallet.sol\":5243:5248  owner */\n      0x01\n      0x00\n        /* \"contracts/BanklessWallet.sol\":5243:5259  owner = newOwner */\n      0x0100\n      exp\n      dup2\n      sload\n      dup2\n      0xffffffffffffffffffffffffffffffffffffffff\n      mul\n      not\n      and\n      swap1\n      dup4\n      0xffffffffffffffffffffffffffffffffffffffff\n      and\n      mul\n      or\n      swap1\n      sstore\n      pop\n        /* \"contracts/BanklessWallet.sol\":5312:5329  currRecoveryRound */\n      sload(0x05)\n        /* \"contracts/BanklessWallet.sol\":5274:5330  RecoveryExecuted(_oldOwner, newOwner, currRecoveryRound) */\n      0xcbaa7c7c351e2d5655fc08d9c383adcf4736af160c800b53df1f1dd221f826c8\n        /* \"contracts/BanklessWallet.sol\":5291:5300  _oldOwner */\n      dup3\n        /* \"contracts/BanklessWallet.sol\":5302:5310  newOwner */\n      dup7\n        /* \"contracts/BanklessWallet.sol\":5274:5330  RecoveryExecuted(_oldOwner, newOwner, currRecoveryRound) */\n      mload(0x40)\n      tag_178\n      swap3\n      swap2\n      swap1\n      tag_179\n      jump\t// in\n    tag_178:\n      mload(0x40)\n      dup1\n      swap2\n      sub\n      swap1\n      log2\n        /* \"contracts/BanklessWallet.sol\":4587:5337  {... */\n      pop\n        /* \"contracts/BanklessWallet.sol\":4453:5337  function executeRecovery(address newOwner, address[] calldata guardianList) onlyGuardian onlyInRecovery notInGuardianRequest external {... */\n      pop\n      pop\n      pop\n      jump\t// out\n        /* \"contracts/BanklessWallet.sol\":226:246  address public owner */\n    tag_57:\n      0x01\n      0x00\n      swap1\n      sload\n      swap1\n      0x0100\n      exp\n      swap1\n      div\n      0xffffffffffffffffffffffffffffffffffffffff\n      and\n      dup2\n      jump\t// out\n        /* \"contracts/BanklessWallet.sol\":3085:3423  function executeTx(address callee, uint256 value, bytes memory data) external onlyOwner nonReentrant returns(bytes memory){... */\n    tag_63:\n        /* \"contracts/BanklessWallet.sol\":3194:3206  bytes memory */\n      0x60\n        /* \"contracts/BanklessWallet.sol\":876:881  owner */\n      0x01\n      0x00\n      swap1\n      sload\n      swap1\n      0x0100\n      exp\n      swap1\n      div\n      0xffffffffffffffffffffffffffffffffffffffff\n      and\n        /* \"contracts/BanklessWallet.sol\":862:881  msg.sender == owner */\n      0xffffffffffffffffffffffffffffffffffffffff\n      and\n        /* \"contracts/BanklessWallet.sol\":862:872  msg.sender */\n      caller\n        /* \"contracts/BanklessWallet.sol\":862:881  msg.sender == owner */\n      0xffffffffffffffffffffffffffffffffffffffff\n      and\n      eq\n        /* \"contracts/BanklessWallet.sol\":854:900  require(msg.sender == owner, \"Not Authorized\") */\n      tag_181\n      jumpi\n      mload(0x40)\n      0x08c379a000000000000000000000000000000000000000000000000000000000\n      dup2\n      mstore\n      0x04\n      add\n      tag_182\n      swap1\n      tag_103\n      jump\t// in\n    tag_182:\n      mload(0x40)\n      dup1\n      swap2\n      sub\n      swap1\n      revert\n    tag_181:\n        /* \"https://github.com/OpenZeppelin/openzeppelin-contracts/blob/master/contracts/utils/ReentrancyGuard.sol\":2356:2377  _nonReentrantBefore() */\n      tag_184\n        /* \"https://github.com/OpenZeppelin/openzeppelin-contracts/blob/master/contracts/utils/ReentrancyGuard.sol\":2356:2375  _nonReentrantBefore */\n      tag_185\n        /* \"https://github.com/OpenZeppelin/openzeppelin-contracts/blob/master/contracts/utils/ReentrancyGuard.sol\":2356:2377  _nonReentrantBefore() */\n      jump\t// in\n    tag_184:\n        /* \"contracts/BanklessWallet.sol\":3218:3230  bool success */\n      0x00\n        /* \"contracts/BanklessWallet.sol\":3232:3251  bytes memory result */\n      dup1\n        /* \"contracts/BanklessWallet.sol\":3255:3261  callee */\n      dup6\n        /* \"contracts/BanklessWallet.sol\":3255:3266  callee.call */\n      0xffffffffffffffffffffffffffffffffffffffff\n      and\n        /* \"contracts/BanklessWallet.sol\":3274:3279  value */\n      dup6\n        /* \"contracts/BanklessWallet.sol\":3281:3285  data */\n      dup6\n        /* \"contracts/BanklessWallet.sol\":3255:3286  callee.call{value: value}(data) */\n      mload(0x40)\n      tag_187\n      swap2\n      swap1\n      tag_188\n      jump\t// in\n    tag_187:\n      0x00\n      mload(0x40)\n      dup1\n      dup4\n      sub\n      dup2\n      dup6\n      dup8\n      gas\n      call\n      swap3\n      pop\n      pop\n      pop\n      returndatasize\n      dup1\n      0x00\n      dup2\n      eq\n      tag_191\n      jumpi\n      mload(0x40)\n      swap2\n      pop\n      and(add(returndatasize, 0x3f), not(0x1f))\n      dup3\n      add\n      0x40\n      mstore\n      returndatasize\n      dup3\n      mstore\n      returndatasize\n      0x00\n      0x20\n      dup5\n      add\n      returndatacopy\n      jump(tag_190)\n    tag_191:\n      0x60\n      swap2\n      pop\n    tag_190:\n      pop\n        /* \"contracts/BanklessWallet.sol\":3217:3286  (bool success, bytes memory result) = callee.call{value: value}(data) */\n      swap2\n      pop\n      swap2\n      pop\n        /* \"contracts/BanklessWallet.sol\":3304:3311  success */\n      dup2\n        /* \"contracts/BanklessWallet.sol\":3296:3338  require(success, \"Contract Call Reverted\") */\n      tag_192\n      jumpi\n      mload(0x40)\n      0x08c379a000000000000000000000000000000000000000000000000000000000\n      dup2\n      mstore\n      0x04\n      add\n      tag_193\n      swap1\n      tag_194\n      jump\t// in\n    tag_193:\n      mload(0x40)\n      dup1\n      swap2\n      sub\n      swap1\n      revert\n    tag_192:\n        /* \"contracts/BanklessWallet.sol\":3373:3379  callee */\n      dup6\n        /* \"contracts/BanklessWallet.sol\":3353:3393  TransactionExecuted(callee, value, data) */\n      0xffffffffffffffffffffffffffffffffffffffff\n      and\n      0x47d99ad340f52da66535aff7e10da1ceb85a32bcbd9fa1c42314d194545e14d2\n        /* \"contracts/BanklessWallet.sol\":3381:3386  value */\n      dup7\n        /* \"contracts/BanklessWallet.sol\":3388:3392  data */\n      dup7\n        /* \"contracts/BanklessWallet.sol\":3353:3393  TransactionExecuted(callee, value, data) */\n      mload(0x40)\n      tag_195\n      swap3\n      swap2\n      swap1\n      tag_196\n      jump\t// in\n    tag_195:\n      mload(0x40)\n      dup1\n      swap2\n      sub\n      swap1\n      log2\n        /* \"contracts/BanklessWallet.sol\":3410:3416  result */\n      dup1\n        /* \"contracts/BanklessWallet.sol\":3403:3416  return result */\n      swap3\n      pop\n      pop\n      pop\n        /* \"https://github.com/OpenZeppelin/openzeppelin-contracts/blob/master/contracts/utils/ReentrancyGuard.sol\":2398:2418  _nonReentrantAfter() */\n      tag_197\n        /* \"https://github.com/OpenZeppelin/openzeppelin-contracts/blob/master/contracts/utils/ReentrancyGuard.sol\":2398:2416  _nonReentrantAfter */\n      tag_198\n        /* \"https://github.com/OpenZeppelin/openzeppelin-contracts/blob/master/contracts/utils/ReentrancyGuard.sol\":2398:2418  _nonReentrantAfter() */\n      jump\t// in\n    tag_197:\n        /* \"contracts/BanklessWallet.sol\":3085:3423  function executeTx(address callee, uint256 value, bytes memory data) external onlyOwner nonReentrant returns(bytes memory){... */\n      swap4\n      swap3\n      pop\n      pop\n      pop\n      jump\t// out\n        /* \"contracts/BanklessWallet.sol\":362:391  bool public inGuardianRequest */\n    tag_67:\n      0x04\n      0x01\n      swap1\n      sload\n      swap1\n      0x0100\n      exp\n      swap1\n      div\n      0xff\n      and\n      dup2\n      jump\t// out\n        /* \"contracts/BanklessWallet.sol\":6753:6900  function revealGuardianIdentity() onlyGuardian external {... */\n    tag_71:\n        /* \"contracts/BanklessWallet.sol\":965:975  isGuardian */\n      0x03\n        /* \"contracts/BanklessWallet.sol\":965:1016  isGuardian[keccak256(abi.encodePacked(msg.sender))] */\n      0x00\n        /* \"contracts/BanklessWallet.sol\":1003:1013  msg.sender */\n      caller\n        /* \"contracts/BanklessWallet.sol\":986:1014  abi.encodePacked(msg.sender) */\n      add(0x20, mload(0x40))\n      tag_200\n      swap2\n      swap1\n      tag_113\n      jump\t// in\n    tag_200:\n      mload(0x40)\n      0x20\n      dup2\n      dup4\n      sub\n      sub\n      dup2\n      mstore\n      swap1\n      0x40\n      mstore\n        /* \"contracts/BanklessWallet.sol\":976:1015  keccak256(abi.encodePacked(msg.sender)) */\n      dup1\n      mload\n      swap1\n      0x20\n      add\n      keccak256\n        /* \"contracts/BanklessWallet.sol\":965:1016  isGuardian[keccak256(abi.encodePacked(msg.sender))] */\n      dup2\n      mstore\n      0x20\n      add\n      swap1\n      dup2\n      mstore\n      0x20\n      add\n      0x00\n      keccak256\n      0x00\n      swap1\n      sload\n      swap1\n      0x0100\n      exp\n      swap1\n      div\n      0xff\n      and\n        /* \"contracts/BanklessWallet.sol\":957:1061  require(isGuardian[keccak256(abi.encodePacked(msg.sender))], \"Only Guardian has access to this request\") */\n      tag_201\n      jumpi\n      mload(0x40)\n      0x08c379a000000000000000000000000000000000000000000000000000000000\n      dup2\n      mstore\n      0x04\n      add\n      tag_202\n      swap1\n      tag_116\n      jump\t// in\n    tag_202:\n      mload(0x40)\n      dup1\n      swap2\n      sub\n      swap1\n      revert\n    tag_201:\n        /* \"contracts/BanklessWallet.sol\":6882:6892  msg.sender */\n      caller\n        /* \"contracts/BanklessWallet.sol\":6824:6893  GuardianRevealed(keccak256(abi.encodePacked(msg.sender)), msg.sender) */\n      0xffffffffffffffffffffffffffffffffffffffff\n      and\n        /* \"contracts/BanklessWallet.sol\":6868:6878  msg.sender */\n      caller\n        /* \"contracts/BanklessWallet.sol\":6851:6879  abi.encodePacked(msg.sender) */\n      add(0x20, mload(0x40))\n      tag_204\n      swap2\n      swap1\n      tag_113\n      jump\t// in\n    tag_204:\n      mload(0x40)\n      0x20\n      dup2\n      dup4\n      sub\n      sub\n      dup2\n      mstore\n      swap1\n      0x40\n      mstore\n        /* \"contracts/BanklessWallet.sol\":6841:6880  keccak256(abi.encodePacked(msg.sender)) */\n      dup1\n      mload\n      swap1\n      0x20\n      add\n      keccak256\n        /* \"contracts/BanklessWallet.sol\":6824:6893  GuardianRevealed(keccak256(abi.encodePacked(msg.sender)), msg.sender) */\n      0xaeee4dc34642964bd6d8194b8689894338b209de063b46447e53fe54d54eb99b\n      mload(0x40)\n      mload(0x40)\n      dup1\n      swap2\n      sub\n      swap1\n      log3\n        /* \"contracts/BanklessWallet.sol\":6753:6900  function revealGuardianIdentity() onlyGuardian external {... */\n      jump\t// out\n        /* \"contracts/BanklessWallet.sol\":6263:6454  function cancelGuardianshipTransfer() onlyOwner onlyInGuardianRequest notInRecovery external {... */\n    tag_73:\n        /* \"contracts/BanklessWallet.sol\":876:881  owner */\n      0x01\n      0x00\n      swap1\n      sload\n      swap1\n      0x0100\n      exp\n      swap1\n      div\n      0xffffffffffffffffffffffffffffffffffffffff\n      and\n        /* \"contracts/BanklessWallet.sol\":862:881  msg.sender == owner */\n      0xffffffffffffffffffffffffffffffffffffffff\n      and\n        /* \"contracts/BanklessWallet.sol\":862:872  msg.sender */\n      caller\n        /* \"contracts/BanklessWallet.sol\":862:881  msg.sender == owner */\n      0xffffffffffffffffffffffffffffffffffffffff\n      and\n      eq\n        /* \"contracts/BanklessWallet.sol\":854:900  require(msg.sender == owner, \"Not Authorized\") */\n      tag_206\n      jumpi\n      mload(0x40)\n      0x08c379a000000000000000000000000000000000000000000000000000000000\n      dup2\n      mstore\n      0x04\n      add\n      tag_207\n      swap1\n      tag_103\n      jump\t// in\n    tag_207:\n      mload(0x40)\n      dup1\n      swap2\n      sub\n      swap1\n      revert\n    tag_206:\n        /* \"contracts/BanklessWallet.sol\":1487:1504  inGuardianRequest */\n      0x04\n      0x01\n      swap1\n      sload\n      swap1\n      0x0100\n      exp\n      swap1\n      div\n      0xff\n      and\n        /* \"contracts/BanklessWallet.sol\":1479:1542  require(inGuardianRequest, \"No Current Guardian Request found\") */\n      tag_209\n      jumpi\n      mload(0x40)\n      0x08c379a000000000000000000000000000000000000000000000000000000000\n      dup2\n      mstore\n      0x04\n      add\n      tag_210\n      swap1\n      tag_132\n      jump\t// in\n    tag_210:\n      mload(0x40)\n      dup1\n      swap2\n      sub\n      swap1\n      revert\n    tag_209:\n        /* \"contracts/BanklessWallet.sol\":1127:1137  inRecovery */\n      0x04\n      0x00\n      swap1\n      sload\n      swap1\n      0x0100\n      exp\n      swap1\n      div\n      0xff\n      and\n        /* \"contracts/BanklessWallet.sol\":1126:1137  !inRecovery */\n      iszero\n        /* \"contracts/BanklessWallet.sol\":1118:1168  require(!inRecovery, \"Wallet is in Recovery mode\") */\n      tag_212\n      jumpi\n      mload(0x40)\n      0x08c379a000000000000000000000000000000000000000000000000000000000\n      dup2\n      mstore\n      0x04\n      add\n      tag_213\n      swap1\n      tag_136\n      jump\t// in\n    tag_213:\n      mload(0x40)\n      dup1\n      swap2\n      sub\n      swap1\n      revert\n    tag_212:\n        /* \"contracts/BanklessWallet.sol\":6386:6391  false */\n      0x00\n        /* \"contracts/BanklessWallet.sol\":6366:6383  inGuardianRequest */\n      0x04\n      0x01\n        /* \"contracts/BanklessWallet.sol\":6366:6391  inGuardianRequest = false */\n      0x0100\n      exp\n      dup2\n      sload\n      dup2\n      0xff\n      mul\n      not\n      and\n      swap1\n      dup4\n      iszero\n      iszero\n      mul\n      or\n      swap1\n      sstore\n      pop\n        /* \"contracts/BanklessWallet.sol\":6406:6447  GuardianshipTransferCancelled(msg.sender) */\n      0xd57d294d41d7cb0f642228c3aa8884365982694afcfa206c635fd368dfa4479c\n        /* \"contracts/BanklessWallet.sol\":6436:6446  msg.sender */\n      caller\n        /* \"contracts/BanklessWallet.sol\":6406:6447  GuardianshipTransferCancelled(msg.sender) */\n      mload(0x40)\n      tag_215\n      swap2\n      swap1\n      tag_59\n      jump\t// in\n    tag_215:\n      mload(0x40)\n      dup1\n      swap2\n      sub\n      swap1\n      log1\n        /* \"contracts/BanklessWallet.sol\":6263:6454  function cancelGuardianshipTransfer() onlyOwner onlyInGuardianRequest notInRecovery external {... */\n      jump\t// out\n        /* \"contracts/BanklessWallet.sol\":2901:3075  function transfer(address payable destination, uint256 amount) external onlyOwner {... */\n    tag_77:\n        /* \"contracts/BanklessWallet.sol\":876:881  owner */\n      0x01\n      0x00\n      swap1\n      sload\n      swap1\n      0x0100\n      exp\n      swap1\n      div\n      0xffffffffffffffffffffffffffffffffffffffff\n      and\n        /* \"contracts/BanklessWallet.sol\":862:881  msg.sender == owner */\n      0xffffffffffffffffffffffffffffffffffffffff\n      and\n        /* \"contracts/BanklessWallet.sol\":862:872  msg.sender */\n      caller\n        /* \"contracts/BanklessWallet.sol\":862:881  msg.sender == owner */\n      0xffffffffffffffffffffffffffffffffffffffff\n      and\n      eq\n        /* \"contracts/BanklessWallet.sol\":854:900  require(msg.sender == owner, \"Not Authorized\") */\n      tag_217\n      jumpi\n      mload(0x40)\n      0x08c379a000000000000000000000000000000000000000000000000000000000\n      dup2\n      mstore\n      0x04\n      add\n      tag_218\n      swap1\n      tag_103\n      jump\t// in\n    tag_218:\n      mload(0x40)\n      dup1\n      swap2\n      sub\n      swap1\n      revert\n    tag_217:\n        /* \"contracts/BanklessWallet.sol\":2993:3004  destination */\n      dup2\n        /* \"contracts/BanklessWallet.sol\":2993:3013  destination.transfer */\n      0xffffffffffffffffffffffffffffffffffffffff\n      and\n        /* \"contracts/BanklessWallet.sol\":2993:3021  destination.transfer(amount) */\n      0x08fc\n        /* \"contracts/BanklessWallet.sol\":3014:3020  amount */\n      dup3\n        /* \"contracts/BanklessWallet.sol\":2993:3021  destination.transfer(amount) */\n      swap1\n      dup2\n      iszero\n      mul\n      swap1\n      mload(0x40)\n      0x00\n      mload(0x40)\n      dup1\n      dup4\n      sub\n      dup2\n      dup6\n      dup9\n      dup9\n      call\n      swap4\n      pop\n      pop\n      pop\n      pop\n      iszero\n      dup1\n      iszero\n      tag_221\n      jumpi\n      returndatasize\n      0x00\n      dup1\n      returndatacopy\n      revert(0x00, returndatasize)\n    tag_221:\n      pop\n        /* \"contracts/BanklessWallet.sol\":3048:3059  destination */\n      dup2\n        /* \"contracts/BanklessWallet.sol\":3036:3068  Transferred(destination, amount) */\n      0xffffffffffffffffffffffffffffffffffffffff\n      and\n      0xe6d858f14d755446648a6e0c8ab8b5a0f58ccc7920d4c910b0454e4dcd869af0\n        /* \"contracts/BanklessWallet.sol\":3061:3067  amount */\n      dup3\n        /* \"contracts/BanklessWallet.sol\":3036:3068  Transferred(destination, amount) */\n      mload(0x40)\n      tag_222\n      swap2\n      swap1\n      tag_31\n      jump\t// in\n    tag_222:\n      mload(0x40)\n      dup1\n      swap2\n      sub\n      swap1\n      log2\n        /* \"contracts/BanklessWallet.sol\":2901:3075  function transfer(address payable destination, uint256 amount) external onlyOwner {... */\n      pop\n      pop\n      jump\t// out\n        /* \"contracts/BanklessWallet.sol\":398:430  uint256 public currRecoveryRound */\n    tag_79:\n      sload(0x05)\n      dup2\n      jump\t// out\n        /* \"contracts/BanklessWallet.sol\":6460:6747  function executeGuardianRemoval(bytes32 guardianHash, uint256 _threshold) external onlyOwner {... */\n    tag_84:\n        /* \"contracts/BanklessWallet.sol\":876:881  owner */\n      0x01\n      0x00\n      swap1\n      sload\n      swap1\n      0x0100\n      exp\n      swap1\n      div\n      0xffffffffffffffffffffffffffffffffffffffff\n      and\n        /* \"contracts/BanklessWallet.sol\":862:881  msg.sender == owner */\n      0xffffffffffffffffffffffffffffffffffffffff\n      and\n        /* \"contracts/BanklessWallet.sol\":862:872  msg.sender */\n      caller\n        /* \"contracts/BanklessWallet.sol\":862:881  msg.sender == owner */\n      0xffffffffffffffffffffffffffffffffffffffff\n      and\n      eq\n        /* \"contracts/BanklessWallet.sol\":854:900  require(msg.sender == owner, \"Not Authorized\") */\n      tag_224\n      jumpi\n      mload(0x40)\n      0x08c379a000000000000000000000000000000000000000000000000000000000\n      dup2\n      mstore\n      0x04\n      add\n      tag_225\n      swap1\n      tag_103\n      jump\t// in\n    tag_225:\n      mload(0x40)\n      dup1\n      swap2\n      sub\n      swap1\n      revert\n    tag_224:\n        /* \"contracts/BanklessWallet.sol\":6571:6581  isGuardian */\n      0x03\n        /* \"contracts/BanklessWallet.sol\":6571:6595  isGuardian[guardianHash] */\n      0x00\n        /* \"contracts/BanklessWallet.sol\":6582:6594  guardianHash */\n      dup4\n        /* \"contracts/BanklessWallet.sol\":6571:6595  isGuardian[guardianHash] */\n      dup2\n      mstore\n      0x20\n      add\n      swap1\n      dup2\n      mstore\n      0x20\n      add\n      0x00\n      keccak256\n      0x00\n      swap1\n      sload\n      swap1\n      0x0100\n      exp\n      swap1\n      div\n      0xff\n      and\n        /* \"contracts/BanklessWallet.sol\":6563:6614  require(isGuardian[guardianHash], \"not a guardian\") */\n      tag_227\n      jumpi\n      mload(0x40)\n      0x08c379a000000000000000000000000000000000000000000000000000000000\n      dup2\n      mstore\n      0x04\n      add\n      tag_228\n      swap1\n      tag_229\n      jump\t// in\n    tag_228:\n      mload(0x40)\n      dup1\n      swap2\n      sub\n      swap1\n      revert\n    tag_227:\n        /* \"contracts/BanklessWallet.sol\":6651:6656  false */\n      0x00\n        /* \"contracts/BanklessWallet.sol\":6624:6634  isGuardian */\n      0x03\n        /* \"contracts/BanklessWallet.sol\":6624:6648  isGuardian[guardianHash] */\n      0x00\n        /* \"contracts/BanklessWallet.sol\":6635:6647  guardianHash */\n      dup5\n        /* \"contracts/BanklessWallet.sol\":6624:6648  isGuardian[guardianHash] */\n      dup2\n      mstore\n      0x20\n      add\n      swap1\n      dup2\n      mstore\n      0x20\n      add\n      0x00\n      keccak256\n      0x00\n        /* \"contracts/BanklessWallet.sol\":6624:6656  isGuardian[guardianHash] = false */\n      0x0100\n      exp\n      dup2\n      sload\n      dup2\n      0xff\n      mul\n      not\n      and\n      swap1\n      dup4\n      iszero\n      iszero\n      mul\n      or\n      swap1\n      sstore\n      pop\n        /* \"contracts/BanklessWallet.sol\":6677:6687  _threshold */\n      dup1\n        /* \"contracts/BanklessWallet.sol\":6665:6674  threshold */\n      0x02\n        /* \"contracts/BanklessWallet.sol\":6665:6687  threshold = _threshold */\n      dup2\n      swap1\n      sstore\n      pop\n        /* \"contracts/BanklessWallet.sol\":6701:6740  GuardianshipRemovalExecuted(msg.sender) */\n      0x2ed5a1d41af8e4c27f6e4c020febbf0221b28b9cc47fcab6bf97aa2bd28f3a68\n        /* \"contracts/BanklessWallet.sol\":6729:6739  msg.sender */\n      caller\n        /* \"contracts/BanklessWallet.sol\":6701:6740  GuardianshipRemovalExecuted(msg.sender) */\n      mload(0x40)\n      tag_230\n      swap2\n      swap1\n      tag_59\n      jump\t// in\n    tag_230:\n      mload(0x40)\n      dup1\n      swap2\n      sub\n      swap1\n      log1\n        /* \"contracts/BanklessWallet.sol\":6460:6747  function executeGuardianRemoval(bytes32 guardianHash, uint256 _threshold) external onlyOwner {... */\n      pop\n      pop\n      jump\t// out\n        /* \"contracts/BanklessWallet.sol\":284:326  mapping(bytes32 => bool) public isGuardian */\n    tag_88:\n      mstore(0x20, 0x03)\n      dup1\n      0x00\n      mstore\n      keccak256(0x00, 0x40)\n      0x00\n      swap2\n      pop\n      sload\n      swap1\n      0x0100\n      exp\n      swap1\n      div\n      0xff\n      and\n      dup2\n      jump\t// out\n        /* \"contracts/BanklessWallet.sol\":5343:5750  function transferGuardianship(bytes32 guardianToChange, bytes32 newGuardianHash) onlyGuardian notInGuardianRequest notInRecovery external {... */\n    tag_93:\n        /* \"contracts/BanklessWallet.sol\":965:975  isGuardian */\n      0x03\n        /* \"contracts/BanklessWallet.sol\":965:1016  isGuardian[keccak256(abi.encodePacked(msg.sender))] */\n      0x00\n        /* \"contracts/BanklessWallet.sol\":1003:1013  msg.sender */\n      caller\n        /* \"contracts/BanklessWallet.sol\":986:1014  abi.encodePacked(msg.sender) */\n      add(0x20, mload(0x40))\n      tag_232\n      swap2\n      swap1\n      tag_113\n      jump\t// in\n    tag_232:\n      mload(0x40)\n      0x20\n      dup2\n      dup4\n      sub\n      sub\n      dup2\n      mstore\n      swap1\n      0x40\n      mstore\n        /* \"contracts/BanklessWallet.sol\":976:1015  keccak256(abi.encodePacked(msg.sender)) */\n      dup1\n      mload\n      swap1\n      0x20\n      add\n      keccak256\n        /* \"contracts/BanklessWallet.sol\":965:1016  isGuardian[keccak256(abi.encodePacked(msg.sender))] */\n      dup2\n      mstore\n      0x20\n      add\n      swap1\n      dup2\n      mstore\n      0x20\n      add\n      0x00\n      keccak256\n      0x00\n      swap1\n      sload\n      swap1\n      0x0100\n      exp\n      swap1\n      div\n      0xff\n      and\n        /* \"contracts/BanklessWallet.sol\":957:1061  require(isGuardian[keccak256(abi.encodePacked(msg.sender))], \"Only Guardian has access to this request\") */\n      tag_233\n      jumpi\n      mload(0x40)\n      0x08c379a000000000000000000000000000000000000000000000000000000000\n      dup2\n      mstore\n      0x04\n      add\n      tag_234\n      swap1\n      tag_116\n      jump\t// in\n    tag_234:\n      mload(0x40)\n      dup1\n      swap2\n      sub\n      swap1\n      revert\n    tag_233:\n        /* \"contracts/BanklessWallet.sol\":1353:1370  inGuardianRequest */\n      0x04\n      0x01\n      swap1\n      sload\n      swap1\n      0x0100\n      exp\n      swap1\n      div\n      0xff\n      and\n        /* \"contracts/BanklessWallet.sol\":1352:1370  !inGuardianRequest */\n      iszero\n        /* \"contracts/BanklessWallet.sol\":1344:1413  require(!inGuardianRequest, \"Existing Guardian Change Request found\") */\n      tag_236\n      jumpi\n      mload(0x40)\n      0x08c379a000000000000000000000000000000000000000000000000000000000\n      dup2\n      mstore\n      0x04\n      add\n      tag_237\n      swap1\n      tag_123\n      jump\t// in\n    tag_237:\n      mload(0x40)\n      dup1\n      swap2\n      sub\n      swap1\n      revert\n    tag_236:\n        /* \"contracts/BanklessWallet.sol\":1127:1137  inRecovery */\n      0x04\n      0x00\n      swap1\n      sload\n      swap1\n      0x0100\n      exp\n      swap1\n      div\n      0xff\n      and\n        /* \"contracts/BanklessWallet.sol\":1126:1137  !inRecovery */\n      iszero\n        /* \"contracts/BanklessWallet.sol\":1118:1168  require(!inRecovery, \"Wallet is in Recovery mode\") */\n      tag_239\n      jumpi\n      mload(0x40)\n      0x08c379a000000000000000000000000000000000000000000000000000000000\n      dup2\n      mstore\n      0x04\n      add\n      tag_240\n      swap1\n      tag_136\n      jump\t// in\n    tag_240:\n      mload(0x40)\n      dup1\n      swap2\n      sub\n      swap1\n      revert\n    tag_239:\n        /* \"contracts/BanklessWallet.sol\":5527:5630  GuardianRequest(... */\n      mload(0x40)\n      dup1\n      0x60\n      add\n      0x40\n      mstore\n      dup1\n        /* \"contracts/BanklessWallet.sol\":5556:5571  newGuardianHash */\n      dup3\n        /* \"contracts/BanklessWallet.sol\":5527:5630  GuardianRequest(... */\n      dup2\n      mstore\n      0x20\n      add\n        /* \"contracts/BanklessWallet.sol\":5585:5601  guardianToChange */\n      dup4\n        /* \"contracts/BanklessWallet.sol\":5527:5630  GuardianRequest(... */\n      dup2\n      mstore\n      0x20\n      add\n        /* \"contracts/BanklessWallet.sol\":5615:5620  false */\n      0x00\n        /* \"contracts/BanklessWallet.sol\":5527:5630  GuardianRequest(... */\n      iszero\n      iszero\n      dup2\n      mstore\n      pop\n        /* \"contracts/BanklessWallet.sol\":5491:5512  guardianChangeRequest */\n      0x07\n        /* \"contracts/BanklessWallet.sol\":5491:5524  guardianChangeRequest[msg.sender] */\n      0x00\n        /* \"contracts/BanklessWallet.sol\":5513:5523  msg.sender */\n      caller\n        /* \"contracts/BanklessWallet.sol\":5491:5524  guardianChangeRequest[msg.sender] */\n      0xffffffffffffffffffffffffffffffffffffffff\n      and\n      0xffffffffffffffffffffffffffffffffffffffff\n      and\n      dup2\n      mstore\n      0x20\n      add\n      swap1\n      dup2\n      mstore\n      0x20\n      add\n      0x00\n      keccak256\n        /* \"contracts/BanklessWallet.sol\":5491:5630  guardianChangeRequest[msg.sender] = GuardianRequest(... */\n      0x00\n      dup3\n      add\n      mload\n      dup2\n      0x00\n      add\n      sstore\n      0x20\n      dup3\n      add\n      mload\n      dup2\n      0x01\n      add\n      sstore\n      0x40\n      dup3\n      add\n      mload\n      dup2\n      0x02\n      add\n      exp(0x0100, 0x00)\n      dup2\n      sload\n      dup2\n      0xff\n      mul\n      not\n      and\n      swap1\n      dup4\n      iszero\n      iszero\n      mul\n      or\n      swap1\n      sstore\n      pop\n      swap1\n      pop\n      pop\n        /* \"contracts/BanklessWallet.sol\":5660:5664  true */\n      0x01\n        /* \"contracts/BanklessWallet.sol\":5640:5657  inGuardianRequest */\n      0x04\n      0x01\n        /* \"contracts/BanklessWallet.sol\":5640:5664  inGuardianRequest = true */\n      0x0100\n      exp\n      dup2\n      sload\n      dup2\n      0xff\n      mul\n      not\n      and\n      swap1\n      dup4\n      iszero\n      iszero\n      mul\n      or\n      swap1\n      sstore\n      pop\n        /* \"contracts/BanklessWallet.sol\":5709:5724  newGuardianHash */\n      dup1\n        /* \"contracts/BanklessWallet.sol\":5679:5743  GuardianshipTransferInitiated(newGuardianHash, guardianToChange) */\n      0x53f2fe2c3ddd98bb20232e34f5f6f7f3d41d42bbe7a806e1e5d7ee4bbd418f28\n        /* \"contracts/BanklessWallet.sol\":5726:5742  guardianToChange */\n      dup4\n        /* \"contracts/BanklessWallet.sol\":5679:5743  GuardianshipTransferInitiated(newGuardianHash, guardianToChange) */\n      mload(0x40)\n      tag_242\n      swap2\n      swap1\n      tag_142\n      jump\t// in\n    tag_242:\n      mload(0x40)\n      dup1\n      swap2\n      sub\n      swap1\n      log2\n        /* \"contracts/BanklessWallet.sol\":5343:5750  function transferGuardianship(bytes32 guardianToChange, bytes32 newGuardianHash) onlyGuardian notInGuardianRequest notInRecovery external {... */\n      pop\n      pop\n      jump\t// out\n        /* \"contracts/BanklessWallet.sol\":3532:3933  function initiateRecovery(address _proposedOwner) onlyGuardian notInRecovery notInGuardianRequest external {... */\n    tag_96:\n        /* \"contracts/BanklessWallet.sol\":965:975  isGuardian */\n      0x03\n        /* \"contracts/BanklessWallet.sol\":965:1016  isGuardian[keccak256(abi.encodePacked(msg.sender))] */\n      0x00\n        /* \"contracts/BanklessWallet.sol\":1003:1013  msg.sender */\n      caller\n        /* \"contracts/BanklessWallet.sol\":986:1014  abi.encodePacked(msg.sender) */\n      add(0x20, mload(0x40))\n      tag_244\n      swap2\n      swap1\n      tag_113\n      jump\t// in\n    tag_244:\n      mload(0x40)\n      0x20\n      dup2\n      dup4\n      sub\n      sub\n      dup2\n      mstore\n      swap1\n      0x40\n      mstore\n        /* \"contracts/BanklessWallet.sol\":976:1015  keccak256(abi.encodePacked(msg.sender)) */\n      dup1\n      mload\n      swap1\n      0x20\n      add\n      keccak256\n        /* \"contracts/BanklessWallet.sol\":965:1016  isGuardian[keccak256(abi.encodePacked(msg.sender))] */\n      dup2\n      mstore\n      0x20\n      add\n      swap1\n      dup2\n      mstore\n      0x20\n      add\n      0x00\n      keccak256\n      0x00\n      swap1\n      sload\n      swap1\n      0x0100\n      exp\n      swap1\n      div\n      0xff\n      and\n        /* \"contracts/BanklessWallet.sol\":957:1061  require(isGuardian[keccak256(abi.encodePacked(msg.sender))], \"Only Guardian has access to this request\") */\n      tag_245\n      jumpi\n      mload(0x40)\n      0x08c379a000000000000000000000000000000000000000000000000000000000\n      dup2\n      mstore\n      0x04\n      add\n      tag_246\n      swap1\n      tag_116\n      jump\t// in\n    tag_246:\n      mload(0x40)\n      dup1\n      swap2\n      sub\n      swap1\n      revert\n    tag_245:\n        /* \"contracts/BanklessWallet.sol\":1127:1137  inRecovery */\n      0x04\n      0x00\n      swap1\n      sload\n      swap1\n      0x0100\n      exp\n      swap1\n      div\n      0xff\n      and\n        /* \"contracts/BanklessWallet.sol\":1126:1137  !inRecovery */\n      iszero\n        /* \"contracts/BanklessWallet.sol\":1118:1168  require(!inRecovery, \"Wallet is in Recovery mode\") */\n      tag_248\n      jumpi\n      mload(0x40)\n      0x08c379a000000000000000000000000000000000000000000000000000000000\n      dup2\n      mstore\n      0x04\n      add\n      tag_249\n      swap1\n      tag_136\n      jump\t// in\n    tag_249:\n      mload(0x40)\n      dup1\n      swap2\n      sub\n      swap1\n      revert\n    tag_248:\n        /* \"contracts/BanklessWallet.sol\":1353:1370  inGuardianRequest */\n      0x04\n      0x01\n      swap1\n      sload\n      swap1\n      0x0100\n      exp\n      swap1\n      div\n      0xff\n      and\n        /* \"contracts/BanklessWallet.sol\":1352:1370  !inGuardianRequest */\n      iszero\n        /* \"contracts/BanklessWallet.sol\":1344:1413  require(!inGuardianRequest, \"Existing Guardian Change Request found\") */\n      tag_251\n      jumpi\n      mload(0x40)\n      0x08c379a000000000000000000000000000000000000000000000000000000000\n      dup2\n      mstore\n      0x04\n      add\n      tag_252\n      swap1\n      tag_123\n      jump\t// in\n    tag_252:\n      mload(0x40)\n      dup1\n      swap2\n      sub\n      swap1\n      revert\n    tag_251:\n        /* \"contracts/BanklessWallet.sol\":3649:3666  currRecoveryRound */\n      0x05\n      0x00\n        /* \"contracts/BanklessWallet.sol\":3649:3669  currRecoveryRound ++ */\n      dup2\n      sload\n      dup1\n      swap3\n      swap2\n      swap1\n      tag_254\n      swap1\n      tag_177\n      jump\t// in\n    tag_254:\n      swap2\n      swap1\n      pop\n      sstore\n      pop\n        /* \"contracts/BanklessWallet.sol\":3717:3820  RecoveryRequest(... */\n      mload(0x40)\n      dup1\n      0x60\n      add\n      0x40\n      mstore\n      dup1\n        /* \"contracts/BanklessWallet.sol\":3746:3760  _proposedOwner */\n      dup3\n        /* \"contracts/BanklessWallet.sol\":3717:3820  RecoveryRequest(... */\n      0xffffffffffffffffffffffffffffffffffffffff\n      and\n      dup2\n      mstore\n      0x20\n      add\n        /* \"contracts/BanklessWallet.sol\":3774:3791  currRecoveryRound */\n      sload(0x05)\n        /* \"contracts/BanklessWallet.sol\":3717:3820  RecoveryRequest(... */\n      dup2\n      mstore\n      0x20\n      add\n        /* \"contracts/BanklessWallet.sol\":3805:3810  false */\n      0x00\n        /* \"contracts/BanklessWallet.sol\":3717:3820  RecoveryRequest(... */\n      iszero\n      iszero\n      dup2\n      mstore\n      pop\n        /* \"contracts/BanklessWallet.sol\":3679:3702  guardianRecoveryRequest */\n      0x06\n        /* \"contracts/BanklessWallet.sol\":3679:3714  guardianRecoveryRequest[msg.sender] */\n      0x00\n        /* \"contracts/BanklessWallet.sol\":3703:3713  msg.sender */\n      caller\n        /* \"contracts/BanklessWallet.sol\":3679:3714  guardianRecoveryRequest[msg.sender] */\n      0xffffffffffffffffffffffffffffffffffffffff\n      and\n      0xffffffffffffffffffffffffffffffffffffffff\n      and\n      dup2\n      mstore\n      0x20\n      add\n      swap1\n      dup2\n      mstore\n      0x20\n      add\n      0x00\n      keccak256\n        /* \"contracts/BanklessWallet.sol\":3679:3820  guardianRecoveryRequest[msg.sender] = RecoveryRequest(... */\n      0x00\n      dup3\n      add\n      mload\n      dup2\n      0x00\n      add\n      exp(0x0100, 0x00)\n      dup2\n      sload\n      dup2\n      0xffffffffffffffffffffffffffffffffffffffff\n      mul\n      not\n      and\n      swap1\n      dup4\n      0xffffffffffffffffffffffffffffffffffffffff\n      and\n      mul\n      or\n      swap1\n      sstore\n      pop\n      0x20\n      dup3\n      add\n      mload\n      dup2\n      0x01\n      add\n      sstore\n      0x40\n      dup3\n      add\n      mload\n      dup2\n      0x02\n      add\n      exp(0x0100, 0x00)\n      dup2\n      sload\n      dup2\n      0xff\n      mul\n      not\n      and\n      swap1\n      dup4\n      iszero\n      iszero\n      mul\n      or\n      swap1\n      sstore\n      pop\n      swap1\n      pop\n      pop\n        /* \"contracts/BanklessWallet.sol\":3843:3847  true */\n      0x01\n        /* \"contracts/BanklessWallet.sol\":3830:3840  inRecovery */\n      0x04\n      0x00\n        /* \"contracts/BanklessWallet.sol\":3830:3847  inRecovery = true */\n      0x0100\n      exp\n      dup2\n      sload\n      dup2\n      0xff\n      mul\n      not\n      and\n      swap1\n      dup4\n      iszero\n      iszero\n      mul\n      or\n      swap1\n      sstore\n      pop\n        /* \"contracts/BanklessWallet.sol\":3908:3925  currRecoveryRound */\n      sload(0x05)\n        /* \"contracts/BanklessWallet.sol\":3880:3890  msg.sender */\n      caller\n        /* \"contracts/BanklessWallet.sol\":3862:3926  RecoveryInitiated(msg.sender, _proposedOwner, currRecoveryRound) */\n      0xffffffffffffffffffffffffffffffffffffffff\n      and\n      0xe290ea2cc3cfeb5114f992dc8be9e503de30042c13b9298644a2679b09e17a04\n        /* \"contracts/BanklessWallet.sol\":3892:3906  _proposedOwner */\n      dup4\n        /* \"contracts/BanklessWallet.sol\":3862:3926  RecoveryInitiated(msg.sender, _proposedOwner, currRecoveryRound) */\n      mload(0x40)\n      tag_255\n      swap2\n      swap1\n      tag_59\n      jump\t// in\n    tag_255:\n      mload(0x40)\n      dup1\n      swap2\n      sub\n      swap1\n      log3\n        /* \"contracts/BanklessWallet.sol\":3532:3933  function initiateRecovery(address _proposedOwner) onlyGuardian notInRecovery notInGuardianRequest external {... */\n      pop\n      jump\t// out\n        /* \"contracts/BanklessWallet.sol\":333:355  bool public inRecovery */\n    tag_98:\n      0x04\n      0x00\n      swap1\n      sload\n      swap1\n      0x0100\n      exp\n      swap1\n      div\n      0xff\n      and\n      dup2\n      jump\t// out\n        /* \"https://github.com/OpenZeppelin/openzeppelin-contracts/blob/master/contracts/utils/ReentrancyGuard.sol\":2431:2738  function _nonReentrantBefore() private {... */\n    tag_185:\n        /* \"https://github.com/OpenZeppelin/openzeppelin-contracts/blob/master/contracts/utils/ReentrancyGuard.sol\":1755:1756  2 */\n      0x02\n        /* \"https://github.com/OpenZeppelin/openzeppelin-contracts/blob/master/contracts/utils/ReentrancyGuard.sol\":2558:2565  _status */\n      sload(0x00)\n        /* \"https://github.com/OpenZeppelin/openzeppelin-contracts/blob/master/contracts/utils/ReentrancyGuard.sol\":2558:2576  _status == ENTERED */\n      sub\n        /* \"https://github.com/OpenZeppelin/openzeppelin-contracts/blob/master/contracts/utils/ReentrancyGuard.sol\":2554:2640  if (_status == ENTERED) {... */\n      tag_257\n      jumpi\n        /* \"https://github.com/OpenZeppelin/openzeppelin-contracts/blob/master/contracts/utils/ReentrancyGuard.sol\":2599:2629  ReentrancyGuardReentrantCall() */\n      mload(0x40)\n      0x3ee5aeb500000000000000000000000000000000000000000000000000000000\n      dup2\n      mstore\n      0x04\n      add\n      mload(0x40)\n      dup1\n      swap2\n      sub\n      swap1\n      revert\n        /* \"https://github.com/OpenZeppelin/openzeppelin-contracts/blob/master/contracts/utils/ReentrancyGuard.sol\":2554:2640  if (_status == ENTERED) {... */\n    tag_257:\n        /* \"https://github.com/OpenZeppelin/openzeppelin-contracts/blob/master/contracts/utils/ReentrancyGuard.sol\":1755:1756  2 */\n      0x02\n        /* \"https://github.com/OpenZeppelin/openzeppelin-contracts/blob/master/contracts/utils/ReentrancyGuard.sol\":2714:2721  _status */\n      0x00\n        /* \"https://github.com/OpenZeppelin/openzeppelin-contracts/blob/master/contracts/utils/ReentrancyGuard.sol\":2714:2731  _status = ENTERED */\n      dup2\n      swap1\n      sstore\n      pop\n        /* \"https://github.com/OpenZeppelin/openzeppelin-contracts/blob/master/contracts/utils/ReentrancyGuard.sol\":2431:2738  function _nonReentrantBefore() private {... */\n      jump\t// out\n        /* \"https://github.com/OpenZeppelin/openzeppelin-contracts/blob/master/contracts/utils/ReentrancyGuard.sol\":2744:2952  function _nonReentrantAfter() private {... */\n    tag_198:\n        /* \"https://github.com/OpenZeppelin/openzeppelin-contracts/blob/master/contracts/utils/ReentrancyGuard.sol\":1713:1714  1 */\n      0x01\n        /* \"https://github.com/OpenZeppelin/openzeppelin-contracts/blob/master/contracts/utils/ReentrancyGuard.sol\":2924:2931  _status */\n      0x00\n        /* \"https://github.com/OpenZeppelin/openzeppelin-contracts/blob/master/contracts/utils/ReentrancyGuard.sol\":2924:2945  _status = NOT_ENTERED */\n      dup2\n      swap1\n      sstore\n      pop\n        /* \"https://github.com/OpenZeppelin/openzeppelin-contracts/blob/master/contracts/utils/ReentrancyGuard.sol\":2744:2952  function _nonReentrantAfter() private {... */\n      jump\t// out\n        /* \"#utility.yul\":7:84   */\n    tag_259:\n        /* \"#utility.yul\":44:51   */\n      0x00\n        /* \"#utility.yul\":73:78   */\n      dup2\n        /* \"#utility.yul\":62:78   */\n      swap1\n      pop\n        /* \"#utility.yul\":7:84   */\n      swap2\n      swap1\n      pop\n      jump\t// out\n        /* \"#utility.yul\":90:208   */\n    tag_260:\n        /* \"#utility.yul\":177:201   */\n      tag_334\n        /* \"#utility.yul\":195:200   */\n      dup2\n        /* \"#utility.yul\":177:201   */\n      tag_259\n      jump\t// in\n    tag_334:\n        /* \"#utility.yul\":172:175   */\n      dup3\n        /* \"#utility.yul\":165:202   */\n      mstore\n        /* \"#utility.yul\":90:208   */\n      pop\n      pop\n      jump\t// out\n        /* \"#utility.yul\":214:436   */\n    tag_31:\n        /* \"#utility.yul\":307:311   */\n      0x00\n        /* \"#utility.yul\":345:347   */\n      0x20\n        /* \"#utility.yul\":334:343   */\n      dup3\n        /* \"#utility.yul\":330:348   */\n      add\n        /* \"#utility.yul\":322:348   */\n      swap1\n      pop\n        /* \"#utility.yul\":358:429   */\n      tag_336\n        /* \"#utility.yul\":426:427   */\n      0x00\n        /* \"#utility.yul\":415:424   */\n      dup4\n        /* \"#utility.yul\":411:428   */\n      add\n        /* \"#utility.yul\":402:408   */\n      dup5\n        /* \"#utility.yul\":358:429   */\n      tag_260\n      jump\t// in\n    tag_336:\n        /* \"#utility.yul\":214:436   */\n      swap3\n      swap2\n      pop\n      pop\n      jump\t// out\n        /* \"#utility.yul\":442:517   */\n    tag_261:\n        /* \"#utility.yul\":475:481   */\n      0x00\n        /* \"#utility.yul\":508:510   */\n      0x40\n        /* \"#utility.yul\":502:511   */\n      mload\n        /* \"#utility.yul\":492:511   */\n      swap1\n      pop\n        /* \"#utility.yul\":442:517   */\n      swap1\n      jump\t// out\n        /* \"#utility.yul\":523:640   */\n    tag_262:\n        /* \"#utility.yul\":632:633   */\n      0x00\n        /* \"#utility.yul\":629:630   */\n      dup1\n        /* \"#utility.yul\":622:634   */\n      revert\n        /* \"#utility.yul\":646:763   */\n    tag_263:\n        /* \"#utility.yul\":755:756   */\n      0x00\n        /* \"#utility.yul\":752:753   */\n      dup1\n        /* \"#utility.yul\":745:757   */\n      revert\n        /* \"#utility.yul\":769:895   */\n    tag_264:\n        /* \"#utility.yul\":806:813   */\n      0x00\n        /* \"#utility.yul\":846:888   */\n      0xffffffffffffffffffffffffffffffffffffffff\n        /* \"#utility.yul\":839:844   */\n      dup3\n        /* \"#utility.yul\":835:889   */\n      and\n        /* \"#utility.yul\":824:889   */\n      swap1\n      pop\n        /* \"#utility.yul\":769:895   */\n      swap2\n      swap1\n      pop\n      jump\t// out\n        /* \"#utility.yul\":901:997   */\n    tag_265:\n        /* \"#utility.yul\":938:945   */\n      0x00\n        /* \"#utility.yul\":967:991   */\n      tag_342\n        /* \"#utility.yul\":985:990   */\n      dup3\n        /* \"#utility.yul\":967:991   */\n      tag_264\n      jump\t// in\n    tag_342:\n        /* \"#utility.yul\":956:991   */\n      swap1\n      pop\n        /* \"#utility.yul\":901:997   */\n      swap2\n      swap1\n      pop\n      jump\t// out\n        /* \"#utility.yul\":1003:1125   */\n    tag_266:\n        /* \"#utility.yul\":1076:1100   */\n      tag_344\n        /* \"#utility.yul\":1094:1099   */\n      dup2\n        /* \"#utility.yul\":1076:1100   */\n      tag_265\n      jump\t// in\n    tag_344:\n        /* \"#utility.yul\":1069:1074   */\n      dup2\n        /* \"#utility.yul\":1066:1101   */\n      eq\n        /* \"#utility.yul\":1056:1119   */\n      tag_345\n      jumpi\n        /* \"#utility.yul\":1115:1116   */\n      0x00\n        /* \"#utility.yul\":1112:1113   */\n      dup1\n        /* \"#utility.yul\":1105:1117   */\n      revert\n        /* \"#utility.yul\":1056:1119   */\n    tag_345:\n        /* \"#utility.yul\":1003:1125   */\n      pop\n      jump\t// out\n        /* \"#utility.yul\":1131:1270   */\n    tag_267:\n        /* \"#utility.yul\":1177:1182   */\n      0x00\n        /* \"#utility.yul\":1215:1221   */\n      dup2\n        /* \"#utility.yul\":1202:1222   */\n      calldataload\n        /* \"#utility.yul\":1193:1222   */\n      swap1\n      pop\n        /* \"#utility.yul\":1231:1264   */\n      tag_347\n        /* \"#utility.yul\":1258:1263   */\n      dup2\n        /* \"#utility.yul\":1231:1264   */\n      tag_266\n      jump\t// in\n    tag_347:\n        /* \"#utility.yul\":1131:1270   */\n      swap3\n      swap2\n      pop\n      pop\n      jump\t// out\n        /* \"#utility.yul\":1276:1605   */\n    tag_34:\n        /* \"#utility.yul\":1335:1341   */\n      0x00\n        /* \"#utility.yul\":1384:1386   */\n      0x20\n        /* \"#utility.yul\":1372:1381   */\n      dup3\n        /* \"#utility.yul\":1363:1370   */\n      dup5\n        /* \"#utility.yul\":1359:1382   */\n      sub\n        /* \"#utility.yul\":1355:1387   */\n      slt\n        /* \"#utility.yul\":1352:1471   */\n      iszero\n      tag_349\n      jumpi\n        /* \"#utility.yul\":1390:1469   */\n      tag_350\n      tag_262\n      jump\t// in\n    tag_350:\n        /* \"#utility.yul\":1352:1471   */\n    tag_349:\n        /* \"#utility.yul\":1510:1511   */\n      0x00\n        /* \"#utility.yul\":1535:1588   */\n      tag_351\n        /* \"#utility.yul\":1580:1587   */\n      dup5\n        /* \"#utility.yul\":1571:1577   */\n      dup3\n        /* \"#utility.yul\":1560:1569   */\n      dup6\n        /* \"#utility.yul\":1556:1578   */\n      add\n        /* \"#utility.yul\":1535:1588   */\n      tag_267\n      jump\t// in\n    tag_351:\n        /* \"#utility.yul\":1525:1588   */\n      swap2\n      pop\n        /* \"#utility.yul\":1481:1598   */\n      pop\n        /* \"#utility.yul\":1276:1605   */\n      swap3\n      swap2\n      pop\n      pop\n      jump\t// out\n        /* \"#utility.yul\":1611:1688   */\n    tag_268:\n        /* \"#utility.yul\":1648:1655   */\n      0x00\n        /* \"#utility.yul\":1677:1682   */\n      dup2\n        /* \"#utility.yul\":1666:1682   */\n      swap1\n      pop\n        /* \"#utility.yul\":1611:1688   */\n      swap2\n      swap1\n      pop\n      jump\t// out\n        /* \"#utility.yul\":1694:1812   */\n    tag_269:\n        /* \"#utility.yul\":1781:1805   */\n      tag_354\n        /* \"#utility.yul\":1799:1804   */\n      dup2\n        /* \"#utility.yul\":1781:1805   */\n      tag_268\n      jump\t// in\n    tag_354:\n        /* \"#utility.yul\":1776:1779   */\n      dup3\n        /* \"#utility.yul\":1769:1806   */\n      mstore\n        /* \"#utility.yul\":1694:1812   */\n      pop\n      pop\n      jump\t// out\n        /* \"#utility.yul\":1818:1908   */\n    tag_270:\n        /* \"#utility.yul\":1852:1859   */\n      0x00\n        /* \"#utility.yul\":1895:1900   */\n      dup2\n        /* \"#utility.yul\":1888:1901   */\n      iszero\n        /* \"#utility.yul\":1881:1902   */\n      iszero\n        /* \"#utility.yul\":1870:1902   */\n      swap1\n      pop\n        /* \"#utility.yul\":1818:1908   */\n      swap2\n      swap1\n      pop\n      jump\t// out\n        /* \"#utility.yul\":1914:2023   */\n    tag_271:\n        /* \"#utility.yul\":1995:2016   */\n      tag_357\n        /* \"#utility.yul\":2010:2015   */\n      dup2\n        /* \"#utility.yul\":1995:2016   */\n      tag_270\n      jump\t// in\n    tag_357:\n        /* \"#utility.yul\":1990:1993   */\n      dup3\n        /* \"#utility.yul\":1983:2017   */\n      mstore\n        /* \"#utility.yul\":1914:2023   */\n      pop\n      pop\n      jump\t// out\n        /* \"#utility.yul\":2029:2459   */\n    tag_37:\n        /* \"#utility.yul\":2172:2176   */\n      0x00\n        /* \"#utility.yul\":2210:2212   */\n      0x60\n        /* \"#utility.yul\":2199:2208   */\n      dup3\n        /* \"#utility.yul\":2195:2213   */\n      add\n        /* \"#utility.yul\":2187:2213   */\n      swap1\n      pop\n        /* \"#utility.yul\":2223:2294   */\n      tag_359\n        /* \"#utility.yul\":2291:2292   */\n      0x00\n        /* \"#utility.yul\":2280:2289   */\n      dup4\n        /* \"#utility.yul\":2276:2293   */\n      add\n        /* \"#utility.yul\":2267:2273   */\n      dup7\n        /* \"#utility.yul\":2223:2294   */\n      tag_269\n      jump\t// in\n    tag_359:\n        /* \"#utility.yul\":2304:2376   */\n      tag_360\n        /* \"#utility.yul\":2372:2374   */\n      0x20\n        /* \"#utility.yul\":2361:2370   */\n      dup4\n        /* \"#utility.yul\":2357:2375   */\n      add\n        /* \"#utility.yul\":2348:2354   */\n      dup6\n        /* \"#utility.yul\":2304:2376   */\n      tag_269\n      jump\t// in\n    tag_360:\n        /* \"#utility.yul\":2386:2452   */\n      tag_361\n        /* \"#utility.yul\":2448:2450   */\n      0x40\n        /* \"#utility.yul\":2437:2446   */\n      dup4\n        /* \"#utility.yul\":2433:2451   */\n      add\n        /* \"#utility.yul\":2424:2430   */\n      dup5\n        /* \"#utility.yul\":2386:2452   */\n      tag_271\n      jump\t// in\n    tag_361:\n        /* \"#utility.yul\":2029:2459   */\n      swap5\n      swap4\n      pop\n      pop\n      pop\n      pop\n      jump\t// out\n        /* \"#utility.yul\":2465:2583   */\n    tag_272:\n        /* \"#utility.yul\":2552:2576   */\n      tag_363\n        /* \"#utility.yul\":2570:2575   */\n      dup2\n        /* \"#utility.yul\":2552:2576   */\n      tag_265\n      jump\t// in\n    tag_363:\n        /* \"#utility.yul\":2547:2550   */\n      dup3\n        /* \"#utility.yul\":2540:2577   */\n      mstore\n        /* \"#utility.yul\":2465:2583   */\n      pop\n      pop\n      jump\t// out\n        /* \"#utility.yul\":2589:3019   */\n    tag_42:\n        /* \"#utility.yul\":2732:2736   */\n      0x00\n        /* \"#utility.yul\":2770:2772   */\n      0x60\n        /* \"#utility.yul\":2759:2768   */\n      dup3\n        /* \"#utility.yul\":2755:2773   */\n      add\n        /* \"#utility.yul\":2747:2773   */\n      swap1\n      pop\n        /* \"#utility.yul\":2783:2854   */\n      tag_365\n        /* \"#utility.yul\":2851:2852   */\n      0x00\n        /* \"#utility.yul\":2840:2849   */\n      dup4\n        /* \"#utility.yul\":2836:2853   */\n      add\n        /* \"#utility.yul\":2827:2833   */\n      dup7\n        /* \"#utility.yul\":2783:2854   */\n      tag_272\n      jump\t// in\n    tag_365:\n        /* \"#utility.yul\":2864:2936   */\n      tag_366\n        /* \"#utility.yul\":2932:2934   */\n      0x20\n        /* \"#utility.yul\":2921:2930   */\n      dup4\n        /* \"#utility.yul\":2917:2935   */\n      add\n        /* \"#utility.yul\":2908:2914   */\n      dup6\n        /* \"#utility.yul\":2864:2936   */\n      tag_260\n      jump\t// in\n    tag_366:\n        /* \"#utility.yul\":2946:3012   */\n      tag_367\n        /* \"#utility.yul\":3008:3010   */\n      0x40\n        /* \"#utility.yul\":2997:3006   */\n      dup4\n        /* \"#utility.yul\":2993:3011   */\n      add\n        /* \"#utility.yul\":2984:2990   */\n      dup5\n        /* \"#utility.yul\":2946:3012   */\n      tag_271\n      jump\t// in\n    tag_367:\n        /* \"#utility.yul\":2589:3019   */\n      swap5\n      swap4\n      pop\n      pop\n      pop\n      pop\n      jump\t// out\n        /* \"#utility.yul\":3025:3142   */\n    tag_273:\n        /* \"#utility.yul\":3134:3135   */\n      0x00\n        /* \"#utility.yul\":3131:3132   */\n      dup1\n        /* \"#utility.yul\":3124:3136   */\n      revert\n        /* \"#utility.yul\":3148:3265   */\n    tag_274:\n        /* \"#utility.yul\":3257:3258   */\n      0x00\n        /* \"#utility.yul\":3254:3255   */\n      dup1\n        /* \"#utility.yul\":3247:3259   */\n      revert\n        /* \"#utility.yul\":3271:3388   */\n    tag_275:\n        /* \"#utility.yul\":3380:3381   */\n      0x00\n        /* \"#utility.yul\":3377:3378   */\n      dup1\n        /* \"#utility.yul\":3370:3382   */\n      revert\n        /* \"#utility.yul\":3411:3979   */\n    tag_276:\n        /* \"#utility.yul\":3484:3492   */\n      0x00\n        /* \"#utility.yul\":3494:3500   */\n      dup1\n        /* \"#utility.yul\":3544:3547   */\n      dup4\n        /* \"#utility.yul\":3537:3541   */\n      0x1f\n        /* \"#utility.yul\":3529:3535   */\n      dup5\n        /* \"#utility.yul\":3525:3542   */\n      add\n        /* \"#utility.yul\":3521:3548   */\n      slt\n        /* \"#utility.yul\":3511:3633   */\n      tag_372\n      jumpi\n        /* \"#utility.yul\":3552:3631   */\n      tag_373\n      tag_273\n      jump\t// in\n    tag_373:\n        /* \"#utility.yul\":3511:3633   */\n    tag_372:\n        /* \"#utility.yul\":3665:3671   */\n      dup3\n        /* \"#utility.yul\":3652:3672   */\n      calldataload\n        /* \"#utility.yul\":3642:3672   */\n      swap1\n      pop\n        /* \"#utility.yul\":3695:3713   */\n      0xffffffffffffffff\n        /* \"#utility.yul\":3687:3693   */\n      dup2\n        /* \"#utility.yul\":3684:3714   */\n      gt\n        /* \"#utility.yul\":3681:3798   */\n      iszero\n      tag_374\n      jumpi\n        /* \"#utility.yul\":3717:3796   */\n      tag_375\n      tag_274\n      jump\t// in\n    tag_375:\n        /* \"#utility.yul\":3681:3798   */\n    tag_374:\n        /* \"#utility.yul\":3831:3835   */\n      0x20\n        /* \"#utility.yul\":3823:3829   */\n      dup4\n        /* \"#utility.yul\":3819:3836   */\n      add\n        /* \"#utility.yul\":3807:3836   */\n      swap2\n      pop\n        /* \"#utility.yul\":3885:3888   */\n      dup4\n        /* \"#utility.yul\":3877:3881   */\n      0x20\n        /* \"#utility.yul\":3869:3875   */\n      dup3\n        /* \"#utility.yul\":3865:3882   */\n      mul\n        /* \"#utility.yul\":3855:3863   */\n      dup4\n        /* \"#utility.yul\":3851:3883   */\n      add\n        /* \"#utility.yul\":3848:3889   */\n      gt\n        /* \"#utility.yul\":3845:3973   */\n      iszero\n      tag_376\n      jumpi\n        /* \"#utility.yul\":3892:3971   */\n      tag_377\n      tag_275\n      jump\t// in\n    tag_377:\n        /* \"#utility.yul\":3845:3973   */\n    tag_376:\n        /* \"#utility.yul\":3411:3979   */\n      swap3\n      pop\n      swap3\n      swap1\n      pop\n      jump\t// out\n        /* \"#utility.yul\":3985:4689   */\n    tag_54:\n        /* \"#utility.yul\":4080:4086   */\n      0x00\n        /* \"#utility.yul\":4088:4094   */\n      dup1\n        /* \"#utility.yul\":4096:4102   */\n      0x00\n        /* \"#utility.yul\":4145:4147   */\n      0x40\n        /* \"#utility.yul\":4133:4142   */\n      dup5\n        /* \"#utility.yul\":4124:4131   */\n      dup7\n        /* \"#utility.yul\":4120:4143   */\n      sub\n        /* \"#utility.yul\":4116:4148   */\n      slt\n        /* \"#utility.yul\":4113:4232   */\n      iszero\n      tag_379\n      jumpi\n        /* \"#utility.yul\":4151:4230   */\n      tag_380\n      tag_262\n      jump\t// in\n    tag_380:\n        /* \"#utility.yul\":4113:4232   */\n    tag_379:\n        /* \"#utility.yul\":4271:4272   */\n      0x00\n        /* \"#utility.yul\":4296:4349   */\n      tag_381\n        /* \"#utility.yul\":4341:4348   */\n      dup7\n        /* \"#utility.yul\":4332:4338   */\n      dup3\n        /* \"#utility.yul\":4321:4330   */\n      dup8\n        /* \"#utility.yul\":4317:4339   */\n      add\n        /* \"#utility.yul\":4296:4349   */\n      tag_267\n      jump\t// in\n    tag_381:\n        /* \"#utility.yul\":4286:4349   */\n      swap4\n      pop\n        /* \"#utility.yul\":4242:4359   */\n      pop\n        /* \"#utility.yul\":4426:4428   */\n      0x20\n        /* \"#utility.yul\":4415:4424   */\n      dup5\n        /* \"#utility.yul\":4411:4429   */\n      add\n        /* \"#utility.yul\":4398:4430   */\n      calldataload\n        /* \"#utility.yul\":4457:4475   */\n      0xffffffffffffffff\n        /* \"#utility.yul\":4449:4455   */\n      dup2\n        /* \"#utility.yul\":4446:4476   */\n      gt\n        /* \"#utility.yul\":4443:4560   */\n      iszero\n      tag_382\n      jumpi\n        /* \"#utility.yul\":4479:4558   */\n      tag_383\n      tag_263\n      jump\t// in\n    tag_383:\n        /* \"#utility.yul\":4443:4560   */\n    tag_382:\n        /* \"#utility.yul\":4592:4672   */\n      tag_384\n        /* \"#utility.yul\":4664:4671   */\n      dup7\n        /* \"#utility.yul\":4655:4661   */\n      dup3\n        /* \"#utility.yul\":4644:4653   */\n      dup8\n        /* \"#utility.yul\":4640:4662   */\n      add\n        /* \"#utility.yul\":4592:4672   */\n      tag_276\n      jump\t// in\n    tag_384:\n        /* \"#utility.yul\":4574:4672   */\n      swap3\n      pop\n      swap3\n      pop\n        /* \"#utility.yul\":4369:4682   */\n      pop\n        /* \"#utility.yul\":3985:4689   */\n      swap3\n      pop\n      swap3\n      pop\n      swap3\n      jump\t// out\n        /* \"#utility.yul\":4695:4917   */\n    tag_59:\n        /* \"#utility.yul\":4788:4792   */\n      0x00\n        /* \"#utility.yul\":4826:4828   */\n      0x20\n        /* \"#utility.yul\":4815:4824   */\n      dup3\n        /* \"#utility.yul\":4811:4829   */\n      add\n        /* \"#utility.yul\":4803:4829   */\n      swap1\n      pop\n        /* \"#utility.yul\":4839:4910   */\n      tag_386\n        /* \"#utility.yul\":4907:4908   */\n      0x00\n        /* \"#utility.yul\":4896:4905   */\n      dup4\n        /* \"#utility.yul\":4892:4909   */\n      add\n        /* \"#utility.yul\":4883:4889   */\n      dup5\n        /* \"#utility.yul\":4839:4910   */\n      tag_272\n      jump\t// in\n    tag_386:\n        /* \"#utility.yul\":4695:4917   */\n      swap3\n      swap2\n      pop\n      pop\n      jump\t// out\n        /* \"#utility.yul\":4923:5045   */\n    tag_277:\n        /* \"#utility.yul\":4996:5020   */\n      tag_388\n        /* \"#utility.yul\":5014:5019   */\n      dup2\n        /* \"#utility.yul\":4996:5020   */\n      tag_259\n      jump\t// in\n    tag_388:\n        /* \"#utility.yul\":4989:4994   */\n      dup2\n        /* \"#utility.yul\":4986:5021   */\n      eq\n        /* \"#utility.yul\":4976:5039   */\n      tag_389\n      jumpi\n        /* \"#utility.yul\":5035:5036   */\n      0x00\n        /* \"#utility.yul\":5032:5033   */\n      dup1\n        /* \"#utility.yul\":5025:5037   */\n      revert\n        /* \"#utility.yul\":4976:5039   */\n    tag_389:\n        /* \"#utility.yul\":4923:5045   */\n      pop\n      jump\t// out\n        /* \"#utility.yul\":5051:5190   */\n    tag_278:\n        /* \"#utility.yul\":5097:5102   */\n      0x00\n        /* \"#utility.yul\":5135:5141   */\n      dup2\n        /* \"#utility.yul\":5122:5142   */\n      calldataload\n        /* \"#utility.yul\":5113:5142   */\n      swap1\n      pop\n        /* \"#utility.yul\":5151:5184   */\n      tag_391\n        /* \"#utility.yul\":5178:5183   */\n      dup2\n        /* \"#utility.yul\":5151:5184   */\n      tag_277\n      jump\t// in\n    tag_391:\n        /* \"#utility.yul\":5051:5190   */\n      swap3\n      swap2\n      pop\n      pop\n      jump\t// out\n        /* \"#utility.yul\":5196:5313   */\n    tag_279:\n        /* \"#utility.yul\":5305:5306   */\n      0x00\n        /* \"#utility.yul\":5302:5303   */\n      dup1\n        /* \"#utility.yul\":5295:5307   */\n      revert\n        /* \"#utility.yul\":5319:5421   */\n    tag_280:\n        /* \"#utility.yul\":5360:5366   */\n      0x00\n        /* \"#utility.yul\":5411:5413   */\n      0x1f\n        /* \"#utility.yul\":5407:5414   */\n      not\n        /* \"#utility.yul\":5402:5404   */\n      0x1f\n        /* \"#utility.yul\":5395:5400   */\n      dup4\n        /* \"#utility.yul\":5391:5405   */\n      add\n        /* \"#utility.yul\":5387:5415   */\n      and\n        /* \"#utility.yul\":5377:5415   */\n      swap1\n      pop\n        /* \"#utility.yul\":5319:5421   */\n      swap2\n      swap1\n      pop\n      jump\t// out\n        /* \"#utility.yul\":5427:5607   */\n    tag_281:\n        /* \"#utility.yul\":5475:5552   */\n      0x4e487b7100000000000000000000000000000000000000000000000000000000\n        /* \"#utility.yul\":5472:5473   */\n      0x00\n        /* \"#utility.yul\":5465:5553   */\n      mstore\n        /* \"#utility.yul\":5572:5576   */\n      0x41\n        /* \"#utility.yul\":5569:5570   */\n      0x04\n        /* \"#utility.yul\":5562:5577   */\n      mstore\n        /* \"#utility.yul\":5596:5600   */\n      0x24\n        /* \"#utility.yul\":5593:5594   */\n      0x00\n        /* \"#utility.yul\":5586:5601   */\n      revert\n        /* \"#utility.yul\":5613:5894   */\n    tag_282:\n        /* \"#utility.yul\":5696:5723   */\n      tag_396\n        /* \"#utility.yul\":5718:5722   */\n      dup3\n        /* \"#utility.yul\":5696:5723   */\n      tag_280\n      jump\t// in\n    tag_396:\n        /* \"#utility.yul\":5688:5694   */\n      dup2\n        /* \"#utility.yul\":5684:5724   */\n      add\n        /* \"#utility.yul\":5826:5832   */\n      dup2\n        /* \"#utility.yul\":5814:5824   */\n      dup2\n        /* \"#utility.yul\":5811:5833   */\n      lt\n        /* \"#utility.yul\":5790:5808   */\n      0xffffffffffffffff\n        /* \"#utility.yul\":5778:5788   */\n      dup3\n        /* \"#utility.yul\":5775:5809   */\n      gt\n        /* \"#utility.yul\":5772:5834   */\n      or\n        /* \"#utility.yul\":5769:5857   */\n      iszero\n      tag_397\n      jumpi\n        /* \"#utility.yul\":5837:5855   */\n      tag_398\n      tag_281\n      jump\t// in\n    tag_398:\n        /* \"#utility.yul\":5769:5857   */\n    tag_397:\n        /* \"#utility.yul\":5877:5887   */\n      dup1\n        /* \"#utility.yul\":5873:5875   */\n      0x40\n        /* \"#utility.yul\":5866:5888   */\n      mstore\n        /* \"#utility.yul\":5656:5894   */\n      pop\n        /* \"#utility.yul\":5613:5894   */\n      pop\n      pop\n      jump\t// out\n        /* \"#utility.yul\":5900:6029   */\n    tag_283:\n        /* \"#utility.yul\":5934:5940   */\n      0x00\n        /* \"#utility.yul\":5961:5981   */\n      tag_400\n      tag_261\n      jump\t// in\n    tag_400:\n        /* \"#utility.yul\":5951:5981   */\n      swap1\n      pop\n        /* \"#utility.yul\":5990:6023   */\n      tag_401\n        /* \"#utility.yul\":6018:6022   */\n      dup3\n        /* \"#utility.yul\":6010:6016   */\n      dup3\n        /* \"#utility.yul\":5990:6023   */\n      tag_282\n      jump\t// in\n    tag_401:\n        /* \"#utility.yul\":5900:6029   */\n      swap2\n      swap1\n      pop\n      jump\t// out\n        /* \"#utility.yul\":6035:6342   */\n    tag_284:\n        /* \"#utility.yul\":6096:6100   */\n      0x00\n        /* \"#utility.yul\":6186:6204   */\n      0xffffffffffffffff\n        /* \"#utility.yul\":6178:6184   */\n      dup3\n        /* \"#utility.yul\":6175:6205   */\n      gt\n        /* \"#utility.yul\":6172:6228   */\n      iszero\n      tag_403\n      jumpi\n        /* \"#utility.yul\":6208:6226   */\n      tag_404\n      tag_281\n      jump\t// in\n    tag_404:\n        /* \"#utility.yul\":6172:6228   */\n    tag_403:\n        /* \"#utility.yul\":6246:6275   */\n      tag_405\n        /* \"#utility.yul\":6268:6274   */\n      dup3\n        /* \"#utility.yul\":6246:6275   */\n      tag_280\n      jump\t// in\n    tag_405:\n        /* \"#utility.yul\":6238:6275   */\n      swap1\n      pop\n        /* \"#utility.yul\":6330:6334   */\n      0x20\n        /* \"#utility.yul\":6324:6328   */\n      dup2\n        /* \"#utility.yul\":6320:6335   */\n      add\n        /* \"#utility.yul\":6312:6335   */\n      swap1\n      pop\n        /* \"#utility.yul\":6035:6342   */\n      swap2\n      swap1\n      pop\n      jump\t// out\n        /* \"#utility.yul\":6348:6494   */\n    tag_285:\n        /* \"#utility.yul\":6445:6451   */\n      dup3\n        /* \"#utility.yul\":6440:6443   */\n      dup2\n        /* \"#utility.yul\":6435:6438   */\n      dup4\n        /* \"#utility.yul\":6422:6452   */\n      calldatacopy\n        /* \"#utility.yul\":6486:6487   */\n      0x00\n        /* \"#utility.yul\":6477:6483   */\n      dup4\n        /* \"#utility.yul\":6472:6475   */\n      dup4\n        /* \"#utility.yul\":6468:6484   */\n      add\n        /* \"#utility.yul\":6461:6488   */\n      mstore\n        /* \"#utility.yul\":6348:6494   */\n      pop\n      pop\n      pop\n      jump\t// out\n        /* \"#utility.yul\":6500:6923   */\n    tag_286:\n        /* \"#utility.yul\":6577:6582   */\n      0x00\n        /* \"#utility.yul\":6602:6667   */\n      tag_408\n        /* \"#utility.yul\":6618:6666   */\n      tag_409\n        /* \"#utility.yul\":6659:6665   */\n      dup5\n        /* \"#utility.yul\":6618:6666   */\n      tag_284\n      jump\t// in\n    tag_409:\n        /* \"#utility.yul\":6602:6667   */\n      tag_283\n      jump\t// in\n    tag_408:\n        /* \"#utility.yul\":6593:6667   */\n      swap1\n      pop\n        /* \"#utility.yul\":6690:6696   */\n      dup3\n        /* \"#utility.yul\":6683:6688   */\n      dup2\n        /* \"#utility.yul\":6676:6697   */\n      mstore\n        /* \"#utility.yul\":6728:6732   */\n      0x20\n        /* \"#utility.yul\":6721:6726   */\n      dup2\n        /* \"#utility.yul\":6717:6733   */\n      add\n        /* \"#utility.yul\":6766:6769   */\n      dup5\n        /* \"#utility.yul\":6757:6763   */\n      dup5\n        /* \"#utility.yul\":6752:6755   */\n      dup5\n        /* \"#utility.yul\":6748:6764   */\n      add\n        /* \"#utility.yul\":6745:6770   */\n      gt\n        /* \"#utility.yul\":6742:6854   */\n      iszero\n      tag_410\n      jumpi\n        /* \"#utility.yul\":6773:6852   */\n      tag_411\n      tag_279\n      jump\t// in\n    tag_411:\n        /* \"#utility.yul\":6742:6854   */\n    tag_410:\n        /* \"#utility.yul\":6863:6917   */\n      tag_412\n        /* \"#utility.yul\":6910:6916   */\n      dup5\n        /* \"#utility.yul\":6905:6908   */\n      dup3\n        /* \"#utility.yul\":6900:6903   */\n      dup6\n        /* \"#utility.yul\":6863:6917   */\n      tag_285\n      jump\t// in\n    tag_412:\n        /* \"#utility.yul\":6583:6923   */\n      pop\n        /* \"#utility.yul\":6500:6923   */\n      swap4\n      swap3\n      pop\n      pop\n      pop\n      jump\t// out\n        /* \"#utility.yul\":6942:7280   */\n    tag_287:\n        /* \"#utility.yul\":6997:7002   */\n      0x00\n        /* \"#utility.yul\":7046:7049   */\n      dup3\n        /* \"#utility.yul\":7039:7043   */\n      0x1f\n        /* \"#utility.yul\":7031:7037   */\n      dup4\n        /* \"#utility.yul\":7027:7044   */\n      add\n        /* \"#utility.yul\":7023:7050   */\n      slt\n        /* \"#utility.yul\":7013:7135   */\n      tag_414\n      jumpi\n        /* \"#utility.yul\":7054:7133   */\n      tag_415\n      tag_273\n      jump\t// in\n    tag_415:\n        /* \"#utility.yul\":7013:7135   */\n    tag_414:\n        /* \"#utility.yul\":7171:7177   */\n      dup2\n        /* \"#utility.yul\":7158:7178   */\n      calldataload\n        /* \"#utility.yul\":7196:7274   */\n      tag_416\n        /* \"#utility.yul\":7270:7273   */\n      dup5\n        /* \"#utility.yul\":7262:7268   */\n      dup3\n        /* \"#utility.yul\":7255:7259   */\n      0x20\n        /* \"#utility.yul\":7247:7253   */\n      dup7\n        /* \"#utility.yul\":7243:7260   */\n      add\n        /* \"#utility.yul\":7196:7274   */\n      tag_286\n      jump\t// in\n    tag_416:\n        /* \"#utility.yul\":7187:7274   */\n      swap2\n      pop\n        /* \"#utility.yul\":7003:7280   */\n      pop\n        /* \"#utility.yul\":6942:7280   */\n      swap3\n      swap2\n      pop\n      pop\n      jump\t// out\n        /* \"#utility.yul\":7286:8083   */\n    tag_62:\n        /* \"#utility.yul\":7372:7378   */\n      0x00\n        /* \"#utility.yul\":7380:7386   */\n      dup1\n        /* \"#utility.yul\":7388:7394   */\n      0x00\n        /* \"#utility.yul\":7437:7439   */\n      0x60\n        /* \"#utility.yul\":7425:7434   */\n      dup5\n        /* \"#utility.yul\":7416:7423   */\n      dup7\n        /* \"#utility.yul\":7412:7435   */\n      sub\n        /* \"#utility.yul\":7408:7440   */\n      slt\n        /* \"#utility.yul\":7405:7524   */\n      iszero\n      tag_418\n      jumpi\n        /* \"#utility.yul\":7443:7522   */\n      tag_419\n      tag_262\n      jump\t// in\n    tag_419:\n        /* \"#utility.yul\":7405:7524   */\n    tag_418:\n        /* \"#utility.yul\":7563:7564   */\n      0x00\n        /* \"#utility.yul\":7588:7641   */\n      tag_420\n        /* \"#utility.yul\":7633:7640   */\n      dup7\n        /* \"#utility.yul\":7624:7630   */\n      dup3\n        /* \"#utility.yul\":7613:7622   */\n      dup8\n        /* \"#utility.yul\":7609:7631   */\n      add\n        /* \"#utility.yul\":7588:7641   */\n      tag_267\n      jump\t// in\n    tag_420:\n        /* \"#utility.yul\":7578:7641   */\n      swap4\n      pop\n        /* \"#utility.yul\":7534:7651   */\n      pop\n        /* \"#utility.yul\":7690:7692   */\n      0x20\n        /* \"#utility.yul\":7716:7769   */\n      tag_421\n        /* \"#utility.yul\":7761:7768   */\n      dup7\n        /* \"#utility.yul\":7752:7758   */\n      dup3\n        /* \"#utility.yul\":7741:7750   */\n      dup8\n        /* \"#utility.yul\":7737:7759   */\n      add\n        /* \"#utility.yul\":7716:7769   */\n      tag_278\n      jump\t// in\n    tag_421:\n        /* \"#utility.yul\":7706:7769   */\n      swap3\n      pop\n        /* \"#utility.yul\":7661:7779   */\n      pop\n        /* \"#utility.yul\":7846:7848   */\n      0x40\n        /* \"#utility.yul\":7835:7844   */\n      dup5\n        /* \"#utility.yul\":7831:7849   */\n      add\n        /* \"#utility.yul\":7818:7850   */\n      calldataload\n        /* \"#utility.yul\":7877:7895   */\n      0xffffffffffffffff\n        /* \"#utility.yul\":7869:7875   */\n      dup2\n        /* \"#utility.yul\":7866:7896   */\n      gt\n        /* \"#utility.yul\":7863:7980   */\n      iszero\n      tag_422\n      jumpi\n        /* \"#utility.yul\":7899:7978   */\n      tag_423\n      tag_263\n      jump\t// in\n    tag_423:\n        /* \"#utility.yul\":7863:7980   */\n    tag_422:\n        /* \"#utility.yul\":8004:8066   */\n      tag_424\n        /* \"#utility.yul\":8058:8065   */\n      dup7\n        /* \"#utility.yul\":8049:8055   */\n      dup3\n        /* \"#utility.yul\":8038:8047   */\n      dup8\n        /* \"#utility.yul\":8034:8056   */\n      add\n        /* \"#utility.yul\":8004:8066   */\n      tag_287\n      jump\t// in\n    tag_424:\n        /* \"#utility.yul\":7994:8066   */\n      swap2\n      pop\n        /* \"#utility.yul\":7789:8076   */\n      pop\n        /* \"#utility.yul\":7286:8083   */\n      swap3\n      pop\n      swap3\n      pop\n      swap3\n      jump\t// out\n        /* \"#utility.yul\":8089:8187   */\n    tag_288:\n        /* \"#utility.yul\":8140:8146   */\n      0x00\n        /* \"#utility.yul\":8174:8179   */\n      dup2\n        /* \"#utility.yul\":8168:8180   */\n      mload\n        /* \"#utility.yul\":8158:8180   */\n      swap1\n      pop\n        /* \"#utility.yul\":8089:8187   */\n      swap2\n      swap1\n      pop\n      jump\t// out\n        /* \"#utility.yul\":8193:8361   */\n    tag_289:\n        /* \"#utility.yul\":8276:8287   */\n      0x00\n        /* \"#utility.yul\":8310:8316   */\n      dup3\n        /* \"#utility.yul\":8305:8308   */\n      dup3\n        /* \"#utility.yul\":8298:8317   */\n      mstore\n        /* \"#utility.yul\":8350:8354   */\n      0x20\n        /* \"#utility.yul\":8345:8348   */\n      dup3\n        /* \"#utility.yul\":8341:8355   */\n      add\n        /* \"#utility.yul\":8326:8355   */\n      swap1\n      pop\n        /* \"#utility.yul\":8193:8361   */\n      swap3\n      swap2\n      pop\n      pop\n      jump\t// out\n        /* \"#utility.yul\":8367:8613   */\n    tag_290:\n        /* \"#utility.yul\":8448:8449   */\n      0x00\n        /* \"#utility.yul\":8458:8571   */\n    tag_428:\n        /* \"#utility.yul\":8472:8478   */\n      dup4\n        /* \"#utility.yul\":8469:8470   */\n      dup2\n        /* \"#utility.yul\":8466:8479   */\n      lt\n        /* \"#utility.yul\":8458:8571   */\n      iszero\n      tag_430\n      jumpi\n        /* \"#utility.yul\":8557:8558   */\n      dup1\n        /* \"#utility.yul\":8552:8555   */\n      dup3\n        /* \"#utility.yul\":8548:8559   */\n      add\n        /* \"#utility.yul\":8542:8560   */\n      mload\n        /* \"#utility.yul\":8538:8539   */\n      dup2\n        /* \"#utility.yul\":8533:8536   */\n      dup5\n        /* \"#utility.yul\":8529:8540   */\n      add\n        /* \"#utility.yul\":8522:8561   */\n      mstore\n        /* \"#utility.yul\":8494:8496   */\n      0x20\n        /* \"#utility.yul\":8491:8492   */\n      dup2\n        /* \"#utility.yul\":8487:8497   */\n      add\n        /* \"#utility.yul\":8482:8497   */\n      swap1\n      pop\n        /* \"#utility.yul\":8458:8571   */\n      jump(tag_428)\n    tag_430:\n        /* \"#utility.yul\":8605:8606   */\n      0x00\n        /* \"#utility.yul\":8596:8602   */\n      dup5\n        /* \"#utility.yul\":8591:8594   */\n      dup5\n        /* \"#utility.yul\":8587:8603   */\n      add\n        /* \"#utility.yul\":8580:8607   */\n      mstore\n        /* \"#utility.yul\":8429:8613   */\n      pop\n        /* \"#utility.yul\":8367:8613   */\n      pop\n      pop\n      pop\n      jump\t// out\n        /* \"#utility.yul\":8619:8992   */\n    tag_291:\n        /* \"#utility.yul\":8705:8708   */\n      0x00\n        /* \"#utility.yul\":8733:8771   */\n      tag_432\n        /* \"#utility.yul\":8765:8770   */\n      dup3\n        /* \"#utility.yul\":8733:8771   */\n      tag_288\n      jump\t// in\n    tag_432:\n        /* \"#utility.yul\":8787:8857   */\n      tag_433\n        /* \"#utility.yul\":8850:8856   */\n      dup2\n        /* \"#utility.yul\":8845:8848   */\n      dup6\n        /* \"#utility.yul\":8787:8857   */\n      tag_289\n      jump\t// in\n    tag_433:\n        /* \"#utility.yul\":8780:8857   */\n      swap4\n      pop\n        /* \"#utility.yul\":8866:8931   */\n      tag_434\n        /* \"#utility.yul\":8924:8930   */\n      dup2\n        /* \"#utility.yul\":8919:8922   */\n      dup6\n        /* \"#utility.yul\":8912:8916   */\n      0x20\n        /* \"#utility.yul\":8905:8910   */\n      dup7\n        /* \"#utility.yul\":8901:8917   */\n      add\n        /* \"#utility.yul\":8866:8931   */\n      tag_290\n      jump\t// in\n    tag_434:\n        /* \"#utility.yul\":8956:8985   */\n      tag_435\n        /* \"#utility.yul\":8978:8984   */\n      dup2\n        /* \"#utility.yul\":8956:8985   */\n      tag_280\n      jump\t// in\n    tag_435:\n        /* \"#utility.yul\":8951:8954   */\n      dup5\n        /* \"#utility.yul\":8947:8986   */\n      add\n        /* \"#utility.yul\":8940:8986   */\n      swap2\n      pop\n        /* \"#utility.yul\":8709:8992   */\n      pop\n        /* \"#utility.yul\":8619:8992   */\n      swap3\n      swap2\n      pop\n      pop\n      jump\t// out\n        /* \"#utility.yul\":8998:9307   */\n    tag_65:\n        /* \"#utility.yul\":9109:9113   */\n      0x00\n        /* \"#utility.yul\":9147:9149   */\n      0x20\n        /* \"#utility.yul\":9136:9145   */\n      dup3\n        /* \"#utility.yul\":9132:9150   */\n      add\n        /* \"#utility.yul\":9124:9150   */\n      swap1\n      pop\n        /* \"#utility.yul\":9196:9205   */\n      dup2\n        /* \"#utility.yul\":9190:9194   */\n      dup2\n        /* \"#utility.yul\":9186:9206   */\n      sub\n        /* \"#utility.yul\":9182:9183   */\n      0x00\n        /* \"#utility.yul\":9171:9180   */\n      dup4\n        /* \"#utility.yul\":9167:9184   */\n      add\n        /* \"#utility.yul\":9160:9207   */\n      mstore\n        /* \"#utility.yul\":9224:9300   */\n      tag_437\n        /* \"#utility.yul\":9295:9299   */\n      dup2\n        /* \"#utility.yul\":9286:9292   */\n      dup5\n        /* \"#utility.yul\":9224:9300   */\n      tag_291\n      jump\t// in\n    tag_437:\n        /* \"#utility.yul\":9216:9300   */\n      swap1\n      pop\n        /* \"#utility.yul\":8998:9307   */\n      swap3\n      swap2\n      pop\n      pop\n      jump\t// out\n        /* \"#utility.yul\":9313:9523   */\n    tag_69:\n        /* \"#utility.yul\":9400:9404   */\n      0x00\n        /* \"#utility.yul\":9438:9440   */\n      0x20\n        /* \"#utility.yul\":9427:9436   */\n      dup3\n        /* \"#utility.yul\":9423:9441   */\n      add\n        /* \"#utility.yul\":9415:9441   */\n      swap1\n      pop\n        /* \"#utility.yul\":9451:9516   */\n      tag_439\n        /* \"#utility.yul\":9513:9514   */\n      0x00\n        /* \"#utility.yul\":9502:9511   */\n      dup4\n        /* \"#utility.yul\":9498:9515   */\n      add\n        /* \"#utility.yul\":9489:9495   */\n      dup5\n        /* \"#utility.yul\":9451:9516   */\n      tag_271\n      jump\t// in\n    tag_439:\n        /* \"#utility.yul\":9313:9523   */\n      swap3\n      swap2\n      pop\n      pop\n      jump\t// out\n        /* \"#utility.yul\":9529:9633   */\n    tag_292:\n        /* \"#utility.yul\":9574:9581   */\n      0x00\n        /* \"#utility.yul\":9603:9627   */\n      tag_441\n        /* \"#utility.yul\":9621:9626   */\n      dup3\n        /* \"#utility.yul\":9603:9627   */\n      tag_264\n      jump\t// in\n    tag_441:\n        /* \"#utility.yul\":9592:9627   */\n      swap1\n      pop\n        /* \"#utility.yul\":9529:9633   */\n      swap2\n      swap1\n      pop\n      jump\t// out\n        /* \"#utility.yul\":9639:9777   */\n    tag_293:\n        /* \"#utility.yul\":9720:9752   */\n      tag_443\n        /* \"#utility.yul\":9746:9751   */\n      dup2\n        /* \"#utility.yul\":9720:9752   */\n      tag_292\n      jump\t// in\n    tag_443:\n        /* \"#utility.yul\":9713:9718   */\n      dup2\n        /* \"#utility.yul\":9710:9753   */\n      eq\n        /* \"#utility.yul\":9700:9771   */\n      tag_444\n      jumpi\n        /* \"#utility.yul\":9767:9768   */\n      0x00\n        /* \"#utility.yul\":9764:9765   */\n      dup1\n        /* \"#utility.yul\":9757:9769   */\n      revert\n        /* \"#utility.yul\":9700:9771   */\n    tag_444:\n        /* \"#utility.yul\":9639:9777   */\n      pop\n      jump\t// out\n        /* \"#utility.yul\":9783:9938   */\n    tag_294:\n        /* \"#utility.yul\":9837:9842   */\n      0x00\n        /* \"#utility.yul\":9875:9881   */\n      dup2\n        /* \"#utility.yul\":9862:9882   */\n      calldataload\n        /* \"#utility.yul\":9853:9882   */\n      swap1\n      pop\n        /* \"#utility.yul\":9891:9932   */\n      tag_446\n        /* \"#utility.yul\":9926:9931   */\n      dup2\n        /* \"#utility.yul\":9891:9932   */\n      tag_293\n      jump\t// in\n    tag_446:\n        /* \"#utility.yul\":9783:9938   */\n      swap3\n      swap2\n      pop\n      pop\n      jump\t// out\n        /* \"#utility.yul\":9944:10434   */\n    tag_76:\n        /* \"#utility.yul\":10020:10026   */\n      0x00\n        /* \"#utility.yul\":10028:10034   */\n      dup1\n        /* \"#utility.yul\":10077:10079   */\n      0x40\n        /* \"#utility.yul\":10065:10074   */\n      dup4\n        /* \"#utility.yul\":10056:10063   */\n      dup6\n        /* \"#utility.yul\":10052:10075   */\n      sub\n        /* \"#utility.yul\":10048:10080   */\n      slt\n        /* \"#utility.yul\":10045:10164   */\n      iszero\n      tag_448\n      jumpi\n        /* \"#utility.yul\":10083:10162   */\n      tag_449\n      tag_262\n      jump\t// in\n    tag_449:\n        /* \"#utility.yul\":10045:10164   */\n    tag_448:\n        /* \"#utility.yul\":10203:10204   */\n      0x00\n        /* \"#utility.yul\":10228:10289   */\n      tag_450\n        /* \"#utility.yul\":10281:10288   */\n      dup6\n        /* \"#utility.yul\":10272:10278   */\n      dup3\n        /* \"#utility.yul\":10261:10270   */\n      dup7\n        /* \"#utility.yul\":10257:10279   */\n      add\n        /* \"#utility.yul\":10228:10289   */\n      tag_294\n      jump\t// in\n    tag_450:\n        /* \"#utility.yul\":10218:10289   */\n      swap3\n      pop\n        /* \"#utility.yul\":10174:10299   */\n      pop\n        /* \"#utility.yul\":10338:10340   */\n      0x20\n        /* \"#utility.yul\":10364:10417   */\n      tag_451\n        /* \"#utility.yul\":10409:10416   */\n      dup6\n        /* \"#utility.yul\":10400:10406   */\n      dup3\n        /* \"#utility.yul\":10389:10398   */\n      dup7\n        /* \"#utility.yul\":10385:10407   */\n      add\n        /* \"#utility.yul\":10364:10417   */\n      tag_278\n      jump\t// in\n    tag_451:\n        /* \"#utility.yul\":10354:10417   */\n      swap2\n      pop\n        /* \"#utility.yul\":10309:10427   */\n      pop\n        /* \"#utility.yul\":9944:10434   */\n      swap3\n      pop\n      swap3\n      swap1\n      pop\n      jump\t// out\n        /* \"#utility.yul\":10440:10562   */\n    tag_295:\n        /* \"#utility.yul\":10513:10537   */\n      tag_453\n        /* \"#utility.yul\":10531:10536   */\n      dup2\n        /* \"#utility.yul\":10513:10537   */\n      tag_268\n      jump\t// in\n    tag_453:\n        /* \"#utility.yul\":10506:10511   */\n      dup2\n        /* \"#utility.yul\":10503:10538   */\n      eq\n        /* \"#utility.yul\":10493:10556   */\n      tag_454\n      jumpi\n        /* \"#utility.yul\":10552:10553   */\n      0x00\n        /* \"#utility.yul\":10549:10550   */\n      dup1\n        /* \"#utility.yul\":10542:10554   */\n      revert\n        /* \"#utility.yul\":10493:10556   */\n    tag_454:\n        /* \"#utility.yul\":10440:10562   */\n      pop\n      jump\t// out\n        /* \"#utility.yul\":10568:10707   */\n    tag_296:\n        /* \"#utility.yul\":10614:10619   */\n      0x00\n        /* \"#utility.yul\":10652:10658   */\n      dup2\n        /* \"#utility.yul\":10639:10659   */\n      calldataload\n        /* \"#utility.yul\":10630:10659   */\n      swap1\n      pop\n        /* \"#utility.yul\":10668:10701   */\n      tag_456\n        /* \"#utility.yul\":10695:10700   */\n      dup2\n        /* \"#utility.yul\":10668:10701   */\n      tag_295\n      jump\t// in\n    tag_456:\n        /* \"#utility.yul\":10568:10707   */\n      swap3\n      swap2\n      pop\n      pop\n      jump\t// out\n        /* \"#utility.yul\":10713:11187   */\n    tag_83:\n        /* \"#utility.yul\":10781:10787   */\n      0x00\n        /* \"#utility.yul\":10789:10795   */\n      dup1\n        /* \"#utility.yul\":10838:10840   */\n      0x40\n        /* \"#utility.yul\":10826:10835   */\n      dup4\n        /* \"#utility.yul\":10817:10824   */\n      dup6\n        /* \"#utility.yul\":10813:10836   */\n      sub\n        /* \"#utility.yul\":10809:10841   */\n      slt\n        /* \"#utility.yul\":10806:10925   */\n      iszero\n      tag_458\n      jumpi\n        /* \"#utility.yul\":10844:10923   */\n      tag_459\n      tag_262\n      jump\t// in\n    tag_459:\n        /* \"#utility.yul\":10806:10925   */\n    tag_458:\n        /* \"#utility.yul\":10964:10965   */\n      0x00\n        /* \"#utility.yul\":10989:11042   */\n      tag_460\n        /* \"#utility.yul\":11034:11041   */\n      dup6\n        /* \"#utility.yul\":11025:11031   */\n      dup3\n        /* \"#utility.yul\":11014:11023   */\n      dup7\n        /* \"#utility.yul\":11010:11032   */\n      add\n        /* \"#utility.yul\":10989:11042   */\n      tag_296\n      jump\t// in\n    tag_460:\n        /* \"#utility.yul\":10979:11042   */\n      swap3\n      pop\n        /* \"#utility.yul\":10935:11052   */\n      pop\n        /* \"#utility.yul\":11091:11093   */\n      0x20\n        /* \"#utility.yul\":11117:11170   */\n      tag_461\n        /* \"#utility.yul\":11162:11169   */\n      dup6\n        /* \"#utility.yul\":11153:11159   */\n      dup3\n        /* \"#utility.yul\":11142:11151   */\n      dup7\n        /* \"#utility.yul\":11138:11160   */\n      add\n        /* \"#utility.yul\":11117:11170   */\n      tag_278\n      jump\t// in\n    tag_461:\n        /* \"#utility.yul\":11107:11170   */\n      swap2\n      pop\n        /* \"#utility.yul\":11062:11180   */\n      pop\n        /* \"#utility.yul\":10713:11187   */\n      swap3\n      pop\n      swap3\n      swap1\n      pop\n      jump\t// out\n        /* \"#utility.yul\":11193:11522   */\n    tag_87:\n        /* \"#utility.yul\":11252:11258   */\n      0x00\n        /* \"#utility.yul\":11301:11303   */\n      0x20\n        /* \"#utility.yul\":11289:11298   */\n      dup3\n        /* \"#utility.yul\":11280:11287   */\n      dup5\n        /* \"#utility.yul\":11276:11299   */\n      sub\n        /* \"#utility.yul\":11272:11304   */\n      slt\n        /* \"#utility.yul\":11269:11388   */\n      iszero\n      tag_463\n      jumpi\n        /* \"#utility.yul\":11307:11386   */\n      tag_464\n      tag_262\n      jump\t// in\n    tag_464:\n        /* \"#utility.yul\":11269:11388   */\n    tag_463:\n        /* \"#utility.yul\":11427:11428   */\n      0x00\n        /* \"#utility.yul\":11452:11505   */\n      tag_465\n        /* \"#utility.yul\":11497:11504   */\n      dup5\n        /* \"#utility.yul\":11488:11494   */\n      dup3\n        /* \"#utility.yul\":11477:11486   */\n      dup6\n        /* \"#utility.yul\":11473:11495   */\n      add\n        /* \"#utility.yul\":11452:11505   */\n      tag_296\n      jump\t// in\n    tag_465:\n        /* \"#utility.yul\":11442:11505   */\n      swap2\n      pop\n        /* \"#utility.yul\":11398:11515   */\n      pop\n        /* \"#utility.yul\":11193:11522   */\n      swap3\n      swap2\n      pop\n      pop\n      jump\t// out\n        /* \"#utility.yul\":11528:12002   */\n    tag_92:\n        /* \"#utility.yul\":11596:11602   */\n      0x00\n        /* \"#utility.yul\":11604:11610   */\n      dup1\n        /* \"#utility.yul\":11653:11655   */\n      0x40\n        /* \"#utility.yul\":11641:11650   */\n      dup4\n        /* \"#utility.yul\":11632:11639   */\n      dup6\n        /* \"#utility.yul\":11628:11651   */\n      sub\n        /* \"#utility.yul\":11624:11656   */\n      slt\n        /* \"#utility.yul\":11621:11740   */\n      iszero\n      tag_467\n      jumpi\n        /* \"#utility.yul\":11659:11738   */\n      tag_468\n      tag_262\n      jump\t// in\n    tag_468:\n        /* \"#utility.yul\":11621:11740   */\n    tag_467:\n        /* \"#utility.yul\":11779:11780   */\n      0x00\n        /* \"#utility.yul\":11804:11857   */\n      tag_469\n        /* \"#utility.yul\":11849:11856   */\n      dup6\n        /* \"#utility.yul\":11840:11846   */\n      dup3\n        /* \"#utility.yul\":11829:11838   */\n      dup7\n        /* \"#utility.yul\":11825:11847   */\n      add\n        /* \"#utility.yul\":11804:11857   */\n      tag_296\n      jump\t// in\n    tag_469:\n        /* \"#utility.yul\":11794:11857   */\n      swap3\n      pop\n        /* \"#utility.yul\":11750:11867   */\n      pop\n        /* \"#utility.yul\":11906:11908   */\n      0x20\n        /* \"#utility.yul\":11932:11985   */\n      tag_470\n        /* \"#utility.yul\":11977:11984   */\n      dup6\n        /* \"#utility.yul\":11968:11974   */\n      dup3\n        /* \"#utility.yul\":11957:11966   */\n      dup7\n        /* \"#utility.yul\":11953:11975   */\n      add\n        /* \"#utility.yul\":11932:11985   */\n      tag_296\n      jump\t// in\n    tag_470:\n        /* \"#utility.yul\":11922:11985   */\n      swap2\n      pop\n        /* \"#utility.yul\":11877:11995   */\n      pop\n        /* \"#utility.yul\":11528:12002   */\n      swap3\n      pop\n      swap3\n      swap1\n      pop\n      jump\t// out\n        /* \"#utility.yul\":12008:12177   */\n    tag_297:\n        /* \"#utility.yul\":12092:12103   */\n      0x00\n        /* \"#utility.yul\":12126:12132   */\n      dup3\n        /* \"#utility.yul\":12121:12124   */\n      dup3\n        /* \"#utility.yul\":12114:12133   */\n      mstore\n        /* \"#utility.yul\":12166:12170   */\n      0x20\n        /* \"#utility.yul\":12161:12164   */\n      dup3\n        /* \"#utility.yul\":12157:12171   */\n      add\n        /* \"#utility.yul\":12142:12171   */\n      swap1\n      pop\n        /* \"#utility.yul\":12008:12177   */\n      swap3\n      swap2\n      pop\n      pop\n      jump\t// out\n        /* \"#utility.yul\":12183:12347   */\n    tag_298:\n        /* \"#utility.yul\":12323:12339   */\n      0x4e6f7420417574686f72697a6564000000000000000000000000000000000000\n        /* \"#utility.yul\":12319:12320   */\n      0x00\n        /* \"#utility.yul\":12311:12317   */\n      dup3\n        /* \"#utility.yul\":12307:12321   */\n      add\n        /* \"#utility.yul\":12300:12340   */\n      mstore\n        /* \"#utility.yul\":12183:12347   */\n      pop\n      jump\t// out\n        /* \"#utility.yul\":12353:12719   */\n    tag_299:\n        /* \"#utility.yul\":12495:12498   */\n      0x00\n        /* \"#utility.yul\":12516:12583   */\n      tag_474\n        /* \"#utility.yul\":12580:12582   */\n      0x0e\n        /* \"#utility.yul\":12575:12578   */\n      dup4\n        /* \"#utility.yul\":12516:12583   */\n      tag_297\n      jump\t// in\n    tag_474:\n        /* \"#utility.yul\":12509:12583   */\n      swap2\n      pop\n        /* \"#utility.yul\":12592:12685   */\n      tag_475\n        /* \"#utility.yul\":12681:12684   */\n      dup3\n        /* \"#utility.yul\":12592:12685   */\n      tag_298\n      jump\t// in\n    tag_475:\n        /* \"#utility.yul\":12710:12712   */\n      0x20\n        /* \"#utility.yul\":12705:12708   */\n      dup3\n        /* \"#utility.yul\":12701:12713   */\n      add\n        /* \"#utility.yul\":12694:12713   */\n      swap1\n      pop\n        /* \"#utility.yul\":12353:12719   */\n      swap2\n      swap1\n      pop\n      jump\t// out\n        /* \"#utility.yul\":12725:13144   */\n    tag_103:\n        /* \"#utility.yul\":12891:12895   */\n      0x00\n        /* \"#utility.yul\":12929:12931   */\n      0x20\n        /* \"#utility.yul\":12918:12927   */\n      dup3\n        /* \"#utility.yul\":12914:12932   */\n      add\n        /* \"#utility.yul\":12906:12932   */\n      swap1\n      pop\n        /* \"#utility.yul\":12978:12987   */\n      dup2\n        /* \"#utility.yul\":12972:12976   */\n      dup2\n        /* \"#utility.yul\":12968:12988   */\n      sub\n        /* \"#utility.yul\":12964:12965   */\n      0x00\n        /* \"#utility.yul\":12953:12962   */\n      dup4\n        /* \"#utility.yul\":12949:12966   */\n      add\n        /* \"#utility.yul\":12942:12989   */\n      mstore\n        /* \"#utility.yul\":13006:13137   */\n      tag_477\n        /* \"#utility.yul\":13132:13136   */\n      dup2\n        /* \"#utility.yul\":13006:13137   */\n      tag_299\n      jump\t// in\n    tag_477:\n        /* \"#utility.yul\":12998:13137   */\n      swap1\n      pop\n        /* \"#utility.yul\":12725:13144   */\n      swap2\n      swap1\n      pop\n      jump\t// out\n        /* \"#utility.yul\":13150:13330   */\n    tag_300:\n        /* \"#utility.yul\":13290:13322   */\n      0x57616c6c6574206973206e6f7420696e205265636f76657279206d6f64650000\n        /* \"#utility.yul\":13286:13287   */\n      0x00\n        /* \"#utility.yul\":13278:13284   */\n      dup3\n        /* \"#utility.yul\":13274:13288   */\n      add\n        /* \"#utility.yul\":13267:13323   */\n      mstore\n        /* \"#utility.yul\":13150:13330   */\n      pop\n      jump\t// out\n        /* \"#utility.yul\":13336:13702   */\n    tag_301:\n        /* \"#utility.yul\":13478:13481   */\n      0x00\n        /* \"#utility.yul\":13499:13566   */\n      tag_480\n        /* \"#utility.yul\":13563:13565   */\n      0x1e\n        /* \"#utility.yul\":13558:13561   */\n      dup4\n        /* \"#utility.yul\":13499:13566   */\n      tag_297\n      jump\t// in\n    tag_480:\n        /* \"#utility.yul\":13492:13566   */\n      swap2\n      pop\n        /* \"#utility.yul\":13575:13668   */\n      tag_481\n        /* \"#utility.yul\":13664:13667   */\n      dup3\n        /* \"#utility.yul\":13575:13668   */\n      tag_300\n      jump\t// in\n    tag_481:\n        /* \"#utility.yul\":13693:13695   */\n      0x20\n        /* \"#utility.yul\":13688:13691   */\n      dup3\n        /* \"#utility.yul\":13684:13696   */\n      add\n        /* \"#utility.yul\":13677:13696   */\n      swap1\n      pop\n        /* \"#utility.yul\":13336:13702   */\n      swap2\n      swap1\n      pop\n      jump\t// out\n        /* \"#utility.yul\":13708:14127   */\n    tag_107:\n        /* \"#utility.yul\":13874:13878   */\n      0x00\n        /* \"#utility.yul\":13912:13914   */\n      0x20\n        /* \"#utility.yul\":13901:13910   */\n      dup3\n        /* \"#utility.yul\":13897:13915   */\n      add\n        /* \"#utility.yul\":13889:13915   */\n      swap1\n      pop\n        /* \"#utility.yul\":13961:13970   */\n      dup2\n        /* \"#utility.yul\":13955:13959   */\n      dup2\n        /* \"#utility.yul\":13951:13971   */\n      sub\n        /* \"#utility.yul\":13947:13948   */\n      0x00\n        /* \"#utility.yul\":13936:13945   */\n      dup4\n        /* \"#utility.yul\":13932:13949   */\n      add\n        /* \"#utility.yul\":13925:13972   */\n      mstore\n        /* \"#utility.yul\":13989:14120   */\n      tag_483\n        /* \"#utility.yul\":14115:14119   */\n      dup2\n        /* \"#utility.yul\":13989:14120   */\n      tag_301\n      jump\t// in\n    tag_483:\n        /* \"#utility.yul\":13981:14120   */\n      swap1\n      pop\n        /* \"#utility.yul\":13708:14127   */\n      swap2\n      swap1\n      pop\n      jump\t// out\n        /* \"#utility.yul\":14133:14227   */\n    tag_302:\n        /* \"#utility.yul\":14166:14174   */\n      0x00\n        /* \"#utility.yul\":14214:14219   */\n      dup2\n        /* \"#utility.yul\":14210:14212   */\n      0x60\n        /* \"#utility.yul\":14206:14220   */\n      shl\n        /* \"#utility.yul\":14185:14220   */\n      swap1\n      pop\n        /* \"#utility.yul\":14133:14227   */\n      swap2\n      swap1\n      pop\n      jump\t// out\n        /* \"#utility.yul\":14233:14327   */\n    tag_303:\n        /* \"#utility.yul\":14272:14279   */\n      0x00\n        /* \"#utility.yul\":14301:14321   */\n      tag_486\n        /* \"#utility.yul\":14315:14320   */\n      dup3\n        /* \"#utility.yul\":14301:14321   */\n      tag_302\n      jump\t// in\n    tag_486:\n        /* \"#utility.yul\":14290:14321   */\n      swap1\n      pop\n        /* \"#utility.yul\":14233:14327   */\n      swap2\n      swap1\n      pop\n      jump\t// out\n        /* \"#utility.yul\":14333:14433   */\n    tag_304:\n        /* \"#utility.yul\":14372:14379   */\n      0x00\n        /* \"#utility.yul\":14401:14427   */\n      tag_488\n        /* \"#utility.yul\":14421:14426   */\n      dup3\n        /* \"#utility.yul\":14401:14427   */\n      tag_303\n      jump\t// in\n    tag_488:\n        /* \"#utility.yul\":14390:14427   */\n      swap1\n      pop\n        /* \"#utility.yul\":14333:14433   */\n      swap2\n      swap1\n      pop\n      jump\t// out\n        /* \"#utility.yul\":14439:14596   */\n    tag_305:\n        /* \"#utility.yul\":14544:14589   */\n      tag_490\n        /* \"#utility.yul\":14564:14588   */\n      tag_491\n        /* \"#utility.yul\":14582:14587   */\n      dup3\n        /* \"#utility.yul\":14564:14588   */\n      tag_265\n      jump\t// in\n    tag_491:\n        /* \"#utility.yul\":14544:14589   */\n      tag_304\n      jump\t// in\n    tag_490:\n        /* \"#utility.yul\":14539:14542   */\n      dup3\n        /* \"#utility.yul\":14532:14590   */\n      mstore\n        /* \"#utility.yul\":14439:14596   */\n      pop\n      pop\n      jump\t// out\n        /* \"#utility.yul\":14602:14858   */\n    tag_113:\n        /* \"#utility.yul\":14714:14717   */\n      0x00\n        /* \"#utility.yul\":14729:14804   */\n      tag_493\n        /* \"#utility.yul\":14800:14803   */\n      dup3\n        /* \"#utility.yul\":14791:14797   */\n      dup5\n        /* \"#utility.yul\":14729:14804   */\n      tag_305\n      jump\t// in\n    tag_493:\n        /* \"#utility.yul\":14829:14831   */\n      0x14\n        /* \"#utility.yul\":14824:14827   */\n      dup3\n        /* \"#utility.yul\":14820:14832   */\n      add\n        /* \"#utility.yul\":14813:14832   */\n      swap2\n      pop\n        /* \"#utility.yul\":14849:14852   */\n      dup2\n        /* \"#utility.yul\":14842:14852   */\n      swap1\n      pop\n        /* \"#utility.yul\":14602:14858   */\n      swap3\n      swap2\n      pop\n      pop\n      jump\t// out\n        /* \"#utility.yul\":14864:15091   */\n    tag_306:\n        /* \"#utility.yul\":15004:15038   */\n      0x4f6e6c7920477561726469616e206861732061636365737320746f2074686973\n        /* \"#utility.yul\":15000:15001   */\n      0x00\n        /* \"#utility.yul\":14992:14998   */\n      dup3\n        /* \"#utility.yul\":14988:15002   */\n      add\n        /* \"#utility.yul\":14981:15039   */\n      mstore\n        /* \"#utility.yul\":15073:15083   */\n      0x2072657175657374000000000000000000000000000000000000000000000000\n        /* \"#utility.yul\":15068:15070   */\n      0x20\n        /* \"#utility.yul\":15060:15066   */\n      dup3\n        /* \"#utility.yul\":15056:15071   */\n      add\n        /* \"#utility.yul\":15049:15084   */\n      mstore\n        /* \"#utility.yul\":14864:15091   */\n      pop\n      jump\t// out\n        /* \"#utility.yul\":15097:15463   */\n    tag_307:\n        /* \"#utility.yul\":15239:15242   */\n      0x00\n        /* \"#utility.yul\":15260:15327   */\n      tag_496\n        /* \"#utility.yul\":15324:15326   */\n      0x28\n        /* \"#utility.yul\":15319:15322   */\n      dup4\n        /* \"#utility.yul\":15260:15327   */\n      tag_297\n      jump\t// in\n    tag_496:\n        /* \"#utility.yul\":15253:15327   */\n      swap2\n      pop\n        /* \"#utility.yul\":15336:15429   */\n      tag_497\n        /* \"#utility.yul\":15425:15428   */\n      dup3\n        /* \"#utility.yul\":15336:15429   */\n      tag_306\n      jump\t// in\n    tag_497:\n        /* \"#utility.yul\":15454:15456   */\n      0x40\n        /* \"#utility.yul\":15449:15452   */\n      dup3\n        /* \"#utility.yul\":15445:15457   */\n      add\n        /* \"#utility.yul\":15438:15457   */\n      swap1\n      pop\n        /* \"#utility.yul\":15097:15463   */\n      swap2\n      swap1\n      pop\n      jump\t// out\n        /* \"#utility.yul\":15469:15888   */\n    tag_116:\n        /* \"#utility.yul\":15635:15639   */\n      0x00\n        /* \"#utility.yul\":15673:15675   */\n      0x20\n        /* \"#utility.yul\":15662:15671   */\n      dup3\n        /* \"#utility.yul\":15658:15676   */\n      add\n        /* \"#utility.yul\":15650:15676   */\n      swap1\n      pop\n        /* \"#utility.yul\":15722:15731   */\n      dup2\n        /* \"#utility.yul\":15716:15720   */\n      dup2\n        /* \"#utility.yul\":15712:15732   */\n      sub\n        /* \"#utility.yul\":15708:15709   */\n      0x00\n        /* \"#utility.yul\":15697:15706   */\n      dup4\n        /* \"#utility.yul\":15693:15710   */\n      add\n        /* \"#utility.yul\":15686:15733   */\n      mstore\n        /* \"#utility.yul\":15750:15881   */\n      tag_499\n        /* \"#utility.yul\":15876:15880   */\n      dup2\n        /* \"#utility.yul\":15750:15881   */\n      tag_307\n      jump\t// in\n    tag_499:\n        /* \"#utility.yul\":15742:15881   */\n      swap1\n      pop\n        /* \"#utility.yul\":15469:15888   */\n      swap2\n      swap1\n      pop\n      jump\t// out\n        /* \"#utility.yul\":15894:16119   */\n    tag_308:\n        /* \"#utility.yul\":16034:16068   */\n      0x4578697374696e6720477561726469616e204368616e67652052657175657374\n        /* \"#utility.yul\":16030:16031   */\n      0x00\n        /* \"#utility.yul\":16022:16028   */\n      dup3\n        /* \"#utility.yul\":16018:16032   */\n      add\n        /* \"#utility.yul\":16011:16069   */\n      mstore\n        /* \"#utility.yul\":16103:16111   */\n      0x20666f756e640000000000000000000000000000000000000000000000000000\n        /* \"#utility.yul\":16098:16100   */\n      0x20\n        /* \"#utility.yul\":16090:16096   */\n      dup3\n        /* \"#utility.yul\":16086:16101   */\n      add\n        /* \"#utility.yul\":16079:16112   */\n      mstore\n        /* \"#utility.yul\":15894:16119   */\n      pop\n      jump\t// out\n        /* \"#utility.yul\":16125:16491   */\n    tag_309:\n        /* \"#utility.yul\":16267:16270   */\n      0x00\n        /* \"#utility.yul\":16288:16355   */\n      tag_502\n        /* \"#utility.yul\":16352:16354   */\n      0x26\n        /* \"#utility.yul\":16347:16350   */\n      dup4\n        /* \"#utility.yul\":16288:16355   */\n      tag_297\n      jump\t// in\n    tag_502:\n        /* \"#utility.yul\":16281:16355   */\n      swap2\n      pop\n        /* \"#utility.yul\":16364:16457   */\n      tag_503\n        /* \"#utility.yul\":16453:16456   */\n      dup3\n        /* \"#utility.yul\":16364:16457   */\n      tag_308\n      jump\t// in\n    tag_503:\n        /* \"#utility.yul\":16482:16484   */\n      0x40\n        /* \"#utility.yul\":16477:16480   */\n      dup3\n        /* \"#utility.yul\":16473:16485   */\n      add\n        /* \"#utility.yul\":16466:16485   */\n      swap1\n      pop\n        /* \"#utility.yul\":16125:16491   */\n      swap2\n      swap1\n      pop\n      jump\t// out\n        /* \"#utility.yul\":16497:16916   */\n    tag_123:\n        /* \"#utility.yul\":16663:16667   */\n      0x00\n        /* \"#utility.yul\":16701:16703   */\n      0x20\n        /* \"#utility.yul\":16690:16699   */\n      dup3\n        /* \"#utility.yul\":16686:16704   */\n      add\n        /* \"#utility.yul\":16678:16704   */\n      swap1\n      pop\n        /* \"#utility.yul\":16750:16759   */\n      dup2\n        /* \"#utility.yul\":16744:16748   */\n      dup2\n        /* \"#utility.yul\":16740:16760   */\n      sub\n        /* \"#utility.yul\":16736:16737   */\n      0x00\n        /* \"#utility.yul\":16725:16734   */\n      dup4\n        /* \"#utility.yul\":16721:16738   */\n      add\n        /* \"#utility.yul\":16714:16761   */\n      mstore\n        /* \"#utility.yul\":16778:16909   */\n      tag_505\n        /* \"#utility.yul\":16904:16908   */\n      dup2\n        /* \"#utility.yul\":16778:16909   */\n      tag_309\n      jump\t// in\n    tag_505:\n        /* \"#utility.yul\":16770:16909   */\n      swap1\n      pop\n        /* \"#utility.yul\":16497:16916   */\n      swap2\n      swap1\n      pop\n      jump\t// out\n        /* \"#utility.yul\":16922:17142   */\n    tag_310:\n        /* \"#utility.yul\":17062:17096   */\n      0x4e6f2043757272656e7420477561726469616e205265717565737420666f756e\n        /* \"#utility.yul\":17058:17059   */\n      0x00\n        /* \"#utility.yul\":17050:17056   */\n      dup3\n        /* \"#utility.yul\":17046:17060   */\n      add\n        /* \"#utility.yul\":17039:17097   */\n      mstore\n        /* \"#utility.yul\":17131:17134   */\n      0x6400000000000000000000000000000000000000000000000000000000000000\n        /* \"#utility.yul\":17126:17128   */\n      0x20\n        /* \"#utility.yul\":17118:17124   */\n      dup3\n        /* \"#utility.yul\":17114:17129   */\n      add\n        /* \"#utility.yul\":17107:17135   */\n      mstore\n        /* \"#utility.yul\":16922:17142   */\n      pop\n      jump\t// out\n        /* \"#utility.yul\":17148:17514   */\n    tag_311:\n        /* \"#utility.yul\":17290:17293   */\n      0x00\n        /* \"#utility.yul\":17311:17378   */\n      tag_508\n        /* \"#utility.yul\":17375:17377   */\n      0x21\n        /* \"#utility.yul\":17370:17373   */\n      dup4\n        /* \"#utility.yul\":17311:17378   */\n      tag_297\n      jump\t// in\n    tag_508:\n        /* \"#utility.yul\":17304:17378   */\n      swap2\n      pop\n        /* \"#utility.yul\":17387:17480   */\n      tag_509\n        /* \"#utility.yul\":17476:17479   */\n      dup3\n        /* \"#utility.yul\":17387:17480   */\n      tag_310\n      jump\t// in\n    tag_509:\n        /* \"#utility.yul\":17505:17507   */\n      0x40\n        /* \"#utility.yul\":17500:17503   */\n      dup3\n        /* \"#utility.yul\":17496:17508   */\n      add\n        /* \"#utility.yul\":17489:17508   */\n      swap1\n      pop\n        /* \"#utility.yul\":17148:17514   */\n      swap2\n      swap1\n      pop\n      jump\t// out\n        /* \"#utility.yul\":17520:17939   */\n    tag_132:\n        /* \"#utility.yul\":17686:17690   */\n      0x00\n        /* \"#utility.yul\":17724:17726   */\n      0x20\n        /* \"#utility.yul\":17713:17722   */\n      dup3\n        /* \"#utility.yul\":17709:17727   */\n      add\n        /* \"#utility.yul\":17701:17727   */\n      swap1\n      pop\n        /* \"#utility.yul\":17773:17782   */\n      dup2\n        /* \"#utility.yul\":17767:17771   */\n      dup2\n        /* \"#utility.yul\":17763:17783   */\n      sub\n        /* \"#utility.yul\":17759:17760   */\n      0x00\n        /* \"#utility.yul\":17748:17757   */\n      dup4\n        /* \"#utility.yul\":17744:17761   */\n      add\n        /* \"#utility.yul\":17737:17784   */\n      mstore\n        /* \"#utility.yul\":17801:17932   */\n      tag_511\n        /* \"#utility.yul\":17927:17931   */\n      dup2\n        /* \"#utility.yul\":17801:17932   */\n      tag_311\n      jump\t// in\n    tag_511:\n        /* \"#utility.yul\":17793:17932   */\n      swap1\n      pop\n        /* \"#utility.yul\":17520:17939   */\n      swap2\n      swap1\n      pop\n      jump\t// out\n        /* \"#utility.yul\":17945:18121   */\n    tag_312:\n        /* \"#utility.yul\":18085:18113   */\n      0x57616c6c657420697320696e205265636f76657279206d6f6465000000000000\n        /* \"#utility.yul\":18081:18082   */\n      0x00\n        /* \"#utility.yul\":18073:18079   */\n      dup3\n        /* \"#utility.yul\":18069:18083   */\n      add\n        /* \"#utility.yul\":18062:18114   */\n      mstore\n        /* \"#utility.yul\":17945:18121   */\n      pop\n      jump\t// out\n        /* \"#utility.yul\":18127:18493   */\n    tag_313:\n        /* \"#utility.yul\":18269:18272   */\n      0x00\n        /* \"#utility.yul\":18290:18357   */\n      tag_514\n        /* \"#utility.yul\":18354:18356   */\n      0x1a\n        /* \"#utility.yul\":18349:18352   */\n      dup4\n        /* \"#utility.yul\":18290:18357   */\n      tag_297\n      jump\t// in\n    tag_514:\n        /* \"#utility.yul\":18283:18357   */\n      swap2\n      pop\n        /* \"#utility.yul\":18366:18459   */\n      tag_515\n        /* \"#utility.yul\":18455:18458   */\n      dup3\n        /* \"#utility.yul\":18366:18459   */\n      tag_312\n      jump\t// in\n    tag_515:\n        /* \"#utility.yul\":18484:18486   */\n      0x20\n        /* \"#utility.yul\":18479:18482   */\n      dup3\n        /* \"#utility.yul\":18475:18487   */\n      add\n        /* \"#utility.yul\":18468:18487   */\n      swap1\n      pop\n        /* \"#utility.yul\":18127:18493   */\n      swap2\n      swap1\n      pop\n      jump\t// out\n        /* \"#utility.yul\":18499:18918   */\n    tag_136:\n        /* \"#utility.yul\":18665:18669   */\n      0x00\n        /* \"#utility.yul\":18703:18705   */\n      0x20\n        /* \"#utility.yul\":18692:18701   */\n      dup3\n        /* \"#utility.yul\":18688:18706   */\n      add\n        /* \"#utility.yul\":18680:18706   */\n      swap1\n      pop\n        /* \"#utility.yul\":18752:18761   */\n      dup2\n        /* \"#utility.yul\":18746:18750   */\n      dup2\n        /* \"#utility.yul\":18742:18762   */\n      sub\n        /* \"#utility.yul\":18738:18739   */\n      0x00\n        /* \"#utility.yul\":18727:18736   */\n      dup4\n        /* \"#utility.yul\":18723:18740   */\n      add\n        /* \"#utility.yul\":18716:18763   */\n      mstore\n        /* \"#utility.yul\":18780:18911   */\n      tag_517\n        /* \"#utility.yul\":18906:18910   */\n      dup2\n        /* \"#utility.yul\":18780:18911   */\n      tag_313\n      jump\t// in\n    tag_517:\n        /* \"#utility.yul\":18772:18911   */\n      swap1\n      pop\n        /* \"#utility.yul\":18499:18918   */\n      swap2\n      swap1\n      pop\n      jump\t// out\n        /* \"#utility.yul\":18924:19106   */\n    tag_314:\n        /* \"#utility.yul\":19064:19098   */\n      0x477561726469616e205265717565737420697320616c72656164792055736564\n        /* \"#utility.yul\":19060:19061   */\n      0x00\n        /* \"#utility.yul\":19052:19058   */\n      dup3\n        /* \"#utility.yul\":19048:19062   */\n      add\n        /* \"#utility.yul\":19041:19099   */\n      mstore\n        /* \"#utility.yul\":18924:19106   */\n      pop\n      jump\t// out\n        /* \"#utility.yul\":19112:19478   */\n    tag_315:\n        /* \"#utility.yul\":19254:19257   */\n      0x00\n        /* \"#utility.yul\":19275:19342   */\n      tag_520\n        /* \"#utility.yul\":19339:19341   */\n      0x20\n        /* \"#utility.yul\":19334:19337   */\n      dup4\n        /* \"#utility.yul\":19275:19342   */\n      tag_297\n      jump\t// in\n    tag_520:\n        /* \"#utility.yul\":19268:19342   */\n      swap2\n      pop\n        /* \"#utility.yul\":19351:19444   */\n      tag_521\n        /* \"#utility.yul\":19440:19443   */\n      dup3\n        /* \"#utility.yul\":19351:19444   */\n      tag_314\n      jump\t// in\n    tag_521:\n        /* \"#utility.yul\":19469:19471   */\n      0x20\n        /* \"#utility.yul\":19464:19467   */\n      dup3\n        /* \"#utility.yul\":19460:19472   */\n      add\n        /* \"#utility.yul\":19453:19472   */\n      swap1\n      pop\n        /* \"#utility.yul\":19112:19478   */\n      swap2\n      swap1\n      pop\n      jump\t// out\n        /* \"#utility.yul\":19484:19903   */\n    tag_140:\n        /* \"#utility.yul\":19650:19654   */\n      0x00\n        /* \"#utility.yul\":19688:19690   */\n      0x20\n        /* \"#utility.yul\":19677:19686   */\n      dup3\n        /* \"#utility.yul\":19673:19691   */\n      add\n        /* \"#utility.yul\":19665:19691   */\n      swap1\n      pop\n        /* \"#utility.yul\":19737:19746   */\n      dup2\n        /* \"#utility.yul\":19731:19735   */\n      dup2\n        /* \"#utility.yul\":19727:19747   */\n      sub\n        /* \"#utility.yul\":19723:19724   */\n      0x00\n        /* \"#utility.yul\":19712:19721   */\n      dup4\n        /* \"#utility.yul\":19708:19725   */\n      add\n        /* \"#utility.yul\":19701:19748   */\n      mstore\n        /* \"#utility.yul\":19765:19896   */\n      tag_523\n        /* \"#utility.yul\":19891:19895   */\n      dup2\n        /* \"#utility.yul\":19765:19896   */\n      tag_315\n      jump\t// in\n    tag_523:\n        /* \"#utility.yul\":19757:19896   */\n      swap1\n      pop\n        /* \"#utility.yul\":19484:19903   */\n      swap2\n      swap1\n      pop\n      jump\t// out\n        /* \"#utility.yul\":19909:20131   */\n    tag_142:\n        /* \"#utility.yul\":20002:20006   */\n      0x00\n        /* \"#utility.yul\":20040:20042   */\n      0x20\n        /* \"#utility.yul\":20029:20038   */\n      dup3\n        /* \"#utility.yul\":20025:20043   */\n      add\n        /* \"#utility.yul\":20017:20043   */\n      swap1\n      pop\n        /* \"#utility.yul\":20053:20124   */\n      tag_525\n        /* \"#utility.yul\":20121:20122   */\n      0x00\n        /* \"#utility.yul\":20110:20119   */\n      dup4\n        /* \"#utility.yul\":20106:20123   */\n      add\n        /* \"#utility.yul\":20097:20103   */\n      dup5\n        /* \"#utility.yul\":20053:20124   */\n      tag_269\n      jump\t// in\n    tag_525:\n        /* \"#utility.yul\":19909:20131   */\n      swap3\n      swap2\n      pop\n      pop\n      jump\t// out\n        /* \"#utility.yul\":20137:20369   */\n    tag_316:\n        /* \"#utility.yul\":20277:20311   */\n      0x6d6f726520677561726469616e7320726571756972656420746f207472616e73\n        /* \"#utility.yul\":20273:20274   */\n      0x00\n        /* \"#utility.yul\":20265:20271   */\n      dup3\n        /* \"#utility.yul\":20261:20275   */\n      add\n        /* \"#utility.yul\":20254:20312   */\n      mstore\n        /* \"#utility.yul\":20346:20361   */\n      0x666572206f776e65727368697000000000000000000000000000000000000000\n        /* \"#utility.yul\":20341:20343   */\n      0x20\n        /* \"#utility.yul\":20333:20339   */\n      dup3\n        /* \"#utility.yul\":20329:20344   */\n      add\n        /* \"#utility.yul\":20322:20362   */\n      mstore\n        /* \"#utility.yul\":20137:20369   */\n      pop\n      jump\t// out\n        /* \"#utility.yul\":20375:20741   */\n    tag_317:\n        /* \"#utility.yul\":20517:20520   */\n      0x00\n        /* \"#utility.yul\":20538:20605   */\n      tag_528\n        /* \"#utility.yul\":20602:20604   */\n      0x2d\n        /* \"#utility.yul\":20597:20600   */\n      dup4\n        /* \"#utility.yul\":20538:20605   */\n      tag_297\n      jump\t// in\n    tag_528:\n        /* \"#utility.yul\":20531:20605   */\n      swap2\n      pop\n        /* \"#utility.yul\":20614:20707   */\n      tag_529\n        /* \"#utility.yul\":20703:20706   */\n      dup3\n        /* \"#utility.yul\":20614:20707   */\n      tag_316\n      jump\t// in\n    tag_529:\n        /* \"#utility.yul\":20732:20734   */\n      0x40\n        /* \"#utility.yul\":20727:20730   */\n      dup3\n        /* \"#utility.yul\":20723:20735   */\n      add\n        /* \"#utility.yul\":20716:20735   */\n      swap1\n      pop\n        /* \"#utility.yul\":20375:20741   */\n      swap2\n      swap1\n      pop\n      jump\t// out\n        /* \"#utility.yul\":20747:21166   */\n    tag_156:\n        /* \"#utility.yul\":20913:20917   */\n      0x00\n        /* \"#utility.yul\":20951:20953   */\n      0x20\n        /* \"#utility.yul\":20940:20949   */\n      dup3\n        /* \"#utility.yul\":20936:20954   */\n      add\n        /* \"#utility.yul\":20928:20954   */\n      swap1\n      pop\n        /* \"#utility.yul\":21000:21009   */\n      dup2\n        /* \"#utility.yul\":20994:20998   */\n      dup2\n        /* \"#utility.yul\":20990:21010   */\n      sub\n        /* \"#utility.yul\":20986:20987   */\n      0x00\n        /* \"#utility.yul\":20975:20984   */\n      dup4\n        /* \"#utility.yul\":20971:20988   */\n      add\n        /* \"#utility.yul\":20964:21011   */\n      mstore\n        /* \"#utility.yul\":21028:21159   */\n      tag_531\n        /* \"#utility.yul\":21154:21158   */\n      dup2\n        /* \"#utility.yul\":21028:21159   */\n      tag_317\n      jump\t// in\n    tag_531:\n        /* \"#utility.yul\":21020:21159   */\n      swap1\n      pop\n        /* \"#utility.yul\":20747:21166   */\n      swap2\n      swap1\n      pop\n      jump\t// out\n        /* \"#utility.yul\":21172:21352   */\n    tag_162:\n        /* \"#utility.yul\":21220:21297   */\n      0x4e487b7100000000000000000000000000000000000000000000000000000000\n        /* \"#utility.yul\":21217:21218   */\n      0x00\n        /* \"#utility.yul\":21210:21298   */\n      mstore\n        /* \"#utility.yul\":21317:21321   */\n      0x32\n        /* \"#utility.yul\":21314:21315   */\n      0x04\n        /* \"#utility.yul\":21307:21322   */\n      mstore\n        /* \"#utility.yul\":21341:21345   */\n      0x24\n        /* \"#utility.yul\":21338:21339   */\n      0x00\n        /* \"#utility.yul\":21331:21346   */\n      revert\n        /* \"#utility.yul\":21358:21522   */\n    tag_318:\n        /* \"#utility.yul\":21498:21514   */\n      0x726f756e64206d69736d61746368000000000000000000000000000000000000\n        /* \"#utility.yul\":21494:21495   */\n      0x00\n        /* \"#utility.yul\":21486:21492   */\n      dup3\n        /* \"#utility.yul\":21482:21496   */\n      add\n        /* \"#utility.yul\":21475:21515   */\n      mstore\n        /* \"#utility.yul\":21358:21522   */\n      pop\n      jump\t// out\n        /* \"#utility.yul\":21528:21894   */\n    tag_319:\n        /* \"#utility.yul\":21670:21673   */\n      0x00\n        /* \"#utility.yul\":21691:21758   */\n      tag_535\n        /* \"#utility.yul\":21755:21757   */\n      0x0e\n        /* \"#utility.yul\":21750:21753   */\n      dup4\n        /* \"#utility.yul\":21691:21758   */\n      tag_297\n      jump\t// in\n    tag_535:\n        /* \"#utility.yul\":21684:21758   */\n      swap2\n      pop\n        /* \"#utility.yul\":21767:21860   */\n      tag_536\n        /* \"#utility.yul\":21856:21859   */\n      dup3\n        /* \"#utility.yul\":21767:21860   */\n      tag_318\n      jump\t// in\n    tag_536:\n        /* \"#utility.yul\":21885:21887   */\n      0x20\n        /* \"#utility.yul\":21880:21883   */\n      dup3\n        /* \"#utility.yul\":21876:21888   */\n      add\n        /* \"#utility.yul\":21869:21888   */\n      swap1\n      pop\n        /* \"#utility.yul\":21528:21894   */\n      swap2\n      swap1\n      pop\n      jump\t// out\n        /* \"#utility.yul\":21900:22319   */\n    tag_166:\n        /* \"#utility.yul\":22066:22070   */\n      0x00\n        /* \"#utility.yul\":22104:22106   */\n      0x20\n        /* \"#utility.yul\":22093:22102   */\n      dup3\n        /* \"#utility.yul\":22089:22107   */\n      add\n        /* \"#utility.yul\":22081:22107   */\n      swap1\n      pop\n        /* \"#utility.yul\":22153:22162   */\n      dup2\n        /* \"#utility.yul\":22147:22151   */\n      dup2\n        /* \"#utility.yul\":22143:22163   */\n      sub\n        /* \"#utility.yul\":22139:22140   */\n      0x00\n        /* \"#utility.yul\":22128:22137   */\n      dup4\n        /* \"#utility.yul\":22124:22141   */\n      add\n        /* \"#utility.yul\":22117:22164   */\n      mstore\n        /* \"#utility.yul\":22181:22312   */\n      tag_538\n        /* \"#utility.yul\":22307:22311   */\n      dup2\n        /* \"#utility.yul\":22181:22312   */\n      tag_319\n      jump\t// in\n    tag_538:\n        /* \"#utility.yul\":22173:22312   */\n      swap1\n      pop\n        /* \"#utility.yul\":21900:22319   */\n      swap2\n      swap1\n      pop\n      jump\t// out\n        /* \"#utility.yul\":22325:22500   */\n    tag_320:\n        /* \"#utility.yul\":22465:22492   */\n      0x64697361677265656d656e74206f6e206e6577206f776e657200000000000000\n        /* \"#utility.yul\":22461:22462   */\n      0x00\n        /* \"#utility.yul\":22453:22459   */\n      dup3\n        /* \"#utility.yul\":22449:22463   */\n      add\n        /* \"#utility.yul\":22442:22493   */\n      mstore\n        /* \"#utility.yul\":22325:22500   */\n      pop\n      jump\t// out\n        /* \"#utility.yul\":22506:22872   */\n    tag_321:\n        /* \"#utility.yul\":22648:22651   */\n      0x00\n        /* \"#utility.yul\":22669:22736   */\n      tag_541\n        /* \"#utility.yul\":22733:22735   */\n      0x19\n        /* \"#utility.yul\":22728:22731   */\n      dup4\n        /* \"#utility.yul\":22669:22736   */\n      tag_297\n      jump\t// in\n    tag_541:\n        /* \"#utility.yul\":22662:22736   */\n      swap2\n      pop\n        /* \"#utility.yul\":22745:22838   */\n      tag_542\n        /* \"#utility.yul\":22834:22837   */\n      dup3\n        /* \"#utility.yul\":22745:22838   */\n      tag_320\n      jump\t// in\n    tag_542:\n        /* \"#utility.yul\":22863:22865   */\n      0x20\n        /* \"#utility.yul\":22858:22861   */\n      dup3\n        /* \"#utility.yul\":22854:22866   */\n      add\n        /* \"#utility.yul\":22847:22866   */\n      swap1\n      pop\n        /* \"#utility.yul\":22506:22872   */\n      swap2\n      swap1\n      pop\n      jump\t// out\n        /* \"#utility.yul\":22878:23297   */\n    tag_169:\n        /* \"#utility.yul\":23044:23048   */\n      0x00\n        /* \"#utility.yul\":23082:23084   */\n      0x20\n        /* \"#utility.yul\":23071:23080   */\n      dup3\n        /* \"#utility.yul\":23067:23085   */\n      add\n        /* \"#utility.yul\":23059:23085   */\n      swap1\n      pop\n        /* \"#utility.yul\":23131:23140   */\n      dup2\n        /* \"#utility.yul\":23125:23129   */\n      dup2\n        /* \"#utility.yul\":23121:23141   */\n      sub\n        /* \"#utility.yul\":23117:23118   */\n      0x00\n        /* \"#utility.yul\":23106:23115   */\n      dup4\n        /* \"#utility.yul\":23102:23119   */\n      add\n        /* \"#utility.yul\":23095:23142   */\n      mstore\n        /* \"#utility.yul\":23159:23290   */\n      tag_544\n        /* \"#utility.yul\":23285:23289   */\n      dup2\n        /* \"#utility.yul\":23159:23290   */\n      tag_321\n      jump\t// in\n    tag_544:\n        /* \"#utility.yul\":23151:23290   */\n      swap1\n      pop\n        /* \"#utility.yul\":22878:23297   */\n      swap2\n      swap1\n      pop\n      jump\t// out\n        /* \"#utility.yul\":23303:23525   */\n    tag_322:\n        /* \"#utility.yul\":23443:23477   */\n      0x6475706c696361746520677561726469616e207573656420696e207265636f76\n        /* \"#utility.yul\":23439:23440   */\n      0x00\n        /* \"#utility.yul\":23431:23437   */\n      dup3\n        /* \"#utility.yul\":23427:23441   */\n      add\n        /* \"#utility.yul\":23420:23478   */\n      mstore\n        /* \"#utility.yul\":23512:23517   */\n      0x6572790000000000000000000000000000000000000000000000000000000000\n        /* \"#utility.yul\":23507:23509   */\n      0x20\n        /* \"#utility.yul\":23499:23505   */\n      dup3\n        /* \"#utility.yul\":23495:23510   */\n      add\n        /* \"#utility.yul\":23488:23518   */\n      mstore\n        /* \"#utility.yul\":23303:23525   */\n      pop\n      jump\t// out\n        /* \"#utility.yul\":23531:23897   */\n    tag_323:\n        /* \"#utility.yul\":23673:23676   */\n      0x00\n        /* \"#utility.yul\":23694:23761   */\n      tag_547\n        /* \"#utility.yul\":23758:23760   */\n      0x23\n        /* \"#utility.yul\":23753:23756   */\n      dup4\n        /* \"#utility.yul\":23694:23761   */\n      tag_297\n      jump\t// in\n    tag_547:\n        /* \"#utility.yul\":23687:23761   */\n      swap2\n      pop\n        /* \"#utility.yul\":23770:23863   */\n      tag_548\n        /* \"#utility.yul\":23859:23862   */\n      dup3\n        /* \"#utility.yul\":23770:23863   */\n      tag_322\n      jump\t// in\n    tag_548:\n        /* \"#utility.yul\":23888:23890   */\n      0x40\n        /* \"#utility.yul\":23883:23886   */\n      dup3\n        /* \"#utility.yul\":23879:23891   */\n      add\n        /* \"#utility.yul\":23872:23891   */\n      swap1\n      pop\n        /* \"#utility.yul\":23531:23897   */\n      swap2\n      swap1\n      pop\n      jump\t// out\n        /* \"#utility.yul\":23903:24322   */\n    tag_172:\n        /* \"#utility.yul\":24069:24073   */\n      0x00\n        /* \"#utility.yul\":24107:24109   */\n      0x20\n        /* \"#utility.yul\":24096:24105   */\n      dup3\n        /* \"#utility.yul\":24092:24110   */\n      add\n        /* \"#utility.yul\":24084:24110   */\n      swap1\n      pop\n        /* \"#utility.yul\":24156:24165   */\n      dup2\n        /* \"#utility.yul\":24150:24154   */\n      dup2\n        /* \"#utility.yul\":24146:24166   */\n      sub\n        /* \"#utility.yul\":24142:24143   */\n      0x00\n        /* \"#utility.yul\":24131:24140   */\n      dup4\n        /* \"#utility.yul\":24127:24144   */\n      add\n        /* \"#utility.yul\":24120:24167   */\n      mstore\n        /* \"#utility.yul\":24184:24315   */\n      tag_550\n        /* \"#utility.yul\":24310:24314   */\n      dup2\n        /* \"#utility.yul\":24184:24315   */\n      tag_323\n      jump\t// in\n    tag_550:\n        /* \"#utility.yul\":24176:24315   */\n      swap1\n      pop\n        /* \"#utility.yul\":23903:24322   */\n      swap2\n      swap1\n      pop\n      jump\t// out\n        /* \"#utility.yul\":24328:24508   */\n    tag_324:\n        /* \"#utility.yul\":24376:24453   */\n      0x4e487b7100000000000000000000000000000000000000000000000000000000\n        /* \"#utility.yul\":24373:24374   */\n      0x00\n        /* \"#utility.yul\":24366:24454   */\n      mstore\n        /* \"#utility.yul\":24473:24477   */\n      0x11\n        /* \"#utility.yul\":24470:24471   */\n      0x04\n        /* \"#utility.yul\":24463:24478   */\n      mstore\n        /* \"#utility.yul\":24497:24501   */\n      0x24\n        /* \"#utility.yul\":24494:24495   */\n      0x00\n        /* \"#utility.yul\":24487:24502   */\n      revert\n        /* \"#utility.yul\":24514:24747   */\n    tag_177:\n        /* \"#utility.yul\":24553:24556   */\n      0x00\n        /* \"#utility.yul\":24576:24600   */\n      tag_553\n        /* \"#utility.yul\":24594:24599   */\n      dup3\n        /* \"#utility.yul\":24576:24600   */\n      tag_259\n      jump\t// in\n    tag_553:\n        /* \"#utility.yul\":24567:24600   */\n      swap2\n      pop\n        /* \"#utility.yul\":24622:24688   */\n      0xffffffffffffffffffffffffffffffffffffffffffffffffffffffffffffffff\n        /* \"#utility.yul\":24615:24620   */\n      dup3\n        /* \"#utility.yul\":24612:24689   */\n      sub\n        /* \"#utility.yul\":24609:24712   */\n      tag_554\n      jumpi\n        /* \"#utility.yul\":24692:24710   */\n      tag_555\n      tag_324\n      jump\t// in\n    tag_555:\n        /* \"#utility.yul\":24609:24712   */\n    tag_554:\n        /* \"#utility.yul\":24739:24740   */\n      0x01\n        /* \"#utility.yul\":24732:24737   */\n      dup3\n        /* \"#utility.yul\":24728:24741   */\n      add\n        /* \"#utility.yul\":24721:24741   */\n      swap1\n      pop\n        /* \"#utility.yul\":24514:24747   */\n      swap2\n      swap1\n      pop\n      jump\t// out\n        /* \"#utility.yul\":24753:25085   */\n    tag_179:\n        /* \"#utility.yul\":24874:24878   */\n      0x00\n        /* \"#utility.yul\":24912:24914   */\n      0x40\n        /* \"#utility.yul\":24901:24910   */\n      dup3\n        /* \"#utility.yul\":24897:24915   */\n      add\n        /* \"#utility.yul\":24889:24915   */\n      swap1\n      pop\n        /* \"#utility.yul\":24925:24996   */\n      tag_557\n        /* \"#utility.yul\":24993:24994   */\n      0x00\n        /* \"#utility.yul\":24982:24991   */\n      dup4\n        /* \"#utility.yul\":24978:24995   */\n      add\n        /* \"#utility.yul\":24969:24975   */\n      dup6\n        /* \"#utility.yul\":24925:24996   */\n      tag_272\n      jump\t// in\n    tag_557:\n        /* \"#utility.yul\":25006:25078   */\n      tag_558\n        /* \"#utility.yul\":25074:25076   */\n      0x20\n        /* \"#utility.yul\":25063:25072   */\n      dup4\n        /* \"#utility.yul\":25059:25077   */\n      add\n        /* \"#utility.yul\":25050:25056   */\n      dup5\n        /* \"#utility.yul\":25006:25078   */\n      tag_272\n      jump\t// in\n    tag_558:\n        /* \"#utility.yul\":24753:25085   */\n      swap4\n      swap3\n      pop\n      pop\n      pop\n      jump\t// out\n        /* \"#utility.yul\":25091:25238   */\n    tag_325:\n        /* \"#utility.yul\":25192:25203   */\n      0x00\n        /* \"#utility.yul\":25229:25232   */\n      dup2\n        /* \"#utility.yul\":25214:25232   */\n      swap1\n      pop\n        /* \"#utility.yul\":25091:25238   */\n      swap3\n      swap2\n      pop\n      pop\n      jump\t// out\n        /* \"#utility.yul\":25244:25630   */\n    tag_326:\n        /* \"#utility.yul\":25348:25351   */\n      0x00\n        /* \"#utility.yul\":25376:25414   */\n      tag_561\n        /* \"#utility.yul\":25408:25413   */\n      dup3\n        /* \"#utility.yul\":25376:25414   */\n      tag_288\n      jump\t// in\n    tag_561:\n        /* \"#utility.yul\":25430:25518   */\n      tag_562\n        /* \"#utility.yul\":25511:25517   */\n      dup2\n        /* \"#utility.yul\":25506:25509   */\n      dup6\n        /* \"#utility.yul\":25430:25518   */\n      tag_325\n      jump\t// in\n    tag_562:\n        /* \"#utility.yul\":25423:25518   */\n      swap4\n      pop\n        /* \"#utility.yul\":25527:25592   */\n      tag_563\n        /* \"#utility.yul\":25585:25591   */\n      dup2\n        /* \"#utility.yul\":25580:25583   */\n      dup6\n        /* \"#utility.yul\":25573:25577   */\n      0x20\n        /* \"#utility.yul\":25566:25571   */\n      dup7\n        /* \"#utility.yul\":25562:25578   */\n      add\n        /* \"#utility.yul\":25527:25592   */\n      tag_290\n      jump\t// in\n    tag_563:\n        /* \"#utility.yul\":25617:25623   */\n      dup1\n        /* \"#utility.yul\":25612:25615   */\n      dup5\n        /* \"#utility.yul\":25608:25624   */\n      add\n        /* \"#utility.yul\":25601:25624   */\n      swap2\n      pop\n        /* \"#utility.yul\":25352:25630   */\n      pop\n        /* \"#utility.yul\":25244:25630   */\n      swap3\n      swap2\n      pop\n      pop\n      jump\t// out\n        /* \"#utility.yul\":25636:25907   */\n    tag_188:\n        /* \"#utility.yul\":25766:25769   */\n      0x00\n        /* \"#utility.yul\":25788:25881   */\n      tag_565\n        /* \"#utility.yul\":25877:25880   */\n      dup3\n        /* \"#utility.yul\":25868:25874   */\n      dup5\n        /* \"#utility.yul\":25788:25881   */\n      tag_326\n      jump\t// in\n    tag_565:\n        /* \"#utility.yul\":25781:25881   */\n      swap2\n      pop\n        /* \"#utility.yul\":25898:25901   */\n      dup2\n        /* \"#utility.yul\":25891:25901   */\n      swap1\n      pop\n        /* \"#utility.yul\":25636:25907   */\n      swap3\n      swap2\n      pop\n      pop\n      jump\t// out\n        /* \"#utility.yul\":25913:26085   */\n    tag_327:\n        /* \"#utility.yul\":26053:26077   */\n      0x436f6e74726163742043616c6c20526576657274656400000000000000000000\n        /* \"#utility.yul\":26049:26050   */\n      0x00\n        /* \"#utility.yul\":26041:26047   */\n      dup3\n        /* \"#utility.yul\":26037:26051   */\n      add\n        /* \"#utility.yul\":26030:26078   */\n      mstore\n        /* \"#utility.yul\":25913:26085   */\n      pop\n      jump\t// out\n        /* \"#utility.yul\":26091:26457   */\n    tag_328:\n        /* \"#utility.yul\":26233:26236   */\n      0x00\n        /* \"#utility.yul\":26254:26321   */\n      tag_568\n        /* \"#utility.yul\":26318:26320   */\n      0x16\n        /* \"#utility.yul\":26313:26316   */\n      dup4\n        /* \"#utility.yul\":26254:26321   */\n      tag_297\n      jump\t// in\n    tag_568:\n        /* \"#utility.yul\":26247:26321   */\n      swap2\n      pop\n        /* \"#utility.yul\":26330:26423   */\n      tag_569\n        /* \"#utility.yul\":26419:26422   */\n      dup3\n        /* \"#utility.yul\":26330:26423   */\n      tag_327\n      jump\t// in\n    tag_569:\n        /* \"#utility.yul\":26448:26450   */\n      0x20\n        /* \"#utility.yul\":26443:26446   */\n      dup3\n        /* \"#utility.yul\":26439:26451   */\n      add\n        /* \"#utility.yul\":26432:26451   */\n      swap1\n      pop\n        /* \"#utility.yul\":26091:26457   */\n      swap2\n      swap1\n      pop\n      jump\t// out\n        /* \"#utility.yul\":26463:26882   */\n    tag_194:\n        /* \"#utility.yul\":26629:26633   */\n      0x00\n        /* \"#utility.yul\":26667:26669   */\n      0x20\n        /* \"#utility.yul\":26656:26665   */\n      dup3\n        /* \"#utility.yul\":26652:26670   */\n      add\n        /* \"#utility.yul\":26644:26670   */\n      swap1\n      pop\n        /* \"#utility.yul\":26716:26725   */\n      dup2\n        /* \"#utility.yul\":26710:26714   */\n      dup2\n        /* \"#utility.yul\":26706:26726   */\n      sub\n        /* \"#utility.yul\":26702:26703   */\n      0x00\n        /* \"#utility.yul\":26691:26700   */\n      dup4\n        /* \"#utility.yul\":26687:26704   */\n      add\n        /* \"#utility.yul\":26680:26727   */\n      mstore\n        /* \"#utility.yul\":26744:26875   */\n      tag_571\n        /* \"#utility.yul\":26870:26874   */\n      dup2\n        /* \"#utility.yul\":26744:26875   */\n      tag_328\n      jump\t// in\n    tag_571:\n        /* \"#utility.yul\":26736:26875   */\n      swap1\n      pop\n        /* \"#utility.yul\":26463:26882   */\n      swap2\n      swap1\n      pop\n      jump\t// out\n        /* \"#utility.yul\":26888:27307   */\n    tag_196:\n        /* \"#utility.yul\":27027:27031   */\n      0x00\n        /* \"#utility.yul\":27065:27067   */\n      0x40\n        /* \"#utility.yul\":27054:27063   */\n      dup3\n        /* \"#utility.yul\":27050:27068   */\n      add\n        /* \"#utility.yul\":27042:27068   */\n      swap1\n      pop\n        /* \"#utility.yul\":27078:27149   */\n      tag_573\n        /* \"#utility.yul\":27146:27147   */\n      0x00\n        /* \"#utility.yul\":27135:27144   */\n      dup4\n        /* \"#utility.yul\":27131:27148   */\n      add\n        /* \"#utility.yul\":27122:27128   */\n      dup6\n        /* \"#utility.yul\":27078:27149   */\n      tag_260\n      jump\t// in\n    tag_573:\n        /* \"#utility.yul\":27196:27205   */\n      dup2\n        /* \"#utility.yul\":27190:27194   */\n      dup2\n        /* \"#utility.yul\":27186:27206   */\n      sub\n        /* \"#utility.yul\":27181:27183   */\n      0x20\n        /* \"#utility.yul\":27170:27179   */\n      dup4\n        /* \"#utility.yul\":27166:27184   */\n      add\n        /* \"#utility.yul\":27159:27207   */\n      mstore\n        /* \"#utility.yul\":27224:27300   */\n      tag_574\n        /* \"#utility.yul\":27295:27299   */\n      dup2\n        /* \"#utility.yul\":27286:27292   */\n      dup5\n        /* \"#utility.yul\":27224:27300   */\n      tag_291\n      jump\t// in\n    tag_574:\n        /* \"#utility.yul\":27216:27300   */\n      swap1\n      pop\n        /* \"#utility.yul\":26888:27307   */\n      swap4\n      swap3\n      pop\n      pop\n      pop\n      jump\t// out\n        /* \"#utility.yul\":27313:27477   */\n    tag_329:\n        /* \"#utility.yul\":27453:27469   */\n      0x6e6f74206120677561726469616e000000000000000000000000000000000000\n        /* \"#utility.yul\":27449:27450   */\n      0x00\n        /* \"#utility.yul\":27441:27447   */\n      dup3\n        /* \"#utility.yul\":27437:27451   */\n      add\n        /* \"#utility.yul\":27430:27470   */\n      mstore\n        /* \"#utility.yul\":27313:27477   */\n      pop\n      jump\t// out\n        /* \"#utility.yul\":27483:27849   */\n    tag_330:\n        /* \"#utility.yul\":27625:27628   */\n      0x00\n        /* \"#utility.yul\":27646:27713   */\n      tag_577\n        /* \"#utility.yul\":27710:27712   */\n      0x0e\n        /* \"#utility.yul\":27705:27708   */\n      dup4\n        /* \"#utility.yul\":27646:27713   */\n      tag_297\n      jump\t// in\n    tag_577:\n        /* \"#utility.yul\":27639:27713   */\n      swap2\n      pop\n        /* \"#utility.yul\":27722:27815   */\n      tag_578\n        /* \"#utility.yul\":27811:27814   */\n      dup3\n        /* \"#utility.yul\":27722:27815   */\n      tag_329\n      jump\t// in\n    tag_578:\n        /* \"#utility.yul\":27840:27842   */\n      0x20\n        /* \"#utility.yul\":27835:27838   */\n      dup3\n        /* \"#utility.yul\":27831:27843   */\n      add\n        /* \"#utility.yul\":27824:27843   */\n      swap1\n      pop\n        /* \"#utility.yul\":27483:27849   */\n      swap2\n      swap1\n      pop\n      jump\t// out\n        /* \"#utility.yul\":27855:28274   */\n    tag_229:\n        /* \"#utility.yul\":28021:28025   */\n      0x00\n        /* \"#utility.yul\":28059:28061   */\n      0x20\n        /* \"#utility.yul\":28048:28057   */\n      dup3\n        /* \"#utility.yul\":28044:28062   */\n      add\n        /* \"#utility.yul\":28036:28062   */\n      swap1\n      pop\n        /* \"#utility.yul\":28108:28117   */\n      dup2\n        /* \"#utility.yul\":28102:28106   */\n      dup2\n        /* \"#utility.yul\":28098:28118   */\n      sub\n        /* \"#utility.yul\":28094:28095   */\n      0x00\n        /* \"#utility.yul\":28083:28092   */\n      dup4\n        /* \"#utility.yul\":28079:28096   */\n      add\n        /* \"#utility.yul\":28072:28119   */\n      mstore\n        /* \"#utility.yul\":28136:28267   */\n      tag_580\n        /* \"#utility.yul\":28262:28266   */\n      dup2\n        /* \"#utility.yul\":28136:28267   */\n      tag_330\n      jump\t// in\n    tag_580:\n        /* \"#utility.yul\":28128:28267   */\n      swap1\n      pop\n        /* \"#utility.yul\":27855:28274   */\n      swap2\n      swap1\n      pop\n      jump\t// out\n\n    auxdata: 0xa264697066735822122018adffd3a757622b2accbc1a4a071d1323391f142fff0d5b21b28cf83c21ea2264736f6c63430008140033\n}\n",
				"bytecode": {
					"linkReferences": {},
					"object": "608060405234801562000010575f80fd5b5060405162002e9838038062002e988339818101604052810190620000369190620003a7565b60015f81905550815181111562000084576040517f08c379a00000000000000000000000000000000000000000000000000000000081526004016200007b9062000469565b60405180910390fd5b5f5b82518110156200016a5760035f848381518110620000a957620000a862000489565b5b602002602001015181526020019081526020015f205f9054906101000a900460ff16156200010e576040517f08c379a0000000000000000000000000000000000000000000000000000000008152600401620001059062000504565b60405180910390fd5b600160035f85848151811062000129576200012862000489565b5b602002602001015181526020019081526020015f205f6101000a81548160ff0219169083151502179055508080620001619062000551565b91505062000086565b50806002819055503360015f6101000a81548173ffffffffffffffffffffffffffffffffffffffff021916908373ffffffffffffffffffffffffffffffffffffffff16021790555050506200059d565b5f604051905090565b5f80fd5b5f80fd5b5f80fd5b5f601f19601f8301169050919050565b7f4e487b71000000000000000000000000000000000000000000000000000000005f52604160045260245ffd5b6200021782620001cf565b810181811067ffffffffffffffff82111715620002395762000238620001df565b5b80604052505050565b5f6200024d620001ba565b90506200025b82826200020c565b919050565b5f67ffffffffffffffff8211156200027d576200027c620001df565b5b602082029050602081019050919050565b5f80fd5b5f819050919050565b620002a68162000292565b8114620002b1575f80fd5b50565b5f81519050620002c4816200029b565b92915050565b5f620002e0620002da8462000260565b62000242565b905080838252602082019050602084028301858111156200030657620003056200028e565b5b835b818110156200033357806200031e8882620002b4565b84526020840193505060208101905062000308565b5050509392505050565b5f82601f830112620003545762000353620001cb565b5b815162000366848260208601620002ca565b91505092915050565b5f819050919050565b62000383816200036f565b81146200038e575f80fd5b50565b5f81519050620003a18162000378565b92915050565b5f8060408385031215620003c057620003bf620001c3565b5b5f83015167ffffffffffffffff811115620003e057620003df620001c7565b5b620003ee858286016200033d565b9250506020620004018582860162000391565b9150509250929050565b5f82825260208201905092915050565b7f5468726573686f6c6420697320746f6f206869676800000000000000000000005f82015250565b5f620004516015836200040b565b91506200045e826200041b565b602082019050919050565b5f6020820190508181035f830152620004828162000443565b9050919050565b7f4e487b71000000000000000000000000000000000000000000000000000000005f52603260045260245ffd5b7f4475706c696361746520477561726469616e20466f756e6400000000000000005f82015250565b5f620004ec6018836200040b565b9150620004f982620004b6565b602082019050919050565b5f6020820190508181035f8301526200051d81620004de565b9050919050565b7f4e487b71000000000000000000000000000000000000000000000000000000005f52601160045260245ffd5b5f6200055d826200036f565b91507fffffffffffffffffffffffffffffffffffffffffffffffffffffffffffffffff820362000592576200059162000524565b5b600182019050919050565b6128ed80620005ab5f395ff3fe608060405234801561000f575f80fd5b506004361061012a575f3560e01c8063a643e812116100ab578063b6547cb51161006f578063b6547cb5146102e6578063c42fe50a14610302578063c622b2dc14610332578063d5ce9aad1461034e578063f05151df1461036a5761012a565b8063a643e8121461027a578063a774f41214610298578063a7b65d10146102a2578063a9059cbb146102ac578063ace7c993146102c85761012a565b806357e685bc116100f257806357e685bc146101d85780635db0db7c146101f45780635fc489a7146102105780638da5cb5b1461022c578063912365ea1461024a5761012a565b80630ba234d61461012e57806312065fe0146101385780631e96952314610156578063371bbdc11461018857806342cde4e8146101ba575b5f80fd5b610136610388565b005b6101406104ba565b60405161014d9190611ae7565b60405180910390f35b610170600480360381019061016b9190611b6b565b6104c1565b60405161017f93929190611bc8565b60405180910390f35b6101a2600480360381019061019d9190611b6b565b6104f3565b6040516101b193929190611c0c565b60405180910390f35b6101c2610544565b6040516101cf9190611ae7565b60405180910390f35b6101f260048036038101906101ed9190611b6b565b61054a565b005b61020e60048036038101906102099190611b6b565b6107a1565b005b61022a60048036038101906102259190611ca2565b610a40565b005b610234610ef2565b6040516102419190611cff565b60405180910390f35b610264600480360381019061025f9190611e7a565b610f17565b6040516102719190611f60565b60405180910390f35b6102826110c0565b60405161028f9190611f80565b60405180910390f35b6102a06110d3565b005b6102aa6111c2565b005b6102c660048036038101906102c19190611fd4565b611342565b005b6102d0611467565b6040516102dd9190611ae7565b60405180910390f35b61030060048036038101906102fb919061203c565b61146d565b005b61031c6004803603810190610317919061207a565b6115c3565b6040516103299190611f80565b60405180910390f35b61034c600480360381019061034791906120a5565b6115e0565b005b61036860048036038101906103639190611b6b565b6117e7565b005b610372611a70565b60405161037f9190611f80565b60405180910390f35b60015f9054906101000a900473ffffffffffffffffffffffffffffffffffffffff1673ffffffffffffffffffffffffffffffffffffffff163373ffffffffffffffffffffffffffffffffffffffff1614610417576040517f08c379a000000000000000000000000000000000000000000000000000000000815260040161040e9061213d565b60405180910390fd5b60045f9054906101000a900460ff16610465576040517f08c379a000000000000000000000000000000000000000000000000000000000815260040161045c906121a5565b60405180910390fd5b5f60045f6101000a81548160ff0219169083151502179055506005547f500ec1d4b692d3c788bfd78a898de379cfd93ab8177575efc7593f87bd051a07336040516104b09190611cff565b60405180910390a2565b5f47905090565b6007602052805f5260405f205f91509050805f015490806001015490806002015f9054906101000a900460ff16905083565b6006602052805f5260405f205f91509050805f015f9054906101000a900473ffffffffffffffffffffffffffffffffffffffff1690806001015490806002015f9054906101000a900460ff16905083565b60025481565b60035f3360405160200161055e9190612208565b6040516020818303038152906040528051906020012081526020019081526020015f205f9054906101000a900460ff166105cd576040517f08c379a00000000000000000000000000000000000000000000000000000000081526004016105c490612292565b60405180910390fd5b60045f9054906101000a900460ff1661061b576040517f08c379a0000000000000000000000000000000000000000000000000000000008152600401610612906121a5565b60405180910390fd5b600460019054906101000a900460ff161561066b576040517f08c379a000000000000000000000000000000000000000000000000000000000815260040161066290612320565b60405180910390fd5b60405180606001604052808273ffffffffffffffffffffffffffffffffffffffff16815260200160055481526020015f151581525060065f3373ffffffffffffffffffffffffffffffffffffffff1673ffffffffffffffffffffffffffffffffffffffff1681526020019081526020015f205f820151815f015f6101000a81548173ffffffffffffffffffffffffffffffffffffffff021916908373ffffffffffffffffffffffffffffffffffffffff160217905550602082015181600101556040820151816002015f6101000a81548160ff0219169083151502179055509050506005543373ffffffffffffffffffffffffffffffffffffffff167f7a0b940199ff58e943823fe8c0e916df112be357049d8105a7e83cf9a4000e4a836040516107969190611cff565b60405180910390a350565b60015f9054906101000a900473ffffffffffffffffffffffffffffffffffffffff1673ffffffffffffffffffffffffffffffffffffffff163373ffffffffffffffffffffffffffffffffffffffff1614610830576040517f08c379a00000000000000000000000000000000000000000000000000000000081526004016108279061213d565b60405180910390fd5b600460019054906101000a900460ff1661087f576040517f08c379a0000000000000000000000000000000000000000000000000000000008152600401610876906123ae565b60405180910390fd5b60045f9054906101000a900460ff16156108ce576040517f08c379a00000000000000000000000000000000000000000000000000000000081526004016108c590612416565b60405180910390fd5b5f60075f8373ffffffffffffffffffffffffffffffffffffffff1673ffffffffffffffffffffffffffffffffffffffff1681526020019081526020015f206040518060600160405290815f820154815260200160018201548152602001600282015f9054906101000a900460ff161515151581525050905080604001511561098b576040517f08c379a00000000000000000000000000000000000000000000000000000000081526004016109829061247e565b60405180910390fd5b600160035f835f015181526020019081526020015f205f6101000a81548160ff0219169083151502179055505f60035f836020015181526020019081526020015f205f6101000a81548160ff0219169083151502179055505f600460016101000a81548160ff021916908315150217905550805f01517f1935df56423daeebb7957dec11c3179bf5a7699c6738c6f158bbfa0ffa6767d98260200151604051610a34919061249c565b60405180910390a25050565b60035f33604051602001610a549190612208565b6040516020818303038152906040528051906020012081526020019081526020015f205f9054906101000a900460ff16610ac3576040517f08c379a0000000000000000000000000000000000000000000000000000000008152600401610aba90612292565b60405180910390fd5b60045f9054906101000a900460ff16610b11576040517f08c379a0000000000000000000000000000000000000000000000000000000008152600401610b08906121a5565b60405180910390fd5b600460019054906101000a900460ff1615610b61576040517f08c379a0000000000000000000000000000000000000000000000000000000008152600401610b5890612320565b60405180910390fd5b600254828290501015610ba9576040517f08c379a0000000000000000000000000000000000000000000000000000000008152600401610ba090612525565b60405180910390fd5b5f5b82829050811015610e31575f60065f858585818110610bcd57610bcc612543565b5b9050602002016020810190610be29190611b6b565b73ffffffffffffffffffffffffffffffffffffffff1673ffffffffffffffffffffffffffffffffffffffff1681526020019081526020015f206040518060600160405290815f82015f9054906101000a900473ffffffffffffffffffffffffffffffffffffffff1673ffffffffffffffffffffffffffffffffffffffff1673ffffffffffffffffffffffffffffffffffffffff16815260200160018201548152602001600282015f9054906101000a900460ff1615151515815250509050600554816020015114610ce8576040517f08c379a0000000000000000000000000000000000000000000000000000000008152600401610cdf906125ba565b60405180910390fd5b8473ffffffffffffffffffffffffffffffffffffffff16815f015173ffffffffffffffffffffffffffffffffffffffff1614610d59576040517f08c379a0000000000000000000000000000000000000000000000000000000008152600401610d5090612622565b60405180910390fd5b806040015115610d9e576040517f08c379a0000000000000000000000000000000000000000000000000000000008152600401610d95906126b0565b60405180910390fd5b600160065f868686818110610db657610db5612543565b5b9050602002016020810190610dcb9190611b6b565b73ffffffffffffffffffffffffffffffffffffffff1673ffffffffffffffffffffffffffffffffffffffff1681526020019081526020015f206002015f6101000a81548160ff021916908315150217905550508080610e29906126fb565b915050610bab565b505f60045f6101000a81548160ff0219169083151502179055505f60015f9054906101000a900473ffffffffffffffffffffffffffffffffffffffff1690508360015f6101000a81548173ffffffffffffffffffffffffffffffffffffffff021916908373ffffffffffffffffffffffffffffffffffffffff1602179055506005547fcbaa7c7c351e2d5655fc08d9c383adcf4736af160c800b53df1f1dd221f826c88286604051610ee4929190612742565b60405180910390a250505050565b60015f9054906101000a900473ffffffffffffffffffffffffffffffffffffffff1681565b606060015f9054906101000a900473ffffffffffffffffffffffffffffffffffffffff1673ffffffffffffffffffffffffffffffffffffffff163373ffffffffffffffffffffffffffffffffffffffff1614610fa8576040517f08c379a0000000000000000000000000000000000000000000000000000000008152600401610f9f9061213d565b60405180910390fd5b610fb0611a82565b5f808573ffffffffffffffffffffffffffffffffffffffff168585604051610fd891906127a3565b5f6040518083038185875af1925050503d805f8114611012576040519150601f19603f3d011682016040523d82523d5f602084013e611017565b606091505b50915091508161105c576040517f08c379a000000000000000000000000000000000000000000000000000000000815260040161105390612803565b60405180910390fd5b8573ffffffffffffffffffffffffffffffffffffffff167f47d99ad340f52da66535aff7e10da1ceb85a32bcbd9fa1c42314d194545e14d286866040516110a4929190612821565b60405180910390a280925050506110b9611ac6565b9392505050565b600460019054906101000a900460ff1681565b60035f336040516020016110e79190612208565b6040516020818303038152906040528051906020012081526020019081526020015f205f9054906101000a900460ff16611156576040517f08c379a000000000000000000000000000000000000000000000000000000000815260040161114d90612292565b60405180910390fd5b3373ffffffffffffffffffffffffffffffffffffffff163360405160200161117e9190612208565b604051602081830303815290604052805190602001207faeee4dc34642964bd6d8194b8689894338b209de063b46447e53fe54d54eb99b60405160405180910390a3565b60015f9054906101000a900473ffffffffffffffffffffffffffffffffffffffff1673ffffffffffffffffffffffffffffffffffffffff163373ffffffffffffffffffffffffffffffffffffffff1614611251576040517f08c379a00000000000000000000000000000000000000000000000000000000081526004016112489061213d565b60405180910390fd5b600460019054906101000a900460ff166112a0576040517f08c379a0000000000000000000000000000000000000000000000000000000008152600401611297906123ae565b60405180910390fd5b60045f9054906101000a900460ff16156112ef576040517f08c379a00000000000000000000000000000000000000000000000000000000081526004016112e690612416565b60405180910390fd5b5f600460016101000a81548160ff0219169083151502179055507fd57d294d41d7cb0f642228c3aa8884365982694afcfa206c635fd368dfa4479c336040516113389190611cff565b60405180910390a1565b60015f9054906101000a900473ffffffffffffffffffffffffffffffffffffffff1673ffffffffffffffffffffffffffffffffffffffff163373ffffffffffffffffffffffffffffffffffffffff16146113d1576040517f08c379a00000000000000000000000000000000000000000000000000000000081526004016113c89061213d565b60405180910390fd5b8173ffffffffffffffffffffffffffffffffffffffff166108fc8290811502906040515f60405180830381858888f19350505050158015611414573d5f803e3d5ffd5b508173ffffffffffffffffffffffffffffffffffffffff167fe6d858f14d755446648a6e0c8ab8b5a0f58ccc7920d4c910b0454e4dcd869af08260405161145b9190611ae7565b60405180910390a25050565b60055481565b60015f9054906101000a900473ffffffffffffffffffffffffffffffffffffffff1673ffffffffffffffffffffffffffffffffffffffff163373ffffffffffffffffffffffffffffffffffffffff16146114fc576040517f08c379a00000000000000000000000000000000000000000000000000000000081526004016114f39061213d565b60405180910390fd5b60035f8381526020019081526020015f205f9054906101000a900460ff16611559576040517f08c379a000000000000000000000000000000000000000000000000000000000815260040161155090612899565b60405180910390fd5b5f60035f8481526020019081526020015f205f6101000a81548160ff021916908315150217905550806002819055507f2ed5a1d41af8e4c27f6e4c020febbf0221b28b9cc47fcab6bf97aa2bd28f3a68336040516115b79190611cff565b60405180910390a15050565b6003602052805f5260405f205f915054906101000a900460ff1681565b60035f336040516020016115f49190612208565b6040516020818303038152906040528051906020012081526020019081526020015f205f9054906101000a900460ff16611663576040517f08c379a000000000000000000000000000000000000000000000000000000000815260040161165a90612292565b60405180910390fd5b600460019054906101000a900460ff16156116b3576040517f08c379a00000000000000000000000000000000000000000000000000000000081526004016116aa90612320565b60405180910390fd5b60045f9054906101000a900460ff1615611702576040517f08c379a00000000000000000000000000000000000000000000000000000000081526004016116f990612416565b60405180910390fd5b60405180606001604052808281526020018381526020015f151581525060075f3373ffffffffffffffffffffffffffffffffffffffff1673ffffffffffffffffffffffffffffffffffffffff1681526020019081526020015f205f820151815f0155602082015181600101556040820151816002015f6101000a81548160ff0219169083151502179055509050506001600460016101000a81548160ff021916908315150217905550807f53f2fe2c3ddd98bb20232e34f5f6f7f3d41d42bbe7a806e1e5d7ee4bbd418f28836040516117db919061249c565b60405180910390a25050565b60035f336040516020016117fb9190612208565b6040516020818303038152906040528051906020012081526020019081526020015f205f9054906101000a900460ff1661186a576040517f08c379a000000000000000000000000000000000000000000000000000000000815260040161186190612292565b60405180910390fd5b60045f9054906101000a900460ff16156118b9576040517f08c379a00000000000000000000000000000000000000000000000000000000081526004016118b090612416565b60405180910390fd5b600460019054906101000a900460ff1615611909576040517f08c379a000000000000000000000000000000000000000000000000000000000815260040161190090612320565b60405180910390fd5b60055f81548092919061191b906126fb565b919050555060405180606001604052808273ffffffffffffffffffffffffffffffffffffffff16815260200160055481526020015f151581525060065f3373ffffffffffffffffffffffffffffffffffffffff1673ffffffffffffffffffffffffffffffffffffffff1681526020019081526020015f205f820151815f015f6101000a81548173ffffffffffffffffffffffffffffffffffffffff021916908373ffffffffffffffffffffffffffffffffffffffff160217905550602082015181600101556040820151816002015f6101000a81548160ff021916908315150217905550905050600160045f6101000a81548160ff0219169083151502179055506005543373ffffffffffffffffffffffffffffffffffffffff167fe290ea2cc3cfeb5114f992dc8be9e503de30042c13b9298644a2679b09e17a0483604051611a659190611cff565b60405180910390a350565b60045f9054906101000a900460ff1681565b60025f5403611abd576040517f3ee5aeb500000000000000000000000000000000000000000000000000000000815260040160405180910390fd5b60025f81905550565b60015f81905550565b5f819050919050565b611ae181611acf565b82525050565b5f602082019050611afa5f830184611ad8565b92915050565b5f604051905090565b5f80fd5b5f80fd5b5f73ffffffffffffffffffffffffffffffffffffffff82169050919050565b5f611b3a82611b11565b9050919050565b611b4a81611b30565b8114611b54575f80fd5b50565b5f81359050611b6581611b41565b92915050565b5f60208284031215611b8057611b7f611b09565b5b5f611b8d84828501611b57565b91505092915050565b5f819050919050565b611ba881611b96565b82525050565b5f8115159050919050565b611bc281611bae565b82525050565b5f606082019050611bdb5f830186611b9f565b611be86020830185611b9f565b611bf56040830184611bb9565b949350505050565b611c0681611b30565b82525050565b5f606082019050611c1f5f830186611bfd565b611c2c6020830185611ad8565b611c396040830184611bb9565b949350505050565b5f80fd5b5f80fd5b5f80fd5b5f8083601f840112611c6257611c61611c41565b5b8235905067ffffffffffffffff811115611c7f57611c7e611c45565b5b602083019150836020820283011115611c9b57611c9a611c49565b5b9250929050565b5f805f60408486031215611cb957611cb8611b09565b5b5f611cc686828701611b57565b935050602084013567ffffffffffffffff811115611ce757611ce6611b0d565b5b611cf386828701611c4d565b92509250509250925092565b5f602082019050611d125f830184611bfd565b92915050565b611d2181611acf565b8114611d2b575f80fd5b50565b5f81359050611d3c81611d18565b92915050565b5f80fd5b5f601f19601f8301169050919050565b7f4e487b71000000000000000000000000000000000000000000000000000000005f52604160045260245ffd5b611d8c82611d46565b810181811067ffffffffffffffff82111715611dab57611daa611d56565b5b80604052505050565b5f611dbd611b00565b9050611dc98282611d83565b919050565b5f67ffffffffffffffff821115611de857611de7611d56565b5b611df182611d46565b9050602081019050919050565b828183375f83830152505050565b5f611e1e611e1984611dce565b611db4565b905082815260208101848484011115611e3a57611e39611d42565b5b611e45848285611dfe565b509392505050565b5f82601f830112611e6157611e60611c41565b5b8135611e71848260208601611e0c565b91505092915050565b5f805f60608486031215611e9157611e90611b09565b5b5f611e9e86828701611b57565b9350506020611eaf86828701611d2e565b925050604084013567ffffffffffffffff811115611ed057611ecf611b0d565b5b611edc86828701611e4d565b9150509250925092565b5f81519050919050565b5f82825260208201905092915050565b5f5b83811015611f1d578082015181840152602081019050611f02565b5f8484015250505050565b5f611f3282611ee6565b611f3c8185611ef0565b9350611f4c818560208601611f00565b611f5581611d46565b840191505092915050565b5f6020820190508181035f830152611f788184611f28565b905092915050565b5f602082019050611f935f830184611bb9565b92915050565b5f611fa382611b11565b9050919050565b611fb381611f99565b8114611fbd575f80fd5b50565b5f81359050611fce81611faa565b92915050565b5f8060408385031215611fea57611fe9611b09565b5b5f611ff785828601611fc0565b925050602061200885828601611d2e565b9150509250929050565b61201b81611b96565b8114612025575f80fd5b50565b5f8135905061203681612012565b92915050565b5f806040838503121561205257612051611b09565b5b5f61205f85828601612028565b925050602061207085828601611d2e565b9150509250929050565b5f6020828403121561208f5761208e611b09565b5b5f61209c84828501612028565b91505092915050565b5f80604083850312156120bb576120ba611b09565b5b5f6120c885828601612028565b92505060206120d985828601612028565b9150509250929050565b5f82825260208201905092915050565b7f4e6f7420417574686f72697a65640000000000000000000000000000000000005f82015250565b5f612127600e836120e3565b9150612132826120f3565b602082019050919050565b5f6020820190508181035f8301526121548161211b565b9050919050565b7f57616c6c6574206973206e6f7420696e205265636f76657279206d6f646500005f82015250565b5f61218f601e836120e3565b915061219a8261215b565b602082019050919050565b5f6020820190508181035f8301526121bc81612183565b9050919050565b5f8160601b9050919050565b5f6121d9826121c3565b9050919050565b5f6121ea826121cf565b9050919050565b6122026121fd82611b30565b6121e0565b82525050565b5f61221382846121f1565b60148201915081905092915050565b7f4f6e6c7920477561726469616e206861732061636365737320746f20746869735f8201527f2072657175657374000000000000000000000000000000000000000000000000602082015250565b5f61227c6028836120e3565b915061228782612222565b604082019050919050565b5f6020820190508181035f8301526122a981612270565b9050919050565b7f4578697374696e6720477561726469616e204368616e676520526571756573745f8201527f20666f756e640000000000000000000000000000000000000000000000000000602082015250565b5f61230a6026836120e3565b9150612315826122b0565b604082019050919050565b5f6020820190508181035f830152612337816122fe565b9050919050565b7f4e6f2043757272656e7420477561726469616e205265717565737420666f756e5f8201527f6400000000000000000000000000000000000000000000000000000000000000602082015250565b5f6123986021836120e3565b91506123a38261233e565b604082019050919050565b5f6020820190508181035f8301526123c58161238c565b9050919050565b7f57616c6c657420697320696e205265636f76657279206d6f64650000000000005f82015250565b5f612400601a836120e3565b915061240b826123cc565b602082019050919050565b5f6020820190508181035f83015261242d816123f4565b9050919050565b7f477561726469616e205265717565737420697320616c726561647920557365645f82015250565b5f6124686020836120e3565b915061247382612434565b602082019050919050565b5f6020820190508181035f8301526124958161245c565b9050919050565b5f6020820190506124af5f830184611b9f565b92915050565b7f6d6f726520677561726469616e7320726571756972656420746f207472616e735f8201527f666572206f776e65727368697000000000000000000000000000000000000000602082015250565b5f61250f602d836120e3565b915061251a826124b5565b604082019050919050565b5f6020820190508181035f83015261253c81612503565b9050919050565b7f4e487b71000000000000000000000000000000000000000000000000000000005f52603260045260245ffd5b7f726f756e64206d69736d617463680000000000000000000000000000000000005f82015250565b5f6125a4600e836120e3565b91506125af82612570565b602082019050919050565b5f6020820190508181035f8301526125d181612598565b9050919050565b7f64697361677265656d656e74206f6e206e6577206f776e6572000000000000005f82015250565b5f61260c6019836120e3565b9150612617826125d8565b602082019050919050565b5f6020820190508181035f83015261263981612600565b9050919050565b7f6475706c696361746520677561726469616e207573656420696e207265636f765f8201527f6572790000000000000000000000000000000000000000000000000000000000602082015250565b5f61269a6023836120e3565b91506126a582612640565b604082019050919050565b5f6020820190508181035f8301526126c78161268e565b9050919050565b7f4e487b71000000000000000000000000000000000000000000000000000000005f52601160045260245ffd5b5f61270582611acf565b91507fffffffffffffffffffffffffffffffffffffffffffffffffffffffffffffffff8203612737576127366126ce565b5b600182019050919050565b5f6040820190506127555f830185611bfd565b6127626020830184611bfd565b9392505050565b5f81905092915050565b5f61277d82611ee6565b6127878185612769565b9350612797818560208601611f00565b80840191505092915050565b5f6127ae8284612773565b915081905092915050565b7f436f6e74726163742043616c6c205265766572746564000000000000000000005f82015250565b5f6127ed6016836120e3565b91506127f8826127b9565b602082019050919050565b5f6020820190508181035f83015261281a816127e1565b9050919050565b5f6040820190506128345f830185611ad8565b81810360208301526128468184611f28565b90509392505050565b7f6e6f74206120677561726469616e0000000000000000000000000000000000005f82015250565b5f612883600e836120e3565b915061288e8261284f565b602082019050919050565b5f6020820190508181035f8301526128b081612877565b905091905056fea264697066735822122018adffd3a757622b2accbc1a4a071d1323391f142fff0d5b21b28cf83c21ea2264736f6c63430008140033",
					"opcodes": "PUSH1 0x80 PUSH1 0x40 MSTORE CALLVALUE DUP1 ISZERO PUSH3 0x10 JUMPI PUSH0 DUP1 REVERT JUMPDEST POP PUSH1 0x40 MLOAD PUSH3 0x2E98 CODESIZE SUB DUP1 PUSH3 0x2E98 DUP4 CODECOPY DUP2 DUP2 ADD PUSH1 0x40 MSTORE DUP2 ADD SWAP1 PUSH3 0x36 SWAP2 SWAP1 PUSH3 0x3A7 JUMP JUMPDEST PUSH1 0x1 PUSH0 DUP2 SWAP1 SSTORE POP DUP2 MLOAD DUP2 GT ISZERO PUSH3 0x84 JUMPI PUSH1 0x40 MLOAD PUSH32 0x8C379A000000000000000000000000000000000000000000000000000000000 DUP2 MSTORE PUSH1 0x4 ADD PUSH3 0x7B SWAP1 PUSH3 0x469 JUMP JUMPDEST PUSH1 0x40 MLOAD DUP1 SWAP2 SUB SWAP1 REVERT JUMPDEST PUSH0 JUMPDEST DUP3 MLOAD DUP2 LT ISZERO PUSH3 0x16A JUMPI PUSH1 0x3 PUSH0 DUP5 DUP4 DUP2 MLOAD DUP2 LT PUSH3 0xA9 JUMPI PUSH3 0xA8 PUSH3 0x489 JUMP JUMPDEST JUMPDEST PUSH1 0x20 MUL PUSH1 0x20 ADD ADD MLOAD DUP2 MSTORE PUSH1 0x20 ADD SWAP1 DUP2 MSTORE PUSH1 0x20 ADD PUSH0 KECCAK256 PUSH0 SWAP1 SLOAD SWAP1 PUSH2 0x100 EXP SWAP1 DIV PUSH1 0xFF AND ISZERO PUSH3 0x10E JUMPI PUSH1 0x40 MLOAD PUSH32 0x8C379A000000000000000000000000000000000000000000000000000000000 DUP2 MSTORE PUSH1 0x4 ADD PUSH3 0x105 SWAP1 PUSH3 0x504 JUMP JUMPDEST PUSH1 0x40 MLOAD DUP1 SWAP2 SUB SWAP1 REVERT JUMPDEST PUSH1 0x1 PUSH1 0x3 PUSH0 DUP6 DUP5 DUP2 MLOAD DUP2 LT PUSH3 0x129 JUMPI PUSH3 0x128 PUSH3 0x489 JUMP JUMPDEST JUMPDEST PUSH1 0x20 MUL PUSH1 0x20 ADD ADD MLOAD DUP2 MSTORE PUSH1 0x20 ADD SWAP1 DUP2 MSTORE PUSH1 0x20 ADD PUSH0 KECCAK256 PUSH0 PUSH2 0x100 EXP DUP2 SLOAD DUP2 PUSH1 0xFF MUL NOT AND SWAP1 DUP4 ISZERO ISZERO MUL OR SWAP1 SSTORE POP DUP1 DUP1 PUSH3 0x161 SWAP1 PUSH3 0x551 JUMP JUMPDEST SWAP2 POP POP PUSH3 0x86 JUMP JUMPDEST POP DUP1 PUSH1 0x2 DUP2 SWAP1 SSTORE POP CALLER PUSH1 0x1 PUSH0 PUSH2 0x100 EXP DUP2 SLOAD DUP2 PUSH20 0xFFFFFFFFFFFFFFFFFFFFFFFFFFFFFFFFFFFFFFFF MUL NOT AND SWAP1 DUP4 PUSH20 0xFFFFFFFFFFFFFFFFFFFFFFFFFFFFFFFFFFFFFFFF AND MUL OR SWAP1 SSTORE POP POP POP PUSH3 0x59D JUMP JUMPDEST PUSH0 PUSH1 0x40 MLOAD SWAP1 POP SWAP1 JUMP JUMPDEST PUSH0 DUP1 REVERT JUMPDEST PUSH0 DUP1 REVERT JUMPDEST PUSH0 DUP1 REVERT JUMPDEST PUSH0 PUSH1 0x1F NOT PUSH1 0x1F DUP4 ADD AND SWAP1 POP SWAP2 SWAP1 POP JUMP JUMPDEST PUSH32 0x4E487B7100000000000000000000000000000000000000000000000000000000 PUSH0 MSTORE PUSH1 0x41 PUSH1 0x4 MSTORE PUSH1 0x24 PUSH0 REVERT JUMPDEST PUSH3 0x217 DUP3 PUSH3 0x1CF JUMP JUMPDEST DUP2 ADD DUP2 DUP2 LT PUSH8 0xFFFFFFFFFFFFFFFF DUP3 GT OR ISZERO PUSH3 0x239 JUMPI PUSH3 0x238 PUSH3 0x1DF JUMP JUMPDEST JUMPDEST DUP1 PUSH1 0x40 MSTORE POP POP POP JUMP JUMPDEST PUSH0 PUSH3 0x24D PUSH3 0x1BA JUMP JUMPDEST SWAP1 POP PUSH3 0x25B DUP3 DUP3 PUSH3 0x20C JUMP JUMPDEST SWAP2 SWAP1 POP JUMP JUMPDEST PUSH0 PUSH8 0xFFFFFFFFFFFFFFFF DUP3 GT ISZERO PUSH3 0x27D JUMPI PUSH3 0x27C PUSH3 0x1DF JUMP JUMPDEST JUMPDEST PUSH1 0x20 DUP3 MUL SWAP1 POP PUSH1 0x20 DUP2 ADD SWAP1 POP SWAP2 SWAP1 POP JUMP JUMPDEST PUSH0 DUP1 REVERT JUMPDEST PUSH0 DUP2 SWAP1 POP SWAP2 SWAP1 POP JUMP JUMPDEST PUSH3 0x2A6 DUP2 PUSH3 0x292 JUMP JUMPDEST DUP2 EQ PUSH3 0x2B1 JUMPI PUSH0 DUP1 REVERT JUMPDEST POP JUMP JUMPDEST PUSH0 DUP2 MLOAD SWAP1 POP PUSH3 0x2C4 DUP2 PUSH3 0x29B JUMP JUMPDEST SWAP3 SWAP2 POP POP JUMP JUMPDEST PUSH0 PUSH3 0x2E0 PUSH3 0x2DA DUP5 PUSH3 0x260 JUMP JUMPDEST PUSH3 0x242 JUMP JUMPDEST SWAP1 POP DUP1 DUP4 DUP3 MSTORE PUSH1 0x20 DUP3 ADD SWAP1 POP PUSH1 0x20 DUP5 MUL DUP4 ADD DUP6 DUP2 GT ISZERO PUSH3 0x306 JUMPI PUSH3 0x305 PUSH3 0x28E JUMP JUMPDEST JUMPDEST DUP4 JUMPDEST DUP2 DUP2 LT ISZERO PUSH3 0x333 JUMPI DUP1 PUSH3 0x31E DUP9 DUP3 PUSH3 0x2B4 JUMP JUMPDEST DUP5 MSTORE PUSH1 0x20 DUP5 ADD SWAP4 POP POP PUSH1 0x20 DUP2 ADD SWAP1 POP PUSH3 0x308 JUMP JUMPDEST POP POP POP SWAP4 SWAP3 POP POP POP JUMP JUMPDEST PUSH0 DUP3 PUSH1 0x1F DUP4 ADD SLT PUSH3 0x354 JUMPI PUSH3 0x353 PUSH3 0x1CB JUMP JUMPDEST JUMPDEST DUP2 MLOAD PUSH3 0x366 DUP5 DUP3 PUSH1 0x20 DUP7 ADD PUSH3 0x2CA JUMP JUMPDEST SWAP2 POP POP SWAP3 SWAP2 POP POP JUMP JUMPDEST PUSH0 DUP2 SWAP1 POP SWAP2 SWAP1 POP JUMP JUMPDEST PUSH3 0x383 DUP2 PUSH3 0x36F JUMP JUMPDEST DUP2 EQ PUSH3 0x38E JUMPI PUSH0 DUP1 REVERT JUMPDEST POP JUMP JUMPDEST PUSH0 DUP2 MLOAD SWAP1 POP PUSH3 0x3A1 DUP2 PUSH3 0x378 JUMP JUMPDEST SWAP3 SWAP2 POP POP JUMP JUMPDEST PUSH0 DUP1 PUSH1 0x40 DUP4 DUP6 SUB SLT ISZERO PUSH3 0x3C0 JUMPI PUSH3 0x3BF PUSH3 0x1C3 JUMP JUMPDEST JUMPDEST PUSH0 DUP4 ADD MLOAD PUSH8 0xFFFFFFFFFFFFFFFF DUP2 GT ISZERO PUSH3 0x3E0 JUMPI PUSH3 0x3DF PUSH3 0x1C7 JUMP JUMPDEST JUMPDEST PUSH3 0x3EE DUP6 DUP3 DUP7 ADD PUSH3 0x33D JUMP JUMPDEST SWAP3 POP POP PUSH1 0x20 PUSH3 0x401 DUP6 DUP3 DUP7 ADD PUSH3 0x391 JUMP JUMPDEST SWAP2 POP POP SWAP3 POP SWAP3 SWAP1 POP JUMP JUMPDEST PUSH0 DUP3 DUP3 MSTORE PUSH1 0x20 DUP3 ADD SWAP1 POP SWAP3 SWAP2 POP POP JUMP JUMPDEST PUSH32 0x5468726573686F6C6420697320746F6F20686967680000000000000000000000 PUSH0 DUP3 ADD MSTORE POP JUMP JUMPDEST PUSH0 PUSH3 0x451 PUSH1 0x15 DUP4 PUSH3 0x40B JUMP JUMPDEST SWAP2 POP PUSH3 0x45E DUP3 PUSH3 0x41B JUMP JUMPDEST PUSH1 0x20 DUP3 ADD SWAP1 POP SWAP2 SWAP1 POP JUMP JUMPDEST PUSH0 PUSH1 0x20 DUP3 ADD SWAP1 POP DUP2 DUP2 SUB PUSH0 DUP4 ADD MSTORE PUSH3 0x482 DUP2 PUSH3 0x443 JUMP JUMPDEST SWAP1 POP SWAP2 SWAP1 POP JUMP JUMPDEST PUSH32 0x4E487B7100000000000000000000000000000000000000000000000000000000 PUSH0 MSTORE PUSH1 0x32 PUSH1 0x4 MSTORE PUSH1 0x24 PUSH0 REVERT JUMPDEST PUSH32 0x4475706C696361746520477561726469616E20466F756E640000000000000000 PUSH0 DUP3 ADD MSTORE POP JUMP JUMPDEST PUSH0 PUSH3 0x4EC PUSH1 0x18 DUP4 PUSH3 0x40B JUMP JUMPDEST SWAP2 POP PUSH3 0x4F9 DUP3 PUSH3 0x4B6 JUMP JUMPDEST PUSH1 0x20 DUP3 ADD SWAP1 POP SWAP2 SWAP1 POP JUMP JUMPDEST PUSH0 PUSH1 0x20 DUP3 ADD SWAP1 POP DUP2 DUP2 SUB PUSH0 DUP4 ADD MSTORE PUSH3 0x51D DUP2 PUSH3 0x4DE JUMP JUMPDEST SWAP1 POP SWAP2 SWAP1 POP JUMP JUMPDEST PUSH32 0x4E487B7100000000000000000000000000000000000000000000000000000000 PUSH0 MSTORE PUSH1 0x11 PUSH1 0x4 MSTORE PUSH1 0x24 PUSH0 REVERT JUMPDEST PUSH0 PUSH3 0x55D DUP3 PUSH3 0x36F JUMP JUMPDEST SWAP2 POP PUSH32 0xFFFFFFFFFFFFFFFFFFFFFFFFFFFFFFFFFFFFFFFFFFFFFFFFFFFFFFFFFFFFFFFF DUP3 SUB PUSH3 0x592 JUMPI PUSH3 0x591 PUSH3 0x524 JUMP JUMPDEST JUMPDEST PUSH1 0x1 DUP3 ADD SWAP1 POP SWAP2 SWAP1 POP JUMP JUMPDEST PUSH2 0x28ED DUP1 PUSH3 0x5AB PUSH0 CODECOPY PUSH0 RETURN INVALID PUSH1 0x80 PUSH1 0x40 MSTORE CALLVALUE DUP1 ISZERO PUSH2 0xF JUMPI PUSH0 DUP1 REVERT JUMPDEST POP PUSH1 0x4 CALLDATASIZE LT PUSH2 0x12A JUMPI PUSH0 CALLDATALOAD PUSH1 0xE0 SHR DUP1 PUSH4 0xA643E812 GT PUSH2 0xAB JUMPI DUP1 PUSH4 0xB6547CB5 GT PUSH2 0x6F JUMPI DUP1 PUSH4 0xB6547CB5 EQ PUSH2 0x2E6 JUMPI DUP1 PUSH4 0xC42FE50A EQ PUSH2 0x302 JUMPI DUP1 PUSH4 0xC622B2DC EQ PUSH2 0x332 JUMPI DUP1 PUSH4 0xD5CE9AAD EQ PUSH2 0x34E JUMPI DUP1 PUSH4 0xF05151DF EQ PUSH2 0x36A JUMPI PUSH2 0x12A JUMP JUMPDEST DUP1 PUSH4 0xA643E812 EQ PUSH2 0x27A JUMPI DUP1 PUSH4 0xA774F412 EQ PUSH2 0x298 JUMPI DUP1 PUSH4 0xA7B65D10 EQ PUSH2 0x2A2 JUMPI DUP1 PUSH4 0xA9059CBB EQ PUSH2 0x2AC JUMPI DUP1 PUSH4 0xACE7C993 EQ PUSH2 0x2C8 JUMPI PUSH2 0x12A JUMP JUMPDEST DUP1 PUSH4 0x57E685BC GT PUSH2 0xF2 JUMPI DUP1 PUSH4 0x57E685BC EQ PUSH2 0x1D8 JUMPI DUP1 PUSH4 0x5DB0DB7C EQ PUSH2 0x1F4 JUMPI DUP1 PUSH4 0x5FC489A7 EQ PUSH2 0x210 JUMPI DUP1 PUSH4 0x8DA5CB5B EQ PUSH2 0x22C JUMPI DUP1 PUSH4 0x912365EA EQ PUSH2 0x24A JUMPI PUSH2 0x12A JUMP JUMPDEST DUP1 PUSH4 0xBA234D6 EQ PUSH2 0x12E JUMPI DUP1 PUSH4 0x12065FE0 EQ PUSH2 0x138 JUMPI DUP1 PUSH4 0x1E969523 EQ PUSH2 0x156 JUMPI DUP1 PUSH4 0x371BBDC1 EQ PUSH2 0x188 JUMPI DUP1 PUSH4 0x42CDE4E8 EQ PUSH2 0x1BA JUMPI JUMPDEST PUSH0 DUP1 REVERT JUMPDEST PUSH2 0x136 PUSH2 0x388 JUMP JUMPDEST STOP JUMPDEST PUSH2 0x140 PUSH2 0x4BA JUMP JUMPDEST PUSH1 0x40 MLOAD PUSH2 0x14D SWAP2 SWAP1 PUSH2 0x1AE7 JUMP JUMPDEST PUSH1 0x40 MLOAD DUP1 SWAP2 SUB SWAP1 RETURN JUMPDEST PUSH2 0x170 PUSH1 0x4 DUP1 CALLDATASIZE SUB DUP2 ADD SWAP1 PUSH2 0x16B SWAP2 SWAP1 PUSH2 0x1B6B JUMP JUMPDEST PUSH2 0x4C1 JUMP JUMPDEST PUSH1 0x40 MLOAD PUSH2 0x17F SWAP4 SWAP3 SWAP2 SWAP1 PUSH2 0x1BC8 JUMP JUMPDEST PUSH1 0x40 MLOAD DUP1 SWAP2 SUB SWAP1 RETURN JUMPDEST PUSH2 0x1A2 PUSH1 0x4 DUP1 CALLDATASIZE SUB DUP2 ADD SWAP1 PUSH2 0x19D SWAP2 SWAP1 PUSH2 0x1B6B JUMP JUMPDEST PUSH2 0x4F3 JUMP JUMPDEST PUSH1 0x40 MLOAD PUSH2 0x1B1 SWAP4 SWAP3 SWAP2 SWAP1 PUSH2 0x1C0C JUMP JUMPDEST PUSH1 0x40 MLOAD DUP1 SWAP2 SUB SWAP1 RETURN JUMPDEST PUSH2 0x1C2 PUSH2 0x544 JUMP JUMPDEST PUSH1 0x40 MLOAD PUSH2 0x1CF SWAP2 SWAP1 PUSH2 0x1AE7 JUMP JUMPDEST PUSH1 0x40 MLOAD DUP1 SWAP2 SUB SWAP1 RETURN JUMPDEST PUSH2 0x1F2 PUSH1 0x4 DUP1 CALLDATASIZE SUB DUP2 ADD SWAP1 PUSH2 0x1ED SWAP2 SWAP1 PUSH2 0x1B6B JUMP JUMPDEST PUSH2 0x54A JUMP JUMPDEST STOP JUMPDEST PUSH2 0x20E PUSH1 0x4 DUP1 CALLDATASIZE SUB DUP2 ADD SWAP1 PUSH2 0x209 SWAP2 SWAP1 PUSH2 0x1B6B JUMP JUMPDEST PUSH2 0x7A1 JUMP JUMPDEST STOP JUMPDEST PUSH2 0x22A PUSH1 0x4 DUP1 CALLDATASIZE SUB DUP2 ADD SWAP1 PUSH2 0x225 SWAP2 SWAP1 PUSH2 0x1CA2 JUMP JUMPDEST PUSH2 0xA40 JUMP JUMPDEST STOP JUMPDEST PUSH2 0x234 PUSH2 0xEF2 JUMP JUMPDEST PUSH1 0x40 MLOAD PUSH2 0x241 SWAP2 SWAP1 PUSH2 0x1CFF JUMP JUMPDEST PUSH1 0x40 MLOAD DUP1 SWAP2 SUB SWAP1 RETURN JUMPDEST PUSH2 0x264 PUSH1 0x4 DUP1 CALLDATASIZE SUB DUP2 ADD SWAP1 PUSH2 0x25F SWAP2 SWAP1 PUSH2 0x1E7A JUMP JUMPDEST PUSH2 0xF17 JUMP JUMPDEST PUSH1 0x40 MLOAD PUSH2 0x271 SWAP2 SWAP1 PUSH2 0x1F60 JUMP JUMPDEST PUSH1 0x40 MLOAD DUP1 SWAP2 SUB SWAP1 RETURN JUMPDEST PUSH2 0x282 PUSH2 0x10C0 JUMP JUMPDEST PUSH1 0x40 MLOAD PUSH2 0x28F SWAP2 SWAP1 PUSH2 0x1F80 JUMP JUMPDEST PUSH1 0x40 MLOAD DUP1 SWAP2 SUB SWAP1 RETURN JUMPDEST PUSH2 0x2A0 PUSH2 0x10D3 JUMP JUMPDEST STOP JUMPDEST PUSH2 0x2AA PUSH2 0x11C2 JUMP JUMPDEST STOP JUMPDEST PUSH2 0x2C6 PUSH1 0x4 DUP1 CALLDATASIZE SUB DUP2 ADD SWAP1 PUSH2 0x2C1 SWAP2 SWAP1 PUSH2 0x1FD4 JUMP JUMPDEST PUSH2 0x1342 JUMP JUMPDEST STOP JUMPDEST PUSH2 0x2D0 PUSH2 0x1467 JUMP JUMPDEST PUSH1 0x40 MLOAD PUSH2 0x2DD SWAP2 SWAP1 PUSH2 0x1AE7 JUMP JUMPDEST PUSH1 0x40 MLOAD DUP1 SWAP2 SUB SWAP1 RETURN JUMPDEST PUSH2 0x300 PUSH1 0x4 DUP1 CALLDATASIZE SUB DUP2 ADD SWAP1 PUSH2 0x2FB SWAP2 SWAP1 PUSH2 0x203C JUMP JUMPDEST PUSH2 0x146D JUMP JUMPDEST STOP JUMPDEST PUSH2 0x31C PUSH1 0x4 DUP1 CALLDATASIZE SUB DUP2 ADD SWAP1 PUSH2 0x317 SWAP2 SWAP1 PUSH2 0x207A JUMP JUMPDEST PUSH2 0x15C3 JUMP JUMPDEST PUSH1 0x40 MLOAD PUSH2 0x329 SWAP2 SWAP1 PUSH2 0x1F80 JUMP JUMPDEST PUSH1 0x40 MLOAD DUP1 SWAP2 SUB SWAP1 RETURN JUMPDEST PUSH2 0x34C PUSH1 0x4 DUP1 CALLDATASIZE SUB DUP2 ADD SWAP1 PUSH2 0x347 SWAP2 SWAP1 PUSH2 0x20A5 JUMP JUMPDEST PUSH2 0x15E0 JUMP JUMPDEST STOP JUMPDEST PUSH2 0x368 PUSH1 0x4 DUP1 CALLDATASIZE SUB DUP2 ADD SWAP1 PUSH2 0x363 SWAP2 SWAP1 PUSH2 0x1B6B JUMP JUMPDEST PUSH2 0x17E7 JUMP JUMPDEST STOP JUMPDEST PUSH2 0x372 PUSH2 0x1A70 JUMP JUMPDEST PUSH1 0x40 MLOAD PUSH2 0x37F SWAP2 SWAP1 PUSH2 0x1F80 JUMP JUMPDEST PUSH1 0x40 MLOAD DUP1 SWAP2 SUB SWAP1 RETURN JUMPDEST PUSH1 0x1 PUSH0 SWAP1 SLOAD SWAP1 PUSH2 0x100 EXP SWAP1 DIV PUSH20 0xFFFFFFFFFFFFFFFFFFFFFFFFFFFFFFFFFFFFFFFF AND PUSH20 0xFFFFFFFFFFFFFFFFFFFFFFFFFFFFFFFFFFFFFFFF AND CALLER PUSH20 0xFFFFFFFFFFFFFFFFFFFFFFFFFFFFFFFFFFFFFFFF AND EQ PUSH2 0x417 JUMPI PUSH1 0x40 MLOAD PUSH32 0x8C379A000000000000000000000000000000000000000000000000000000000 DUP2 MSTORE PUSH1 0x4 ADD PUSH2 0x40E SWAP1 PUSH2 0x213D JUMP JUMPDEST PUSH1 0x40 MLOAD DUP1 SWAP2 SUB SWAP1 REVERT JUMPDEST PUSH1 0x4 PUSH0 SWAP1 SLOAD SWAP1 PUSH2 0x100 EXP SWAP1 DIV PUSH1 0xFF AND PUSH2 0x465 JUMPI PUSH1 0x40 MLOAD PUSH32 0x8C379A000000000000000000000000000000000000000000000000000000000 DUP2 MSTORE PUSH1 0x4 ADD PUSH2 0x45C SWAP1 PUSH2 0x21A5 JUMP JUMPDEST PUSH1 0x40 MLOAD DUP1 SWAP2 SUB SWAP1 REVERT JUMPDEST PUSH0 PUSH1 0x4 PUSH0 PUSH2 0x100 EXP DUP2 SLOAD DUP2 PUSH1 0xFF MUL NOT AND SWAP1 DUP4 ISZERO ISZERO MUL OR SWAP1 SSTORE POP PUSH1 0x5 SLOAD PUSH32 0x500EC1D4B692D3C788BFD78A898DE379CFD93AB8177575EFC7593F87BD051A07 CALLER PUSH1 0x40 MLOAD PUSH2 0x4B0 SWAP2 SWAP1 PUSH2 0x1CFF JUMP JUMPDEST PUSH1 0x40 MLOAD DUP1 SWAP2 SUB SWAP1 LOG2 JUMP JUMPDEST PUSH0 SELFBALANCE SWAP1 POP SWAP1 JUMP JUMPDEST PUSH1 0x7 PUSH1 0x20 MSTORE DUP1 PUSH0 MSTORE PUSH1 0x40 PUSH0 KECCAK256 PUSH0 SWAP2 POP SWAP1 POP DUP1 PUSH0 ADD SLOAD SWAP1 DUP1 PUSH1 0x1 ADD SLOAD SWAP1 DUP1 PUSH1 0x2 ADD PUSH0 SWAP1 SLOAD SWAP1 PUSH2 0x100 EXP SWAP1 DIV PUSH1 0xFF AND SWAP1 POP DUP4 JUMP JUMPDEST PUSH1 0x6 PUSH1 0x20 MSTORE DUP1 PUSH0 MSTORE PUSH1 0x40 PUSH0 KECCAK256 PUSH0 SWAP2 POP SWAP1 POP DUP1 PUSH0 ADD PUSH0 SWAP1 SLOAD SWAP1 PUSH2 0x100 EXP SWAP1 DIV PUSH20 0xFFFFFFFFFFFFFFFFFFFFFFFFFFFFFFFFFFFFFFFF AND SWAP1 DUP1 PUSH1 0x1 ADD SLOAD SWAP1 DUP1 PUSH1 0x2 ADD PUSH0 SWAP1 SLOAD SWAP1 PUSH2 0x100 EXP SWAP1 DIV PUSH1 0xFF AND SWAP1 POP DUP4 JUMP JUMPDEST PUSH1 0x2 SLOAD DUP2 JUMP JUMPDEST PUSH1 0x3 PUSH0 CALLER PUSH1 0x40 MLOAD PUSH1 0x20 ADD PUSH2 0x55E SWAP2 SWAP1 PUSH2 0x2208 JUMP JUMPDEST PUSH1 0x40 MLOAD PUSH1 0x20 DUP2 DUP4 SUB SUB DUP2 MSTORE SWAP1 PUSH1 0x40 MSTORE DUP1 MLOAD SWAP1 PUSH1 0x20 ADD KECCAK256 DUP2 MSTORE PUSH1 0x20 ADD SWAP1 DUP2 MSTORE PUSH1 0x20 ADD PUSH0 KECCAK256 PUSH0 SWAP1 SLOAD SWAP1 PUSH2 0x100 EXP SWAP1 DIV PUSH1 0xFF AND PUSH2 0x5CD JUMPI PUSH1 0x40 MLOAD PUSH32 0x8C379A000000000000000000000000000000000000000000000000000000000 DUP2 MSTORE PUSH1 0x4 ADD PUSH2 0x5C4 SWAP1 PUSH2 0x2292 JUMP JUMPDEST PUSH1 0x40 MLOAD DUP1 SWAP2 SUB SWAP1 REVERT JUMPDEST PUSH1 0x4 PUSH0 SWAP1 SLOAD SWAP1 PUSH2 0x100 EXP SWAP1 DIV PUSH1 0xFF AND PUSH2 0x61B JUMPI PUSH1 0x40 MLOAD PUSH32 0x8C379A000000000000000000000000000000000000000000000000000000000 DUP2 MSTORE PUSH1 0x4 ADD PUSH2 0x612 SWAP1 PUSH2 0x21A5 JUMP JUMPDEST PUSH1 0x40 MLOAD DUP1 SWAP2 SUB SWAP1 REVERT JUMPDEST PUSH1 0x4 PUSH1 0x1 SWAP1 SLOAD SWAP1 PUSH2 0x100 EXP SWAP1 DIV PUSH1 0xFF AND ISZERO PUSH2 0x66B JUMPI PUSH1 0x40 MLOAD PUSH32 0x8C379A000000000000000000000000000000000000000000000000000000000 DUP2 MSTORE PUSH1 0x4 ADD PUSH2 0x662 SWAP1 PUSH2 0x2320 JUMP JUMPDEST PUSH1 0x40 MLOAD DUP1 SWAP2 SUB SWAP1 REVERT JUMPDEST PUSH1 0x40 MLOAD DUP1 PUSH1 0x60 ADD PUSH1 0x40 MSTORE DUP1 DUP3 PUSH20 0xFFFFFFFFFFFFFFFFFFFFFFFFFFFFFFFFFFFFFFFF AND DUP2 MSTORE PUSH1 0x20 ADD PUSH1 0x5 SLOAD DUP2 MSTORE PUSH1 0x20 ADD PUSH0 ISZERO ISZERO DUP2 MSTORE POP PUSH1 0x6 PUSH0 CALLER PUSH20 0xFFFFFFFFFFFFFFFFFFFFFFFFFFFFFFFFFFFFFFFF AND PUSH20 0xFFFFFFFFFFFFFFFFFFFFFFFFFFFFFFFFFFFFFFFF AND DUP2 MSTORE PUSH1 0x20 ADD SWAP1 DUP2 MSTORE PUSH1 0x20 ADD PUSH0 KECCAK256 PUSH0 DUP3 ADD MLOAD DUP2 PUSH0 ADD PUSH0 PUSH2 0x100 EXP DUP2 SLOAD DUP2 PUSH20 0xFFFFFFFFFFFFFFFFFFFFFFFFFFFFFFFFFFFFFFFF MUL NOT AND SWAP1 DUP4 PUSH20 0xFFFFFFFFFFFFFFFFFFFFFFFFFFFFFFFFFFFFFFFF AND MUL OR SWAP1 SSTORE POP PUSH1 0x20 DUP3 ADD MLOAD DUP2 PUSH1 0x1 ADD SSTORE PUSH1 0x40 DUP3 ADD MLOAD DUP2 PUSH1 0x2 ADD PUSH0 PUSH2 0x100 EXP DUP2 SLOAD DUP2 PUSH1 0xFF MUL NOT AND SWAP1 DUP4 ISZERO ISZERO MUL OR SWAP1 SSTORE POP SWAP1 POP POP PUSH1 0x5 SLOAD CALLER PUSH20 0xFFFFFFFFFFFFFFFFFFFFFFFFFFFFFFFFFFFFFFFF AND PUSH32 0x7A0B940199FF58E943823FE8C0E916DF112BE357049D8105A7E83CF9A4000E4A DUP4 PUSH1 0x40 MLOAD PUSH2 0x796 SWAP2 SWAP1 PUSH2 0x1CFF JUMP JUMPDEST PUSH1 0x40 MLOAD DUP1 SWAP2 SUB SWAP1 LOG3 POP JUMP JUMPDEST PUSH1 0x1 PUSH0 SWAP1 SLOAD SWAP1 PUSH2 0x100 EXP SWAP1 DIV PUSH20 0xFFFFFFFFFFFFFFFFFFFFFFFFFFFFFFFFFFFFFFFF AND PUSH20 0xFFFFFFFFFFFFFFFFFFFFFFFFFFFFFFFFFFFFFFFF AND CALLER PUSH20 0xFFFFFFFFFFFFFFFFFFFFFFFFFFFFFFFFFFFFFFFF AND EQ PUSH2 0x830 JUMPI PUSH1 0x40 MLOAD PUSH32 0x8C379A000000000000000000000000000000000000000000000000000000000 DUP2 MSTORE PUSH1 0x4 ADD PUSH2 0x827 SWAP1 PUSH2 0x213D JUMP JUMPDEST PUSH1 0x40 MLOAD DUP1 SWAP2 SUB SWAP1 REVERT JUMPDEST PUSH1 0x4 PUSH1 0x1 SWAP1 SLOAD SWAP1 PUSH2 0x100 EXP SWAP1 DIV PUSH1 0xFF AND PUSH2 0x87F JUMPI PUSH1 0x40 MLOAD PUSH32 0x8C379A000000000000000000000000000000000000000000000000000000000 DUP2 MSTORE PUSH1 0x4 ADD PUSH2 0x876 SWAP1 PUSH2 0x23AE JUMP JUMPDEST PUSH1 0x40 MLOAD DUP1 SWAP2 SUB SWAP1 REVERT JUMPDEST PUSH1 0x4 PUSH0 SWAP1 SLOAD SWAP1 PUSH2 0x100 EXP SWAP1 DIV PUSH1 0xFF AND ISZERO PUSH2 0x8CE JUMPI PUSH1 0x40 MLOAD PUSH32 0x8C379A000000000000000000000000000000000000000000000000000000000 DUP2 MSTORE PUSH1 0x4 ADD PUSH2 0x8C5 SWAP1 PUSH2 0x2416 JUMP JUMPDEST PUSH1 0x40 MLOAD DUP1 SWAP2 SUB SWAP1 REVERT JUMPDEST PUSH0 PUSH1 0x7 PUSH0 DUP4 PUSH20 0xFFFFFFFFFFFFFFFFFFFFFFFFFFFFFFFFFFFFFFFF AND PUSH20 0xFFFFFFFFFFFFFFFFFFFFFFFFFFFFFFFFFFFFFFFF AND DUP2 MSTORE PUSH1 0x20 ADD SWAP1 DUP2 MSTORE PUSH1 0x20 ADD PUSH0 KECCAK256 PUSH1 0x40 MLOAD DUP1 PUSH1 0x60 ADD PUSH1 0x40 MSTORE SWAP1 DUP2 PUSH0 DUP3 ADD SLOAD DUP2 MSTORE PUSH1 0x20 ADD PUSH1 0x1 DUP3 ADD SLOAD DUP2 MSTORE PUSH1 0x20 ADD PUSH1 0x2 DUP3 ADD PUSH0 SWAP1 SLOAD SWAP1 PUSH2 0x100 EXP SWAP1 DIV PUSH1 0xFF AND ISZERO ISZERO ISZERO ISZERO DUP2 MSTORE POP POP SWAP1 POP DUP1 PUSH1 0x40 ADD MLOAD ISZERO PUSH2 0x98B JUMPI PUSH1 0x40 MLOAD PUSH32 0x8C379A000000000000000000000000000000000000000000000000000000000 DUP2 MSTORE PUSH1 0x4 ADD PUSH2 0x982 SWAP1 PUSH2 0x247E JUMP JUMPDEST PUSH1 0x40 MLOAD DUP1 SWAP2 SUB SWAP1 REVERT JUMPDEST PUSH1 0x1 PUSH1 0x3 PUSH0 DUP4 PUSH0 ADD MLOAD DUP2 MSTORE PUSH1 0x20 ADD SWAP1 DUP2 MSTORE PUSH1 0x20 ADD PUSH0 KECCAK256 PUSH0 PUSH2 0x100 EXP DUP2 SLOAD DUP2 PUSH1 0xFF MUL NOT AND SWAP1 DUP4 ISZERO ISZERO MUL OR SWAP1 SSTORE POP PUSH0 PUSH1 0x3 PUSH0 DUP4 PUSH1 0x20 ADD MLOAD DUP2 MSTORE PUSH1 0x20 ADD SWAP1 DUP2 MSTORE PUSH1 0x20 ADD PUSH0 KECCAK256 PUSH0 PUSH2 0x100 EXP DUP2 SLOAD DUP2 PUSH1 0xFF MUL NOT AND SWAP1 DUP4 ISZERO ISZERO MUL OR SWAP1 SSTORE POP PUSH0 PUSH1 0x4 PUSH1 0x1 PUSH2 0x100 EXP DUP2 SLOAD DUP2 PUSH1 0xFF MUL NOT AND SWAP1 DUP4 ISZERO ISZERO MUL OR SWAP1 SSTORE POP DUP1 PUSH0 ADD MLOAD PUSH32 0x1935DF56423DAEEBB7957DEC11C3179BF5A7699C6738C6F158BBFA0FFA6767D9 DUP3 PUSH1 0x20 ADD MLOAD PUSH1 0x40 MLOAD PUSH2 0xA34 SWAP2 SWAP1 PUSH2 0x249C JUMP JUMPDEST PUSH1 0x40 MLOAD DUP1 SWAP2 SUB SWAP1 LOG2 POP POP JUMP JUMPDEST PUSH1 0x3 PUSH0 CALLER PUSH1 0x40 MLOAD PUSH1 0x20 ADD PUSH2 0xA54 SWAP2 SWAP1 PUSH2 0x2208 JUMP JUMPDEST PUSH1 0x40 MLOAD PUSH1 0x20 DUP2 DUP4 SUB SUB DUP2 MSTORE SWAP1 PUSH1 0x40 MSTORE DUP1 MLOAD SWAP1 PUSH1 0x20 ADD KECCAK256 DUP2 MSTORE PUSH1 0x20 ADD SWAP1 DUP2 MSTORE PUSH1 0x20 ADD PUSH0 KECCAK256 PUSH0 SWAP1 SLOAD SWAP1 PUSH2 0x100 EXP SWAP1 DIV PUSH1 0xFF AND PUSH2 0xAC3 JUMPI PUSH1 0x40 MLOAD PUSH32 0x8C379A000000000000000000000000000000000000000000000000000000000 DUP2 MSTORE PUSH1 0x4 ADD PUSH2 0xABA SWAP1 PUSH2 0x2292 JUMP JUMPDEST PUSH1 0x40 MLOAD DUP1 SWAP2 SUB SWAP1 REVERT JUMPDEST PUSH1 0x4 PUSH0 SWAP1 SLOAD SWAP1 PUSH2 0x100 EXP SWAP1 DIV PUSH1 0xFF AND PUSH2 0xB11 JUMPI PUSH1 0x40 MLOAD PUSH32 0x8C379A000000000000000000000000000000000000000000000000000000000 DUP2 MSTORE PUSH1 0x4 ADD PUSH2 0xB08 SWAP1 PUSH2 0x21A5 JUMP JUMPDEST PUSH1 0x40 MLOAD DUP1 SWAP2 SUB SWAP1 REVERT JUMPDEST PUSH1 0x4 PUSH1 0x1 SWAP1 SLOAD SWAP1 PUSH2 0x100 EXP SWAP1 DIV PUSH1 0xFF AND ISZERO PUSH2 0xB61 JUMPI PUSH1 0x40 MLOAD PUSH32 0x8C379A000000000000000000000000000000000000000000000000000000000 DUP2 MSTORE PUSH1 0x4 ADD PUSH2 0xB58 SWAP1 PUSH2 0x2320 JUMP JUMPDEST PUSH1 0x40 MLOAD DUP1 SWAP2 SUB SWAP1 REVERT JUMPDEST PUSH1 0x2 SLOAD DUP3 DUP3 SWAP1 POP LT ISZERO PUSH2 0xBA9 JUMPI PUSH1 0x40 MLOAD PUSH32 0x8C379A000000000000000000000000000000000000000000000000000000000 DUP2 MSTORE PUSH1 0x4 ADD PUSH2 0xBA0 SWAP1 PUSH2 0x2525 JUMP JUMPDEST PUSH1 0x40 MLOAD DUP1 SWAP2 SUB SWAP1 REVERT JUMPDEST PUSH0 JUMPDEST DUP3 DUP3 SWAP1 POP DUP2 LT ISZERO PUSH2 0xE31 JUMPI PUSH0 PUSH1 0x6 PUSH0 DUP6 DUP6 DUP6 DUP2 DUP2 LT PUSH2 0xBCD JUMPI PUSH2 0xBCC PUSH2 0x2543 JUMP JUMPDEST JUMPDEST SWAP1 POP PUSH1 0x20 MUL ADD PUSH1 0x20 DUP2 ADD SWAP1 PUSH2 0xBE2 SWAP2 SWAP1 PUSH2 0x1B6B JUMP JUMPDEST PUSH20 0xFFFFFFFFFFFFFFFFFFFFFFFFFFFFFFFFFFFFFFFF AND PUSH20 0xFFFFFFFFFFFFFFFFFFFFFFFFFFFFFFFFFFFFFFFF AND DUP2 MSTORE PUSH1 0x20 ADD SWAP1 DUP2 MSTORE PUSH1 0x20 ADD PUSH0 KECCAK256 PUSH1 0x40 MLOAD DUP1 PUSH1 0x60 ADD PUSH1 0x40 MSTORE SWAP1 DUP2 PUSH0 DUP3 ADD PUSH0 SWAP1 SLOAD SWAP1 PUSH2 0x100 EXP SWAP1 DIV PUSH20 0xFFFFFFFFFFFFFFFFFFFFFFFFFFFFFFFFFFFFFFFF AND PUSH20 0xFFFFFFFFFFFFFFFFFFFFFFFFFFFFFFFFFFFFFFFF AND PUSH20 0xFFFFFFFFFFFFFFFFFFFFFFFFFFFFFFFFFFFFFFFF AND DUP2 MSTORE PUSH1 0x20 ADD PUSH1 0x1 DUP3 ADD SLOAD DUP2 MSTORE PUSH1 0x20 ADD PUSH1 0x2 DUP3 ADD PUSH0 SWAP1 SLOAD SWAP1 PUSH2 0x100 EXP SWAP1 DIV PUSH1 0xFF AND ISZERO ISZERO ISZERO ISZERO DUP2 MSTORE POP POP SWAP1 POP PUSH1 0x5 SLOAD DUP2 PUSH1 0x20 ADD MLOAD EQ PUSH2 0xCE8 JUMPI PUSH1 0x40 MLOAD PUSH32 0x8C379A000000000000000000000000000000000000000000000000000000000 DUP2 MSTORE PUSH1 0x4 ADD PUSH2 0xCDF SWAP1 PUSH2 0x25BA JUMP JUMPDEST PUSH1 0x40 MLOAD DUP1 SWAP2 SUB SWAP1 REVERT JUMPDEST DUP5 PUSH20 0xFFFFFFFFFFFFFFFFFFFFFFFFFFFFFFFFFFFFFFFF AND DUP2 PUSH0 ADD MLOAD PUSH20 0xFFFFFFFFFFFFFFFFFFFFFFFFFFFFFFFFFFFFFFFF AND EQ PUSH2 0xD59 JUMPI PUSH1 0x40 MLOAD PUSH32 0x8C379A000000000000000000000000000000000000000000000000000000000 DUP2 MSTORE PUSH1 0x4 ADD PUSH2 0xD50 SWAP1 PUSH2 0x2622 JUMP JUMPDEST PUSH1 0x40 MLOAD DUP1 SWAP2 SUB SWAP1 REVERT JUMPDEST DUP1 PUSH1 0x40 ADD MLOAD ISZERO PUSH2 0xD9E JUMPI PUSH1 0x40 MLOAD PUSH32 0x8C379A000000000000000000000000000000000000000000000000000000000 DUP2 MSTORE PUSH1 0x4 ADD PUSH2 0xD95 SWAP1 PUSH2 0x26B0 JUMP JUMPDEST PUSH1 0x40 MLOAD DUP1 SWAP2 SUB SWAP1 REVERT JUMPDEST PUSH1 0x1 PUSH1 0x6 PUSH0 DUP7 DUP7 DUP7 DUP2 DUP2 LT PUSH2 0xDB6 JUMPI PUSH2 0xDB5 PUSH2 0x2543 JUMP JUMPDEST JUMPDEST SWAP1 POP PUSH1 0x20 MUL ADD PUSH1 0x20 DUP2 ADD SWAP1 PUSH2 0xDCB SWAP2 SWAP1 PUSH2 0x1B6B JUMP JUMPDEST PUSH20 0xFFFFFFFFFFFFFFFFFFFFFFFFFFFFFFFFFFFFFFFF AND PUSH20 0xFFFFFFFFFFFFFFFFFFFFFFFFFFFFFFFFFFFFFFFF AND DUP2 MSTORE PUSH1 0x20 ADD SWAP1 DUP2 MSTORE PUSH1 0x20 ADD PUSH0 KECCAK256 PUSH1 0x2 ADD PUSH0 PUSH2 0x100 EXP DUP2 SLOAD DUP2 PUSH1 0xFF MUL NOT AND SWAP1 DUP4 ISZERO ISZERO MUL OR SWAP1 SSTORE POP POP DUP1 DUP1 PUSH2 0xE29 SWAP1 PUSH2 0x26FB JUMP JUMPDEST SWAP2 POP POP PUSH2 0xBAB JUMP JUMPDEST POP PUSH0 PUSH1 0x4 PUSH0 PUSH2 0x100 EXP DUP2 SLOAD DUP2 PUSH1 0xFF MUL NOT AND SWAP1 DUP4 ISZERO ISZERO MUL OR SWAP1 SSTORE POP PUSH0 PUSH1 0x1 PUSH0 SWAP1 SLOAD SWAP1 PUSH2 0x100 EXP SWAP1 DIV PUSH20 0xFFFFFFFFFFFFFFFFFFFFFFFFFFFFFFFFFFFFFFFF AND SWAP1 POP DUP4 PUSH1 0x1 PUSH0 PUSH2 0x100 EXP DUP2 SLOAD DUP2 PUSH20 0xFFFFFFFFFFFFFFFFFFFFFFFFFFFFFFFFFFFFFFFF MUL NOT AND SWAP1 DUP4 PUSH20 0xFFFFFFFFFFFFFFFFFFFFFFFFFFFFFFFFFFFFFFFF AND MUL OR SWAP1 SSTORE POP PUSH1 0x5 SLOAD PUSH32 0xCBAA7C7C351E2D5655FC08D9C383ADCF4736AF160C800B53DF1F1DD221F826C8 DUP3 DUP7 PUSH1 0x40 MLOAD PUSH2 0xEE4 SWAP3 SWAP2 SWAP1 PUSH2 0x2742 JUMP JUMPDEST PUSH1 0x40 MLOAD DUP1 SWAP2 SUB SWAP1 LOG2 POP POP POP POP JUMP JUMPDEST PUSH1 0x1 PUSH0 SWAP1 SLOAD SWAP1 PUSH2 0x100 EXP SWAP1 DIV PUSH20 0xFFFFFFFFFFFFFFFFFFFFFFFFFFFFFFFFFFFFFFFF AND DUP2 JUMP JUMPDEST PUSH1 0x60 PUSH1 0x1 PUSH0 SWAP1 SLOAD SWAP1 PUSH2 0x100 EXP SWAP1 DIV PUSH20 0xFFFFFFFFFFFFFFFFFFFFFFFFFFFFFFFFFFFFFFFF AND PUSH20 0xFFFFFFFFFFFFFFFFFFFFFFFFFFFFFFFFFFFFFFFF AND CALLER PUSH20 0xFFFFFFFFFFFFFFFFFFFFFFFFFFFFFFFFFFFFFFFF AND EQ PUSH2 0xFA8 JUMPI PUSH1 0x40 MLOAD PUSH32 0x8C379A000000000000000000000000000000000000000000000000000000000 DUP2 MSTORE PUSH1 0x4 ADD PUSH2 0xF9F SWAP1 PUSH2 0x213D JUMP JUMPDEST PUSH1 0x40 MLOAD DUP1 SWAP2 SUB SWAP1 REVERT JUMPDEST PUSH2 0xFB0 PUSH2 0x1A82 JUMP JUMPDEST PUSH0 DUP1 DUP6 PUSH20 0xFFFFFFFFFFFFFFFFFFFFFFFFFFFFFFFFFFFFFFFF AND DUP6 DUP6 PUSH1 0x40 MLOAD PUSH2 0xFD8 SWAP2 SWAP1 PUSH2 0x27A3 JUMP JUMPDEST PUSH0 PUSH1 0x40 MLOAD DUP1 DUP4 SUB DUP2 DUP6 DUP8 GAS CALL SWAP3 POP POP POP RETURNDATASIZE DUP1 PUSH0 DUP2 EQ PUSH2 0x1012 JUMPI PUSH1 0x40 MLOAD SWAP2 POP PUSH1 0x1F NOT PUSH1 0x3F RETURNDATASIZE ADD AND DUP3 ADD PUSH1 0x40 MSTORE RETURNDATASIZE DUP3 MSTORE RETURNDATASIZE PUSH0 PUSH1 0x20 DUP5 ADD RETURNDATACOPY PUSH2 0x1017 JUMP JUMPDEST PUSH1 0x60 SWAP2 POP JUMPDEST POP SWAP2 POP SWAP2 POP DUP2 PUSH2 0x105C JUMPI PUSH1 0x40 MLOAD PUSH32 0x8C379A000000000000000000000000000000000000000000000000000000000 DUP2 MSTORE PUSH1 0x4 ADD PUSH2 0x1053 SWAP1 PUSH2 0x2803 JUMP JUMPDEST PUSH1 0x40 MLOAD DUP1 SWAP2 SUB SWAP1 REVERT JUMPDEST DUP6 PUSH20 0xFFFFFFFFFFFFFFFFFFFFFFFFFFFFFFFFFFFFFFFF AND PUSH32 0x47D99AD340F52DA66535AFF7E10DA1CEB85A32BCBD9FA1C42314D194545E14D2 DUP7 DUP7 PUSH1 0x40 MLOAD PUSH2 0x10A4 SWAP3 SWAP2 SWAP1 PUSH2 0x2821 JUMP JUMPDEST PUSH1 0x40 MLOAD DUP1 SWAP2 SUB SWAP1 LOG2 DUP1 SWAP3 POP POP POP PUSH2 0x10B9 PUSH2 0x1AC6 JUMP JUMPDEST SWAP4 SWAP3 POP POP POP JUMP JUMPDEST PUSH1 0x4 PUSH1 0x1 SWAP1 SLOAD SWAP1 PUSH2 0x100 EXP SWAP1 DIV PUSH1 0xFF AND DUP2 JUMP JUMPDEST PUSH1 0x3 PUSH0 CALLER PUSH1 0x40 MLOAD PUSH1 0x20 ADD PUSH2 0x10E7 SWAP2 SWAP1 PUSH2 0x2208 JUMP JUMPDEST PUSH1 0x40 MLOAD PUSH1 0x20 DUP2 DUP4 SUB SUB DUP2 MSTORE SWAP1 PUSH1 0x40 MSTORE DUP1 MLOAD SWAP1 PUSH1 0x20 ADD KECCAK256 DUP2 MSTORE PUSH1 0x20 ADD SWAP1 DUP2 MSTORE PUSH1 0x20 ADD PUSH0 KECCAK256 PUSH0 SWAP1 SLOAD SWAP1 PUSH2 0x100 EXP SWAP1 DIV PUSH1 0xFF AND PUSH2 0x1156 JUMPI PUSH1 0x40 MLOAD PUSH32 0x8C379A000000000000000000000000000000000000000000000000000000000 DUP2 MSTORE PUSH1 0x4 ADD PUSH2 0x114D SWAP1 PUSH2 0x2292 JUMP JUMPDEST PUSH1 0x40 MLOAD DUP1 SWAP2 SUB SWAP1 REVERT JUMPDEST CALLER PUSH20 0xFFFFFFFFFFFFFFFFFFFFFFFFFFFFFFFFFFFFFFFF AND CALLER PUSH1 0x40 MLOAD PUSH1 0x20 ADD PUSH2 0x117E SWAP2 SWAP1 PUSH2 0x2208 JUMP JUMPDEST PUSH1 0x40 MLOAD PUSH1 0x20 DUP2 DUP4 SUB SUB DUP2 MSTORE SWAP1 PUSH1 0x40 MSTORE DUP1 MLOAD SWAP1 PUSH1 0x20 ADD KECCAK256 PUSH32 0xAEEE4DC34642964BD6D8194B8689894338B209DE063B46447E53FE54D54EB99B PUSH1 0x40 MLOAD PUSH1 0x40 MLOAD DUP1 SWAP2 SUB SWAP1 LOG3 JUMP JUMPDEST PUSH1 0x1 PUSH0 SWAP1 SLOAD SWAP1 PUSH2 0x100 EXP SWAP1 DIV PUSH20 0xFFFFFFFFFFFFFFFFFFFFFFFFFFFFFFFFFFFFFFFF AND PUSH20 0xFFFFFFFFFFFFFFFFFFFFFFFFFFFFFFFFFFFFFFFF AND CALLER PUSH20 0xFFFFFFFFFFFFFFFFFFFFFFFFFFFFFFFFFFFFFFFF AND EQ PUSH2 0x1251 JUMPI PUSH1 0x40 MLOAD PUSH32 0x8C379A000000000000000000000000000000000000000000000000000000000 DUP2 MSTORE PUSH1 0x4 ADD PUSH2 0x1248 SWAP1 PUSH2 0x213D JUMP JUMPDEST PUSH1 0x40 MLOAD DUP1 SWAP2 SUB SWAP1 REVERT JUMPDEST PUSH1 0x4 PUSH1 0x1 SWAP1 SLOAD SWAP1 PUSH2 0x100 EXP SWAP1 DIV PUSH1 0xFF AND PUSH2 0x12A0 JUMPI PUSH1 0x40 MLOAD PUSH32 0x8C379A000000000000000000000000000000000000000000000000000000000 DUP2 MSTORE PUSH1 0x4 ADD PUSH2 0x1297 SWAP1 PUSH2 0x23AE JUMP JUMPDEST PUSH1 0x40 MLOAD DUP1 SWAP2 SUB SWAP1 REVERT JUMPDEST PUSH1 0x4 PUSH0 SWAP1 SLOAD SWAP1 PUSH2 0x100 EXP SWAP1 DIV PUSH1 0xFF AND ISZERO PUSH2 0x12EF JUMPI PUSH1 0x40 MLOAD PUSH32 0x8C379A000000000000000000000000000000000000000000000000000000000 DUP2 MSTORE PUSH1 0x4 ADD PUSH2 0x12E6 SWAP1 PUSH2 0x2416 JUMP JUMPDEST PUSH1 0x40 MLOAD DUP1 SWAP2 SUB SWAP1 REVERT JUMPDEST PUSH0 PUSH1 0x4 PUSH1 0x1 PUSH2 0x100 EXP DUP2 SLOAD DUP2 PUSH1 0xFF MUL NOT AND SWAP1 DUP4 ISZERO ISZERO MUL OR SWAP1 SSTORE POP PUSH32 0xD57D294D41D7CB0F642228C3AA8884365982694AFCFA206C635FD368DFA4479C CALLER PUSH1 0x40 MLOAD PUSH2 0x1338 SWAP2 SWAP1 PUSH2 0x1CFF JUMP JUMPDEST PUSH1 0x40 MLOAD DUP1 SWAP2 SUB SWAP1 LOG1 JUMP JUMPDEST PUSH1 0x1 PUSH0 SWAP1 SLOAD SWAP1 PUSH2 0x100 EXP SWAP1 DIV PUSH20 0xFFFFFFFFFFFFFFFFFFFFFFFFFFFFFFFFFFFFFFFF AND PUSH20 0xFFFFFFFFFFFFFFFFFFFFFFFFFFFFFFFFFFFFFFFF AND CALLER PUSH20 0xFFFFFFFFFFFFFFFFFFFFFFFFFFFFFFFFFFFFFFFF AND EQ PUSH2 0x13D1 JUMPI PUSH1 0x40 MLOAD PUSH32 0x8C379A000000000000000000000000000000000000000000000000000000000 DUP2 MSTORE PUSH1 0x4 ADD PUSH2 0x13C8 SWAP1 PUSH2 0x213D JUMP JUMPDEST PUSH1 0x40 MLOAD DUP1 SWAP2 SUB SWAP1 REVERT JUMPDEST DUP2 PUSH20 0xFFFFFFFFFFFFFFFFFFFFFFFFFFFFFFFFFFFFFFFF AND PUSH2 0x8FC DUP3 SWAP1 DUP2 ISZERO MUL SWAP1 PUSH1 0x40 MLOAD PUSH0 PUSH1 0x40 MLOAD DUP1 DUP4 SUB DUP2 DUP6 DUP9 DUP9 CALL SWAP4 POP POP POP POP ISZERO DUP1 ISZERO PUSH2 0x1414 JUMPI RETURNDATASIZE PUSH0 DUP1 RETURNDATACOPY RETURNDATASIZE PUSH0 REVERT JUMPDEST POP DUP2 PUSH20 0xFFFFFFFFFFFFFFFFFFFFFFFFFFFFFFFFFFFFFFFF AND PUSH32 0xE6D858F14D755446648A6E0C8AB8B5A0F58CCC7920D4C910B0454E4DCD869AF0 DUP3 PUSH1 0x40 MLOAD PUSH2 0x145B SWAP2 SWAP1 PUSH2 0x1AE7 JUMP JUMPDEST PUSH1 0x40 MLOAD DUP1 SWAP2 SUB SWAP1 LOG2 POP POP JUMP JUMPDEST PUSH1 0x5 SLOAD DUP2 JUMP JUMPDEST PUSH1 0x1 PUSH0 SWAP1 SLOAD SWAP1 PUSH2 0x100 EXP SWAP1 DIV PUSH20 0xFFFFFFFFFFFFFFFFFFFFFFFFFFFFFFFFFFFFFFFF AND PUSH20 0xFFFFFFFFFFFFFFFFFFFFFFFFFFFFFFFFFFFFFFFF AND CALLER PUSH20 0xFFFFFFFFFFFFFFFFFFFFFFFFFFFFFFFFFFFFFFFF AND EQ PUSH2 0x14FC JUMPI PUSH1 0x40 MLOAD PUSH32 0x8C379A000000000000000000000000000000000000000000000000000000000 DUP2 MSTORE PUSH1 0x4 ADD PUSH2 0x14F3 SWAP1 PUSH2 0x213D JUMP JUMPDEST PUSH1 0x40 MLOAD DUP1 SWAP2 SUB SWAP1 REVERT JUMPDEST PUSH1 0x3 PUSH0 DUP4 DUP2 MSTORE PUSH1 0x20 ADD SWAP1 DUP2 MSTORE PUSH1 0x20 ADD PUSH0 KECCAK256 PUSH0 SWAP1 SLOAD SWAP1 PUSH2 0x100 EXP SWAP1 DIV PUSH1 0xFF AND PUSH2 0x1559 JUMPI PUSH1 0x40 MLOAD PUSH32 0x8C379A000000000000000000000000000000000000000000000000000000000 DUP2 MSTORE PUSH1 0x4 ADD PUSH2 0x1550 SWAP1 PUSH2 0x2899 JUMP JUMPDEST PUSH1 0x40 MLOAD DUP1 SWAP2 SUB SWAP1 REVERT JUMPDEST PUSH0 PUSH1 0x3 PUSH0 DUP5 DUP2 MSTORE PUSH1 0x20 ADD SWAP1 DUP2 MSTORE PUSH1 0x20 ADD PUSH0 KECCAK256 PUSH0 PUSH2 0x100 EXP DUP2 SLOAD DUP2 PUSH1 0xFF MUL NOT AND SWAP1 DUP4 ISZERO ISZERO MUL OR SWAP1 SSTORE POP DUP1 PUSH1 0x2 DUP2 SWAP1 SSTORE POP PUSH32 0x2ED5A1D41AF8E4C27F6E4C020FEBBF0221B28B9CC47FCAB6BF97AA2BD28F3A68 CALLER PUSH1 0x40 MLOAD PUSH2 0x15B7 SWAP2 SWAP1 PUSH2 0x1CFF JUMP JUMPDEST PUSH1 0x40 MLOAD DUP1 SWAP2 SUB SWAP1 LOG1 POP POP JUMP JUMPDEST PUSH1 0x3 PUSH1 0x20 MSTORE DUP1 PUSH0 MSTORE PUSH1 0x40 PUSH0 KECCAK256 PUSH0 SWAP2 POP SLOAD SWAP1 PUSH2 0x100 EXP SWAP1 DIV PUSH1 0xFF AND DUP2 JUMP JUMPDEST PUSH1 0x3 PUSH0 CALLER PUSH1 0x40 MLOAD PUSH1 0x20 ADD PUSH2 0x15F4 SWAP2 SWAP1 PUSH2 0x2208 JUMP JUMPDEST PUSH1 0x40 MLOAD PUSH1 0x20 DUP2 DUP4 SUB SUB DUP2 MSTORE SWAP1 PUSH1 0x40 MSTORE DUP1 MLOAD SWAP1 PUSH1 0x20 ADD KECCAK256 DUP2 MSTORE PUSH1 0x20 ADD SWAP1 DUP2 MSTORE PUSH1 0x20 ADD PUSH0 KECCAK256 PUSH0 SWAP1 SLOAD SWAP1 PUSH2 0x100 EXP SWAP1 DIV PUSH1 0xFF AND PUSH2 0x1663 JUMPI PUSH1 0x40 MLOAD PUSH32 0x8C379A000000000000000000000000000000000000000000000000000000000 DUP2 MSTORE PUSH1 0x4 ADD PUSH2 0x165A SWAP1 PUSH2 0x2292 JUMP JUMPDEST PUSH1 0x40 MLOAD DUP1 SWAP2 SUB SWAP1 REVERT JUMPDEST PUSH1 0x4 PUSH1 0x1 SWAP1 SLOAD SWAP1 PUSH2 0x100 EXP SWAP1 DIV PUSH1 0xFF AND ISZERO PUSH2 0x16B3 JUMPI PUSH1 0x40 MLOAD PUSH32 0x8C379A000000000000000000000000000000000000000000000000000000000 DUP2 MSTORE PUSH1 0x4 ADD PUSH2 0x16AA SWAP1 PUSH2 0x2320 JUMP JUMPDEST PUSH1 0x40 MLOAD DUP1 SWAP2 SUB SWAP1 REVERT JUMPDEST PUSH1 0x4 PUSH0 SWAP1 SLOAD SWAP1 PUSH2 0x100 EXP SWAP1 DIV PUSH1 0xFF AND ISZERO PUSH2 0x1702 JUMPI PUSH1 0x40 MLOAD PUSH32 0x8C379A000000000000000000000000000000000000000000000000000000000 DUP2 MSTORE PUSH1 0x4 ADD PUSH2 0x16F9 SWAP1 PUSH2 0x2416 JUMP JUMPDEST PUSH1 0x40 MLOAD DUP1 SWAP2 SUB SWAP1 REVERT JUMPDEST PUSH1 0x40 MLOAD DUP1 PUSH1 0x60 ADD PUSH1 0x40 MSTORE DUP1 DUP3 DUP2 MSTORE PUSH1 0x20 ADD DUP4 DUP2 MSTORE PUSH1 0x20 ADD PUSH0 ISZERO ISZERO DUP2 MSTORE POP PUSH1 0x7 PUSH0 CALLER PUSH20 0xFFFFFFFFFFFFFFFFFFFFFFFFFFFFFFFFFFFFFFFF AND PUSH20 0xFFFFFFFFFFFFFFFFFFFFFFFFFFFFFFFFFFFFFFFF AND DUP2 MSTORE PUSH1 0x20 ADD SWAP1 DUP2 MSTORE PUSH1 0x20 ADD PUSH0 KECCAK256 PUSH0 DUP3 ADD MLOAD DUP2 PUSH0 ADD SSTORE PUSH1 0x20 DUP3 ADD MLOAD DUP2 PUSH1 0x1 ADD SSTORE PUSH1 0x40 DUP3 ADD MLOAD DUP2 PUSH1 0x2 ADD PUSH0 PUSH2 0x100 EXP DUP2 SLOAD DUP2 PUSH1 0xFF MUL NOT AND SWAP1 DUP4 ISZERO ISZERO MUL OR SWAP1 SSTORE POP SWAP1 POP POP PUSH1 0x1 PUSH1 0x4 PUSH1 0x1 PUSH2 0x100 EXP DUP2 SLOAD DUP2 PUSH1 0xFF MUL NOT AND SWAP1 DUP4 ISZERO ISZERO MUL OR SWAP1 SSTORE POP DUP1 PUSH32 0x53F2FE2C3DDD98BB20232E34F5F6F7F3D41D42BBE7A806E1E5D7EE4BBD418F28 DUP4 PUSH1 0x40 MLOAD PUSH2 0x17DB SWAP2 SWAP1 PUSH2 0x249C JUMP JUMPDEST PUSH1 0x40 MLOAD DUP1 SWAP2 SUB SWAP1 LOG2 POP POP JUMP JUMPDEST PUSH1 0x3 PUSH0 CALLER PUSH1 0x40 MLOAD PUSH1 0x20 ADD PUSH2 0x17FB SWAP2 SWAP1 PUSH2 0x2208 JUMP JUMPDEST PUSH1 0x40 MLOAD PUSH1 0x20 DUP2 DUP4 SUB SUB DUP2 MSTORE SWAP1 PUSH1 0x40 MSTORE DUP1 MLOAD SWAP1 PUSH1 0x20 ADD KECCAK256 DUP2 MSTORE PUSH1 0x20 ADD SWAP1 DUP2 MSTORE PUSH1 0x20 ADD PUSH0 KECCAK256 PUSH0 SWAP1 SLOAD SWAP1 PUSH2 0x100 EXP SWAP1 DIV PUSH1 0xFF AND PUSH2 0x186A JUMPI PUSH1 0x40 MLOAD PUSH32 0x8C379A000000000000000000000000000000000000000000000000000000000 DUP2 MSTORE PUSH1 0x4 ADD PUSH2 0x1861 SWAP1 PUSH2 0x2292 JUMP JUMPDEST PUSH1 0x40 MLOAD DUP1 SWAP2 SUB SWAP1 REVERT JUMPDEST PUSH1 0x4 PUSH0 SWAP1 SLOAD SWAP1 PUSH2 0x100 EXP SWAP1 DIV PUSH1 0xFF AND ISZERO PUSH2 0x18B9 JUMPI PUSH1 0x40 MLOAD PUSH32 0x8C379A000000000000000000000000000000000000000000000000000000000 DUP2 MSTORE PUSH1 0x4 ADD PUSH2 0x18B0 SWAP1 PUSH2 0x2416 JUMP JUMPDEST PUSH1 0x40 MLOAD DUP1 SWAP2 SUB SWAP1 REVERT JUMPDEST PUSH1 0x4 PUSH1 0x1 SWAP1 SLOAD SWAP1 PUSH2 0x100 EXP SWAP1 DIV PUSH1 0xFF AND ISZERO PUSH2 0x1909 JUMPI PUSH1 0x40 MLOAD PUSH32 0x8C379A000000000000000000000000000000000000000000000000000000000 DUP2 MSTORE PUSH1 0x4 ADD PUSH2 0x1900 SWAP1 PUSH2 0x2320 JUMP JUMPDEST PUSH1 0x40 MLOAD DUP1 SWAP2 SUB SWAP1 REVERT JUMPDEST PUSH1 0x5 PUSH0 DUP2 SLOAD DUP1 SWAP3 SWAP2 SWAP1 PUSH2 0x191B SWAP1 PUSH2 0x26FB JUMP JUMPDEST SWAP2 SWAP1 POP SSTORE POP PUSH1 0x40 MLOAD DUP1 PUSH1 0x60 ADD PUSH1 0x40 MSTORE DUP1 DUP3 PUSH20 0xFFFFFFFFFFFFFFFFFFFFFFFFFFFFFFFFFFFFFFFF AND DUP2 MSTORE PUSH1 0x20 ADD PUSH1 0x5 SLOAD DUP2 MSTORE PUSH1 0x20 ADD PUSH0 ISZERO ISZERO DUP2 MSTORE POP PUSH1 0x6 PUSH0 CALLER PUSH20 0xFFFFFFFFFFFFFFFFFFFFFFFFFFFFFFFFFFFFFFFF AND PUSH20 0xFFFFFFFFFFFFFFFFFFFFFFFFFFFFFFFFFFFFFFFF AND DUP2 MSTORE PUSH1 0x20 ADD SWAP1 DUP2 MSTORE PUSH1 0x20 ADD PUSH0 KECCAK256 PUSH0 DUP3 ADD MLOAD DUP2 PUSH0 ADD PUSH0 PUSH2 0x100 EXP DUP2 SLOAD DUP2 PUSH20 0xFFFFFFFFFFFFFFFFFFFFFFFFFFFFFFFFFFFFFFFF MUL NOT AND SWAP1 DUP4 PUSH20 0xFFFFFFFFFFFFFFFFFFFFFFFFFFFFFFFFFFFFFFFF AND MUL OR SWAP1 SSTORE POP PUSH1 0x20 DUP3 ADD MLOAD DUP2 PUSH1 0x1 ADD SSTORE PUSH1 0x40 DUP3 ADD MLOAD DUP2 PUSH1 0x2 ADD PUSH0 PUSH2 0x100 EXP DUP2 SLOAD DUP2 PUSH1 0xFF MUL NOT AND SWAP1 DUP4 ISZERO ISZERO MUL OR SWAP1 SSTORE POP SWAP1 POP POP PUSH1 0x1 PUSH1 0x4 PUSH0 PUSH2 0x100 EXP DUP2 SLOAD DUP2 PUSH1 0xFF MUL NOT AND SWAP1 DUP4 ISZERO ISZERO MUL OR SWAP1 SSTORE POP PUSH1 0x5 SLOAD CALLER PUSH20 0xFFFFFFFFFFFFFFFFFFFFFFFFFFFFFFFFFFFFFFFF AND PUSH32 0xE290EA2CC3CFEB5114F992DC8BE9E503DE30042C13B9298644A2679B09E17A04 DUP4 PUSH1 0x40 MLOAD PUSH2 0x1A65 SWAP2 SWAP1 PUSH2 0x1CFF JUMP JUMPDEST PUSH1 0x40 MLOAD DUP1 SWAP2 SUB SWAP1 LOG3 POP JUMP JUMPDEST PUSH1 0x4 PUSH0 SWAP1 SLOAD SWAP1 PUSH2 0x100 EXP SWAP1 DIV PUSH1 0xFF AND DUP2 JUMP JUMPDEST PUSH1 0x2 PUSH0 SLOAD SUB PUSH2 0x1ABD JUMPI PUSH1 0x40 MLOAD PUSH32 0x3EE5AEB500000000000000000000000000000000000000000000000000000000 DUP2 MSTORE PUSH1 0x4 ADD PUSH1 0x40 MLOAD DUP1 SWAP2 SUB SWAP1 REVERT JUMPDEST PUSH1 0x2 PUSH0 DUP2 SWAP1 SSTORE POP JUMP JUMPDEST PUSH1 0x1 PUSH0 DUP2 SWAP1 SSTORE POP JUMP JUMPDEST PUSH0 DUP2 SWAP1 POP SWAP2 SWAP1 POP JUMP JUMPDEST PUSH2 0x1AE1 DUP2 PUSH2 0x1ACF JUMP JUMPDEST DUP3 MSTORE POP POP JUMP JUMPDEST PUSH0 PUSH1 0x20 DUP3 ADD SWAP1 POP PUSH2 0x1AFA PUSH0 DUP4 ADD DUP5 PUSH2 0x1AD8 JUMP JUMPDEST SWAP3 SWAP2 POP POP JUMP JUMPDEST PUSH0 PUSH1 0x40 MLOAD SWAP1 POP SWAP1 JUMP JUMPDEST PUSH0 DUP1 REVERT JUMPDEST PUSH0 DUP1 REVERT JUMPDEST PUSH0 PUSH20 0xFFFFFFFFFFFFFFFFFFFFFFFFFFFFFFFFFFFFFFFF DUP3 AND SWAP1 POP SWAP2 SWAP1 POP JUMP JUMPDEST PUSH0 PUSH2 0x1B3A DUP3 PUSH2 0x1B11 JUMP JUMPDEST SWAP1 POP SWAP2 SWAP1 POP JUMP JUMPDEST PUSH2 0x1B4A DUP2 PUSH2 0x1B30 JUMP JUMPDEST DUP2 EQ PUSH2 0x1B54 JUMPI PUSH0 DUP1 REVERT JUMPDEST POP JUMP JUMPDEST PUSH0 DUP2 CALLDATALOAD SWAP1 POP PUSH2 0x1B65 DUP2 PUSH2 0x1B41 JUMP JUMPDEST SWAP3 SWAP2 POP POP JUMP JUMPDEST PUSH0 PUSH1 0x20 DUP3 DUP5 SUB SLT ISZERO PUSH2 0x1B80 JUMPI PUSH2 0x1B7F PUSH2 0x1B09 JUMP JUMPDEST JUMPDEST PUSH0 PUSH2 0x1B8D DUP5 DUP3 DUP6 ADD PUSH2 0x1B57 JUMP JUMPDEST SWAP2 POP POP SWAP3 SWAP2 POP POP JUMP JUMPDEST PUSH0 DUP2 SWAP1 POP SWAP2 SWAP1 POP JUMP JUMPDEST PUSH2 0x1BA8 DUP2 PUSH2 0x1B96 JUMP JUMPDEST DUP3 MSTORE POP POP JUMP JUMPDEST PUSH0 DUP2 ISZERO ISZERO SWAP1 POP SWAP2 SWAP1 POP JUMP JUMPDEST PUSH2 0x1BC2 DUP2 PUSH2 0x1BAE JUMP JUMPDEST DUP3 MSTORE POP POP JUMP JUMPDEST PUSH0 PUSH1 0x60 DUP3 ADD SWAP1 POP PUSH2 0x1BDB PUSH0 DUP4 ADD DUP7 PUSH2 0x1B9F JUMP JUMPDEST PUSH2 0x1BE8 PUSH1 0x20 DUP4 ADD DUP6 PUSH2 0x1B9F JUMP JUMPDEST PUSH2 0x1BF5 PUSH1 0x40 DUP4 ADD DUP5 PUSH2 0x1BB9 JUMP JUMPDEST SWAP5 SWAP4 POP POP POP POP JUMP JUMPDEST PUSH2 0x1C06 DUP2 PUSH2 0x1B30 JUMP JUMPDEST DUP3 MSTORE POP POP JUMP JUMPDEST PUSH0 PUSH1 0x60 DUP3 ADD SWAP1 POP PUSH2 0x1C1F PUSH0 DUP4 ADD DUP7 PUSH2 0x1BFD JUMP JUMPDEST PUSH2 0x1C2C PUSH1 0x20 DUP4 ADD DUP6 PUSH2 0x1AD8 JUMP JUMPDEST PUSH2 0x1C39 PUSH1 0x40 DUP4 ADD DUP5 PUSH2 0x1BB9 JUMP JUMPDEST SWAP5 SWAP4 POP POP POP POP JUMP JUMPDEST PUSH0 DUP1 REVERT JUMPDEST PUSH0 DUP1 REVERT JUMPDEST PUSH0 DUP1 REVERT JUMPDEST PUSH0 DUP1 DUP4 PUSH1 0x1F DUP5 ADD SLT PUSH2 0x1C62 JUMPI PUSH2 0x1C61 PUSH2 0x1C41 JUMP JUMPDEST JUMPDEST DUP3 CALLDATALOAD SWAP1 POP PUSH8 0xFFFFFFFFFFFFFFFF DUP2 GT ISZERO PUSH2 0x1C7F JUMPI PUSH2 0x1C7E PUSH2 0x1C45 JUMP JUMPDEST JUMPDEST PUSH1 0x20 DUP4 ADD SWAP2 POP DUP4 PUSH1 0x20 DUP3 MUL DUP4 ADD GT ISZERO PUSH2 0x1C9B JUMPI PUSH2 0x1C9A PUSH2 0x1C49 JUMP JUMPDEST JUMPDEST SWAP3 POP SWAP3 SWAP1 POP JUMP JUMPDEST PUSH0 DUP1 PUSH0 PUSH1 0x40 DUP5 DUP7 SUB SLT ISZERO PUSH2 0x1CB9 JUMPI PUSH2 0x1CB8 PUSH2 0x1B09 JUMP JUMPDEST JUMPDEST PUSH0 PUSH2 0x1CC6 DUP7 DUP3 DUP8 ADD PUSH2 0x1B57 JUMP JUMPDEST SWAP4 POP POP PUSH1 0x20 DUP5 ADD CALLDATALOAD PUSH8 0xFFFFFFFFFFFFFFFF DUP2 GT ISZERO PUSH2 0x1CE7 JUMPI PUSH2 0x1CE6 PUSH2 0x1B0D JUMP JUMPDEST JUMPDEST PUSH2 0x1CF3 DUP7 DUP3 DUP8 ADD PUSH2 0x1C4D JUMP JUMPDEST SWAP3 POP SWAP3 POP POP SWAP3 POP SWAP3 POP SWAP3 JUMP JUMPDEST PUSH0 PUSH1 0x20 DUP3 ADD SWAP1 POP PUSH2 0x1D12 PUSH0 DUP4 ADD DUP5 PUSH2 0x1BFD JUMP JUMPDEST SWAP3 SWAP2 POP POP JUMP JUMPDEST PUSH2 0x1D21 DUP2 PUSH2 0x1ACF JUMP JUMPDEST DUP2 EQ PUSH2 0x1D2B JUMPI PUSH0 DUP1 REVERT JUMPDEST POP JUMP JUMPDEST PUSH0 DUP2 CALLDATALOAD SWAP1 POP PUSH2 0x1D3C DUP2 PUSH2 0x1D18 JUMP JUMPDEST SWAP3 SWAP2 POP POP JUMP JUMPDEST PUSH0 DUP1 REVERT JUMPDEST PUSH0 PUSH1 0x1F NOT PUSH1 0x1F DUP4 ADD AND SWAP1 POP SWAP2 SWAP1 POP JUMP JUMPDEST PUSH32 0x4E487B7100000000000000000000000000000000000000000000000000000000 PUSH0 MSTORE PUSH1 0x41 PUSH1 0x4 MSTORE PUSH1 0x24 PUSH0 REVERT JUMPDEST PUSH2 0x1D8C DUP3 PUSH2 0x1D46 JUMP JUMPDEST DUP2 ADD DUP2 DUP2 LT PUSH8 0xFFFFFFFFFFFFFFFF DUP3 GT OR ISZERO PUSH2 0x1DAB JUMPI PUSH2 0x1DAA PUSH2 0x1D56 JUMP JUMPDEST JUMPDEST DUP1 PUSH1 0x40 MSTORE POP POP POP JUMP JUMPDEST PUSH0 PUSH2 0x1DBD PUSH2 0x1B00 JUMP JUMPDEST SWAP1 POP PUSH2 0x1DC9 DUP3 DUP3 PUSH2 0x1D83 JUMP JUMPDEST SWAP2 SWAP1 POP JUMP JUMPDEST PUSH0 PUSH8 0xFFFFFFFFFFFFFFFF DUP3 GT ISZERO PUSH2 0x1DE8 JUMPI PUSH2 0x1DE7 PUSH2 0x1D56 JUMP JUMPDEST JUMPDEST PUSH2 0x1DF1 DUP3 PUSH2 0x1D46 JUMP JUMPDEST SWAP1 POP PUSH1 0x20 DUP2 ADD SWAP1 POP SWAP2 SWAP1 POP JUMP JUMPDEST DUP3 DUP2 DUP4 CALLDATACOPY PUSH0 DUP4 DUP4 ADD MSTORE POP POP POP JUMP JUMPDEST PUSH0 PUSH2 0x1E1E PUSH2 0x1E19 DUP5 PUSH2 0x1DCE JUMP JUMPDEST PUSH2 0x1DB4 JUMP JUMPDEST SWAP1 POP DUP3 DUP2 MSTORE PUSH1 0x20 DUP2 ADD DUP5 DUP5 DUP5 ADD GT ISZERO PUSH2 0x1E3A JUMPI PUSH2 0x1E39 PUSH2 0x1D42 JUMP JUMPDEST JUMPDEST PUSH2 0x1E45 DUP5 DUP3 DUP6 PUSH2 0x1DFE JUMP JUMPDEST POP SWAP4 SWAP3 POP POP POP JUMP JUMPDEST PUSH0 DUP3 PUSH1 0x1F DUP4 ADD SLT PUSH2 0x1E61 JUMPI PUSH2 0x1E60 PUSH2 0x1C41 JUMP JUMPDEST JUMPDEST DUP2 CALLDATALOAD PUSH2 0x1E71 DUP5 DUP3 PUSH1 0x20 DUP7 ADD PUSH2 0x1E0C JUMP JUMPDEST SWAP2 POP POP SWAP3 SWAP2 POP POP JUMP JUMPDEST PUSH0 DUP1 PUSH0 PUSH1 0x60 DUP5 DUP7 SUB SLT ISZERO PUSH2 0x1E91 JUMPI PUSH2 0x1E90 PUSH2 0x1B09 JUMP JUMPDEST JUMPDEST PUSH0 PUSH2 0x1E9E DUP7 DUP3 DUP8 ADD PUSH2 0x1B57 JUMP JUMPDEST SWAP4 POP POP PUSH1 0x20 PUSH2 0x1EAF DUP7 DUP3 DUP8 ADD PUSH2 0x1D2E JUMP JUMPDEST SWAP3 POP POP PUSH1 0x40 DUP5 ADD CALLDATALOAD PUSH8 0xFFFFFFFFFFFFFFFF DUP2 GT ISZERO PUSH2 0x1ED0 JUMPI PUSH2 0x1ECF PUSH2 0x1B0D JUMP JUMPDEST JUMPDEST PUSH2 0x1EDC DUP7 DUP3 DUP8 ADD PUSH2 0x1E4D JUMP JUMPDEST SWAP2 POP POP SWAP3 POP SWAP3 POP SWAP3 JUMP JUMPDEST PUSH0 DUP2 MLOAD SWAP1 POP SWAP2 SWAP1 POP JUMP JUMPDEST PUSH0 DUP3 DUP3 MSTORE PUSH1 0x20 DUP3 ADD SWAP1 POP SWAP3 SWAP2 POP POP JUMP JUMPDEST PUSH0 JUMPDEST DUP4 DUP2 LT ISZERO PUSH2 0x1F1D JUMPI DUP1 DUP3 ADD MLOAD DUP2 DUP5 ADD MSTORE PUSH1 0x20 DUP2 ADD SWAP1 POP PUSH2 0x1F02 JUMP JUMPDEST PUSH0 DUP5 DUP5 ADD MSTORE POP POP POP POP JUMP JUMPDEST PUSH0 PUSH2 0x1F32 DUP3 PUSH2 0x1EE6 JUMP JUMPDEST PUSH2 0x1F3C DUP2 DUP6 PUSH2 0x1EF0 JUMP JUMPDEST SWAP4 POP PUSH2 0x1F4C DUP2 DUP6 PUSH1 0x20 DUP7 ADD PUSH2 0x1F00 JUMP JUMPDEST PUSH2 0x1F55 DUP2 PUSH2 0x1D46 JUMP JUMPDEST DUP5 ADD SWAP2 POP POP SWAP3 SWAP2 POP POP JUMP JUMPDEST PUSH0 PUSH1 0x20 DUP3 ADD SWAP1 POP DUP2 DUP2 SUB PUSH0 DUP4 ADD MSTORE PUSH2 0x1F78 DUP2 DUP5 PUSH2 0x1F28 JUMP JUMPDEST SWAP1 POP SWAP3 SWAP2 POP POP JUMP JUMPDEST PUSH0 PUSH1 0x20 DUP3 ADD SWAP1 POP PUSH2 0x1F93 PUSH0 DUP4 ADD DUP5 PUSH2 0x1BB9 JUMP JUMPDEST SWAP3 SWAP2 POP POP JUMP JUMPDEST PUSH0 PUSH2 0x1FA3 DUP3 PUSH2 0x1B11 JUMP JUMPDEST SWAP1 POP SWAP2 SWAP1 POP JUMP JUMPDEST PUSH2 0x1FB3 DUP2 PUSH2 0x1F99 JUMP JUMPDEST DUP2 EQ PUSH2 0x1FBD JUMPI PUSH0 DUP1 REVERT JUMPDEST POP JUMP JUMPDEST PUSH0 DUP2 CALLDATALOAD SWAP1 POP PUSH2 0x1FCE DUP2 PUSH2 0x1FAA JUMP JUMPDEST SWAP3 SWAP2 POP POP JUMP JUMPDEST PUSH0 DUP1 PUSH1 0x40 DUP4 DUP6 SUB SLT ISZERO PUSH2 0x1FEA JUMPI PUSH2 0x1FE9 PUSH2 0x1B09 JUMP JUMPDEST JUMPDEST PUSH0 PUSH2 0x1FF7 DUP6 DUP3 DUP7 ADD PUSH2 0x1FC0 JUMP JUMPDEST SWAP3 POP POP PUSH1 0x20 PUSH2 0x2008 DUP6 DUP3 DUP7 ADD PUSH2 0x1D2E JUMP JUMPDEST SWAP2 POP POP SWAP3 POP SWAP3 SWAP1 POP JUMP JUMPDEST PUSH2 0x201B DUP2 PUSH2 0x1B96 JUMP JUMPDEST DUP2 EQ PUSH2 0x2025 JUMPI PUSH0 DUP1 REVERT JUMPDEST POP JUMP JUMPDEST PUSH0 DUP2 CALLDATALOAD SWAP1 POP PUSH2 0x2036 DUP2 PUSH2 0x2012 JUMP JUMPDEST SWAP3 SWAP2 POP POP JUMP JUMPDEST PUSH0 DUP1 PUSH1 0x40 DUP4 DUP6 SUB SLT ISZERO PUSH2 0x2052 JUMPI PUSH2 0x2051 PUSH2 0x1B09 JUMP JUMPDEST JUMPDEST PUSH0 PUSH2 0x205F DUP6 DUP3 DUP7 ADD PUSH2 0x2028 JUMP JUMPDEST SWAP3 POP POP PUSH1 0x20 PUSH2 0x2070 DUP6 DUP3 DUP7 ADD PUSH2 0x1D2E JUMP JUMPDEST SWAP2 POP POP SWAP3 POP SWAP3 SWAP1 POP JUMP JUMPDEST PUSH0 PUSH1 0x20 DUP3 DUP5 SUB SLT ISZERO PUSH2 0x208F JUMPI PUSH2 0x208E PUSH2 0x1B09 JUMP JUMPDEST JUMPDEST PUSH0 PUSH2 0x209C DUP5 DUP3 DUP6 ADD PUSH2 0x2028 JUMP JUMPDEST SWAP2 POP POP SWAP3 SWAP2 POP POP JUMP JUMPDEST PUSH0 DUP1 PUSH1 0x40 DUP4 DUP6 SUB SLT ISZERO PUSH2 0x20BB JUMPI PUSH2 0x20BA PUSH2 0x1B09 JUMP JUMPDEST JUMPDEST PUSH0 PUSH2 0x20C8 DUP6 DUP3 DUP7 ADD PUSH2 0x2028 JUMP JUMPDEST SWAP3 POP POP PUSH1 0x20 PUSH2 0x20D9 DUP6 DUP3 DUP7 ADD PUSH2 0x2028 JUMP JUMPDEST SWAP2 POP POP SWAP3 POP SWAP3 SWAP1 POP JUMP JUMPDEST PUSH0 DUP3 DUP3 MSTORE PUSH1 0x20 DUP3 ADD SWAP1 POP SWAP3 SWAP2 POP POP JUMP JUMPDEST PUSH32 0x4E6F7420417574686F72697A6564000000000000000000000000000000000000 PUSH0 DUP3 ADD MSTORE POP JUMP JUMPDEST PUSH0 PUSH2 0x2127 PUSH1 0xE DUP4 PUSH2 0x20E3 JUMP JUMPDEST SWAP2 POP PUSH2 0x2132 DUP3 PUSH2 0x20F3 JUMP JUMPDEST PUSH1 0x20 DUP3 ADD SWAP1 POP SWAP2 SWAP1 POP JUMP JUMPDEST PUSH0 PUSH1 0x20 DUP3 ADD SWAP1 POP DUP2 DUP2 SUB PUSH0 DUP4 ADD MSTORE PUSH2 0x2154 DUP2 PUSH2 0x211B JUMP JUMPDEST SWAP1 POP SWAP2 SWAP1 POP JUMP JUMPDEST PUSH32 0x57616C6C6574206973206E6F7420696E205265636F76657279206D6F64650000 PUSH0 DUP3 ADD MSTORE POP JUMP JUMPDEST PUSH0 PUSH2 0x218F PUSH1 0x1E DUP4 PUSH2 0x20E3 JUMP JUMPDEST SWAP2 POP PUSH2 0x219A DUP3 PUSH2 0x215B JUMP JUMPDEST PUSH1 0x20 DUP3 ADD SWAP1 POP SWAP2 SWAP1 POP JUMP JUMPDEST PUSH0 PUSH1 0x20 DUP3 ADD SWAP1 POP DUP2 DUP2 SUB PUSH0 DUP4 ADD MSTORE PUSH2 0x21BC DUP2 PUSH2 0x2183 JUMP JUMPDEST SWAP1 POP SWAP2 SWAP1 POP JUMP JUMPDEST PUSH0 DUP2 PUSH1 0x60 SHL SWAP1 POP SWAP2 SWAP1 POP JUMP JUMPDEST PUSH0 PUSH2 0x21D9 DUP3 PUSH2 0x21C3 JUMP JUMPDEST SWAP1 POP SWAP2 SWAP1 POP JUMP JUMPDEST PUSH0 PUSH2 0x21EA DUP3 PUSH2 0x21CF JUMP JUMPDEST SWAP1 POP SWAP2 SWAP1 POP JUMP JUMPDEST PUSH2 0x2202 PUSH2 0x21FD DUP3 PUSH2 0x1B30 JUMP JUMPDEST PUSH2 0x21E0 JUMP JUMPDEST DUP3 MSTORE POP POP JUMP JUMPDEST PUSH0 PUSH2 0x2213 DUP3 DUP5 PUSH2 0x21F1 JUMP JUMPDEST PUSH1 0x14 DUP3 ADD SWAP2 POP DUP2 SWAP1 POP SWAP3 SWAP2 POP POP JUMP JUMPDEST PUSH32 0x4F6E6C7920477561726469616E206861732061636365737320746F2074686973 PUSH0 DUP3 ADD MSTORE PUSH32 0x2072657175657374000000000000000000000000000000000000000000000000 PUSH1 0x20 DUP3 ADD MSTORE POP JUMP JUMPDEST PUSH0 PUSH2 0x227C PUSH1 0x28 DUP4 PUSH2 0x20E3 JUMP JUMPDEST SWAP2 POP PUSH2 0x2287 DUP3 PUSH2 0x2222 JUMP JUMPDEST PUSH1 0x40 DUP3 ADD SWAP1 POP SWAP2 SWAP1 POP JUMP JUMPDEST PUSH0 PUSH1 0x20 DUP3 ADD SWAP1 POP DUP2 DUP2 SUB PUSH0 DUP4 ADD MSTORE PUSH2 0x22A9 DUP2 PUSH2 0x2270 JUMP JUMPDEST SWAP1 POP SWAP2 SWAP1 POP JUMP JUMPDEST PUSH32 0x4578697374696E6720477561726469616E204368616E67652052657175657374 PUSH0 DUP3 ADD MSTORE PUSH32 0x20666F756E640000000000000000000000000000000000000000000000000000 PUSH1 0x20 DUP3 ADD MSTORE POP JUMP JUMPDEST PUSH0 PUSH2 0x230A PUSH1 0x26 DUP4 PUSH2 0x20E3 JUMP JUMPDEST SWAP2 POP PUSH2 0x2315 DUP3 PUSH2 0x22B0 JUMP JUMPDEST PUSH1 0x40 DUP3 ADD SWAP1 POP SWAP2 SWAP1 POP JUMP JUMPDEST PUSH0 PUSH1 0x20 DUP3 ADD SWAP1 POP DUP2 DUP2 SUB PUSH0 DUP4 ADD MSTORE PUSH2 0x2337 DUP2 PUSH2 0x22FE JUMP JUMPDEST SWAP1 POP SWAP2 SWAP1 POP JUMP JUMPDEST PUSH32 0x4E6F2043757272656E7420477561726469616E205265717565737420666F756E PUSH0 DUP3 ADD MSTORE PUSH32 0x6400000000000000000000000000000000000000000000000000000000000000 PUSH1 0x20 DUP3 ADD MSTORE POP JUMP JUMPDEST PUSH0 PUSH2 0x2398 PUSH1 0x21 DUP4 PUSH2 0x20E3 JUMP JUMPDEST SWAP2 POP PUSH2 0x23A3 DUP3 PUSH2 0x233E JUMP JUMPDEST PUSH1 0x40 DUP3 ADD SWAP1 POP SWAP2 SWAP1 POP JUMP JUMPDEST PUSH0 PUSH1 0x20 DUP3 ADD SWAP1 POP DUP2 DUP2 SUB PUSH0 DUP4 ADD MSTORE PUSH2 0x23C5 DUP2 PUSH2 0x238C JUMP JUMPDEST SWAP1 POP SWAP2 SWAP1 POP JUMP JUMPDEST PUSH32 0x57616C6C657420697320696E205265636F76657279206D6F6465000000000000 PUSH0 DUP3 ADD MSTORE POP JUMP JUMPDEST PUSH0 PUSH2 0x2400 PUSH1 0x1A DUP4 PUSH2 0x20E3 JUMP JUMPDEST SWAP2 POP PUSH2 0x240B DUP3 PUSH2 0x23CC JUMP JUMPDEST PUSH1 0x20 DUP3 ADD SWAP1 POP SWAP2 SWAP1 POP JUMP JUMPDEST PUSH0 PUSH1 0x20 DUP3 ADD SWAP1 POP DUP2 DUP2 SUB PUSH0 DUP4 ADD MSTORE PUSH2 0x242D DUP2 PUSH2 0x23F4 JUMP JUMPDEST SWAP1 POP SWAP2 SWAP1 POP JUMP JUMPDEST PUSH32 0x477561726469616E205265717565737420697320616C72656164792055736564 PUSH0 DUP3 ADD MSTORE POP JUMP JUMPDEST PUSH0 PUSH2 0x2468 PUSH1 0x20 DUP4 PUSH2 0x20E3 JUMP JUMPDEST SWAP2 POP PUSH2 0x2473 DUP3 PUSH2 0x2434 JUMP JUMPDEST PUSH1 0x20 DUP3 ADD SWAP1 POP SWAP2 SWAP1 POP JUMP JUMPDEST PUSH0 PUSH1 0x20 DUP3 ADD SWAP1 POP DUP2 DUP2 SUB PUSH0 DUP4 ADD MSTORE PUSH2 0x2495 DUP2 PUSH2 0x245C JUMP JUMPDEST SWAP1 POP SWAP2 SWAP1 POP JUMP JUMPDEST PUSH0 PUSH1 0x20 DUP3 ADD SWAP1 POP PUSH2 0x24AF PUSH0 DUP4 ADD DUP5 PUSH2 0x1B9F JUMP JUMPDEST SWAP3 SWAP2 POP POP JUMP JUMPDEST PUSH32 0x6D6F726520677561726469616E7320726571756972656420746F207472616E73 PUSH0 DUP3 ADD MSTORE PUSH32 0x666572206F776E65727368697000000000000000000000000000000000000000 PUSH1 0x20 DUP3 ADD MSTORE POP JUMP JUMPDEST PUSH0 PUSH2 0x250F PUSH1 0x2D DUP4 PUSH2 0x20E3 JUMP JUMPDEST SWAP2 POP PUSH2 0x251A DUP3 PUSH2 0x24B5 JUMP JUMPDEST PUSH1 0x40 DUP3 ADD SWAP1 POP SWAP2 SWAP1 POP JUMP JUMPDEST PUSH0 PUSH1 0x20 DUP3 ADD SWAP1 POP DUP2 DUP2 SUB PUSH0 DUP4 ADD MSTORE PUSH2 0x253C DUP2 PUSH2 0x2503 JUMP JUMPDEST SWAP1 POP SWAP2 SWAP1 POP JUMP JUMPDEST PUSH32 0x4E487B7100000000000000000000000000000000000000000000000000000000 PUSH0 MSTORE PUSH1 0x32 PUSH1 0x4 MSTORE PUSH1 0x24 PUSH0 REVERT JUMPDEST PUSH32 0x726F756E64206D69736D61746368000000000000000000000000000000000000 PUSH0 DUP3 ADD MSTORE POP JUMP JUMPDEST PUSH0 PUSH2 0x25A4 PUSH1 0xE DUP4 PUSH2 0x20E3 JUMP JUMPDEST SWAP2 POP PUSH2 0x25AF DUP3 PUSH2 0x2570 JUMP JUMPDEST PUSH1 0x20 DUP3 ADD SWAP1 POP SWAP2 SWAP1 POP JUMP JUMPDEST PUSH0 PUSH1 0x20 DUP3 ADD SWAP1 POP DUP2 DUP2 SUB PUSH0 DUP4 ADD MSTORE PUSH2 0x25D1 DUP2 PUSH2 0x2598 JUMP JUMPDEST SWAP1 POP SWAP2 SWAP1 POP JUMP JUMPDEST PUSH32 0x64697361677265656D656E74206F6E206E6577206F776E657200000000000000 PUSH0 DUP3 ADD MSTORE POP JUMP JUMPDEST PUSH0 PUSH2 0x260C PUSH1 0x19 DUP4 PUSH2 0x20E3 JUMP JUMPDEST SWAP2 POP PUSH2 0x2617 DUP3 PUSH2 0x25D8 JUMP JUMPDEST PUSH1 0x20 DUP3 ADD SWAP1 POP SWAP2 SWAP1 POP JUMP JUMPDEST PUSH0 PUSH1 0x20 DUP3 ADD SWAP1 POP DUP2 DUP2 SUB PUSH0 DUP4 ADD MSTORE PUSH2 0x2639 DUP2 PUSH2 0x2600 JUMP JUMPDEST SWAP1 POP SWAP2 SWAP1 POP JUMP JUMPDEST PUSH32 0x6475706C696361746520677561726469616E207573656420696E207265636F76 PUSH0 DUP3 ADD MSTORE PUSH32 0x6572790000000000000000000000000000000000000000000000000000000000 PUSH1 0x20 DUP3 ADD MSTORE POP JUMP JUMPDEST PUSH0 PUSH2 0x269A PUSH1 0x23 DUP4 PUSH2 0x20E3 JUMP JUMPDEST SWAP2 POP PUSH2 0x26A5 DUP3 PUSH2 0x2640 JUMP JUMPDEST PUSH1 0x40 DUP3 ADD SWAP1 POP SWAP2 SWAP1 POP JUMP JUMPDEST PUSH0 PUSH1 0x20 DUP3 ADD SWAP1 POP DUP2 DUP2 SUB PUSH0 DUP4 ADD MSTORE PUSH2 0x26C7 DUP2 PUSH2 0x268E JUMP JUMPDEST SWAP1 POP SWAP2 SWAP1 POP JUMP JUMPDEST PUSH32 0x4E487B7100000000000000000000000000000000000000000000000000000000 PUSH0 MSTORE PUSH1 0x11 PUSH1 0x4 MSTORE PUSH1 0x24 PUSH0 REVERT JUMPDEST PUSH0 PUSH2 0x2705 DUP3 PUSH2 0x1ACF JUMP JUMPDEST SWAP2 POP PUSH32 0xFFFFFFFFFFFFFFFFFFFFFFFFFFFFFFFFFFFFFFFFFFFFFFFFFFFFFFFFFFFFFFFF DUP3 SUB PUSH2 0x2737 JUMPI PUSH2 0x2736 PUSH2 0x26CE JUMP JUMPDEST JUMPDEST PUSH1 0x1 DUP3 ADD SWAP1 POP SWAP2 SWAP1 POP JUMP JUMPDEST PUSH0 PUSH1 0x40 DUP3 ADD SWAP1 POP PUSH2 0x2755 PUSH0 DUP4 ADD DUP6 PUSH2 0x1BFD JUMP JUMPDEST PUSH2 0x2762 PUSH1 0x20 DUP4 ADD DUP5 PUSH2 0x1BFD JUMP JUMPDEST SWAP4 SWAP3 POP POP POP JUMP JUMPDEST PUSH0 DUP2 SWAP1 POP SWAP3 SWAP2 POP POP JUMP JUMPDEST PUSH0 PUSH2 0x277D DUP3 PUSH2 0x1EE6 JUMP JUMPDEST PUSH2 0x2787 DUP2 DUP6 PUSH2 0x2769 JUMP JUMPDEST SWAP4 POP PUSH2 0x2797 DUP2 DUP6 PUSH1 0x20 DUP7 ADD PUSH2 0x1F00 JUMP JUMPDEST DUP1 DUP5 ADD SWAP2 POP POP SWAP3 SWAP2 POP POP JUMP JUMPDEST PUSH0 PUSH2 0x27AE DUP3 DUP5 PUSH2 0x2773 JUMP JUMPDEST SWAP2 POP DUP2 SWAP1 POP SWAP3 SWAP2 POP POP JUMP JUMPDEST PUSH32 0x436F6E74726163742043616C6C20526576657274656400000000000000000000 PUSH0 DUP3 ADD MSTORE POP JUMP JUMPDEST PUSH0 PUSH2 0x27ED PUSH1 0x16 DUP4 PUSH2 0x20E3 JUMP JUMPDEST SWAP2 POP PUSH2 0x27F8 DUP3 PUSH2 0x27B9 JUMP JUMPDEST PUSH1 0x20 DUP3 ADD SWAP1 POP SWAP2 SWAP1 POP JUMP JUMPDEST PUSH0 PUSH1 0x20 DUP3 ADD SWAP1 POP DUP2 DUP2 SUB PUSH0 DUP4 ADD MSTORE PUSH2 0x281A DUP2 PUSH2 0x27E1 JUMP JUMPDEST SWAP1 POP SWAP2 SWAP1 POP JUMP JUMPDEST PUSH0 PUSH1 0x40 DUP3 ADD SWAP1 POP PUSH2 0x2834 PUSH0 DUP4 ADD DUP6 PUSH2 0x1AD8 JUMP JUMPDEST DUP2 DUP2 SUB PUSH1 0x20 DUP4 ADD MSTORE PUSH2 0x2846 DUP2 DUP5 PUSH2 0x1F28 JUMP JUMPDEST SWAP1 POP SWAP4 SWAP3 POP POP POP JUMP JUMPDEST PUSH32 0x6E6F74206120677561726469616E000000000000000000000000000000000000 PUSH0 DUP3 ADD MSTORE POP JUMP JUMPDEST PUSH0 PUSH2 0x2883 PUSH1 0xE DUP4 PUSH2 0x20E3 JUMP JUMPDEST SWAP2 POP PUSH2 0x288E DUP3 PUSH2 0x284F JUMP JUMPDEST PUSH1 0x20 DUP3 ADD SWAP1 POP SWAP2 SWAP1 POP JUMP JUMPDEST PUSH0 PUSH1 0x20 DUP3 ADD SWAP1 POP DUP2 DUP2 SUB PUSH0 DUP4 ADD MSTORE PUSH2 0x28B0 DUP2 PUSH2 0x2877 JUMP JUMPDEST SWAP1 POP SWAP2 SWAP1 POP JUMP INVALID LOG2 PUSH5 0x6970667358 0x22 SLT KECCAK256 XOR 0xAD SELFDESTRUCT 0xD3 0xA7 JUMPI PUSH3 0x2B2ACC 0xBC BYTE 0x4A SMOD SAR SGT 0x23 CODECOPY 0x1F EQ 0x2F SELFDESTRUCT 0xD JUMPDEST 0x21 0xB2 DUP13 0xF8 EXTCODECOPY 0x21 0xEA 0x22 PUSH5 0x736F6C6343 STOP ADDMOD EQ STOP CALLER "
				},
				"gasEstimates": {
					"creation": {
						"codeDepositCost": "2095400",
						"executionCost": "infinite",
						"totalCost": "infinite"
					},
					"external": {
						"cancelGuardianshipTransfer()": "32288",
						"cancelRecovery()": "32466",
						"currRecoveryRound()": "2536",
						"executeGuardianRemoval(bytes32,uint256)": "52681",
						"executeGuardianshipTransfer(address)": "88192",
						"executeRecovery(address,address[])": "infinite",
						"executeTx(address,uint256,bytes)": "infinite",
						"getBalance()": "380",
						"guardianChangeRequest(address)": "infinite",
						"guardianRecoveryRequest(address)": "infinite",
						"inGuardianRequest()": "2540",
						"inRecovery()": "2576",
						"initiateRecovery(address)": "infinite",
						"isGuardian(bytes32)": "2829",
						"owner()": "2597",
						"revealGuardianIdentity()": "infinite",
						"supportRecovery(address)": "infinite",
						"threshold()": "2537",
						"transfer(address,uint256)": "infinite",
						"transferGuardianship(bytes32,bytes32)": "infinite"
					}
				},
				"methodIdentifiers": {
					"cancelGuardianshipTransfer()": "a7b65d10",
					"cancelRecovery()": "0ba234d6",
					"currRecoveryRound()": "ace7c993",
					"executeGuardianRemoval(bytes32,uint256)": "b6547cb5",
					"executeGuardianshipTransfer(address)": "5db0db7c",
					"executeRecovery(address,address[])": "5fc489a7",
					"executeTx(address,uint256,bytes)": "912365ea",
					"getBalance()": "12065fe0",
					"guardianChangeRequest(address)": "1e969523",
					"guardianRecoveryRequest(address)": "371bbdc1",
					"inGuardianRequest()": "a643e812",
					"inRecovery()": "f05151df",
					"initiateRecovery(address)": "d5ce9aad",
					"isGuardian(bytes32)": "c42fe50a",
					"owner()": "8da5cb5b",
					"revealGuardianIdentity()": "a774f412",
					"supportRecovery(address)": "57e685bc",
					"threshold()": "42cde4e8",
					"transfer(address,uint256)": "a9059cbb",
					"transferGuardianship(bytes32,bytes32)": "c622b2dc"
				}
			},
			"storageLayout": {
				"storage": [
					{
						"astId": 655,
						"contract": "contracts/BanklessWallet.sol:BanklessWallet",
						"label": "_status",
						"offset": 0,
						"slot": "0",
						"type": "t_uint256"
					},
					{
						"astId": 6,
						"contract": "contracts/BanklessWallet.sol:BanklessWallet",
						"label": "owner",
						"offset": 0,
						"slot": "1",
						"type": "t_address"
					},
					{
						"astId": 8,
						"contract": "contracts/BanklessWallet.sol:BanklessWallet",
						"label": "threshold",
						"offset": 0,
						"slot": "2",
						"type": "t_uint256"
					},
					{
						"astId": 12,
						"contract": "contracts/BanklessWallet.sol:BanklessWallet",
						"label": "isGuardian",
						"offset": 0,
						"slot": "3",
						"type": "t_mapping(t_bytes32,t_bool)"
					},
					{
						"astId": 14,
						"contract": "contracts/BanklessWallet.sol:BanklessWallet",
						"label": "inRecovery",
						"offset": 0,
						"slot": "4",
						"type": "t_bool"
					},
					{
						"astId": 16,
						"contract": "contracts/BanklessWallet.sol:BanklessWallet",
						"label": "inGuardianRequest",
						"offset": 1,
						"slot": "4",
						"type": "t_bool"
					},
					{
						"astId": 18,
						"contract": "contracts/BanklessWallet.sol:BanklessWallet",
						"label": "currRecoveryRound",
						"offset": 0,
						"slot": "5",
						"type": "t_uint256"
					},
					{
						"astId": 30,
						"contract": "contracts/BanklessWallet.sol:BanklessWallet",
						"label": "guardianRecoveryRequest",
						"offset": 0,
						"slot": "6",
						"type": "t_mapping(t_address,t_struct(RecoveryRequest)25_storage)"
					},
					{
						"astId": 42,
						"contract": "contracts/BanklessWallet.sol:BanklessWallet",
						"label": "guardianChangeRequest",
						"offset": 0,
						"slot": "7",
						"type": "t_mapping(t_address,t_struct(GuardianRequest)37_storage)"
					}
				],
				"types": {
					"t_address": {
						"encoding": "inplace",
						"label": "address",
						"numberOfBytes": "20"
					},
					"t_bool": {
						"encoding": "inplace",
						"label": "bool",
						"numberOfBytes": "1"
					},
					"t_bytes32": {
						"encoding": "inplace",
						"label": "bytes32",
						"numberOfBytes": "32"
					},
					"t_mapping(t_address,t_struct(GuardianRequest)37_storage)": {
						"encoding": "mapping",
						"key": "t_address",
						"label": "mapping(address => struct BanklessWallet.GuardianRequest)",
						"numberOfBytes": "32",
						"value": "t_struct(GuardianRequest)37_storage"
					},
					"t_mapping(t_address,t_struct(RecoveryRequest)25_storage)": {
						"encoding": "mapping",
						"key": "t_address",
						"label": "mapping(address => struct BanklessWallet.RecoveryRequest)",
						"numberOfBytes": "32",
						"value": "t_struct(RecoveryRequest)25_storage"
					},
					"t_mapping(t_bytes32,t_bool)": {
						"encoding": "mapping",
						"key": "t_bytes32",
						"label": "mapping(bytes32 => bool)",
						"numberOfBytes": "32",
						"value": "t_bool"
					},
					"t_struct(GuardianRequest)37_storage": {
						"encoding": "inplace",
						"label": "struct BanklessWallet.GuardianRequest",
						"members": [
							{
								"astId": 32,
								"contract": "contracts/BanklessWallet.sol:BanklessWallet",
								"label": "proposedGuardian",
								"offset": 0,
								"slot": "0",
								"type": "t_bytes32"
							},
							{
								"astId": 34,
								"contract": "contracts/BanklessWallet.sol:BanklessWallet",
								"label": "guardianToChange",
								"offset": 0,
								"slot": "1",
								"type": "t_bytes32"
							},
							{
								"astId": 36,
								"contract": "contracts/BanklessWallet.sol:BanklessWallet",
								"label": "isUsed",
								"offset": 0,
								"slot": "2",
								"type": "t_bool"
							}
						],
						"numberOfBytes": "96"
					},
					"t_struct(RecoveryRequest)25_storage": {
						"encoding": "inplace",
						"label": "struct BanklessWallet.RecoveryRequest",
						"members": [
							{
								"astId": 20,
								"contract": "contracts/BanklessWallet.sol:BanklessWallet",
								"label": "proposedOwner",
								"offset": 0,
								"slot": "0",
								"type": "t_address"
							},
							{
								"astId": 22,
								"contract": "contracts/BanklessWallet.sol:BanklessWallet",
								"label": "recoveryRound",
								"offset": 0,
								"slot": "1",
								"type": "t_uint256"
							},
							{
								"astId": 24,
								"contract": "contracts/BanklessWallet.sol:BanklessWallet",
								"label": "isUsed",
								"offset": 0,
								"slot": "2",
								"type": "t_bool"
							}
						],
						"numberOfBytes": "96"
					},
					"t_uint256": {
						"encoding": "inplace",
						"label": "uint256",
						"numberOfBytes": "32"
					}
				}
			},
			"userdoc": {
				"kind": "user",
				"methods": {},
				"version": 1
			}
		}
	}
}