{
	"data": {
		"bytecode": {
			"linkReferences": {},
			"object": "608060405262eff10060085534801562000017575f80fd5b5060405162001dec38038062001dec8339810160408190526200003a916200024c565b60015f558151811115620000955760405162461bcd60e51b815260206004820152601560248201527f5468726573686f6c6420697320746f6f2068696768000000000000000000000060448201526064015b60405180910390fd5b5f5b8251811015620001df5760035f848381518110620000b957620000b962000338565b6020908102919091018101516001600160a01b031682528101919091526040015f205460ff16156200012e5760405162461bcd60e51b815260206004820152601860248201527f4475706c696361746520477561726469616e20466f756e64000000000000000060448201526064016200008c565b600160035f85848151811062000148576200014862000338565b60200260200101516001600160a01b03166001600160a01b031681526020019081526020015f205f6101000a81548160ff0219169083151502179055504260095f8584815181106200019e576200019e62000338565b60200260200101516001600160a01b03166001600160a01b031681526020019081526020015f20819055508080620001d6906200034c565b91505062000097565b5060048054336001600160a01b031991821617909155600291909155600180549091166001600160a01b0393909316929092179091555062000371565b80516001600160a01b038116811462000233575f80fd5b919050565b634e487b7160e01b5f52604160045260245ffd5b5f805f606084860312156200025f575f80fd5b6200026a846200021c565b602085810151919450906001600160401b038082111562000289575f80fd5b818701915087601f8301126200029d575f80fd5b815181811115620002b257620002b262000238565b8060051b604051601f19603f83011681018181108582111715620002da57620002da62000238565b60405291825284820192508381018501918a831115620002f8575f80fd5b938501935b82851015620003215762000311856200021c565b84529385019392850192620002fd565b809750505050505050604084015190509250925092565b634e487b7160e01b5f52603260045260245ffd5b5f600182016200036a57634e487b7160e01b5f52601160045260245ffd5b5060010190565b611a6d806200037f5f395ff3fe608060405234801561000f575f80fd5b506004361061016d575f3560e01c80638da5cb5b116100d9578063ace7c99311610093578063d5ce9aad1161006e578063d5ce9aad146103b9578063ec71511d146103cc578063f05151df146103df578063fad2286b146103f3575f80fd5b8063ace7c9931461037e578063cfbba19014610387578063d3582164146103a6575f80fd5b80638da5cb5b146102f1578063912365ea1461031c578063a526d83b1461033c578063a643e8121461034f578063a7b65d1014610363578063a9059cbb1461036b575f80fd5b80634a062ba91161012a5780634a062ba91461029457806357e685bc1461029c5780635db0db7c146102af5780635fc489a7146102c25780635fc7f48b146102d557806389302f0e146102e8575f80fd5b80630ba234d6146101715780630c68ba211461017b57806312065fe0146101b25780631e969523146101c2578063371bbdc11461022957806342cde4e81461028b575b5f80fd5b610179610406565b005b61019d610189366004611583565b60036020525f908152604090205460ff1681565b60405190151581526020015b60405180910390f35b475b6040519081526020016101a9565b6102016101d0366004611583565b60076020525f9081526040902080546001909101546001600160a01b0391821691811690600160a01b900460ff1683565b604080516001600160a01b0394851681529390921660208401521515908201526060016101a9565b610264610237366004611583565b60066020525f90815260409020805460018201546002909201546001600160a01b03909116919060ff1683565b604080516001600160a01b03909416845260208401929092521515908201526060016101a9565b6101b460025481565b6101796104a7565b6101796102aa366004611583565b610562565b6101796102bd366004611583565b61068e565b6101796102d03660046115e6565b610853565b6101796102e3366004611637565b610bad565b6101b460085481565b600154610304906001600160a01b031681565b6040516001600160a01b0390911681526020016101a9565b61032f61032a36600461168a565b610d2c565b6040516101a9919061179d565b61017961034a366004611583565b610e5c565b60045461019d90600160a81b900460ff1681565b610179610f3f565b6101796103793660046117af565b610ffe565b6101b460055481565b6101b4610395366004611583565b60096020525f908152604090205481565b6101796103b43660046117d9565b611097565b6101796103c7366004611583565b6111d9565b6101796103da366004611810565b611328565b60045461019d90600160a01b900460ff1681565b610179610401366004611810565b61142d565b6001546001600160a01b031633146104395760405162461bcd60e51b815260040161043090611827565b60405180910390fd5b600454600160a01b900460ff166104625760405162461bcd60e51b81526004016104309061184f565b6004805460ff60a01b191690556005546040513381527f500ec1d4b692d3c788bfd78a898de379cfd93ab8177575efc7593f87bd051a079060200160405180910390a2565b335f9081526003602052604090205460ff166104d55760405162461bcd60e51b815260040161043090611886565b600454600160a81b900460ff16156104ff5760405162461bcd60e51b8152600401610430906118ce565b600454600160a01b900460ff16156105295760405162461bcd60e51b815260040161043090611914565b335f81815260096020526040808220429055517fc0f8e327cbaf33736bc91ff2966a92a84350e4433a9ba309da8f43e6f4a0852c9190a2565b335f9081526003602052604090205460ff166105905760405162461bcd60e51b815260040161043090611886565b600454600160a01b900460ff166105b95760405162461bcd60e51b81526004016104309061184f565b600454600160a81b900460ff16156105e35760405162461bcd60e51b8152600401610430906118ce565b604080516060810182526001600160a01b038381168083526005805460208086019182525f8688018181523380835260068452898320985189546001600160a01b03191698169790971788559251600188015591516002909601805460ff1916961515969096179095556009855285902042905554935190815290917f7a0b940199ff58e943823fe8c0e916df112be357049d8105a7e83cf9a4000e4a91015b60405180910390a350565b6001546001600160a01b031633146106b85760405162461bcd60e51b815260040161043090611827565b600454600160a81b900460ff166106e15760405162461bcd60e51b81526004016104309061194b565b600454600160a01b900460ff161561070b5760405162461bcd60e51b815260040161043090611914565b6001600160a01b038181165f90815260076020908152604091829020825160608101845281548516815260019091015493841691810191909152600160a01b90920460ff16158015918301919091526107a65760405162461bcd60e51b815260206004820181905260248201527f477561726469616e205265717565737420697320616c726561647920557365646044820152606401610430565b80516001600160a01b039081165f908152600360209081526040808320805460ff19908116600190811790925583870180518716865283862080549092169091558786168552600784529382902001805460ff60a01b1916600160a01b1790556004805460ff60a81b19169055845192519051908416815291909216917f0ebe47b4a5aef1696896716abe65c590c720b0cd9572a7e2dcb0a9bfe2b2ca7f91015b60405180910390a25050565b335f9081526003602052604090205460ff166108815760405162461bcd60e51b815260040161043090611886565b600454600160a01b900460ff166108aa5760405162461bcd60e51b81526004016104309061184f565b600454600160a81b900460ff16156108d45760405162461bcd60e51b8152600401610430906118ce565b60025481101561093c5760405162461bcd60e51b815260206004820152602d60248201527f6d6f726520677561726469616e7320726571756972656420746f207472616e7360448201526c0666572206f776e65727368697609c1b6064820152608401610430565b5f5b81811015610b27575f60065f85858581811061095c5761095c61198c565b90506020020160208101906109719190611583565b6001600160a01b03908116825260208083019390935260409182015f2082516060810184528154909216825260018101549382018490526002015460ff16151591810191909152600554909250146109fc5760405162461bcd60e51b815260206004820152600e60248201526d0e4deeadcc840dad2e6dac2e8c6d60931b6044820152606401610430565b846001600160a01b0316815f01516001600160a01b031614610a605760405162461bcd60e51b815260206004820152601960248201527f64697361677265656d656e74206f6e206e6577206f776e6572000000000000006044820152606401610430565b806040015115610abe5760405162461bcd60e51b815260206004820152602360248201527f6475706c696361746520677561726469616e207573656420696e207265636f7660448201526265727960e81b6064820152608401610430565b600160065f868686818110610ad557610ad561198c565b9050602002016020810190610aea9190611583565b6001600160a01b0316815260208101919091526040015f20600201805460ff19169115159190911790555080610b1f816119b4565b91505061093e565b506004805460ff60a01b19169055600180546001600160a01b038581166001600160a01b031983168117909355335f90815260096020908152604091829020429055600554825193909416808452908301949094527fcbaa7c7c351e2d5655fc08d9c383adcf4736af160c800b53df1f1dd221f826c8910160405180910390a250505050565b6001546001600160a01b03163314610bd75760405162461bcd60e51b815260040161043090611827565b600454600160a81b900460ff1615610c015760405162461bcd60e51b8152600401610430906118ce565b600454600160a01b900460ff1615610c2b5760405162461bcd60e51b815260040161043090611914565b5f5b81811015610cfd575f60095f858585818110610c4b57610c4b61198c565b9050602002016020810190610c609190611583565b6001600160a01b03166001600160a01b031681526020019081526020015f205490504260085482610c9191906119cc565b1015610cea575f60035f868686818110610cad57610cad61198c565b9050602002016020810190610cc29190611583565b6001600160a01b0316815260208101919091526040015f20805460ff19169115159190911790555b5080610cf5816119b4565b915050610c2d565b5060405133907f4c3633ad0e1a50f8c16e1ad83c223c9e97efa102e90b03c3a0b10a7726f58656905f90a25050565b6001546060906001600160a01b03163314610d595760405162461bcd60e51b815260040161043090611827565b610d61611544565b5f80856001600160a01b03168585604051610d7c91906119e5565b5f6040518083038185875af1925050503d805f8114610db6576040519150601f19603f3d011682016040523d82523d5f602084013e610dbb565b606091505b509150915081610e065760405162461bcd60e51b815260206004820152601660248201527510dbdb9d1c9858dd0810d85b1b0814995d995c9d195960521b6044820152606401610430565b856001600160a01b03167f47d99ad340f52da66535aff7e10da1ceb85a32bcbd9fa1c42314d194545e14d28686604051610e41929190611a00565b60405180910390a2915050610e5560015f55565b9392505050565b6001546001600160a01b03163314610e865760405162461bcd60e51b815260040161043090611827565b600454600160a81b900460ff1615610eb05760405162461bcd60e51b8152600401610430906118ce565b600454600160a01b900460ff1615610eda5760405162461bcd60e51b815260040161043090611914565b6001600160a01b0381165f818152600360209081526040808320805460ff191660011790556009825291829020429055905191825233917fbc3292102fa77e083913064b282926717cdfaede4d35f553d66366c0a3da755a910160405180910390a250565b6001546001600160a01b03163314610f695760405162461bcd60e51b815260040161043090611827565b600454600160a81b900460ff16610f925760405162461bcd60e51b81526004016104309061194b565b600454600160a01b900460ff1615610fbc5760405162461bcd60e51b815260040161043090611914565b6004805460ff60a81b191690556040513381527fd57d294d41d7cb0f642228c3aa8884365982694afcfa206c635fd368dfa4479c9060200160405180910390a1565b6001546001600160a01b031633146110285760405162461bcd60e51b815260040161043090611827565b6040516001600160a01b0383169082156108fc029083905f818181858888f1935050505015801561105b573d5f803e3d5ffd5b50816001600160a01b03167fe6d858f14d755446648a6e0c8ab8b5a0f58ccc7920d4c910b0454e4dcd869af08260405161084791815260200190565b335f9081526003602052604090205460ff166110c55760405162461bcd60e51b815260040161043090611886565b600454600160a81b900460ff16156110ef5760405162461bcd60e51b8152600401610430906118ce565b600454600160a01b900460ff16156111195760405162461bcd60e51b815260040161043090611914565b604080516060810182526001600160a01b0383811680835285821660208085018281525f86880181815233825260078452888220975188549088166001600160a01b031990911617885591516001909701805492511515600160a01b026001600160a81b03199093169790961696909617179093556004805460ff60a81b1916600160a81b179055600983529284902042905592519182527fd940885aa266e9a19341bba634f831bde68d4d3009e14f239e32bed8dd9e4b549101610847565b335f9081526003602052604090205460ff166112075760405162461bcd60e51b815260040161043090611886565b600454600160a01b900460ff16156112315760405162461bcd60e51b815260040161043090611914565b600454600160a81b900460ff161561125b5760405162461bcd60e51b8152600401610430906118ce565b60058054905f61126a836119b4565b9091555050604080516060810182526001600160a01b038381168083526005805460208086019182525f8688018181523380835260068452898320985189546001600160a01b03191698169790971788559251600188015591516002909601805460ff19169615159690961790955560048054600160a01b60ff60a01b199091161790556009855285902042905554935190815290917fe290ea2cc3cfeb5114f992dc8be9e503de30042c13b9298644a2679b09e17a049101610683565b6001546001600160a01b031633146113525760405162461bcd60e51b815260040161043090611827565b600454600160a81b900460ff161561137c5760405162461bcd60e51b8152600401610430906118ce565b600454600160a01b900460ff16156113a65760405162461bcd60e51b815260040161043090611914565b600160025410156113f95760405162461bcd60e51b815260206004820181905260248201527f5468726573686f6c64206d7573742062652067726561746572207468616e20316044820152606401610430565b6002819055604051819033907fbb0549e0aedb1fcc6a27d802df340bb4bd5dc53b1f97f3736a879345232e6def905f90a350565b6001546001600160a01b031633146114575760405162461bcd60e51b815260040161043090611827565b600454600160a81b900460ff16156114815760405162461bcd60e51b8152600401610430906118ce565b600454600160a01b900460ff16156114ab5760405162461bcd60e51b815260040161043090611914565b60078110156115075760405162461bcd60e51b815260206004820152602260248201527f4d696e696d756d206461797320746f206578656375746520636865636b206973604482015261203760f01b6064820152608401610430565b6115148162015180611a20565b60085560405133907f53568dbe9b6f3ab514ab5e002f95d314943e692740912338ce95f2b2458fe4a6905f90a250565b60025f540361156657604051633ee5aeb560e01b815260040160405180910390fd5b60025f55565b6001600160a01b0381168114611580575f80fd5b50565b5f60208284031215611593575f80fd5b8135610e558161156c565b5f8083601f8401126115ae575f80fd5b50813567ffffffffffffffff8111156115c5575f80fd5b6020830191508360208260051b85010111156115df575f80fd5b9250929050565b5f805f604084860312156115f8575f80fd5b83356116038161156c565b9250602084013567ffffffffffffffff81111561161e575f80fd5b61162a8682870161159e565b9497909650939450505050565b5f8060208385031215611648575f80fd5b823567ffffffffffffffff81111561165e575f80fd5b61166a8582860161159e565b90969095509350505050565b634e487b7160e01b5f52604160045260245ffd5b5f805f6060848603121561169c575f80fd5b83356116a78161156c565b925060208401359150604084013567ffffffffffffffff808211156116ca575f80fd5b818601915086601f8301126116dd575f80fd5b8135818111156116ef576116ef611676565b604051601f8201601f19908116603f0116810190838211818310171561171757611717611676565b8160405282815289602084870101111561172f575f80fd5b826020860160208301375f6020848301015280955050505050509250925092565b5f5b8381101561176a578181015183820152602001611752565b50505f910152565b5f8151808452611789816020860160208601611750565b601f01601f19169290920160200192915050565b602081525f610e556020830184611772565b5f80604083850312156117c0575f80fd5b82356117cb8161156c565b946020939093013593505050565b5f80604083850312156117ea575f80fd5b82356117f58161156c565b915060208301356118058161156c565b809150509250929050565b5f60208284031215611820575f80fd5b5035919050565b6020808252600e908201526d139bdd08105d5d1a1bdc9a5e995960921b604082015260600190565b6020808252601e908201527f57616c6c6574206973206e6f7420696e205265636f76657279206d6f64650000604082015260600190565b60208082526028908201527f4f6e6c7920477561726469616e206861732061636365737320746f2074686973604082015267081c995c5d595cdd60c21b606082015260800190565b60208082526026908201527f4578697374696e6720477561726469616e204368616e6765205265717565737460408201526508199bdd5b9960d21b606082015260800190565b6020808252601a908201527f57616c6c657420697320696e205265636f76657279206d6f6465000000000000604082015260600190565b60208082526021908201527f4e6f2043757272656e7420477561726469616e205265717565737420666f756e6040820152601960fa1b606082015260800190565b634e487b7160e01b5f52603260045260245ffd5b634e487b7160e01b5f52601160045260245ffd5b5f600182016119c5576119c56119a0565b5060010190565b808201808211156119df576119df6119a0565b92915050565b5f82516119f6818460208701611750565b9190910192915050565b828152604060208201525f611a186040830184611772565b949350505050565b80820281158282048414176119df576119df6119a056fea2646970667358221220edeb90e8708f5e41e719d9953057463a42d440c1223347630bf22c683c601ccb64736f6c63430008140033",
			"opcodes": "PUSH1 0x80 PUSH1 0x40 MSTORE PUSH3 0xEFF100 PUSH1 0x8 SSTORE CALLVALUE DUP1 ISZERO PUSH3 0x17 JUMPI PUSH0 DUP1 REVERT JUMPDEST POP PUSH1 0x40 MLOAD PUSH3 0x1DEC CODESIZE SUB DUP1 PUSH3 0x1DEC DUP4 CODECOPY DUP2 ADD PUSH1 0x40 DUP2 SWAP1 MSTORE PUSH3 0x3A SWAP2 PUSH3 0x24C JUMP JUMPDEST PUSH1 0x1 PUSH0 SSTORE DUP2 MLOAD DUP2 GT ISZERO PUSH3 0x95 JUMPI PUSH1 0x40 MLOAD PUSH3 0x461BCD PUSH1 0xE5 SHL DUP2 MSTORE PUSH1 0x20 PUSH1 0x4 DUP3 ADD MSTORE PUSH1 0x15 PUSH1 0x24 DUP3 ADD MSTORE PUSH32 0x5468726573686F6C6420697320746F6F20686967680000000000000000000000 PUSH1 0x44 DUP3 ADD MSTORE PUSH1 0x64 ADD JUMPDEST PUSH1 0x40 MLOAD DUP1 SWAP2 SUB SWAP1 REVERT JUMPDEST PUSH0 JUMPDEST DUP3 MLOAD DUP2 LT ISZERO PUSH3 0x1DF JUMPI PUSH1 0x3 PUSH0 DUP5 DUP4 DUP2 MLOAD DUP2 LT PUSH3 0xB9 JUMPI PUSH3 0xB9 PUSH3 0x338 JUMP JUMPDEST PUSH1 0x20 SWAP1 DUP2 MUL SWAP2 SWAP1 SWAP2 ADD DUP2 ADD MLOAD PUSH1 0x1 PUSH1 0x1 PUSH1 0xA0 SHL SUB AND DUP3 MSTORE DUP2 ADD SWAP2 SWAP1 SWAP2 MSTORE PUSH1 0x40 ADD PUSH0 KECCAK256 SLOAD PUSH1 0xFF AND ISZERO PUSH3 0x12E JUMPI PUSH1 0x40 MLOAD PUSH3 0x461BCD PUSH1 0xE5 SHL DUP2 MSTORE PUSH1 0x20 PUSH1 0x4 DUP3 ADD MSTORE PUSH1 0x18 PUSH1 0x24 DUP3 ADD MSTORE PUSH32 0x4475706C696361746520477561726469616E20466F756E640000000000000000 PUSH1 0x44 DUP3 ADD MSTORE PUSH1 0x64 ADD PUSH3 0x8C JUMP JUMPDEST PUSH1 0x1 PUSH1 0x3 PUSH0 DUP6 DUP5 DUP2 MLOAD DUP2 LT PUSH3 0x148 JUMPI PUSH3 0x148 PUSH3 0x338 JUMP JUMPDEST PUSH1 0x20 MUL PUSH1 0x20 ADD ADD MLOAD PUSH1 0x1 PUSH1 0x1 PUSH1 0xA0 SHL SUB AND PUSH1 0x1 PUSH1 0x1 PUSH1 0xA0 SHL SUB AND DUP2 MSTORE PUSH1 0x20 ADD SWAP1 DUP2 MSTORE PUSH1 0x20 ADD PUSH0 KECCAK256 PUSH0 PUSH2 0x100 EXP DUP2 SLOAD DUP2 PUSH1 0xFF MUL NOT AND SWAP1 DUP4 ISZERO ISZERO MUL OR SWAP1 SSTORE POP TIMESTAMP PUSH1 0x9 PUSH0 DUP6 DUP5 DUP2 MLOAD DUP2 LT PUSH3 0x19E JUMPI PUSH3 0x19E PUSH3 0x338 JUMP JUMPDEST PUSH1 0x20 MUL PUSH1 0x20 ADD ADD MLOAD PUSH1 0x1 PUSH1 0x1 PUSH1 0xA0 SHL SUB AND PUSH1 0x1 PUSH1 0x1 PUSH1 0xA0 SHL SUB AND DUP2 MSTORE PUSH1 0x20 ADD SWAP1 DUP2 MSTORE PUSH1 0x20 ADD PUSH0 KECCAK256 DUP2 SWAP1 SSTORE POP DUP1 DUP1 PUSH3 0x1D6 SWAP1 PUSH3 0x34C JUMP JUMPDEST SWAP2 POP POP PUSH3 0x97 JUMP JUMPDEST POP PUSH1 0x4 DUP1 SLOAD CALLER PUSH1 0x1 PUSH1 0x1 PUSH1 0xA0 SHL SUB NOT SWAP2 DUP3 AND OR SWAP1 SWAP2 SSTORE PUSH1 0x2 SWAP2 SWAP1 SWAP2 SSTORE PUSH1 0x1 DUP1 SLOAD SWAP1 SWAP2 AND PUSH1 0x1 PUSH1 0x1 PUSH1 0xA0 SHL SUB SWAP4 SWAP1 SWAP4 AND SWAP3 SWAP1 SWAP3 OR SWAP1 SWAP2 SSTORE POP PUSH3 0x371 JUMP JUMPDEST DUP1 MLOAD PUSH1 0x1 PUSH1 0x1 PUSH1 0xA0 SHL SUB DUP2 AND DUP2 EQ PUSH3 0x233 JUMPI PUSH0 DUP1 REVERT JUMPDEST SWAP2 SWAP1 POP JUMP JUMPDEST PUSH4 0x4E487B71 PUSH1 0xE0 SHL PUSH0 MSTORE PUSH1 0x41 PUSH1 0x4 MSTORE PUSH1 0x24 PUSH0 REVERT JUMPDEST PUSH0 DUP1 PUSH0 PUSH1 0x60 DUP5 DUP7 SUB SLT ISZERO PUSH3 0x25F JUMPI PUSH0 DUP1 REVERT JUMPDEST PUSH3 0x26A DUP5 PUSH3 0x21C JUMP JUMPDEST PUSH1 0x20 DUP6 DUP2 ADD MLOAD SWAP2 SWAP5 POP SWAP1 PUSH1 0x1 PUSH1 0x1 PUSH1 0x40 SHL SUB DUP1 DUP3 GT ISZERO PUSH3 0x289 JUMPI PUSH0 DUP1 REVERT JUMPDEST DUP2 DUP8 ADD SWAP2 POP DUP8 PUSH1 0x1F DUP4 ADD SLT PUSH3 0x29D JUMPI PUSH0 DUP1 REVERT JUMPDEST DUP2 MLOAD DUP2 DUP2 GT ISZERO PUSH3 0x2B2 JUMPI PUSH3 0x2B2 PUSH3 0x238 JUMP JUMPDEST DUP1 PUSH1 0x5 SHL PUSH1 0x40 MLOAD PUSH1 0x1F NOT PUSH1 0x3F DUP4 ADD AND DUP2 ADD DUP2 DUP2 LT DUP6 DUP3 GT OR ISZERO PUSH3 0x2DA JUMPI PUSH3 0x2DA PUSH3 0x238 JUMP JUMPDEST PUSH1 0x40 MSTORE SWAP2 DUP3 MSTORE DUP5 DUP3 ADD SWAP3 POP DUP4 DUP2 ADD DUP6 ADD SWAP2 DUP11 DUP4 GT ISZERO PUSH3 0x2F8 JUMPI PUSH0 DUP1 REVERT JUMPDEST SWAP4 DUP6 ADD SWAP4 JUMPDEST DUP3 DUP6 LT ISZERO PUSH3 0x321 JUMPI PUSH3 0x311 DUP6 PUSH3 0x21C JUMP JUMPDEST DUP5 MSTORE SWAP4 DUP6 ADD SWAP4 SWAP3 DUP6 ADD SWAP3 PUSH3 0x2FD JUMP JUMPDEST DUP1 SWAP8 POP POP POP POP POP POP POP PUSH1 0x40 DUP5 ADD MLOAD SWAP1 POP SWAP3 POP SWAP3 POP SWAP3 JUMP JUMPDEST PUSH4 0x4E487B71 PUSH1 0xE0 SHL PUSH0 MSTORE PUSH1 0x32 PUSH1 0x4 MSTORE PUSH1 0x24 PUSH0 REVERT JUMPDEST PUSH0 PUSH1 0x1 DUP3 ADD PUSH3 0x36A JUMPI PUSH4 0x4E487B71 PUSH1 0xE0 SHL PUSH0 MSTORE PUSH1 0x11 PUSH1 0x4 MSTORE PUSH1 0x24 PUSH0 REVERT JUMPDEST POP PUSH1 0x1 ADD SWAP1 JUMP JUMPDEST PUSH2 0x1A6D DUP1 PUSH3 0x37F PUSH0 CODECOPY PUSH0 RETURN INVALID PUSH1 0x80 PUSH1 0x40 MSTORE CALLVALUE DUP1 ISZERO PUSH2 0xF JUMPI PUSH0 DUP1 REVERT JUMPDEST POP PUSH1 0x4 CALLDATASIZE LT PUSH2 0x16D JUMPI PUSH0 CALLDATALOAD PUSH1 0xE0 SHR DUP1 PUSH4 0x8DA5CB5B GT PUSH2 0xD9 JUMPI DUP1 PUSH4 0xACE7C993 GT PUSH2 0x93 JUMPI DUP1 PUSH4 0xD5CE9AAD GT PUSH2 0x6E JUMPI DUP1 PUSH4 0xD5CE9AAD EQ PUSH2 0x3B9 JUMPI DUP1 PUSH4 0xEC71511D EQ PUSH2 0x3CC JUMPI DUP1 PUSH4 0xF05151DF EQ PUSH2 0x3DF JUMPI DUP1 PUSH4 0xFAD2286B EQ PUSH2 0x3F3 JUMPI PUSH0 DUP1 REVERT JUMPDEST DUP1 PUSH4 0xACE7C993 EQ PUSH2 0x37E JUMPI DUP1 PUSH4 0xCFBBA190 EQ PUSH2 0x387 JUMPI DUP1 PUSH4 0xD3582164 EQ PUSH2 0x3A6 JUMPI PUSH0 DUP1 REVERT JUMPDEST DUP1 PUSH4 0x8DA5CB5B EQ PUSH2 0x2F1 JUMPI DUP1 PUSH4 0x912365EA EQ PUSH2 0x31C JUMPI DUP1 PUSH4 0xA526D83B EQ PUSH2 0x33C JUMPI DUP1 PUSH4 0xA643E812 EQ PUSH2 0x34F JUMPI DUP1 PUSH4 0xA7B65D10 EQ PUSH2 0x363 JUMPI DUP1 PUSH4 0xA9059CBB EQ PUSH2 0x36B JUMPI PUSH0 DUP1 REVERT JUMPDEST DUP1 PUSH4 0x4A062BA9 GT PUSH2 0x12A JUMPI DUP1 PUSH4 0x4A062BA9 EQ PUSH2 0x294 JUMPI DUP1 PUSH4 0x57E685BC EQ PUSH2 0x29C JUMPI DUP1 PUSH4 0x5DB0DB7C EQ PUSH2 0x2AF JUMPI DUP1 PUSH4 0x5FC489A7 EQ PUSH2 0x2C2 JUMPI DUP1 PUSH4 0x5FC7F48B EQ PUSH2 0x2D5 JUMPI DUP1 PUSH4 0x89302F0E EQ PUSH2 0x2E8 JUMPI PUSH0 DUP1 REVERT JUMPDEST DUP1 PUSH4 0xBA234D6 EQ PUSH2 0x171 JUMPI DUP1 PUSH4 0xC68BA21 EQ PUSH2 0x17B JUMPI DUP1 PUSH4 0x12065FE0 EQ PUSH2 0x1B2 JUMPI DUP1 PUSH4 0x1E969523 EQ PUSH2 0x1C2 JUMPI DUP1 PUSH4 0x371BBDC1 EQ PUSH2 0x229 JUMPI DUP1 PUSH4 0x42CDE4E8 EQ PUSH2 0x28B JUMPI JUMPDEST PUSH0 DUP1 REVERT JUMPDEST PUSH2 0x179 PUSH2 0x406 JUMP JUMPDEST STOP JUMPDEST PUSH2 0x19D PUSH2 0x189 CALLDATASIZE PUSH1 0x4 PUSH2 0x1583 JUMP JUMPDEST PUSH1 0x3 PUSH1 0x20 MSTORE PUSH0 SWAP1 DUP2 MSTORE PUSH1 0x40 SWAP1 KECCAK256 SLOAD PUSH1 0xFF AND DUP2 JUMP JUMPDEST PUSH1 0x40 MLOAD SWAP1 ISZERO ISZERO DUP2 MSTORE PUSH1 0x20 ADD JUMPDEST PUSH1 0x40 MLOAD DUP1 SWAP2 SUB SWAP1 RETURN JUMPDEST SELFBALANCE JUMPDEST PUSH1 0x40 MLOAD SWAP1 DUP2 MSTORE PUSH1 0x20 ADD PUSH2 0x1A9 JUMP JUMPDEST PUSH2 0x201 PUSH2 0x1D0 CALLDATASIZE PUSH1 0x4 PUSH2 0x1583 JUMP JUMPDEST PUSH1 0x7 PUSH1 0x20 MSTORE PUSH0 SWAP1 DUP2 MSTORE PUSH1 0x40 SWAP1 KECCAK256 DUP1 SLOAD PUSH1 0x1 SWAP1 SWAP2 ADD SLOAD PUSH1 0x1 PUSH1 0x1 PUSH1 0xA0 SHL SUB SWAP2 DUP3 AND SWAP2 DUP2 AND SWAP1 PUSH1 0x1 PUSH1 0xA0 SHL SWAP1 DIV PUSH1 0xFF AND DUP4 JUMP JUMPDEST PUSH1 0x40 DUP1 MLOAD PUSH1 0x1 PUSH1 0x1 PUSH1 0xA0 SHL SUB SWAP5 DUP6 AND DUP2 MSTORE SWAP4 SWAP1 SWAP3 AND PUSH1 0x20 DUP5 ADD MSTORE ISZERO ISZERO SWAP1 DUP3 ADD MSTORE PUSH1 0x60 ADD PUSH2 0x1A9 JUMP JUMPDEST PUSH2 0x264 PUSH2 0x237 CALLDATASIZE PUSH1 0x4 PUSH2 0x1583 JUMP JUMPDEST PUSH1 0x6 PUSH1 0x20 MSTORE PUSH0 SWAP1 DUP2 MSTORE PUSH1 0x40 SWAP1 KECCAK256 DUP1 SLOAD PUSH1 0x1 DUP3 ADD SLOAD PUSH1 0x2 SWAP1 SWAP3 ADD SLOAD PUSH1 0x1 PUSH1 0x1 PUSH1 0xA0 SHL SUB SWAP1 SWAP2 AND SWAP2 SWAP1 PUSH1 0xFF AND DUP4 JUMP JUMPDEST PUSH1 0x40 DUP1 MLOAD PUSH1 0x1 PUSH1 0x1 PUSH1 0xA0 SHL SUB SWAP1 SWAP5 AND DUP5 MSTORE PUSH1 0x20 DUP5 ADD SWAP3 SWAP1 SWAP3 MSTORE ISZERO ISZERO SWAP1 DUP3 ADD MSTORE PUSH1 0x60 ADD PUSH2 0x1A9 JUMP JUMPDEST PUSH2 0x1B4 PUSH1 0x2 SLOAD DUP2 JUMP JUMPDEST PUSH2 0x179 PUSH2 0x4A7 JUMP JUMPDEST PUSH2 0x179 PUSH2 0x2AA CALLDATASIZE PUSH1 0x4 PUSH2 0x1583 JUMP JUMPDEST PUSH2 0x562 JUMP JUMPDEST PUSH2 0x179 PUSH2 0x2BD CALLDATASIZE PUSH1 0x4 PUSH2 0x1583 JUMP JUMPDEST PUSH2 0x68E JUMP JUMPDEST PUSH2 0x179 PUSH2 0x2D0 CALLDATASIZE PUSH1 0x4 PUSH2 0x15E6 JUMP JUMPDEST PUSH2 0x853 JUMP JUMPDEST PUSH2 0x179 PUSH2 0x2E3 CALLDATASIZE PUSH1 0x4 PUSH2 0x1637 JUMP JUMPDEST PUSH2 0xBAD JUMP JUMPDEST PUSH2 0x1B4 PUSH1 0x8 SLOAD DUP2 JUMP JUMPDEST PUSH1 0x1 SLOAD PUSH2 0x304 SWAP1 PUSH1 0x1 PUSH1 0x1 PUSH1 0xA0 SHL SUB AND DUP2 JUMP JUMPDEST PUSH1 0x40 MLOAD PUSH1 0x1 PUSH1 0x1 PUSH1 0xA0 SHL SUB SWAP1 SWAP2 AND DUP2 MSTORE PUSH1 0x20 ADD PUSH2 0x1A9 JUMP JUMPDEST PUSH2 0x32F PUSH2 0x32A CALLDATASIZE PUSH1 0x4 PUSH2 0x168A JUMP JUMPDEST PUSH2 0xD2C JUMP JUMPDEST PUSH1 0x40 MLOAD PUSH2 0x1A9 SWAP2 SWAP1 PUSH2 0x179D JUMP JUMPDEST PUSH2 0x179 PUSH2 0x34A CALLDATASIZE PUSH1 0x4 PUSH2 0x1583 JUMP JUMPDEST PUSH2 0xE5C JUMP JUMPDEST PUSH1 0x4 SLOAD PUSH2 0x19D SWAP1 PUSH1 0x1 PUSH1 0xA8 SHL SWAP1 DIV PUSH1 0xFF AND DUP2 JUMP JUMPDEST PUSH2 0x179 PUSH2 0xF3F JUMP JUMPDEST PUSH2 0x179 PUSH2 0x379 CALLDATASIZE PUSH1 0x4 PUSH2 0x17AF JUMP JUMPDEST PUSH2 0xFFE JUMP JUMPDEST PUSH2 0x1B4 PUSH1 0x5 SLOAD DUP2 JUMP JUMPDEST PUSH2 0x1B4 PUSH2 0x395 CALLDATASIZE PUSH1 0x4 PUSH2 0x1583 JUMP JUMPDEST PUSH1 0x9 PUSH1 0x20 MSTORE PUSH0 SWAP1 DUP2 MSTORE PUSH1 0x40 SWAP1 KECCAK256 SLOAD DUP2 JUMP JUMPDEST PUSH2 0x179 PUSH2 0x3B4 CALLDATASIZE PUSH1 0x4 PUSH2 0x17D9 JUMP JUMPDEST PUSH2 0x1097 JUMP JUMPDEST PUSH2 0x179 PUSH2 0x3C7 CALLDATASIZE PUSH1 0x4 PUSH2 0x1583 JUMP JUMPDEST PUSH2 0x11D9 JUMP JUMPDEST PUSH2 0x179 PUSH2 0x3DA CALLDATASIZE PUSH1 0x4 PUSH2 0x1810 JUMP JUMPDEST PUSH2 0x1328 JUMP JUMPDEST PUSH1 0x4 SLOAD PUSH2 0x19D SWAP1 PUSH1 0x1 PUSH1 0xA0 SHL SWAP1 DIV PUSH1 0xFF AND DUP2 JUMP JUMPDEST PUSH2 0x179 PUSH2 0x401 CALLDATASIZE PUSH1 0x4 PUSH2 0x1810 JUMP JUMPDEST PUSH2 0x142D JUMP JUMPDEST PUSH1 0x1 SLOAD PUSH1 0x1 PUSH1 0x1 PUSH1 0xA0 SHL SUB AND CALLER EQ PUSH2 0x439 JUMPI PUSH1 0x40 MLOAD PUSH3 0x461BCD PUSH1 0xE5 SHL DUP2 MSTORE PUSH1 0x4 ADD PUSH2 0x430 SWAP1 PUSH2 0x1827 JUMP JUMPDEST PUSH1 0x40 MLOAD DUP1 SWAP2 SUB SWAP1 REVERT JUMPDEST PUSH1 0x4 SLOAD PUSH1 0x1 PUSH1 0xA0 SHL SWAP1 DIV PUSH1 0xFF AND PUSH2 0x462 JUMPI PUSH1 0x40 MLOAD PUSH3 0x461BCD PUSH1 0xE5 SHL DUP2 MSTORE PUSH1 0x4 ADD PUSH2 0x430 SWAP1 PUSH2 0x184F JUMP JUMPDEST PUSH1 0x4 DUP1 SLOAD PUSH1 0xFF PUSH1 0xA0 SHL NOT AND SWAP1 SSTORE PUSH1 0x5 SLOAD PUSH1 0x40 MLOAD CALLER DUP2 MSTORE PUSH32 0x500EC1D4B692D3C788BFD78A898DE379CFD93AB8177575EFC7593F87BD051A07 SWAP1 PUSH1 0x20 ADD PUSH1 0x40 MLOAD DUP1 SWAP2 SUB SWAP1 LOG2 JUMP JUMPDEST CALLER PUSH0 SWAP1 DUP2 MSTORE PUSH1 0x3 PUSH1 0x20 MSTORE PUSH1 0x40 SWAP1 KECCAK256 SLOAD PUSH1 0xFF AND PUSH2 0x4D5 JUMPI PUSH1 0x40 MLOAD PUSH3 0x461BCD PUSH1 0xE5 SHL DUP2 MSTORE PUSH1 0x4 ADD PUSH2 0x430 SWAP1 PUSH2 0x1886 JUMP JUMPDEST PUSH1 0x4 SLOAD PUSH1 0x1 PUSH1 0xA8 SHL SWAP1 DIV PUSH1 0xFF AND ISZERO PUSH2 0x4FF JUMPI PUSH1 0x40 MLOAD PUSH3 0x461BCD PUSH1 0xE5 SHL DUP2 MSTORE PUSH1 0x4 ADD PUSH2 0x430 SWAP1 PUSH2 0x18CE JUMP JUMPDEST PUSH1 0x4 SLOAD PUSH1 0x1 PUSH1 0xA0 SHL SWAP1 DIV PUSH1 0xFF AND ISZERO PUSH2 0x529 JUMPI PUSH1 0x40 MLOAD PUSH3 0x461BCD PUSH1 0xE5 SHL DUP2 MSTORE PUSH1 0x4 ADD PUSH2 0x430 SWAP1 PUSH2 0x1914 JUMP JUMPDEST CALLER PUSH0 DUP2 DUP2 MSTORE PUSH1 0x9 PUSH1 0x20 MSTORE PUSH1 0x40 DUP1 DUP3 KECCAK256 TIMESTAMP SWAP1 SSTORE MLOAD PUSH32 0xC0F8E327CBAF33736BC91FF2966A92A84350E4433A9BA309DA8F43E6F4A0852C SWAP2 SWAP1 LOG2 JUMP JUMPDEST CALLER PUSH0 SWAP1 DUP2 MSTORE PUSH1 0x3 PUSH1 0x20 MSTORE PUSH1 0x40 SWAP1 KECCAK256 SLOAD PUSH1 0xFF AND PUSH2 0x590 JUMPI PUSH1 0x40 MLOAD PUSH3 0x461BCD PUSH1 0xE5 SHL DUP2 MSTORE PUSH1 0x4 ADD PUSH2 0x430 SWAP1 PUSH2 0x1886 JUMP JUMPDEST PUSH1 0x4 SLOAD PUSH1 0x1 PUSH1 0xA0 SHL SWAP1 DIV PUSH1 0xFF AND PUSH2 0x5B9 JUMPI PUSH1 0x40 MLOAD PUSH3 0x461BCD PUSH1 0xE5 SHL DUP2 MSTORE PUSH1 0x4 ADD PUSH2 0x430 SWAP1 PUSH2 0x184F JUMP JUMPDEST PUSH1 0x4 SLOAD PUSH1 0x1 PUSH1 0xA8 SHL SWAP1 DIV PUSH1 0xFF AND ISZERO PUSH2 0x5E3 JUMPI PUSH1 0x40 MLOAD PUSH3 0x461BCD PUSH1 0xE5 SHL DUP2 MSTORE PUSH1 0x4 ADD PUSH2 0x430 SWAP1 PUSH2 0x18CE JUMP JUMPDEST PUSH1 0x40 DUP1 MLOAD PUSH1 0x60 DUP2 ADD DUP3 MSTORE PUSH1 0x1 PUSH1 0x1 PUSH1 0xA0 SHL SUB DUP4 DUP2 AND DUP1 DUP4 MSTORE PUSH1 0x5 DUP1 SLOAD PUSH1 0x20 DUP1 DUP7 ADD SWAP2 DUP3 MSTORE PUSH0 DUP7 DUP9 ADD DUP2 DUP2 MSTORE CALLER DUP1 DUP4 MSTORE PUSH1 0x6 DUP5 MSTORE DUP10 DUP4 KECCAK256 SWAP9 MLOAD DUP10 SLOAD PUSH1 0x1 PUSH1 0x1 PUSH1 0xA0 SHL SUB NOT AND SWAP9 AND SWAP8 SWAP1 SWAP8 OR DUP9 SSTORE SWAP3 MLOAD PUSH1 0x1 DUP9 ADD SSTORE SWAP2 MLOAD PUSH1 0x2 SWAP1 SWAP7 ADD DUP1 SLOAD PUSH1 0xFF NOT AND SWAP7 ISZERO ISZERO SWAP7 SWAP1 SWAP7 OR SWAP1 SWAP6 SSTORE PUSH1 0x9 DUP6 MSTORE DUP6 SWAP1 KECCAK256 TIMESTAMP SWAP1 SSTORE SLOAD SWAP4 MLOAD SWAP1 DUP2 MSTORE SWAP1 SWAP2 PUSH32 0x7A0B940199FF58E943823FE8C0E916DF112BE357049D8105A7E83CF9A4000E4A SWAP2 ADD JUMPDEST PUSH1 0x40 MLOAD DUP1 SWAP2 SUB SWAP1 LOG3 POP JUMP JUMPDEST PUSH1 0x1 SLOAD PUSH1 0x1 PUSH1 0x1 PUSH1 0xA0 SHL SUB AND CALLER EQ PUSH2 0x6B8 JUMPI PUSH1 0x40 MLOAD PUSH3 0x461BCD PUSH1 0xE5 SHL DUP2 MSTORE PUSH1 0x4 ADD PUSH2 0x430 SWAP1 PUSH2 0x1827 JUMP JUMPDEST PUSH1 0x4 SLOAD PUSH1 0x1 PUSH1 0xA8 SHL SWAP1 DIV PUSH1 0xFF AND PUSH2 0x6E1 JUMPI PUSH1 0x40 MLOAD PUSH3 0x461BCD PUSH1 0xE5 SHL DUP2 MSTORE PUSH1 0x4 ADD PUSH2 0x430 SWAP1 PUSH2 0x194B JUMP JUMPDEST PUSH1 0x4 SLOAD PUSH1 0x1 PUSH1 0xA0 SHL SWAP1 DIV PUSH1 0xFF AND ISZERO PUSH2 0x70B JUMPI PUSH1 0x40 MLOAD PUSH3 0x461BCD PUSH1 0xE5 SHL DUP2 MSTORE PUSH1 0x4 ADD PUSH2 0x430 SWAP1 PUSH2 0x1914 JUMP JUMPDEST PUSH1 0x1 PUSH1 0x1 PUSH1 0xA0 SHL SUB DUP2 DUP2 AND PUSH0 SWAP1 DUP2 MSTORE PUSH1 0x7 PUSH1 0x20 SWAP1 DUP2 MSTORE PUSH1 0x40 SWAP2 DUP3 SWAP1 KECCAK256 DUP3 MLOAD PUSH1 0x60 DUP2 ADD DUP5 MSTORE DUP2 SLOAD DUP6 AND DUP2 MSTORE PUSH1 0x1 SWAP1 SWAP2 ADD SLOAD SWAP4 DUP5 AND SWAP2 DUP2 ADD SWAP2 SWAP1 SWAP2 MSTORE PUSH1 0x1 PUSH1 0xA0 SHL SWAP1 SWAP3 DIV PUSH1 0xFF AND ISZERO DUP1 ISZERO SWAP2 DUP4 ADD SWAP2 SWAP1 SWAP2 MSTORE PUSH2 0x7A6 JUMPI PUSH1 0x40 MLOAD PUSH3 0x461BCD PUSH1 0xE5 SHL DUP2 MSTORE PUSH1 0x20 PUSH1 0x4 DUP3 ADD DUP2 SWAP1 MSTORE PUSH1 0x24 DUP3 ADD MSTORE PUSH32 0x477561726469616E205265717565737420697320616C72656164792055736564 PUSH1 0x44 DUP3 ADD MSTORE PUSH1 0x64 ADD PUSH2 0x430 JUMP JUMPDEST DUP1 MLOAD PUSH1 0x1 PUSH1 0x1 PUSH1 0xA0 SHL SUB SWAP1 DUP2 AND PUSH0 SWAP1 DUP2 MSTORE PUSH1 0x3 PUSH1 0x20 SWAP1 DUP2 MSTORE PUSH1 0x40 DUP1 DUP4 KECCAK256 DUP1 SLOAD PUSH1 0xFF NOT SWAP1 DUP2 AND PUSH1 0x1 SWAP1 DUP2 OR SWAP1 SWAP3 SSTORE DUP4 DUP8 ADD DUP1 MLOAD DUP8 AND DUP7 MSTORE DUP4 DUP7 KECCAK256 DUP1 SLOAD SWAP1 SWAP3 AND SWAP1 SWAP2 SSTORE DUP8 DUP7 AND DUP6 MSTORE PUSH1 0x7 DUP5 MSTORE SWAP4 DUP3 SWAP1 KECCAK256 ADD DUP1 SLOAD PUSH1 0xFF PUSH1 0xA0 SHL NOT AND PUSH1 0x1 PUSH1 0xA0 SHL OR SWAP1 SSTORE PUSH1 0x4 DUP1 SLOAD PUSH1 0xFF PUSH1 0xA8 SHL NOT AND SWAP1 SSTORE DUP5 MLOAD SWAP3 MLOAD SWAP1 MLOAD SWAP1 DUP5 AND DUP2 MSTORE SWAP2 SWAP1 SWAP3 AND SWAP2 PUSH32 0xEBE47B4A5AEF1696896716ABE65C590C720B0CD9572A7E2DCB0A9BFE2B2CA7F SWAP2 ADD JUMPDEST PUSH1 0x40 MLOAD DUP1 SWAP2 SUB SWAP1 LOG2 POP POP JUMP JUMPDEST CALLER PUSH0 SWAP1 DUP2 MSTORE PUSH1 0x3 PUSH1 0x20 MSTORE PUSH1 0x40 SWAP1 KECCAK256 SLOAD PUSH1 0xFF AND PUSH2 0x881 JUMPI PUSH1 0x40 MLOAD PUSH3 0x461BCD PUSH1 0xE5 SHL DUP2 MSTORE PUSH1 0x4 ADD PUSH2 0x430 SWAP1 PUSH2 0x1886 JUMP JUMPDEST PUSH1 0x4 SLOAD PUSH1 0x1 PUSH1 0xA0 SHL SWAP1 DIV PUSH1 0xFF AND PUSH2 0x8AA JUMPI PUSH1 0x40 MLOAD PUSH3 0x461BCD PUSH1 0xE5 SHL DUP2 MSTORE PUSH1 0x4 ADD PUSH2 0x430 SWAP1 PUSH2 0x184F JUMP JUMPDEST PUSH1 0x4 SLOAD PUSH1 0x1 PUSH1 0xA8 SHL SWAP1 DIV PUSH1 0xFF AND ISZERO PUSH2 0x8D4 JUMPI PUSH1 0x40 MLOAD PUSH3 0x461BCD PUSH1 0xE5 SHL DUP2 MSTORE PUSH1 0x4 ADD PUSH2 0x430 SWAP1 PUSH2 0x18CE JUMP JUMPDEST PUSH1 0x2 SLOAD DUP2 LT ISZERO PUSH2 0x93C JUMPI PUSH1 0x40 MLOAD PUSH3 0x461BCD PUSH1 0xE5 SHL DUP2 MSTORE PUSH1 0x20 PUSH1 0x4 DUP3 ADD MSTORE PUSH1 0x2D PUSH1 0x24 DUP3 ADD MSTORE PUSH32 0x6D6F726520677561726469616E7320726571756972656420746F207472616E73 PUSH1 0x44 DUP3 ADD MSTORE PUSH13 0x666572206F776E65727368697 PUSH1 0x9C SHL PUSH1 0x64 DUP3 ADD MSTORE PUSH1 0x84 ADD PUSH2 0x430 JUMP JUMPDEST PUSH0 JUMPDEST DUP2 DUP2 LT ISZERO PUSH2 0xB27 JUMPI PUSH0 PUSH1 0x6 PUSH0 DUP6 DUP6 DUP6 DUP2 DUP2 LT PUSH2 0x95C JUMPI PUSH2 0x95C PUSH2 0x198C JUMP JUMPDEST SWAP1 POP PUSH1 0x20 MUL ADD PUSH1 0x20 DUP2 ADD SWAP1 PUSH2 0x971 SWAP2 SWAP1 PUSH2 0x1583 JUMP JUMPDEST PUSH1 0x1 PUSH1 0x1 PUSH1 0xA0 SHL SUB SWAP1 DUP2 AND DUP3 MSTORE PUSH1 0x20 DUP1 DUP4 ADD SWAP4 SWAP1 SWAP4 MSTORE PUSH1 0x40 SWAP2 DUP3 ADD PUSH0 KECCAK256 DUP3 MLOAD PUSH1 0x60 DUP2 ADD DUP5 MSTORE DUP2 SLOAD SWAP1 SWAP3 AND DUP3 MSTORE PUSH1 0x1 DUP2 ADD SLOAD SWAP4 DUP3 ADD DUP5 SWAP1 MSTORE PUSH1 0x2 ADD SLOAD PUSH1 0xFF AND ISZERO ISZERO SWAP2 DUP2 ADD SWAP2 SWAP1 SWAP2 MSTORE PUSH1 0x5 SLOAD SWAP1 SWAP3 POP EQ PUSH2 0x9FC JUMPI PUSH1 0x40 MLOAD PUSH3 0x461BCD PUSH1 0xE5 SHL DUP2 MSTORE PUSH1 0x20 PUSH1 0x4 DUP3 ADD MSTORE PUSH1 0xE PUSH1 0x24 DUP3 ADD MSTORE PUSH14 0xE4DEEADCC840DAD2E6DAC2E8C6D PUSH1 0x93 SHL PUSH1 0x44 DUP3 ADD MSTORE PUSH1 0x64 ADD PUSH2 0x430 JUMP JUMPDEST DUP5 PUSH1 0x1 PUSH1 0x1 PUSH1 0xA0 SHL SUB AND DUP2 PUSH0 ADD MLOAD PUSH1 0x1 PUSH1 0x1 PUSH1 0xA0 SHL SUB AND EQ PUSH2 0xA60 JUMPI PUSH1 0x40 MLOAD PUSH3 0x461BCD PUSH1 0xE5 SHL DUP2 MSTORE PUSH1 0x20 PUSH1 0x4 DUP3 ADD MSTORE PUSH1 0x19 PUSH1 0x24 DUP3 ADD MSTORE PUSH32 0x64697361677265656D656E74206F6E206E6577206F776E657200000000000000 PUSH1 0x44 DUP3 ADD MSTORE PUSH1 0x64 ADD PUSH2 0x430 JUMP JUMPDEST DUP1 PUSH1 0x40 ADD MLOAD ISZERO PUSH2 0xABE JUMPI PUSH1 0x40 MLOAD PUSH3 0x461BCD PUSH1 0xE5 SHL DUP2 MSTORE PUSH1 0x20 PUSH1 0x4 DUP3 ADD MSTORE PUSH1 0x23 PUSH1 0x24 DUP3 ADD MSTORE PUSH32 0x6475706C696361746520677561726469616E207573656420696E207265636F76 PUSH1 0x44 DUP3 ADD MSTORE PUSH3 0x657279 PUSH1 0xE8 SHL PUSH1 0x64 DUP3 ADD MSTORE PUSH1 0x84 ADD PUSH2 0x430 JUMP JUMPDEST PUSH1 0x1 PUSH1 0x6 PUSH0 DUP7 DUP7 DUP7 DUP2 DUP2 LT PUSH2 0xAD5 JUMPI PUSH2 0xAD5 PUSH2 0x198C JUMP JUMPDEST SWAP1 POP PUSH1 0x20 MUL ADD PUSH1 0x20 DUP2 ADD SWAP1 PUSH2 0xAEA SWAP2 SWAP1 PUSH2 0x1583 JUMP JUMPDEST PUSH1 0x1 PUSH1 0x1 PUSH1 0xA0 SHL SUB AND DUP2 MSTORE PUSH1 0x20 DUP2 ADD SWAP2 SWAP1 SWAP2 MSTORE PUSH1 0x40 ADD PUSH0 KECCAK256 PUSH1 0x2 ADD DUP1 SLOAD PUSH1 0xFF NOT AND SWAP2 ISZERO ISZERO SWAP2 SWAP1 SWAP2 OR SWAP1 SSTORE POP DUP1 PUSH2 0xB1F DUP2 PUSH2 0x19B4 JUMP JUMPDEST SWAP2 POP POP PUSH2 0x93E JUMP JUMPDEST POP PUSH1 0x4 DUP1 SLOAD PUSH1 0xFF PUSH1 0xA0 SHL NOT AND SWAP1 SSTORE PUSH1 0x1 DUP1 SLOAD PUSH1 0x1 PUSH1 0x1 PUSH1 0xA0 SHL SUB DUP6 DUP2 AND PUSH1 0x1 PUSH1 0x1 PUSH1 0xA0 SHL SUB NOT DUP4 AND DUP2 OR SWAP1 SWAP4 SSTORE CALLER PUSH0 SWAP1 DUP2 MSTORE PUSH1 0x9 PUSH1 0x20 SWAP1 DUP2 MSTORE PUSH1 0x40 SWAP2 DUP3 SWAP1 KECCAK256 TIMESTAMP SWAP1 SSTORE PUSH1 0x5 SLOAD DUP3 MLOAD SWAP4 SWAP1 SWAP5 AND DUP1 DUP5 MSTORE SWAP1 DUP4 ADD SWAP5 SWAP1 SWAP5 MSTORE PUSH32 0xCBAA7C7C351E2D5655FC08D9C383ADCF4736AF160C800B53DF1F1DD221F826C8 SWAP2 ADD PUSH1 0x40 MLOAD DUP1 SWAP2 SUB SWAP1 LOG2 POP POP POP POP JUMP JUMPDEST PUSH1 0x1 SLOAD PUSH1 0x1 PUSH1 0x1 PUSH1 0xA0 SHL SUB AND CALLER EQ PUSH2 0xBD7 JUMPI PUSH1 0x40 MLOAD PUSH3 0x461BCD PUSH1 0xE5 SHL DUP2 MSTORE PUSH1 0x4 ADD PUSH2 0x430 SWAP1 PUSH2 0x1827 JUMP JUMPDEST PUSH1 0x4 SLOAD PUSH1 0x1 PUSH1 0xA8 SHL SWAP1 DIV PUSH1 0xFF AND ISZERO PUSH2 0xC01 JUMPI PUSH1 0x40 MLOAD PUSH3 0x461BCD PUSH1 0xE5 SHL DUP2 MSTORE PUSH1 0x4 ADD PUSH2 0x430 SWAP1 PUSH2 0x18CE JUMP JUMPDEST PUSH1 0x4 SLOAD PUSH1 0x1 PUSH1 0xA0 SHL SWAP1 DIV PUSH1 0xFF AND ISZERO PUSH2 0xC2B JUMPI PUSH1 0x40 MLOAD PUSH3 0x461BCD PUSH1 0xE5 SHL DUP2 MSTORE PUSH1 0x4 ADD PUSH2 0x430 SWAP1 PUSH2 0x1914 JUMP JUMPDEST PUSH0 JUMPDEST DUP2 DUP2 LT ISZERO PUSH2 0xCFD JUMPI PUSH0 PUSH1 0x9 PUSH0 DUP6 DUP6 DUP6 DUP2 DUP2 LT PUSH2 0xC4B JUMPI PUSH2 0xC4B PUSH2 0x198C JUMP JUMPDEST SWAP1 POP PUSH1 0x20 MUL ADD PUSH1 0x20 DUP2 ADD SWAP1 PUSH2 0xC60 SWAP2 SWAP1 PUSH2 0x1583 JUMP JUMPDEST PUSH1 0x1 PUSH1 0x1 PUSH1 0xA0 SHL SUB AND PUSH1 0x1 PUSH1 0x1 PUSH1 0xA0 SHL SUB AND DUP2 MSTORE PUSH1 0x20 ADD SWAP1 DUP2 MSTORE PUSH1 0x20 ADD PUSH0 KECCAK256 SLOAD SWAP1 POP TIMESTAMP PUSH1 0x8 SLOAD DUP3 PUSH2 0xC91 SWAP2 SWAP1 PUSH2 0x19CC JUMP JUMPDEST LT ISZERO PUSH2 0xCEA JUMPI PUSH0 PUSH1 0x3 PUSH0 DUP7 DUP7 DUP7 DUP2 DUP2 LT PUSH2 0xCAD JUMPI PUSH2 0xCAD PUSH2 0x198C JUMP JUMPDEST SWAP1 POP PUSH1 0x20 MUL ADD PUSH1 0x20 DUP2 ADD SWAP1 PUSH2 0xCC2 SWAP2 SWAP1 PUSH2 0x1583 JUMP JUMPDEST PUSH1 0x1 PUSH1 0x1 PUSH1 0xA0 SHL SUB AND DUP2 MSTORE PUSH1 0x20 DUP2 ADD SWAP2 SWAP1 SWAP2 MSTORE PUSH1 0x40 ADD PUSH0 KECCAK256 DUP1 SLOAD PUSH1 0xFF NOT AND SWAP2 ISZERO ISZERO SWAP2 SWAP1 SWAP2 OR SWAP1 SSTORE JUMPDEST POP DUP1 PUSH2 0xCF5 DUP2 PUSH2 0x19B4 JUMP JUMPDEST SWAP2 POP POP PUSH2 0xC2D JUMP JUMPDEST POP PUSH1 0x40 MLOAD CALLER SWAP1 PUSH32 0x4C3633AD0E1A50F8C16E1AD83C223C9E97EFA102E90B03C3A0B10A7726F58656 SWAP1 PUSH0 SWAP1 LOG2 POP POP JUMP JUMPDEST PUSH1 0x1 SLOAD PUSH1 0x60 SWAP1 PUSH1 0x1 PUSH1 0x1 PUSH1 0xA0 SHL SUB AND CALLER EQ PUSH2 0xD59 JUMPI PUSH1 0x40 MLOAD PUSH3 0x461BCD PUSH1 0xE5 SHL DUP2 MSTORE PUSH1 0x4 ADD PUSH2 0x430 SWAP1 PUSH2 0x1827 JUMP JUMPDEST PUSH2 0xD61 PUSH2 0x1544 JUMP JUMPDEST PUSH0 DUP1 DUP6 PUSH1 0x1 PUSH1 0x1 PUSH1 0xA0 SHL SUB AND DUP6 DUP6 PUSH1 0x40 MLOAD PUSH2 0xD7C SWAP2 SWAP1 PUSH2 0x19E5 JUMP JUMPDEST PUSH0 PUSH1 0x40 MLOAD DUP1 DUP4 SUB DUP2 DUP6 DUP8 GAS CALL SWAP3 POP POP POP RETURNDATASIZE DUP1 PUSH0 DUP2 EQ PUSH2 0xDB6 JUMPI PUSH1 0x40 MLOAD SWAP2 POP PUSH1 0x1F NOT PUSH1 0x3F RETURNDATASIZE ADD AND DUP3 ADD PUSH1 0x40 MSTORE RETURNDATASIZE DUP3 MSTORE RETURNDATASIZE PUSH0 PUSH1 0x20 DUP5 ADD RETURNDATACOPY PUSH2 0xDBB JUMP JUMPDEST PUSH1 0x60 SWAP2 POP JUMPDEST POP SWAP2 POP SWAP2 POP DUP2 PUSH2 0xE06 JUMPI PUSH1 0x40 MLOAD PUSH3 0x461BCD PUSH1 0xE5 SHL DUP2 MSTORE PUSH1 0x20 PUSH1 0x4 DUP3 ADD MSTORE PUSH1 0x16 PUSH1 0x24 DUP3 ADD MSTORE PUSH22 0x10DBDB9D1C9858DD0810D85B1B0814995D995C9D1959 PUSH1 0x52 SHL PUSH1 0x44 DUP3 ADD MSTORE PUSH1 0x64 ADD PUSH2 0x430 JUMP JUMPDEST DUP6 PUSH1 0x1 PUSH1 0x1 PUSH1 0xA0 SHL SUB AND PUSH32 0x47D99AD340F52DA66535AFF7E10DA1CEB85A32BCBD9FA1C42314D194545E14D2 DUP7 DUP7 PUSH1 0x40 MLOAD PUSH2 0xE41 SWAP3 SWAP2 SWAP1 PUSH2 0x1A00 JUMP JUMPDEST PUSH1 0x40 MLOAD DUP1 SWAP2 SUB SWAP1 LOG2 SWAP2 POP POP PUSH2 0xE55 PUSH1 0x1 PUSH0 SSTORE JUMP JUMPDEST SWAP4 SWAP3 POP POP POP JUMP JUMPDEST PUSH1 0x1 SLOAD PUSH1 0x1 PUSH1 0x1 PUSH1 0xA0 SHL SUB AND CALLER EQ PUSH2 0xE86 JUMPI PUSH1 0x40 MLOAD PUSH3 0x461BCD PUSH1 0xE5 SHL DUP2 MSTORE PUSH1 0x4 ADD PUSH2 0x430 SWAP1 PUSH2 0x1827 JUMP JUMPDEST PUSH1 0x4 SLOAD PUSH1 0x1 PUSH1 0xA8 SHL SWAP1 DIV PUSH1 0xFF AND ISZERO PUSH2 0xEB0 JUMPI PUSH1 0x40 MLOAD PUSH3 0x461BCD PUSH1 0xE5 SHL DUP2 MSTORE PUSH1 0x4 ADD PUSH2 0x430 SWAP1 PUSH2 0x18CE JUMP JUMPDEST PUSH1 0x4 SLOAD PUSH1 0x1 PUSH1 0xA0 SHL SWAP1 DIV PUSH1 0xFF AND ISZERO PUSH2 0xEDA JUMPI PUSH1 0x40 MLOAD PUSH3 0x461BCD PUSH1 0xE5 SHL DUP2 MSTORE PUSH1 0x4 ADD PUSH2 0x430 SWAP1 PUSH2 0x1914 JUMP JUMPDEST PUSH1 0x1 PUSH1 0x1 PUSH1 0xA0 SHL SUB DUP2 AND PUSH0 DUP2 DUP2 MSTORE PUSH1 0x3 PUSH1 0x20 SWAP1 DUP2 MSTORE PUSH1 0x40 DUP1 DUP4 KECCAK256 DUP1 SLOAD PUSH1 0xFF NOT AND PUSH1 0x1 OR SWAP1 SSTORE PUSH1 0x9 DUP3 MSTORE SWAP2 DUP3 SWAP1 KECCAK256 TIMESTAMP SWAP1 SSTORE SWAP1 MLOAD SWAP2 DUP3 MSTORE CALLER SWAP2 PUSH32 0xBC3292102FA77E083913064B282926717CDFAEDE4D35F553D66366C0A3DA755A SWAP2 ADD PUSH1 0x40 MLOAD DUP1 SWAP2 SUB SWAP1 LOG2 POP JUMP JUMPDEST PUSH1 0x1 SLOAD PUSH1 0x1 PUSH1 0x1 PUSH1 0xA0 SHL SUB AND CALLER EQ PUSH2 0xF69 JUMPI PUSH1 0x40 MLOAD PUSH3 0x461BCD PUSH1 0xE5 SHL DUP2 MSTORE PUSH1 0x4 ADD PUSH2 0x430 SWAP1 PUSH2 0x1827 JUMP JUMPDEST PUSH1 0x4 SLOAD PUSH1 0x1 PUSH1 0xA8 SHL SWAP1 DIV PUSH1 0xFF AND PUSH2 0xF92 JUMPI PUSH1 0x40 MLOAD PUSH3 0x461BCD PUSH1 0xE5 SHL DUP2 MSTORE PUSH1 0x4 ADD PUSH2 0x430 SWAP1 PUSH2 0x194B JUMP JUMPDEST PUSH1 0x4 SLOAD PUSH1 0x1 PUSH1 0xA0 SHL SWAP1 DIV PUSH1 0xFF AND ISZERO PUSH2 0xFBC JUMPI PUSH1 0x40 MLOAD PUSH3 0x461BCD PUSH1 0xE5 SHL DUP2 MSTORE PUSH1 0x4 ADD PUSH2 0x430 SWAP1 PUSH2 0x1914 JUMP JUMPDEST PUSH1 0x4 DUP1 SLOAD PUSH1 0xFF PUSH1 0xA8 SHL NOT AND SWAP1 SSTORE PUSH1 0x40 MLOAD CALLER DUP2 MSTORE PUSH32 0xD57D294D41D7CB0F642228C3AA8884365982694AFCFA206C635FD368DFA4479C SWAP1 PUSH1 0x20 ADD PUSH1 0x40 MLOAD DUP1 SWAP2 SUB SWAP1 LOG1 JUMP JUMPDEST PUSH1 0x1 SLOAD PUSH1 0x1 PUSH1 0x1 PUSH1 0xA0 SHL SUB AND CALLER EQ PUSH2 0x1028 JUMPI PUSH1 0x40 MLOAD PUSH3 0x461BCD PUSH1 0xE5 SHL DUP2 MSTORE PUSH1 0x4 ADD PUSH2 0x430 SWAP1 PUSH2 0x1827 JUMP JUMPDEST PUSH1 0x40 MLOAD PUSH1 0x1 PUSH1 0x1 PUSH1 0xA0 SHL SUB DUP4 AND SWAP1 DUP3 ISZERO PUSH2 0x8FC MUL SWAP1 DUP4 SWAP1 PUSH0 DUP2 DUP2 DUP2 DUP6 DUP9 DUP9 CALL SWAP4 POP POP POP POP ISZERO DUP1 ISZERO PUSH2 0x105B JUMPI RETURNDATASIZE PUSH0 DUP1 RETURNDATACOPY RETURNDATASIZE PUSH0 REVERT JUMPDEST POP DUP2 PUSH1 0x1 PUSH1 0x1 PUSH1 0xA0 SHL SUB AND PUSH32 0xE6D858F14D755446648A6E0C8AB8B5A0F58CCC7920D4C910B0454E4DCD869AF0 DUP3 PUSH1 0x40 MLOAD PUSH2 0x847 SWAP2 DUP2 MSTORE PUSH1 0x20 ADD SWAP1 JUMP JUMPDEST CALLER PUSH0 SWAP1 DUP2 MSTORE PUSH1 0x3 PUSH1 0x20 MSTORE PUSH1 0x40 SWAP1 KECCAK256 SLOAD PUSH1 0xFF AND PUSH2 0x10C5 JUMPI PUSH1 0x40 MLOAD PUSH3 0x461BCD PUSH1 0xE5 SHL DUP2 MSTORE PUSH1 0x4 ADD PUSH2 0x430 SWAP1 PUSH2 0x1886 JUMP JUMPDEST PUSH1 0x4 SLOAD PUSH1 0x1 PUSH1 0xA8 SHL SWAP1 DIV PUSH1 0xFF AND ISZERO PUSH2 0x10EF JUMPI PUSH1 0x40 MLOAD PUSH3 0x461BCD PUSH1 0xE5 SHL DUP2 MSTORE PUSH1 0x4 ADD PUSH2 0x430 SWAP1 PUSH2 0x18CE JUMP JUMPDEST PUSH1 0x4 SLOAD PUSH1 0x1 PUSH1 0xA0 SHL SWAP1 DIV PUSH1 0xFF AND ISZERO PUSH2 0x1119 JUMPI PUSH1 0x40 MLOAD PUSH3 0x461BCD PUSH1 0xE5 SHL DUP2 MSTORE PUSH1 0x4 ADD PUSH2 0x430 SWAP1 PUSH2 0x1914 JUMP JUMPDEST PUSH1 0x40 DUP1 MLOAD PUSH1 0x60 DUP2 ADD DUP3 MSTORE PUSH1 0x1 PUSH1 0x1 PUSH1 0xA0 SHL SUB DUP4 DUP2 AND DUP1 DUP4 MSTORE DUP6 DUP3 AND PUSH1 0x20 DUP1 DUP6 ADD DUP3 DUP2 MSTORE PUSH0 DUP7 DUP9 ADD DUP2 DUP2 MSTORE CALLER DUP3 MSTORE PUSH1 0x7 DUP5 MSTORE DUP9 DUP3 KECCAK256 SWAP8 MLOAD DUP9 SLOAD SWAP1 DUP9 AND PUSH1 0x1 PUSH1 0x1 PUSH1 0xA0 SHL SUB NOT SWAP1 SWAP2 AND OR DUP9 SSTORE SWAP2 MLOAD PUSH1 0x1 SWAP1 SWAP8 ADD DUP1 SLOAD SWAP3 MLOAD ISZERO ISZERO PUSH1 0x1 PUSH1 0xA0 SHL MUL PUSH1 0x1 PUSH1 0x1 PUSH1 0xA8 SHL SUB NOT SWAP1 SWAP4 AND SWAP8 SWAP1 SWAP7 AND SWAP7 SWAP1 SWAP7 OR OR SWAP1 SWAP4 SSTORE PUSH1 0x4 DUP1 SLOAD PUSH1 0xFF PUSH1 0xA8 SHL NOT AND PUSH1 0x1 PUSH1 0xA8 SHL OR SWAP1 SSTORE PUSH1 0x9 DUP4 MSTORE SWAP3 DUP5 SWAP1 KECCAK256 TIMESTAMP SWAP1 SSTORE SWAP3 MLOAD SWAP2 DUP3 MSTORE PUSH32 0xD940885AA266E9A19341BBA634F831BDE68D4D3009E14F239E32BED8DD9E4B54 SWAP2 ADD PUSH2 0x847 JUMP JUMPDEST CALLER PUSH0 SWAP1 DUP2 MSTORE PUSH1 0x3 PUSH1 0x20 MSTORE PUSH1 0x40 SWAP1 KECCAK256 SLOAD PUSH1 0xFF AND PUSH2 0x1207 JUMPI PUSH1 0x40 MLOAD PUSH3 0x461BCD PUSH1 0xE5 SHL DUP2 MSTORE PUSH1 0x4 ADD PUSH2 0x430 SWAP1 PUSH2 0x1886 JUMP JUMPDEST PUSH1 0x4 SLOAD PUSH1 0x1 PUSH1 0xA0 SHL SWAP1 DIV PUSH1 0xFF AND ISZERO PUSH2 0x1231 JUMPI PUSH1 0x40 MLOAD PUSH3 0x461BCD PUSH1 0xE5 SHL DUP2 MSTORE PUSH1 0x4 ADD PUSH2 0x430 SWAP1 PUSH2 0x1914 JUMP JUMPDEST PUSH1 0x4 SLOAD PUSH1 0x1 PUSH1 0xA8 SHL SWAP1 DIV PUSH1 0xFF AND ISZERO PUSH2 0x125B JUMPI PUSH1 0x40 MLOAD PUSH3 0x461BCD PUSH1 0xE5 SHL DUP2 MSTORE PUSH1 0x4 ADD PUSH2 0x430 SWAP1 PUSH2 0x18CE JUMP JUMPDEST PUSH1 0x5 DUP1 SLOAD SWAP1 PUSH0 PUSH2 0x126A DUP4 PUSH2 0x19B4 JUMP JUMPDEST SWAP1 SWAP2 SSTORE POP POP PUSH1 0x40 DUP1 MLOAD PUSH1 0x60 DUP2 ADD DUP3 MSTORE PUSH1 0x1 PUSH1 0x1 PUSH1 0xA0 SHL SUB DUP4 DUP2 AND DUP1 DUP4 MSTORE PUSH1 0x5 DUP1 SLOAD PUSH1 0x20 DUP1 DUP7 ADD SWAP2 DUP3 MSTORE PUSH0 DUP7 DUP9 ADD DUP2 DUP2 MSTORE CALLER DUP1 DUP4 MSTORE PUSH1 0x6 DUP5 MSTORE DUP10 DUP4 KECCAK256 SWAP9 MLOAD DUP10 SLOAD PUSH1 0x1 PUSH1 0x1 PUSH1 0xA0 SHL SUB NOT AND SWAP9 AND SWAP8 SWAP1 SWAP8 OR DUP9 SSTORE SWAP3 MLOAD PUSH1 0x1 DUP9 ADD SSTORE SWAP2 MLOAD PUSH1 0x2 SWAP1 SWAP7 ADD DUP1 SLOAD PUSH1 0xFF NOT AND SWAP7 ISZERO ISZERO SWAP7 SWAP1 SWAP7 OR SWAP1 SWAP6 SSTORE PUSH1 0x4 DUP1 SLOAD PUSH1 0x1 PUSH1 0xA0 SHL PUSH1 0xFF PUSH1 0xA0 SHL NOT SWAP1 SWAP2 AND OR SWAP1 SSTORE PUSH1 0x9 DUP6 MSTORE DUP6 SWAP1 KECCAK256 TIMESTAMP SWAP1 SSTORE SLOAD SWAP4 MLOAD SWAP1 DUP2 MSTORE SWAP1 SWAP2 PUSH32 0xE290EA2CC3CFEB5114F992DC8BE9E503DE30042C13B9298644A2679B09E17A04 SWAP2 ADD PUSH2 0x683 JUMP JUMPDEST PUSH1 0x1 SLOAD PUSH1 0x1 PUSH1 0x1 PUSH1 0xA0 SHL SUB AND CALLER EQ PUSH2 0x1352 JUMPI PUSH1 0x40 MLOAD PUSH3 0x461BCD PUSH1 0xE5 SHL DUP2 MSTORE PUSH1 0x4 ADD PUSH2 0x430 SWAP1 PUSH2 0x1827 JUMP JUMPDEST PUSH1 0x4 SLOAD PUSH1 0x1 PUSH1 0xA8 SHL SWAP1 DIV PUSH1 0xFF AND ISZERO PUSH2 0x137C JUMPI PUSH1 0x40 MLOAD PUSH3 0x461BCD PUSH1 0xE5 SHL DUP2 MSTORE PUSH1 0x4 ADD PUSH2 0x430 SWAP1 PUSH2 0x18CE JUMP JUMPDEST PUSH1 0x4 SLOAD PUSH1 0x1 PUSH1 0xA0 SHL SWAP1 DIV PUSH1 0xFF AND ISZERO PUSH2 0x13A6 JUMPI PUSH1 0x40 MLOAD PUSH3 0x461BCD PUSH1 0xE5 SHL DUP2 MSTORE PUSH1 0x4 ADD PUSH2 0x430 SWAP1 PUSH2 0x1914 JUMP JUMPDEST PUSH1 0x1 PUSH1 0x2 SLOAD LT ISZERO PUSH2 0x13F9 JUMPI PUSH1 0x40 MLOAD PUSH3 0x461BCD PUSH1 0xE5 SHL DUP2 MSTORE PUSH1 0x20 PUSH1 0x4 DUP3 ADD DUP2 SWAP1 MSTORE PUSH1 0x24 DUP3 ADD MSTORE PUSH32 0x5468726573686F6C64206D7573742062652067726561746572207468616E2031 PUSH1 0x44 DUP3 ADD MSTORE PUSH1 0x64 ADD PUSH2 0x430 JUMP JUMPDEST PUSH1 0x2 DUP2 SWAP1 SSTORE PUSH1 0x40 MLOAD DUP2 SWAP1 CALLER SWAP1 PUSH32 0xBB0549E0AEDB1FCC6A27D802DF340BB4BD5DC53B1F97F3736A879345232E6DEF SWAP1 PUSH0 SWAP1 LOG3 POP JUMP JUMPDEST PUSH1 0x1 SLOAD PUSH1 0x1 PUSH1 0x1 PUSH1 0xA0 SHL SUB AND CALLER EQ PUSH2 0x1457 JUMPI PUSH1 0x40 MLOAD PUSH3 0x461BCD PUSH1 0xE5 SHL DUP2 MSTORE PUSH1 0x4 ADD PUSH2 0x430 SWAP1 PUSH2 0x1827 JUMP JUMPDEST PUSH1 0x4 SLOAD PUSH1 0x1 PUSH1 0xA8 SHL SWAP1 DIV PUSH1 0xFF AND ISZERO PUSH2 0x1481 JUMPI PUSH1 0x40 MLOAD PUSH3 0x461BCD PUSH1 0xE5 SHL DUP2 MSTORE PUSH1 0x4 ADD PUSH2 0x430 SWAP1 PUSH2 0x18CE JUMP JUMPDEST PUSH1 0x4 SLOAD PUSH1 0x1 PUSH1 0xA0 SHL SWAP1 DIV PUSH1 0xFF AND ISZERO PUSH2 0x14AB JUMPI PUSH1 0x40 MLOAD PUSH3 0x461BCD PUSH1 0xE5 SHL DUP2 MSTORE PUSH1 0x4 ADD PUSH2 0x430 SWAP1 PUSH2 0x1914 JUMP JUMPDEST PUSH1 0x7 DUP2 LT ISZERO PUSH2 0x1507 JUMPI PUSH1 0x40 MLOAD PUSH3 0x461BCD PUSH1 0xE5 SHL DUP2 MSTORE PUSH1 0x20 PUSH1 0x4 DUP3 ADD MSTORE PUSH1 0x22 PUSH1 0x24 DUP3 ADD MSTORE PUSH32 0x4D696E696D756D206461797320746F206578656375746520636865636B206973 PUSH1 0x44 DUP3 ADD MSTORE PUSH2 0x2037 PUSH1 0xF0 SHL PUSH1 0x64 DUP3 ADD MSTORE PUSH1 0x84 ADD PUSH2 0x430 JUMP JUMPDEST PUSH2 0x1514 DUP2 PUSH3 0x15180 PUSH2 0x1A20 JUMP JUMPDEST PUSH1 0x8 SSTORE PUSH1 0x40 MLOAD CALLER SWAP1 PUSH32 0x53568DBE9B6F3AB514AB5E002F95D314943E692740912338CE95F2B2458FE4A6 SWAP1 PUSH0 SWAP1 LOG2 POP JUMP JUMPDEST PUSH1 0x2 PUSH0 SLOAD SUB PUSH2 0x1566 JUMPI PUSH1 0x40 MLOAD PUSH4 0x3EE5AEB5 PUSH1 0xE0 SHL DUP2 MSTORE PUSH1 0x4 ADD PUSH1 0x40 MLOAD DUP1 SWAP2 SUB SWAP1 REVERT JUMPDEST PUSH1 0x2 PUSH0 SSTORE JUMP JUMPDEST PUSH1 0x1 PUSH1 0x1 PUSH1 0xA0 SHL SUB DUP2 AND DUP2 EQ PUSH2 0x1580 JUMPI PUSH0 DUP1 REVERT JUMPDEST POP JUMP JUMPDEST PUSH0 PUSH1 0x20 DUP3 DUP5 SUB SLT ISZERO PUSH2 0x1593 JUMPI PUSH0 DUP1 REVERT JUMPDEST DUP2 CALLDATALOAD PUSH2 0xE55 DUP2 PUSH2 0x156C JUMP JUMPDEST PUSH0 DUP1 DUP4 PUSH1 0x1F DUP5 ADD SLT PUSH2 0x15AE JUMPI PUSH0 DUP1 REVERT JUMPDEST POP DUP2 CALLDATALOAD PUSH8 0xFFFFFFFFFFFFFFFF DUP2 GT ISZERO PUSH2 0x15C5 JUMPI PUSH0 DUP1 REVERT JUMPDEST PUSH1 0x20 DUP4 ADD SWAP2 POP DUP4 PUSH1 0x20 DUP3 PUSH1 0x5 SHL DUP6 ADD ADD GT ISZERO PUSH2 0x15DF JUMPI PUSH0 DUP1 REVERT JUMPDEST SWAP3 POP SWAP3 SWAP1 POP JUMP JUMPDEST PUSH0 DUP1 PUSH0 PUSH1 0x40 DUP5 DUP7 SUB SLT ISZERO PUSH2 0x15F8 JUMPI PUSH0 DUP1 REVERT JUMPDEST DUP4 CALLDATALOAD PUSH2 0x1603 DUP2 PUSH2 0x156C JUMP JUMPDEST SWAP3 POP PUSH1 0x20 DUP5 ADD CALLDATALOAD PUSH8 0xFFFFFFFFFFFFFFFF DUP2 GT ISZERO PUSH2 0x161E JUMPI PUSH0 DUP1 REVERT JUMPDEST PUSH2 0x162A DUP7 DUP3 DUP8 ADD PUSH2 0x159E JUMP JUMPDEST SWAP5 SWAP8 SWAP1 SWAP7 POP SWAP4 SWAP5 POP POP POP POP JUMP JUMPDEST PUSH0 DUP1 PUSH1 0x20 DUP4 DUP6 SUB SLT ISZERO PUSH2 0x1648 JUMPI PUSH0 DUP1 REVERT JUMPDEST DUP3 CALLDATALOAD PUSH8 0xFFFFFFFFFFFFFFFF DUP2 GT ISZERO PUSH2 0x165E JUMPI PUSH0 DUP1 REVERT JUMPDEST PUSH2 0x166A DUP6 DUP3 DUP7 ADD PUSH2 0x159E JUMP JUMPDEST SWAP1 SWAP7 SWAP1 SWAP6 POP SWAP4 POP POP POP POP JUMP JUMPDEST PUSH4 0x4E487B71 PUSH1 0xE0 SHL PUSH0 MSTORE PUSH1 0x41 PUSH1 0x4 MSTORE PUSH1 0x24 PUSH0 REVERT JUMPDEST PUSH0 DUP1 PUSH0 PUSH1 0x60 DUP5 DUP7 SUB SLT ISZERO PUSH2 0x169C JUMPI PUSH0 DUP1 REVERT JUMPDEST DUP4 CALLDATALOAD PUSH2 0x16A7 DUP2 PUSH2 0x156C JUMP JUMPDEST SWAP3 POP PUSH1 0x20 DUP5 ADD CALLDATALOAD SWAP2 POP PUSH1 0x40 DUP5 ADD CALLDATALOAD PUSH8 0xFFFFFFFFFFFFFFFF DUP1 DUP3 GT ISZERO PUSH2 0x16CA JUMPI PUSH0 DUP1 REVERT JUMPDEST DUP2 DUP7 ADD SWAP2 POP DUP7 PUSH1 0x1F DUP4 ADD SLT PUSH2 0x16DD JUMPI PUSH0 DUP1 REVERT JUMPDEST DUP2 CALLDATALOAD DUP2 DUP2 GT ISZERO PUSH2 0x16EF JUMPI PUSH2 0x16EF PUSH2 0x1676 JUMP JUMPDEST PUSH1 0x40 MLOAD PUSH1 0x1F DUP3 ADD PUSH1 0x1F NOT SWAP1 DUP2 AND PUSH1 0x3F ADD AND DUP2 ADD SWAP1 DUP4 DUP3 GT DUP2 DUP4 LT OR ISZERO PUSH2 0x1717 JUMPI PUSH2 0x1717 PUSH2 0x1676 JUMP JUMPDEST DUP2 PUSH1 0x40 MSTORE DUP3 DUP2 MSTORE DUP10 PUSH1 0x20 DUP5 DUP8 ADD ADD GT ISZERO PUSH2 0x172F JUMPI PUSH0 DUP1 REVERT JUMPDEST DUP3 PUSH1 0x20 DUP7 ADD PUSH1 0x20 DUP4 ADD CALLDATACOPY PUSH0 PUSH1 0x20 DUP5 DUP4 ADD ADD MSTORE DUP1 SWAP6 POP POP POP POP POP POP SWAP3 POP SWAP3 POP SWAP3 JUMP JUMPDEST PUSH0 JUMPDEST DUP4 DUP2 LT ISZERO PUSH2 0x176A JUMPI DUP2 DUP2 ADD MLOAD DUP4 DUP3 ADD MSTORE PUSH1 0x20 ADD PUSH2 0x1752 JUMP JUMPDEST POP POP PUSH0 SWAP2 ADD MSTORE JUMP JUMPDEST PUSH0 DUP2 MLOAD DUP1 DUP5 MSTORE PUSH2 0x1789 DUP2 PUSH1 0x20 DUP7 ADD PUSH1 0x20 DUP7 ADD PUSH2 0x1750 JUMP JUMPDEST PUSH1 0x1F ADD PUSH1 0x1F NOT AND SWAP3 SWAP1 SWAP3 ADD PUSH1 0x20 ADD SWAP3 SWAP2 POP POP JUMP JUMPDEST PUSH1 0x20 DUP2 MSTORE PUSH0 PUSH2 0xE55 PUSH1 0x20 DUP4 ADD DUP5 PUSH2 0x1772 JUMP JUMPDEST PUSH0 DUP1 PUSH1 0x40 DUP4 DUP6 SUB SLT ISZERO PUSH2 0x17C0 JUMPI PUSH0 DUP1 REVERT JUMPDEST DUP3 CALLDATALOAD PUSH2 0x17CB DUP2 PUSH2 0x156C JUMP JUMPDEST SWAP5 PUSH1 0x20 SWAP4 SWAP1 SWAP4 ADD CALLDATALOAD SWAP4 POP POP POP JUMP JUMPDEST PUSH0 DUP1 PUSH1 0x40 DUP4 DUP6 SUB SLT ISZERO PUSH2 0x17EA JUMPI PUSH0 DUP1 REVERT JUMPDEST DUP3 CALLDATALOAD PUSH2 0x17F5 DUP2 PUSH2 0x156C JUMP JUMPDEST SWAP2 POP PUSH1 0x20 DUP4 ADD CALLDATALOAD PUSH2 0x1805 DUP2 PUSH2 0x156C JUMP JUMPDEST DUP1 SWAP2 POP POP SWAP3 POP SWAP3 SWAP1 POP JUMP JUMPDEST PUSH0 PUSH1 0x20 DUP3 DUP5 SUB SLT ISZERO PUSH2 0x1820 JUMPI PUSH0 DUP1 REVERT JUMPDEST POP CALLDATALOAD SWAP2 SWAP1 POP JUMP JUMPDEST PUSH1 0x20 DUP1 DUP3 MSTORE PUSH1 0xE SWAP1 DUP3 ADD MSTORE PUSH14 0x139BDD08105D5D1A1BDC9A5E9959 PUSH1 0x92 SHL PUSH1 0x40 DUP3 ADD MSTORE PUSH1 0x60 ADD SWAP1 JUMP JUMPDEST PUSH1 0x20 DUP1 DUP3 MSTORE PUSH1 0x1E SWAP1 DUP3 ADD MSTORE PUSH32 0x57616C6C6574206973206E6F7420696E205265636F76657279206D6F64650000 PUSH1 0x40 DUP3 ADD MSTORE PUSH1 0x60 ADD SWAP1 JUMP JUMPDEST PUSH1 0x20 DUP1 DUP3 MSTORE PUSH1 0x28 SWAP1 DUP3 ADD MSTORE PUSH32 0x4F6E6C7920477561726469616E206861732061636365737320746F2074686973 PUSH1 0x40 DUP3 ADD MSTORE PUSH8 0x81C995C5D595CDD PUSH1 0xC2 SHL PUSH1 0x60 DUP3 ADD MSTORE PUSH1 0x80 ADD SWAP1 JUMP JUMPDEST PUSH1 0x20 DUP1 DUP3 MSTORE PUSH1 0x26 SWAP1 DUP3 ADD MSTORE PUSH32 0x4578697374696E6720477561726469616E204368616E67652052657175657374 PUSH1 0x40 DUP3 ADD MSTORE PUSH6 0x8199BDD5B99 PUSH1 0xD2 SHL PUSH1 0x60 DUP3 ADD MSTORE PUSH1 0x80 ADD SWAP1 JUMP JUMPDEST PUSH1 0x20 DUP1 DUP3 MSTORE PUSH1 0x1A SWAP1 DUP3 ADD MSTORE PUSH32 0x57616C6C657420697320696E205265636F76657279206D6F6465000000000000 PUSH1 0x40 DUP3 ADD MSTORE PUSH1 0x60 ADD SWAP1 JUMP JUMPDEST PUSH1 0x20 DUP1 DUP3 MSTORE PUSH1 0x21 SWAP1 DUP3 ADD MSTORE PUSH32 0x4E6F2043757272656E7420477561726469616E205265717565737420666F756E PUSH1 0x40 DUP3 ADD MSTORE PUSH1 0x19 PUSH1 0xFA SHL PUSH1 0x60 DUP3 ADD MSTORE PUSH1 0x80 ADD SWAP1 JUMP JUMPDEST PUSH4 0x4E487B71 PUSH1 0xE0 SHL PUSH0 MSTORE PUSH1 0x32 PUSH1 0x4 MSTORE PUSH1 0x24 PUSH0 REVERT JUMPDEST PUSH4 0x4E487B71 PUSH1 0xE0 SHL PUSH0 MSTORE PUSH1 0x11 PUSH1 0x4 MSTORE PUSH1 0x24 PUSH0 REVERT JUMPDEST PUSH0 PUSH1 0x1 DUP3 ADD PUSH2 0x19C5 JUMPI PUSH2 0x19C5 PUSH2 0x19A0 JUMP JUMPDEST POP PUSH1 0x1 ADD SWAP1 JUMP JUMPDEST DUP1 DUP3 ADD DUP1 DUP3 GT ISZERO PUSH2 0x19DF JUMPI PUSH2 0x19DF PUSH2 0x19A0 JUMP JUMPDEST SWAP3 SWAP2 POP POP JUMP JUMPDEST PUSH0 DUP3 MLOAD PUSH2 0x19F6 DUP2 DUP5 PUSH1 0x20 DUP8 ADD PUSH2 0x1750 JUMP JUMPDEST SWAP2 SWAP1 SWAP2 ADD SWAP3 SWAP2 POP POP JUMP JUMPDEST DUP3 DUP2 MSTORE PUSH1 0x40 PUSH1 0x20 DUP3 ADD MSTORE PUSH0 PUSH2 0x1A18 PUSH1 0x40 DUP4 ADD DUP5 PUSH2 0x1772 JUMP JUMPDEST SWAP5 SWAP4 POP POP POP POP JUMP JUMPDEST DUP1 DUP3 MUL DUP2 ISZERO DUP3 DUP3 DIV DUP5 EQ OR PUSH2 0x19DF JUMPI PUSH2 0x19DF PUSH2 0x19A0 JUMP INVALID LOG2 PUSH5 0x6970667358 0x22 SLT KECCAK256 0xED 0xEB SWAP1 0xE8 PUSH17 0x8F5E41E719D9953057463A42D440C12233 SELFBALANCE PUSH4 0xBF22C68 EXTCODECOPY PUSH1 0x1C 0xCB PUSH5 0x736F6C6343 STOP ADDMOD EQ STOP CALLER "
		},
		"gasEstimates": {
			"creation": {
				"codeDepositCost": "1353000",
				"executionCost": "infinite",
				"totalCost": "infinite"
			},
			"external": {
				"AvailabilityCheckTimePeriod()": "2427",
				"addGuardian(address)": "54707",
				"cancelGuardianshipTransfer()": "31957",
				"cancelRecovery()": "32205",
				"changeAvalabilityTimePeriod(uint256)": "30124",
				"currRecoveryRound()": "2339",
				"editThreshold(uint256)": "32476",
				"executeGuardianAvailabilityCheck(address[])": "infinite",
				"executeGuardianshipTransfer(address)": "109883",
				"executeRecovery(address,address[])": "infinite",
				"executeTx(address,uint256,bytes)": "infinite",
				"getBalance()": "250",
				"guardianChangeRequest(address)": "4846",
				"guardianRecoveryRequest(address)": "6951",
				"guardianToRemoveTimestamp(address)": "2577",
				"inGuardianRequest()": "2404",
				"inRecovery()": "2403",
				"initiateRecovery(address)": "154330",
				"isGuardian(address)": "2557",
				"owner()": "2359",
				"supportAvailability()": "29957",
				"supportRecovery(address)": "105791",
				"threshold()": "2428",
				"transfer(address,uint256)": "infinite",
				"transferGuardianship(address,address)": "infinite"
			}
		},
		"methodIdentifiers": {
			"AvailabilityCheckTimePeriod()": "89302f0e",
			"addGuardian(address)": "a526d83b",
			"cancelGuardianshipTransfer()": "a7b65d10",
			"cancelRecovery()": "0ba234d6",
			"changeAvalabilityTimePeriod(uint256)": "fad2286b",
			"currRecoveryRound()": "ace7c993",
			"editThreshold(uint256)": "ec71511d",
			"executeGuardianAvailabilityCheck(address[])": "5fc7f48b",
			"executeGuardianshipTransfer(address)": "5db0db7c",
			"executeRecovery(address,address[])": "5fc489a7",
			"executeTx(address,uint256,bytes)": "912365ea",
			"getBalance()": "12065fe0",
			"guardianChangeRequest(address)": "1e969523",
			"guardianRecoveryRequest(address)": "371bbdc1",
			"guardianToRemoveTimestamp(address)": "cfbba190",
			"inGuardianRequest()": "a643e812",
			"inRecovery()": "f05151df",
			"initiateRecovery(address)": "d5ce9aad",
			"isGuardian(address)": "0c68ba21",
			"owner()": "8da5cb5b",
			"supportAvailability()": "4a062ba9",
			"supportRecovery(address)": "57e685bc",
			"threshold()": "42cde4e8",
			"transfer(address,uint256)": "a9059cbb",
			"transferGuardianship(address,address)": "d3582164"
		}
	},
	"abi": [
		{
			"inputs": [
				{
					"internalType": "address",
					"name": "_owner",
					"type": "address"
				},
				{
					"internalType": "address[]",
					"name": "guardianAddr",
					"type": "address[]"
				},
				{
					"internalType": "uint256",
					"name": "_threshold",
					"type": "uint256"
				}
			],
			"stateMutability": "nonpayable",
			"type": "constructor"
		},
		{
			"inputs": [],
			"name": "ReentrancyGuardReentrantCall",
			"type": "error"
		},
		{
			"anonymous": false,
			"inputs": [
				{
					"indexed": true,
					"internalType": "address",
					"name": "by",
					"type": "address"
				}
			],
			"name": "AvailabilityTimePeriodChanged",
			"type": "event"
		},
		{
			"anonymous": false,
			"inputs": [
				{
					"indexed": true,
					"internalType": "address",
					"name": "by",
					"type": "address"
				},
				{
					"indexed": false,
					"internalType": "address",
					"name": "newGuardian",
					"type": "address"
				}
			],
			"name": "GuardianAdded",
			"type": "event"
		},
		{
			"anonymous": false,
			"inputs": [
				{
					"indexed": true,
					"internalType": "address",
					"name": "by",
					"type": "address"
				}
			],
			"name": "GuardianAvailabilityChecked",
			"type": "event"
		},
		{
			"anonymous": false,
			"inputs": [
				{
					"indexed": true,
					"internalType": "address",
					"name": "guardian",
					"type": "address"
				}
			],
			"name": "GuardianAvailable",
			"type": "event"
		},
		{
			"anonymous": false,
			"inputs": [
				{
					"indexed": false,
					"internalType": "address",
					"name": "by",
					"type": "address"
				}
			],
			"name": "GuardianshipTransferCancelled",
			"type": "event"
		},
		{
			"anonymous": false,
			"inputs": [
				{
					"indexed": true,
					"internalType": "address",
					"name": "newGuardian",
					"type": "address"
				},
				{
					"indexed": false,
					"internalType": "address",
					"name": "oldGuardian",
					"type": "address"
				}
			],
			"name": "GuardianshipTransferExecuted",
			"type": "event"
		},
		{
			"anonymous": false,
			"inputs": [
				{
					"indexed": true,
					"internalType": "address",
					"name": "newGuardian",
					"type": "address"
				},
				{
					"indexed": false,
					"internalType": "address",
					"name": "oldGuardian",
					"type": "address"
				}
			],
			"name": "GuardianshipTransferInitiated",
			"type": "event"
		},
		{
			"anonymous": false,
			"inputs": [
				{
					"indexed": false,
					"internalType": "address",
					"name": "by",
					"type": "address"
				},
				{
					"indexed": true,
					"internalType": "uint256",
					"name": "round",
					"type": "uint256"
				}
			],
			"name": "RecoveryCancelled",
			"type": "event"
		},
		{
			"anonymous": false,
			"inputs": [
				{
					"indexed": false,
					"internalType": "address",
					"name": "oldOwner",
					"type": "address"
				},
				{
					"indexed": false,
					"internalType": "address",
					"name": "newOwner",
					"type": "address"
				},
				{
					"indexed": true,
					"internalType": "uint256",
					"name": "round",
					"type": "uint256"
				}
			],
			"name": "RecoveryExecuted",
			"type": "event"
		},
		{
			"anonymous": false,
			"inputs": [
				{
					"indexed": true,
					"internalType": "address",
					"name": "by",
					"type": "address"
				},
				{
					"indexed": false,
					"internalType": "address",
					"name": "newProposedOwner",
					"type": "address"
				},
				{
					"indexed": true,
					"internalType": "uint256",
					"name": "round",
					"type": "uint256"
				}
			],
			"name": "RecoveryInitiated",
			"type": "event"
		},
		{
			"anonymous": false,
			"inputs": [
				{
					"indexed": true,
					"internalType": "address",
					"name": "by",
					"type": "address"
				},
				{
					"indexed": false,
					"internalType": "address",
					"name": "newProposedOwner",
					"type": "address"
				},
				{
					"indexed": true,
					"internalType": "uint256",
					"name": "round",
					"type": "uint256"
				}
			],
			"name": "RecoverySupported",
			"type": "event"
		},
		{
			"anonymous": false,
			"inputs": [
				{
					"indexed": true,
					"internalType": "address",
					"name": "by",
					"type": "address"
				},
				{
					"indexed": true,
					"internalType": "uint256",
					"name": "newThreshold",
					"type": "uint256"
				}
			],
			"name": "ThresholdUpdated",
			"type": "event"
		},
		{
			"anonymous": false,
			"inputs": [
				{
					"indexed": true,
					"internalType": "address",
					"name": "callee",
					"type": "address"
				},
				{
					"indexed": false,
					"internalType": "uint256",
					"name": "value",
					"type": "uint256"
				},
				{
					"indexed": false,
					"internalType": "bytes",
					"name": "data",
					"type": "bytes"
				}
			],
			"name": "TransactionExecuted",
			"type": "event"
		},
		{
			"anonymous": false,
			"inputs": [
				{
					"indexed": true,
					"internalType": "address",
					"name": "destination",
					"type": "address"
				},
				{
					"indexed": false,
					"internalType": "uint256",
					"name": "value",
					"type": "uint256"
				}
			],
			"name": "Transferred",
			"type": "event"
		},
		{
			"inputs": [],
			"name": "AvailabilityCheckTimePeriod",
			"outputs": [
				{
					"internalType": "uint256",
					"name": "",
					"type": "uint256"
				}
			],
			"stateMutability": "view",
			"type": "function"
		},
		{
			"inputs": [
				{
					"internalType": "address",
					"name": "newGuardian",
					"type": "address"
				}
			],
			"name": "addGuardian",
			"outputs": [],
			"stateMutability": "nonpayable",
			"type": "function"
		},
		{
			"inputs": [],
			"name": "cancelGuardianshipTransfer",
			"outputs": [],
			"stateMutability": "nonpayable",
			"type": "function"
		},
		{
			"inputs": [],
			"name": "cancelRecovery",
			"outputs": [],
			"stateMutability": "nonpayable",
			"type": "function"
		},
		{
			"inputs": [
				{
					"internalType": "uint256",
					"name": "_days",
					"type": "uint256"
				}
			],
			"name": "changeAvalabilityTimePeriod",
			"outputs": [],
			"stateMutability": "nonpayable",
			"type": "function"
		},
		{
			"inputs": [],
			"name": "currRecoveryRound",
			"outputs": [
				{
					"internalType": "uint256",
					"name": "",
					"type": "uint256"
				}
			],
			"stateMutability": "view",
			"type": "function"
		},
		{
			"inputs": [
				{
					"internalType": "uint256",
					"name": "_threshold",
					"type": "uint256"
				}
			],
			"name": "editThreshold",
			"outputs": [],
			"stateMutability": "nonpayable",
			"type": "function"
		},
		{
			"inputs": [
				{
					"internalType": "address[]",
					"name": "guardianList",
					"type": "address[]"
				}
			],
			"name": "executeGuardianAvailabilityCheck",
			"outputs": [],
			"stateMutability": "nonpayable",
			"type": "function"
		},
		{
			"inputs": [
				{
					"internalType": "address",
					"name": "appellant",
					"type": "address"
				}
			],
			"name": "executeGuardianshipTransfer",
			"outputs": [],
			"stateMutability": "nonpayable",
			"type": "function"
		},
		{
			"inputs": [
				{
					"internalType": "address",
					"name": "newOwner",
					"type": "address"
				},
				{
					"internalType": "address[]",
					"name": "guardianList",
					"type": "address[]"
				}
			],
			"name": "executeRecovery",
			"outputs": [],
			"stateMutability": "nonpayable",
			"type": "function"
		},
		{
			"inputs": [
				{
					"internalType": "address",
					"name": "callee",
					"type": "address"
				},
				{
					"internalType": "uint256",
					"name": "value",
					"type": "uint256"
				},
				{
					"internalType": "bytes",
					"name": "data",
					"type": "bytes"
				}
			],
			"name": "executeTx",
			"outputs": [
				{
					"internalType": "bytes",
					"name": "",
					"type": "bytes"
				}
			],
			"stateMutability": "nonpayable",
			"type": "function"
		},
		{
			"inputs": [],
			"name": "getBalance",
			"outputs": [
				{
					"internalType": "uint256",
					"name": "",
					"type": "uint256"
				}
			],
			"stateMutability": "view",
			"type": "function"
		},
		{
			"inputs": [
				{
					"internalType": "address",
					"name": "",
					"type": "address"
				}
			],
			"name": "guardianChangeRequest",
			"outputs": [
				{
					"internalType": "address",
					"name": "proposedGuardian",
					"type": "address"
				},
				{
					"internalType": "address",
					"name": "guardianToChange",
					"type": "address"
				},
				{
					"internalType": "bool",
					"name": "isUsed",
					"type": "bool"
				}
			],
			"stateMutability": "view",
			"type": "function"
		},
		{
			"inputs": [
				{
					"internalType": "address",
					"name": "",
					"type": "address"
				}
			],
			"name": "guardianRecoveryRequest",
			"outputs": [
				{
					"internalType": "address",
					"name": "proposedOwner",
					"type": "address"
				},
				{
					"internalType": "uint256",
					"name": "recoveryRound",
					"type": "uint256"
				},
				{
					"internalType": "bool",
					"name": "isUsed",
					"type": "bool"
				}
			],
			"stateMutability": "view",
			"type": "function"
		},
		{
			"inputs": [
				{
					"internalType": "address",
					"name": "",
					"type": "address"
				}
			],
			"name": "guardianToRemoveTimestamp",
			"outputs": [
				{
					"internalType": "uint256",
					"name": "",
					"type": "uint256"
				}
			],
			"stateMutability": "view",
			"type": "function"
		},
		{
			"inputs": [],
			"name": "inGuardianRequest",
			"outputs": [
				{
					"internalType": "bool",
					"name": "",
					"type": "bool"
				}
			],
			"stateMutability": "view",
			"type": "function"
		},
		{
			"inputs": [],
			"name": "inRecovery",
			"outputs": [
				{
					"internalType": "bool",
					"name": "",
					"type": "bool"
				}
			],
			"stateMutability": "view",
			"type": "function"
		},
		{
			"inputs": [
				{
					"internalType": "address",
					"name": "_proposedOwner",
					"type": "address"
				}
			],
			"name": "initiateRecovery",
			"outputs": [],
			"stateMutability": "nonpayable",
			"type": "function"
		},
		{
			"inputs": [
				{
					"internalType": "address",
					"name": "",
					"type": "address"
				}
			],
			"name": "isGuardian",
			"outputs": [
				{
					"internalType": "bool",
					"name": "",
					"type": "bool"
				}
			],
			"stateMutability": "view",
			"type": "function"
		},
		{
			"inputs": [],
			"name": "owner",
			"outputs": [
				{
					"internalType": "address",
					"name": "",
					"type": "address"
				}
			],
			"stateMutability": "view",
			"type": "function"
		},
		{
			"inputs": [],
			"name": "supportAvailability",
			"outputs": [],
			"stateMutability": "nonpayable",
			"type": "function"
		},
		{
			"inputs": [
				{
					"internalType": "address",
					"name": "_proposedOwner",
					"type": "address"
				}
			],
			"name": "supportRecovery",
			"outputs": [],
			"stateMutability": "nonpayable",
			"type": "function"
		},
		{
			"inputs": [],
			"name": "threshold",
			"outputs": [
				{
					"internalType": "uint256",
					"name": "",
					"type": "uint256"
				}
			],
			"stateMutability": "view",
			"type": "function"
		},
		{
			"inputs": [
				{
					"internalType": "address payable",
					"name": "destination",
					"type": "address"
				},
				{
					"internalType": "uint256",
					"name": "amount",
					"type": "uint256"
				}
			],
			"name": "transfer",
			"outputs": [],
			"stateMutability": "nonpayable",
			"type": "function"
		},
		{
			"inputs": [
				{
					"internalType": "address",
					"name": "guardianToChange",
					"type": "address"
				},
				{
					"internalType": "address",
					"name": "newGuardianHash",
					"type": "address"
				}
			],
			"name": "transferGuardianship",
			"outputs": [],
			"stateMutability": "nonpayable",
			"type": "function"
		}
	]
}